{"contracts/PCOLBUSDPool.sol":{"PCOLBUSDPool":{"abi":[{"inputs":[{"internalType":"address","name":"_tokenCOL","type":"address"},{"internalType":"address","name":"_tokenBUSD","type":"address"},{"internalType":"address","name":"_governanceToken","type":"address"}],"stateMutability":"nonpayable","type":"constructor"},{"inputs":[],"name":"ReentrancyGuardReentrantCall","type":"error"},{"inputs":[{"internalType":"address","name":"token","type":"address"}],"name":"SafeERC20FailedOperation","type":"error"},{"anonymous":false,"inputs":[{"indexed":true,"internalType":"address","name":"user","type":"address"},{"indexed":false,"internalType":"uint256","name":"amount","type":"uint256"}],"name":"BorrowBUSD","type":"event"},{"anonymous":false,"inputs":[{"indexed":true,"internalType":"address","name":"user","type":"address"},{"indexed":false,"internalType":"uint256","name":"amount","type":"uint256"}],"name":"BorrowCOL","type":"event"},{"anonymous":false,"inputs":[{"indexed":true,"internalType":"address","name":"user","type":"address"},{"indexed":false,"internalType":"uint256","name":"amount","type":"uint256"},{"indexed":false,"internalType":"uint256","name":"pbusdMinted","type":"uint256"}],"name":"DepositBUSD","type":"event"},{"anonymous":false,"inputs":[{"indexed":true,"internalType":"address","name":"user","type":"address"},{"indexed":false,"internalType":"uint256","name":"amount","type":"uint256"},{"indexed":false,"internalType":"uint256","name":"pcolMinted","type":"uint256"}],"name":"DepositCOL","type":"event"},{"anonymous":false,"inputs":[{"indexed":true,"internalType":"address","name":"user","type":"address"},{"indexed":false,"internalType":"uint256","name":"amount","type":"uint256"}],"name":"DepositCollateralPBUSD","type":"event"},{"anonymous":false,"inputs":[{"indexed":true,"internalType":"address","name":"user","type":"address"},{"indexed":false,"internalType":"uint256","name":"amount","type":"uint256"}],"name":"DepositCollateralPCOL","type":"event"},{"anonymous":false,"inputs":[{"indexed":true,"internalType":"address","name":"receiver","type":"address"},{"indexed":true,"internalType":"address","name":"asset","type":"address"},{"indexed":false,"internalType":"uint256","name":"amount","type":"uint256"},{"indexed":false,"internalType":"uint256","name":"fee","type":"uint256"}],"name":"FlashLoan","type":"event"},{"anonymous":false,"inputs":[{"indexed":true,"internalType":"address","name":"liquidator","type":"address"},{"indexed":true,"internalType":"address","name":"user","type":"address"},{"indexed":false,"internalType":"uint256","name":"debtRepaid","type":"uint256"},{"indexed":false,"internalType":"uint256","name":"pcolReceived","type":"uint256"}],"name":"LiquidateBUSD","type":"event"},{"anonymous":false,"inputs":[{"indexed":true,"internalType":"address","name":"liquidator","type":"address"},{"indexed":true,"internalType":"address","name":"user","type":"address"},{"indexed":false,"internalType":"uint256","name":"debtRepaid","type":"uint256"},{"indexed":false,"internalType":"uint256","name":"pbusdReceived","type":"uint256"}],"name":"LiquidateCOL","type":"event"},{"anonymous":false,"inputs":[{"indexed":true,"internalType":"address","name":"user","type":"address"},{"indexed":false,"internalType":"uint256","name":"amount","type":"uint256"}],"name":"RepayBUSD","type":"event"},{"anonymous":false,"inputs":[{"indexed":true,"internalType":"address","name":"user","type":"address"},{"indexed":false,"internalType":"uint256","name":"amount","type":"uint256"}],"name":"RepayCOL","type":"event"},{"anonymous":false,"inputs":[{"indexed":true,"internalType":"address","name":"user","type":"address"},{"indexed":false,"internalType":"uint256","name":"amount","type":"uint256"},{"indexed":false,"internalType":"uint256","name":"pbusdBurned","type":"uint256"}],"name":"WithdrawBUSD","type":"event"},{"anonymous":false,"inputs":[{"indexed":true,"internalType":"address","name":"user","type":"address"},{"indexed":false,"internalType":"uint256","name":"amount","type":"uint256"},{"indexed":false,"internalType":"uint256","name":"pcolBurned","type":"uint256"}],"name":"WithdrawCOL","type":"event"},{"anonymous":false,"inputs":[{"indexed":true,"internalType":"address","name":"user","type":"address"},{"indexed":false,"internalType":"uint256","name":"amount","type":"uint256"}],"name":"WithdrawCollateralPBUSD","type":"event"},{"anonymous":false,"inputs":[{"indexed":true,"internalType":"address","name":"user","type":"address"},{"indexed":false,"internalType":"uint256","name":"amount","type":"uint256"}],"name":"WithdrawCollateralPCOL","type":"event"},{"inputs":[],"name":"baseRatePerBlockBUSD","outputs":[{"internalType":"uint256","name":"","type":"uint256"}],"stateMutability":"view","type":"function"},{"inputs":[],"name":"baseRatePerBlockCOL","outputs":[{"internalType":"uint256","name":"","type":"uint256"}],"stateMutability":"view","type":"function"},{"inputs":[{"internalType":"uint256","name":"amount","type":"uint256"}],"name":"borrowBUSD","outputs":[],"stateMutability":"nonpayable","type":"function"},{"inputs":[{"internalType":"uint256","name":"amount","type":"uint256"}],"name":"borrowCOL","outputs":[],"stateMutability":"nonpayable","type":"function"},{"inputs":[],"name":"borrowIndexBUSD","outputs":[{"internalType":"uint256","name":"","type":"uint256"}],"stateMutability":"view","type":"function"},{"inputs":[],"name":"borrowIndexCOL","outputs":[{"internalType":"uint256","name":"","type":"uint256"}],"stateMutability":"view","type":"function"},{"inputs":[{"internalType":"uint256","name":"amount","type":"uint256"}],"name":"depositBUSD","outputs":[],"stateMutability":"nonpayable","type":"function"},{"inputs":[{"internalType":"uint256","name":"amount","type":"uint256"}],"name":"depositCOL","outputs":[],"stateMutability":"nonpayable","type":"function"},{"inputs":[{"internalType":"uint256","name":"amount","type":"uint256"}],"name":"depositCollateralPBUSD","outputs":[],"stateMutability":"nonpayable","type":"function"},{"inputs":[{"internalType":"uint256","name":"amount","type":"uint256"}],"name":"depositCollateralPCOL","outputs":[],"stateMutability":"nonpayable","type":"function"},{"inputs":[{"internalType":"address","name":"receiverAddress","type":"address"},{"internalType":"address","name":"asset","type":"address"},{"internalType":"uint256","name":"amount","type":"uint256"},{"internalType":"bytes","name":"params","type":"bytes"}],"name":"flashLoan","outputs":[],"stateMutability":"nonpayable","type":"function"},{"inputs":[],"name":"flashLoanFeeBps","outputs":[{"internalType":"uint256","name":"","type":"uint256"}],"stateMutability":"view","type":"function"},{"inputs":[],"name":"getBorrowAPYBUSD","outputs":[{"internalType":"uint256","name":"","type":"uint256"}],"stateMutability":"view","type":"function"},{"inputs":[],"name":"getBorrowAPYCOL","outputs":[{"internalType":"uint256","name":"","type":"uint256"}],"stateMutability":"view","type":"function"},{"inputs":[],"name":"getBorrowIndexBUSDView","outputs":[{"internalType":"uint256","name":"","type":"uint256"}],"stateMutability":"view","type":"function"},{"inputs":[],"name":"getBorrowIndexCOLView","outputs":[{"internalType":"uint256","name":"","type":"uint256"}],"stateMutability":"view","type":"function"},{"inputs":[],"name":"getBorrowRatePerBlockBUSD","outputs":[{"internalType":"uint256","name":"","type":"uint256"}],"stateMutability":"view","type":"function"},{"inputs":[],"name":"getBorrowRatePerBlockCOL","outputs":[{"internalType":"uint256","name":"","type":"uint256"}],"stateMutability":"view","type":"function"},{"inputs":[{"internalType":"address","name":"user","type":"address"}],"name":"getCurrentDebtBUSD","outputs":[{"internalType":"uint256","name":"","type":"uint256"}],"stateMutability":"view","type":"function"},{"inputs":[{"internalType":"address","name":"user","type":"address"}],"name":"getCurrentDebtCOL","outputs":[{"internalType":"uint256","name":"","type":"uint256"}],"stateMutability":"view","type":"function"},{"inputs":[{"internalType":"uint256","name":"amount","type":"uint256"}],"name":"getFlashLoanFee","outputs":[{"internalType":"uint256","name":"","type":"uint256"}],"stateMutability":"view","type":"function"},{"inputs":[{"internalType":"address","name":"user","type":"address"}],"name":"getHealthFactorPBUSD","outputs":[{"internalType":"uint256","name":"","type":"uint256"}],"stateMutability":"view","type":"function"},{"inputs":[{"internalType":"address","name":"user","type":"address"}],"name":"getHealthFactorPCOL","outputs":[{"internalType":"uint256","name":"","type":"uint256"}],"stateMutability":"view","type":"function"},{"inputs":[{"internalType":"address","name":"user","type":"address"}],"name":"getMaxBorrowBUSD","outputs":[{"internalType":"uint256","name":"","type":"uint256"}],"stateMutability":"view","type":"function"},{"inputs":[{"internalType":"address","name":"user","type":"address"}],"name":"getMaxBorrowCOL","outputs":[{"internalType":"uint256","name":"","type":"uint256"}],"stateMutability":"view","type":"function"},{"inputs":[],"name":"getPriceBUSDIn8","outputs":[{"internalType":"uint256","name":"","type":"uint256"}],"stateMutability":"view","type":"function"},{"inputs":[],"name":"getPriceCOLIn8","outputs":[{"internalType":"uint256","name":"","type":"uint256"}],"stateMutability":"view","type":"function"},{"inputs":[],"name":"getSupplyAPYBUSD","outputs":[{"internalType":"uint256","name":"","type":"uint256"}],"stateMutability":"view","type":"function"},{"inputs":[],"name":"getSupplyAPYCOL","outputs":[{"internalType":"uint256","name":"","type":"uint256"}],"stateMutability":"view","type":"function"},{"inputs":[{"internalType":"address","name":"user","type":"address"}],"name":"getUserPositionPBUSD","outputs":[{"internalType":"uint256","name":"collateralPBUSD","type":"uint256"},{"internalType":"uint256","name":"debtCOL_","type":"uint256"}],"stateMutability":"view","type":"function"},{"inputs":[{"internalType":"address","name":"user","type":"address"}],"name":"getUserPositionPCOL","outputs":[{"internalType":"uint256","name":"collateralPCOL","type":"uint256"},{"internalType":"uint256","name":"debtBUSD_","type":"uint256"}],"stateMutability":"view","type":"function"},{"inputs":[],"name":"getUtilizationBUSD","outputs":[{"internalType":"uint256","name":"","type":"uint256"}],"stateMutability":"view","type":"function"},{"inputs":[],"name":"getUtilizationCOL","outputs":[{"internalType":"uint256","name":"","type":"uint256"}],"stateMutability":"view","type":"function"},{"inputs":[],"name":"governanceToken","outputs":[{"internalType":"contract GovernanceToken","name":"","type":"address"}],"stateMutability":"view","type":"function"},{"inputs":[{"internalType":"address","name":"user","type":"address"}],"name":"isLiquidatablePBUSD","outputs":[{"internalType":"bool","name":"","type":"bool"}],"stateMutability":"view","type":"function"},{"inputs":[{"internalType":"address","name":"user","type":"address"}],"name":"isLiquidatablePCOL","outputs":[{"internalType":"bool","name":"","type":"bool"}],"stateMutability":"view","type":"function"},{"inputs":[],"name":"lastBlockBUSD","outputs":[{"internalType":"uint256","name":"","type":"uint256"}],"stateMutability":"view","type":"function"},{"inputs":[],"name":"lastBlockCOL","outputs":[{"internalType":"uint256","name":"","type":"uint256"}],"stateMutability":"view","type":"function"},{"inputs":[{"internalType":"address","name":"user","type":"address"}],"name":"liquidateBUSD","outputs":[],"stateMutability":"nonpayable","type":"function"},{"inputs":[{"internalType":"address","name":"user","type":"address"}],"name":"liquidateCOL","outputs":[],"stateMutability":"nonpayable","type":"function"},{"inputs":[],"name":"liquidationBonus","outputs":[{"internalType":"uint256","name":"","type":"uint256"}],"stateMutability":"view","type":"function"},{"inputs":[],"name":"liquidationThreshold","outputs":[{"internalType":"uint256","name":"","type":"uint256"}],"stateMutability":"view","type":"function"},{"inputs":[{"internalType":"address","name":"","type":"address"}],"name":"lockedPBUSD","outputs":[{"internalType":"uint256","name":"","type":"uint256"}],"stateMutability":"view","type":"function"},{"inputs":[{"internalType":"address","name":"","type":"address"}],"name":"lockedPCOL","outputs":[{"internalType":"uint256","name":"","type":"uint256"}],"stateMutability":"view","type":"function"},{"inputs":[],"name":"multiplierPerBlockBUSD","outputs":[{"internalType":"uint256","name":"","type":"uint256"}],"stateMutability":"view","type":"function"},{"inputs":[],"name":"multiplierPerBlockCOL","outputs":[{"internalType":"uint256","name":"","type":"uint256"}],"stateMutability":"view","type":"function"},{"inputs":[],"name":"pbusdToken","outputs":[{"internalType":"contract ReceiptToken","name":"","type":"address"}],"stateMutability":"view","type":"function"},{"inputs":[],"name":"pcolToken","outputs":[{"internalType":"contract ReceiptToken","name":"","type":"address"}],"stateMutability":"view","type":"function"},{"inputs":[{"internalType":"uint256","name":"amount","type":"uint256"}],"name":"repayBUSD","outputs":[],"stateMutability":"nonpayable","type":"function"},{"inputs":[{"internalType":"uint256","name":"amount","type":"uint256"}],"name":"repayCOL","outputs":[],"stateMutability":"nonpayable","type":"function"},{"inputs":[],"name":"reserveFactorBpsBUSD","outputs":[{"internalType":"uint256","name":"","type":"uint256"}],"stateMutability":"view","type":"function"},{"inputs":[],"name":"reserveFactorBpsCOL","outputs":[{"internalType":"uint256","name":"","type":"uint256"}],"stateMutability":"view","type":"function"},{"inputs":[],"name":"rewardPerBorrow","outputs":[{"internalType":"uint256","name":"","type":"uint256"}],"stateMutability":"view","type":"function"},{"inputs":[],"name":"rewardPerDeposit","outputs":[{"internalType":"uint256","name":"","type":"uint256"}],"stateMutability":"view","type":"function"},{"inputs":[{"internalType":"address","name":"","type":"address"}],"name":"scaledDebtBUSD","outputs":[{"internalType":"uint256","name":"","type":"uint256"}],"stateMutability":"view","type":"function"},{"inputs":[{"internalType":"address","name":"","type":"address"}],"name":"scaledDebtCOL","outputs":[{"internalType":"uint256","name":"","type":"uint256"}],"stateMutability":"view","type":"function"},{"inputs":[],"name":"tokenBUSD","outputs":[{"internalType":"address","name":"","type":"address"}],"stateMutability":"view","type":"function"},{"inputs":[],"name":"tokenCOL","outputs":[{"internalType":"address","name":"","type":"address"}],"stateMutability":"view","type":"function"},{"inputs":[],"name":"totalScaledDebtBUSD","outputs":[{"internalType":"uint256","name":"","type":"uint256"}],"stateMutability":"view","type":"function"},{"inputs":[],"name":"totalScaledDebtCOL","outputs":[{"internalType":"uint256","name":"","type":"uint256"}],"stateMutability":"view","type":"function"},{"inputs":[{"internalType":"uint256","name":"amount","type":"uint256"}],"name":"withdrawBUSD","outputs":[],"stateMutability":"nonpayable","type":"function"},{"inputs":[{"internalType":"uint256","name":"amount","type":"uint256"}],"name":"withdrawCOL","outputs":[],"stateMutability":"nonpayable","type":"function"},{"inputs":[{"internalType":"uint256","name":"amount","type":"uint256"}],"name":"withdrawCollateralPBUSD","outputs":[],"stateMutability":"nonpayable","type":"function"},{"inputs":[{"internalType":"uint256","name":"amount","type":"uint256"}],"name":"withdrawCollateralPCOL","outputs":[],"stateMutability":"nonpayable","type":"function"}],"evm":{"bytecode":{"linkReferences":{},"object":"610100604052670de0b6b3a7640000600555670de0b6b3a764000060065566038d7ea4c68000600b5566b1a2bc2ec50000600c556103e8600d5566038d7ea4c68000600e5566b1a2bc2ec50000600f556103e8601055611f406011556103e86012556009601355670de0b6b3a764000060145567016345785d8a00006015553480156200008b57600080fd5b5060405162004c6938038062004c69833981016040819052620000ae9162000327565b60017f9b779b17422d0df92223018b32b4d1fa46e071723d6817e2486d003becc55f00556001600160a01b03831615801590620000f357506001600160a01b03821615155b80156200010857506001600160a01b03811615155b6200014f5760405162461bcd60e51b815260206004820152601260248201527150434f4c42555344506f6f6c3a207a65726f60701b60448201526064015b60405180910390fd5b816001600160a01b0316836001600160a01b031603620001b25760405162461bcd60e51b815260206004820152601860248201527f50434f4c42555344506f6f6c3a2073616d6520746f6b656e0000000000000000604482015260640162000146565b6001600160a01b03808416608052821660a0526040513090620001d590620002fc565b606080825260089082015267141bdbdb0810d3d360c21b608082015260a060208201819052600490820152631410d3d360e21b60c08201526001600160a01b03909116604082015260e001604051809103906000f0801580156200023d573d6000803e3d6000fd5b506001600160a01b031660c05260405130906200025a90620002fc565b606080825260099082015268141bdbdb08109554d160ba1b608082015260a0602082018190526005908201526414109554d160da1b60c08201526001600160a01b03909116604082015260e001604051809103906000f080158015620002c4573d6000803e3d6000fd5b506001600160a01b0390811660e052600080546001600160a01b03191692909116919091179055505043600781905560085562000371565b610cad8062003fbc83390190565b80516001600160a01b03811681146200032257600080fd5b919050565b6000806000606084860312156200033d57600080fd5b62000348846200030a565b925062000358602085016200030a565b915062000368604085016200030a565b90509250925092565b60805160a05160c05160e051613b07620004b5600039600081816104220152818161145b01528181611b5b01528181611bd2015281816120d10152818161226c015261258601526000818161047c015281816108bc01528181611dd4015281816122fa0152818161276201528181612d790152612df00152600081816104a301528181610ac9015281816111bc0152818161131f0152818161141c015281816115b30152818161239a015281816124ae015281816125fc015281816128b001528181612d3401528181612fa0015281816133e8015261362e01526000818161073a0152818161087d01528181610d1501528181610ed2015281816110350152818161157801528181611b1601528181611cfc01528181611e4a01528181611f7001528181612a1301528181612f1a015281816132bf01526135ab0152613b076000f3fe608060405234801561001057600080fd5b50600436106103d05760003560e01c806382463417116101ff578063c0c7347e1161011a578063f4216de1116100ad578063f9efd0581161007c578063f9efd05814610808578063fd47fbf21461081b578063fdd73f4114610824578063ffdee98d1461082c57600080fd5b8063f4216de1146107c6578063f5908219146107cf578063f678e9d7146107e2578063f96dae0a146107f557600080fd5b8063e68a5c04116100e9578063e68a5c041461078f578063ea4e2fd2146107a2578063edc38cb4146107ab578063f205743f146107be57600080fd5b8063c0c7347e1461072c578063cbe98e3b14610735578063cc3bcaf31461075c578063dceba4511461076f57600080fd5b8063a74f0bfa11610192578063b7be98ab11610161578063b7be98ab146106e9578063ba08ff9b14610711578063bf83df131461071a578063c0656bd01461072357600080fd5b8063a74f0bfa146106ab578063a7a24830146106b3578063ac72d9ac146106bc578063adcd54a7146106c657600080fd5b8063a178f59d116101ce578063a178f59d1461066a578063a19578561461067d578063a32447bc14610685578063a3e3d86e1461069857600080fd5b8063824634171461063d5780638617d017146106455780638dd2a7cf1461064e5780638edb376c1461066157600080fd5b80633c5607a5116102ef5780635cffe9de11610282578063737808f411610251578063737808f4146106055780637502237b1461060e578063752e6088146106215780637b7c1f4c1461063457600080fd5b80635cffe9de146105ce578063643e3fd3146105e157806368532c95146105ea5780636e2e4659146105fd57600080fd5b80634454a10e116102be5780634454a10e146105825780634564987a146105955780634577848e146105a857806346bfe1df146105bb57600080fd5b80633c5607a5146105605780633c6ce203146105695780633d60db5a146105715780634031234c1461057957600080fd5b8063226f4b4e116103675780632f5b0aba116103365780632f5b0aba1461053457806330e0c05e1461053d578063326770f21461054557806338124fa41461055857600080fd5b8063226f4b4e146104e557806326bbb608146104f857806328a88d23146105015780632beabef31461052157600080fd5b80631c1318eb116103a35780631c1318eb146104645780631f59d2b814610477578063213ef7f71461049e57806321c61671146104c557600080fd5b806301fbcfde146103d5578063056fd0f714610408578063128078a71461041d57806319b87fe81461045c575b600080fd5b6103f56103e3366004613729565b60036020526000908152604090205481565b6040519081526020015b60405180910390f35b61041b610416366004613744565b61083f565b005b6104447f000000000000000000000000000000000000000000000000000000000000000081565b6040516001600160a01b0390911681526020016103ff565b6103f56109ed565b6103f5610472366004613729565b610a0a565b6104447f000000000000000000000000000000000000000000000000000000000000000081565b6104447f000000000000000000000000000000000000000000000000000000000000000081565b6103f56104d3366004613729565b60026020526000908152604090205481565b6103f56104f3366004613729565b610b51565b6103f560155481565b6103f561050f366004613729565b60016020526000908152604090205481565b6103f561052f366004613729565b610be6565b6103f5600b5481565b6103f5610c2c565b6103f5610553366004613729565b610c3a565b6103f5610c77565b6103f560105481565b6103f5610cb8565b6103f5610cf3565b6103f560115481565b6103f5610590366004613729565b610def565b61041b6105a3366004613744565b610e25565b61041b6105b6366004613744565b611119565b61041b6105c9366004613744565b6113e7565b61041b6105dc36600461375d565b61156e565b6103f5600f5481565b61041b6105f8366004613729565b611938565b6103f5611c5c565b6103f5600a5481565b61041b61061c366004613744565b611cbd565b6103f561062f366004613729565b611eab565b6103f560125481565b6103f5611f9f565b6103f5600d5481565b6103f561065c366004613744565b612089565b6103f560075481565b61041b610678366004613744565b61209c565b6103f561214f565b61041b610693366004613744565b61218b565b61041b6106a6366004613744565b6122c5565b6103f5612378565b6103f5600c5481565b6305f5e1006103f5565b6106d96106d4366004613729565b612427565b60405190151581526020016103ff565b6106fc6106f7366004613729565b612442565b604080519283526020830191909152016103ff565b6103f560065481565b6103f560055481565b6103f560095481565b6103f560135481565b6104447f000000000000000000000000000000000000000000000000000000000000000081565b61041b61076a366004613744565b61246f565b6103f561077d366004613729565b60046020526000908152604090205481565b6106fc61079d366004613729565b61265d565b6103f560145481565b61041b6107b9366004613744565b612681565b6103f56127bb565b6103f560085481565b61041b6107dd366004613744565b6127c5565b61041b6107f0366004613744565b612928565b600054610444906001600160a01b031681565b6106d9610816366004613729565b612a6d565b6103f5600e5481565b6103f5612a81565b61041b61083a366004613729565b612b56565b610847612e5a565b600081116108705760405162461bcd60e51b8152600401610867906137f8565b60405180910390fd5b6108a56001600160a01b037f000000000000000000000000000000000000000000000000000000000000000016333084612e76565b6040516340c10f1960e01b81526001600160a01b037f000000000000000000000000000000000000000000000000000000000000000016906340c10f19906108f39033908590600401613824565b600060405180830381600087803b15801561090d57600080fd5b505af1158015610921573d6000803e3d6000fd5b505050506000601454111561099757600054601454604051634d24848760e11b81526001600160a01b0390921691639a49090e9161096491339190600401613824565b600060405180830381600087803b15801561097e57600080fd5b505af1158015610992573d6000803e3d6000fd5b505050505b604080518281526020810183905233917f69cf9c0357203eb60830c3c768cc9adf5436120832d38c926997c4523adc816791015b60405180910390a26109ea6001600080516020613ab283398151915255565b50565b6000622014806109fb610c77565b610a059190613853565b905090565b6001600160a01b0381166000908152600160205260408120548103610a3157506000919050565b6000610a3c83612eb2565b905060006305f5e100610a4e85610def565b610a589190613853565b9050600061271060115484610a6d9190613853565b610a779190613880565b9050818111610a8b57506000949350505050565b60006305f5e100610a9c8484613894565b610aa69190613880565b6040516370a0823160e01b81523060048201529091506000906001600160a01b037f000000000000000000000000000000000000000000000000000000000000000016906370a08231906024015b602060405180830381865afa158015610b11573d6000803e3d6000fd5b505050506040513d601f19601f82011682018060405250810190610b3591906138a7565b9050808211610b445781610b46565b805b979650505050505050565b600080610b5d83610be6565b905080600003610b71575060001992915050565b6000610b7b612ef4565b610b859083613853565b90506000610b928561306d565b905081600003610ba85750600019949350505050565b610bb461271083613853565b601154610bc19083613853565b610bd390670de0b6b3a7640000613853565b610bdd9190613880565b95945050505050565b6000670de0b6b3a7640000610bf9611f9f565b6001600160a01b038416600090815260046020526040902054610c1c9190613853565b610c269190613880565b92915050565b6000622014806109fb610cb8565b600080610c4683610def565b905080600003610c5a575060001992915050565b6000610c6a6305f5e10083613853565b90506000610b9285612eb2565b600080610c82612378565b9050670de0b6b3a764000081600c54610c9b9190613853565b610ca59190613880565b600b54610cb291906138c0565b91505090565b600080610cc3610cf3565b9050670de0b6b3a764000081600f54610cdc9190613853565b610ce69190613880565b600e54610cb291906138c0565b6040516370a0823160e01b815230600482015260009081906001600160a01b037f000000000000000000000000000000000000000000000000000000000000000016906370a0823190602401602060405180830381865afa158015610d5c573d6000803e3d6000fd5b505050506040513d601f19601f82011682018060405250810190610d8091906138a7565b90506000670de0b6b3a7640000610d95611f9f565b600a54610da29190613853565b610dac9190613880565b90506000610dba82846138c0565b90508015610de45780610dd583670de0b6b3a7640000613853565b610ddf9190613880565b610de7565b60005b935050505090565b6000670de0b6b3a7640000610e02612a81565b6001600160a01b038416600090815260036020526040902054610c1c9190613853565b610e2d612e5a565b610e35613095565b60008111610e555760405162461bcd60e51b8152600401610867906137f8565b33600090815260026020526040902054610ebb5760405162461bcd60e51b815260206004820152602160248201527f50434f4c42555344506f6f6c3a206e6f20504255534420636f6c6c61746572616044820152601b60fa1b6064820152608401610867565b6040516370a0823160e01b815230600482015281907f00000000000000000000000000000000000000000000000000000000000000006001600160a01b0316906370a0823190602401602060405180830381865afa158015610f21573d6000803e3d6000fd5b505050506040513d601f19601f82011682018060405250810190610f4591906138a7565b1015610f935760405162461bcd60e51b815260206004820152601e60248201527f50434f4c42555344506f6f6c3a20696e73756666696369656e7420434f4c00006044820152606401610867565b600654600090610fab83670de0b6b3a7640000613853565b610fb59190613880565b33600090815260046020526040812080549293508392909190610fd99084906138c0565b9250508190555080600a6000828254610ff291906138c0565b90915550670de0b6b3a7640000905061100a33610b51565b10156110285760405162461bcd60e51b8152600401610867906138d3565b61105c6001600160a01b037f000000000000000000000000000000000000000000000000000000000000000016338461317c565b601554156110cb57600054601554604051634d24848760e11b81526001600160a01b0390921691639a49090e9161109891339190600401613824565b600060405180830381600087803b1580156110b257600080fd5b505af11580156110c6573d6000803e3d6000fd5b505050505b60405182815233907f64058ef3fd742704269a61c4d8e869ac215d70d1dfbd716d4746da00fa89a839906020015b60405180910390a2506109ea6001600080516020613ab283398151915255565b611121612e5a565b6111296131b6565b600081116111495760405162461bcd60e51b8152600401610867906137f8565b336000908152600160205260409020546111a55760405162461bcd60e51b815260206004820181905260248201527f50434f4c42555344506f6f6c3a206e6f2050434f4c20636f6c6c61746572616c6044820152606401610867565b6040516370a0823160e01b815230600482015281907f00000000000000000000000000000000000000000000000000000000000000006001600160a01b0316906370a0823190602401602060405180830381865afa15801561120b573d6000803e3d6000fd5b505050506040513d601f19601f8201168201806040525081019061122f91906138a7565b101561127d5760405162461bcd60e51b815260206004820152601f60248201527f50434f4c42555344506f6f6c3a20696e73756666696369656e742042555344006044820152606401610867565b60055460009061129583670de0b6b3a7640000613853565b61129f9190613880565b336000908152600360205260408120805492935083929091906112c39084906138c0565b9250508190555080600960008282546112dc91906138c0565b90915550670de0b6b3a764000090506112f433610c3a565b10156113125760405162461bcd60e51b8152600401610867906138d3565b6113466001600160a01b037f000000000000000000000000000000000000000000000000000000000000000016338461317c565b601554156113b557600054601554604051634d24848760e11b81526001600160a01b0390921691639a49090e9161138291339190600401613824565b600060405180830381600087803b15801561139c57600080fd5b505af11580156113b0573d6000803e3d6000fd5b505050505b60405182815233907ff6fc424a68d90f3f5323be41db315721f4b8843b3799ae1089007f88e2190551906020016110f9565b6113ef612e5a565b6000811161140f5760405162461bcd60e51b8152600401610867906137f8565b6114446001600160a01b037f000000000000000000000000000000000000000000000000000000000000000016333084612e76565b6040516340c10f1960e01b81526001600160a01b037f000000000000000000000000000000000000000000000000000000000000000016906340c10f19906114929033908590600401613824565b600060405180830381600087803b1580156114ac57600080fd5b505af11580156114c0573d6000803e3d6000fd5b505050506000601454111561153657600054601454604051634d24848760e11b81526001600160a01b0390921691639a49090e9161150391339190600401613824565b600060405180830381600087803b15801561151d57600080fd5b505af1158015611531573d6000803e3d6000fd5b505050505b604080518281526020810183905233917f8a2298614b2ccbbc8111d5698f4353b52ed97c61821ce6bb845f369a687cf4d391016109cb565b611576612e5a565b7f00000000000000000000000000000000000000000000000000000000000000006001600160a01b0316846001600160a01b031614806115e757507f00000000000000000000000000000000000000000000000000000000000000006001600160a01b0316846001600160a01b0316145b6116335760405162461bcd60e51b815260206004820152601960248201527f50434f4c42555344506f6f6c3a20756e737570706f72746564000000000000006044820152606401610867565b600083118015611646575060165460ff16155b6116925760405162461bcd60e51b815260206004820152601b60248201527f50434f4c42555344506f6f6c3a20696e76616c696420666c61736800000000006044820152606401610867565b6000612710601354856116a59190613853565b6116af9190613880565b6016805460ff191660011790556040516370a0823160e01b81523060048201529091506000906001600160a01b038716906370a0823190602401602060405180830381865afa158015611706573d6000803e3d6000fd5b505050506040513d601f19601f8201168201806040525081019061172a91906138a7565b90506117406001600160a01b038716888761317c565b604051631b11d0ff60e01b81526001600160a01b03881690631b11d0ff906117769089908990879033908b908b906004016138fd565b6020604051808303816000875af1158015611795573d6000803e3d6000fd5b505050506040513d601f19601f820116820180604052508101906117b99190613959565b6118055760405162461bcd60e51b815260206004820152601a60248201527f50434f4c42555344506f6f6c3a20666c617368206661696c65640000000000006044820152606401610867565b61180f82826138c0565b6040516370a0823160e01b81523060048201526001600160a01b038816906370a0823190602401602060405180830381865afa158015611853573d6000803e3d6000fd5b505050506040513d601f19601f8201168201806040525081019061187791906138a7565b10156118c55760405162461bcd60e51b815260206004820152601860248201527f50434f4c42555344506f6f6c3a206e6f742072657061696400000000000000006044820152606401610867565b6016805460ff1916905560408051868152602081018490526001600160a01b0388811692908a16917f0d7d75e01ab95780d3cd1c8ec0dd6c2ce19e3a20427eec8bf53283b6fb8e95f0910160405180910390a350506119316001600080516020613ab283398151915255565b5050505050565b611940612e5a565b611948613095565b670de0b6b3a764000061195a82610b51565b106119a75760405162461bcd60e51b815260206004820152601e60248201527f50434f4c42555344506f6f6c3a206e6f74206c6971756964617461626c6500006044820152606401610867565b6006546001600160a01b0382166000908152600460205260408120549091670de0b6b3a7640000916119d99190613853565b6119e39190613880565b9050600081118015611a0c57506001600160a01b03821660009081526002602052604090205415155b611a4f5760405162461bcd60e51b815260206004820152601460248201527350434f4c42555344506f6f6c3a206e6f20706f7360601b6044820152606401610867565b600654600090611a6783670de0b6b3a7640000613853565b611a719190613880565b6001600160a01b0384166000908152600460205260408120819055600a80549293508392909190611aa3908490613894565b90915550506001600160a01b038316600090815260026020526040812080549082905560125490919061271090611ada90826138c0565b611ae49084613853565b611aee9190613880565b905081811115611afb5750805b6000611b078284613894565b9050611b3e6001600160a01b037f000000000000000000000000000000000000000000000000000000000000000016333088612e76565b8015611bc557604051632770a7eb60e21b81526001600160a01b037f00000000000000000000000000000000000000000000000000000000000000001690639dc29fac90611b929030908590600401613824565b600060405180830381600087803b158015611bac57600080fd5b505af1158015611bc0573d6000803e3d6000fd5b505050505b611bf96001600160a01b037f000000000000000000000000000000000000000000000000000000000000000016338461317c565b60408051868152602081018490526001600160a01b0388169133917fe912f4ccb4a26a55bf54b23b7e96fcac60ebc03b3e76ccdb6752b5d8abc7e8f991015b60405180910390a350505050506109ea6001600080516020613ab283398151915255565b600080611c67610cf3565b90506000611c73610c2c565b9050611c89612710670de0b6b3a7640000613853565b601054611c9890612710613894565b611ca28484613853565b611cac9190613853565b611cb69190613880565b9250505090565b611cc5612e5a565b60008111611ce55760405162461bcd60e51b8152600401610867906137f8565b6040516370a0823160e01b815230600482015281907f00000000000000000000000000000000000000000000000000000000000000006001600160a01b0316906370a0823190602401602060405180830381865afa158015611d4b573d6000803e3d6000fd5b505050506040513d601f19601f82011682018060405250810190611d6f91906138a7565b1015611dbd5760405162461bcd60e51b815260206004820152601e60248201527f50434f4c42555344506f6f6c3a20696e73756666696369656e7420434f4c00006044820152606401610867565b604051632770a7eb60e21b81526001600160a01b037f00000000000000000000000000000000000000000000000000000000000000001690639dc29fac90611e0b9033908590600401613824565b600060405180830381600087803b158015611e2557600080fd5b505af1158015611e39573d6000803e3d6000fd5b50611e739250506001600160a01b037f0000000000000000000000000000000000000000000000000000000000000000169050338361317c565b604080518281526020810183905233917fd36c28d8252079f996f11d24e2776fcdc1e0f4ceadff156993aff84cbfd37a7591016109cb565b6001600160a01b0381166000908152600260205260408120548103611ed257506000919050565b6000611edd8361306d565b90506000611ee9612ef4565b611ef285610be6565b611efc9190613853565b9050600061271060115484611f119190613853565b611f1b9190613880565b9050818111611f2f57506000949350505050565b6000611f39612ef4565b611f438484613894565b611f4d9190613880565b6040516370a0823160e01b81523060048201529091506000906001600160a01b037f000000000000000000000000000000000000000000000000000000000000000016906370a0823190602401610af4565b60006008544311611fb1575060065490565b600060085443611fc19190613894565b90506000611fd060065461329d565b90506000611fe682670de0b6b3a76400006138c0565b9050670de0b6b3a764000083825b811561205d5761200560028361397b565b60010361202c57670de0b6b3a764000061201f8285613853565b6120299190613880565b92505b670de0b6b3a764000061203f8280613853565b6120499190613880565b9050612056600283613880565b9150611ff4565b670de0b6b3a7640000836006546120749190613853565b61207e9190613880565b965050505050505090565b600061271060135483610c1c9190613853565b6120a4612e5a565b600081116120c45760405162461bcd60e51b8152600401610867906137f8565b6120f96001600160a01b037f000000000000000000000000000000000000000000000000000000000000000016333084612e76565b33600090815260026020526040812080548392906121189084906138c0565b909155505060405181815233907f880138561f4bdf4c4463046399b16f8186186ad3f21982105d09e65905fafb9b906020016109cb565b60008061215a612378565b905060006121666109ed565b905061217c612710670de0b6b3a7640000613853565b600d54611c9890612710613894565b612193612e5a565b6000811180156121b25750336000908152600260205260409020548111155b6121f65760405162461bcd60e51b81526020600482015260156024820152741410d3d3109554d1141bdbdb0e881a5b9d985b1a59605a1b6044820152606401610867565b3360009081526002602052604081208054839290612215908490613894565b9091555050336000908152600460205260409020541561225f57670de0b6b3a764000061224133610b51565b101561225f5760405162461bcd60e51b8152600401610867906138d3565b6122936001600160a01b037f000000000000000000000000000000000000000000000000000000000000000016338361317c565b60405181815233907fb1f9afa3fb91753d83c90b2584137de0980aedcb24565bb6be5a4a044394da51906020016109cb565b6122cd612e5a565b600081116122ed5760405162461bcd60e51b8152600401610867906137f8565b6123226001600160a01b037f000000000000000000000000000000000000000000000000000000000000000016333084612e76565b33600090815260016020526040812080548392906123419084906138c0565b909155505060405181815233907f92c5aa6131247b5349ebe4c0b884354154558790641067d72925ac93b11a7de5906020016109cb565b6040516370a0823160e01b815230600482015260009081906001600160a01b037f000000000000000000000000000000000000000000000000000000000000000016906370a0823190602401602060405180830381865afa1580156123e1573d6000803e3d6000fd5b505050506040513d601f19601f8201168201806040525081019061240591906138a7565b90506000670de0b6b3a764000061241a612a81565b600954610da29190613853565b6000670de0b6b3a764000061243b83610c3a565b1092915050565b6001600160a01b038116600090815260026020526040812054819061246684610be6565b91509150915091565b612477612e5a565b600081116124975760405162461bcd60e51b8152600401610867906137f8565b6040516370a0823160e01b815230600482015281907f00000000000000000000000000000000000000000000000000000000000000006001600160a01b0316906370a0823190602401602060405180830381865afa1580156124fd573d6000803e3d6000fd5b505050506040513d601f19601f8201168201806040525081019061252191906138a7565b101561256f5760405162461bcd60e51b815260206004820152601f60248201527f50434f4c42555344506f6f6c3a20696e73756666696369656e742042555344006044820152606401610867565b604051632770a7eb60e21b81526001600160a01b037f00000000000000000000000000000000000000000000000000000000000000001690639dc29fac906125bd9033908590600401613824565b600060405180830381600087803b1580156125d757600080fd5b505af11580156125eb573d6000803e3d6000fd5b506126259250506001600160a01b037f0000000000000000000000000000000000000000000000000000000000000000169050338361317c565b604080518281526020810183905233917f8041f45367f7ccefd38c06ae22c296ca3ad95cf10be3c54c81c11f849f105f2b91016109cb565b6001600160a01b038116600090815260016020526040812054819061246684610def565b612689612e5a565b6000811180156126a85750336000908152600160205260409020548111155b6126ec5760405162461bcd60e51b81526020600482015260156024820152741410d3d3109554d1141bdbdb0e881a5b9d985b1a59605a1b6044820152606401610867565b336000908152600160205260408120805483929061270b908490613894565b9091555050336000908152600360205260409020541561275557670de0b6b3a764000061273733610c3a565b10156127555760405162461bcd60e51b8152600401610867906138d3565b6127896001600160a01b037f000000000000000000000000000000000000000000000000000000000000000016338361317c565b60405181815233907f5f2ac0b7ca7309144e88ededc8fa236c0a7019bdc8c02ab6f6db5095752e7cdc906020016109cb565b6000610a05612ef4565b6127cd612e5a565b6127d56131b6565b600081116127f55760405162461bcd60e51b8152600401610867906137f8565b600554336000908152600360205260408120549091670de0b6b3a76400009161281e9190613853565b6128289190613880565b90506000818311612839578261283b565b815b9050600060055482670de0b6b3a76400006128569190613853565b6128609190613880565b33600090815260036020526040812080549293508392909190612884908490613894565b92505081905550806009600082825461289d9190613894565b909155506128d890506001600160a01b037f000000000000000000000000000000000000000000000000000000000000000016333085612e76565b60405182815233907fe2d5d60502594d615dd5827340647c7a7a88a014e9896fdef12f6458b60c0432906020015b60405180910390a25050506109ea6001600080516020613ab283398151915255565b612930612e5a565b612938613095565b600081116129585760405162461bcd60e51b8152600401610867906137f8565b600654336000908152600460205260408120549091670de0b6b3a7640000916129819190613853565b61298b9190613880565b9050600081831161299c578261299e565b815b9050600060065482670de0b6b3a76400006129b99190613853565b6129c39190613880565b336000908152600460205260408120805492935083929091906129e7908490613894565b9250508190555080600a6000828254612a009190613894565b90915550612a3b90506001600160a01b037f000000000000000000000000000000000000000000000000000000000000000016333085612e76565b60405182815233907fd79a2bc9877030756cd908acbb64634d527091be3edeed80cdea7ed4cf40be0590602001612906565b6000670de0b6b3a764000061243b83610b51565b60006007544311612a93575060055490565b600060075443612aa39190613894565b90506000612ab26005546133c6565b90506000612ac882670de0b6b3a76400006138c0565b9050670de0b6b3a764000083825b8115612b3f57612ae760028361397b565b600103612b0e57670de0b6b3a7640000612b018285613853565b612b0b9190613880565b92505b670de0b6b3a7640000612b218280613853565b612b2b9190613880565b9050612b38600283613880565b9150612ad6565b670de0b6b3a7640000836005546120749190613853565b612b5e612e5a565b612b666131b6565b670de0b6b3a7640000612b7882610c3a565b10612bc55760405162461bcd60e51b815260206004820152601e60248201527f50434f4c42555344506f6f6c3a206e6f74206c6971756964617461626c6500006044820152606401610867565b6005546001600160a01b0382166000908152600360205260408120549091670de0b6b3a764000091612bf79190613853565b612c019190613880565b9050600081118015612c2a57506001600160a01b03821660009081526001602052604090205415155b612c6d5760405162461bcd60e51b815260206004820152601460248201527350434f4c42555344506f6f6c3a206e6f20706f7360601b6044820152606401610867565b600554600090612c8583670de0b6b3a7640000613853565b612c8f9190613880565b6001600160a01b0384166000908152600360205260408120819055600980549293508392909190612cc1908490613894565b90915550506001600160a01b038316600090815260016020526040812080549082905560125490919061271090612cf890826138c0565b612d029084613853565b612d0c9190613880565b905081811115612d195750805b6000612d258284613894565b9050612d5c6001600160a01b037f000000000000000000000000000000000000000000000000000000000000000016333088612e76565b8015612de357604051632770a7eb60e21b81526001600160a01b037f00000000000000000000000000000000000000000000000000000000000000001690639dc29fac90612db09030908590600401613824565b600060405180830381600087803b158015612dca57600080fd5b505af1158015612dde573d6000803e3d6000fd5b505050505b612e176001600160a01b037f000000000000000000000000000000000000000000000000000000000000000016338461317c565b60408051868152602081018490526001600160a01b0388169133917f1df8781babb2ce0b72d80a0d4eb75715b3f84d14598b945effa23c678f239a539101611c38565b612e626134e5565b6002600080516020613ab283398151915255565b612e84848484846001613517565b612eac57604051635274afe760e01b81526001600160a01b0385166004820152602401610867565b50505050565b6001600160a01b038116600090815260016020526040812054808203612edb5750600092915050565b612ee3612ef4565b612eed9082613853565b9392505050565b6000806000612f01613589565b9150915081600003612f165760009250505090565b60007f00000000000000000000000000000000000000000000000000000000000000006001600160a01b031663313ce5676040518163ffffffff1660e01b8152600401602060405180830381865afa158015612f76573d6000803e3d6000fd5b505050506040513d601f19601f82011682018060405250810190612f9a919061398f565b905060007f00000000000000000000000000000000000000000000000000000000000000006001600160a01b031663313ce5676040518163ffffffff1660e01b8152600401602060405180830381865afa158015612ffc573d6000803e3d6000fd5b505050506040513d601f19601f82011682018060405250810190613020919061398f565b905061302d81600a613a96565b6130379085613853565b61304560ff841660086138c0565b61305090600a613aa5565b61305a9085613853565b6130649190613880565b94505050505090565b6001600160a01b038116600090815260026020526040812054610c26906305f5e10090613853565b60085443116130a057565b6000600854436130b09190613894565b905060006130bf60065461329d565b905060006130d582670de0b6b3a76400006138c0565b9050670de0b6b3a764000083825b811561314c576130f460028361397b565b60010361311b57670de0b6b3a764000061310e8285613853565b6131189190613880565b92505b670de0b6b3a764000061312e8280613853565b6131389190613880565b9050613145600283613880565b91506130e3565b670de0b6b3a7640000836006546131639190613853565b61316d9190613880565b60065550504360085550505050565b61318983838360016136a7565b6131b157604051635274afe760e01b81526001600160a01b0384166004820152602401610867565b505050565b60075443116131c157565b6000600754436131d19190613894565b905060006131e06005546133c6565b905060006131f682670de0b6b3a76400006138c0565b9050670de0b6b3a764000083825b811561326d5761321560028361397b565b60010361323c57670de0b6b3a764000061322f8285613853565b6132399190613880565b92505b670de0b6b3a764000061324f8280613853565b6132599190613880565b9050613266600283613880565b9150613204565b670de0b6b3a7640000836005546132849190613853565b61328e9190613880565b60055550504360075550505050565b6040516370a0823160e01b815230600482015260009081906001600160a01b037f000000000000000000000000000000000000000000000000000000000000000016906370a0823190602401602060405180830381865afa158015613306573d6000803e3d6000fd5b505050506040513d601f19601f8201168201806040525081019061332a91906138a7565b90506000670de0b6b3a764000084600a546133459190613853565b61334f9190613880565b9050600061335d82846138c0565b905060008115613389578161337a84670de0b6b3a7640000613853565b6133849190613880565b61338c565b60005b9050670de0b6b3a764000081600f546133a59190613853565b6133af9190613880565b600e546133bc91906138c0565b9695505050505050565b6040516370a0823160e01b815230600482015260009081906001600160a01b037f000000000000000000000000000000000000000000000000000000000000000016906370a0823190602401602060405180830381865afa15801561342f573d6000803e3d6000fd5b505050506040513d601f19601f8201168201806040525081019061345391906138a7565b90506000670de0b6b3a76400008460095461346e9190613853565b6134789190613880565b9050600061348682846138c0565b9050600081156134b257816134a384670de0b6b3a7640000613853565b6134ad9190613880565b6134b5565b60005b9050670de0b6b3a764000081600c546134ce9190613853565b6134d89190613880565b600b546133bc91906138c0565b600080516020613ab28339815191525460020361351557604051633ee5aeb560e01b815260040160405180910390fd5b565b6040516323b872dd60e01b60008181526001600160a01b038781166004528616602452604485905291602083606481808c5af19250600160005114831661357757838315161561356a573d6000823e3d81fd5b6000883b113d1516831692505b60405250600060605295945050505050565b6040516370a0823160e01b815230600482015260009081906001600160a01b037f000000000000000000000000000000000000000000000000000000000000000016906370a0823190602401602060405180830381865afa1580156135f2573d6000803e3d6000fd5b505050506040513d601f19601f8201168201806040525081019061361691906138a7565b6040516370a0823160e01b81523060048201529092507f00000000000000000000000000000000000000000000000000000000000000006001600160a01b0316906370a0823190602401602060405180830381865afa15801561367d573d6000803e3d6000fd5b505050506040513d601f19601f820116820180604052508101906136a191906138a7565b90509091565b60405163a9059cbb60e01b60008181526001600160a01b038616600452602485905291602083604481808b5af1925060016000511483166137015783831516156136f4573d6000823e3d81fd5b6000873b113d1516831692505b60405250949350505050565b80356001600160a01b038116811461372457600080fd5b919050565b60006020828403121561373b57600080fd5b612eed8261370d565b60006020828403121561375657600080fd5b5035919050565b60008060008060006080868803121561377557600080fd5b61377e8661370d565b945061378c6020870161370d565b935060408601359250606086013567ffffffffffffffff808211156137b057600080fd5b818801915088601f8301126137c457600080fd5b8135818111156137d357600080fd5b8960208285010111156137e557600080fd5b9699959850939650602001949392505050565b60208082526012908201527150434f4c42555344506f6f6c3a207a65726f60701b604082015260600190565b6001600160a01b03929092168252602082015260400190565b634e487b7160e01b600052601160045260246000fd5b8082028115828204841417610c2657610c2661383d565b634e487b7160e01b600052601260045260246000fd5b60008261388f5761388f61386a565b500490565b81810381811115610c2657610c2661383d565b6000602082840312156138b957600080fd5b5051919050565b80820180821115610c2657610c2661383d565b60208082526010908201526f2821a7a6212aa9a22837b7b61d10242360811b604082015260600190565b6001600160a01b03878116825260208201879052604082018690528416606082015260a06080820181905281018290526000828460c0840137600060c0848401015260c0601f19601f8501168301019050979650505050505050565b60006020828403121561396b57600080fd5b81518015158114612eed57600080fd5b60008261398a5761398a61386a565b500690565b6000602082840312156139a157600080fd5b815160ff81168114612eed57600080fd5b600181815b808511156139ed5781600019048211156139d3576139d361383d565b808516156139e057918102915b93841c93908002906139b7565b509250929050565b600082613a0457506001610c26565b81613a1157506000610c26565b8160018114613a275760028114613a3157613a4d565b6001915050610c26565b60ff841115613a4257613a4261383d565b50506001821b610c26565b5060208310610133831016604e8410600b8410161715613a70575081810a610c26565b613a7a83836139b2565b8060001904821115613a8e57613a8e61383d565b029392505050565b6000612eed60ff8416836139f5565b6000612eed83836139f556fe9b779b17422d0df92223018b32b4d1fa46e071723d6817e2486d003becc55f00a264697066735822122061406f9571c21791d3d3abb5631997fd6c18bd6e5c79eb53e7bcc1047a553fbd64736f6c6343000814003360a06040523480156200001157600080fd5b5060405162000cad38038062000cad83398101604081905262000034916200018b565b82826003620000448382620002a7565b506004620000538282620002a7565b5050506001600160a01b038116620000b15760405162461bcd60e51b815260206004820152601760248201527f52656365697074546f6b656e3a207a65726f20706f6f6c000000000000000000604482015260640160405180910390fd5b6001600160a01b031660805250620003739050565b634e487b7160e01b600052604160045260246000fd5b600082601f830112620000ee57600080fd5b81516001600160401b03808211156200010b576200010b620000c6565b604051601f8301601f19908116603f01168101908282118183101715620001365762000136620000c6565b816040528381526020925086838588010111156200015357600080fd5b600091505b8382101562000177578582018301518183018401529082019062000158565b600093810190920192909252949350505050565b600080600060608486031215620001a157600080fd5b83516001600160401b0380821115620001b957600080fd5b620001c787838801620000dc565b94506020860151915080821115620001de57600080fd5b50620001ed86828701620000dc565b604086015190935090506001600160a01b03811681146200020d57600080fd5b809150509250925092565b600181811c908216806200022d57607f821691505b6020821081036200024e57634e487b7160e01b600052602260045260246000fd5b50919050565b601f821115620002a257600081815260208120601f850160051c810160208610156200027d5750805b601f850160051c820191505b818110156200029e5782815560010162000289565b5050505b505050565b81516001600160401b03811115620002c357620002c3620000c6565b620002db81620002d4845462000218565b8462000254565b602080601f831160018114620003135760008415620002fa5750858301515b600019600386901b1c1916600185901b1785556200029e565b600085815260208120601f198616915b82811015620003445788860151825594840194600190910190840162000323565b5085821015620003635787850151600019600388901b60f8161c191681555b5050505050600190811b01905550565b6080516109116200039c6000396000818160ff015281816102ed015261038101526109116000f3fe608060405234801561001057600080fd5b50600436106100b45760003560e01c806340c10f191161007157806340c10f191461016d57806370a082311461018257806395d89b41146101ab5780639dc29fac146101b3578063a9059cbb146101c6578063dd62ed3e146101d957600080fd5b806306fdde03146100b9578063095ea7b3146100d757806316f0115b146100fa57806318160ddd1461013957806323b872dd1461014b578063313ce5671461015e575b600080fd5b6100c1610212565b6040516100ce919061075b565b60405180910390f35b6100ea6100e53660046107c5565b6102a4565b60405190151581526020016100ce565b6101217f000000000000000000000000000000000000000000000000000000000000000081565b6040516001600160a01b0390911681526020016100ce565b6002545b6040519081526020016100ce565b6100ea6101593660046107ef565b6102be565b604051601281526020016100ce565b61018061017b3660046107c5565b6102e2565b005b61013d61019036600461082b565b6001600160a01b031660009081526020819052604090205490565b6100c1610367565b6101806101c13660046107c5565b610376565b6100ea6101d43660046107c5565b6103f2565b61013d6101e736600461084d565b6001600160a01b03918216600090815260016020908152604080832093909416825291909152205490565b60606003805461022190610880565b80601f016020809104026020016040519081016040528092919081815260200182805461024d90610880565b801561029a5780601f1061026f5761010080835404028352916020019161029a565b820191906000526020600020905b81548152906001019060200180831161027d57829003601f168201915b5050505050905090565b6000336102b2818585610400565b60019150505b92915050565b6000336102cc858285610412565b6102d7858585610491565b506001949350505050565b336001600160a01b037f000000000000000000000000000000000000000000000000000000000000000016146103595760405162461bcd60e51b8152602060048201526017602482015276149958d95a5c1d151bdad95b8e881bdb9b1e481c1bdbdb604a1b60448201526064015b60405180910390fd5b61036382826104f0565b5050565b60606004805461022190610880565b336001600160a01b037f000000000000000000000000000000000000000000000000000000000000000016146103e85760405162461bcd60e51b8152602060048201526017602482015276149958d95a5c1d151bdad95b8e881bdb9b1e481c1bdbdb604a1b6044820152606401610350565b6103638282610526565b6000336102b2818585610491565b61040d838383600161055c565b505050565b6001600160a01b0383811660009081526001602090815260408083209386168352929052205460001981101561048b578181101561047c57604051637dc7a0d960e11b81526001600160a01b03841660048201526024810182905260448101839052606401610350565b61048b8484848403600061055c565b50505050565b6001600160a01b0383166104bb57604051634b637e8f60e11b815260006004820152602401610350565b6001600160a01b0382166104e55760405163ec442f0560e01b815260006004820152602401610350565b61040d838383610631565b6001600160a01b03821661051a5760405163ec442f0560e01b815260006004820152602401610350565b61036360008383610631565b6001600160a01b03821661055057604051634b637e8f60e11b815260006004820152602401610350565b61036382600083610631565b6001600160a01b0384166105865760405163e602df0560e01b815260006004820152602401610350565b6001600160a01b0383166105b057604051634a1406b160e11b815260006004820152602401610350565b6001600160a01b038085166000908152600160209081526040808320938716835292905220829055801561048b57826001600160a01b0316846001600160a01b03167f8c5be1e5ebec7d5bd14f71427d1e84f3dd0314c0f7b2291e5b200ac8c7c3b9258460405161062391815260200190565b60405180910390a350505050565b6001600160a01b03831661065c57806002600082825461065191906108ba565b909155506106ce9050565b6001600160a01b038316600090815260208190526040902054818110156106af5760405163391434e360e21b81526001600160a01b03851660048201526024810182905260448101839052606401610350565b6001600160a01b03841660009081526020819052604090209082900390555b6001600160a01b0382166106ea57600280548290039055610709565b6001600160a01b03821660009081526020819052604090208054820190555b816001600160a01b0316836001600160a01b03167fddf252ad1be2c89b69c2b068fc378daa952ba7f163c4a11628f55a4df523b3ef8360405161074e91815260200190565b60405180910390a3505050565b600060208083528351808285015260005b818110156107885785810183015185820160400152820161076c565b506000604082860101526040601f19601f8301168501019250505092915050565b80356001600160a01b03811681146107c057600080fd5b919050565b600080604083850312156107d857600080fd5b6107e1836107a9565b946020939093013593505050565b60008060006060848603121561080457600080fd5b61080d846107a9565b925061081b602085016107a9565b9150604084013590509250925092565b60006020828403121561083d57600080fd5b610846826107a9565b9392505050565b6000806040838503121561086057600080fd5b610869836107a9565b9150610877602084016107a9565b90509250929050565b600181811c9082168061089457607f821691505b6020821081036108b457634e487b7160e01b600052602260045260246000fd5b50919050565b808201808211156102b857634e487b7160e01b600052601160045260246000fdfea2646970667358221220bd936c1763fcc336c7d1c45f774d88ab7033a66070011519dbd3906d16d2ccb164736f6c63430008140033","opcodes":"PUSH2 0x100 PUSH1 0x40 MSTORE PUSH8 0xDE0B6B3A7640000 PUSH1 0x5 SSTORE PUSH8 0xDE0B6B3A7640000 PUSH1 0x6 SSTORE PUSH7 0x38D7EA4C68000 PUSH1 0xB SSTORE PUSH7 0xB1A2BC2EC50000 PUSH1 0xC SSTORE PUSH2 0x3E8 PUSH1 0xD SSTORE PUSH7 0x38D7EA4C68000 PUSH1 0xE SSTORE PUSH7 0xB1A2BC2EC50000 PUSH1 0xF SSTORE PUSH2 0x3E8 PUSH1 0x10 SSTORE PUSH2 0x1F40 PUSH1 0x11 SSTORE PUSH2 0x3E8 PUSH1 0x12 SSTORE PUSH1 0x9 PUSH1 0x13 SSTORE PUSH8 0xDE0B6B3A7640000 PUSH1 0x14 SSTORE PUSH8 0x16345785D8A0000 PUSH1 0x15 SSTORE CALLVALUE DUP1 ISZERO PUSH3 0x8B JUMPI PUSH1 0x0 DUP1 REVERT JUMPDEST POP PUSH1 0x40 MLOAD PUSH3 0x4C69 CODESIZE SUB DUP1 PUSH3 0x4C69 DUP4 CODECOPY DUP2 ADD PUSH1 0x40 DUP2 SWAP1 MSTORE PUSH3 0xAE SWAP2 PUSH3 0x327 JUMP JUMPDEST PUSH1 0x1 PUSH32 0x9B779B17422D0DF92223018B32B4D1FA46E071723D6817E2486D003BECC55F00 SSTORE PUSH1 0x1 PUSH1 0x1 PUSH1 0xA0 SHL SUB DUP4 AND ISZERO DUP1 ISZERO SWAP1 PUSH3 0xF3 JUMPI POP PUSH1 0x1 PUSH1 0x1 PUSH1 0xA0 SHL SUB DUP3 AND ISZERO ISZERO JUMPDEST DUP1 ISZERO PUSH3 0x108 JUMPI POP PUSH1 0x1 PUSH1 0x1 PUSH1 0xA0 SHL SUB DUP2 AND ISZERO ISZERO JUMPDEST PUSH3 0x14F JUMPI PUSH1 0x40 MLOAD PUSH3 0x461BCD PUSH1 0xE5 SHL DUP2 MSTORE PUSH1 0x20 PUSH1 0x4 DUP3 ADD MSTORE PUSH1 0x12 PUSH1 0x24 DUP3 ADD MSTORE PUSH18 0x50434F4C42555344506F6F6C3A207A65726F PUSH1 0x70 SHL PUSH1 0x44 DUP3 ADD MSTORE PUSH1 0x64 ADD JUMPDEST PUSH1 0x40 MLOAD DUP1 SWAP2 SUB SWAP1 REVERT JUMPDEST DUP2 PUSH1 0x1 PUSH1 0x1 PUSH1 0xA0 SHL SUB AND DUP4 PUSH1 0x1 PUSH1 0x1 PUSH1 0xA0 SHL SUB AND SUB PUSH3 0x1B2 JUMPI PUSH1 0x40 MLOAD PUSH3 0x461BCD PUSH1 0xE5 SHL DUP2 MSTORE PUSH1 0x20 PUSH1 0x4 DUP3 ADD MSTORE PUSH1 0x18 PUSH1 0x24 DUP3 ADD MSTORE PUSH32 0x50434F4C42555344506F6F6C3A2073616D6520746F6B656E0000000000000000 PUSH1 0x44 DUP3 ADD MSTORE PUSH1 0x64 ADD PUSH3 0x146 JUMP JUMPDEST PUSH1 0x1 PUSH1 0x1 PUSH1 0xA0 SHL SUB DUP1 DUP5 AND PUSH1 0x80 MSTORE DUP3 AND PUSH1 0xA0 MSTORE PUSH1 0x40 MLOAD ADDRESS SWAP1 PUSH3 0x1D5 SWAP1 PUSH3 0x2FC JUMP JUMPDEST PUSH1 0x60 DUP1 DUP3 MSTORE PUSH1 0x8 SWAP1 DUP3 ADD MSTORE PUSH8 0x141BDBDB0810D3D3 PUSH1 0xC2 SHL PUSH1 0x80 DUP3 ADD MSTORE PUSH1 0xA0 PUSH1 0x20 DUP3 ADD DUP2 SWAP1 MSTORE PUSH1 0x4 SWAP1 DUP3 ADD MSTORE PUSH4 0x1410D3D3 PUSH1 0xE2 SHL PUSH1 0xC0 DUP3 ADD MSTORE PUSH1 0x1 PUSH1 0x1 PUSH1 0xA0 SHL SUB SWAP1 SWAP2 AND PUSH1 0x40 DUP3 ADD MSTORE PUSH1 0xE0 ADD PUSH1 0x40 MLOAD DUP1 SWAP2 SUB SWAP1 PUSH1 0x0 CREATE DUP1 ISZERO DUP1 ISZERO PUSH3 0x23D JUMPI RETURNDATASIZE PUSH1 0x0 DUP1 RETURNDATACOPY RETURNDATASIZE PUSH1 0x0 REVERT JUMPDEST POP PUSH1 0x1 PUSH1 0x1 PUSH1 0xA0 SHL SUB AND PUSH1 0xC0 MSTORE PUSH1 0x40 MLOAD ADDRESS SWAP1 PUSH3 0x25A SWAP1 PUSH3 0x2FC JUMP JUMPDEST PUSH1 0x60 DUP1 DUP3 MSTORE PUSH1 0x9 SWAP1 DUP3 ADD MSTORE PUSH9 0x141BDBDB08109554D1 PUSH1 0xBA SHL PUSH1 0x80 DUP3 ADD MSTORE PUSH1 0xA0 PUSH1 0x20 DUP3 ADD DUP2 SWAP1 MSTORE PUSH1 0x5 SWAP1 DUP3 ADD MSTORE PUSH5 0x14109554D1 PUSH1 0xDA SHL PUSH1 0xC0 DUP3 ADD MSTORE PUSH1 0x1 PUSH1 0x1 PUSH1 0xA0 SHL SUB SWAP1 SWAP2 AND PUSH1 0x40 DUP3 ADD MSTORE PUSH1 0xE0 ADD PUSH1 0x40 MLOAD DUP1 SWAP2 SUB SWAP1 PUSH1 0x0 CREATE DUP1 ISZERO DUP1 ISZERO PUSH3 0x2C4 JUMPI RETURNDATASIZE PUSH1 0x0 DUP1 RETURNDATACOPY RETURNDATASIZE PUSH1 0x0 REVERT JUMPDEST POP PUSH1 0x1 PUSH1 0x1 PUSH1 0xA0 SHL SUB SWAP1 DUP2 AND PUSH1 0xE0 MSTORE PUSH1 0x0 DUP1 SLOAD PUSH1 0x1 PUSH1 0x1 PUSH1 0xA0 SHL SUB NOT AND SWAP3 SWAP1 SWAP2 AND SWAP2 SWAP1 SWAP2 OR SWAP1 SSTORE POP POP NUMBER PUSH1 0x7 DUP2 SWAP1 SSTORE PUSH1 0x8 SSTORE PUSH3 0x371 JUMP JUMPDEST PUSH2 0xCAD DUP1 PUSH3 0x3FBC DUP4 CODECOPY ADD SWAP1 JUMP JUMPDEST DUP1 MLOAD PUSH1 0x1 PUSH1 0x1 PUSH1 0xA0 SHL SUB DUP2 AND DUP2 EQ PUSH3 0x322 JUMPI PUSH1 0x0 DUP1 REVERT JUMPDEST SWAP2 SWAP1 POP JUMP JUMPDEST PUSH1 0x0 DUP1 PUSH1 0x0 PUSH1 0x60 DUP5 DUP7 SUB SLT ISZERO PUSH3 0x33D JUMPI PUSH1 0x0 DUP1 REVERT JUMPDEST PUSH3 0x348 DUP5 PUSH3 0x30A JUMP JUMPDEST SWAP3 POP PUSH3 0x358 PUSH1 0x20 DUP6 ADD PUSH3 0x30A JUMP JUMPDEST SWAP2 POP PUSH3 0x368 PUSH1 0x40 DUP6 ADD PUSH3 0x30A JUMP JUMPDEST SWAP1 POP SWAP3 POP SWAP3 POP SWAP3 JUMP JUMPDEST PUSH1 0x80 MLOAD PUSH1 0xA0 MLOAD PUSH1 0xC0 MLOAD PUSH1 0xE0 MLOAD PUSH2 0x3B07 PUSH3 0x4B5 PUSH1 0x0 CODECOPY PUSH1 0x0 DUP2 DUP2 PUSH2 0x422 ADD MSTORE DUP2 DUP2 PUSH2 0x145B ADD MSTORE DUP2 DUP2 PUSH2 0x1B5B ADD MSTORE DUP2 DUP2 PUSH2 0x1BD2 ADD MSTORE DUP2 DUP2 PUSH2 0x20D1 ADD MSTORE DUP2 DUP2 PUSH2 0x226C ADD MSTORE PUSH2 0x2586 ADD MSTORE PUSH1 0x0 DUP2 DUP2 PUSH2 0x47C ADD MSTORE DUP2 DUP2 PUSH2 0x8BC ADD MSTORE DUP2 DUP2 PUSH2 0x1DD4 ADD MSTORE DUP2 DUP2 PUSH2 0x22FA ADD MSTORE DUP2 DUP2 PUSH2 0x2762 ADD MSTORE DUP2 DUP2 PUSH2 0x2D79 ADD MSTORE PUSH2 0x2DF0 ADD MSTORE PUSH1 0x0 DUP2 DUP2 PUSH2 0x4A3 ADD MSTORE DUP2 DUP2 PUSH2 0xAC9 ADD MSTORE DUP2 DUP2 PUSH2 0x11BC ADD MSTORE DUP2 DUP2 PUSH2 0x131F ADD MSTORE DUP2 DUP2 PUSH2 0x141C ADD MSTORE DUP2 DUP2 PUSH2 0x15B3 ADD MSTORE DUP2 DUP2 PUSH2 0x239A ADD MSTORE DUP2 DUP2 PUSH2 0x24AE ADD MSTORE DUP2 DUP2 PUSH2 0x25FC ADD MSTORE DUP2 DUP2 PUSH2 0x28B0 ADD MSTORE DUP2 DUP2 PUSH2 0x2D34 ADD MSTORE DUP2 DUP2 PUSH2 0x2FA0 ADD MSTORE DUP2 DUP2 PUSH2 0x33E8 ADD MSTORE PUSH2 0x362E ADD MSTORE PUSH1 0x0 DUP2 DUP2 PUSH2 0x73A ADD MSTORE DUP2 DUP2 PUSH2 0x87D ADD MSTORE DUP2 DUP2 PUSH2 0xD15 ADD MSTORE DUP2 DUP2 PUSH2 0xED2 ADD MSTORE DUP2 DUP2 PUSH2 0x1035 ADD MSTORE DUP2 DUP2 PUSH2 0x1578 ADD MSTORE DUP2 DUP2 PUSH2 0x1B16 ADD MSTORE DUP2 DUP2 PUSH2 0x1CFC ADD MSTORE DUP2 DUP2 PUSH2 0x1E4A ADD MSTORE DUP2 DUP2 PUSH2 0x1F70 ADD MSTORE DUP2 DUP2 PUSH2 0x2A13 ADD MSTORE DUP2 DUP2 PUSH2 0x2F1A ADD MSTORE DUP2 DUP2 PUSH2 0x32BF ADD MSTORE PUSH2 0x35AB ADD MSTORE PUSH2 0x3B07 PUSH1 0x0 RETURN INVALID PUSH1 0x80 PUSH1 0x40 MSTORE CALLVALUE DUP1 ISZERO PUSH2 0x10 JUMPI PUSH1 0x0 DUP1 REVERT JUMPDEST POP PUSH1 0x4 CALLDATASIZE LT PUSH2 0x3D0 JUMPI PUSH1 0x0 CALLDATALOAD PUSH1 0xE0 SHR DUP1 PUSH4 0x82463417 GT PUSH2 0x1FF JUMPI DUP1 PUSH4 0xC0C7347E GT PUSH2 0x11A JUMPI DUP1 PUSH4 0xF4216DE1 GT PUSH2 0xAD JUMPI DUP1 PUSH4 0xF9EFD058 GT PUSH2 0x7C JUMPI DUP1 PUSH4 0xF9EFD058 EQ PUSH2 0x808 JUMPI DUP1 PUSH4 0xFD47FBF2 EQ PUSH2 0x81B JUMPI DUP1 PUSH4 0xFDD73F41 EQ PUSH2 0x824 JUMPI DUP1 PUSH4 0xFFDEE98D EQ PUSH2 0x82C JUMPI PUSH1 0x0 DUP1 REVERT JUMPDEST DUP1 PUSH4 0xF4216DE1 EQ PUSH2 0x7C6 JUMPI DUP1 PUSH4 0xF5908219 EQ PUSH2 0x7CF JUMPI DUP1 PUSH4 0xF678E9D7 EQ PUSH2 0x7E2 JUMPI DUP1 PUSH4 0xF96DAE0A EQ PUSH2 0x7F5 JUMPI PUSH1 0x0 DUP1 REVERT JUMPDEST DUP1 PUSH4 0xE68A5C04 GT PUSH2 0xE9 JUMPI DUP1 PUSH4 0xE68A5C04 EQ PUSH2 0x78F JUMPI DUP1 PUSH4 0xEA4E2FD2 EQ PUSH2 0x7A2 JUMPI DUP1 PUSH4 0xEDC38CB4 EQ PUSH2 0x7AB JUMPI DUP1 PUSH4 0xF205743F EQ PUSH2 0x7BE JUMPI PUSH1 0x0 DUP1 REVERT JUMPDEST DUP1 PUSH4 0xC0C7347E EQ PUSH2 0x72C JUMPI DUP1 PUSH4 0xCBE98E3B EQ PUSH2 0x735 JUMPI DUP1 PUSH4 0xCC3BCAF3 EQ PUSH2 0x75C JUMPI DUP1 PUSH4 0xDCEBA451 EQ PUSH2 0x76F JUMPI PUSH1 0x0 DUP1 REVERT JUMPDEST DUP1 PUSH4 0xA74F0BFA GT PUSH2 0x192 JUMPI DUP1 PUSH4 0xB7BE98AB GT PUSH2 0x161 JUMPI DUP1 PUSH4 0xB7BE98AB EQ PUSH2 0x6E9 JUMPI DUP1 PUSH4 0xBA08FF9B EQ PUSH2 0x711 JUMPI DUP1 PUSH4 0xBF83DF13 EQ PUSH2 0x71A JUMPI DUP1 PUSH4 0xC0656BD0 EQ PUSH2 0x723 JUMPI PUSH1 0x0 DUP1 REVERT JUMPDEST DUP1 PUSH4 0xA74F0BFA EQ PUSH2 0x6AB JUMPI DUP1 PUSH4 0xA7A24830 EQ PUSH2 0x6B3 JUMPI DUP1 PUSH4 0xAC72D9AC EQ PUSH2 0x6BC JUMPI DUP1 PUSH4 0xADCD54A7 EQ PUSH2 0x6C6 JUMPI PUSH1 0x0 DUP1 REVERT JUMPDEST DUP1 PUSH4 0xA178F59D GT PUSH2 0x1CE JUMPI DUP1 PUSH4 0xA178F59D EQ PUSH2 0x66A JUMPI DUP1 PUSH4 0xA1957856 EQ PUSH2 0x67D JUMPI DUP1 PUSH4 0xA32447BC EQ PUSH2 0x685 JUMPI DUP1 PUSH4 0xA3E3D86E EQ PUSH2 0x698 JUMPI PUSH1 0x0 DUP1 REVERT JUMPDEST DUP1 PUSH4 0x82463417 EQ PUSH2 0x63D JUMPI DUP1 PUSH4 0x8617D017 EQ PUSH2 0x645 JUMPI DUP1 PUSH4 0x8DD2A7CF EQ PUSH2 0x64E JUMPI DUP1 PUSH4 0x8EDB376C EQ PUSH2 0x661 JUMPI PUSH1 0x0 DUP1 REVERT JUMPDEST DUP1 PUSH4 0x3C5607A5 GT PUSH2 0x2EF JUMPI DUP1 PUSH4 0x5CFFE9DE GT PUSH2 0x282 JUMPI DUP1 PUSH4 0x737808F4 GT PUSH2 0x251 JUMPI DUP1 PUSH4 0x737808F4 EQ PUSH2 0x605 JUMPI DUP1 PUSH4 0x7502237B EQ PUSH2 0x60E JUMPI DUP1 PUSH4 0x752E6088 EQ PUSH2 0x621 JUMPI DUP1 PUSH4 0x7B7C1F4C EQ PUSH2 0x634 JUMPI PUSH1 0x0 DUP1 REVERT JUMPDEST DUP1 PUSH4 0x5CFFE9DE EQ PUSH2 0x5CE JUMPI DUP1 PUSH4 0x643E3FD3 EQ PUSH2 0x5E1 JUMPI DUP1 PUSH4 0x68532C95 EQ PUSH2 0x5EA JUMPI DUP1 PUSH4 0x6E2E4659 EQ PUSH2 0x5FD JUMPI PUSH1 0x0 DUP1 REVERT JUMPDEST DUP1 PUSH4 0x4454A10E GT PUSH2 0x2BE JUMPI DUP1 PUSH4 0x4454A10E EQ PUSH2 0x582 JUMPI DUP1 PUSH4 0x4564987A EQ PUSH2 0x595 JUMPI DUP1 PUSH4 0x4577848E EQ PUSH2 0x5A8 JUMPI DUP1 PUSH4 0x46BFE1DF EQ PUSH2 0x5BB JUMPI PUSH1 0x0 DUP1 REVERT JUMPDEST DUP1 PUSH4 0x3C5607A5 EQ PUSH2 0x560 JUMPI DUP1 PUSH4 0x3C6CE203 EQ PUSH2 0x569 JUMPI DUP1 PUSH4 0x3D60DB5A EQ PUSH2 0x571 JUMPI DUP1 PUSH4 0x4031234C EQ PUSH2 0x579 JUMPI PUSH1 0x0 DUP1 REVERT JUMPDEST DUP1 PUSH4 0x226F4B4E GT PUSH2 0x367 JUMPI DUP1 PUSH4 0x2F5B0ABA GT PUSH2 0x336 JUMPI DUP1 PUSH4 0x2F5B0ABA EQ PUSH2 0x534 JUMPI DUP1 PUSH4 0x30E0C05E EQ PUSH2 0x53D JUMPI DUP1 PUSH4 0x326770F2 EQ PUSH2 0x545 JUMPI DUP1 PUSH4 0x38124FA4 EQ PUSH2 0x558 JUMPI PUSH1 0x0 DUP1 REVERT JUMPDEST DUP1 PUSH4 0x226F4B4E EQ PUSH2 0x4E5 JUMPI DUP1 PUSH4 0x26BBB608 EQ PUSH2 0x4F8 JUMPI DUP1 PUSH4 0x28A88D23 EQ PUSH2 0x501 JUMPI DUP1 PUSH4 0x2BEABEF3 EQ PUSH2 0x521 JUMPI PUSH1 0x0 DUP1 REVERT JUMPDEST DUP1 PUSH4 0x1C1318EB GT PUSH2 0x3A3 JUMPI DUP1 PUSH4 0x1C1318EB EQ PUSH2 0x464 JUMPI DUP1 PUSH4 0x1F59D2B8 EQ PUSH2 0x477 JUMPI DUP1 PUSH4 0x213EF7F7 EQ PUSH2 0x49E JUMPI DUP1 PUSH4 0x21C61671 EQ PUSH2 0x4C5 JUMPI PUSH1 0x0 DUP1 REVERT JUMPDEST DUP1 PUSH4 0x1FBCFDE EQ PUSH2 0x3D5 JUMPI DUP1 PUSH4 0x56FD0F7 EQ PUSH2 0x408 JUMPI DUP1 PUSH4 0x128078A7 EQ PUSH2 0x41D JUMPI DUP1 PUSH4 0x19B87FE8 EQ PUSH2 0x45C JUMPI JUMPDEST PUSH1 0x0 DUP1 REVERT JUMPDEST PUSH2 0x3F5 PUSH2 0x3E3 CALLDATASIZE PUSH1 0x4 PUSH2 0x3729 JUMP JUMPDEST PUSH1 0x3 PUSH1 0x20 MSTORE PUSH1 0x0 SWAP1 DUP2 MSTORE PUSH1 0x40 SWAP1 KECCAK256 SLOAD DUP2 JUMP JUMPDEST PUSH1 0x40 MLOAD SWAP1 DUP2 MSTORE PUSH1 0x20 ADD JUMPDEST PUSH1 0x40 MLOAD DUP1 SWAP2 SUB SWAP1 RETURN JUMPDEST PUSH2 0x41B PUSH2 0x416 CALLDATASIZE PUSH1 0x4 PUSH2 0x3744 JUMP JUMPDEST PUSH2 0x83F JUMP JUMPDEST STOP JUMPDEST PUSH2 0x444 PUSH32 0x0 DUP2 JUMP JUMPDEST PUSH1 0x40 MLOAD PUSH1 0x1 PUSH1 0x1 PUSH1 0xA0 SHL SUB SWAP1 SWAP2 AND DUP2 MSTORE PUSH1 0x20 ADD PUSH2 0x3FF JUMP JUMPDEST PUSH2 0x3F5 PUSH2 0x9ED JUMP JUMPDEST PUSH2 0x3F5 PUSH2 0x472 CALLDATASIZE PUSH1 0x4 PUSH2 0x3729 JUMP JUMPDEST PUSH2 0xA0A JUMP JUMPDEST PUSH2 0x444 PUSH32 0x0 DUP2 JUMP JUMPDEST PUSH2 0x444 PUSH32 0x0 DUP2 JUMP JUMPDEST PUSH2 0x3F5 PUSH2 0x4D3 CALLDATASIZE PUSH1 0x4 PUSH2 0x3729 JUMP JUMPDEST PUSH1 0x2 PUSH1 0x20 MSTORE PUSH1 0x0 SWAP1 DUP2 MSTORE PUSH1 0x40 SWAP1 KECCAK256 SLOAD DUP2 JUMP JUMPDEST PUSH2 0x3F5 PUSH2 0x4F3 CALLDATASIZE PUSH1 0x4 PUSH2 0x3729 JUMP JUMPDEST PUSH2 0xB51 JUMP JUMPDEST PUSH2 0x3F5 PUSH1 0x15 SLOAD DUP2 JUMP JUMPDEST PUSH2 0x3F5 PUSH2 0x50F CALLDATASIZE PUSH1 0x4 PUSH2 0x3729 JUMP JUMPDEST PUSH1 0x1 PUSH1 0x20 MSTORE PUSH1 0x0 SWAP1 DUP2 MSTORE PUSH1 0x40 SWAP1 KECCAK256 SLOAD DUP2 JUMP JUMPDEST PUSH2 0x3F5 PUSH2 0x52F CALLDATASIZE PUSH1 0x4 PUSH2 0x3729 JUMP JUMPDEST PUSH2 0xBE6 JUMP JUMPDEST PUSH2 0x3F5 PUSH1 0xB SLOAD DUP2 JUMP JUMPDEST PUSH2 0x3F5 PUSH2 0xC2C JUMP JUMPDEST PUSH2 0x3F5 PUSH2 0x553 CALLDATASIZE PUSH1 0x4 PUSH2 0x3729 JUMP JUMPDEST PUSH2 0xC3A JUMP JUMPDEST PUSH2 0x3F5 PUSH2 0xC77 JUMP JUMPDEST PUSH2 0x3F5 PUSH1 0x10 SLOAD DUP2 JUMP JUMPDEST PUSH2 0x3F5 PUSH2 0xCB8 JUMP JUMPDEST PUSH2 0x3F5 PUSH2 0xCF3 JUMP JUMPDEST PUSH2 0x3F5 PUSH1 0x11 SLOAD DUP2 JUMP JUMPDEST PUSH2 0x3F5 PUSH2 0x590 CALLDATASIZE PUSH1 0x4 PUSH2 0x3729 JUMP JUMPDEST PUSH2 0xDEF JUMP JUMPDEST PUSH2 0x41B PUSH2 0x5A3 CALLDATASIZE PUSH1 0x4 PUSH2 0x3744 JUMP JUMPDEST PUSH2 0xE25 JUMP JUMPDEST PUSH2 0x41B PUSH2 0x5B6 CALLDATASIZE PUSH1 0x4 PUSH2 0x3744 JUMP JUMPDEST PUSH2 0x1119 JUMP JUMPDEST PUSH2 0x41B PUSH2 0x5C9 CALLDATASIZE PUSH1 0x4 PUSH2 0x3744 JUMP JUMPDEST PUSH2 0x13E7 JUMP JUMPDEST PUSH2 0x41B PUSH2 0x5DC CALLDATASIZE PUSH1 0x4 PUSH2 0x375D JUMP JUMPDEST PUSH2 0x156E JUMP JUMPDEST PUSH2 0x3F5 PUSH1 0xF SLOAD DUP2 JUMP JUMPDEST PUSH2 0x41B PUSH2 0x5F8 CALLDATASIZE PUSH1 0x4 PUSH2 0x3729 JUMP JUMPDEST PUSH2 0x1938 JUMP JUMPDEST PUSH2 0x3F5 PUSH2 0x1C5C JUMP JUMPDEST PUSH2 0x3F5 PUSH1 0xA SLOAD DUP2 JUMP JUMPDEST PUSH2 0x41B PUSH2 0x61C CALLDATASIZE PUSH1 0x4 PUSH2 0x3744 JUMP JUMPDEST PUSH2 0x1CBD JUMP JUMPDEST PUSH2 0x3F5 PUSH2 0x62F CALLDATASIZE PUSH1 0x4 PUSH2 0x3729 JUMP JUMPDEST PUSH2 0x1EAB JUMP JUMPDEST PUSH2 0x3F5 PUSH1 0x12 SLOAD DUP2 JUMP JUMPDEST PUSH2 0x3F5 PUSH2 0x1F9F JUMP JUMPDEST PUSH2 0x3F5 PUSH1 0xD SLOAD DUP2 JUMP JUMPDEST PUSH2 0x3F5 PUSH2 0x65C CALLDATASIZE PUSH1 0x4 PUSH2 0x3744 JUMP JUMPDEST PUSH2 0x2089 JUMP JUMPDEST PUSH2 0x3F5 PUSH1 0x7 SLOAD DUP2 JUMP JUMPDEST PUSH2 0x41B PUSH2 0x678 CALLDATASIZE PUSH1 0x4 PUSH2 0x3744 JUMP JUMPDEST PUSH2 0x209C JUMP JUMPDEST PUSH2 0x3F5 PUSH2 0x214F JUMP JUMPDEST PUSH2 0x41B PUSH2 0x693 CALLDATASIZE PUSH1 0x4 PUSH2 0x3744 JUMP JUMPDEST PUSH2 0x218B JUMP JUMPDEST PUSH2 0x41B PUSH2 0x6A6 CALLDATASIZE PUSH1 0x4 PUSH2 0x3744 JUMP JUMPDEST PUSH2 0x22C5 JUMP JUMPDEST PUSH2 0x3F5 PUSH2 0x2378 JUMP JUMPDEST PUSH2 0x3F5 PUSH1 0xC SLOAD DUP2 JUMP JUMPDEST PUSH4 0x5F5E100 PUSH2 0x3F5 JUMP JUMPDEST PUSH2 0x6D9 PUSH2 0x6D4 CALLDATASIZE PUSH1 0x4 PUSH2 0x3729 JUMP JUMPDEST PUSH2 0x2427 JUMP JUMPDEST PUSH1 0x40 MLOAD SWAP1 ISZERO ISZERO DUP2 MSTORE PUSH1 0x20 ADD PUSH2 0x3FF JUMP JUMPDEST PUSH2 0x6FC PUSH2 0x6F7 CALLDATASIZE PUSH1 0x4 PUSH2 0x3729 JUMP JUMPDEST PUSH2 0x2442 JUMP JUMPDEST PUSH1 0x40 DUP1 MLOAD SWAP3 DUP4 MSTORE PUSH1 0x20 DUP4 ADD SWAP2 SWAP1 SWAP2 MSTORE ADD PUSH2 0x3FF JUMP JUMPDEST PUSH2 0x3F5 PUSH1 0x6 SLOAD DUP2 JUMP JUMPDEST PUSH2 0x3F5 PUSH1 0x5 SLOAD DUP2 JUMP JUMPDEST PUSH2 0x3F5 PUSH1 0x9 SLOAD DUP2 JUMP JUMPDEST PUSH2 0x3F5 PUSH1 0x13 SLOAD DUP2 JUMP JUMPDEST PUSH2 0x444 PUSH32 0x0 DUP2 JUMP JUMPDEST PUSH2 0x41B PUSH2 0x76A CALLDATASIZE PUSH1 0x4 PUSH2 0x3744 JUMP JUMPDEST PUSH2 0x246F JUMP JUMPDEST PUSH2 0x3F5 PUSH2 0x77D CALLDATASIZE PUSH1 0x4 PUSH2 0x3729 JUMP JUMPDEST PUSH1 0x4 PUSH1 0x20 MSTORE PUSH1 0x0 SWAP1 DUP2 MSTORE PUSH1 0x40 SWAP1 KECCAK256 SLOAD DUP2 JUMP JUMPDEST PUSH2 0x6FC PUSH2 0x79D CALLDATASIZE PUSH1 0x4 PUSH2 0x3729 JUMP JUMPDEST PUSH2 0x265D JUMP JUMPDEST PUSH2 0x3F5 PUSH1 0x14 SLOAD DUP2 JUMP JUMPDEST PUSH2 0x41B PUSH2 0x7B9 CALLDATASIZE PUSH1 0x4 PUSH2 0x3744 JUMP JUMPDEST PUSH2 0x2681 JUMP JUMPDEST PUSH2 0x3F5 PUSH2 0x27BB JUMP JUMPDEST PUSH2 0x3F5 PUSH1 0x8 SLOAD DUP2 JUMP JUMPDEST PUSH2 0x41B PUSH2 0x7DD CALLDATASIZE PUSH1 0x4 PUSH2 0x3744 JUMP JUMPDEST PUSH2 0x27C5 JUMP JUMPDEST PUSH2 0x41B PUSH2 0x7F0 CALLDATASIZE PUSH1 0x4 PUSH2 0x3744 JUMP JUMPDEST PUSH2 0x2928 JUMP JUMPDEST PUSH1 0x0 SLOAD PUSH2 0x444 SWAP1 PUSH1 0x1 PUSH1 0x1 PUSH1 0xA0 SHL SUB AND DUP2 JUMP JUMPDEST PUSH2 0x6D9 PUSH2 0x816 CALLDATASIZE PUSH1 0x4 PUSH2 0x3729 JUMP JUMPDEST PUSH2 0x2A6D JUMP JUMPDEST PUSH2 0x3F5 PUSH1 0xE SLOAD DUP2 JUMP JUMPDEST PUSH2 0x3F5 PUSH2 0x2A81 JUMP JUMPDEST PUSH2 0x41B PUSH2 0x83A CALLDATASIZE PUSH1 0x4 PUSH2 0x3729 JUMP JUMPDEST PUSH2 0x2B56 JUMP JUMPDEST PUSH2 0x847 PUSH2 0x2E5A JUMP JUMPDEST PUSH1 0x0 DUP2 GT PUSH2 0x870 JUMPI PUSH1 0x40 MLOAD PUSH3 0x461BCD PUSH1 0xE5 SHL DUP2 MSTORE PUSH1 0x4 ADD PUSH2 0x867 SWAP1 PUSH2 0x37F8 JUMP JUMPDEST PUSH1 0x40 MLOAD DUP1 SWAP2 SUB SWAP1 REVERT JUMPDEST PUSH2 0x8A5 PUSH1 0x1 PUSH1 0x1 PUSH1 0xA0 SHL SUB PUSH32 0x0 AND CALLER ADDRESS DUP5 PUSH2 0x2E76 JUMP JUMPDEST PUSH1 0x40 MLOAD PUSH4 0x40C10F19 PUSH1 0xE0 SHL DUP2 MSTORE PUSH1 0x1 PUSH1 0x1 PUSH1 0xA0 SHL SUB PUSH32 0x0 AND SWAP1 PUSH4 0x40C10F19 SWAP1 PUSH2 0x8F3 SWAP1 CALLER SWAP1 DUP6 SWAP1 PUSH1 0x4 ADD PUSH2 0x3824 JUMP JUMPDEST PUSH1 0x0 PUSH1 0x40 MLOAD DUP1 DUP4 SUB DUP2 PUSH1 0x0 DUP8 DUP1 EXTCODESIZE ISZERO DUP1 ISZERO PUSH2 0x90D JUMPI PUSH1 0x0 DUP1 REVERT JUMPDEST POP GAS CALL ISZERO DUP1 ISZERO PUSH2 0x921 JUMPI RETURNDATASIZE PUSH1 0x0 DUP1 RETURNDATACOPY RETURNDATASIZE PUSH1 0x0 REVERT JUMPDEST POP POP POP POP PUSH1 0x0 PUSH1 0x14 SLOAD GT ISZERO PUSH2 0x997 JUMPI PUSH1 0x0 SLOAD PUSH1 0x14 SLOAD PUSH1 0x40 MLOAD PUSH4 0x4D248487 PUSH1 0xE1 SHL DUP2 MSTORE PUSH1 0x1 PUSH1 0x1 PUSH1 0xA0 SHL SUB SWAP1 SWAP3 AND SWAP2 PUSH4 0x9A49090E SWAP2 PUSH2 0x964 SWAP2 CALLER SWAP2 SWAP1 PUSH1 0x4 ADD PUSH2 0x3824 JUMP JUMPDEST PUSH1 0x0 PUSH1 0x40 MLOAD DUP1 DUP4 SUB DUP2 PUSH1 0x0 DUP8 DUP1 EXTCODESIZE ISZERO DUP1 ISZERO PUSH2 0x97E JUMPI PUSH1 0x0 DUP1 REVERT JUMPDEST POP GAS CALL ISZERO DUP1 ISZERO PUSH2 0x992 JUMPI RETURNDATASIZE PUSH1 0x0 DUP1 RETURNDATACOPY RETURNDATASIZE PUSH1 0x0 REVERT JUMPDEST POP POP POP POP JUMPDEST PUSH1 0x40 DUP1 MLOAD DUP3 DUP2 MSTORE PUSH1 0x20 DUP2 ADD DUP4 SWAP1 MSTORE CALLER SWAP2 PUSH32 0x69CF9C0357203EB60830C3C768CC9ADF5436120832D38C926997C4523ADC8167 SWAP2 ADD JUMPDEST PUSH1 0x40 MLOAD DUP1 SWAP2 SUB SWAP1 LOG2 PUSH2 0x9EA PUSH1 0x1 PUSH1 0x0 DUP1 MLOAD PUSH1 0x20 PUSH2 0x3AB2 DUP4 CODECOPY DUP2 MLOAD SWAP2 MSTORE SSTORE JUMP JUMPDEST POP JUMP JUMPDEST PUSH1 0x0 PUSH3 0x201480 PUSH2 0x9FB PUSH2 0xC77 JUMP JUMPDEST PUSH2 0xA05 SWAP2 SWAP1 PUSH2 0x3853 JUMP JUMPDEST SWAP1 POP SWAP1 JUMP JUMPDEST PUSH1 0x1 PUSH1 0x1 PUSH1 0xA0 SHL SUB DUP2 AND PUSH1 0x0 SWAP1 DUP2 MSTORE PUSH1 0x1 PUSH1 0x20 MSTORE PUSH1 0x40 DUP2 KECCAK256 SLOAD DUP2 SUB PUSH2 0xA31 JUMPI POP PUSH1 0x0 SWAP2 SWAP1 POP JUMP JUMPDEST PUSH1 0x0 PUSH2 0xA3C DUP4 PUSH2 0x2EB2 JUMP JUMPDEST SWAP1 POP PUSH1 0x0 PUSH4 0x5F5E100 PUSH2 0xA4E DUP6 PUSH2 0xDEF JUMP JUMPDEST PUSH2 0xA58 SWAP2 SWAP1 PUSH2 0x3853 JUMP JUMPDEST SWAP1 POP PUSH1 0x0 PUSH2 0x2710 PUSH1 0x11 SLOAD DUP5 PUSH2 0xA6D SWAP2 SWAP1 PUSH2 0x3853 JUMP JUMPDEST PUSH2 0xA77 SWAP2 SWAP1 PUSH2 0x3880 JUMP JUMPDEST SWAP1 POP DUP2 DUP2 GT PUSH2 0xA8B JUMPI POP PUSH1 0x0 SWAP5 SWAP4 POP POP POP POP JUMP JUMPDEST PUSH1 0x0 PUSH4 0x5F5E100 PUSH2 0xA9C DUP5 DUP5 PUSH2 0x3894 JUMP JUMPDEST PUSH2 0xAA6 SWAP2 SWAP1 PUSH2 0x3880 JUMP JUMPDEST PUSH1 0x40 MLOAD PUSH4 0x70A08231 PUSH1 0xE0 SHL DUP2 MSTORE ADDRESS PUSH1 0x4 DUP3 ADD MSTORE SWAP1 SWAP2 POP PUSH1 0x0 SWAP1 PUSH1 0x1 PUSH1 0x1 PUSH1 0xA0 SHL SUB PUSH32 0x0 AND SWAP1 PUSH4 0x70A08231 SWAP1 PUSH1 0x24 ADD JUMPDEST PUSH1 0x20 PUSH1 0x40 MLOAD DUP1 DUP4 SUB DUP2 DUP7 GAS STATICCALL ISZERO DUP1 ISZERO PUSH2 0xB11 JUMPI RETURNDATASIZE PUSH1 0x0 DUP1 RETURNDATACOPY RETURNDATASIZE PUSH1 0x0 REVERT JUMPDEST POP POP POP POP PUSH1 0x40 MLOAD RETURNDATASIZE PUSH1 0x1F NOT PUSH1 0x1F DUP3 ADD AND DUP3 ADD DUP1 PUSH1 0x40 MSTORE POP DUP2 ADD SWAP1 PUSH2 0xB35 SWAP2 SWAP1 PUSH2 0x38A7 JUMP JUMPDEST SWAP1 POP DUP1 DUP3 GT PUSH2 0xB44 JUMPI DUP2 PUSH2 0xB46 JUMP JUMPDEST DUP1 JUMPDEST SWAP8 SWAP7 POP POP POP POP POP POP POP JUMP JUMPDEST PUSH1 0x0 DUP1 PUSH2 0xB5D DUP4 PUSH2 0xBE6 JUMP JUMPDEST SWAP1 POP DUP1 PUSH1 0x0 SUB PUSH2 0xB71 JUMPI POP PUSH1 0x0 NOT SWAP3 SWAP2 POP POP JUMP JUMPDEST PUSH1 0x0 PUSH2 0xB7B PUSH2 0x2EF4 JUMP JUMPDEST PUSH2 0xB85 SWAP1 DUP4 PUSH2 0x3853 JUMP JUMPDEST SWAP1 POP PUSH1 0x0 PUSH2 0xB92 DUP6 PUSH2 0x306D JUMP JUMPDEST SWAP1 POP DUP2 PUSH1 0x0 SUB PUSH2 0xBA8 JUMPI POP PUSH1 0x0 NOT SWAP5 SWAP4 POP POP POP POP JUMP JUMPDEST PUSH2 0xBB4 PUSH2 0x2710 DUP4 PUSH2 0x3853 JUMP JUMPDEST PUSH1 0x11 SLOAD PUSH2 0xBC1 SWAP1 DUP4 PUSH2 0x3853 JUMP JUMPDEST PUSH2 0xBD3 SWAP1 PUSH8 0xDE0B6B3A7640000 PUSH2 0x3853 JUMP JUMPDEST PUSH2 0xBDD SWAP2 SWAP1 PUSH2 0x3880 JUMP JUMPDEST SWAP6 SWAP5 POP POP POP POP POP JUMP JUMPDEST PUSH1 0x0 PUSH8 0xDE0B6B3A7640000 PUSH2 0xBF9 PUSH2 0x1F9F JUMP JUMPDEST PUSH1 0x1 PUSH1 0x1 PUSH1 0xA0 SHL SUB DUP5 AND PUSH1 0x0 SWAP1 DUP2 MSTORE PUSH1 0x4 PUSH1 0x20 MSTORE PUSH1 0x40 SWAP1 KECCAK256 SLOAD PUSH2 0xC1C SWAP2 SWAP1 PUSH2 0x3853 JUMP JUMPDEST PUSH2 0xC26 SWAP2 SWAP1 PUSH2 0x3880 JUMP JUMPDEST SWAP3 SWAP2 POP POP JUMP JUMPDEST PUSH1 0x0 PUSH3 0x201480 PUSH2 0x9FB PUSH2 0xCB8 JUMP JUMPDEST PUSH1 0x0 DUP1 PUSH2 0xC46 DUP4 PUSH2 0xDEF JUMP JUMPDEST SWAP1 POP DUP1 PUSH1 0x0 SUB PUSH2 0xC5A JUMPI POP PUSH1 0x0 NOT SWAP3 SWAP2 POP POP JUMP JUMPDEST PUSH1 0x0 PUSH2 0xC6A PUSH4 0x5F5E100 DUP4 PUSH2 0x3853 JUMP JUMPDEST SWAP1 POP PUSH1 0x0 PUSH2 0xB92 DUP6 PUSH2 0x2EB2 JUMP JUMPDEST PUSH1 0x0 DUP1 PUSH2 0xC82 PUSH2 0x2378 JUMP JUMPDEST SWAP1 POP PUSH8 0xDE0B6B3A7640000 DUP2 PUSH1 0xC SLOAD PUSH2 0xC9B SWAP2 SWAP1 PUSH2 0x3853 JUMP JUMPDEST PUSH2 0xCA5 SWAP2 SWAP1 PUSH2 0x3880 JUMP JUMPDEST PUSH1 0xB SLOAD PUSH2 0xCB2 SWAP2 SWAP1 PUSH2 0x38C0 JUMP JUMPDEST SWAP2 POP POP SWAP1 JUMP JUMPDEST PUSH1 0x0 DUP1 PUSH2 0xCC3 PUSH2 0xCF3 JUMP JUMPDEST SWAP1 POP PUSH8 0xDE0B6B3A7640000 DUP2 PUSH1 0xF SLOAD PUSH2 0xCDC SWAP2 SWAP1 PUSH2 0x3853 JUMP JUMPDEST PUSH2 0xCE6 SWAP2 SWAP1 PUSH2 0x3880 JUMP JUMPDEST PUSH1 0xE SLOAD PUSH2 0xCB2 SWAP2 SWAP1 PUSH2 0x38C0 JUMP JUMPDEST PUSH1 0x40 MLOAD PUSH4 0x70A08231 PUSH1 0xE0 SHL DUP2 MSTORE ADDRESS PUSH1 0x4 DUP3 ADD MSTORE PUSH1 0x0 SWAP1 DUP2 SWAP1 PUSH1 0x1 PUSH1 0x1 PUSH1 0xA0 SHL SUB PUSH32 0x0 AND SWAP1 PUSH4 0x70A08231 SWAP1 PUSH1 0x24 ADD PUSH1 0x20 PUSH1 0x40 MLOAD DUP1 DUP4 SUB DUP2 DUP7 GAS STATICCALL ISZERO DUP1 ISZERO PUSH2 0xD5C JUMPI RETURNDATASIZE PUSH1 0x0 DUP1 RETURNDATACOPY RETURNDATASIZE PUSH1 0x0 REVERT JUMPDEST POP POP POP POP PUSH1 0x40 MLOAD RETURNDATASIZE PUSH1 0x1F NOT PUSH1 0x1F DUP3 ADD AND DUP3 ADD DUP1 PUSH1 0x40 MSTORE POP DUP2 ADD SWAP1 PUSH2 0xD80 SWAP2 SWAP1 PUSH2 0x38A7 JUMP JUMPDEST SWAP1 POP PUSH1 0x0 PUSH8 0xDE0B6B3A7640000 PUSH2 0xD95 PUSH2 0x1F9F JUMP JUMPDEST PUSH1 0xA SLOAD PUSH2 0xDA2 SWAP2 SWAP1 PUSH2 0x3853 JUMP JUMPDEST PUSH2 0xDAC SWAP2 SWAP1 PUSH2 0x3880 JUMP JUMPDEST SWAP1 POP PUSH1 0x0 PUSH2 0xDBA DUP3 DUP5 PUSH2 0x38C0 JUMP JUMPDEST SWAP1 POP DUP1 ISZERO PUSH2 0xDE4 JUMPI DUP1 PUSH2 0xDD5 DUP4 PUSH8 0xDE0B6B3A7640000 PUSH2 0x3853 JUMP JUMPDEST PUSH2 0xDDF SWAP2 SWAP1 PUSH2 0x3880 JUMP JUMPDEST PUSH2 0xDE7 JUMP JUMPDEST PUSH1 0x0 JUMPDEST SWAP4 POP POP POP POP SWAP1 JUMP JUMPDEST PUSH1 0x0 PUSH8 0xDE0B6B3A7640000 PUSH2 0xE02 PUSH2 0x2A81 JUMP JUMPDEST PUSH1 0x1 PUSH1 0x1 PUSH1 0xA0 SHL SUB DUP5 AND PUSH1 0x0 SWAP1 DUP2 MSTORE PUSH1 0x3 PUSH1 0x20 MSTORE PUSH1 0x40 SWAP1 KECCAK256 SLOAD PUSH2 0xC1C SWAP2 SWAP1 PUSH2 0x3853 JUMP JUMPDEST PUSH2 0xE2D PUSH2 0x2E5A JUMP JUMPDEST PUSH2 0xE35 PUSH2 0x3095 JUMP JUMPDEST PUSH1 0x0 DUP2 GT PUSH2 0xE55 JUMPI PUSH1 0x40 MLOAD PUSH3 0x461BCD PUSH1 0xE5 SHL DUP2 MSTORE PUSH1 0x4 ADD PUSH2 0x867 SWAP1 PUSH2 0x37F8 JUMP JUMPDEST CALLER PUSH1 0x0 SWAP1 DUP2 MSTORE PUSH1 0x2 PUSH1 0x20 MSTORE PUSH1 0x40 SWAP1 KECCAK256 SLOAD PUSH2 0xEBB JUMPI PUSH1 0x40 MLOAD PUSH3 0x461BCD PUSH1 0xE5 SHL DUP2 MSTORE PUSH1 0x20 PUSH1 0x4 DUP3 ADD MSTORE PUSH1 0x21 PUSH1 0x24 DUP3 ADD MSTORE PUSH32 0x50434F4C42555344506F6F6C3A206E6F20504255534420636F6C6C6174657261 PUSH1 0x44 DUP3 ADD MSTORE PUSH1 0x1B PUSH1 0xFA SHL PUSH1 0x64 DUP3 ADD MSTORE PUSH1 0x84 ADD PUSH2 0x867 JUMP JUMPDEST PUSH1 0x40 MLOAD PUSH4 0x70A08231 PUSH1 0xE0 SHL DUP2 MSTORE ADDRESS PUSH1 0x4 DUP3 ADD MSTORE DUP2 SWAP1 PUSH32 0x0 PUSH1 0x1 PUSH1 0x1 PUSH1 0xA0 SHL SUB AND SWAP1 PUSH4 0x70A08231 SWAP1 PUSH1 0x24 ADD PUSH1 0x20 PUSH1 0x40 MLOAD DUP1 DUP4 SUB DUP2 DUP7 GAS STATICCALL ISZERO DUP1 ISZERO PUSH2 0xF21 JUMPI RETURNDATASIZE PUSH1 0x0 DUP1 RETURNDATACOPY RETURNDATASIZE PUSH1 0x0 REVERT JUMPDEST POP POP POP POP PUSH1 0x40 MLOAD RETURNDATASIZE PUSH1 0x1F NOT PUSH1 0x1F DUP3 ADD AND DUP3 ADD DUP1 PUSH1 0x40 MSTORE POP DUP2 ADD SWAP1 PUSH2 0xF45 SWAP2 SWAP1 PUSH2 0x38A7 JUMP JUMPDEST LT ISZERO PUSH2 0xF93 JUMPI PUSH1 0x40 MLOAD PUSH3 0x461BCD PUSH1 0xE5 SHL DUP2 MSTORE PUSH1 0x20 PUSH1 0x4 DUP3 ADD MSTORE PUSH1 0x1E PUSH1 0x24 DUP3 ADD MSTORE PUSH32 0x50434F4C42555344506F6F6C3A20696E73756666696369656E7420434F4C0000 PUSH1 0x44 DUP3 ADD MSTORE PUSH1 0x64 ADD PUSH2 0x867 JUMP JUMPDEST PUSH1 0x6 SLOAD PUSH1 0x0 SWAP1 PUSH2 0xFAB DUP4 PUSH8 0xDE0B6B3A7640000 PUSH2 0x3853 JUMP JUMPDEST PUSH2 0xFB5 SWAP2 SWAP1 PUSH2 0x3880 JUMP JUMPDEST CALLER PUSH1 0x0 SWAP1 DUP2 MSTORE PUSH1 0x4 PUSH1 0x20 MSTORE PUSH1 0x40 DUP2 KECCAK256 DUP1 SLOAD SWAP3 SWAP4 POP DUP4 SWAP3 SWAP1 SWAP2 SWAP1 PUSH2 0xFD9 SWAP1 DUP5 SWAP1 PUSH2 0x38C0 JUMP JUMPDEST SWAP3 POP POP DUP2 SWAP1 SSTORE POP DUP1 PUSH1 0xA PUSH1 0x0 DUP3 DUP3 SLOAD PUSH2 0xFF2 SWAP2 SWAP1 PUSH2 0x38C0 JUMP JUMPDEST SWAP1 SWAP2 SSTORE POP PUSH8 0xDE0B6B3A7640000 SWAP1 POP PUSH2 0x100A CALLER PUSH2 0xB51 JUMP JUMPDEST LT ISZERO PUSH2 0x1028 JUMPI PUSH1 0x40 MLOAD PUSH3 0x461BCD PUSH1 0xE5 SHL DUP2 MSTORE PUSH1 0x4 ADD PUSH2 0x867 SWAP1 PUSH2 0x38D3 JUMP JUMPDEST PUSH2 0x105C PUSH1 0x1 PUSH1 0x1 PUSH1 0xA0 SHL SUB PUSH32 0x0 AND CALLER DUP5 PUSH2 0x317C JUMP JUMPDEST PUSH1 0x15 SLOAD ISZERO PUSH2 0x10CB JUMPI PUSH1 0x0 SLOAD PUSH1 0x15 SLOAD PUSH1 0x40 MLOAD PUSH4 0x4D248487 PUSH1 0xE1 SHL DUP2 MSTORE PUSH1 0x1 PUSH1 0x1 PUSH1 0xA0 SHL SUB SWAP1 SWAP3 AND SWAP2 PUSH4 0x9A49090E SWAP2 PUSH2 0x1098 SWAP2 CALLER SWAP2 SWAP1 PUSH1 0x4 ADD PUSH2 0x3824 JUMP JUMPDEST PUSH1 0x0 PUSH1 0x40 MLOAD DUP1 DUP4 SUB DUP2 PUSH1 0x0 DUP8 DUP1 EXTCODESIZE ISZERO DUP1 ISZERO PUSH2 0x10B2 JUMPI PUSH1 0x0 DUP1 REVERT JUMPDEST POP GAS CALL ISZERO DUP1 ISZERO PUSH2 0x10C6 JUMPI RETURNDATASIZE PUSH1 0x0 DUP1 RETURNDATACOPY RETURNDATASIZE PUSH1 0x0 REVERT JUMPDEST POP POP POP POP JUMPDEST PUSH1 0x40 MLOAD DUP3 DUP2 MSTORE CALLER SWAP1 PUSH32 0x64058EF3FD742704269A61C4D8E869AC215D70D1DFBD716D4746DA00FA89A839 SWAP1 PUSH1 0x20 ADD JUMPDEST PUSH1 0x40 MLOAD DUP1 SWAP2 SUB SWAP1 LOG2 POP PUSH2 0x9EA PUSH1 0x1 PUSH1 0x0 DUP1 MLOAD PUSH1 0x20 PUSH2 0x3AB2 DUP4 CODECOPY DUP2 MLOAD SWAP2 MSTORE SSTORE JUMP JUMPDEST PUSH2 0x1121 PUSH2 0x2E5A JUMP JUMPDEST PUSH2 0x1129 PUSH2 0x31B6 JUMP JUMPDEST PUSH1 0x0 DUP2 GT PUSH2 0x1149 JUMPI PUSH1 0x40 MLOAD PUSH3 0x461BCD PUSH1 0xE5 SHL DUP2 MSTORE PUSH1 0x4 ADD PUSH2 0x867 SWAP1 PUSH2 0x37F8 JUMP JUMPDEST CALLER PUSH1 0x0 SWAP1 DUP2 MSTORE PUSH1 0x1 PUSH1 0x20 MSTORE PUSH1 0x40 SWAP1 KECCAK256 SLOAD PUSH2 0x11A5 JUMPI PUSH1 0x40 MLOAD PUSH3 0x461BCD PUSH1 0xE5 SHL DUP2 MSTORE PUSH1 0x20 PUSH1 0x4 DUP3 ADD DUP2 SWAP1 MSTORE PUSH1 0x24 DUP3 ADD MSTORE PUSH32 0x50434F4C42555344506F6F6C3A206E6F2050434F4C20636F6C6C61746572616C PUSH1 0x44 DUP3 ADD MSTORE PUSH1 0x64 ADD PUSH2 0x867 JUMP JUMPDEST PUSH1 0x40 MLOAD PUSH4 0x70A08231 PUSH1 0xE0 SHL DUP2 MSTORE ADDRESS PUSH1 0x4 DUP3 ADD MSTORE DUP2 SWAP1 PUSH32 0x0 PUSH1 0x1 PUSH1 0x1 PUSH1 0xA0 SHL SUB AND SWAP1 PUSH4 0x70A08231 SWAP1 PUSH1 0x24 ADD PUSH1 0x20 PUSH1 0x40 MLOAD DUP1 DUP4 SUB DUP2 DUP7 GAS STATICCALL ISZERO DUP1 ISZERO PUSH2 0x120B JUMPI RETURNDATASIZE PUSH1 0x0 DUP1 RETURNDATACOPY RETURNDATASIZE PUSH1 0x0 REVERT JUMPDEST POP POP POP POP PUSH1 0x40 MLOAD RETURNDATASIZE PUSH1 0x1F NOT PUSH1 0x1F DUP3 ADD AND DUP3 ADD DUP1 PUSH1 0x40 MSTORE POP DUP2 ADD SWAP1 PUSH2 0x122F SWAP2 SWAP1 PUSH2 0x38A7 JUMP JUMPDEST LT ISZERO PUSH2 0x127D JUMPI PUSH1 0x40 MLOAD PUSH3 0x461BCD PUSH1 0xE5 SHL DUP2 MSTORE PUSH1 0x20 PUSH1 0x4 DUP3 ADD MSTORE PUSH1 0x1F PUSH1 0x24 DUP3 ADD MSTORE PUSH32 0x50434F4C42555344506F6F6C3A20696E73756666696369656E74204255534400 PUSH1 0x44 DUP3 ADD MSTORE PUSH1 0x64 ADD PUSH2 0x867 JUMP JUMPDEST PUSH1 0x5 SLOAD PUSH1 0x0 SWAP1 PUSH2 0x1295 DUP4 PUSH8 0xDE0B6B3A7640000 PUSH2 0x3853 JUMP JUMPDEST PUSH2 0x129F SWAP2 SWAP1 PUSH2 0x3880 JUMP JUMPDEST CALLER PUSH1 0x0 SWAP1 DUP2 MSTORE PUSH1 0x3 PUSH1 0x20 MSTORE PUSH1 0x40 DUP2 KECCAK256 DUP1 SLOAD SWAP3 SWAP4 POP DUP4 SWAP3 SWAP1 SWAP2 SWAP1 PUSH2 0x12C3 SWAP1 DUP5 SWAP1 PUSH2 0x38C0 JUMP JUMPDEST SWAP3 POP POP DUP2 SWAP1 SSTORE POP DUP1 PUSH1 0x9 PUSH1 0x0 DUP3 DUP3 SLOAD PUSH2 0x12DC SWAP2 SWAP1 PUSH2 0x38C0 JUMP JUMPDEST SWAP1 SWAP2 SSTORE POP PUSH8 0xDE0B6B3A7640000 SWAP1 POP PUSH2 0x12F4 CALLER PUSH2 0xC3A JUMP JUMPDEST LT ISZERO PUSH2 0x1312 JUMPI PUSH1 0x40 MLOAD PUSH3 0x461BCD PUSH1 0xE5 SHL DUP2 MSTORE PUSH1 0x4 ADD PUSH2 0x867 SWAP1 PUSH2 0x38D3 JUMP JUMPDEST PUSH2 0x1346 PUSH1 0x1 PUSH1 0x1 PUSH1 0xA0 SHL SUB PUSH32 0x0 AND CALLER DUP5 PUSH2 0x317C JUMP JUMPDEST PUSH1 0x15 SLOAD ISZERO PUSH2 0x13B5 JUMPI PUSH1 0x0 SLOAD PUSH1 0x15 SLOAD PUSH1 0x40 MLOAD PUSH4 0x4D248487 PUSH1 0xE1 SHL DUP2 MSTORE PUSH1 0x1 PUSH1 0x1 PUSH1 0xA0 SHL SUB SWAP1 SWAP3 AND SWAP2 PUSH4 0x9A49090E SWAP2 PUSH2 0x1382 SWAP2 CALLER SWAP2 SWAP1 PUSH1 0x4 ADD PUSH2 0x3824 JUMP JUMPDEST PUSH1 0x0 PUSH1 0x40 MLOAD DUP1 DUP4 SUB DUP2 PUSH1 0x0 DUP8 DUP1 EXTCODESIZE ISZERO DUP1 ISZERO PUSH2 0x139C JUMPI PUSH1 0x0 DUP1 REVERT JUMPDEST POP GAS CALL ISZERO DUP1 ISZERO PUSH2 0x13B0 JUMPI RETURNDATASIZE PUSH1 0x0 DUP1 RETURNDATACOPY RETURNDATASIZE PUSH1 0x0 REVERT JUMPDEST POP POP POP POP JUMPDEST PUSH1 0x40 MLOAD DUP3 DUP2 MSTORE CALLER SWAP1 PUSH32 0xF6FC424A68D90F3F5323BE41DB315721F4B8843B3799AE1089007F88E2190551 SWAP1 PUSH1 0x20 ADD PUSH2 0x10F9 JUMP JUMPDEST PUSH2 0x13EF PUSH2 0x2E5A JUMP JUMPDEST PUSH1 0x0 DUP2 GT PUSH2 0x140F JUMPI PUSH1 0x40 MLOAD PUSH3 0x461BCD PUSH1 0xE5 SHL DUP2 MSTORE PUSH1 0x4 ADD PUSH2 0x867 SWAP1 PUSH2 0x37F8 JUMP JUMPDEST PUSH2 0x1444 PUSH1 0x1 PUSH1 0x1 PUSH1 0xA0 SHL SUB PUSH32 0x0 AND CALLER ADDRESS DUP5 PUSH2 0x2E76 JUMP JUMPDEST PUSH1 0x40 MLOAD PUSH4 0x40C10F19 PUSH1 0xE0 SHL DUP2 MSTORE PUSH1 0x1 PUSH1 0x1 PUSH1 0xA0 SHL SUB PUSH32 0x0 AND SWAP1 PUSH4 0x40C10F19 SWAP1 PUSH2 0x1492 SWAP1 CALLER SWAP1 DUP6 SWAP1 PUSH1 0x4 ADD PUSH2 0x3824 JUMP JUMPDEST PUSH1 0x0 PUSH1 0x40 MLOAD DUP1 DUP4 SUB DUP2 PUSH1 0x0 DUP8 DUP1 EXTCODESIZE ISZERO DUP1 ISZERO PUSH2 0x14AC JUMPI PUSH1 0x0 DUP1 REVERT JUMPDEST POP GAS CALL ISZERO DUP1 ISZERO PUSH2 0x14C0 JUMPI RETURNDATASIZE PUSH1 0x0 DUP1 RETURNDATACOPY RETURNDATASIZE PUSH1 0x0 REVERT JUMPDEST POP POP POP POP PUSH1 0x0 PUSH1 0x14 SLOAD GT ISZERO PUSH2 0x1536 JUMPI PUSH1 0x0 SLOAD PUSH1 0x14 SLOAD PUSH1 0x40 MLOAD PUSH4 0x4D248487 PUSH1 0xE1 SHL DUP2 MSTORE PUSH1 0x1 PUSH1 0x1 PUSH1 0xA0 SHL SUB SWAP1 SWAP3 AND SWAP2 PUSH4 0x9A49090E SWAP2 PUSH2 0x1503 SWAP2 CALLER SWAP2 SWAP1 PUSH1 0x4 ADD PUSH2 0x3824 JUMP JUMPDEST PUSH1 0x0 PUSH1 0x40 MLOAD DUP1 DUP4 SUB DUP2 PUSH1 0x0 DUP8 DUP1 EXTCODESIZE ISZERO DUP1 ISZERO PUSH2 0x151D JUMPI PUSH1 0x0 DUP1 REVERT JUMPDEST POP GAS CALL ISZERO DUP1 ISZERO PUSH2 0x1531 JUMPI RETURNDATASIZE PUSH1 0x0 DUP1 RETURNDATACOPY RETURNDATASIZE PUSH1 0x0 REVERT JUMPDEST POP POP POP POP JUMPDEST PUSH1 0x40 DUP1 MLOAD DUP3 DUP2 MSTORE PUSH1 0x20 DUP2 ADD DUP4 SWAP1 MSTORE CALLER SWAP2 PUSH32 0x8A2298614B2CCBBC8111D5698F4353B52ED97C61821CE6BB845F369A687CF4D3 SWAP2 ADD PUSH2 0x9CB JUMP JUMPDEST PUSH2 0x1576 PUSH2 0x2E5A JUMP JUMPDEST PUSH32 0x0 PUSH1 0x1 PUSH1 0x1 PUSH1 0xA0 SHL SUB AND DUP5 PUSH1 0x1 PUSH1 0x1 PUSH1 0xA0 SHL SUB AND EQ DUP1 PUSH2 0x15E7 JUMPI POP PUSH32 0x0 PUSH1 0x1 PUSH1 0x1 PUSH1 0xA0 SHL SUB AND DUP5 PUSH1 0x1 PUSH1 0x1 PUSH1 0xA0 SHL SUB AND EQ JUMPDEST PUSH2 0x1633 JUMPI PUSH1 0x40 MLOAD PUSH3 0x461BCD PUSH1 0xE5 SHL DUP2 MSTORE PUSH1 0x20 PUSH1 0x4 DUP3 ADD MSTORE PUSH1 0x19 PUSH1 0x24 DUP3 ADD MSTORE PUSH32 0x50434F4C42555344506F6F6C3A20756E737570706F7274656400000000000000 PUSH1 0x44 DUP3 ADD MSTORE PUSH1 0x64 ADD PUSH2 0x867 JUMP JUMPDEST PUSH1 0x0 DUP4 GT DUP1 ISZERO PUSH2 0x1646 JUMPI POP PUSH1 0x16 SLOAD PUSH1 0xFF AND ISZERO JUMPDEST PUSH2 0x1692 JUMPI PUSH1 0x40 MLOAD PUSH3 0x461BCD PUSH1 0xE5 SHL DUP2 MSTORE PUSH1 0x20 PUSH1 0x4 DUP3 ADD MSTORE PUSH1 0x1B PUSH1 0x24 DUP3 ADD MSTORE PUSH32 0x50434F4C42555344506F6F6C3A20696E76616C696420666C6173680000000000 PUSH1 0x44 DUP3 ADD MSTORE PUSH1 0x64 ADD PUSH2 0x867 JUMP JUMPDEST PUSH1 0x0 PUSH2 0x2710 PUSH1 0x13 SLOAD DUP6 PUSH2 0x16A5 SWAP2 SWAP1 PUSH2 0x3853 JUMP JUMPDEST PUSH2 0x16AF SWAP2 SWAP1 PUSH2 0x3880 JUMP JUMPDEST PUSH1 0x16 DUP1 SLOAD PUSH1 0xFF NOT AND PUSH1 0x1 OR SWAP1 SSTORE PUSH1 0x40 MLOAD PUSH4 0x70A08231 PUSH1 0xE0 SHL DUP2 MSTORE ADDRESS PUSH1 0x4 DUP3 ADD MSTORE SWAP1 SWAP2 POP PUSH1 0x0 SWAP1 PUSH1 0x1 PUSH1 0x1 PUSH1 0xA0 SHL SUB DUP8 AND SWAP1 PUSH4 0x70A08231 SWAP1 PUSH1 0x24 ADD PUSH1 0x20 PUSH1 0x40 MLOAD DUP1 DUP4 SUB DUP2 DUP7 GAS STATICCALL ISZERO DUP1 ISZERO PUSH2 0x1706 JUMPI RETURNDATASIZE PUSH1 0x0 DUP1 RETURNDATACOPY RETURNDATASIZE PUSH1 0x0 REVERT JUMPDEST POP POP POP POP PUSH1 0x40 MLOAD RETURNDATASIZE PUSH1 0x1F NOT PUSH1 0x1F DUP3 ADD AND DUP3 ADD DUP1 PUSH1 0x40 MSTORE POP DUP2 ADD SWAP1 PUSH2 0x172A SWAP2 SWAP1 PUSH2 0x38A7 JUMP JUMPDEST SWAP1 POP PUSH2 0x1740 PUSH1 0x1 PUSH1 0x1 PUSH1 0xA0 SHL SUB DUP8 AND DUP9 DUP8 PUSH2 0x317C JUMP JUMPDEST PUSH1 0x40 MLOAD PUSH4 0x1B11D0FF PUSH1 0xE0 SHL DUP2 MSTORE PUSH1 0x1 PUSH1 0x1 PUSH1 0xA0 SHL SUB DUP9 AND SWAP1 PUSH4 0x1B11D0FF SWAP1 PUSH2 0x1776 SWAP1 DUP10 SWAP1 DUP10 SWAP1 DUP8 SWAP1 CALLER SWAP1 DUP12 SWAP1 DUP12 SWAP1 PUSH1 0x4 ADD PUSH2 0x38FD JUMP JUMPDEST PUSH1 0x20 PUSH1 0x40 MLOAD DUP1 DUP4 SUB DUP2 PUSH1 0x0 DUP8 GAS CALL ISZERO DUP1 ISZERO PUSH2 0x1795 JUMPI RETURNDATASIZE PUSH1 0x0 DUP1 RETURNDATACOPY RETURNDATASIZE PUSH1 0x0 REVERT JUMPDEST POP POP POP POP PUSH1 0x40 MLOAD RETURNDATASIZE PUSH1 0x1F NOT PUSH1 0x1F DUP3 ADD AND DUP3 ADD DUP1 PUSH1 0x40 MSTORE POP DUP2 ADD SWAP1 PUSH2 0x17B9 SWAP2 SWAP1 PUSH2 0x3959 JUMP JUMPDEST PUSH2 0x1805 JUMPI PUSH1 0x40 MLOAD PUSH3 0x461BCD PUSH1 0xE5 SHL DUP2 MSTORE PUSH1 0x20 PUSH1 0x4 DUP3 ADD MSTORE PUSH1 0x1A PUSH1 0x24 DUP3 ADD MSTORE PUSH32 0x50434F4C42555344506F6F6C3A20666C617368206661696C6564000000000000 PUSH1 0x44 DUP3 ADD MSTORE PUSH1 0x64 ADD PUSH2 0x867 JUMP JUMPDEST PUSH2 0x180F DUP3 DUP3 PUSH2 0x38C0 JUMP JUMPDEST PUSH1 0x40 MLOAD PUSH4 0x70A08231 PUSH1 0xE0 SHL DUP2 MSTORE ADDRESS PUSH1 0x4 DUP3 ADD MSTORE PUSH1 0x1 PUSH1 0x1 PUSH1 0xA0 SHL SUB DUP9 AND SWAP1 PUSH4 0x70A08231 SWAP1 PUSH1 0x24 ADD PUSH1 0x20 PUSH1 0x40 MLOAD DUP1 DUP4 SUB DUP2 DUP7 GAS STATICCALL ISZERO DUP1 ISZERO PUSH2 0x1853 JUMPI RETURNDATASIZE PUSH1 0x0 DUP1 RETURNDATACOPY RETURNDATASIZE PUSH1 0x0 REVERT JUMPDEST POP POP POP POP PUSH1 0x40 MLOAD RETURNDATASIZE PUSH1 0x1F NOT PUSH1 0x1F DUP3 ADD AND DUP3 ADD DUP1 PUSH1 0x40 MSTORE POP DUP2 ADD SWAP1 PUSH2 0x1877 SWAP2 SWAP1 PUSH2 0x38A7 JUMP JUMPDEST LT ISZERO PUSH2 0x18C5 JUMPI PUSH1 0x40 MLOAD PUSH3 0x461BCD PUSH1 0xE5 SHL DUP2 MSTORE PUSH1 0x20 PUSH1 0x4 DUP3 ADD MSTORE PUSH1 0x18 PUSH1 0x24 DUP3 ADD MSTORE PUSH32 0x50434F4C42555344506F6F6C3A206E6F74207265706169640000000000000000 PUSH1 0x44 DUP3 ADD MSTORE PUSH1 0x64 ADD PUSH2 0x867 JUMP JUMPDEST PUSH1 0x16 DUP1 SLOAD PUSH1 0xFF NOT AND SWAP1 SSTORE PUSH1 0x40 DUP1 MLOAD DUP7 DUP2 MSTORE PUSH1 0x20 DUP2 ADD DUP5 SWAP1 MSTORE PUSH1 0x1 PUSH1 0x1 PUSH1 0xA0 SHL SUB DUP9 DUP2 AND SWAP3 SWAP1 DUP11 AND SWAP2 PUSH32 0xD7D75E01AB95780D3CD1C8EC0DD6C2CE19E3A20427EEC8BF53283B6FB8E95F0 SWAP2 ADD PUSH1 0x40 MLOAD DUP1 SWAP2 SUB SWAP1 LOG3 POP POP PUSH2 0x1931 PUSH1 0x1 PUSH1 0x0 DUP1 MLOAD PUSH1 0x20 PUSH2 0x3AB2 DUP4 CODECOPY DUP2 MLOAD SWAP2 MSTORE SSTORE JUMP JUMPDEST POP POP POP POP POP JUMP JUMPDEST PUSH2 0x1940 PUSH2 0x2E5A JUMP JUMPDEST PUSH2 0x1948 PUSH2 0x3095 JUMP JUMPDEST PUSH8 0xDE0B6B3A7640000 PUSH2 0x195A DUP3 PUSH2 0xB51 JUMP JUMPDEST LT PUSH2 0x19A7 JUMPI PUSH1 0x40 MLOAD PUSH3 0x461BCD PUSH1 0xE5 SHL DUP2 MSTORE PUSH1 0x20 PUSH1 0x4 DUP3 ADD MSTORE PUSH1 0x1E PUSH1 0x24 DUP3 ADD MSTORE PUSH32 0x50434F4C42555344506F6F6C3A206E6F74206C6971756964617461626C650000 PUSH1 0x44 DUP3 ADD MSTORE PUSH1 0x64 ADD PUSH2 0x867 JUMP JUMPDEST PUSH1 0x6 SLOAD PUSH1 0x1 PUSH1 0x1 PUSH1 0xA0 SHL SUB DUP3 AND PUSH1 0x0 SWAP1 DUP2 MSTORE PUSH1 0x4 PUSH1 0x20 MSTORE PUSH1 0x40 DUP2 KECCAK256 SLOAD SWAP1 SWAP2 PUSH8 0xDE0B6B3A7640000 SWAP2 PUSH2 0x19D9 SWAP2 SWAP1 PUSH2 0x3853 JUMP JUMPDEST PUSH2 0x19E3 SWAP2 SWAP1 PUSH2 0x3880 JUMP JUMPDEST SWAP1 POP PUSH1 0x0 DUP2 GT DUP1 ISZERO PUSH2 0x1A0C JUMPI POP PUSH1 0x1 PUSH1 0x1 PUSH1 0xA0 SHL SUB DUP3 AND PUSH1 0x0 SWAP1 DUP2 MSTORE PUSH1 0x2 PUSH1 0x20 MSTORE PUSH1 0x40 SWAP1 KECCAK256 SLOAD ISZERO ISZERO JUMPDEST PUSH2 0x1A4F JUMPI PUSH1 0x40 MLOAD PUSH3 0x461BCD PUSH1 0xE5 SHL DUP2 MSTORE PUSH1 0x20 PUSH1 0x4 DUP3 ADD MSTORE PUSH1 0x14 PUSH1 0x24 DUP3 ADD MSTORE PUSH20 0x50434F4C42555344506F6F6C3A206E6F20706F73 PUSH1 0x60 SHL PUSH1 0x44 DUP3 ADD MSTORE PUSH1 0x64 ADD PUSH2 0x867 JUMP JUMPDEST PUSH1 0x6 SLOAD PUSH1 0x0 SWAP1 PUSH2 0x1A67 DUP4 PUSH8 0xDE0B6B3A7640000 PUSH2 0x3853 JUMP JUMPDEST PUSH2 0x1A71 SWAP2 SWAP1 PUSH2 0x3880 JUMP JUMPDEST PUSH1 0x1 PUSH1 0x1 PUSH1 0xA0 SHL SUB DUP5 AND PUSH1 0x0 SWAP1 DUP2 MSTORE PUSH1 0x4 PUSH1 0x20 MSTORE PUSH1 0x40 DUP2 KECCAK256 DUP2 SWAP1 SSTORE PUSH1 0xA DUP1 SLOAD SWAP3 SWAP4 POP DUP4 SWAP3 SWAP1 SWAP2 SWAP1 PUSH2 0x1AA3 SWAP1 DUP5 SWAP1 PUSH2 0x3894 JUMP JUMPDEST SWAP1 SWAP2 SSTORE POP POP PUSH1 0x1 PUSH1 0x1 PUSH1 0xA0 SHL SUB DUP4 AND PUSH1 0x0 SWAP1 DUP2 MSTORE PUSH1 0x2 PUSH1 0x20 MSTORE PUSH1 0x40 DUP2 KECCAK256 DUP1 SLOAD SWAP1 DUP3 SWAP1 SSTORE PUSH1 0x12 SLOAD SWAP1 SWAP2 SWAP1 PUSH2 0x2710 SWAP1 PUSH2 0x1ADA SWAP1 DUP3 PUSH2 0x38C0 JUMP JUMPDEST PUSH2 0x1AE4 SWAP1 DUP5 PUSH2 0x3853 JUMP JUMPDEST PUSH2 0x1AEE SWAP2 SWAP1 PUSH2 0x3880 JUMP JUMPDEST SWAP1 POP DUP2 DUP2 GT ISZERO PUSH2 0x1AFB JUMPI POP DUP1 JUMPDEST PUSH1 0x0 PUSH2 0x1B07 DUP3 DUP5 PUSH2 0x3894 JUMP JUMPDEST SWAP1 POP PUSH2 0x1B3E PUSH1 0x1 PUSH1 0x1 PUSH1 0xA0 SHL SUB PUSH32 0x0 AND CALLER ADDRESS DUP9 PUSH2 0x2E76 JUMP JUMPDEST DUP1 ISZERO PUSH2 0x1BC5 JUMPI PUSH1 0x40 MLOAD PUSH4 0x2770A7EB PUSH1 0xE2 SHL DUP2 MSTORE PUSH1 0x1 PUSH1 0x1 PUSH1 0xA0 SHL SUB PUSH32 0x0 AND SWAP1 PUSH4 0x9DC29FAC SWAP1 PUSH2 0x1B92 SWAP1 ADDRESS SWAP1 DUP6 SWAP1 PUSH1 0x4 ADD PUSH2 0x3824 JUMP JUMPDEST PUSH1 0x0 PUSH1 0x40 MLOAD DUP1 DUP4 SUB DUP2 PUSH1 0x0 DUP8 DUP1 EXTCODESIZE ISZERO DUP1 ISZERO PUSH2 0x1BAC JUMPI PUSH1 0x0 DUP1 REVERT JUMPDEST POP GAS CALL ISZERO DUP1 ISZERO PUSH2 0x1BC0 JUMPI RETURNDATASIZE PUSH1 0x0 DUP1 RETURNDATACOPY RETURNDATASIZE PUSH1 0x0 REVERT JUMPDEST POP POP POP POP JUMPDEST PUSH2 0x1BF9 PUSH1 0x1 PUSH1 0x1 PUSH1 0xA0 SHL SUB PUSH32 0x0 AND CALLER DUP5 PUSH2 0x317C JUMP JUMPDEST PUSH1 0x40 DUP1 MLOAD DUP7 DUP2 MSTORE PUSH1 0x20 DUP2 ADD DUP5 SWAP1 MSTORE PUSH1 0x1 PUSH1 0x1 PUSH1 0xA0 SHL SUB DUP9 AND SWAP2 CALLER SWAP2 PUSH32 0xE912F4CCB4A26A55BF54B23B7E96FCAC60EBC03B3E76CCDB6752B5D8ABC7E8F9 SWAP2 ADD JUMPDEST PUSH1 0x40 MLOAD DUP1 SWAP2 SUB SWAP1 LOG3 POP POP POP POP POP PUSH2 0x9EA PUSH1 0x1 PUSH1 0x0 DUP1 MLOAD PUSH1 0x20 PUSH2 0x3AB2 DUP4 CODECOPY DUP2 MLOAD SWAP2 MSTORE SSTORE JUMP JUMPDEST PUSH1 0x0 DUP1 PUSH2 0x1C67 PUSH2 0xCF3 JUMP JUMPDEST SWAP1 POP PUSH1 0x0 PUSH2 0x1C73 PUSH2 0xC2C JUMP JUMPDEST SWAP1 POP PUSH2 0x1C89 PUSH2 0x2710 PUSH8 0xDE0B6B3A7640000 PUSH2 0x3853 JUMP JUMPDEST PUSH1 0x10 SLOAD PUSH2 0x1C98 SWAP1 PUSH2 0x2710 PUSH2 0x3894 JUMP JUMPDEST PUSH2 0x1CA2 DUP5 DUP5 PUSH2 0x3853 JUMP JUMPDEST PUSH2 0x1CAC SWAP2 SWAP1 PUSH2 0x3853 JUMP JUMPDEST PUSH2 0x1CB6 SWAP2 SWAP1 PUSH2 0x3880 JUMP JUMPDEST SWAP3 POP POP POP SWAP1 JUMP JUMPDEST PUSH2 0x1CC5 PUSH2 0x2E5A JUMP JUMPDEST PUSH1 0x0 DUP2 GT PUSH2 0x1CE5 JUMPI PUSH1 0x40 MLOAD PUSH3 0x461BCD PUSH1 0xE5 SHL DUP2 MSTORE PUSH1 0x4 ADD PUSH2 0x867 SWAP1 PUSH2 0x37F8 JUMP JUMPDEST PUSH1 0x40 MLOAD PUSH4 0x70A08231 PUSH1 0xE0 SHL DUP2 MSTORE ADDRESS PUSH1 0x4 DUP3 ADD MSTORE DUP2 SWAP1 PUSH32 0x0 PUSH1 0x1 PUSH1 0x1 PUSH1 0xA0 SHL SUB AND SWAP1 PUSH4 0x70A08231 SWAP1 PUSH1 0x24 ADD PUSH1 0x20 PUSH1 0x40 MLOAD DUP1 DUP4 SUB DUP2 DUP7 GAS STATICCALL ISZERO DUP1 ISZERO PUSH2 0x1D4B JUMPI RETURNDATASIZE PUSH1 0x0 DUP1 RETURNDATACOPY RETURNDATASIZE PUSH1 0x0 REVERT JUMPDEST POP POP POP POP PUSH1 0x40 MLOAD RETURNDATASIZE PUSH1 0x1F NOT PUSH1 0x1F DUP3 ADD AND DUP3 ADD DUP1 PUSH1 0x40 MSTORE POP DUP2 ADD SWAP1 PUSH2 0x1D6F SWAP2 SWAP1 PUSH2 0x38A7 JUMP JUMPDEST LT ISZERO PUSH2 0x1DBD JUMPI PUSH1 0x40 MLOAD PUSH3 0x461BCD PUSH1 0xE5 SHL DUP2 MSTORE PUSH1 0x20 PUSH1 0x4 DUP3 ADD MSTORE PUSH1 0x1E PUSH1 0x24 DUP3 ADD MSTORE PUSH32 0x50434F4C42555344506F6F6C3A20696E73756666696369656E7420434F4C0000 PUSH1 0x44 DUP3 ADD MSTORE PUSH1 0x64 ADD PUSH2 0x867 JUMP JUMPDEST PUSH1 0x40 MLOAD PUSH4 0x2770A7EB PUSH1 0xE2 SHL DUP2 MSTORE PUSH1 0x1 PUSH1 0x1 PUSH1 0xA0 SHL SUB PUSH32 0x0 AND SWAP1 PUSH4 0x9DC29FAC SWAP1 PUSH2 0x1E0B SWAP1 CALLER SWAP1 DUP6 SWAP1 PUSH1 0x4 ADD PUSH2 0x3824 JUMP JUMPDEST PUSH1 0x0 PUSH1 0x40 MLOAD DUP1 DUP4 SUB DUP2 PUSH1 0x0 DUP8 DUP1 EXTCODESIZE ISZERO DUP1 ISZERO PUSH2 0x1E25 JUMPI PUSH1 0x0 DUP1 REVERT JUMPDEST POP GAS CALL ISZERO DUP1 ISZERO PUSH2 0x1E39 JUMPI RETURNDATASIZE PUSH1 0x0 DUP1 RETURNDATACOPY RETURNDATASIZE PUSH1 0x0 REVERT JUMPDEST POP PUSH2 0x1E73 SWAP3 POP POP PUSH1 0x1 PUSH1 0x1 PUSH1 0xA0 SHL SUB PUSH32 0x0 AND SWAP1 POP CALLER DUP4 PUSH2 0x317C JUMP JUMPDEST PUSH1 0x40 DUP1 MLOAD DUP3 DUP2 MSTORE PUSH1 0x20 DUP2 ADD DUP4 SWAP1 MSTORE CALLER SWAP2 PUSH32 0xD36C28D8252079F996F11D24E2776FCDC1E0F4CEADFF156993AFF84CBFD37A75 SWAP2 ADD PUSH2 0x9CB JUMP JUMPDEST PUSH1 0x1 PUSH1 0x1 PUSH1 0xA0 SHL SUB DUP2 AND PUSH1 0x0 SWAP1 DUP2 MSTORE PUSH1 0x2 PUSH1 0x20 MSTORE PUSH1 0x40 DUP2 KECCAK256 SLOAD DUP2 SUB PUSH2 0x1ED2 JUMPI POP PUSH1 0x0 SWAP2 SWAP1 POP JUMP JUMPDEST PUSH1 0x0 PUSH2 0x1EDD DUP4 PUSH2 0x306D JUMP JUMPDEST SWAP1 POP PUSH1 0x0 PUSH2 0x1EE9 PUSH2 0x2EF4 JUMP JUMPDEST PUSH2 0x1EF2 DUP6 PUSH2 0xBE6 JUMP JUMPDEST PUSH2 0x1EFC SWAP2 SWAP1 PUSH2 0x3853 JUMP JUMPDEST SWAP1 POP PUSH1 0x0 PUSH2 0x2710 PUSH1 0x11 SLOAD DUP5 PUSH2 0x1F11 SWAP2 SWAP1 PUSH2 0x3853 JUMP JUMPDEST PUSH2 0x1F1B SWAP2 SWAP1 PUSH2 0x3880 JUMP JUMPDEST SWAP1 POP DUP2 DUP2 GT PUSH2 0x1F2F JUMPI POP PUSH1 0x0 SWAP5 SWAP4 POP POP POP POP JUMP JUMPDEST PUSH1 0x0 PUSH2 0x1F39 PUSH2 0x2EF4 JUMP JUMPDEST PUSH2 0x1F43 DUP5 DUP5 PUSH2 0x3894 JUMP JUMPDEST PUSH2 0x1F4D SWAP2 SWAP1 PUSH2 0x3880 JUMP JUMPDEST PUSH1 0x40 MLOAD PUSH4 0x70A08231 PUSH1 0xE0 SHL DUP2 MSTORE ADDRESS PUSH1 0x4 DUP3 ADD MSTORE SWAP1 SWAP2 POP PUSH1 0x0 SWAP1 PUSH1 0x1 PUSH1 0x1 PUSH1 0xA0 SHL SUB PUSH32 0x0 AND SWAP1 PUSH4 0x70A08231 SWAP1 PUSH1 0x24 ADD PUSH2 0xAF4 JUMP JUMPDEST PUSH1 0x0 PUSH1 0x8 SLOAD NUMBER GT PUSH2 0x1FB1 JUMPI POP PUSH1 0x6 SLOAD SWAP1 JUMP JUMPDEST PUSH1 0x0 PUSH1 0x8 SLOAD NUMBER PUSH2 0x1FC1 SWAP2 SWAP1 PUSH2 0x3894 JUMP JUMPDEST SWAP1 POP PUSH1 0x0 PUSH2 0x1FD0 PUSH1 0x6 SLOAD PUSH2 0x329D JUMP JUMPDEST SWAP1 POP PUSH1 0x0 PUSH2 0x1FE6 DUP3 PUSH8 0xDE0B6B3A7640000 PUSH2 0x38C0 JUMP JUMPDEST SWAP1 POP PUSH8 0xDE0B6B3A7640000 DUP4 DUP3 JUMPDEST DUP2 ISZERO PUSH2 0x205D JUMPI PUSH2 0x2005 PUSH1 0x2 DUP4 PUSH2 0x397B JUMP JUMPDEST PUSH1 0x1 SUB PUSH2 0x202C JUMPI PUSH8 0xDE0B6B3A7640000 PUSH2 0x201F DUP3 DUP6 PUSH2 0x3853 JUMP JUMPDEST PUSH2 0x2029 SWAP2 SWAP1 PUSH2 0x3880 JUMP JUMPDEST SWAP3 POP JUMPDEST PUSH8 0xDE0B6B3A7640000 PUSH2 0x203F DUP3 DUP1 PUSH2 0x3853 JUMP JUMPDEST PUSH2 0x2049 SWAP2 SWAP1 PUSH2 0x3880 JUMP JUMPDEST SWAP1 POP PUSH2 0x2056 PUSH1 0x2 DUP4 PUSH2 0x3880 JUMP JUMPDEST SWAP2 POP PUSH2 0x1FF4 JUMP JUMPDEST PUSH8 0xDE0B6B3A7640000 DUP4 PUSH1 0x6 SLOAD PUSH2 0x2074 SWAP2 SWAP1 PUSH2 0x3853 JUMP JUMPDEST PUSH2 0x207E SWAP2 SWAP1 PUSH2 0x3880 JUMP JUMPDEST SWAP7 POP POP POP POP POP POP POP SWAP1 JUMP JUMPDEST PUSH1 0x0 PUSH2 0x2710 PUSH1 0x13 SLOAD DUP4 PUSH2 0xC1C SWAP2 SWAP1 PUSH2 0x3853 JUMP JUMPDEST PUSH2 0x20A4 PUSH2 0x2E5A JUMP JUMPDEST PUSH1 0x0 DUP2 GT PUSH2 0x20C4 JUMPI PUSH1 0x40 MLOAD PUSH3 0x461BCD PUSH1 0xE5 SHL DUP2 MSTORE PUSH1 0x4 ADD PUSH2 0x867 SWAP1 PUSH2 0x37F8 JUMP JUMPDEST PUSH2 0x20F9 PUSH1 0x1 PUSH1 0x1 PUSH1 0xA0 SHL SUB PUSH32 0x0 AND CALLER ADDRESS DUP5 PUSH2 0x2E76 JUMP JUMPDEST CALLER PUSH1 0x0 SWAP1 DUP2 MSTORE PUSH1 0x2 PUSH1 0x20 MSTORE PUSH1 0x40 DUP2 KECCAK256 DUP1 SLOAD DUP4 SWAP3 SWAP1 PUSH2 0x2118 SWAP1 DUP5 SWAP1 PUSH2 0x38C0 JUMP JUMPDEST SWAP1 SWAP2 SSTORE POP POP PUSH1 0x40 MLOAD DUP2 DUP2 MSTORE CALLER SWAP1 PUSH32 0x880138561F4BDF4C4463046399B16F8186186AD3F21982105D09E65905FAFB9B SWAP1 PUSH1 0x20 ADD PUSH2 0x9CB JUMP JUMPDEST PUSH1 0x0 DUP1 PUSH2 0x215A PUSH2 0x2378 JUMP JUMPDEST SWAP1 POP PUSH1 0x0 PUSH2 0x2166 PUSH2 0x9ED JUMP JUMPDEST SWAP1 POP PUSH2 0x217C PUSH2 0x2710 PUSH8 0xDE0B6B3A7640000 PUSH2 0x3853 JUMP JUMPDEST PUSH1 0xD SLOAD PUSH2 0x1C98 SWAP1 PUSH2 0x2710 PUSH2 0x3894 JUMP JUMPDEST PUSH2 0x2193 PUSH2 0x2E5A JUMP JUMPDEST PUSH1 0x0 DUP2 GT DUP1 ISZERO PUSH2 0x21B2 JUMPI POP CALLER PUSH1 0x0 SWAP1 DUP2 MSTORE PUSH1 0x2 PUSH1 0x20 MSTORE PUSH1 0x40 SWAP1 KECCAK256 SLOAD DUP2 GT ISZERO JUMPDEST PUSH2 0x21F6 JUMPI PUSH1 0x40 MLOAD PUSH3 0x461BCD PUSH1 0xE5 SHL DUP2 MSTORE PUSH1 0x20 PUSH1 0x4 DUP3 ADD MSTORE PUSH1 0x15 PUSH1 0x24 DUP3 ADD MSTORE PUSH21 0x1410D3D3109554D1141BDBDB0E881A5B9D985B1A59 PUSH1 0x5A SHL PUSH1 0x44 DUP3 ADD MSTORE PUSH1 0x64 ADD PUSH2 0x867 JUMP JUMPDEST CALLER PUSH1 0x0 SWAP1 DUP2 MSTORE PUSH1 0x2 PUSH1 0x20 MSTORE PUSH1 0x40 DUP2 KECCAK256 DUP1 SLOAD DUP4 SWAP3 SWAP1 PUSH2 0x2215 SWAP1 DUP5 SWAP1 PUSH2 0x3894 JUMP JUMPDEST SWAP1 SWAP2 SSTORE POP POP CALLER PUSH1 0x0 SWAP1 DUP2 MSTORE PUSH1 0x4 PUSH1 0x20 MSTORE PUSH1 0x40 SWAP1 KECCAK256 SLOAD ISZERO PUSH2 0x225F JUMPI PUSH8 0xDE0B6B3A7640000 PUSH2 0x2241 CALLER PUSH2 0xB51 JUMP JUMPDEST LT ISZERO PUSH2 0x225F JUMPI PUSH1 0x40 MLOAD PUSH3 0x461BCD PUSH1 0xE5 SHL DUP2 MSTORE PUSH1 0x4 ADD PUSH2 0x867 SWAP1 PUSH2 0x38D3 JUMP JUMPDEST PUSH2 0x2293 PUSH1 0x1 PUSH1 0x1 PUSH1 0xA0 SHL SUB PUSH32 0x0 AND CALLER DUP4 PUSH2 0x317C JUMP JUMPDEST PUSH1 0x40 MLOAD DUP2 DUP2 MSTORE CALLER SWAP1 PUSH32 0xB1F9AFA3FB91753D83C90B2584137DE0980AEDCB24565BB6BE5A4A044394DA51 SWAP1 PUSH1 0x20 ADD PUSH2 0x9CB JUMP JUMPDEST PUSH2 0x22CD PUSH2 0x2E5A JUMP JUMPDEST PUSH1 0x0 DUP2 GT PUSH2 0x22ED JUMPI PUSH1 0x40 MLOAD PUSH3 0x461BCD PUSH1 0xE5 SHL DUP2 MSTORE PUSH1 0x4 ADD PUSH2 0x867 SWAP1 PUSH2 0x37F8 JUMP JUMPDEST PUSH2 0x2322 PUSH1 0x1 PUSH1 0x1 PUSH1 0xA0 SHL SUB PUSH32 0x0 AND CALLER ADDRESS DUP5 PUSH2 0x2E76 JUMP JUMPDEST CALLER PUSH1 0x0 SWAP1 DUP2 MSTORE PUSH1 0x1 PUSH1 0x20 MSTORE PUSH1 0x40 DUP2 KECCAK256 DUP1 SLOAD DUP4 SWAP3 SWAP1 PUSH2 0x2341 SWAP1 DUP5 SWAP1 PUSH2 0x38C0 JUMP JUMPDEST SWAP1 SWAP2 SSTORE POP POP PUSH1 0x40 MLOAD DUP2 DUP2 MSTORE CALLER SWAP1 PUSH32 0x92C5AA6131247B5349EBE4C0B884354154558790641067D72925AC93B11A7DE5 SWAP1 PUSH1 0x20 ADD PUSH2 0x9CB JUMP JUMPDEST PUSH1 0x40 MLOAD PUSH4 0x70A08231 PUSH1 0xE0 SHL DUP2 MSTORE ADDRESS PUSH1 0x4 DUP3 ADD MSTORE PUSH1 0x0 SWAP1 DUP2 SWAP1 PUSH1 0x1 PUSH1 0x1 PUSH1 0xA0 SHL SUB PUSH32 0x0 AND SWAP1 PUSH4 0x70A08231 SWAP1 PUSH1 0x24 ADD PUSH1 0x20 PUSH1 0x40 MLOAD DUP1 DUP4 SUB DUP2 DUP7 GAS STATICCALL ISZERO DUP1 ISZERO PUSH2 0x23E1 JUMPI RETURNDATASIZE PUSH1 0x0 DUP1 RETURNDATACOPY RETURNDATASIZE PUSH1 0x0 REVERT JUMPDEST POP POP POP POP PUSH1 0x40 MLOAD RETURNDATASIZE PUSH1 0x1F NOT PUSH1 0x1F DUP3 ADD AND DUP3 ADD DUP1 PUSH1 0x40 MSTORE POP DUP2 ADD SWAP1 PUSH2 0x2405 SWAP2 SWAP1 PUSH2 0x38A7 JUMP JUMPDEST SWAP1 POP PUSH1 0x0 PUSH8 0xDE0B6B3A7640000 PUSH2 0x241A PUSH2 0x2A81 JUMP JUMPDEST PUSH1 0x9 SLOAD PUSH2 0xDA2 SWAP2 SWAP1 PUSH2 0x3853 JUMP JUMPDEST PUSH1 0x0 PUSH8 0xDE0B6B3A7640000 PUSH2 0x243B DUP4 PUSH2 0xC3A JUMP JUMPDEST LT SWAP3 SWAP2 POP POP JUMP JUMPDEST PUSH1 0x1 PUSH1 0x1 PUSH1 0xA0 SHL SUB DUP2 AND PUSH1 0x0 SWAP1 DUP2 MSTORE PUSH1 0x2 PUSH1 0x20 MSTORE PUSH1 0x40 DUP2 KECCAK256 SLOAD DUP2 SWAP1 PUSH2 0x2466 DUP5 PUSH2 0xBE6 JUMP JUMPDEST SWAP2 POP SWAP2 POP SWAP2 POP SWAP2 JUMP JUMPDEST PUSH2 0x2477 PUSH2 0x2E5A JUMP JUMPDEST PUSH1 0x0 DUP2 GT PUSH2 0x2497 JUMPI PUSH1 0x40 MLOAD PUSH3 0x461BCD PUSH1 0xE5 SHL DUP2 MSTORE PUSH1 0x4 ADD PUSH2 0x867 SWAP1 PUSH2 0x37F8 JUMP JUMPDEST PUSH1 0x40 MLOAD PUSH4 0x70A08231 PUSH1 0xE0 SHL DUP2 MSTORE ADDRESS PUSH1 0x4 DUP3 ADD MSTORE DUP2 SWAP1 PUSH32 0x0 PUSH1 0x1 PUSH1 0x1 PUSH1 0xA0 SHL SUB AND SWAP1 PUSH4 0x70A08231 SWAP1 PUSH1 0x24 ADD PUSH1 0x20 PUSH1 0x40 MLOAD DUP1 DUP4 SUB DUP2 DUP7 GAS STATICCALL ISZERO DUP1 ISZERO PUSH2 0x24FD JUMPI RETURNDATASIZE PUSH1 0x0 DUP1 RETURNDATACOPY RETURNDATASIZE PUSH1 0x0 REVERT JUMPDEST POP POP POP POP PUSH1 0x40 MLOAD RETURNDATASIZE PUSH1 0x1F NOT PUSH1 0x1F DUP3 ADD AND DUP3 ADD DUP1 PUSH1 0x40 MSTORE POP DUP2 ADD SWAP1 PUSH2 0x2521 SWAP2 SWAP1 PUSH2 0x38A7 JUMP JUMPDEST LT ISZERO PUSH2 0x256F JUMPI PUSH1 0x40 MLOAD PUSH3 0x461BCD PUSH1 0xE5 SHL DUP2 MSTORE PUSH1 0x20 PUSH1 0x4 DUP3 ADD MSTORE PUSH1 0x1F PUSH1 0x24 DUP3 ADD MSTORE PUSH32 0x50434F4C42555344506F6F6C3A20696E73756666696369656E74204255534400 PUSH1 0x44 DUP3 ADD MSTORE PUSH1 0x64 ADD PUSH2 0x867 JUMP JUMPDEST PUSH1 0x40 MLOAD PUSH4 0x2770A7EB PUSH1 0xE2 SHL DUP2 MSTORE PUSH1 0x1 PUSH1 0x1 PUSH1 0xA0 SHL SUB PUSH32 0x0 AND SWAP1 PUSH4 0x9DC29FAC SWAP1 PUSH2 0x25BD SWAP1 CALLER SWAP1 DUP6 SWAP1 PUSH1 0x4 ADD PUSH2 0x3824 JUMP JUMPDEST PUSH1 0x0 PUSH1 0x40 MLOAD DUP1 DUP4 SUB DUP2 PUSH1 0x0 DUP8 DUP1 EXTCODESIZE ISZERO DUP1 ISZERO PUSH2 0x25D7 JUMPI PUSH1 0x0 DUP1 REVERT JUMPDEST POP GAS CALL ISZERO DUP1 ISZERO PUSH2 0x25EB JUMPI RETURNDATASIZE PUSH1 0x0 DUP1 RETURNDATACOPY RETURNDATASIZE PUSH1 0x0 REVERT JUMPDEST POP PUSH2 0x2625 SWAP3 POP POP PUSH1 0x1 PUSH1 0x1 PUSH1 0xA0 SHL SUB PUSH32 0x0 AND SWAP1 POP CALLER DUP4 PUSH2 0x317C JUMP JUMPDEST PUSH1 0x40 DUP1 MLOAD DUP3 DUP2 MSTORE PUSH1 0x20 DUP2 ADD DUP4 SWAP1 MSTORE CALLER SWAP2 PUSH32 0x8041F45367F7CCEFD38C06AE22C296CA3AD95CF10BE3C54C81C11F849F105F2B SWAP2 ADD PUSH2 0x9CB JUMP JUMPDEST PUSH1 0x1 PUSH1 0x1 PUSH1 0xA0 SHL SUB DUP2 AND PUSH1 0x0 SWAP1 DUP2 MSTORE PUSH1 0x1 PUSH1 0x20 MSTORE PUSH1 0x40 DUP2 KECCAK256 SLOAD DUP2 SWAP1 PUSH2 0x2466 DUP5 PUSH2 0xDEF JUMP JUMPDEST PUSH2 0x2689 PUSH2 0x2E5A JUMP JUMPDEST PUSH1 0x0 DUP2 GT DUP1 ISZERO PUSH2 0x26A8 JUMPI POP CALLER PUSH1 0x0 SWAP1 DUP2 MSTORE PUSH1 0x1 PUSH1 0x20 MSTORE PUSH1 0x40 SWAP1 KECCAK256 SLOAD DUP2 GT ISZERO JUMPDEST PUSH2 0x26EC JUMPI PUSH1 0x40 MLOAD PUSH3 0x461BCD PUSH1 0xE5 SHL DUP2 MSTORE PUSH1 0x20 PUSH1 0x4 DUP3 ADD MSTORE PUSH1 0x15 PUSH1 0x24 DUP3 ADD MSTORE PUSH21 0x1410D3D3109554D1141BDBDB0E881A5B9D985B1A59 PUSH1 0x5A SHL PUSH1 0x44 DUP3 ADD MSTORE PUSH1 0x64 ADD PUSH2 0x867 JUMP JUMPDEST CALLER PUSH1 0x0 SWAP1 DUP2 MSTORE PUSH1 0x1 PUSH1 0x20 MSTORE PUSH1 0x40 DUP2 KECCAK256 DUP1 SLOAD DUP4 SWAP3 SWAP1 PUSH2 0x270B SWAP1 DUP5 SWAP1 PUSH2 0x3894 JUMP JUMPDEST SWAP1 SWAP2 SSTORE POP POP CALLER PUSH1 0x0 SWAP1 DUP2 MSTORE PUSH1 0x3 PUSH1 0x20 MSTORE PUSH1 0x40 SWAP1 KECCAK256 SLOAD ISZERO PUSH2 0x2755 JUMPI PUSH8 0xDE0B6B3A7640000 PUSH2 0x2737 CALLER PUSH2 0xC3A JUMP JUMPDEST LT ISZERO PUSH2 0x2755 JUMPI PUSH1 0x40 MLOAD PUSH3 0x461BCD PUSH1 0xE5 SHL DUP2 MSTORE PUSH1 0x4 ADD PUSH2 0x867 SWAP1 PUSH2 0x38D3 JUMP JUMPDEST PUSH2 0x2789 PUSH1 0x1 PUSH1 0x1 PUSH1 0xA0 SHL SUB PUSH32 0x0 AND CALLER DUP4 PUSH2 0x317C JUMP JUMPDEST PUSH1 0x40 MLOAD DUP2 DUP2 MSTORE CALLER SWAP1 PUSH32 0x5F2AC0B7CA7309144E88EDEDC8FA236C0A7019BDC8C02AB6F6DB5095752E7CDC SWAP1 PUSH1 0x20 ADD PUSH2 0x9CB JUMP JUMPDEST PUSH1 0x0 PUSH2 0xA05 PUSH2 0x2EF4 JUMP JUMPDEST PUSH2 0x27CD PUSH2 0x2E5A JUMP JUMPDEST PUSH2 0x27D5 PUSH2 0x31B6 JUMP JUMPDEST PUSH1 0x0 DUP2 GT PUSH2 0x27F5 JUMPI PUSH1 0x40 MLOAD PUSH3 0x461BCD PUSH1 0xE5 SHL DUP2 MSTORE PUSH1 0x4 ADD PUSH2 0x867 SWAP1 PUSH2 0x37F8 JUMP JUMPDEST PUSH1 0x5 SLOAD CALLER PUSH1 0x0 SWAP1 DUP2 MSTORE PUSH1 0x3 PUSH1 0x20 MSTORE PUSH1 0x40 DUP2 KECCAK256 SLOAD SWAP1 SWAP2 PUSH8 0xDE0B6B3A7640000 SWAP2 PUSH2 0x281E SWAP2 SWAP1 PUSH2 0x3853 JUMP JUMPDEST PUSH2 0x2828 SWAP2 SWAP1 PUSH2 0x3880 JUMP JUMPDEST SWAP1 POP PUSH1 0x0 DUP2 DUP4 GT PUSH2 0x2839 JUMPI DUP3 PUSH2 0x283B JUMP JUMPDEST DUP2 JUMPDEST SWAP1 POP PUSH1 0x0 PUSH1 0x5 SLOAD DUP3 PUSH8 0xDE0B6B3A7640000 PUSH2 0x2856 SWAP2 SWAP1 PUSH2 0x3853 JUMP JUMPDEST PUSH2 0x2860 SWAP2 SWAP1 PUSH2 0x3880 JUMP JUMPDEST CALLER PUSH1 0x0 SWAP1 DUP2 MSTORE PUSH1 0x3 PUSH1 0x20 MSTORE PUSH1 0x40 DUP2 KECCAK256 DUP1 SLOAD SWAP3 SWAP4 POP DUP4 SWAP3 SWAP1 SWAP2 SWAP1 PUSH2 0x2884 SWAP1 DUP5 SWAP1 PUSH2 0x3894 JUMP JUMPDEST SWAP3 POP POP DUP2 SWAP1 SSTORE POP DUP1 PUSH1 0x9 PUSH1 0x0 DUP3 DUP3 SLOAD PUSH2 0x289D SWAP2 SWAP1 PUSH2 0x3894 JUMP JUMPDEST SWAP1 SWAP2 SSTORE POP PUSH2 0x28D8 SWAP1 POP PUSH1 0x1 PUSH1 0x1 PUSH1 0xA0 SHL SUB PUSH32 0x0 AND CALLER ADDRESS DUP6 PUSH2 0x2E76 JUMP JUMPDEST PUSH1 0x40 MLOAD DUP3 DUP2 MSTORE CALLER SWAP1 PUSH32 0xE2D5D60502594D615DD5827340647C7A7A88A014E9896FDEF12F6458B60C0432 SWAP1 PUSH1 0x20 ADD JUMPDEST PUSH1 0x40 MLOAD DUP1 SWAP2 SUB SWAP1 LOG2 POP POP POP PUSH2 0x9EA PUSH1 0x1 PUSH1 0x0 DUP1 MLOAD PUSH1 0x20 PUSH2 0x3AB2 DUP4 CODECOPY DUP2 MLOAD SWAP2 MSTORE SSTORE JUMP JUMPDEST PUSH2 0x2930 PUSH2 0x2E5A JUMP JUMPDEST PUSH2 0x2938 PUSH2 0x3095 JUMP JUMPDEST PUSH1 0x0 DUP2 GT PUSH2 0x2958 JUMPI PUSH1 0x40 MLOAD PUSH3 0x461BCD PUSH1 0xE5 SHL DUP2 MSTORE PUSH1 0x4 ADD PUSH2 0x867 SWAP1 PUSH2 0x37F8 JUMP JUMPDEST PUSH1 0x6 SLOAD CALLER PUSH1 0x0 SWAP1 DUP2 MSTORE PUSH1 0x4 PUSH1 0x20 MSTORE PUSH1 0x40 DUP2 KECCAK256 SLOAD SWAP1 SWAP2 PUSH8 0xDE0B6B3A7640000 SWAP2 PUSH2 0x2981 SWAP2 SWAP1 PUSH2 0x3853 JUMP JUMPDEST PUSH2 0x298B SWAP2 SWAP1 PUSH2 0x3880 JUMP JUMPDEST SWAP1 POP PUSH1 0x0 DUP2 DUP4 GT PUSH2 0x299C JUMPI DUP3 PUSH2 0x299E JUMP JUMPDEST DUP2 JUMPDEST SWAP1 POP PUSH1 0x0 PUSH1 0x6 SLOAD DUP3 PUSH8 0xDE0B6B3A7640000 PUSH2 0x29B9 SWAP2 SWAP1 PUSH2 0x3853 JUMP JUMPDEST PUSH2 0x29C3 SWAP2 SWAP1 PUSH2 0x3880 JUMP JUMPDEST CALLER PUSH1 0x0 SWAP1 DUP2 MSTORE PUSH1 0x4 PUSH1 0x20 MSTORE PUSH1 0x40 DUP2 KECCAK256 DUP1 SLOAD SWAP3 SWAP4 POP DUP4 SWAP3 SWAP1 SWAP2 SWAP1 PUSH2 0x29E7 SWAP1 DUP5 SWAP1 PUSH2 0x3894 JUMP JUMPDEST SWAP3 POP POP DUP2 SWAP1 SSTORE POP DUP1 PUSH1 0xA PUSH1 0x0 DUP3 DUP3 SLOAD PUSH2 0x2A00 SWAP2 SWAP1 PUSH2 0x3894 JUMP JUMPDEST SWAP1 SWAP2 SSTORE POP PUSH2 0x2A3B SWAP1 POP PUSH1 0x1 PUSH1 0x1 PUSH1 0xA0 SHL SUB PUSH32 0x0 AND CALLER ADDRESS DUP6 PUSH2 0x2E76 JUMP JUMPDEST PUSH1 0x40 MLOAD DUP3 DUP2 MSTORE CALLER SWAP1 PUSH32 0xD79A2BC9877030756CD908ACBB64634D527091BE3EDEED80CDEA7ED4CF40BE05 SWAP1 PUSH1 0x20 ADD PUSH2 0x2906 JUMP JUMPDEST PUSH1 0x0 PUSH8 0xDE0B6B3A7640000 PUSH2 0x243B DUP4 PUSH2 0xB51 JUMP JUMPDEST PUSH1 0x0 PUSH1 0x7 SLOAD NUMBER GT PUSH2 0x2A93 JUMPI POP PUSH1 0x5 SLOAD SWAP1 JUMP JUMPDEST PUSH1 0x0 PUSH1 0x7 SLOAD NUMBER PUSH2 0x2AA3 SWAP2 SWAP1 PUSH2 0x3894 JUMP JUMPDEST SWAP1 POP PUSH1 0x0 PUSH2 0x2AB2 PUSH1 0x5 SLOAD PUSH2 0x33C6 JUMP JUMPDEST SWAP1 POP PUSH1 0x0 PUSH2 0x2AC8 DUP3 PUSH8 0xDE0B6B3A7640000 PUSH2 0x38C0 JUMP JUMPDEST SWAP1 POP PUSH8 0xDE0B6B3A7640000 DUP4 DUP3 JUMPDEST DUP2 ISZERO PUSH2 0x2B3F JUMPI PUSH2 0x2AE7 PUSH1 0x2 DUP4 PUSH2 0x397B JUMP JUMPDEST PUSH1 0x1 SUB PUSH2 0x2B0E JUMPI PUSH8 0xDE0B6B3A7640000 PUSH2 0x2B01 DUP3 DUP6 PUSH2 0x3853 JUMP JUMPDEST PUSH2 0x2B0B SWAP2 SWAP1 PUSH2 0x3880 JUMP JUMPDEST SWAP3 POP JUMPDEST PUSH8 0xDE0B6B3A7640000 PUSH2 0x2B21 DUP3 DUP1 PUSH2 0x3853 JUMP JUMPDEST PUSH2 0x2B2B SWAP2 SWAP1 PUSH2 0x3880 JUMP JUMPDEST SWAP1 POP PUSH2 0x2B38 PUSH1 0x2 DUP4 PUSH2 0x3880 JUMP JUMPDEST SWAP2 POP PUSH2 0x2AD6 JUMP JUMPDEST PUSH8 0xDE0B6B3A7640000 DUP4 PUSH1 0x5 SLOAD PUSH2 0x2074 SWAP2 SWAP1 PUSH2 0x3853 JUMP JUMPDEST PUSH2 0x2B5E PUSH2 0x2E5A JUMP JUMPDEST PUSH2 0x2B66 PUSH2 0x31B6 JUMP JUMPDEST PUSH8 0xDE0B6B3A7640000 PUSH2 0x2B78 DUP3 PUSH2 0xC3A JUMP JUMPDEST LT PUSH2 0x2BC5 JUMPI PUSH1 0x40 MLOAD PUSH3 0x461BCD PUSH1 0xE5 SHL DUP2 MSTORE PUSH1 0x20 PUSH1 0x4 DUP3 ADD MSTORE PUSH1 0x1E PUSH1 0x24 DUP3 ADD MSTORE PUSH32 0x50434F4C42555344506F6F6C3A206E6F74206C6971756964617461626C650000 PUSH1 0x44 DUP3 ADD MSTORE PUSH1 0x64 ADD PUSH2 0x867 JUMP JUMPDEST PUSH1 0x5 SLOAD PUSH1 0x1 PUSH1 0x1 PUSH1 0xA0 SHL SUB DUP3 AND PUSH1 0x0 SWAP1 DUP2 MSTORE PUSH1 0x3 PUSH1 0x20 MSTORE PUSH1 0x40 DUP2 KECCAK256 SLOAD SWAP1 SWAP2 PUSH8 0xDE0B6B3A7640000 SWAP2 PUSH2 0x2BF7 SWAP2 SWAP1 PUSH2 0x3853 JUMP JUMPDEST PUSH2 0x2C01 SWAP2 SWAP1 PUSH2 0x3880 JUMP JUMPDEST SWAP1 POP PUSH1 0x0 DUP2 GT DUP1 ISZERO PUSH2 0x2C2A JUMPI POP PUSH1 0x1 PUSH1 0x1 PUSH1 0xA0 SHL SUB DUP3 AND PUSH1 0x0 SWAP1 DUP2 MSTORE PUSH1 0x1 PUSH1 0x20 MSTORE PUSH1 0x40 SWAP1 KECCAK256 SLOAD ISZERO ISZERO JUMPDEST PUSH2 0x2C6D JUMPI PUSH1 0x40 MLOAD PUSH3 0x461BCD PUSH1 0xE5 SHL DUP2 MSTORE PUSH1 0x20 PUSH1 0x4 DUP3 ADD MSTORE PUSH1 0x14 PUSH1 0x24 DUP3 ADD MSTORE PUSH20 0x50434F4C42555344506F6F6C3A206E6F20706F73 PUSH1 0x60 SHL PUSH1 0x44 DUP3 ADD MSTORE PUSH1 0x64 ADD PUSH2 0x867 JUMP JUMPDEST PUSH1 0x5 SLOAD PUSH1 0x0 SWAP1 PUSH2 0x2C85 DUP4 PUSH8 0xDE0B6B3A7640000 PUSH2 0x3853 JUMP JUMPDEST PUSH2 0x2C8F SWAP2 SWAP1 PUSH2 0x3880 JUMP JUMPDEST PUSH1 0x1 PUSH1 0x1 PUSH1 0xA0 SHL SUB DUP5 AND PUSH1 0x0 SWAP1 DUP2 MSTORE PUSH1 0x3 PUSH1 0x20 MSTORE PUSH1 0x40 DUP2 KECCAK256 DUP2 SWAP1 SSTORE PUSH1 0x9 DUP1 SLOAD SWAP3 SWAP4 POP DUP4 SWAP3 SWAP1 SWAP2 SWAP1 PUSH2 0x2CC1 SWAP1 DUP5 SWAP1 PUSH2 0x3894 JUMP JUMPDEST SWAP1 SWAP2 SSTORE POP POP PUSH1 0x1 PUSH1 0x1 PUSH1 0xA0 SHL SUB DUP4 AND PUSH1 0x0 SWAP1 DUP2 MSTORE PUSH1 0x1 PUSH1 0x20 MSTORE PUSH1 0x40 DUP2 KECCAK256 DUP1 SLOAD SWAP1 DUP3 SWAP1 SSTORE PUSH1 0x12 SLOAD SWAP1 SWAP2 SWAP1 PUSH2 0x2710 SWAP1 PUSH2 0x2CF8 SWAP1 DUP3 PUSH2 0x38C0 JUMP JUMPDEST PUSH2 0x2D02 SWAP1 DUP5 PUSH2 0x3853 JUMP JUMPDEST PUSH2 0x2D0C SWAP2 SWAP1 PUSH2 0x3880 JUMP JUMPDEST SWAP1 POP DUP2 DUP2 GT ISZERO PUSH2 0x2D19 JUMPI POP DUP1 JUMPDEST PUSH1 0x0 PUSH2 0x2D25 DUP3 DUP5 PUSH2 0x3894 JUMP JUMPDEST SWAP1 POP PUSH2 0x2D5C PUSH1 0x1 PUSH1 0x1 PUSH1 0xA0 SHL SUB PUSH32 0x0 AND CALLER ADDRESS DUP9 PUSH2 0x2E76 JUMP JUMPDEST DUP1 ISZERO PUSH2 0x2DE3 JUMPI PUSH1 0x40 MLOAD PUSH4 0x2770A7EB PUSH1 0xE2 SHL DUP2 MSTORE PUSH1 0x1 PUSH1 0x1 PUSH1 0xA0 SHL SUB PUSH32 0x0 AND SWAP1 PUSH4 0x9DC29FAC SWAP1 PUSH2 0x2DB0 SWAP1 ADDRESS SWAP1 DUP6 SWAP1 PUSH1 0x4 ADD PUSH2 0x3824 JUMP JUMPDEST PUSH1 0x0 PUSH1 0x40 MLOAD DUP1 DUP4 SUB DUP2 PUSH1 0x0 DUP8 DUP1 EXTCODESIZE ISZERO DUP1 ISZERO PUSH2 0x2DCA JUMPI PUSH1 0x0 DUP1 REVERT JUMPDEST POP GAS CALL ISZERO DUP1 ISZERO PUSH2 0x2DDE JUMPI RETURNDATASIZE PUSH1 0x0 DUP1 RETURNDATACOPY RETURNDATASIZE PUSH1 0x0 REVERT JUMPDEST POP POP POP POP JUMPDEST PUSH2 0x2E17 PUSH1 0x1 PUSH1 0x1 PUSH1 0xA0 SHL SUB PUSH32 0x0 AND CALLER DUP5 PUSH2 0x317C JUMP JUMPDEST PUSH1 0x40 DUP1 MLOAD DUP7 DUP2 MSTORE PUSH1 0x20 DUP2 ADD DUP5 SWAP1 MSTORE PUSH1 0x1 PUSH1 0x1 PUSH1 0xA0 SHL SUB DUP9 AND SWAP2 CALLER SWAP2 PUSH32 0x1DF8781BABB2CE0B72D80A0D4EB75715B3F84D14598B945EFFA23C678F239A53 SWAP2 ADD PUSH2 0x1C38 JUMP JUMPDEST PUSH2 0x2E62 PUSH2 0x34E5 JUMP JUMPDEST PUSH1 0x2 PUSH1 0x0 DUP1 MLOAD PUSH1 0x20 PUSH2 0x3AB2 DUP4 CODECOPY DUP2 MLOAD SWAP2 MSTORE SSTORE JUMP JUMPDEST PUSH2 0x2E84 DUP5 DUP5 DUP5 DUP5 PUSH1 0x1 PUSH2 0x3517 JUMP JUMPDEST PUSH2 0x2EAC JUMPI PUSH1 0x40 MLOAD PUSH4 0x5274AFE7 PUSH1 0xE0 SHL DUP2 MSTORE PUSH1 0x1 PUSH1 0x1 PUSH1 0xA0 SHL SUB DUP6 AND PUSH1 0x4 DUP3 ADD MSTORE PUSH1 0x24 ADD PUSH2 0x867 JUMP JUMPDEST POP POP POP POP JUMP JUMPDEST PUSH1 0x1 PUSH1 0x1 PUSH1 0xA0 SHL SUB DUP2 AND PUSH1 0x0 SWAP1 DUP2 MSTORE PUSH1 0x1 PUSH1 0x20 MSTORE PUSH1 0x40 DUP2 KECCAK256 SLOAD DUP1 DUP3 SUB PUSH2 0x2EDB JUMPI POP PUSH1 0x0 SWAP3 SWAP2 POP POP JUMP JUMPDEST PUSH2 0x2EE3 PUSH2 0x2EF4 JUMP JUMPDEST PUSH2 0x2EED SWAP1 DUP3 PUSH2 0x3853 JUMP JUMPDEST SWAP4 SWAP3 POP POP POP JUMP JUMPDEST PUSH1 0x0 DUP1 PUSH1 0x0 PUSH2 0x2F01 PUSH2 0x3589 JUMP JUMPDEST SWAP2 POP SWAP2 POP DUP2 PUSH1 0x0 SUB PUSH2 0x2F16 JUMPI PUSH1 0x0 SWAP3 POP POP POP SWAP1 JUMP JUMPDEST PUSH1 0x0 PUSH32 0x0 PUSH1 0x1 PUSH1 0x1 PUSH1 0xA0 SHL SUB AND PUSH4 0x313CE567 PUSH1 0x40 MLOAD DUP2 PUSH4 0xFFFFFFFF AND PUSH1 0xE0 SHL DUP2 MSTORE PUSH1 0x4 ADD PUSH1 0x20 PUSH1 0x40 MLOAD DUP1 DUP4 SUB DUP2 DUP7 GAS STATICCALL ISZERO DUP1 ISZERO PUSH2 0x2F76 JUMPI RETURNDATASIZE PUSH1 0x0 DUP1 RETURNDATACOPY RETURNDATASIZE PUSH1 0x0 REVERT JUMPDEST POP POP POP POP PUSH1 0x40 MLOAD RETURNDATASIZE PUSH1 0x1F NOT PUSH1 0x1F DUP3 ADD AND DUP3 ADD DUP1 PUSH1 0x40 MSTORE POP DUP2 ADD SWAP1 PUSH2 0x2F9A SWAP2 SWAP1 PUSH2 0x398F JUMP JUMPDEST SWAP1 POP PUSH1 0x0 PUSH32 0x0 PUSH1 0x1 PUSH1 0x1 PUSH1 0xA0 SHL SUB AND PUSH4 0x313CE567 PUSH1 0x40 MLOAD DUP2 PUSH4 0xFFFFFFFF AND PUSH1 0xE0 SHL DUP2 MSTORE PUSH1 0x4 ADD PUSH1 0x20 PUSH1 0x40 MLOAD DUP1 DUP4 SUB DUP2 DUP7 GAS STATICCALL ISZERO DUP1 ISZERO PUSH2 0x2FFC JUMPI RETURNDATASIZE PUSH1 0x0 DUP1 RETURNDATACOPY RETURNDATASIZE PUSH1 0x0 REVERT JUMPDEST POP POP POP POP PUSH1 0x40 MLOAD RETURNDATASIZE PUSH1 0x1F NOT PUSH1 0x1F DUP3 ADD AND DUP3 ADD DUP1 PUSH1 0x40 MSTORE POP DUP2 ADD SWAP1 PUSH2 0x3020 SWAP2 SWAP1 PUSH2 0x398F JUMP JUMPDEST SWAP1 POP PUSH2 0x302D DUP2 PUSH1 0xA PUSH2 0x3A96 JUMP JUMPDEST PUSH2 0x3037 SWAP1 DUP6 PUSH2 0x3853 JUMP JUMPDEST PUSH2 0x3045 PUSH1 0xFF DUP5 AND PUSH1 0x8 PUSH2 0x38C0 JUMP JUMPDEST PUSH2 0x3050 SWAP1 PUSH1 0xA PUSH2 0x3AA5 JUMP JUMPDEST PUSH2 0x305A SWAP1 DUP6 PUSH2 0x3853 JUMP JUMPDEST PUSH2 0x3064 SWAP2 SWAP1 PUSH2 0x3880 JUMP JUMPDEST SWAP5 POP POP POP POP POP SWAP1 JUMP JUMPDEST PUSH1 0x1 PUSH1 0x1 PUSH1 0xA0 SHL SUB DUP2 AND PUSH1 0x0 SWAP1 DUP2 MSTORE PUSH1 0x2 PUSH1 0x20 MSTORE PUSH1 0x40 DUP2 KECCAK256 SLOAD PUSH2 0xC26 SWAP1 PUSH4 0x5F5E100 SWAP1 PUSH2 0x3853 JUMP JUMPDEST PUSH1 0x8 SLOAD NUMBER GT PUSH2 0x30A0 JUMPI JUMP JUMPDEST PUSH1 0x0 PUSH1 0x8 SLOAD NUMBER PUSH2 0x30B0 SWAP2 SWAP1 PUSH2 0x3894 JUMP JUMPDEST SWAP1 POP PUSH1 0x0 PUSH2 0x30BF PUSH1 0x6 SLOAD PUSH2 0x329D JUMP JUMPDEST SWAP1 POP PUSH1 0x0 PUSH2 0x30D5 DUP3 PUSH8 0xDE0B6B3A7640000 PUSH2 0x38C0 JUMP JUMPDEST SWAP1 POP PUSH8 0xDE0B6B3A7640000 DUP4 DUP3 JUMPDEST DUP2 ISZERO PUSH2 0x314C JUMPI PUSH2 0x30F4 PUSH1 0x2 DUP4 PUSH2 0x397B JUMP JUMPDEST PUSH1 0x1 SUB PUSH2 0x311B JUMPI PUSH8 0xDE0B6B3A7640000 PUSH2 0x310E DUP3 DUP6 PUSH2 0x3853 JUMP JUMPDEST PUSH2 0x3118 SWAP2 SWAP1 PUSH2 0x3880 JUMP JUMPDEST SWAP3 POP JUMPDEST PUSH8 0xDE0B6B3A7640000 PUSH2 0x312E DUP3 DUP1 PUSH2 0x3853 JUMP JUMPDEST PUSH2 0x3138 SWAP2 SWAP1 PUSH2 0x3880 JUMP JUMPDEST SWAP1 POP PUSH2 0x3145 PUSH1 0x2 DUP4 PUSH2 0x3880 JUMP JUMPDEST SWAP2 POP PUSH2 0x30E3 JUMP JUMPDEST PUSH8 0xDE0B6B3A7640000 DUP4 PUSH1 0x6 SLOAD PUSH2 0x3163 SWAP2 SWAP1 PUSH2 0x3853 JUMP JUMPDEST PUSH2 0x316D SWAP2 SWAP1 PUSH2 0x3880 JUMP JUMPDEST PUSH1 0x6 SSTORE POP POP NUMBER PUSH1 0x8 SSTORE POP POP POP POP JUMP JUMPDEST PUSH2 0x3189 DUP4 DUP4 DUP4 PUSH1 0x1 PUSH2 0x36A7 JUMP JUMPDEST PUSH2 0x31B1 JUMPI PUSH1 0x40 MLOAD PUSH4 0x5274AFE7 PUSH1 0xE0 SHL DUP2 MSTORE PUSH1 0x1 PUSH1 0x1 PUSH1 0xA0 SHL SUB DUP5 AND PUSH1 0x4 DUP3 ADD MSTORE PUSH1 0x24 ADD PUSH2 0x867 JUMP JUMPDEST POP POP POP JUMP JUMPDEST PUSH1 0x7 SLOAD NUMBER GT PUSH2 0x31C1 JUMPI JUMP JUMPDEST PUSH1 0x0 PUSH1 0x7 SLOAD NUMBER PUSH2 0x31D1 SWAP2 SWAP1 PUSH2 0x3894 JUMP JUMPDEST SWAP1 POP PUSH1 0x0 PUSH2 0x31E0 PUSH1 0x5 SLOAD PUSH2 0x33C6 JUMP JUMPDEST SWAP1 POP PUSH1 0x0 PUSH2 0x31F6 DUP3 PUSH8 0xDE0B6B3A7640000 PUSH2 0x38C0 JUMP JUMPDEST SWAP1 POP PUSH8 0xDE0B6B3A7640000 DUP4 DUP3 JUMPDEST DUP2 ISZERO PUSH2 0x326D JUMPI PUSH2 0x3215 PUSH1 0x2 DUP4 PUSH2 0x397B JUMP JUMPDEST PUSH1 0x1 SUB PUSH2 0x323C JUMPI PUSH8 0xDE0B6B3A7640000 PUSH2 0x322F DUP3 DUP6 PUSH2 0x3853 JUMP JUMPDEST PUSH2 0x3239 SWAP2 SWAP1 PUSH2 0x3880 JUMP JUMPDEST SWAP3 POP JUMPDEST PUSH8 0xDE0B6B3A7640000 PUSH2 0x324F DUP3 DUP1 PUSH2 0x3853 JUMP JUMPDEST PUSH2 0x3259 SWAP2 SWAP1 PUSH2 0x3880 JUMP JUMPDEST SWAP1 POP PUSH2 0x3266 PUSH1 0x2 DUP4 PUSH2 0x3880 JUMP JUMPDEST SWAP2 POP PUSH2 0x3204 JUMP JUMPDEST PUSH8 0xDE0B6B3A7640000 DUP4 PUSH1 0x5 SLOAD PUSH2 0x3284 SWAP2 SWAP1 PUSH2 0x3853 JUMP JUMPDEST PUSH2 0x328E SWAP2 SWAP1 PUSH2 0x3880 JUMP JUMPDEST PUSH1 0x5 SSTORE POP POP NUMBER PUSH1 0x7 SSTORE POP POP POP POP JUMP JUMPDEST PUSH1 0x40 MLOAD PUSH4 0x70A08231 PUSH1 0xE0 SHL DUP2 MSTORE ADDRESS PUSH1 0x4 DUP3 ADD MSTORE PUSH1 0x0 SWAP1 DUP2 SWAP1 PUSH1 0x1 PUSH1 0x1 PUSH1 0xA0 SHL SUB PUSH32 0x0 AND SWAP1 PUSH4 0x70A08231 SWAP1 PUSH1 0x24 ADD PUSH1 0x20 PUSH1 0x40 MLOAD DUP1 DUP4 SUB DUP2 DUP7 GAS STATICCALL ISZERO DUP1 ISZERO PUSH2 0x3306 JUMPI RETURNDATASIZE PUSH1 0x0 DUP1 RETURNDATACOPY RETURNDATASIZE PUSH1 0x0 REVERT JUMPDEST POP POP POP POP PUSH1 0x40 MLOAD RETURNDATASIZE PUSH1 0x1F NOT PUSH1 0x1F DUP3 ADD AND DUP3 ADD DUP1 PUSH1 0x40 MSTORE POP DUP2 ADD SWAP1 PUSH2 0x332A SWAP2 SWAP1 PUSH2 0x38A7 JUMP JUMPDEST SWAP1 POP PUSH1 0x0 PUSH8 0xDE0B6B3A7640000 DUP5 PUSH1 0xA SLOAD PUSH2 0x3345 SWAP2 SWAP1 PUSH2 0x3853 JUMP JUMPDEST PUSH2 0x334F SWAP2 SWAP1 PUSH2 0x3880 JUMP JUMPDEST SWAP1 POP PUSH1 0x0 PUSH2 0x335D DUP3 DUP5 PUSH2 0x38C0 JUMP JUMPDEST SWAP1 POP PUSH1 0x0 DUP2 ISZERO PUSH2 0x3389 JUMPI DUP2 PUSH2 0x337A DUP5 PUSH8 0xDE0B6B3A7640000 PUSH2 0x3853 JUMP JUMPDEST PUSH2 0x3384 SWAP2 SWAP1 PUSH2 0x3880 JUMP JUMPDEST PUSH2 0x338C JUMP JUMPDEST PUSH1 0x0 JUMPDEST SWAP1 POP PUSH8 0xDE0B6B3A7640000 DUP2 PUSH1 0xF SLOAD PUSH2 0x33A5 SWAP2 SWAP1 PUSH2 0x3853 JUMP JUMPDEST PUSH2 0x33AF SWAP2 SWAP1 PUSH2 0x3880 JUMP JUMPDEST PUSH1 0xE SLOAD PUSH2 0x33BC SWAP2 SWAP1 PUSH2 0x38C0 JUMP JUMPDEST SWAP7 SWAP6 POP POP POP POP POP POP JUMP JUMPDEST PUSH1 0x40 MLOAD PUSH4 0x70A08231 PUSH1 0xE0 SHL DUP2 MSTORE ADDRESS PUSH1 0x4 DUP3 ADD MSTORE PUSH1 0x0 SWAP1 DUP2 SWAP1 PUSH1 0x1 PUSH1 0x1 PUSH1 0xA0 SHL SUB PUSH32 0x0 AND SWAP1 PUSH4 0x70A08231 SWAP1 PUSH1 0x24 ADD PUSH1 0x20 PUSH1 0x40 MLOAD DUP1 DUP4 SUB DUP2 DUP7 GAS STATICCALL ISZERO DUP1 ISZERO PUSH2 0x342F JUMPI RETURNDATASIZE PUSH1 0x0 DUP1 RETURNDATACOPY RETURNDATASIZE PUSH1 0x0 REVERT JUMPDEST POP POP POP POP PUSH1 0x40 MLOAD RETURNDATASIZE PUSH1 0x1F NOT PUSH1 0x1F DUP3 ADD AND DUP3 ADD DUP1 PUSH1 0x40 MSTORE POP DUP2 ADD SWAP1 PUSH2 0x3453 SWAP2 SWAP1 PUSH2 0x38A7 JUMP JUMPDEST SWAP1 POP PUSH1 0x0 PUSH8 0xDE0B6B3A7640000 DUP5 PUSH1 0x9 SLOAD PUSH2 0x346E SWAP2 SWAP1 PUSH2 0x3853 JUMP JUMPDEST PUSH2 0x3478 SWAP2 SWAP1 PUSH2 0x3880 JUMP JUMPDEST SWAP1 POP PUSH1 0x0 PUSH2 0x3486 DUP3 DUP5 PUSH2 0x38C0 JUMP JUMPDEST SWAP1 POP PUSH1 0x0 DUP2 ISZERO PUSH2 0x34B2 JUMPI DUP2 PUSH2 0x34A3 DUP5 PUSH8 0xDE0B6B3A7640000 PUSH2 0x3853 JUMP JUMPDEST PUSH2 0x34AD SWAP2 SWAP1 PUSH2 0x3880 JUMP JUMPDEST PUSH2 0x34B5 JUMP JUMPDEST PUSH1 0x0 JUMPDEST SWAP1 POP PUSH8 0xDE0B6B3A7640000 DUP2 PUSH1 0xC SLOAD PUSH2 0x34CE SWAP2 SWAP1 PUSH2 0x3853 JUMP JUMPDEST PUSH2 0x34D8 SWAP2 SWAP1 PUSH2 0x3880 JUMP JUMPDEST PUSH1 0xB SLOAD PUSH2 0x33BC SWAP2 SWAP1 PUSH2 0x38C0 JUMP JUMPDEST PUSH1 0x0 DUP1 MLOAD PUSH1 0x20 PUSH2 0x3AB2 DUP4 CODECOPY DUP2 MLOAD SWAP2 MSTORE SLOAD PUSH1 0x2 SUB PUSH2 0x3515 JUMPI PUSH1 0x40 MLOAD PUSH4 0x3EE5AEB5 PUSH1 0xE0 SHL DUP2 MSTORE PUSH1 0x4 ADD PUSH1 0x40 MLOAD DUP1 SWAP2 SUB SWAP1 REVERT JUMPDEST JUMP JUMPDEST PUSH1 0x40 MLOAD PUSH4 0x23B872DD PUSH1 0xE0 SHL PUSH1 0x0 DUP2 DUP2 MSTORE PUSH1 0x1 PUSH1 0x1 PUSH1 0xA0 SHL SUB DUP8 DUP2 AND PUSH1 0x4 MSTORE DUP7 AND PUSH1 0x24 MSTORE PUSH1 0x44 DUP6 SWAP1 MSTORE SWAP2 PUSH1 0x20 DUP4 PUSH1 0x64 DUP2 DUP1 DUP13 GAS CALL SWAP3 POP PUSH1 0x1 PUSH1 0x0 MLOAD EQ DUP4 AND PUSH2 0x3577 JUMPI DUP4 DUP4 ISZERO AND ISZERO PUSH2 0x356A JUMPI RETURNDATASIZE PUSH1 0x0 DUP3 RETURNDATACOPY RETURNDATASIZE DUP2 REVERT JUMPDEST PUSH1 0x0 DUP9 EXTCODESIZE GT RETURNDATASIZE ISZERO AND DUP4 AND SWAP3 POP JUMPDEST PUSH1 0x40 MSTORE POP PUSH1 0x0 PUSH1 0x60 MSTORE SWAP6 SWAP5 POP POP POP POP POP JUMP JUMPDEST PUSH1 0x40 MLOAD PUSH4 0x70A08231 PUSH1 0xE0 SHL DUP2 MSTORE ADDRESS PUSH1 0x4 DUP3 ADD MSTORE PUSH1 0x0 SWAP1 DUP2 SWAP1 PUSH1 0x1 PUSH1 0x1 PUSH1 0xA0 SHL SUB PUSH32 0x0 AND SWAP1 PUSH4 0x70A08231 SWAP1 PUSH1 0x24 ADD PUSH1 0x20 PUSH1 0x40 MLOAD DUP1 DUP4 SUB DUP2 DUP7 GAS STATICCALL ISZERO DUP1 ISZERO PUSH2 0x35F2 JUMPI RETURNDATASIZE PUSH1 0x0 DUP1 RETURNDATACOPY RETURNDATASIZE PUSH1 0x0 REVERT JUMPDEST POP POP POP POP PUSH1 0x40 MLOAD RETURNDATASIZE PUSH1 0x1F NOT PUSH1 0x1F DUP3 ADD AND DUP3 ADD DUP1 PUSH1 0x40 MSTORE POP DUP2 ADD SWAP1 PUSH2 0x3616 SWAP2 SWAP1 PUSH2 0x38A7 JUMP JUMPDEST PUSH1 0x40 MLOAD PUSH4 0x70A08231 PUSH1 0xE0 SHL DUP2 MSTORE ADDRESS PUSH1 0x4 DUP3 ADD MSTORE SWAP1 SWAP3 POP PUSH32 0x0 PUSH1 0x1 PUSH1 0x1 PUSH1 0xA0 SHL SUB AND SWAP1 PUSH4 0x70A08231 SWAP1 PUSH1 0x24 ADD PUSH1 0x20 PUSH1 0x40 MLOAD DUP1 DUP4 SUB DUP2 DUP7 GAS STATICCALL ISZERO DUP1 ISZERO PUSH2 0x367D JUMPI RETURNDATASIZE PUSH1 0x0 DUP1 RETURNDATACOPY RETURNDATASIZE PUSH1 0x0 REVERT JUMPDEST POP POP POP POP PUSH1 0x40 MLOAD RETURNDATASIZE PUSH1 0x1F NOT PUSH1 0x1F DUP3 ADD AND DUP3 ADD DUP1 PUSH1 0x40 MSTORE POP DUP2 ADD SWAP1 PUSH2 0x36A1 SWAP2 SWAP1 PUSH2 0x38A7 JUMP JUMPDEST SWAP1 POP SWAP1 SWAP2 JUMP JUMPDEST PUSH1 0x40 MLOAD PUSH4 0xA9059CBB PUSH1 0xE0 SHL PUSH1 0x0 DUP2 DUP2 MSTORE PUSH1 0x1 PUSH1 0x1 PUSH1 0xA0 SHL SUB DUP7 AND PUSH1 0x4 MSTORE PUSH1 0x24 DUP6 SWAP1 MSTORE SWAP2 PUSH1 0x20 DUP4 PUSH1 0x44 DUP2 DUP1 DUP12 GAS CALL SWAP3 POP PUSH1 0x1 PUSH1 0x0 MLOAD EQ DUP4 AND PUSH2 0x3701 JUMPI DUP4 DUP4 ISZERO AND ISZERO PUSH2 0x36F4 JUMPI RETURNDATASIZE PUSH1 0x0 DUP3 RETURNDATACOPY RETURNDATASIZE DUP2 REVERT JUMPDEST PUSH1 0x0 DUP8 EXTCODESIZE GT RETURNDATASIZE ISZERO AND DUP4 AND SWAP3 POP JUMPDEST PUSH1 0x40 MSTORE POP SWAP5 SWAP4 POP POP POP POP JUMP JUMPDEST DUP1 CALLDATALOAD PUSH1 0x1 PUSH1 0x1 PUSH1 0xA0 SHL SUB DUP2 AND DUP2 EQ PUSH2 0x3724 JUMPI PUSH1 0x0 DUP1 REVERT JUMPDEST SWAP2 SWAP1 POP JUMP JUMPDEST PUSH1 0x0 PUSH1 0x20 DUP3 DUP5 SUB SLT ISZERO PUSH2 0x373B JUMPI PUSH1 0x0 DUP1 REVERT JUMPDEST PUSH2 0x2EED DUP3 PUSH2 0x370D JUMP JUMPDEST PUSH1 0x0 PUSH1 0x20 DUP3 DUP5 SUB SLT ISZERO PUSH2 0x3756 JUMPI PUSH1 0x0 DUP1 REVERT JUMPDEST POP CALLDATALOAD SWAP2 SWAP1 POP JUMP JUMPDEST PUSH1 0x0 DUP1 PUSH1 0x0 DUP1 PUSH1 0x0 PUSH1 0x80 DUP7 DUP9 SUB SLT ISZERO PUSH2 0x3775 JUMPI PUSH1 0x0 DUP1 REVERT JUMPDEST PUSH2 0x377E DUP7 PUSH2 0x370D JUMP JUMPDEST SWAP5 POP PUSH2 0x378C PUSH1 0x20 DUP8 ADD PUSH2 0x370D JUMP JUMPDEST SWAP4 POP PUSH1 0x40 DUP7 ADD CALLDATALOAD SWAP3 POP PUSH1 0x60 DUP7 ADD CALLDATALOAD PUSH8 0xFFFFFFFFFFFFFFFF DUP1 DUP3 GT ISZERO PUSH2 0x37B0 JUMPI PUSH1 0x0 DUP1 REVERT JUMPDEST DUP2 DUP9 ADD SWAP2 POP DUP9 PUSH1 0x1F DUP4 ADD SLT PUSH2 0x37C4 JUMPI PUSH1 0x0 DUP1 REVERT JUMPDEST DUP2 CALLDATALOAD DUP2 DUP2 GT ISZERO PUSH2 0x37D3 JUMPI PUSH1 0x0 DUP1 REVERT JUMPDEST DUP10 PUSH1 0x20 DUP3 DUP6 ADD ADD GT ISZERO PUSH2 0x37E5 JUMPI PUSH1 0x0 DUP1 REVERT JUMPDEST SWAP7 SWAP10 SWAP6 SWAP9 POP SWAP4 SWAP7 POP PUSH1 0x20 ADD SWAP5 SWAP4 SWAP3 POP POP POP JUMP JUMPDEST PUSH1 0x20 DUP1 DUP3 MSTORE PUSH1 0x12 SWAP1 DUP3 ADD MSTORE PUSH18 0x50434F4C42555344506F6F6C3A207A65726F PUSH1 0x70 SHL PUSH1 0x40 DUP3 ADD MSTORE PUSH1 0x60 ADD SWAP1 JUMP JUMPDEST PUSH1 0x1 PUSH1 0x1 PUSH1 0xA0 SHL SUB SWAP3 SWAP1 SWAP3 AND DUP3 MSTORE PUSH1 0x20 DUP3 ADD MSTORE PUSH1 0x40 ADD SWAP1 JUMP JUMPDEST PUSH4 0x4E487B71 PUSH1 0xE0 SHL PUSH1 0x0 MSTORE PUSH1 0x11 PUSH1 0x4 MSTORE PUSH1 0x24 PUSH1 0x0 REVERT JUMPDEST DUP1 DUP3 MUL DUP2 ISZERO DUP3 DUP3 DIV DUP5 EQ OR PUSH2 0xC26 JUMPI PUSH2 0xC26 PUSH2 0x383D JUMP JUMPDEST PUSH4 0x4E487B71 PUSH1 0xE0 SHL PUSH1 0x0 MSTORE PUSH1 0x12 PUSH1 0x4 MSTORE PUSH1 0x24 PUSH1 0x0 REVERT JUMPDEST PUSH1 0x0 DUP3 PUSH2 0x388F JUMPI PUSH2 0x388F PUSH2 0x386A JUMP JUMPDEST POP DIV SWAP1 JUMP JUMPDEST DUP2 DUP2 SUB DUP2 DUP2 GT ISZERO PUSH2 0xC26 JUMPI PUSH2 0xC26 PUSH2 0x383D JUMP JUMPDEST PUSH1 0x0 PUSH1 0x20 DUP3 DUP5 SUB SLT ISZERO PUSH2 0x38B9 JUMPI PUSH1 0x0 DUP1 REVERT JUMPDEST POP MLOAD SWAP2 SWAP1 POP JUMP JUMPDEST DUP1 DUP3 ADD DUP1 DUP3 GT ISZERO PUSH2 0xC26 JUMPI PUSH2 0xC26 PUSH2 0x383D JUMP JUMPDEST PUSH1 0x20 DUP1 DUP3 MSTORE PUSH1 0x10 SWAP1 DUP3 ADD MSTORE PUSH16 0x2821A7A6212AA9A22837B7B61D102423 PUSH1 0x81 SHL PUSH1 0x40 DUP3 ADD MSTORE PUSH1 0x60 ADD SWAP1 JUMP JUMPDEST PUSH1 0x1 PUSH1 0x1 PUSH1 0xA0 SHL SUB DUP8 DUP2 AND DUP3 MSTORE PUSH1 0x20 DUP3 ADD DUP8 SWAP1 MSTORE PUSH1 0x40 DUP3 ADD DUP7 SWAP1 MSTORE DUP5 AND PUSH1 0x60 DUP3 ADD MSTORE PUSH1 0xA0 PUSH1 0x80 DUP3 ADD DUP2 SWAP1 MSTORE DUP2 ADD DUP3 SWAP1 MSTORE PUSH1 0x0 DUP3 DUP5 PUSH1 0xC0 DUP5 ADD CALLDATACOPY PUSH1 0x0 PUSH1 0xC0 DUP5 DUP5 ADD ADD MSTORE PUSH1 0xC0 PUSH1 0x1F NOT PUSH1 0x1F DUP6 ADD AND DUP4 ADD ADD SWAP1 POP SWAP8 SWAP7 POP POP POP POP POP POP POP JUMP JUMPDEST PUSH1 0x0 PUSH1 0x20 DUP3 DUP5 SUB SLT ISZERO PUSH2 0x396B JUMPI PUSH1 0x0 DUP1 REVERT JUMPDEST DUP2 MLOAD DUP1 ISZERO ISZERO DUP2 EQ PUSH2 0x2EED JUMPI PUSH1 0x0 DUP1 REVERT JUMPDEST PUSH1 0x0 DUP3 PUSH2 0x398A JUMPI PUSH2 0x398A PUSH2 0x386A JUMP JUMPDEST POP MOD SWAP1 JUMP JUMPDEST PUSH1 0x0 PUSH1 0x20 DUP3 DUP5 SUB SLT ISZERO PUSH2 0x39A1 JUMPI PUSH1 0x0 DUP1 REVERT JUMPDEST DUP2 MLOAD PUSH1 0xFF DUP2 AND DUP2 EQ PUSH2 0x2EED JUMPI PUSH1 0x0 DUP1 REVERT JUMPDEST PUSH1 0x1 DUP2 DUP2 JUMPDEST DUP1 DUP6 GT ISZERO PUSH2 0x39ED JUMPI DUP2 PUSH1 0x0 NOT DIV DUP3 GT ISZERO PUSH2 0x39D3 JUMPI PUSH2 0x39D3 PUSH2 0x383D JUMP JUMPDEST DUP1 DUP6 AND ISZERO PUSH2 0x39E0 JUMPI SWAP2 DUP2 MUL SWAP2 JUMPDEST SWAP4 DUP5 SHR SWAP4 SWAP1 DUP1 MUL SWAP1 PUSH2 0x39B7 JUMP JUMPDEST POP SWAP3 POP SWAP3 SWAP1 POP JUMP JUMPDEST PUSH1 0x0 DUP3 PUSH2 0x3A04 JUMPI POP PUSH1 0x1 PUSH2 0xC26 JUMP JUMPDEST DUP2 PUSH2 0x3A11 JUMPI POP PUSH1 0x0 PUSH2 0xC26 JUMP JUMPDEST DUP2 PUSH1 0x1 DUP2 EQ PUSH2 0x3A27 JUMPI PUSH1 0x2 DUP2 EQ PUSH2 0x3A31 JUMPI PUSH2 0x3A4D JUMP JUMPDEST PUSH1 0x1 SWAP2 POP POP PUSH2 0xC26 JUMP JUMPDEST PUSH1 0xFF DUP5 GT ISZERO PUSH2 0x3A42 JUMPI PUSH2 0x3A42 PUSH2 0x383D JUMP JUMPDEST POP POP PUSH1 0x1 DUP3 SHL PUSH2 0xC26 JUMP JUMPDEST POP PUSH1 0x20 DUP4 LT PUSH2 0x133 DUP4 LT AND PUSH1 0x4E DUP5 LT PUSH1 0xB DUP5 LT AND OR ISZERO PUSH2 0x3A70 JUMPI POP DUP2 DUP2 EXP PUSH2 0xC26 JUMP JUMPDEST PUSH2 0x3A7A DUP4 DUP4 PUSH2 0x39B2 JUMP JUMPDEST DUP1 PUSH1 0x0 NOT DIV DUP3 GT ISZERO PUSH2 0x3A8E JUMPI PUSH2 0x3A8E PUSH2 0x383D JUMP JUMPDEST MUL SWAP4 SWAP3 POP POP POP JUMP JUMPDEST PUSH1 0x0 PUSH2 0x2EED PUSH1 0xFF DUP5 AND DUP4 PUSH2 0x39F5 JUMP JUMPDEST PUSH1 0x0 PUSH2 0x2EED DUP4 DUP4 PUSH2 0x39F5 JUMP INVALID SWAP12 PUSH24 0x9B17422D0DF92223018B32B4D1FA46E071723D6817E2486D STOP EXTCODESIZE 0xEC 0xC5 PUSH0 STOP LOG2 PUSH5 0x6970667358 0x22 SLT KECCAK256 PUSH2 0x406F SWAP6 PUSH18 0xC21791D3D3ABB5631997FD6C18BD6E5C79EB MSTORE8 0xE7 0xBC 0xC1 DIV PUSH27 0x553FBD64736F6C6343000814003360A06040523480156200001157 PUSH1 0x0 DUP1 REVERT JUMPDEST POP PUSH1 0x40 MLOAD PUSH3 0xCAD CODESIZE SUB DUP1 PUSH3 0xCAD DUP4 CODECOPY DUP2 ADD PUSH1 0x40 DUP2 SWAP1 MSTORE PUSH3 0x34 SWAP2 PUSH3 0x18B JUMP JUMPDEST DUP3 DUP3 PUSH1 0x3 PUSH3 0x44 DUP4 DUP3 PUSH3 0x2A7 JUMP JUMPDEST POP PUSH1 0x4 PUSH3 0x53 DUP3 DUP3 PUSH3 0x2A7 JUMP JUMPDEST POP POP POP PUSH1 0x1 PUSH1 0x1 PUSH1 0xA0 SHL SUB DUP2 AND PUSH3 0xB1 JUMPI PUSH1 0x40 MLOAD PUSH3 0x461BCD PUSH1 0xE5 SHL DUP2 MSTORE PUSH1 0x20 PUSH1 0x4 DUP3 ADD MSTORE PUSH1 0x17 PUSH1 0x24 DUP3 ADD MSTORE PUSH32 0x52656365697074546F6B656E3A207A65726F20706F6F6C000000000000000000 PUSH1 0x44 DUP3 ADD MSTORE PUSH1 0x64 ADD PUSH1 0x40 MLOAD DUP1 SWAP2 SUB SWAP1 REVERT JUMPDEST PUSH1 0x1 PUSH1 0x1 PUSH1 0xA0 SHL SUB AND PUSH1 0x80 MSTORE POP PUSH3 0x373 SWAP1 POP JUMP JUMPDEST PUSH4 0x4E487B71 PUSH1 0xE0 SHL PUSH1 0x0 MSTORE PUSH1 0x41 PUSH1 0x4 MSTORE PUSH1 0x24 PUSH1 0x0 REVERT JUMPDEST PUSH1 0x0 DUP3 PUSH1 0x1F DUP4 ADD SLT PUSH3 0xEE JUMPI PUSH1 0x0 DUP1 REVERT JUMPDEST DUP2 MLOAD PUSH1 0x1 PUSH1 0x1 PUSH1 0x40 SHL SUB DUP1 DUP3 GT ISZERO PUSH3 0x10B JUMPI PUSH3 0x10B PUSH3 0xC6 JUMP JUMPDEST PUSH1 0x40 MLOAD PUSH1 0x1F DUP4 ADD PUSH1 0x1F NOT SWAP1 DUP2 AND PUSH1 0x3F ADD AND DUP2 ADD SWAP1 DUP3 DUP3 GT DUP2 DUP4 LT OR ISZERO PUSH3 0x136 JUMPI PUSH3 0x136 PUSH3 0xC6 JUMP JUMPDEST DUP2 PUSH1 0x40 MSTORE DUP4 DUP2 MSTORE PUSH1 0x20 SWAP3 POP DUP7 DUP4 DUP6 DUP9 ADD ADD GT ISZERO PUSH3 0x153 JUMPI PUSH1 0x0 DUP1 REVERT JUMPDEST PUSH1 0x0 SWAP2 POP JUMPDEST DUP4 DUP3 LT ISZERO PUSH3 0x177 JUMPI DUP6 DUP3 ADD DUP4 ADD MLOAD DUP2 DUP4 ADD DUP5 ADD MSTORE SWAP1 DUP3 ADD SWAP1 PUSH3 0x158 JUMP JUMPDEST PUSH1 0x0 SWAP4 DUP2 ADD SWAP1 SWAP3 ADD SWAP3 SWAP1 SWAP3 MSTORE SWAP5 SWAP4 POP POP POP POP JUMP JUMPDEST PUSH1 0x0 DUP1 PUSH1 0x0 PUSH1 0x60 DUP5 DUP7 SUB SLT ISZERO PUSH3 0x1A1 JUMPI PUSH1 0x0 DUP1 REVERT JUMPDEST DUP4 MLOAD PUSH1 0x1 PUSH1 0x1 PUSH1 0x40 SHL SUB DUP1 DUP3 GT ISZERO PUSH3 0x1B9 JUMPI PUSH1 0x0 DUP1 REVERT JUMPDEST PUSH3 0x1C7 DUP8 DUP4 DUP9 ADD PUSH3 0xDC JUMP JUMPDEST SWAP5 POP PUSH1 0x20 DUP7 ADD MLOAD SWAP2 POP DUP1 DUP3 GT ISZERO PUSH3 0x1DE JUMPI PUSH1 0x0 DUP1 REVERT JUMPDEST POP PUSH3 0x1ED DUP7 DUP3 DUP8 ADD PUSH3 0xDC JUMP JUMPDEST PUSH1 0x40 DUP7 ADD MLOAD SWAP1 SWAP4 POP SWAP1 POP PUSH1 0x1 PUSH1 0x1 PUSH1 0xA0 SHL SUB DUP2 AND DUP2 EQ PUSH3 0x20D JUMPI PUSH1 0x0 DUP1 REVERT JUMPDEST DUP1 SWAP2 POP POP SWAP3 POP SWAP3 POP SWAP3 JUMP JUMPDEST PUSH1 0x1 DUP2 DUP2 SHR SWAP1 DUP3 AND DUP1 PUSH3 0x22D JUMPI PUSH1 0x7F DUP3 AND SWAP2 POP JUMPDEST PUSH1 0x20 DUP3 LT DUP2 SUB PUSH3 0x24E JUMPI PUSH4 0x4E487B71 PUSH1 0xE0 SHL PUSH1 0x0 MSTORE PUSH1 0x22 PUSH1 0x4 MSTORE PUSH1 0x24 PUSH1 0x0 REVERT JUMPDEST POP SWAP2 SWAP1 POP JUMP JUMPDEST PUSH1 0x1F DUP3 GT ISZERO PUSH3 0x2A2 JUMPI PUSH1 0x0 DUP2 DUP2 MSTORE PUSH1 0x20 DUP2 KECCAK256 PUSH1 0x1F DUP6 ADD PUSH1 0x5 SHR DUP2 ADD PUSH1 0x20 DUP7 LT ISZERO PUSH3 0x27D JUMPI POP DUP1 JUMPDEST PUSH1 0x1F DUP6 ADD PUSH1 0x5 SHR DUP3 ADD SWAP2 POP JUMPDEST DUP2 DUP2 LT ISZERO PUSH3 0x29E JUMPI DUP3 DUP2 SSTORE PUSH1 0x1 ADD PUSH3 0x289 JUMP JUMPDEST POP POP POP JUMPDEST POP POP POP JUMP JUMPDEST DUP2 MLOAD PUSH1 0x1 PUSH1 0x1 PUSH1 0x40 SHL SUB DUP2 GT ISZERO PUSH3 0x2C3 JUMPI PUSH3 0x2C3 PUSH3 0xC6 JUMP JUMPDEST PUSH3 0x2DB DUP2 PUSH3 0x2D4 DUP5 SLOAD PUSH3 0x218 JUMP JUMPDEST DUP5 PUSH3 0x254 JUMP JUMPDEST PUSH1 0x20 DUP1 PUSH1 0x1F DUP4 GT PUSH1 0x1 DUP2 EQ PUSH3 0x313 JUMPI PUSH1 0x0 DUP5 ISZERO PUSH3 0x2FA JUMPI POP DUP6 DUP4 ADD MLOAD JUMPDEST PUSH1 0x0 NOT PUSH1 0x3 DUP7 SWAP1 SHL SHR NOT AND PUSH1 0x1 DUP6 SWAP1 SHL OR DUP6 SSTORE PUSH3 0x29E JUMP JUMPDEST PUSH1 0x0 DUP6 DUP2 MSTORE PUSH1 0x20 DUP2 KECCAK256 PUSH1 0x1F NOT DUP7 AND SWAP2 JUMPDEST DUP3 DUP2 LT ISZERO PUSH3 0x344 JUMPI DUP9 DUP7 ADD MLOAD DUP3 SSTORE SWAP5 DUP5 ADD SWAP5 PUSH1 0x1 SWAP1 SWAP2 ADD SWAP1 DUP5 ADD PUSH3 0x323 JUMP JUMPDEST POP DUP6 DUP3 LT ISZERO PUSH3 0x363 JUMPI DUP8 DUP6 ADD MLOAD PUSH1 0x0 NOT PUSH1 0x3 DUP9 SWAP1 SHL PUSH1 0xF8 AND SHR NOT AND DUP2 SSTORE JUMPDEST POP POP POP POP POP PUSH1 0x1 SWAP1 DUP2 SHL ADD SWAP1 SSTORE POP JUMP JUMPDEST PUSH1 0x80 MLOAD PUSH2 0x911 PUSH3 0x39C PUSH1 0x0 CODECOPY PUSH1 0x0 DUP2 DUP2 PUSH1 0xFF ADD MSTORE DUP2 DUP2 PUSH2 0x2ED ADD MSTORE PUSH2 0x381 ADD MSTORE PUSH2 0x911 PUSH1 0x0 RETURN INVALID PUSH1 0x80 PUSH1 0x40 MSTORE CALLVALUE DUP1 ISZERO PUSH2 0x10 JUMPI PUSH1 0x0 DUP1 REVERT JUMPDEST POP PUSH1 0x4 CALLDATASIZE LT PUSH2 0xB4 JUMPI PUSH1 0x0 CALLDATALOAD PUSH1 0xE0 SHR DUP1 PUSH4 0x40C10F19 GT PUSH2 0x71 JUMPI DUP1 PUSH4 0x40C10F19 EQ PUSH2 0x16D JUMPI DUP1 PUSH4 0x70A08231 EQ PUSH2 0x182 JUMPI DUP1 PUSH4 0x95D89B41 EQ PUSH2 0x1AB JUMPI DUP1 PUSH4 0x9DC29FAC EQ PUSH2 0x1B3 JUMPI DUP1 PUSH4 0xA9059CBB EQ PUSH2 0x1C6 JUMPI DUP1 PUSH4 0xDD62ED3E EQ PUSH2 0x1D9 JUMPI PUSH1 0x0 DUP1 REVERT JUMPDEST DUP1 PUSH4 0x6FDDE03 EQ PUSH2 0xB9 JUMPI DUP1 PUSH4 0x95EA7B3 EQ PUSH2 0xD7 JUMPI DUP1 PUSH4 0x16F0115B EQ PUSH2 0xFA JUMPI DUP1 PUSH4 0x18160DDD EQ PUSH2 0x139 JUMPI DUP1 PUSH4 0x23B872DD EQ PUSH2 0x14B JUMPI DUP1 PUSH4 0x313CE567 EQ PUSH2 0x15E JUMPI JUMPDEST PUSH1 0x0 DUP1 REVERT JUMPDEST PUSH2 0xC1 PUSH2 0x212 JUMP JUMPDEST PUSH1 0x40 MLOAD PUSH2 0xCE SWAP2 SWAP1 PUSH2 0x75B JUMP JUMPDEST PUSH1 0x40 MLOAD DUP1 SWAP2 SUB SWAP1 RETURN JUMPDEST PUSH2 0xEA PUSH2 0xE5 CALLDATASIZE PUSH1 0x4 PUSH2 0x7C5 JUMP JUMPDEST PUSH2 0x2A4 JUMP JUMPDEST PUSH1 0x40 MLOAD SWAP1 ISZERO ISZERO DUP2 MSTORE PUSH1 0x20 ADD PUSH2 0xCE JUMP JUMPDEST PUSH2 0x121 PUSH32 0x0 DUP2 JUMP JUMPDEST PUSH1 0x40 MLOAD PUSH1 0x1 PUSH1 0x1 PUSH1 0xA0 SHL SUB SWAP1 SWAP2 AND DUP2 MSTORE PUSH1 0x20 ADD PUSH2 0xCE JUMP JUMPDEST PUSH1 0x2 SLOAD JUMPDEST PUSH1 0x40 MLOAD SWAP1 DUP2 MSTORE PUSH1 0x20 ADD PUSH2 0xCE JUMP JUMPDEST PUSH2 0xEA PUSH2 0x159 CALLDATASIZE PUSH1 0x4 PUSH2 0x7EF JUMP JUMPDEST PUSH2 0x2BE JUMP JUMPDEST PUSH1 0x40 MLOAD PUSH1 0x12 DUP2 MSTORE PUSH1 0x20 ADD PUSH2 0xCE JUMP JUMPDEST PUSH2 0x180 PUSH2 0x17B CALLDATASIZE PUSH1 0x4 PUSH2 0x7C5 JUMP JUMPDEST PUSH2 0x2E2 JUMP JUMPDEST STOP JUMPDEST PUSH2 0x13D PUSH2 0x190 CALLDATASIZE PUSH1 0x4 PUSH2 0x82B JUMP JUMPDEST PUSH1 0x1 PUSH1 0x1 PUSH1 0xA0 SHL SUB AND PUSH1 0x0 SWAP1 DUP2 MSTORE PUSH1 0x20 DUP2 SWAP1 MSTORE PUSH1 0x40 SWAP1 KECCAK256 SLOAD SWAP1 JUMP JUMPDEST PUSH2 0xC1 PUSH2 0x367 JUMP JUMPDEST PUSH2 0x180 PUSH2 0x1C1 CALLDATASIZE PUSH1 0x4 PUSH2 0x7C5 JUMP JUMPDEST PUSH2 0x376 JUMP JUMPDEST PUSH2 0xEA PUSH2 0x1D4 CALLDATASIZE PUSH1 0x4 PUSH2 0x7C5 JUMP JUMPDEST PUSH2 0x3F2 JUMP JUMPDEST PUSH2 0x13D PUSH2 0x1E7 CALLDATASIZE PUSH1 0x4 PUSH2 0x84D JUMP JUMPDEST PUSH1 0x1 PUSH1 0x1 PUSH1 0xA0 SHL SUB SWAP2 DUP3 AND PUSH1 0x0 SWAP1 DUP2 MSTORE PUSH1 0x1 PUSH1 0x20 SWAP1 DUP2 MSTORE PUSH1 0x40 DUP1 DUP4 KECCAK256 SWAP4 SWAP1 SWAP5 AND DUP3 MSTORE SWAP2 SWAP1 SWAP2 MSTORE KECCAK256 SLOAD SWAP1 JUMP JUMPDEST PUSH1 0x60 PUSH1 0x3 DUP1 SLOAD PUSH2 0x221 SWAP1 PUSH2 0x880 JUMP JUMPDEST DUP1 PUSH1 0x1F ADD PUSH1 0x20 DUP1 SWAP2 DIV MUL PUSH1 0x20 ADD PUSH1 0x40 MLOAD SWAP1 DUP2 ADD PUSH1 0x40 MSTORE DUP1 SWAP3 SWAP2 SWAP1 DUP2 DUP2 MSTORE PUSH1 0x20 ADD DUP3 DUP1 SLOAD PUSH2 0x24D SWAP1 PUSH2 0x880 JUMP JUMPDEST DUP1 ISZERO PUSH2 0x29A JUMPI DUP1 PUSH1 0x1F LT PUSH2 0x26F JUMPI PUSH2 0x100 DUP1 DUP4 SLOAD DIV MUL DUP4 MSTORE SWAP2 PUSH1 0x20 ADD SWAP2 PUSH2 0x29A JUMP JUMPDEST DUP3 ADD SWAP2 SWAP1 PUSH1 0x0 MSTORE PUSH1 0x20 PUSH1 0x0 KECCAK256 SWAP1 JUMPDEST DUP2 SLOAD DUP2 MSTORE SWAP1 PUSH1 0x1 ADD SWAP1 PUSH1 0x20 ADD DUP1 DUP4 GT PUSH2 0x27D JUMPI DUP3 SWAP1 SUB PUSH1 0x1F AND DUP3 ADD SWAP2 JUMPDEST POP POP POP POP POP SWAP1 POP SWAP1 JUMP JUMPDEST PUSH1 0x0 CALLER PUSH2 0x2B2 DUP2 DUP6 DUP6 PUSH2 0x400 JUMP JUMPDEST PUSH1 0x1 SWAP2 POP POP JUMPDEST SWAP3 SWAP2 POP POP JUMP JUMPDEST PUSH1 0x0 CALLER PUSH2 0x2CC DUP6 DUP3 DUP6 PUSH2 0x412 JUMP JUMPDEST PUSH2 0x2D7 DUP6 DUP6 DUP6 PUSH2 0x491 JUMP JUMPDEST POP PUSH1 0x1 SWAP5 SWAP4 POP POP POP POP JUMP JUMPDEST CALLER PUSH1 0x1 PUSH1 0x1 PUSH1 0xA0 SHL SUB PUSH32 0x0 AND EQ PUSH2 0x359 JUMPI PUSH1 0x40 MLOAD PUSH3 0x461BCD PUSH1 0xE5 SHL DUP2 MSTORE PUSH1 0x20 PUSH1 0x4 DUP3 ADD MSTORE PUSH1 0x17 PUSH1 0x24 DUP3 ADD MSTORE PUSH23 0x149958D95A5C1D151BDAD95B8E881BDB9B1E481C1BDBDB PUSH1 0x4A SHL PUSH1 0x44 DUP3 ADD MSTORE PUSH1 0x64 ADD JUMPDEST PUSH1 0x40 MLOAD DUP1 SWAP2 SUB SWAP1 REVERT JUMPDEST PUSH2 0x363 DUP3 DUP3 PUSH2 0x4F0 JUMP JUMPDEST POP POP JUMP JUMPDEST PUSH1 0x60 PUSH1 0x4 DUP1 SLOAD PUSH2 0x221 SWAP1 PUSH2 0x880 JUMP JUMPDEST CALLER PUSH1 0x1 PUSH1 0x1 PUSH1 0xA0 SHL SUB PUSH32 0x0 AND EQ PUSH2 0x3E8 JUMPI PUSH1 0x40 MLOAD PUSH3 0x461BCD PUSH1 0xE5 SHL DUP2 MSTORE PUSH1 0x20 PUSH1 0x4 DUP3 ADD MSTORE PUSH1 0x17 PUSH1 0x24 DUP3 ADD MSTORE PUSH23 0x149958D95A5C1D151BDAD95B8E881BDB9B1E481C1BDBDB PUSH1 0x4A SHL PUSH1 0x44 DUP3 ADD MSTORE PUSH1 0x64 ADD PUSH2 0x350 JUMP JUMPDEST PUSH2 0x363 DUP3 DUP3 PUSH2 0x526 JUMP JUMPDEST PUSH1 0x0 CALLER PUSH2 0x2B2 DUP2 DUP6 DUP6 PUSH2 0x491 JUMP JUMPDEST PUSH2 0x40D DUP4 DUP4 DUP4 PUSH1 0x1 PUSH2 0x55C JUMP JUMPDEST POP POP POP JUMP JUMPDEST PUSH1 0x1 PUSH1 0x1 PUSH1 0xA0 SHL SUB DUP4 DUP2 AND PUSH1 0x0 SWAP1 DUP2 MSTORE PUSH1 0x1 PUSH1 0x20 SWAP1 DUP2 MSTORE PUSH1 0x40 DUP1 DUP4 KECCAK256 SWAP4 DUP7 AND DUP4 MSTORE SWAP3 SWAP1 MSTORE KECCAK256 SLOAD PUSH1 0x0 NOT DUP2 LT ISZERO PUSH2 0x48B JUMPI DUP2 DUP2 LT ISZERO PUSH2 0x47C JUMPI PUSH1 0x40 MLOAD PUSH4 0x7DC7A0D9 PUSH1 0xE1 SHL DUP2 MSTORE PUSH1 0x1 PUSH1 0x1 PUSH1 0xA0 SHL SUB DUP5 AND PUSH1 0x4 DUP3 ADD MSTORE PUSH1 0x24 DUP2 ADD DUP3 SWAP1 MSTORE PUSH1 0x44 DUP2 ADD DUP4 SWAP1 MSTORE PUSH1 0x64 ADD PUSH2 0x350 JUMP JUMPDEST PUSH2 0x48B DUP5 DUP5 DUP5 DUP5 SUB PUSH1 0x0 PUSH2 0x55C JUMP JUMPDEST POP POP POP POP JUMP JUMPDEST PUSH1 0x1 PUSH1 0x1 PUSH1 0xA0 SHL SUB DUP4 AND PUSH2 0x4BB JUMPI PUSH1 0x40 MLOAD PUSH4 0x4B637E8F PUSH1 0xE1 SHL DUP2 MSTORE PUSH1 0x0 PUSH1 0x4 DUP3 ADD MSTORE PUSH1 0x24 ADD PUSH2 0x350 JUMP JUMPDEST PUSH1 0x1 PUSH1 0x1 PUSH1 0xA0 SHL SUB DUP3 AND PUSH2 0x4E5 JUMPI PUSH1 0x40 MLOAD PUSH4 0xEC442F05 PUSH1 0xE0 SHL DUP2 MSTORE PUSH1 0x0 PUSH1 0x4 DUP3 ADD MSTORE PUSH1 0x24 ADD PUSH2 0x350 JUMP JUMPDEST PUSH2 0x40D DUP4 DUP4 DUP4 PUSH2 0x631 JUMP JUMPDEST PUSH1 0x1 PUSH1 0x1 PUSH1 0xA0 SHL SUB DUP3 AND PUSH2 0x51A JUMPI PUSH1 0x40 MLOAD PUSH4 0xEC442F05 PUSH1 0xE0 SHL DUP2 MSTORE PUSH1 0x0 PUSH1 0x4 DUP3 ADD MSTORE PUSH1 0x24 ADD PUSH2 0x350 JUMP JUMPDEST PUSH2 0x363 PUSH1 0x0 DUP4 DUP4 PUSH2 0x631 JUMP JUMPDEST PUSH1 0x1 PUSH1 0x1 PUSH1 0xA0 SHL SUB DUP3 AND PUSH2 0x550 JUMPI PUSH1 0x40 MLOAD PUSH4 0x4B637E8F PUSH1 0xE1 SHL DUP2 MSTORE PUSH1 0x0 PUSH1 0x4 DUP3 ADD MSTORE PUSH1 0x24 ADD PUSH2 0x350 JUMP JUMPDEST PUSH2 0x363 DUP3 PUSH1 0x0 DUP4 PUSH2 0x631 JUMP JUMPDEST PUSH1 0x1 PUSH1 0x1 PUSH1 0xA0 SHL SUB DUP5 AND PUSH2 0x586 JUMPI PUSH1 0x40 MLOAD PUSH4 0xE602DF05 PUSH1 0xE0 SHL DUP2 MSTORE PUSH1 0x0 PUSH1 0x4 DUP3 ADD MSTORE PUSH1 0x24 ADD PUSH2 0x350 JUMP JUMPDEST PUSH1 0x1 PUSH1 0x1 PUSH1 0xA0 SHL SUB DUP4 AND PUSH2 0x5B0 JUMPI PUSH1 0x40 MLOAD PUSH4 0x4A1406B1 PUSH1 0xE1 SHL DUP2 MSTORE PUSH1 0x0 PUSH1 0x4 DUP3 ADD MSTORE PUSH1 0x24 ADD PUSH2 0x350 JUMP JUMPDEST PUSH1 0x1 PUSH1 0x1 PUSH1 0xA0 SHL SUB DUP1 DUP6 AND PUSH1 0x0 SWAP1 DUP2 MSTORE PUSH1 0x1 PUSH1 0x20 SWAP1 DUP2 MSTORE PUSH1 0x40 DUP1 DUP4 KECCAK256 SWAP4 DUP8 AND DUP4 MSTORE SWAP3 SWAP1 MSTORE KECCAK256 DUP3 SWAP1 SSTORE DUP1 ISZERO PUSH2 0x48B JUMPI DUP3 PUSH1 0x1 PUSH1 0x1 PUSH1 0xA0 SHL SUB AND DUP5 PUSH1 0x1 PUSH1 0x1 PUSH1 0xA0 SHL SUB AND PUSH32 0x8C5BE1E5EBEC7D5BD14F71427D1E84F3DD0314C0F7B2291E5B200AC8C7C3B925 DUP5 PUSH1 0x40 MLOAD PUSH2 0x623 SWAP2 DUP2 MSTORE PUSH1 0x20 ADD SWAP1 JUMP JUMPDEST PUSH1 0x40 MLOAD DUP1 SWAP2 SUB SWAP1 LOG3 POP POP POP POP JUMP JUMPDEST PUSH1 0x1 PUSH1 0x1 PUSH1 0xA0 SHL SUB DUP4 AND PUSH2 0x65C JUMPI DUP1 PUSH1 0x2 PUSH1 0x0 DUP3 DUP3 SLOAD PUSH2 0x651 SWAP2 SWAP1 PUSH2 0x8BA JUMP JUMPDEST SWAP1 SWAP2 SSTORE POP PUSH2 0x6CE SWAP1 POP JUMP JUMPDEST PUSH1 0x1 PUSH1 0x1 PUSH1 0xA0 SHL SUB DUP4 AND PUSH1 0x0 SWAP1 DUP2 MSTORE PUSH1 0x20 DUP2 SWAP1 MSTORE PUSH1 0x40 SWAP1 KECCAK256 SLOAD DUP2 DUP2 LT ISZERO PUSH2 0x6AF JUMPI PUSH1 0x40 MLOAD PUSH4 0x391434E3 PUSH1 0xE2 SHL DUP2 MSTORE PUSH1 0x1 PUSH1 0x1 PUSH1 0xA0 SHL SUB DUP6 AND PUSH1 0x4 DUP3 ADD MSTORE PUSH1 0x24 DUP2 ADD DUP3 SWAP1 MSTORE PUSH1 0x44 DUP2 ADD DUP4 SWAP1 MSTORE PUSH1 0x64 ADD PUSH2 0x350 JUMP JUMPDEST PUSH1 0x1 PUSH1 0x1 PUSH1 0xA0 SHL SUB DUP5 AND PUSH1 0x0 SWAP1 DUP2 MSTORE PUSH1 0x20 DUP2 SWAP1 MSTORE PUSH1 0x40 SWAP1 KECCAK256 SWAP1 DUP3 SWAP1 SUB SWAP1 SSTORE JUMPDEST PUSH1 0x1 PUSH1 0x1 PUSH1 0xA0 SHL SUB DUP3 AND PUSH2 0x6EA JUMPI PUSH1 0x2 DUP1 SLOAD DUP3 SWAP1 SUB SWAP1 SSTORE PUSH2 0x709 JUMP JUMPDEST PUSH1 0x1 PUSH1 0x1 PUSH1 0xA0 SHL SUB DUP3 AND PUSH1 0x0 SWAP1 DUP2 MSTORE PUSH1 0x20 DUP2 SWAP1 MSTORE PUSH1 0x40 SWAP1 KECCAK256 DUP1 SLOAD DUP3 ADD SWAP1 SSTORE JUMPDEST DUP2 PUSH1 0x1 PUSH1 0x1 PUSH1 0xA0 SHL SUB AND DUP4 PUSH1 0x1 PUSH1 0x1 PUSH1 0xA0 SHL SUB AND PUSH32 0xDDF252AD1BE2C89B69C2B068FC378DAA952BA7F163C4A11628F55A4DF523B3EF DUP4 PUSH1 0x40 MLOAD PUSH2 0x74E SWAP2 DUP2 MSTORE PUSH1 0x20 ADD SWAP1 JUMP JUMPDEST PUSH1 0x40 MLOAD DUP1 SWAP2 SUB SWAP1 LOG3 POP POP POP JUMP JUMPDEST PUSH1 0x0 PUSH1 0x20 DUP1 DUP4 MSTORE DUP4 MLOAD DUP1 DUP3 DUP6 ADD MSTORE PUSH1 0x0 JUMPDEST DUP2 DUP2 LT ISZERO PUSH2 0x788 JUMPI DUP6 DUP2 ADD DUP4 ADD MLOAD DUP6 DUP3 ADD PUSH1 0x40 ADD MSTORE DUP3 ADD PUSH2 0x76C JUMP JUMPDEST POP PUSH1 0x0 PUSH1 0x40 DUP3 DUP7 ADD ADD MSTORE PUSH1 0x40 PUSH1 0x1F NOT PUSH1 0x1F DUP4 ADD AND DUP6 ADD ADD SWAP3 POP POP POP SWAP3 SWAP2 POP POP JUMP JUMPDEST DUP1 CALLDATALOAD PUSH1 0x1 PUSH1 0x1 PUSH1 0xA0 SHL SUB DUP2 AND DUP2 EQ PUSH2 0x7C0 JUMPI PUSH1 0x0 DUP1 REVERT JUMPDEST SWAP2 SWAP1 POP JUMP JUMPDEST PUSH1 0x0 DUP1 PUSH1 0x40 DUP4 DUP6 SUB SLT ISZERO PUSH2 0x7D8 JUMPI PUSH1 0x0 DUP1 REVERT JUMPDEST PUSH2 0x7E1 DUP4 PUSH2 0x7A9 JUMP JUMPDEST SWAP5 PUSH1 0x20 SWAP4 SWAP1 SWAP4 ADD CALLDATALOAD SWAP4 POP POP POP JUMP JUMPDEST PUSH1 0x0 DUP1 PUSH1 0x0 PUSH1 0x60 DUP5 DUP7 SUB SLT ISZERO PUSH2 0x804 JUMPI PUSH1 0x0 DUP1 REVERT JUMPDEST PUSH2 0x80D DUP5 PUSH2 0x7A9 JUMP JUMPDEST SWAP3 POP PUSH2 0x81B PUSH1 0x20 DUP6 ADD PUSH2 0x7A9 JUMP JUMPDEST SWAP2 POP PUSH1 0x40 DUP5 ADD CALLDATALOAD SWAP1 POP SWAP3 POP SWAP3 POP SWAP3 JUMP JUMPDEST PUSH1 0x0 PUSH1 0x20 DUP3 DUP5 SUB SLT ISZERO PUSH2 0x83D JUMPI PUSH1 0x0 DUP1 REVERT JUMPDEST PUSH2 0x846 DUP3 PUSH2 0x7A9 JUMP JUMPDEST SWAP4 SWAP3 POP POP POP JUMP JUMPDEST PUSH1 0x0 DUP1 PUSH1 0x40 DUP4 DUP6 SUB SLT ISZERO PUSH2 0x860 JUMPI PUSH1 0x0 DUP1 REVERT JUMPDEST PUSH2 0x869 DUP4 PUSH2 0x7A9 JUMP JUMPDEST SWAP2 POP PUSH2 0x877 PUSH1 0x20 DUP5 ADD PUSH2 0x7A9 JUMP JUMPDEST SWAP1 POP SWAP3 POP SWAP3 SWAP1 POP JUMP JUMPDEST PUSH1 0x1 DUP2 DUP2 SHR SWAP1 DUP3 AND DUP1 PUSH2 0x894 JUMPI PUSH1 0x7F DUP3 AND SWAP2 POP JUMPDEST PUSH1 0x20 DUP3 LT DUP2 SUB PUSH2 0x8B4 JUMPI PUSH4 0x4E487B71 PUSH1 0xE0 SHL PUSH1 0x0 MSTORE PUSH1 0x22 PUSH1 0x4 MSTORE PUSH1 0x24 PUSH1 0x0 REVERT JUMPDEST POP SWAP2 SWAP1 POP JUMP JUMPDEST DUP1 DUP3 ADD DUP1 DUP3 GT ISZERO PUSH2 0x2B8 JUMPI PUSH4 0x4E487B71 PUSH1 0xE0 SHL PUSH1 0x0 MSTORE PUSH1 0x11 PUSH1 0x4 MSTORE PUSH1 0x24 PUSH1 0x0 REVERT INVALID LOG2 PUSH5 0x6970667358 0x22 SLT KECCAK256 0xBD SWAP4 PUSH13 0x1763FCC336C7D1C45F774D88AB PUSH17 0x33A66070011519DBD3906D16D2CCB16473 PUSH16 0x6C634300081400330000000000000000 "},"methodIdentifiers":{"baseRatePerBlockBUSD()":"2f5b0aba","baseRatePerBlockCOL()":"fd47fbf2","borrowBUSD(uint256)":"4577848e","borrowCOL(uint256)":"4564987a","borrowIndexBUSD()":"bf83df13","borrowIndexCOL()":"ba08ff9b","depositBUSD(uint256)":"46bfe1df","depositCOL(uint256)":"056fd0f7","depositCollateralPBUSD(uint256)":"a178f59d","depositCollateralPCOL(uint256)":"a3e3d86e","flashLoan(address,address,uint256,bytes)":"5cffe9de","flashLoanFeeBps()":"c0c7347e","getBorrowAPYBUSD()":"19b87fe8","getBorrowAPYCOL()":"30e0c05e","getBorrowIndexBUSDView()":"fdd73f41","getBorrowIndexCOLView()":"82463417","getBorrowRatePerBlockBUSD()":"38124fa4","getBorrowRatePerBlockCOL()":"3c6ce203","getCurrentDebtBUSD(address)":"4454a10e","getCurrentDebtCOL(address)":"2beabef3","getFlashLoanFee(uint256)":"8dd2a7cf","getHealthFactorPBUSD(address)":"226f4b4e","getHealthFactorPCOL(address)":"326770f2","getMaxBorrowBUSD(address)":"1c1318eb","getMaxBorrowCOL(address)":"752e6088","getPriceBUSDIn8()":"ac72d9ac","getPriceCOLIn8()":"f205743f","getSupplyAPYBUSD()":"a1957856","getSupplyAPYCOL()":"6e2e4659","getUserPositionPBUSD(address)":"b7be98ab","getUserPositionPCOL(address)":"e68a5c04","getUtilizationBUSD()":"a74f0bfa","getUtilizationCOL()":"3d60db5a","governanceToken()":"f96dae0a","isLiquidatablePBUSD(address)":"f9efd058","isLiquidatablePCOL(address)":"adcd54a7","lastBlockBUSD()":"8edb376c","lastBlockCOL()":"f4216de1","liquidateBUSD(address)":"ffdee98d","liquidateCOL(address)":"68532c95","liquidationBonus()":"7b7c1f4c","liquidationThreshold()":"4031234c","lockedPBUSD(address)":"21c61671","lockedPCOL(address)":"28a88d23","multiplierPerBlockBUSD()":"a7a24830","multiplierPerBlockCOL()":"643e3fd3","pbusdToken()":"128078a7","pcolToken()":"1f59d2b8","repayBUSD(uint256)":"f5908219","repayCOL(uint256)":"f678e9d7","reserveFactorBpsBUSD()":"8617d017","reserveFactorBpsCOL()":"3c5607a5","rewardPerBorrow()":"26bbb608","rewardPerDeposit()":"ea4e2fd2","scaledDebtBUSD(address)":"01fbcfde","scaledDebtCOL(address)":"dceba451","tokenBUSD()":"213ef7f7","tokenCOL()":"cbe98e3b","totalScaledDebtBUSD()":"c0656bd0","totalScaledDebtCOL()":"737808f4","withdrawBUSD(uint256)":"cc3bcaf3","withdrawCOL(uint256)":"7502237b","withdrawCollateralPBUSD(uint256)":"a32447bc","withdrawCollateralPCOL(uint256)":"edc38cb4"}}}}}