{"contracts/PCOLBUSDPool.sol":{"PCOLBUSDPool":{"abi":[{"inputs":[{"internalType":"address","name":"_tokenCOL","type":"address"},{"internalType":"address","name":"_tokenBUSD","type":"address"},{"internalType":"address","name":"_governanceToken","type":"address"}],"stateMutability":"nonpayable","type":"constructor"},{"inputs":[],"name":"ReentrancyGuardReentrantCall","type":"error"},{"inputs":[{"internalType":"address","name":"token","type":"address"}],"name":"SafeERC20FailedOperation","type":"error"},{"anonymous":false,"inputs":[{"indexed":true,"internalType":"address","name":"user","type":"address"},{"indexed":false,"internalType":"uint256","name":"amount","type":"uint256"}],"name":"BorrowBUSD","type":"event"},{"anonymous":false,"inputs":[{"indexed":true,"internalType":"address","name":"user","type":"address"},{"indexed":false,"internalType":"uint256","name":"amount","type":"uint256"}],"name":"BorrowCOL","type":"event"},{"anonymous":false,"inputs":[{"indexed":true,"internalType":"address","name":"user","type":"address"},{"indexed":false,"internalType":"uint256","name":"amount","type":"uint256"},{"indexed":false,"internalType":"uint256","name":"pbusdMinted","type":"uint256"}],"name":"DepositBUSD","type":"event"},{"anonymous":false,"inputs":[{"indexed":true,"internalType":"address","name":"user","type":"address"},{"indexed":false,"internalType":"uint256","name":"amount","type":"uint256"},{"indexed":false,"internalType":"uint256","name":"pcolMinted","type":"uint256"}],"name":"DepositCOL","type":"event"},{"anonymous":false,"inputs":[{"indexed":true,"internalType":"address","name":"user","type":"address"},{"indexed":false,"internalType":"uint256","name":"amount","type":"uint256"}],"name":"DepositCollateralPBUSD","type":"event"},{"anonymous":false,"inputs":[{"indexed":true,"internalType":"address","name":"user","type":"address"},{"indexed":false,"internalType":"uint256","name":"amount","type":"uint256"}],"name":"DepositCollateralPCOL","type":"event"},{"anonymous":false,"inputs":[{"indexed":true,"internalType":"address","name":"receiver","type":"address"},{"indexed":true,"internalType":"address","name":"asset","type":"address"},{"indexed":false,"internalType":"uint256","name":"amount","type":"uint256"},{"indexed":false,"internalType":"uint256","name":"fee","type":"uint256"}],"name":"FlashLoan","type":"event"},{"anonymous":false,"inputs":[{"indexed":true,"internalType":"address","name":"from_","type":"address"},{"indexed":false,"internalType":"uint256","name":"amount","type":"uint256"}],"name":"InjectBUSD","type":"event"},{"anonymous":false,"inputs":[{"indexed":true,"internalType":"address","name":"from_","type":"address"},{"indexed":false,"internalType":"uint256","name":"amount","type":"uint256"}],"name":"InjectCOL","type":"event"},{"anonymous":false,"inputs":[{"indexed":true,"internalType":"address","name":"liquidator","type":"address"},{"indexed":true,"internalType":"address","name":"user","type":"address"},{"indexed":false,"internalType":"uint256","name":"debtRepaid","type":"uint256"},{"indexed":false,"internalType":"uint256","name":"pcolReceived","type":"uint256"}],"name":"LiquidateBUSD","type":"event"},{"anonymous":false,"inputs":[{"indexed":true,"internalType":"address","name":"liquidator","type":"address"},{"indexed":true,"internalType":"address","name":"user","type":"address"},{"indexed":false,"internalType":"uint256","name":"debtRepaid","type":"uint256"},{"indexed":false,"internalType":"uint256","name":"pbusdReceived","type":"uint256"}],"name":"LiquidateCOL","type":"event"},{"anonymous":false,"inputs":[{"indexed":true,"internalType":"address","name":"user","type":"address"},{"indexed":false,"internalType":"uint256","name":"amount","type":"uint256"}],"name":"RepayBUSD","type":"event"},{"anonymous":false,"inputs":[{"indexed":true,"internalType":"address","name":"user","type":"address"},{"indexed":false,"internalType":"uint256","name":"amount","type":"uint256"}],"name":"RepayCOL","type":"event"},{"anonymous":false,"inputs":[{"indexed":true,"internalType":"address","name":"user","type":"address"},{"indexed":false,"internalType":"uint256","name":"amount","type":"uint256"},{"indexed":false,"internalType":"uint256","name":"pbusdBurned","type":"uint256"}],"name":"WithdrawBUSD","type":"event"},{"anonymous":false,"inputs":[{"indexed":true,"internalType":"address","name":"user","type":"address"},{"indexed":false,"internalType":"uint256","name":"amount","type":"uint256"},{"indexed":false,"internalType":"uint256","name":"pcolBurned","type":"uint256"}],"name":"WithdrawCOL","type":"event"},{"anonymous":false,"inputs":[{"indexed":true,"internalType":"address","name":"user","type":"address"},{"indexed":false,"internalType":"uint256","name":"amount","type":"uint256"}],"name":"WithdrawCollateralPBUSD","type":"event"},{"anonymous":false,"inputs":[{"indexed":true,"internalType":"address","name":"user","type":"address"},{"indexed":false,"internalType":"uint256","name":"amount","type":"uint256"}],"name":"WithdrawCollateralPCOL","type":"event"},{"inputs":[],"name":"baseRatePerBlockBUSD","outputs":[{"internalType":"uint256","name":"","type":"uint256"}],"stateMutability":"view","type":"function"},{"inputs":[],"name":"baseRatePerBlockCOL","outputs":[{"internalType":"uint256","name":"","type":"uint256"}],"stateMutability":"view","type":"function"},{"inputs":[{"internalType":"uint256","name":"amount","type":"uint256"}],"name":"borrowBUSD","outputs":[],"stateMutability":"nonpayable","type":"function"},{"inputs":[{"internalType":"uint256","name":"amount","type":"uint256"}],"name":"borrowCOL","outputs":[],"stateMutability":"nonpayable","type":"function"},{"inputs":[],"name":"borrowIndexBUSD","outputs":[{"internalType":"uint256","name":"","type":"uint256"}],"stateMutability":"view","type":"function"},{"inputs":[],"name":"borrowIndexCOL","outputs":[{"internalType":"uint256","name":"","type":"uint256"}],"stateMutability":"view","type":"function"},{"inputs":[{"internalType":"uint256","name":"amount","type":"uint256"}],"name":"depositBUSD","outputs":[],"stateMutability":"nonpayable","type":"function"},{"inputs":[{"internalType":"uint256","name":"amount","type":"uint256"}],"name":"depositCOL","outputs":[],"stateMutability":"nonpayable","type":"function"},{"inputs":[{"internalType":"uint256","name":"amount","type":"uint256"}],"name":"depositCollateralPBUSD","outputs":[],"stateMutability":"nonpayable","type":"function"},{"inputs":[{"internalType":"uint256","name":"amount","type":"uint256"}],"name":"depositCollateralPCOL","outputs":[],"stateMutability":"nonpayable","type":"function"},{"inputs":[],"name":"depositFeeBps","outputs":[{"internalType":"uint256","name":"","type":"uint256"}],"stateMutability":"view","type":"function"},{"inputs":[{"internalType":"address","name":"receiverAddress","type":"address"},{"internalType":"address","name":"asset","type":"address"},{"internalType":"uint256","name":"amount","type":"uint256"},{"internalType":"bytes","name":"params","type":"bytes"}],"name":"flashLoan","outputs":[],"stateMutability":"nonpayable","type":"function"},{"inputs":[],"name":"flashLoanFeeBps","outputs":[{"internalType":"uint256","name":"","type":"uint256"}],"stateMutability":"view","type":"function"},{"inputs":[],"name":"getBorrowAPYBUSD","outputs":[{"internalType":"uint256","name":"","type":"uint256"}],"stateMutability":"view","type":"function"},{"inputs":[],"name":"getBorrowAPYCOL","outputs":[{"internalType":"uint256","name":"","type":"uint256"}],"stateMutability":"view","type":"function"},{"inputs":[],"name":"getBorrowIndexBUSDView","outputs":[{"internalType":"uint256","name":"","type":"uint256"}],"stateMutability":"view","type":"function"},{"inputs":[],"name":"getBorrowIndexCOLView","outputs":[{"internalType":"uint256","name":"","type":"uint256"}],"stateMutability":"view","type":"function"},{"inputs":[],"name":"getBorrowRatePerBlockBUSD","outputs":[{"internalType":"uint256","name":"","type":"uint256"}],"stateMutability":"view","type":"function"},{"inputs":[],"name":"getBorrowRatePerBlockCOL","outputs":[{"internalType":"uint256","name":"","type":"uint256"}],"stateMutability":"view","type":"function"},{"inputs":[{"internalType":"address","name":"user","type":"address"}],"name":"getCurrentDebtBUSD","outputs":[{"internalType":"uint256","name":"","type":"uint256"}],"stateMutability":"view","type":"function"},{"inputs":[{"internalType":"address","name":"user","type":"address"}],"name":"getCurrentDebtCOL","outputs":[{"internalType":"uint256","name":"","type":"uint256"}],"stateMutability":"view","type":"function"},{"inputs":[{"internalType":"uint256","name":"amount","type":"uint256"}],"name":"getDepositFeeBUSD","outputs":[{"internalType":"uint256","name":"","type":"uint256"}],"stateMutability":"view","type":"function"},{"inputs":[{"internalType":"uint256","name":"amount","type":"uint256"}],"name":"getDepositFeeCOL","outputs":[{"internalType":"uint256","name":"","type":"uint256"}],"stateMutability":"view","type":"function"},{"inputs":[{"internalType":"uint256","name":"amount","type":"uint256"}],"name":"getFlashLoanFee","outputs":[{"internalType":"uint256","name":"","type":"uint256"}],"stateMutability":"view","type":"function"},{"inputs":[{"internalType":"address","name":"user","type":"address"}],"name":"getHealthFactorPBUSD","outputs":[{"internalType":"uint256","name":"","type":"uint256"}],"stateMutability":"view","type":"function"},{"inputs":[{"internalType":"address","name":"user","type":"address"}],"name":"getHealthFactorPCOL","outputs":[{"internalType":"uint256","name":"","type":"uint256"}],"stateMutability":"view","type":"function"},{"inputs":[{"internalType":"address","name":"user","type":"address"}],"name":"getMaxBorrowBUSD","outputs":[{"internalType":"uint256","name":"","type":"uint256"}],"stateMutability":"view","type":"function"},{"inputs":[{"internalType":"address","name":"user","type":"address"}],"name":"getMaxBorrowCOL","outputs":[{"internalType":"uint256","name":"","type":"uint256"}],"stateMutability":"view","type":"function"},{"inputs":[],"name":"getPriceBUSDIn8","outputs":[{"internalType":"uint256","name":"","type":"uint256"}],"stateMutability":"pure","type":"function"},{"inputs":[],"name":"getPriceCOLIn8","outputs":[{"internalType":"uint256","name":"","type":"uint256"}],"stateMutability":"view","type":"function"},{"inputs":[],"name":"getSupplyAPYBUSD","outputs":[{"internalType":"uint256","name":"","type":"uint256"}],"stateMutability":"view","type":"function"},{"inputs":[],"name":"getSupplyAPYCOL","outputs":[{"internalType":"uint256","name":"","type":"uint256"}],"stateMutability":"view","type":"function"},{"inputs":[{"internalType":"address","name":"user","type":"address"}],"name":"getUserPositionPBUSD","outputs":[{"internalType":"uint256","name":"collateralPBUSD","type":"uint256"},{"internalType":"uint256","name":"debtCOL_","type":"uint256"}],"stateMutability":"view","type":"function"},{"inputs":[{"internalType":"address","name":"user","type":"address"}],"name":"getUserPositionPCOL","outputs":[{"internalType":"uint256","name":"collateralPCOL","type":"uint256"},{"internalType":"uint256","name":"debtBUSD_","type":"uint256"}],"stateMutability":"view","type":"function"},{"inputs":[],"name":"getUtilizationBUSD","outputs":[{"internalType":"uint256","name":"","type":"uint256"}],"stateMutability":"view","type":"function"},{"inputs":[],"name":"getUtilizationCOL","outputs":[{"internalType":"uint256","name":"","type":"uint256"}],"stateMutability":"view","type":"function"},{"inputs":[],"name":"governanceToken","outputs":[{"internalType":"contract GovernanceToken","name":"","type":"address"}],"stateMutability":"view","type":"function"},{"inputs":[],"name":"impactFeeMultiplierBps","outputs":[{"internalType":"uint256","name":"","type":"uint256"}],"stateMutability":"view","type":"function"},{"inputs":[{"internalType":"uint256","name":"amount","type":"uint256"}],"name":"injectBUSD","outputs":[],"stateMutability":"nonpayable","type":"function"},{"inputs":[{"internalType":"uint256","name":"amount","type":"uint256"}],"name":"injectCOL","outputs":[],"stateMutability":"nonpayable","type":"function"},{"inputs":[{"internalType":"address","name":"user","type":"address"}],"name":"isLiquidatablePBUSD","outputs":[{"internalType":"bool","name":"","type":"bool"}],"stateMutability":"view","type":"function"},{"inputs":[{"internalType":"address","name":"user","type":"address"}],"name":"isLiquidatablePCOL","outputs":[{"internalType":"bool","name":"","type":"bool"}],"stateMutability":"view","type":"function"},{"inputs":[],"name":"lastBlockBUSD","outputs":[{"internalType":"uint256","name":"","type":"uint256"}],"stateMutability":"view","type":"function"},{"inputs":[],"name":"lastBlockCOL","outputs":[{"internalType":"uint256","name":"","type":"uint256"}],"stateMutability":"view","type":"function"},{"inputs":[{"internalType":"address","name":"user","type":"address"}],"name":"liquidateBUSD","outputs":[],"stateMutability":"nonpayable","type":"function"},{"inputs":[{"internalType":"address","name":"user","type":"address"}],"name":"liquidateCOL","outputs":[],"stateMutability":"nonpayable","type":"function"},{"inputs":[],"name":"liquidationBonus","outputs":[{"internalType":"uint256","name":"","type":"uint256"}],"stateMutability":"view","type":"function"},{"inputs":[],"name":"liquidationThresholdPBUSD","outputs":[{"internalType":"uint256","name":"","type":"uint256"}],"stateMutability":"view","type":"function"},{"inputs":[],"name":"liquidationThresholdPCOL","outputs":[{"internalType":"uint256","name":"","type":"uint256"}],"stateMutability":"view","type":"function"},{"inputs":[{"internalType":"address","name":"","type":"address"}],"name":"lockedPBUSD","outputs":[{"internalType":"uint256","name":"","type":"uint256"}],"stateMutability":"view","type":"function"},{"inputs":[{"internalType":"address","name":"","type":"address"}],"name":"lockedPCOL","outputs":[{"internalType":"uint256","name":"","type":"uint256"}],"stateMutability":"view","type":"function"},{"inputs":[],"name":"optimalUtilizationBUSD","outputs":[{"internalType":"uint256","name":"","type":"uint256"}],"stateMutability":"view","type":"function"},{"inputs":[],"name":"optimalUtilizationCOL","outputs":[{"internalType":"uint256","name":"","type":"uint256"}],"stateMutability":"view","type":"function"},{"inputs":[],"name":"pbusdToken","outputs":[{"internalType":"contract ReceiptToken","name":"","type":"address"}],"stateMutability":"view","type":"function"},{"inputs":[],"name":"pcolToken","outputs":[{"internalType":"contract ReceiptToken","name":"","type":"address"}],"stateMutability":"view","type":"function"},{"inputs":[{"internalType":"uint256","name":"amount","type":"uint256"}],"name":"repayBUSD","outputs":[],"stateMutability":"nonpayable","type":"function"},{"inputs":[{"internalType":"uint256","name":"amount","type":"uint256"}],"name":"repayCOL","outputs":[],"stateMutability":"nonpayable","type":"function"},{"inputs":[],"name":"reserveFactorBpsBUSD","outputs":[{"internalType":"uint256","name":"","type":"uint256"}],"stateMutability":"view","type":"function"},{"inputs":[],"name":"reserveFactorBpsCOL","outputs":[{"internalType":"uint256","name":"","type":"uint256"}],"stateMutability":"view","type":"function"},{"inputs":[],"name":"rewardPerBorrow","outputs":[{"internalType":"uint256","name":"","type":"uint256"}],"stateMutability":"view","type":"function"},{"inputs":[],"name":"rewardPerDeposit","outputs":[{"internalType":"uint256","name":"","type":"uint256"}],"stateMutability":"view","type":"function"},{"inputs":[{"internalType":"address","name":"","type":"address"}],"name":"scaledDebtBUSD","outputs":[{"internalType":"uint256","name":"","type":"uint256"}],"stateMutability":"view","type":"function"},{"inputs":[{"internalType":"address","name":"","type":"address"}],"name":"scaledDebtCOL","outputs":[{"internalType":"uint256","name":"","type":"uint256"}],"stateMutability":"view","type":"function"},{"inputs":[],"name":"slope1PerBlockBUSD","outputs":[{"internalType":"uint256","name":"","type":"uint256"}],"stateMutability":"view","type":"function"},{"inputs":[],"name":"slope1PerBlockCOL","outputs":[{"internalType":"uint256","name":"","type":"uint256"}],"stateMutability":"view","type":"function"},{"inputs":[],"name":"slope2PerBlockBUSD","outputs":[{"internalType":"uint256","name":"","type":"uint256"}],"stateMutability":"view","type":"function"},{"inputs":[],"name":"slope2PerBlockCOL","outputs":[{"internalType":"uint256","name":"","type":"uint256"}],"stateMutability":"view","type":"function"},{"inputs":[],"name":"tokenBUSD","outputs":[{"internalType":"address","name":"","type":"address"}],"stateMutability":"view","type":"function"},{"inputs":[],"name":"tokenCOL","outputs":[{"internalType":"address","name":"","type":"address"}],"stateMutability":"view","type":"function"},{"inputs":[],"name":"totalScaledDebtBUSD","outputs":[{"internalType":"uint256","name":"","type":"uint256"}],"stateMutability":"view","type":"function"},{"inputs":[],"name":"totalScaledDebtCOL","outputs":[{"internalType":"uint256","name":"","type":"uint256"}],"stateMutability":"view","type":"function"},{"inputs":[{"internalType":"uint256","name":"amount","type":"uint256"}],"name":"withdrawBUSD","outputs":[],"stateMutability":"nonpayable","type":"function"},{"inputs":[{"internalType":"uint256","name":"amount","type":"uint256"}],"name":"withdrawCOL","outputs":[],"stateMutability":"nonpayable","type":"function"},{"inputs":[{"internalType":"uint256","name":"amount","type":"uint256"}],"name":"withdrawCollateralPBUSD","outputs":[],"stateMutability":"nonpayable","type":"function"},{"inputs":[{"internalType":"uint256","name":"amount","type":"uint256"}],"name":"withdrawCollateralPCOL","outputs":[],"stateMutability":"nonpayable","type":"function"}],"evm":{"bytecode":{"linkReferences":{},"object":"610100604052670de0b6b3a7640000600555670de0b6b3a76400006006556402540be400600b5564174876e800600c556501d1a94a2000600d55670bcbce7f1b150000600e556402540be400600f55642e90edd0006010556502ba7def30006011556707a1fe16027700006012556103e86013556103e86014556119646015556121346016556103e8601755600960185560056019556002601a55670de0b6b3a7640000601b5567016345785d8a0000601c55348015620000bf57600080fd5b5060405162005cdf38038062005cdf833981016040819052620000e2916200035b565b60017f9b779b17422d0df92223018b32b4d1fa46e071723d6817e2486d003becc55f00556001600160a01b038316158015906200012757506001600160a01b03821615155b80156200013c57506001600160a01b03811615155b620001835760405162461bcd60e51b815260206004820152601260248201527150434f4c42555344506f6f6c3a207a65726f60701b60448201526064015b60405180910390fd5b816001600160a01b0316836001600160a01b031603620001e65760405162461bcd60e51b815260206004820152601860248201527f50434f4c42555344506f6f6c3a2073616d6520746f6b656e000000000000000060448201526064016200017a565b6001600160a01b03808416608052821660a0526040513090620002099062000330565b606080825260089082015267141bdbdb0810d3d360c21b608082015260a060208201819052600490820152631410d3d360e21b60c08201526001600160a01b03909116604082015260e001604051809103906000f08015801562000271573d6000803e3d6000fd5b506001600160a01b031660c05260405130906200028e9062000330565b606080825260099082015268141bdbdb08109554d160ba1b608082015260a0602082018190526005908201526414109554d160da1b60c08201526001600160a01b03909116604082015260e001604051809103906000f080158015620002f8573d6000803e3d6000fd5b506001600160a01b0390811660e052600080546001600160a01b031916929091169190911790555050436007819055600855620003a5565b610cad806200503283390190565b80516001600160a01b03811681146200035657600080fd5b919050565b6000806000606084860312156200037157600080fd5b6200037c846200033e565b92506200038c602085016200033e565b91506200039c604085016200033e565b90509250925092565b60805160a05160c05160e051614ae76200054b6000396000818161049b01528181611986015281816120fb01528181612172015281816127e8015281816129830152612d4a0152600081816104f501528181610a6a0152818161236d01528181612a1101528181612f790152818161357201526135e901526000818161051c01528181610bfc0152818161163d015281816117a00152818161189d015281816118dd01528181611ab401528181611b530152818161248501528181612b5e01528181612c7201528181612dc001528181612e69015281816130c70152818161352d015281816137a301528181613a3101528181613dab0152818161415c0152818161444501526145a401526000818161081001528181610981015281816109c101528181610c9201528181611106015281816111fa01528181611353015281816114b601528181611b18015281816120b601528181612295015281816123e30152818161251b01528181612ab30152818161320c01528181613839015281816139ab01528181613e4101528181613fb5015281816143bf01526145210152614ae76000f3fe608060405234801561001057600080fd5b50600436106104495760003560e01c80638617d01711610241578063cbe98e3b1161013b578063edc38cb4116100c3578063f96dae0a11610087578063f96dae0a146108f9578063f9efd0581461090c578063fd47fbf21461091f578063fdd73f4114610928578063ffdee98d1461093057600080fd5b8063edc38cb4146108af578063f205743f146108c2578063f4216de1146108ca578063f5908219146108d3578063f678e9d7146108e657600080fd5b8063e3709b461161010a578063e3709b461461086e578063e68a5c0414610877578063e9e582b91461088a578063ea4e2fd214610893578063ec81c8bb1461089c57600080fd5b8063cbe98e3b1461080b578063cc3bcaf314610832578063dceba45114610845578063e229ae9e1461086557600080fd5b8063a64bacc9116101c9578063b7be98ab1161018d578063b7be98ab146107bf578063ba08ff9b146107e7578063bf83df13146107f0578063c0656bd0146107f9578063c0c7347e1461080257600080fd5b8063a64bacc91461076e578063a74f0bfa14610781578063ab87982714610789578063ac72d9ac14610792578063adcd54a71461079c57600080fd5b80639f168ed8116102105780639f168ed814610724578063a178f59d1461072d578063a195785614610740578063a32447bc14610748578063a3e3d86e1461075b57600080fd5b80638617d017146106f65780638dd2a7cf146106ff5780638edb376c1461071257806399cea1ba1461071b57600080fd5b80633c5607a51161035257806357c9df26116102da578063737808f41161029e578063737808f4146106b65780637502237b146106bf578063752e6088146106d25780637b7c1f4c146106e557806382463417146106ee57600080fd5b806357c9df26146106765780635cffe9de1461067f57806368532c95146106925780636e2e4659146106a557806370f5407d146106ad57600080fd5b80634454a10e116103215780634454a10e146106175780634564987a1461062a5780634577848e1461063d57806346bfe1df146106505780634a1a3e9c1461066357600080fd5b80633c5607a5146105eb5780633c6ce203146105f45780633d60db5a146105fc57806343aff6451461060457600080fd5b806326bbb608116103d55780632beabef3116103a45780632beabef3146105ac5780632f5b0aba146105bf57806330e0c05e146105c8578063326770f2146105d057806338124fa4146105e357600080fd5b806326bbb6081461057157806328a88d231461057a5780632aa842b11461059a5780632b536beb146105a357600080fd5b80631c1318eb1161041c5780631c1318eb146104dd5780631f59d2b8146104f0578063213ef7f71461051757806321c616711461053e578063226f4b4e1461055e57600080fd5b806301fbcfde1461044e578063056fd0f714610481578063128078a71461049657806319b87fe8146104d5575b600080fd5b61046e61045c366004614709565b60036020526000908152604090205481565b6040519081526020015b60405180910390f35b61049461048f366004614724565b610943565b005b6104bd7f000000000000000000000000000000000000000000000000000000000000000081565b6040516001600160a01b039091168152602001610478565b61046e610b9e565b61046e6104eb366004614709565b610bbb565b6104bd7f000000000000000000000000000000000000000000000000000000000000000081565b6104bd7f000000000000000000000000000000000000000000000000000000000000000081565b61046e61054c366004614709565b60026020526000908152604090205481565b61046e61056c366004614709565b610e3c565b61046e601c5481565b61046e610588366004614709565b60016020526000908152604090205481565b61046e60125481565b61046e600e5481565b61046e6105ba366004614709565b610ed1565b61046e600b5481565b61046e610f17565b61046e6105de366004614709565b610f25565b61046e610f91565b61046e60145481565b61046e61104c565b61046e6110e4565b610494610612366004614724565b6111df565b61046e610625366004614709565b611270565b610494610638366004614724565b6112a6565b61049461064b366004614724565b61159a565b61049461065e366004614724565b611868565b610494610671366004614724565b611a99565b61046e601a5481565b61049461068d36600461473d565b611b0e565b6104946106a0366004614709565b611ed8565b61046e6121fc565b61046e60165481565b61046e600a5481565b6104946106cd366004614724565b612256565b61046e6106e0366004614709565b612444565b61046e60175481565b61046e6126b6565b61046e60135481565b61046e61070d366004614724565b6127a0565b61046e60075481565b61046e60115481565b61046e600d5481565b61049461073b366004614724565b6127b3565b61046e612866565b610494610756366004614724565b6128a2565b610494610769366004614724565b6129dc565b61046e61077c366004614724565b612a8f565b61046e612b3c565b61046e60195481565b6305f5e10061046e565b6107af6107aa366004614709565b612beb565b6040519015158152602001610478565b6107d26107cd366004614709565b612c06565b60408051928352602083019190915201610478565b61046e60065481565b61046e60055481565b61046e60095481565b61046e60185481565b6104bd7f000000000000000000000000000000000000000000000000000000000000000081565b610494610840366004614724565b612c33565b61046e610853366004614709565b60046020526000908152604090205481565b61046e60105481565b61046e60155481565b6107d2610885366004614709565b612e21565b61046e600c5481565b61046e601b5481565b61046e6108aa366004614724565b612e45565b6104946108bd366004614724565b612e98565b61046e612fd2565b61046e60085481565b6104946108e1366004614724565b612fdc565b6104946108f4366004614724565b613121565b6000546104bd906001600160a01b031681565b6107af61091a366004614709565b613266565b61046e600f5481565b61046e61327a565b61049461093e366004614709565b61334f565b61094b613653565b600081116109745760405162461bcd60e51b815260040161096b906147d8565b60405180910390fd5b6109a96001600160a01b037f00000000000000000000000000000000000000000000000000000000000000001633308461366f565b6040516370a0823160e01b81523060048201526000907f00000000000000000000000000000000000000000000000000000000000000006001600160a01b0316906370a0823190602401602060405180830381865afa158015610a10573d6000803e3d6000fd5b505050506040513d601f19601f82011682018060405250810190610a349190614804565b90506000610a4283836136ab565b90506000610a508285614833565b6040516340c10f1960e01b81529091506001600160a01b037f000000000000000000000000000000000000000000000000000000000000000016906340c10f1990610aa19033908590600401614846565b600060405180830381600087803b158015610abb57600080fd5b505af1158015610acf573d6000803e3d6000fd5b505050506000601b541115610b4557600054601b54604051634d24848760e11b81526001600160a01b0390921691639a49090e91610b1291339190600401614846565b600060405180830381600087803b158015610b2c57600080fd5b505af1158015610b40573d6000803e3d6000fd5b505050505b604080518581526020810183905233917f69cf9c0357203eb60830c3c768cc9adf5436120832d38c926997c4523adc816791015b60405180910390a2505050610b9b6001600080516020614a9283398151915255565b50565b600062201480610bac610f91565b610bb6919061485f565b905090565b6001600160a01b038116600090815260016020526040812054808203610be45750600092915050565b6040516370a0823160e01b81523060048201526000907f00000000000000000000000000000000000000000000000000000000000000006001600160a01b0316906370a0823190602401602060405180830381865afa158015610c4b573d6000803e3d6000fd5b505050506040513d601f19601f82011682018060405250810190610c6f9190614804565b6040516370a0823160e01b81523060048201529091506000906001600160a01b037f000000000000000000000000000000000000000000000000000000000000000016906370a0823190602401602060405180830381865afa158015610cd9573d6000803e3d6000fd5b505050506040513d601f19601f82011682018060405250810190610cfd9190614804565b905080600003610d1257506000949350505050565b6000610d1d86611270565b601554909150600081610d30868861485f565b610d3a919061485f565b90506000612710610d4b868661485f565b610d55919061485f565b9050808211610d6d5750600098975050505050505050565b6000610d7b6127108761485f565b610d85858a61485f565b610d8f9190614876565b610d998385614833565b610da3919061489f565b905086811115610db05750855b80600003610dc8575060009998505050505050505050565b6000815b80821015610e2d5760006002610de28385614876565b610ded906001614876565b610df7919061489f565b9050670de0b6b3a7640000610e0c8e83613761565b10610e1957809250610e27565b610e24600182614833565b91505b50610dcc565b509a9950505050505050505050565b600080610e4883610ed1565b905080600003610e5c575060001992915050565b6000610e66613985565b610e70908361485f565b90506000610e7d85613afe565b905081600003610e935750600019949350505050565b610e9f6127108361485f565b601654610eac908361485f565b610ebe90670de0b6b3a764000061485f565b610ec8919061489f565b95945050505050565b6000670de0b6b3a7640000610ee46126b6565b6001600160a01b038416600090815260046020526040902054610f07919061485f565b610f11919061489f565b92915050565b600062201480610bac61104c565b600080610f3183611270565b905080600003610f45575060001992915050565b6000610f556305f5e1008361485f565b90506000610f6285613b26565b905081600003610f785750600019949350505050565b610f846127108361485f565b601554610eac908361485f565b600080610f9c612b3c565b600e54909150808211610fde57670de0b6b3a764000082600c54610fc0919061485f565b610fca919061489f565b600b54610fd79190614876565b9250505090565b6000670de0b6b3a764000082600c54610ff7919061485f565b611001919061489f565b600b5461100e9190614876565b9050670de0b6b3a76400006110238385614833565b600d54611030919061485f565b61103a919061489f565b6110449082614876565b935050505090565b6000806110576110e4565b60125490915080821161109257670de0b6b3a76400008260105461107b919061485f565b611085919061489f565b600f54610fd79190614876565b6000670de0b6b3a7640000826010546110ab919061485f565b6110b5919061489f565b600f546110c29190614876565b9050670de0b6b3a76400006110d78385614833565b601154611030919061485f565b6040516370a0823160e01b815230600482015260009081906001600160a01b037f000000000000000000000000000000000000000000000000000000000000000016906370a0823190602401602060405180830381865afa15801561114d573d6000803e3d6000fd5b505050506040513d601f19601f820116820180604052508101906111719190614804565b90506000670de0b6b3a76400006111866126b6565b600a54611193919061485f565b61119d919061489f565b905060006111ab8284614876565b905080156111d557806111c683670de0b6b3a764000061485f565b6111d0919061489f565b611044565b6000935050505090565b6111e7613653565b8015611259576112226001600160a01b037f00000000000000000000000000000000000000000000000000000000000000001633308461366f565b60405181815233907ff5bea3313df51c464365b9b367fe48abc43cfc90f471ce003c4deca7d6c75710906020015b60405180910390a25b610b9b6001600080516020614a9283398151915255565b6000670de0b6b3a764000061128361327a565b6001600160a01b038416600090815260036020526040902054610f07919061485f565b6112ae613653565b6112b6613b61565b600081116112d65760405162461bcd60e51b815260040161096b906147d8565b3360009081526002602052604090205461133c5760405162461bcd60e51b815260206004820152602160248201527f50434f4c42555344506f6f6c3a206e6f20504255534420636f6c6c61746572616044820152601b60fa1b606482015260840161096b565b6040516370a0823160e01b815230600482015281907f00000000000000000000000000000000000000000000000000000000000000006001600160a01b0316906370a0823190602401602060405180830381865afa1580156113a2573d6000803e3d6000fd5b505050506040513d601f19601f820116820180604052508101906113c69190614804565b10156114145760405162461bcd60e51b815260206004820152601e60248201527f50434f4c42555344506f6f6c3a20696e73756666696369656e7420434f4c0000604482015260640161096b565b60065460009061142c83670de0b6b3a764000061485f565b611436919061489f565b3360009081526004602052604081208054929350839290919061145a908490614876565b9250508190555080600a60008282546114739190614876565b90915550670de0b6b3a7640000905061148b33610e3c565b10156114a95760405162461bcd60e51b815260040161096b906148b3565b6114dd6001600160a01b037f0000000000000000000000000000000000000000000000000000000000000000163384613c48565b601c541561154c57600054601c54604051634d24848760e11b81526001600160a01b0390921691639a49090e9161151991339190600401614846565b600060405180830381600087803b15801561153357600080fd5b505af1158015611547573d6000803e3d6000fd5b505050505b60405182815233907f64058ef3fd742704269a61c4d8e869ac215d70d1dfbd716d4746da00fa89a839906020015b60405180910390a250610b9b6001600080516020614a9283398151915255565b6115a2613653565b6115aa613c82565b600081116115ca5760405162461bcd60e51b815260040161096b906147d8565b336000908152600160205260409020546116265760405162461bcd60e51b815260206004820181905260248201527f50434f4c42555344506f6f6c3a206e6f2050434f4c20636f6c6c61746572616c604482015260640161096b565b6040516370a0823160e01b815230600482015281907f00000000000000000000000000000000000000000000000000000000000000006001600160a01b0316906370a0823190602401602060405180830381865afa15801561168c573d6000803e3d6000fd5b505050506040513d601f19601f820116820180604052508101906116b09190614804565b10156116fe5760405162461bcd60e51b815260206004820152601f60248201527f50434f4c42555344506f6f6c3a20696e73756666696369656e74204255534400604482015260640161096b565b60055460009061171683670de0b6b3a764000061485f565b611720919061489f565b33600090815260036020526040812080549293508392909190611744908490614876565b92505081905550806009600082825461175d9190614876565b90915550670de0b6b3a7640000905061177533610f25565b10156117935760405162461bcd60e51b815260040161096b906148b3565b6117c76001600160a01b037f0000000000000000000000000000000000000000000000000000000000000000163384613c48565b601c541561183657600054601c54604051634d24848760e11b81526001600160a01b0390921691639a49090e9161180391339190600401614846565b600060405180830381600087803b15801561181d57600080fd5b505af1158015611831573d6000803e3d6000fd5b505050505b60405182815233907ff6fc424a68d90f3f5323be41db315721f4b8843b3799ae1089007f88e21905519060200161157a565b611870613653565b600081116118905760405162461bcd60e51b815260040161096b906147d8565b6118c56001600160a01b037f00000000000000000000000000000000000000000000000000000000000000001633308461366f565b6040516370a0823160e01b81523060048201526000907f00000000000000000000000000000000000000000000000000000000000000006001600160a01b0316906370a0823190602401602060405180830381865afa15801561192c573d6000803e3d6000fd5b505050506040513d601f19601f820116820180604052508101906119509190614804565b9050600061195e83836136ab565b9050600061196c8285614833565b6040516340c10f1960e01b81529091506001600160a01b037f000000000000000000000000000000000000000000000000000000000000000016906340c10f19906119bd9033908590600401614846565b600060405180830381600087803b1580156119d757600080fd5b505af11580156119eb573d6000803e3d6000fd5b505050506000601b541115611a6157600054601b54604051634d24848760e11b81526001600160a01b0390921691639a49090e91611a2e91339190600401614846565b600060405180830381600087803b158015611a4857600080fd5b505af1158015611a5c573d6000803e3d6000fd5b505050505b604080518581526020810183905233917f8a2298614b2ccbbc8111d5698f4353b52ed97c61821ce6bb845f369a687cf4d39101610b79565b611aa1613653565b801561125957611adc6001600160a01b037f00000000000000000000000000000000000000000000000000000000000000001633308461366f565b60405181815233907f8d0bc5f167288abbd197c625a480d13be237511304ce7b9d244bd8ed6d039a9390602001611250565b611b16613653565b7f00000000000000000000000000000000000000000000000000000000000000006001600160a01b0316846001600160a01b03161480611b8757507f00000000000000000000000000000000000000000000000000000000000000006001600160a01b0316846001600160a01b0316145b611bd35760405162461bcd60e51b815260206004820152601960248201527f50434f4c42555344506f6f6c3a20756e737570706f7274656400000000000000604482015260640161096b565b600083118015611be65750601d5460ff16155b611c325760405162461bcd60e51b815260206004820152601b60248201527f50434f4c42555344506f6f6c3a20696e76616c696420666c6173680000000000604482015260640161096b565b600061271060185485611c45919061485f565b611c4f919061489f565b601d805460ff191660011790556040516370a0823160e01b81523060048201529091506000906001600160a01b038716906370a0823190602401602060405180830381865afa158015611ca6573d6000803e3d6000fd5b505050506040513d601f19601f82011682018060405250810190611cca9190614804565b9050611ce06001600160a01b0387168887613c48565b604051631b11d0ff60e01b81526001600160a01b03881690631b11d0ff90611d169089908990879033908b908b906004016148dd565b6020604051808303816000875af1158015611d35573d6000803e3d6000fd5b505050506040513d601f19601f82011682018060405250810190611d599190614939565b611da55760405162461bcd60e51b815260206004820152601a60248201527f50434f4c42555344506f6f6c3a20666c617368206661696c6564000000000000604482015260640161096b565b611daf8282614876565b6040516370a0823160e01b81523060048201526001600160a01b038816906370a0823190602401602060405180830381865afa158015611df3573d6000803e3d6000fd5b505050506040513d601f19601f82011682018060405250810190611e179190614804565b1015611e655760405162461bcd60e51b815260206004820152601860248201527f50434f4c42555344506f6f6c3a206e6f74207265706169640000000000000000604482015260640161096b565b601d805460ff1916905560408051868152602081018490526001600160a01b0388811692908a16917f0d7d75e01ab95780d3cd1c8ec0dd6c2ce19e3a20427eec8bf53283b6fb8e95f0910160405180910390a35050611ed16001600080516020614a9283398151915255565b5050505050565b611ee0613653565b611ee8613b61565b670de0b6b3a7640000611efa82610e3c565b10611f475760405162461bcd60e51b815260206004820152601e60248201527f50434f4c42555344506f6f6c3a206e6f74206c6971756964617461626c650000604482015260640161096b565b6006546001600160a01b0382166000908152600460205260408120549091670de0b6b3a764000091611f79919061485f565b611f83919061489f565b9050600081118015611fac57506001600160a01b03821660009081526002602052604090205415155b611fef5760405162461bcd60e51b815260206004820152601460248201527350434f4c42555344506f6f6c3a206e6f20706f7360601b604482015260640161096b565b60065460009061200783670de0b6b3a764000061485f565b612011919061489f565b6001600160a01b0384166000908152600460205260408120819055600a80549293508392909190612043908490614833565b90915550506001600160a01b03831660009081526002602052604081208054908290556017549091906127109061207a9082614876565b612084908461485f565b61208e919061489f565b90508181111561209b5750805b60006120a78284614833565b90506120de6001600160a01b037f00000000000000000000000000000000000000000000000000000000000000001633308861366f565b801561216557604051632770a7eb60e21b81526001600160a01b037f00000000000000000000000000000000000000000000000000000000000000001690639dc29fac906121329030908590600401614846565b600060405180830381600087803b15801561214c57600080fd5b505af1158015612160573d6000803e3d6000fd5b505050505b6121996001600160a01b037f0000000000000000000000000000000000000000000000000000000000000000163384613c48565b60408051868152602081018490526001600160a01b0388169133917fe912f4ccb4a26a55bf54b23b7e96fcac60ebc03b3e76ccdb6752b5d8abc7e8f991015b60405180910390a35050505050610b9b6001600080516020614a9283398151915255565b6000806122076110e4565b90506000612213610f17565b9050612229612710670de0b6b3a764000061485f565b60145461223890612710614833565b612242848461485f565b61224c919061485f565b610fd7919061489f565b61225e613653565b6000811161227e5760405162461bcd60e51b815260040161096b906147d8565b6040516370a0823160e01b815230600482015281907f00000000000000000000000000000000000000000000000000000000000000006001600160a01b0316906370a0823190602401602060405180830381865afa1580156122e4573d6000803e3d6000fd5b505050506040513d601f19601f820116820180604052508101906123089190614804565b10156123565760405162461bcd60e51b815260206004820152601e60248201527f50434f4c42555344506f6f6c3a20696e73756666696369656e7420434f4c0000604482015260640161096b565b604051632770a7eb60e21b81526001600160a01b037f00000000000000000000000000000000000000000000000000000000000000001690639dc29fac906123a49033908590600401614846565b600060405180830381600087803b1580156123be57600080fd5b505af11580156123d2573d6000803e3d6000fd5b5061240c9250506001600160a01b037f00000000000000000000000000000000000000000000000000000000000000001690503383613c48565b604080518281526020810183905233917fd36c28d8252079f996f11d24e2776fcdc1e0f4ceadff156993aff84cbfd37a759101611250565b6001600160a01b03811660009081526002602052604081205480820361246d5750600092915050565b6040516370a0823160e01b81523060048201526000907f00000000000000000000000000000000000000000000000000000000000000006001600160a01b0316906370a0823190602401602060405180830381865afa1580156124d4573d6000803e3d6000fd5b505050506040513d601f19601f820116820180604052508101906124f89190614804565b6040516370a0823160e01b81523060048201529091506000906001600160a01b037f000000000000000000000000000000000000000000000000000000000000000016906370a0823190602401602060405180830381865afa158015612562573d6000803e3d6000fd5b505050506040513d601f19601f820116820180604052508101906125869190614804565b90508160000361259b57506000949350505050565b60006125a686610ed1565b6016549091506000836125b9838861485f565b6125c3919061485f565b905060006127106125d4878661485f565b6125de919061485f565b90508082116125f65750600098975050505050505050565b60006126046127108861485f565b61260e858a61485f565b6126189190614876565b6126228385614833565b61262c919061489f565b9050858111156126395750845b80600003612651575060009998505050505050505050565b6000815b80821015610e2d576000600261266b8385614876565b612676906001614876565b612680919061489f565b9050670de0b6b3a76400006126958e83613d69565b106126a2578092506126b0565b6126ad600182614833565b91505b50612655565b600060085443116126c8575060065490565b6000600854436126d89190614833565b905060006126e7600654613f93565b905060006126fd82670de0b6b3a7640000614876565b9050670de0b6b3a764000083825b81156127745761271c60028361495b565b60010361274357670de0b6b3a7640000612736828561485f565b612740919061489f565b92505b670de0b6b3a7640000612756828061485f565b612760919061489f565b905061276d60028361489f565b915061270b565b670de0b6b3a76400008360065461278b919061485f565b612795919061489f565b965050505050505090565b600061271060185483610f07919061485f565b6127bb613653565b600081116127db5760405162461bcd60e51b815260040161096b906147d8565b6128106001600160a01b037f00000000000000000000000000000000000000000000000000000000000000001633308461366f565b336000908152600260205260408120805483929061282f908490614876565b909155505060405181815233907f880138561f4bdf4c4463046399b16f8186186ad3f21982105d09e65905fafb9b90602001611250565b600080612871612b3c565b9050600061287d610b9e565b9050612893612710670de0b6b3a764000061485f565b60135461223890612710614833565b6128aa613653565b6000811180156128c95750336000908152600260205260409020548111155b61290d5760405162461bcd60e51b81526020600482015260156024820152741410d3d3109554d1141bdbdb0e881a5b9d985b1a59605a1b604482015260640161096b565b336000908152600260205260408120805483929061292c908490614833565b9091555050336000908152600460205260409020541561297657670de0b6b3a764000061295833610e3c565b10156129765760405162461bcd60e51b815260040161096b906148b3565b6129aa6001600160a01b037f0000000000000000000000000000000000000000000000000000000000000000163383613c48565b60405181815233907fb1f9afa3fb91753d83c90b2584137de0980aedcb24565bb6be5a4a044394da5190602001611250565b6129e4613653565b60008111612a045760405162461bcd60e51b815260040161096b906147d8565b612a396001600160a01b037f00000000000000000000000000000000000000000000000000000000000000001633308461366f565b3360009081526001602052604081208054839290612a58908490614876565b909155505060405181815233907f92c5aa6131247b5349ebe4c0b884354154558790641067d72925ac93b11a7de590602001611250565b6040516370a0823160e01b8152306004820152600090819083906001600160a01b037f000000000000000000000000000000000000000000000000000000000000000016906370a08231906024015b602060405180830381865afa158015612afb573d6000803e3d6000fd5b505050506040513d601f19601f82011682018060405250810190612b1f9190614804565b612b299190614876565b9050612b3583826136ab565b9392505050565b6040516370a0823160e01b815230600482015260009081906001600160a01b037f000000000000000000000000000000000000000000000000000000000000000016906370a0823190602401602060405180830381865afa158015612ba5573d6000803e3d6000fd5b505050506040513d601f19601f82011682018060405250810190612bc99190614804565b90506000670de0b6b3a7640000612bde61327a565b600954611193919061485f565b6000670de0b6b3a7640000612bff83610f25565b1092915050565b6001600160a01b0381166000908152600260205260408120548190612c2a84610ed1565b91509150915091565b612c3b613653565b60008111612c5b5760405162461bcd60e51b815260040161096b906147d8565b6040516370a0823160e01b815230600482015281907f00000000000000000000000000000000000000000000000000000000000000006001600160a01b0316906370a0823190602401602060405180830381865afa158015612cc1573d6000803e3d6000fd5b505050506040513d601f19601f82011682018060405250810190612ce59190614804565b1015612d335760405162461bcd60e51b815260206004820152601f60248201527f50434f4c42555344506f6f6c3a20696e73756666696369656e74204255534400604482015260640161096b565b604051632770a7eb60e21b81526001600160a01b037f00000000000000000000000000000000000000000000000000000000000000001690639dc29fac90612d819033908590600401614846565b600060405180830381600087803b158015612d9b57600080fd5b505af1158015612daf573d6000803e3d6000fd5b50612de99250506001600160a01b037f00000000000000000000000000000000000000000000000000000000000000001690503383613c48565b604080518281526020810183905233917f8041f45367f7ccefd38c06ae22c296ca3ad95cf10be3c54c81c11f849f105f2b9101611250565b6001600160a01b0381166000908152600160205260408120548190612c2a84611270565b6040516370a0823160e01b8152306004820152600090819083906001600160a01b037f000000000000000000000000000000000000000000000000000000000000000016906370a0823190602401612ade565b612ea0613653565b600081118015612ebf5750336000908152600160205260409020548111155b612f035760405162461bcd60e51b81526020600482015260156024820152741410d3d3109554d1141bdbdb0e881a5b9d985b1a59605a1b604482015260640161096b565b3360009081526001602052604081208054839290612f22908490614833565b90915550503360009081526003602052604090205415612f6c57670de0b6b3a7640000612f4e33610f25565b1015612f6c5760405162461bcd60e51b815260040161096b906148b3565b612fa06001600160a01b037f0000000000000000000000000000000000000000000000000000000000000000163383613c48565b60405181815233907f5f2ac0b7ca7309144e88ededc8fa236c0a7019bdc8c02ab6f6db5095752e7cdc90602001611250565b6000610bb6613985565b612fe4613653565b612fec613c82565b6000811161300c5760405162461bcd60e51b815260040161096b906147d8565b600554336000908152600360205260408120549091670de0b6b3a764000091613035919061485f565b61303f919061489f565b905060008183116130505782613052565b815b9050600060055482670de0b6b3a764000061306d919061485f565b613077919061489f565b3360009081526003602052604081208054929350839290919061309b908490614833565b9250508190555080600960008282546130b49190614833565b909155506130ef90506001600160a01b037f00000000000000000000000000000000000000000000000000000000000000001633308561366f565b60405182815233907fe2d5d60502594d615dd5827340647c7a7a88a014e9896fdef12f6458b60c043290602001610b79565b613129613653565b613131613b61565b600081116131515760405162461bcd60e51b815260040161096b906147d8565b600654336000908152600460205260408120549091670de0b6b3a76400009161317a919061485f565b613184919061489f565b905060008183116131955782613197565b815b9050600060065482670de0b6b3a76400006131b2919061485f565b6131bc919061489f565b336000908152600460205260408120805492935083929091906131e0908490614833565b9250508190555080600a60008282546131f99190614833565b9091555061323490506001600160a01b037f00000000000000000000000000000000000000000000000000000000000000001633308561366f565b60405182815233907fd79a2bc9877030756cd908acbb64634d527091be3edeed80cdea7ed4cf40be0590602001610b79565b6000670de0b6b3a7640000612bff83610e3c565b6000600754431161328c575060055490565b60006007544361329c9190614833565b905060006132ab60055461413a565b905060006132c182670de0b6b3a7640000614876565b9050670de0b6b3a764000083825b8115613338576132e060028361495b565b60010361330757670de0b6b3a76400006132fa828561485f565b613304919061489f565b92505b670de0b6b3a764000061331a828061485f565b613324919061489f565b905061333160028361489f565b91506132cf565b670de0b6b3a76400008360055461278b919061485f565b613357613653565b61335f613c82565b670de0b6b3a764000061337182610f25565b106133be5760405162461bcd60e51b815260206004820152601e60248201527f50434f4c42555344506f6f6c3a206e6f74206c6971756964617461626c650000604482015260640161096b565b6005546001600160a01b0382166000908152600360205260408120549091670de0b6b3a7640000916133f0919061485f565b6133fa919061489f565b905060008111801561342357506001600160a01b03821660009081526001602052604090205415155b6134665760405162461bcd60e51b815260206004820152601460248201527350434f4c42555344506f6f6c3a206e6f20706f7360601b604482015260640161096b565b60055460009061347e83670de0b6b3a764000061485f565b613488919061489f565b6001600160a01b03841660009081526003602052604081208190556009805492935083929091906134ba908490614833565b90915550506001600160a01b0383166000908152600160205260408120805490829055601754909190612710906134f19082614876565b6134fb908461485f565b613505919061489f565b9050818111156135125750805b600061351e8284614833565b90506135556001600160a01b037f00000000000000000000000000000000000000000000000000000000000000001633308861366f565b80156135dc57604051632770a7eb60e21b81526001600160a01b037f00000000000000000000000000000000000000000000000000000000000000001690639dc29fac906135a99030908590600401614846565b600060405180830381600087803b1580156135c357600080fd5b505af11580156135d7573d6000803e3d6000fd5b505050505b6136106001600160a01b037f0000000000000000000000000000000000000000000000000000000000000000163384613c48565b60408051868152602081018490526001600160a01b0388169133917f1df8781babb2ce0b72d80a0d4eb75715b3f84d14598b945effa23c678f239a5391016121d8565b61365b6142b6565b6002600080516020614a9283398151915255565b61367d8484848460016142e8565b6136a557604051635274afe760e01b81526001600160a01b038516600482015260240161096b565b50505050565b6000806136b88484614833565b9050806000036136e557612710601954856136d3919061485f565b6136dd919061489f565b915050610f11565b826000816136fb87670de0b6b3a764000061485f565b613705919061489f565b905060006137128261435a565b9050613728612710670de0b6b3a764000061485f565b601a54613735838a61485f565b61373f919061485f565b613749919061489f565b945086851115613757578694505b5050505092915050565b6001600160a01b03821660009081526001602052604081205480820361378b576000915050610f11565b6040516370a0823160e01b81523060048201526000907f00000000000000000000000000000000000000000000000000000000000000006001600160a01b0316906370a0823190602401602060405180830381865afa1580156137f2573d6000803e3d6000fd5b505050506040513d601f19601f820116820180604052508101906138169190614804565b6040516370a0823160e01b81523060048201529091506000906001600160a01b037f000000000000000000000000000000000000000000000000000000000000000016906370a0823190602401602060405180830381865afa158015613880573d6000803e3d6000fd5b505050506040513d601f19601f820116820180604052508101906138a49190614804565b90508015806138b257508185115b156138c35760009350505050610f11565b6000856138cf88611270565b6138d99190614876565b9050806000036138f157600019945050505050610f11565b60006138fd8785614833565b9050600061390b82856143a9565b613915908761485f565b905060006139276305f5e1008561485f565b90508060000361394257600019975050505050505050610f11565b61394e6127108261485f565b60155461395b908461485f565b61396d90670de0b6b3a764000061485f565b613977919061489f565b9a9950505050505050505050565b60008060006139926144ff565b91509150816000036139a75760009250505090565b60007f00000000000000000000000000000000000000000000000000000000000000006001600160a01b031663313ce5676040518163ffffffff1660e01b8152600401602060405180830381865afa158015613a07573d6000803e3d6000fd5b505050506040513d601f19601f82011682018060405250810190613a2b919061496f565b905060007f00000000000000000000000000000000000000000000000000000000000000006001600160a01b031663313ce5676040518163ffffffff1660e01b8152600401602060405180830381865afa158015613a8d573d6000803e3d6000fd5b505050506040513d601f19601f82011682018060405250810190613ab1919061496f565b9050613abe81600a614a76565b613ac8908561485f565b613ad660ff84166008614876565b613ae190600a614a85565b613aeb908561485f565b613af5919061489f565b94505050505090565b6001600160a01b038116600090815260026020526040812054610f11906305f5e1009061485f565b6001600160a01b038116600090815260016020526040812054808203613b4f5750600092915050565b613b57613985565b612b35908261485f565b6008544311613b6c57565b600060085443613b7c9190614833565b90506000613b8b600654613f93565b90506000613ba182670de0b6b3a7640000614876565b9050670de0b6b3a764000083825b8115613c1857613bc060028361495b565b600103613be757670de0b6b3a7640000613bda828561485f565b613be4919061489f565b92505b670de0b6b3a7640000613bfa828061485f565b613c04919061489f565b9050613c1160028361489f565b9150613baf565b670de0b6b3a764000083600654613c2f919061485f565b613c39919061489f565b60065550504360085550505050565b613c55838383600161461d565b613c7d57604051635274afe760e01b81526001600160a01b038416600482015260240161096b565b505050565b6007544311613c8d57565b600060075443613c9d9190614833565b90506000613cac60055461413a565b90506000613cc282670de0b6b3a7640000614876565b9050670de0b6b3a764000083825b8115613d3957613ce160028361495b565b600103613d0857670de0b6b3a7640000613cfb828561485f565b613d05919061489f565b92505b670de0b6b3a7640000613d1b828061485f565b613d25919061489f565b9050613d3260028361489f565b9150613cd0565b670de0b6b3a764000083600554613d50919061485f565b613d5a919061489f565b60055550504360075550505050565b6001600160a01b038216600090815260026020526040812054808203613d93576000915050610f11565b6040516370a0823160e01b81523060048201526000907f00000000000000000000000000000000000000000000000000000000000000006001600160a01b0316906370a0823190602401602060405180830381865afa158015613dfa573d6000803e3d6000fd5b505050506040513d601f19601f82011682018060405250810190613e1e9190614804565b6040516370a0823160e01b81523060048201529091506000906001600160a01b037f000000000000000000000000000000000000000000000000000000000000000016906370a0823190602401602060405180830381865afa158015613e88573d6000803e3d6000fd5b505050506040513d601f19601f82011682018060405250810190613eac9190614804565b9050811580613eba57508085115b15613ecb5760009350505050610f11565b600085613ed788610ed1565b613ee19190614876565b905080600003613ef957600019945050505050610f11565b6000613f058784614833565b90506000613f1385836143a9565b90506000613f256305f5e1008861485f565b90506000613f33838661485f565b905080600003613f4f5760001998505050505050505050610f11565b613f5b6127108261485f565b601654613f68908461485f565b613f7a90670de0b6b3a764000061485f565b613f84919061489f565b9b9a5050505050505050505050565b6040516370a0823160e01b815230600482015260009081906001600160a01b037f000000000000000000000000000000000000000000000000000000000000000016906370a0823190602401602060405180830381865afa158015613ffc573d6000803e3d6000fd5b505050506040513d601f19601f820116820180604052508101906140209190614804565b90506000670de0b6b3a764000084600a5461403b919061485f565b614045919061489f565b905060006140538284614876565b90506000811561407f578161407084670de0b6b3a764000061485f565b61407a919061489f565b614082565b60005b6012549091508082116140c857670de0b6b3a7640000826010546140a6919061485f565b6140b0919061489f565b600f546140bd9190614876565b979650505050505050565b6000670de0b6b3a7640000826010546140e1919061485f565b6140eb919061489f565b600f546140f89190614876565b9050670de0b6b3a764000061410d8385614833565b60115461411a919061485f565b614124919061489f565b61412e9082614876565b98975050505050505050565b6040516370a0823160e01b815230600482015260009081906001600160a01b037f000000000000000000000000000000000000000000000000000000000000000016906370a0823190602401602060405180830381865afa1580156141a3573d6000803e3d6000fd5b505050506040513d601f19601f820116820180604052508101906141c79190614804565b90506000670de0b6b3a7640000846009546141e2919061485f565b6141ec919061489f565b905060006141fa8284614876565b905060008115614226578161421784670de0b6b3a764000061485f565b614221919061489f565b614229565b60005b600e5490915080821161426457670de0b6b3a764000082600c5461424d919061485f565b614257919061489f565b600b546140bd9190614876565b6000670de0b6b3a764000082600c5461427d919061485f565b614287919061489f565b600b546142949190614876565b9050670de0b6b3a76400006142a98385614833565b600d5461411a919061485f565b600080516020614a92833981519152546002036142e657604051633ee5aeb560e01b815260040160405180910390fd5b565b6040516323b872dd60e01b60008181526001600160a01b038781166004528616602452604485905291602083606481808c5af19250600160005114831661434857838315161561433b573d6000823e3d81fd5b6000883b113d1516831692505b60405250600060605295945050505050565b60008160000361436c57506000919050565b600061437783614683565b9050600061439161438c83633b9aca0061485f565b614683565b90506143a181633b9aca0061485f565b949350505050565b6000816000036143bb57506000610f11565b60007f00000000000000000000000000000000000000000000000000000000000000006001600160a01b031663313ce5676040518163ffffffff1660e01b8152600401602060405180830381865afa15801561441b573d6000803e3d6000fd5b505050506040513d601f19601f8201168201806040525081019061443f919061496f565b905060007f00000000000000000000000000000000000000000000000000000000000000006001600160a01b031663313ce5676040518163ffffffff1660e01b8152600401602060405180830381865afa1580156144a1573d6000803e3d6000fd5b505050506040513d601f19601f820116820180604052508101906144c5919061496f565b90506144d281600a614a76565b6144dc908561485f565b6144ea60ff84166008614876565b6144f590600a614a85565b610ebe908761485f565b6040516370a0823160e01b815230600482015260009081906001600160a01b037f000000000000000000000000000000000000000000000000000000000000000016906370a0823190602401602060405180830381865afa158015614568573d6000803e3d6000fd5b505050506040513d601f19601f8201168201806040525081019061458c9190614804565b6040516370a0823160e01b81523060048201529092507f00000000000000000000000000000000000000000000000000000000000000006001600160a01b0316906370a0823190602401602060405180830381865afa1580156145f3573d6000803e3d6000fd5b505050506040513d601f19601f820116820180604052508101906146179190614804565b90509091565b60405163a9059cbb60e01b60008181526001600160a01b038616600452602485905291602083604481808b5af19250600160005114831661467757838315161561466a573d6000823e3d81fd5b6000873b113d1516831692505b60405250949350505050565b60008160000361469557506000919050565b600060026146a4846001614876565b6146ae919061489f565b90508291505b818110156146e7579050806002816146cc818661489f565b6146d69190614876565b6146e0919061489f565b90506146b4565b50919050565b80356001600160a01b038116811461470457600080fd5b919050565b60006020828403121561471b57600080fd5b612b35826146ed565b60006020828403121561473657600080fd5b5035919050565b60008060008060006080868803121561475557600080fd5b61475e866146ed565b945061476c602087016146ed565b935060408601359250606086013567ffffffffffffffff8082111561479057600080fd5b818801915088601f8301126147a457600080fd5b8135818111156147b357600080fd5b8960208285010111156147c557600080fd5b9699959850939650602001949392505050565b60208082526012908201527150434f4c42555344506f6f6c3a207a65726f60701b604082015260600190565b60006020828403121561481657600080fd5b5051919050565b634e487b7160e01b600052601160045260246000fd5b81810381811115610f1157610f1161481d565b6001600160a01b03929092168252602082015260400190565b8082028115828204841417610f1157610f1161481d565b80820180821115610f1157610f1161481d565b634e487b7160e01b600052601260045260246000fd5b6000826148ae576148ae614889565b500490565b60208082526010908201526f2821a7a6212aa9a22837b7b61d10242360811b604082015260600190565b6001600160a01b03878116825260208201879052604082018690528416606082015260a06080820181905281018290526000828460c0840137600060c0848401015260c0601f19601f8501168301019050979650505050505050565b60006020828403121561494b57600080fd5b81518015158114612b3557600080fd5b60008261496a5761496a614889565b500690565b60006020828403121561498157600080fd5b815160ff81168114612b3557600080fd5b600181815b808511156149cd5781600019048211156149b3576149b361481d565b808516156149c057918102915b93841c9390800290614997565b509250929050565b6000826149e457506001610f11565b816149f157506000610f11565b8160018114614a075760028114614a1157614a2d565b6001915050610f11565b60ff841115614a2257614a2261481d565b50506001821b610f11565b5060208310610133831016604e8410600b8410161715614a50575081810a610f11565b614a5a8383614992565b8060001904821115614a6e57614a6e61481d565b029392505050565b6000612b3560ff8416836149d5565b6000612b3583836149d556fe9b779b17422d0df92223018b32b4d1fa46e071723d6817e2486d003becc55f00a264697066735822122086985a3c0eadbb48e83e988a5b972be2c818bc20e1078ccf21d93bf5545bd79664736f6c6343000814003360a06040523480156200001157600080fd5b5060405162000cad38038062000cad83398101604081905262000034916200018b565b82826003620000448382620002a7565b506004620000538282620002a7565b5050506001600160a01b038116620000b15760405162461bcd60e51b815260206004820152601760248201527f52656365697074546f6b656e3a207a65726f20706f6f6c000000000000000000604482015260640160405180910390fd5b6001600160a01b031660805250620003739050565b634e487b7160e01b600052604160045260246000fd5b600082601f830112620000ee57600080fd5b81516001600160401b03808211156200010b576200010b620000c6565b604051601f8301601f19908116603f01168101908282118183101715620001365762000136620000c6565b816040528381526020925086838588010111156200015357600080fd5b600091505b8382101562000177578582018301518183018401529082019062000158565b600093810190920192909252949350505050565b600080600060608486031215620001a157600080fd5b83516001600160401b0380821115620001b957600080fd5b620001c787838801620000dc565b94506020860151915080821115620001de57600080fd5b50620001ed86828701620000dc565b604086015190935090506001600160a01b03811681146200020d57600080fd5b809150509250925092565b600181811c908216806200022d57607f821691505b6020821081036200024e57634e487b7160e01b600052602260045260246000fd5b50919050565b601f821115620002a257600081815260208120601f850160051c810160208610156200027d5750805b601f850160051c820191505b818110156200029e5782815560010162000289565b5050505b505050565b81516001600160401b03811115620002c357620002c3620000c6565b620002db81620002d4845462000218565b8462000254565b602080601f831160018114620003135760008415620002fa5750858301515b600019600386901b1c1916600185901b1785556200029e565b600085815260208120601f198616915b82811015620003445788860151825594840194600190910190840162000323565b5085821015620003635787850151600019600388901b60f8161c191681555b5050505050600190811b01905550565b6080516109116200039c6000396000818160ff015281816102ed015261038101526109116000f3fe608060405234801561001057600080fd5b50600436106100b45760003560e01c806340c10f191161007157806340c10f191461016d57806370a082311461018257806395d89b41146101ab5780639dc29fac146101b3578063a9059cbb146101c6578063dd62ed3e146101d957600080fd5b806306fdde03146100b9578063095ea7b3146100d757806316f0115b146100fa57806318160ddd1461013957806323b872dd1461014b578063313ce5671461015e575b600080fd5b6100c1610212565b6040516100ce919061075b565b60405180910390f35b6100ea6100e53660046107c5565b6102a4565b60405190151581526020016100ce565b6101217f000000000000000000000000000000000000000000000000000000000000000081565b6040516001600160a01b0390911681526020016100ce565b6002545b6040519081526020016100ce565b6100ea6101593660046107ef565b6102be565b604051601281526020016100ce565b61018061017b3660046107c5565b6102e2565b005b61013d61019036600461082b565b6001600160a01b031660009081526020819052604090205490565b6100c1610367565b6101806101c13660046107c5565b610376565b6100ea6101d43660046107c5565b6103f2565b61013d6101e736600461084d565b6001600160a01b03918216600090815260016020908152604080832093909416825291909152205490565b60606003805461022190610880565b80601f016020809104026020016040519081016040528092919081815260200182805461024d90610880565b801561029a5780601f1061026f5761010080835404028352916020019161029a565b820191906000526020600020905b81548152906001019060200180831161027d57829003601f168201915b5050505050905090565b6000336102b2818585610400565b60019150505b92915050565b6000336102cc858285610412565b6102d7858585610491565b506001949350505050565b336001600160a01b037f000000000000000000000000000000000000000000000000000000000000000016146103595760405162461bcd60e51b8152602060048201526017602482015276149958d95a5c1d151bdad95b8e881bdb9b1e481c1bdbdb604a1b60448201526064015b60405180910390fd5b61036382826104f0565b5050565b60606004805461022190610880565b336001600160a01b037f000000000000000000000000000000000000000000000000000000000000000016146103e85760405162461bcd60e51b8152602060048201526017602482015276149958d95a5c1d151bdad95b8e881bdb9b1e481c1bdbdb604a1b6044820152606401610350565b6103638282610526565b6000336102b2818585610491565b61040d838383600161055c565b505050565b6001600160a01b0383811660009081526001602090815260408083209386168352929052205460001981101561048b578181101561047c57604051637dc7a0d960e11b81526001600160a01b03841660048201526024810182905260448101839052606401610350565b61048b8484848403600061055c565b50505050565b6001600160a01b0383166104bb57604051634b637e8f60e11b815260006004820152602401610350565b6001600160a01b0382166104e55760405163ec442f0560e01b815260006004820152602401610350565b61040d838383610631565b6001600160a01b03821661051a5760405163ec442f0560e01b815260006004820152602401610350565b61036360008383610631565b6001600160a01b03821661055057604051634b637e8f60e11b815260006004820152602401610350565b61036382600083610631565b6001600160a01b0384166105865760405163e602df0560e01b815260006004820152602401610350565b6001600160a01b0383166105b057604051634a1406b160e11b815260006004820152602401610350565b6001600160a01b038085166000908152600160209081526040808320938716835292905220829055801561048b57826001600160a01b0316846001600160a01b03167f8c5be1e5ebec7d5bd14f71427d1e84f3dd0314c0f7b2291e5b200ac8c7c3b9258460405161062391815260200190565b60405180910390a350505050565b6001600160a01b03831661065c57806002600082825461065191906108ba565b909155506106ce9050565b6001600160a01b038316600090815260208190526040902054818110156106af5760405163391434e360e21b81526001600160a01b03851660048201526024810182905260448101839052606401610350565b6001600160a01b03841660009081526020819052604090209082900390555b6001600160a01b0382166106ea57600280548290039055610709565b6001600160a01b03821660009081526020819052604090208054820190555b816001600160a01b0316836001600160a01b03167fddf252ad1be2c89b69c2b068fc378daa952ba7f163c4a11628f55a4df523b3ef8360405161074e91815260200190565b60405180910390a3505050565b600060208083528351808285015260005b818110156107885785810183015185820160400152820161076c565b506000604082860101526040601f19601f8301168501019250505092915050565b80356001600160a01b03811681146107c057600080fd5b919050565b600080604083850312156107d857600080fd5b6107e1836107a9565b946020939093013593505050565b60008060006060848603121561080457600080fd5b61080d846107a9565b925061081b602085016107a9565b9150604084013590509250925092565b60006020828403121561083d57600080fd5b610846826107a9565b9392505050565b6000806040838503121561086057600080fd5b610869836107a9565b9150610877602084016107a9565b90509250929050565b600181811c9082168061089457607f821691505b6020821081036108b457634e487b7160e01b600052602260045260246000fd5b50919050565b808201808211156102b857634e487b7160e01b600052601160045260246000fdfea2646970667358221220bd936c1763fcc336c7d1c45f774d88ab7033a66070011519dbd3906d16d2ccb164736f6c63430008140033","opcodes":"PUSH2 0x100 PUSH1 0x40 MSTORE PUSH8 0xDE0B6B3A7640000 PUSH1 0x5 SSTORE PUSH8 0xDE0B6B3A7640000 PUSH1 0x6 SSTORE PUSH5 0x2540BE400 PUSH1 0xB SSTORE PUSH5 0x174876E800 PUSH1 0xC SSTORE PUSH6 0x1D1A94A2000 PUSH1 0xD SSTORE PUSH8 0xBCBCE7F1B150000 PUSH1 0xE SSTORE PUSH5 0x2540BE400 PUSH1 0xF SSTORE PUSH5 0x2E90EDD000 PUSH1 0x10 SSTORE PUSH6 0x2BA7DEF3000 PUSH1 0x11 SSTORE PUSH8 0x7A1FE1602770000 PUSH1 0x12 SSTORE PUSH2 0x3E8 PUSH1 0x13 SSTORE PUSH2 0x3E8 PUSH1 0x14 SSTORE PUSH2 0x1964 PUSH1 0x15 SSTORE PUSH2 0x2134 PUSH1 0x16 SSTORE PUSH2 0x3E8 PUSH1 0x17 SSTORE PUSH1 0x9 PUSH1 0x18 SSTORE PUSH1 0x5 PUSH1 0x19 SSTORE PUSH1 0x2 PUSH1 0x1A SSTORE PUSH8 0xDE0B6B3A7640000 PUSH1 0x1B SSTORE PUSH8 0x16345785D8A0000 PUSH1 0x1C SSTORE CALLVALUE DUP1 ISZERO PUSH3 0xBF JUMPI PUSH1 0x0 DUP1 REVERT JUMPDEST POP PUSH1 0x40 MLOAD PUSH3 0x5CDF CODESIZE SUB DUP1 PUSH3 0x5CDF DUP4 CODECOPY DUP2 ADD PUSH1 0x40 DUP2 SWAP1 MSTORE PUSH3 0xE2 SWAP2 PUSH3 0x35B JUMP JUMPDEST PUSH1 0x1 PUSH32 0x9B779B17422D0DF92223018B32B4D1FA46E071723D6817E2486D003BECC55F00 SSTORE PUSH1 0x1 PUSH1 0x1 PUSH1 0xA0 SHL SUB DUP4 AND ISZERO DUP1 ISZERO SWAP1 PUSH3 0x127 JUMPI POP PUSH1 0x1 PUSH1 0x1 PUSH1 0xA0 SHL SUB DUP3 AND ISZERO ISZERO JUMPDEST DUP1 ISZERO PUSH3 0x13C JUMPI POP PUSH1 0x1 PUSH1 0x1 PUSH1 0xA0 SHL SUB DUP2 AND ISZERO ISZERO JUMPDEST PUSH3 0x183 JUMPI PUSH1 0x40 MLOAD PUSH3 0x461BCD PUSH1 0xE5 SHL DUP2 MSTORE PUSH1 0x20 PUSH1 0x4 DUP3 ADD MSTORE PUSH1 0x12 PUSH1 0x24 DUP3 ADD MSTORE PUSH18 0x50434F4C42555344506F6F6C3A207A65726F PUSH1 0x70 SHL PUSH1 0x44 DUP3 ADD MSTORE PUSH1 0x64 ADD JUMPDEST PUSH1 0x40 MLOAD DUP1 SWAP2 SUB SWAP1 REVERT JUMPDEST DUP2 PUSH1 0x1 PUSH1 0x1 PUSH1 0xA0 SHL SUB AND DUP4 PUSH1 0x1 PUSH1 0x1 PUSH1 0xA0 SHL SUB AND SUB PUSH3 0x1E6 JUMPI PUSH1 0x40 MLOAD PUSH3 0x461BCD PUSH1 0xE5 SHL DUP2 MSTORE PUSH1 0x20 PUSH1 0x4 DUP3 ADD MSTORE PUSH1 0x18 PUSH1 0x24 DUP3 ADD MSTORE PUSH32 0x50434F4C42555344506F6F6C3A2073616D6520746F6B656E0000000000000000 PUSH1 0x44 DUP3 ADD MSTORE PUSH1 0x64 ADD PUSH3 0x17A JUMP JUMPDEST PUSH1 0x1 PUSH1 0x1 PUSH1 0xA0 SHL SUB DUP1 DUP5 AND PUSH1 0x80 MSTORE DUP3 AND PUSH1 0xA0 MSTORE PUSH1 0x40 MLOAD ADDRESS SWAP1 PUSH3 0x209 SWAP1 PUSH3 0x330 JUMP JUMPDEST PUSH1 0x60 DUP1 DUP3 MSTORE PUSH1 0x8 SWAP1 DUP3 ADD MSTORE PUSH8 0x141BDBDB0810D3D3 PUSH1 0xC2 SHL PUSH1 0x80 DUP3 ADD MSTORE PUSH1 0xA0 PUSH1 0x20 DUP3 ADD DUP2 SWAP1 MSTORE PUSH1 0x4 SWAP1 DUP3 ADD MSTORE PUSH4 0x1410D3D3 PUSH1 0xE2 SHL PUSH1 0xC0 DUP3 ADD MSTORE PUSH1 0x1 PUSH1 0x1 PUSH1 0xA0 SHL SUB SWAP1 SWAP2 AND PUSH1 0x40 DUP3 ADD MSTORE PUSH1 0xE0 ADD PUSH1 0x40 MLOAD DUP1 SWAP2 SUB SWAP1 PUSH1 0x0 CREATE DUP1 ISZERO DUP1 ISZERO PUSH3 0x271 JUMPI RETURNDATASIZE PUSH1 0x0 DUP1 RETURNDATACOPY RETURNDATASIZE PUSH1 0x0 REVERT JUMPDEST POP PUSH1 0x1 PUSH1 0x1 PUSH1 0xA0 SHL SUB AND PUSH1 0xC0 MSTORE PUSH1 0x40 MLOAD ADDRESS SWAP1 PUSH3 0x28E SWAP1 PUSH3 0x330 JUMP JUMPDEST PUSH1 0x60 DUP1 DUP3 MSTORE PUSH1 0x9 SWAP1 DUP3 ADD MSTORE PUSH9 0x141BDBDB08109554D1 PUSH1 0xBA SHL PUSH1 0x80 DUP3 ADD MSTORE PUSH1 0xA0 PUSH1 0x20 DUP3 ADD DUP2 SWAP1 MSTORE PUSH1 0x5 SWAP1 DUP3 ADD MSTORE PUSH5 0x14109554D1 PUSH1 0xDA SHL PUSH1 0xC0 DUP3 ADD MSTORE PUSH1 0x1 PUSH1 0x1 PUSH1 0xA0 SHL SUB SWAP1 SWAP2 AND PUSH1 0x40 DUP3 ADD MSTORE PUSH1 0xE0 ADD PUSH1 0x40 MLOAD DUP1 SWAP2 SUB SWAP1 PUSH1 0x0 CREATE DUP1 ISZERO DUP1 ISZERO PUSH3 0x2F8 JUMPI RETURNDATASIZE PUSH1 0x0 DUP1 RETURNDATACOPY RETURNDATASIZE PUSH1 0x0 REVERT JUMPDEST POP PUSH1 0x1 PUSH1 0x1 PUSH1 0xA0 SHL SUB SWAP1 DUP2 AND PUSH1 0xE0 MSTORE PUSH1 0x0 DUP1 SLOAD PUSH1 0x1 PUSH1 0x1 PUSH1 0xA0 SHL SUB NOT AND SWAP3 SWAP1 SWAP2 AND SWAP2 SWAP1 SWAP2 OR SWAP1 SSTORE POP POP NUMBER PUSH1 0x7 DUP2 SWAP1 SSTORE PUSH1 0x8 SSTORE PUSH3 0x3A5 JUMP JUMPDEST PUSH2 0xCAD DUP1 PUSH3 0x5032 DUP4 CODECOPY ADD SWAP1 JUMP JUMPDEST DUP1 MLOAD PUSH1 0x1 PUSH1 0x1 PUSH1 0xA0 SHL SUB DUP2 AND DUP2 EQ PUSH3 0x356 JUMPI PUSH1 0x0 DUP1 REVERT JUMPDEST SWAP2 SWAP1 POP JUMP JUMPDEST PUSH1 0x0 DUP1 PUSH1 0x0 PUSH1 0x60 DUP5 DUP7 SUB SLT ISZERO PUSH3 0x371 JUMPI PUSH1 0x0 DUP1 REVERT JUMPDEST PUSH3 0x37C DUP5 PUSH3 0x33E JUMP JUMPDEST SWAP3 POP PUSH3 0x38C PUSH1 0x20 DUP6 ADD PUSH3 0x33E JUMP JUMPDEST SWAP2 POP PUSH3 0x39C PUSH1 0x40 DUP6 ADD PUSH3 0x33E JUMP JUMPDEST SWAP1 POP SWAP3 POP SWAP3 POP SWAP3 JUMP JUMPDEST PUSH1 0x80 MLOAD PUSH1 0xA0 MLOAD PUSH1 0xC0 MLOAD PUSH1 0xE0 MLOAD PUSH2 0x4AE7 PUSH3 0x54B PUSH1 0x0 CODECOPY PUSH1 0x0 DUP2 DUP2 PUSH2 0x49B ADD MSTORE DUP2 DUP2 PUSH2 0x1986 ADD MSTORE DUP2 DUP2 PUSH2 0x20FB ADD MSTORE DUP2 DUP2 PUSH2 0x2172 ADD MSTORE DUP2 DUP2 PUSH2 0x27E8 ADD MSTORE DUP2 DUP2 PUSH2 0x2983 ADD MSTORE PUSH2 0x2D4A ADD MSTORE PUSH1 0x0 DUP2 DUP2 PUSH2 0x4F5 ADD MSTORE DUP2 DUP2 PUSH2 0xA6A ADD MSTORE DUP2 DUP2 PUSH2 0x236D ADD MSTORE DUP2 DUP2 PUSH2 0x2A11 ADD MSTORE DUP2 DUP2 PUSH2 0x2F79 ADD MSTORE DUP2 DUP2 PUSH2 0x3572 ADD MSTORE PUSH2 0x35E9 ADD MSTORE PUSH1 0x0 DUP2 DUP2 PUSH2 0x51C ADD MSTORE DUP2 DUP2 PUSH2 0xBFC ADD MSTORE DUP2 DUP2 PUSH2 0x163D ADD MSTORE DUP2 DUP2 PUSH2 0x17A0 ADD MSTORE DUP2 DUP2 PUSH2 0x189D ADD MSTORE DUP2 DUP2 PUSH2 0x18DD ADD MSTORE DUP2 DUP2 PUSH2 0x1AB4 ADD MSTORE DUP2 DUP2 PUSH2 0x1B53 ADD MSTORE DUP2 DUP2 PUSH2 0x2485 ADD MSTORE DUP2 DUP2 PUSH2 0x2B5E ADD MSTORE DUP2 DUP2 PUSH2 0x2C72 ADD MSTORE DUP2 DUP2 PUSH2 0x2DC0 ADD MSTORE DUP2 DUP2 PUSH2 0x2E69 ADD MSTORE DUP2 DUP2 PUSH2 0x30C7 ADD MSTORE DUP2 DUP2 PUSH2 0x352D ADD MSTORE DUP2 DUP2 PUSH2 0x37A3 ADD MSTORE DUP2 DUP2 PUSH2 0x3A31 ADD MSTORE DUP2 DUP2 PUSH2 0x3DAB ADD MSTORE DUP2 DUP2 PUSH2 0x415C ADD MSTORE DUP2 DUP2 PUSH2 0x4445 ADD MSTORE PUSH2 0x45A4 ADD MSTORE PUSH1 0x0 DUP2 DUP2 PUSH2 0x810 ADD MSTORE DUP2 DUP2 PUSH2 0x981 ADD MSTORE DUP2 DUP2 PUSH2 0x9C1 ADD MSTORE DUP2 DUP2 PUSH2 0xC92 ADD MSTORE DUP2 DUP2 PUSH2 0x1106 ADD MSTORE DUP2 DUP2 PUSH2 0x11FA ADD MSTORE DUP2 DUP2 PUSH2 0x1353 ADD MSTORE DUP2 DUP2 PUSH2 0x14B6 ADD MSTORE DUP2 DUP2 PUSH2 0x1B18 ADD MSTORE DUP2 DUP2 PUSH2 0x20B6 ADD MSTORE DUP2 DUP2 PUSH2 0x2295 ADD MSTORE DUP2 DUP2 PUSH2 0x23E3 ADD MSTORE DUP2 DUP2 PUSH2 0x251B ADD MSTORE DUP2 DUP2 PUSH2 0x2AB3 ADD MSTORE DUP2 DUP2 PUSH2 0x320C ADD MSTORE DUP2 DUP2 PUSH2 0x3839 ADD MSTORE DUP2 DUP2 PUSH2 0x39AB ADD MSTORE DUP2 DUP2 PUSH2 0x3E41 ADD MSTORE DUP2 DUP2 PUSH2 0x3FB5 ADD MSTORE DUP2 DUP2 PUSH2 0x43BF ADD MSTORE PUSH2 0x4521 ADD MSTORE PUSH2 0x4AE7 PUSH1 0x0 RETURN INVALID PUSH1 0x80 PUSH1 0x40 MSTORE CALLVALUE DUP1 ISZERO PUSH2 0x10 JUMPI PUSH1 0x0 DUP1 REVERT JUMPDEST POP PUSH1 0x4 CALLDATASIZE LT PUSH2 0x449 JUMPI PUSH1 0x0 CALLDATALOAD PUSH1 0xE0 SHR DUP1 PUSH4 0x8617D017 GT PUSH2 0x241 JUMPI DUP1 PUSH4 0xCBE98E3B GT PUSH2 0x13B JUMPI DUP1 PUSH4 0xEDC38CB4 GT PUSH2 0xC3 JUMPI DUP1 PUSH4 0xF96DAE0A GT PUSH2 0x87 JUMPI DUP1 PUSH4 0xF96DAE0A EQ PUSH2 0x8F9 JUMPI DUP1 PUSH4 0xF9EFD058 EQ PUSH2 0x90C JUMPI DUP1 PUSH4 0xFD47FBF2 EQ PUSH2 0x91F JUMPI DUP1 PUSH4 0xFDD73F41 EQ PUSH2 0x928 JUMPI DUP1 PUSH4 0xFFDEE98D EQ PUSH2 0x930 JUMPI PUSH1 0x0 DUP1 REVERT JUMPDEST DUP1 PUSH4 0xEDC38CB4 EQ PUSH2 0x8AF JUMPI DUP1 PUSH4 0xF205743F EQ PUSH2 0x8C2 JUMPI DUP1 PUSH4 0xF4216DE1 EQ PUSH2 0x8CA JUMPI DUP1 PUSH4 0xF5908219 EQ PUSH2 0x8D3 JUMPI DUP1 PUSH4 0xF678E9D7 EQ PUSH2 0x8E6 JUMPI PUSH1 0x0 DUP1 REVERT JUMPDEST DUP1 PUSH4 0xE3709B46 GT PUSH2 0x10A JUMPI DUP1 PUSH4 0xE3709B46 EQ PUSH2 0x86E JUMPI DUP1 PUSH4 0xE68A5C04 EQ PUSH2 0x877 JUMPI DUP1 PUSH4 0xE9E582B9 EQ PUSH2 0x88A JUMPI DUP1 PUSH4 0xEA4E2FD2 EQ PUSH2 0x893 JUMPI DUP1 PUSH4 0xEC81C8BB EQ PUSH2 0x89C JUMPI PUSH1 0x0 DUP1 REVERT JUMPDEST DUP1 PUSH4 0xCBE98E3B EQ PUSH2 0x80B JUMPI DUP1 PUSH4 0xCC3BCAF3 EQ PUSH2 0x832 JUMPI DUP1 PUSH4 0xDCEBA451 EQ PUSH2 0x845 JUMPI DUP1 PUSH4 0xE229AE9E EQ PUSH2 0x865 JUMPI PUSH1 0x0 DUP1 REVERT JUMPDEST DUP1 PUSH4 0xA64BACC9 GT PUSH2 0x1C9 JUMPI DUP1 PUSH4 0xB7BE98AB GT PUSH2 0x18D JUMPI DUP1 PUSH4 0xB7BE98AB EQ PUSH2 0x7BF JUMPI DUP1 PUSH4 0xBA08FF9B EQ PUSH2 0x7E7 JUMPI DUP1 PUSH4 0xBF83DF13 EQ PUSH2 0x7F0 JUMPI DUP1 PUSH4 0xC0656BD0 EQ PUSH2 0x7F9 JUMPI DUP1 PUSH4 0xC0C7347E EQ PUSH2 0x802 JUMPI PUSH1 0x0 DUP1 REVERT JUMPDEST DUP1 PUSH4 0xA64BACC9 EQ PUSH2 0x76E JUMPI DUP1 PUSH4 0xA74F0BFA EQ PUSH2 0x781 JUMPI DUP1 PUSH4 0xAB879827 EQ PUSH2 0x789 JUMPI DUP1 PUSH4 0xAC72D9AC EQ PUSH2 0x792 JUMPI DUP1 PUSH4 0xADCD54A7 EQ PUSH2 0x79C JUMPI PUSH1 0x0 DUP1 REVERT JUMPDEST DUP1 PUSH4 0x9F168ED8 GT PUSH2 0x210 JUMPI DUP1 PUSH4 0x9F168ED8 EQ PUSH2 0x724 JUMPI DUP1 PUSH4 0xA178F59D EQ PUSH2 0x72D JUMPI DUP1 PUSH4 0xA1957856 EQ PUSH2 0x740 JUMPI DUP1 PUSH4 0xA32447BC EQ PUSH2 0x748 JUMPI DUP1 PUSH4 0xA3E3D86E EQ PUSH2 0x75B JUMPI PUSH1 0x0 DUP1 REVERT JUMPDEST DUP1 PUSH4 0x8617D017 EQ PUSH2 0x6F6 JUMPI DUP1 PUSH4 0x8DD2A7CF EQ PUSH2 0x6FF JUMPI DUP1 PUSH4 0x8EDB376C EQ PUSH2 0x712 JUMPI DUP1 PUSH4 0x99CEA1BA EQ PUSH2 0x71B JUMPI PUSH1 0x0 DUP1 REVERT JUMPDEST DUP1 PUSH4 0x3C5607A5 GT PUSH2 0x352 JUMPI DUP1 PUSH4 0x57C9DF26 GT PUSH2 0x2DA JUMPI DUP1 PUSH4 0x737808F4 GT PUSH2 0x29E JUMPI DUP1 PUSH4 0x737808F4 EQ PUSH2 0x6B6 JUMPI DUP1 PUSH4 0x7502237B EQ PUSH2 0x6BF JUMPI DUP1 PUSH4 0x752E6088 EQ PUSH2 0x6D2 JUMPI DUP1 PUSH4 0x7B7C1F4C EQ PUSH2 0x6E5 JUMPI DUP1 PUSH4 0x82463417 EQ PUSH2 0x6EE JUMPI PUSH1 0x0 DUP1 REVERT JUMPDEST DUP1 PUSH4 0x57C9DF26 EQ PUSH2 0x676 JUMPI DUP1 PUSH4 0x5CFFE9DE EQ PUSH2 0x67F JUMPI DUP1 PUSH4 0x68532C95 EQ PUSH2 0x692 JUMPI DUP1 PUSH4 0x6E2E4659 EQ PUSH2 0x6A5 JUMPI DUP1 PUSH4 0x70F5407D EQ PUSH2 0x6AD JUMPI PUSH1 0x0 DUP1 REVERT JUMPDEST DUP1 PUSH4 0x4454A10E GT PUSH2 0x321 JUMPI DUP1 PUSH4 0x4454A10E EQ PUSH2 0x617 JUMPI DUP1 PUSH4 0x4564987A EQ PUSH2 0x62A JUMPI DUP1 PUSH4 0x4577848E EQ PUSH2 0x63D JUMPI DUP1 PUSH4 0x46BFE1DF EQ PUSH2 0x650 JUMPI DUP1 PUSH4 0x4A1A3E9C EQ PUSH2 0x663 JUMPI PUSH1 0x0 DUP1 REVERT JUMPDEST DUP1 PUSH4 0x3C5607A5 EQ PUSH2 0x5EB JUMPI DUP1 PUSH4 0x3C6CE203 EQ PUSH2 0x5F4 JUMPI DUP1 PUSH4 0x3D60DB5A EQ PUSH2 0x5FC JUMPI DUP1 PUSH4 0x43AFF645 EQ PUSH2 0x604 JUMPI PUSH1 0x0 DUP1 REVERT JUMPDEST DUP1 PUSH4 0x26BBB608 GT PUSH2 0x3D5 JUMPI DUP1 PUSH4 0x2BEABEF3 GT PUSH2 0x3A4 JUMPI DUP1 PUSH4 0x2BEABEF3 EQ PUSH2 0x5AC JUMPI DUP1 PUSH4 0x2F5B0ABA EQ PUSH2 0x5BF JUMPI DUP1 PUSH4 0x30E0C05E EQ PUSH2 0x5C8 JUMPI DUP1 PUSH4 0x326770F2 EQ PUSH2 0x5D0 JUMPI DUP1 PUSH4 0x38124FA4 EQ PUSH2 0x5E3 JUMPI PUSH1 0x0 DUP1 REVERT JUMPDEST DUP1 PUSH4 0x26BBB608 EQ PUSH2 0x571 JUMPI DUP1 PUSH4 0x28A88D23 EQ PUSH2 0x57A JUMPI DUP1 PUSH4 0x2AA842B1 EQ PUSH2 0x59A JUMPI DUP1 PUSH4 0x2B536BEB EQ PUSH2 0x5A3 JUMPI PUSH1 0x0 DUP1 REVERT JUMPDEST DUP1 PUSH4 0x1C1318EB GT PUSH2 0x41C JUMPI DUP1 PUSH4 0x1C1318EB EQ PUSH2 0x4DD JUMPI DUP1 PUSH4 0x1F59D2B8 EQ PUSH2 0x4F0 JUMPI DUP1 PUSH4 0x213EF7F7 EQ PUSH2 0x517 JUMPI DUP1 PUSH4 0x21C61671 EQ PUSH2 0x53E JUMPI DUP1 PUSH4 0x226F4B4E EQ PUSH2 0x55E JUMPI PUSH1 0x0 DUP1 REVERT JUMPDEST DUP1 PUSH4 0x1FBCFDE EQ PUSH2 0x44E JUMPI DUP1 PUSH4 0x56FD0F7 EQ PUSH2 0x481 JUMPI DUP1 PUSH4 0x128078A7 EQ PUSH2 0x496 JUMPI DUP1 PUSH4 0x19B87FE8 EQ PUSH2 0x4D5 JUMPI JUMPDEST PUSH1 0x0 DUP1 REVERT JUMPDEST PUSH2 0x46E PUSH2 0x45C CALLDATASIZE PUSH1 0x4 PUSH2 0x4709 JUMP JUMPDEST PUSH1 0x3 PUSH1 0x20 MSTORE PUSH1 0x0 SWAP1 DUP2 MSTORE PUSH1 0x40 SWAP1 KECCAK256 SLOAD DUP2 JUMP JUMPDEST PUSH1 0x40 MLOAD SWAP1 DUP2 MSTORE PUSH1 0x20 ADD JUMPDEST PUSH1 0x40 MLOAD DUP1 SWAP2 SUB SWAP1 RETURN JUMPDEST PUSH2 0x494 PUSH2 0x48F CALLDATASIZE PUSH1 0x4 PUSH2 0x4724 JUMP JUMPDEST PUSH2 0x943 JUMP JUMPDEST STOP JUMPDEST PUSH2 0x4BD PUSH32 0x0 DUP2 JUMP JUMPDEST PUSH1 0x40 MLOAD PUSH1 0x1 PUSH1 0x1 PUSH1 0xA0 SHL SUB SWAP1 SWAP2 AND DUP2 MSTORE PUSH1 0x20 ADD PUSH2 0x478 JUMP JUMPDEST PUSH2 0x46E PUSH2 0xB9E JUMP JUMPDEST PUSH2 0x46E PUSH2 0x4EB CALLDATASIZE PUSH1 0x4 PUSH2 0x4709 JUMP JUMPDEST PUSH2 0xBBB JUMP JUMPDEST PUSH2 0x4BD PUSH32 0x0 DUP2 JUMP JUMPDEST PUSH2 0x4BD PUSH32 0x0 DUP2 JUMP JUMPDEST PUSH2 0x46E PUSH2 0x54C CALLDATASIZE PUSH1 0x4 PUSH2 0x4709 JUMP JUMPDEST PUSH1 0x2 PUSH1 0x20 MSTORE PUSH1 0x0 SWAP1 DUP2 MSTORE PUSH1 0x40 SWAP1 KECCAK256 SLOAD DUP2 JUMP JUMPDEST PUSH2 0x46E PUSH2 0x56C CALLDATASIZE PUSH1 0x4 PUSH2 0x4709 JUMP JUMPDEST PUSH2 0xE3C JUMP JUMPDEST PUSH2 0x46E PUSH1 0x1C SLOAD DUP2 JUMP JUMPDEST PUSH2 0x46E PUSH2 0x588 CALLDATASIZE PUSH1 0x4 PUSH2 0x4709 JUMP JUMPDEST PUSH1 0x1 PUSH1 0x20 MSTORE PUSH1 0x0 SWAP1 DUP2 MSTORE PUSH1 0x40 SWAP1 KECCAK256 SLOAD DUP2 JUMP JUMPDEST PUSH2 0x46E PUSH1 0x12 SLOAD DUP2 JUMP JUMPDEST PUSH2 0x46E PUSH1 0xE SLOAD DUP2 JUMP JUMPDEST PUSH2 0x46E PUSH2 0x5BA CALLDATASIZE PUSH1 0x4 PUSH2 0x4709 JUMP JUMPDEST PUSH2 0xED1 JUMP JUMPDEST PUSH2 0x46E PUSH1 0xB SLOAD DUP2 JUMP JUMPDEST PUSH2 0x46E PUSH2 0xF17 JUMP JUMPDEST PUSH2 0x46E PUSH2 0x5DE CALLDATASIZE PUSH1 0x4 PUSH2 0x4709 JUMP JUMPDEST PUSH2 0xF25 JUMP JUMPDEST PUSH2 0x46E PUSH2 0xF91 JUMP JUMPDEST PUSH2 0x46E PUSH1 0x14 SLOAD DUP2 JUMP JUMPDEST PUSH2 0x46E PUSH2 0x104C JUMP JUMPDEST PUSH2 0x46E PUSH2 0x10E4 JUMP JUMPDEST PUSH2 0x494 PUSH2 0x612 CALLDATASIZE PUSH1 0x4 PUSH2 0x4724 JUMP JUMPDEST PUSH2 0x11DF JUMP JUMPDEST PUSH2 0x46E PUSH2 0x625 CALLDATASIZE PUSH1 0x4 PUSH2 0x4709 JUMP JUMPDEST PUSH2 0x1270 JUMP JUMPDEST PUSH2 0x494 PUSH2 0x638 CALLDATASIZE PUSH1 0x4 PUSH2 0x4724 JUMP JUMPDEST PUSH2 0x12A6 JUMP JUMPDEST PUSH2 0x494 PUSH2 0x64B CALLDATASIZE PUSH1 0x4 PUSH2 0x4724 JUMP JUMPDEST PUSH2 0x159A JUMP JUMPDEST PUSH2 0x494 PUSH2 0x65E CALLDATASIZE PUSH1 0x4 PUSH2 0x4724 JUMP JUMPDEST PUSH2 0x1868 JUMP JUMPDEST PUSH2 0x494 PUSH2 0x671 CALLDATASIZE PUSH1 0x4 PUSH2 0x4724 JUMP JUMPDEST PUSH2 0x1A99 JUMP JUMPDEST PUSH2 0x46E PUSH1 0x1A SLOAD DUP2 JUMP JUMPDEST PUSH2 0x494 PUSH2 0x68D CALLDATASIZE PUSH1 0x4 PUSH2 0x473D JUMP JUMPDEST PUSH2 0x1B0E JUMP JUMPDEST PUSH2 0x494 PUSH2 0x6A0 CALLDATASIZE PUSH1 0x4 PUSH2 0x4709 JUMP JUMPDEST PUSH2 0x1ED8 JUMP JUMPDEST PUSH2 0x46E PUSH2 0x21FC JUMP JUMPDEST PUSH2 0x46E PUSH1 0x16 SLOAD DUP2 JUMP JUMPDEST PUSH2 0x46E PUSH1 0xA SLOAD DUP2 JUMP JUMPDEST PUSH2 0x494 PUSH2 0x6CD CALLDATASIZE PUSH1 0x4 PUSH2 0x4724 JUMP JUMPDEST PUSH2 0x2256 JUMP JUMPDEST PUSH2 0x46E PUSH2 0x6E0 CALLDATASIZE PUSH1 0x4 PUSH2 0x4709 JUMP JUMPDEST PUSH2 0x2444 JUMP JUMPDEST PUSH2 0x46E PUSH1 0x17 SLOAD DUP2 JUMP JUMPDEST PUSH2 0x46E PUSH2 0x26B6 JUMP JUMPDEST PUSH2 0x46E PUSH1 0x13 SLOAD DUP2 JUMP JUMPDEST PUSH2 0x46E PUSH2 0x70D CALLDATASIZE PUSH1 0x4 PUSH2 0x4724 JUMP JUMPDEST PUSH2 0x27A0 JUMP JUMPDEST PUSH2 0x46E PUSH1 0x7 SLOAD DUP2 JUMP JUMPDEST PUSH2 0x46E PUSH1 0x11 SLOAD DUP2 JUMP JUMPDEST PUSH2 0x46E PUSH1 0xD SLOAD DUP2 JUMP JUMPDEST PUSH2 0x494 PUSH2 0x73B CALLDATASIZE PUSH1 0x4 PUSH2 0x4724 JUMP JUMPDEST PUSH2 0x27B3 JUMP JUMPDEST PUSH2 0x46E PUSH2 0x2866 JUMP JUMPDEST PUSH2 0x494 PUSH2 0x756 CALLDATASIZE PUSH1 0x4 PUSH2 0x4724 JUMP JUMPDEST PUSH2 0x28A2 JUMP JUMPDEST PUSH2 0x494 PUSH2 0x769 CALLDATASIZE PUSH1 0x4 PUSH2 0x4724 JUMP JUMPDEST PUSH2 0x29DC JUMP JUMPDEST PUSH2 0x46E PUSH2 0x77C CALLDATASIZE PUSH1 0x4 PUSH2 0x4724 JUMP JUMPDEST PUSH2 0x2A8F JUMP JUMPDEST PUSH2 0x46E PUSH2 0x2B3C JUMP JUMPDEST PUSH2 0x46E PUSH1 0x19 SLOAD DUP2 JUMP JUMPDEST PUSH4 0x5F5E100 PUSH2 0x46E JUMP JUMPDEST PUSH2 0x7AF PUSH2 0x7AA CALLDATASIZE PUSH1 0x4 PUSH2 0x4709 JUMP JUMPDEST PUSH2 0x2BEB JUMP JUMPDEST PUSH1 0x40 MLOAD SWAP1 ISZERO ISZERO DUP2 MSTORE PUSH1 0x20 ADD PUSH2 0x478 JUMP JUMPDEST PUSH2 0x7D2 PUSH2 0x7CD CALLDATASIZE PUSH1 0x4 PUSH2 0x4709 JUMP JUMPDEST PUSH2 0x2C06 JUMP JUMPDEST PUSH1 0x40 DUP1 MLOAD SWAP3 DUP4 MSTORE PUSH1 0x20 DUP4 ADD SWAP2 SWAP1 SWAP2 MSTORE ADD PUSH2 0x478 JUMP JUMPDEST PUSH2 0x46E PUSH1 0x6 SLOAD DUP2 JUMP JUMPDEST PUSH2 0x46E PUSH1 0x5 SLOAD DUP2 JUMP JUMPDEST PUSH2 0x46E PUSH1 0x9 SLOAD DUP2 JUMP JUMPDEST PUSH2 0x46E PUSH1 0x18 SLOAD DUP2 JUMP JUMPDEST PUSH2 0x4BD PUSH32 0x0 DUP2 JUMP JUMPDEST PUSH2 0x494 PUSH2 0x840 CALLDATASIZE PUSH1 0x4 PUSH2 0x4724 JUMP JUMPDEST PUSH2 0x2C33 JUMP JUMPDEST PUSH2 0x46E PUSH2 0x853 CALLDATASIZE PUSH1 0x4 PUSH2 0x4709 JUMP JUMPDEST PUSH1 0x4 PUSH1 0x20 MSTORE PUSH1 0x0 SWAP1 DUP2 MSTORE PUSH1 0x40 SWAP1 KECCAK256 SLOAD DUP2 JUMP JUMPDEST PUSH2 0x46E PUSH1 0x10 SLOAD DUP2 JUMP JUMPDEST PUSH2 0x46E PUSH1 0x15 SLOAD DUP2 JUMP JUMPDEST PUSH2 0x7D2 PUSH2 0x885 CALLDATASIZE PUSH1 0x4 PUSH2 0x4709 JUMP JUMPDEST PUSH2 0x2E21 JUMP JUMPDEST PUSH2 0x46E PUSH1 0xC SLOAD DUP2 JUMP JUMPDEST PUSH2 0x46E PUSH1 0x1B SLOAD DUP2 JUMP JUMPDEST PUSH2 0x46E PUSH2 0x8AA CALLDATASIZE PUSH1 0x4 PUSH2 0x4724 JUMP JUMPDEST PUSH2 0x2E45 JUMP JUMPDEST PUSH2 0x494 PUSH2 0x8BD CALLDATASIZE PUSH1 0x4 PUSH2 0x4724 JUMP JUMPDEST PUSH2 0x2E98 JUMP JUMPDEST PUSH2 0x46E PUSH2 0x2FD2 JUMP JUMPDEST PUSH2 0x46E PUSH1 0x8 SLOAD DUP2 JUMP JUMPDEST PUSH2 0x494 PUSH2 0x8E1 CALLDATASIZE PUSH1 0x4 PUSH2 0x4724 JUMP JUMPDEST PUSH2 0x2FDC JUMP JUMPDEST PUSH2 0x494 PUSH2 0x8F4 CALLDATASIZE PUSH1 0x4 PUSH2 0x4724 JUMP JUMPDEST PUSH2 0x3121 JUMP JUMPDEST PUSH1 0x0 SLOAD PUSH2 0x4BD SWAP1 PUSH1 0x1 PUSH1 0x1 PUSH1 0xA0 SHL SUB AND DUP2 JUMP JUMPDEST PUSH2 0x7AF PUSH2 0x91A CALLDATASIZE PUSH1 0x4 PUSH2 0x4709 JUMP JUMPDEST PUSH2 0x3266 JUMP JUMPDEST PUSH2 0x46E PUSH1 0xF SLOAD DUP2 JUMP JUMPDEST PUSH2 0x46E PUSH2 0x327A JUMP JUMPDEST PUSH2 0x494 PUSH2 0x93E CALLDATASIZE PUSH1 0x4 PUSH2 0x4709 JUMP JUMPDEST PUSH2 0x334F JUMP JUMPDEST PUSH2 0x94B PUSH2 0x3653 JUMP JUMPDEST PUSH1 0x0 DUP2 GT PUSH2 0x974 JUMPI PUSH1 0x40 MLOAD PUSH3 0x461BCD PUSH1 0xE5 SHL DUP2 MSTORE PUSH1 0x4 ADD PUSH2 0x96B SWAP1 PUSH2 0x47D8 JUMP JUMPDEST PUSH1 0x40 MLOAD DUP1 SWAP2 SUB SWAP1 REVERT JUMPDEST PUSH2 0x9A9 PUSH1 0x1 PUSH1 0x1 PUSH1 0xA0 SHL SUB PUSH32 0x0 AND CALLER ADDRESS DUP5 PUSH2 0x366F JUMP JUMPDEST PUSH1 0x40 MLOAD PUSH4 0x70A08231 PUSH1 0xE0 SHL DUP2 MSTORE ADDRESS PUSH1 0x4 DUP3 ADD MSTORE PUSH1 0x0 SWAP1 PUSH32 0x0 PUSH1 0x1 PUSH1 0x1 PUSH1 0xA0 SHL SUB AND SWAP1 PUSH4 0x70A08231 SWAP1 PUSH1 0x24 ADD PUSH1 0x20 PUSH1 0x40 MLOAD DUP1 DUP4 SUB DUP2 DUP7 GAS STATICCALL ISZERO DUP1 ISZERO PUSH2 0xA10 JUMPI RETURNDATASIZE PUSH1 0x0 DUP1 RETURNDATACOPY RETURNDATASIZE PUSH1 0x0 REVERT JUMPDEST POP POP POP POP PUSH1 0x40 MLOAD RETURNDATASIZE PUSH1 0x1F NOT PUSH1 0x1F DUP3 ADD AND DUP3 ADD DUP1 PUSH1 0x40 MSTORE POP DUP2 ADD SWAP1 PUSH2 0xA34 SWAP2 SWAP1 PUSH2 0x4804 JUMP JUMPDEST SWAP1 POP PUSH1 0x0 PUSH2 0xA42 DUP4 DUP4 PUSH2 0x36AB JUMP JUMPDEST SWAP1 POP PUSH1 0x0 PUSH2 0xA50 DUP3 DUP6 PUSH2 0x4833 JUMP JUMPDEST PUSH1 0x40 MLOAD PUSH4 0x40C10F19 PUSH1 0xE0 SHL DUP2 MSTORE SWAP1 SWAP2 POP PUSH1 0x1 PUSH1 0x1 PUSH1 0xA0 SHL SUB PUSH32 0x0 AND SWAP1 PUSH4 0x40C10F19 SWAP1 PUSH2 0xAA1 SWAP1 CALLER SWAP1 DUP6 SWAP1 PUSH1 0x4 ADD PUSH2 0x4846 JUMP JUMPDEST PUSH1 0x0 PUSH1 0x40 MLOAD DUP1 DUP4 SUB DUP2 PUSH1 0x0 DUP8 DUP1 EXTCODESIZE ISZERO DUP1 ISZERO PUSH2 0xABB JUMPI PUSH1 0x0 DUP1 REVERT JUMPDEST POP GAS CALL ISZERO DUP1 ISZERO PUSH2 0xACF JUMPI RETURNDATASIZE PUSH1 0x0 DUP1 RETURNDATACOPY RETURNDATASIZE PUSH1 0x0 REVERT JUMPDEST POP POP POP POP PUSH1 0x0 PUSH1 0x1B SLOAD GT ISZERO PUSH2 0xB45 JUMPI PUSH1 0x0 SLOAD PUSH1 0x1B SLOAD PUSH1 0x40 MLOAD PUSH4 0x4D248487 PUSH1 0xE1 SHL DUP2 MSTORE PUSH1 0x1 PUSH1 0x1 PUSH1 0xA0 SHL SUB SWAP1 SWAP3 AND SWAP2 PUSH4 0x9A49090E SWAP2 PUSH2 0xB12 SWAP2 CALLER SWAP2 SWAP1 PUSH1 0x4 ADD PUSH2 0x4846 JUMP JUMPDEST PUSH1 0x0 PUSH1 0x40 MLOAD DUP1 DUP4 SUB DUP2 PUSH1 0x0 DUP8 DUP1 EXTCODESIZE ISZERO DUP1 ISZERO PUSH2 0xB2C JUMPI PUSH1 0x0 DUP1 REVERT JUMPDEST POP GAS CALL ISZERO DUP1 ISZERO PUSH2 0xB40 JUMPI RETURNDATASIZE PUSH1 0x0 DUP1 RETURNDATACOPY RETURNDATASIZE PUSH1 0x0 REVERT JUMPDEST POP POP POP POP JUMPDEST PUSH1 0x40 DUP1 MLOAD DUP6 DUP2 MSTORE PUSH1 0x20 DUP2 ADD DUP4 SWAP1 MSTORE CALLER SWAP2 PUSH32 0x69CF9C0357203EB60830C3C768CC9ADF5436120832D38C926997C4523ADC8167 SWAP2 ADD JUMPDEST PUSH1 0x40 MLOAD DUP1 SWAP2 SUB SWAP1 LOG2 POP POP POP PUSH2 0xB9B PUSH1 0x1 PUSH1 0x0 DUP1 MLOAD PUSH1 0x20 PUSH2 0x4A92 DUP4 CODECOPY DUP2 MLOAD SWAP2 MSTORE SSTORE JUMP JUMPDEST POP JUMP JUMPDEST PUSH1 0x0 PUSH3 0x201480 PUSH2 0xBAC PUSH2 0xF91 JUMP JUMPDEST PUSH2 0xBB6 SWAP2 SWAP1 PUSH2 0x485F JUMP JUMPDEST SWAP1 POP SWAP1 JUMP JUMPDEST PUSH1 0x1 PUSH1 0x1 PUSH1 0xA0 SHL SUB DUP2 AND PUSH1 0x0 SWAP1 DUP2 MSTORE PUSH1 0x1 PUSH1 0x20 MSTORE PUSH1 0x40 DUP2 KECCAK256 SLOAD DUP1 DUP3 SUB PUSH2 0xBE4 JUMPI POP PUSH1 0x0 SWAP3 SWAP2 POP POP JUMP JUMPDEST PUSH1 0x40 MLOAD PUSH4 0x70A08231 PUSH1 0xE0 SHL DUP2 MSTORE ADDRESS PUSH1 0x4 DUP3 ADD MSTORE PUSH1 0x0 SWAP1 PUSH32 0x0 PUSH1 0x1 PUSH1 0x1 PUSH1 0xA0 SHL SUB AND SWAP1 PUSH4 0x70A08231 SWAP1 PUSH1 0x24 ADD PUSH1 0x20 PUSH1 0x40 MLOAD DUP1 DUP4 SUB DUP2 DUP7 GAS STATICCALL ISZERO DUP1 ISZERO PUSH2 0xC4B JUMPI RETURNDATASIZE PUSH1 0x0 DUP1 RETURNDATACOPY RETURNDATASIZE PUSH1 0x0 REVERT JUMPDEST POP POP POP POP PUSH1 0x40 MLOAD RETURNDATASIZE PUSH1 0x1F NOT PUSH1 0x1F DUP3 ADD AND DUP3 ADD DUP1 PUSH1 0x40 MSTORE POP DUP2 ADD SWAP1 PUSH2 0xC6F SWAP2 SWAP1 PUSH2 0x4804 JUMP JUMPDEST PUSH1 0x40 MLOAD PUSH4 0x70A08231 PUSH1 0xE0 SHL DUP2 MSTORE ADDRESS PUSH1 0x4 DUP3 ADD MSTORE SWAP1 SWAP2 POP PUSH1 0x0 SWAP1 PUSH1 0x1 PUSH1 0x1 PUSH1 0xA0 SHL SUB PUSH32 0x0 AND SWAP1 PUSH4 0x70A08231 SWAP1 PUSH1 0x24 ADD PUSH1 0x20 PUSH1 0x40 MLOAD DUP1 DUP4 SUB DUP2 DUP7 GAS STATICCALL ISZERO DUP1 ISZERO PUSH2 0xCD9 JUMPI RETURNDATASIZE PUSH1 0x0 DUP1 RETURNDATACOPY RETURNDATASIZE PUSH1 0x0 REVERT JUMPDEST POP POP POP POP PUSH1 0x40 MLOAD RETURNDATASIZE PUSH1 0x1F NOT PUSH1 0x1F DUP3 ADD AND DUP3 ADD DUP1 PUSH1 0x40 MSTORE POP DUP2 ADD SWAP1 PUSH2 0xCFD SWAP2 SWAP1 PUSH2 0x4804 JUMP JUMPDEST SWAP1 POP DUP1 PUSH1 0x0 SUB PUSH2 0xD12 JUMPI POP PUSH1 0x0 SWAP5 SWAP4 POP POP POP POP JUMP JUMPDEST PUSH1 0x0 PUSH2 0xD1D DUP7 PUSH2 0x1270 JUMP JUMPDEST PUSH1 0x15 SLOAD SWAP1 SWAP2 POP PUSH1 0x0 DUP2 PUSH2 0xD30 DUP7 DUP9 PUSH2 0x485F JUMP JUMPDEST PUSH2 0xD3A SWAP2 SWAP1 PUSH2 0x485F JUMP JUMPDEST SWAP1 POP PUSH1 0x0 PUSH2 0x2710 PUSH2 0xD4B DUP7 DUP7 PUSH2 0x485F JUMP JUMPDEST PUSH2 0xD55 SWAP2 SWAP1 PUSH2 0x485F JUMP JUMPDEST SWAP1 POP DUP1 DUP3 GT PUSH2 0xD6D JUMPI POP PUSH1 0x0 SWAP9 SWAP8 POP POP POP POP POP POP POP POP JUMP JUMPDEST PUSH1 0x0 PUSH2 0xD7B PUSH2 0x2710 DUP8 PUSH2 0x485F JUMP JUMPDEST PUSH2 0xD85 DUP6 DUP11 PUSH2 0x485F JUMP JUMPDEST PUSH2 0xD8F SWAP2 SWAP1 PUSH2 0x4876 JUMP JUMPDEST PUSH2 0xD99 DUP4 DUP6 PUSH2 0x4833 JUMP JUMPDEST PUSH2 0xDA3 SWAP2 SWAP1 PUSH2 0x489F JUMP JUMPDEST SWAP1 POP DUP7 DUP2 GT ISZERO PUSH2 0xDB0 JUMPI POP DUP6 JUMPDEST DUP1 PUSH1 0x0 SUB PUSH2 0xDC8 JUMPI POP PUSH1 0x0 SWAP10 SWAP9 POP POP POP POP POP POP POP POP POP JUMP JUMPDEST PUSH1 0x0 DUP2 JUMPDEST DUP1 DUP3 LT ISZERO PUSH2 0xE2D JUMPI PUSH1 0x0 PUSH1 0x2 PUSH2 0xDE2 DUP4 DUP6 PUSH2 0x4876 JUMP JUMPDEST PUSH2 0xDED SWAP1 PUSH1 0x1 PUSH2 0x4876 JUMP JUMPDEST PUSH2 0xDF7 SWAP2 SWAP1 PUSH2 0x489F JUMP JUMPDEST SWAP1 POP PUSH8 0xDE0B6B3A7640000 PUSH2 0xE0C DUP15 DUP4 PUSH2 0x3761 JUMP JUMPDEST LT PUSH2 0xE19 JUMPI DUP1 SWAP3 POP PUSH2 0xE27 JUMP JUMPDEST PUSH2 0xE24 PUSH1 0x1 DUP3 PUSH2 0x4833 JUMP JUMPDEST SWAP2 POP JUMPDEST POP PUSH2 0xDCC JUMP JUMPDEST POP SWAP11 SWAP10 POP POP POP POP POP POP POP POP POP POP JUMP JUMPDEST PUSH1 0x0 DUP1 PUSH2 0xE48 DUP4 PUSH2 0xED1 JUMP JUMPDEST SWAP1 POP DUP1 PUSH1 0x0 SUB PUSH2 0xE5C JUMPI POP PUSH1 0x0 NOT SWAP3 SWAP2 POP POP JUMP JUMPDEST PUSH1 0x0 PUSH2 0xE66 PUSH2 0x3985 JUMP JUMPDEST PUSH2 0xE70 SWAP1 DUP4 PUSH2 0x485F JUMP JUMPDEST SWAP1 POP PUSH1 0x0 PUSH2 0xE7D DUP6 PUSH2 0x3AFE JUMP JUMPDEST SWAP1 POP DUP2 PUSH1 0x0 SUB PUSH2 0xE93 JUMPI POP PUSH1 0x0 NOT SWAP5 SWAP4 POP POP POP POP JUMP JUMPDEST PUSH2 0xE9F PUSH2 0x2710 DUP4 PUSH2 0x485F JUMP JUMPDEST PUSH1 0x16 SLOAD PUSH2 0xEAC SWAP1 DUP4 PUSH2 0x485F JUMP JUMPDEST PUSH2 0xEBE SWAP1 PUSH8 0xDE0B6B3A7640000 PUSH2 0x485F JUMP JUMPDEST PUSH2 0xEC8 SWAP2 SWAP1 PUSH2 0x489F JUMP JUMPDEST SWAP6 SWAP5 POP POP POP POP POP JUMP JUMPDEST PUSH1 0x0 PUSH8 0xDE0B6B3A7640000 PUSH2 0xEE4 PUSH2 0x26B6 JUMP JUMPDEST PUSH1 0x1 PUSH1 0x1 PUSH1 0xA0 SHL SUB DUP5 AND PUSH1 0x0 SWAP1 DUP2 MSTORE PUSH1 0x4 PUSH1 0x20 MSTORE PUSH1 0x40 SWAP1 KECCAK256 SLOAD PUSH2 0xF07 SWAP2 SWAP1 PUSH2 0x485F JUMP JUMPDEST PUSH2 0xF11 SWAP2 SWAP1 PUSH2 0x489F JUMP JUMPDEST SWAP3 SWAP2 POP POP JUMP JUMPDEST PUSH1 0x0 PUSH3 0x201480 PUSH2 0xBAC PUSH2 0x104C JUMP JUMPDEST PUSH1 0x0 DUP1 PUSH2 0xF31 DUP4 PUSH2 0x1270 JUMP JUMPDEST SWAP1 POP DUP1 PUSH1 0x0 SUB PUSH2 0xF45 JUMPI POP PUSH1 0x0 NOT SWAP3 SWAP2 POP POP JUMP JUMPDEST PUSH1 0x0 PUSH2 0xF55 PUSH4 0x5F5E100 DUP4 PUSH2 0x485F JUMP JUMPDEST SWAP1 POP PUSH1 0x0 PUSH2 0xF62 DUP6 PUSH2 0x3B26 JUMP JUMPDEST SWAP1 POP DUP2 PUSH1 0x0 SUB PUSH2 0xF78 JUMPI POP PUSH1 0x0 NOT SWAP5 SWAP4 POP POP POP POP JUMP JUMPDEST PUSH2 0xF84 PUSH2 0x2710 DUP4 PUSH2 0x485F JUMP JUMPDEST PUSH1 0x15 SLOAD PUSH2 0xEAC SWAP1 DUP4 PUSH2 0x485F JUMP JUMPDEST PUSH1 0x0 DUP1 PUSH2 0xF9C PUSH2 0x2B3C JUMP JUMPDEST PUSH1 0xE SLOAD SWAP1 SWAP2 POP DUP1 DUP3 GT PUSH2 0xFDE JUMPI PUSH8 0xDE0B6B3A7640000 DUP3 PUSH1 0xC SLOAD PUSH2 0xFC0 SWAP2 SWAP1 PUSH2 0x485F JUMP JUMPDEST PUSH2 0xFCA SWAP2 SWAP1 PUSH2 0x489F JUMP JUMPDEST PUSH1 0xB SLOAD PUSH2 0xFD7 SWAP2 SWAP1 PUSH2 0x4876 JUMP JUMPDEST SWAP3 POP POP POP SWAP1 JUMP JUMPDEST PUSH1 0x0 PUSH8 0xDE0B6B3A7640000 DUP3 PUSH1 0xC SLOAD PUSH2 0xFF7 SWAP2 SWAP1 PUSH2 0x485F JUMP JUMPDEST PUSH2 0x1001 SWAP2 SWAP1 PUSH2 0x489F JUMP JUMPDEST PUSH1 0xB SLOAD PUSH2 0x100E SWAP2 SWAP1 PUSH2 0x4876 JUMP JUMPDEST SWAP1 POP PUSH8 0xDE0B6B3A7640000 PUSH2 0x1023 DUP4 DUP6 PUSH2 0x4833 JUMP JUMPDEST PUSH1 0xD SLOAD PUSH2 0x1030 SWAP2 SWAP1 PUSH2 0x485F JUMP JUMPDEST PUSH2 0x103A SWAP2 SWAP1 PUSH2 0x489F JUMP JUMPDEST PUSH2 0x1044 SWAP1 DUP3 PUSH2 0x4876 JUMP JUMPDEST SWAP4 POP POP POP POP SWAP1 JUMP JUMPDEST PUSH1 0x0 DUP1 PUSH2 0x1057 PUSH2 0x10E4 JUMP JUMPDEST PUSH1 0x12 SLOAD SWAP1 SWAP2 POP DUP1 DUP3 GT PUSH2 0x1092 JUMPI PUSH8 0xDE0B6B3A7640000 DUP3 PUSH1 0x10 SLOAD PUSH2 0x107B SWAP2 SWAP1 PUSH2 0x485F JUMP JUMPDEST PUSH2 0x1085 SWAP2 SWAP1 PUSH2 0x489F JUMP JUMPDEST PUSH1 0xF SLOAD PUSH2 0xFD7 SWAP2 SWAP1 PUSH2 0x4876 JUMP JUMPDEST PUSH1 0x0 PUSH8 0xDE0B6B3A7640000 DUP3 PUSH1 0x10 SLOAD PUSH2 0x10AB SWAP2 SWAP1 PUSH2 0x485F JUMP JUMPDEST PUSH2 0x10B5 SWAP2 SWAP1 PUSH2 0x489F JUMP JUMPDEST PUSH1 0xF SLOAD PUSH2 0x10C2 SWAP2 SWAP1 PUSH2 0x4876 JUMP JUMPDEST SWAP1 POP PUSH8 0xDE0B6B3A7640000 PUSH2 0x10D7 DUP4 DUP6 PUSH2 0x4833 JUMP JUMPDEST PUSH1 0x11 SLOAD PUSH2 0x1030 SWAP2 SWAP1 PUSH2 0x485F JUMP JUMPDEST PUSH1 0x40 MLOAD PUSH4 0x70A08231 PUSH1 0xE0 SHL DUP2 MSTORE ADDRESS PUSH1 0x4 DUP3 ADD MSTORE PUSH1 0x0 SWAP1 DUP2 SWAP1 PUSH1 0x1 PUSH1 0x1 PUSH1 0xA0 SHL SUB PUSH32 0x0 AND SWAP1 PUSH4 0x70A08231 SWAP1 PUSH1 0x24 ADD PUSH1 0x20 PUSH1 0x40 MLOAD DUP1 DUP4 SUB DUP2 DUP7 GAS STATICCALL ISZERO DUP1 ISZERO PUSH2 0x114D JUMPI RETURNDATASIZE PUSH1 0x0 DUP1 RETURNDATACOPY RETURNDATASIZE PUSH1 0x0 REVERT JUMPDEST POP POP POP POP PUSH1 0x40 MLOAD RETURNDATASIZE PUSH1 0x1F NOT PUSH1 0x1F DUP3 ADD AND DUP3 ADD DUP1 PUSH1 0x40 MSTORE POP DUP2 ADD SWAP1 PUSH2 0x1171 SWAP2 SWAP1 PUSH2 0x4804 JUMP JUMPDEST SWAP1 POP PUSH1 0x0 PUSH8 0xDE0B6B3A7640000 PUSH2 0x1186 PUSH2 0x26B6 JUMP JUMPDEST PUSH1 0xA SLOAD PUSH2 0x1193 SWAP2 SWAP1 PUSH2 0x485F JUMP JUMPDEST PUSH2 0x119D SWAP2 SWAP1 PUSH2 0x489F JUMP JUMPDEST SWAP1 POP PUSH1 0x0 PUSH2 0x11AB DUP3 DUP5 PUSH2 0x4876 JUMP JUMPDEST SWAP1 POP DUP1 ISZERO PUSH2 0x11D5 JUMPI DUP1 PUSH2 0x11C6 DUP4 PUSH8 0xDE0B6B3A7640000 PUSH2 0x485F JUMP JUMPDEST PUSH2 0x11D0 SWAP2 SWAP1 PUSH2 0x489F JUMP JUMPDEST PUSH2 0x1044 JUMP JUMPDEST PUSH1 0x0 SWAP4 POP POP POP POP SWAP1 JUMP JUMPDEST PUSH2 0x11E7 PUSH2 0x3653 JUMP JUMPDEST DUP1 ISZERO PUSH2 0x1259 JUMPI PUSH2 0x1222 PUSH1 0x1 PUSH1 0x1 PUSH1 0xA0 SHL SUB PUSH32 0x0 AND CALLER ADDRESS DUP5 PUSH2 0x366F JUMP JUMPDEST PUSH1 0x40 MLOAD DUP2 DUP2 MSTORE CALLER SWAP1 PUSH32 0xF5BEA3313DF51C464365B9B367FE48ABC43CFC90F471CE003C4DECA7D6C75710 SWAP1 PUSH1 0x20 ADD JUMPDEST PUSH1 0x40 MLOAD DUP1 SWAP2 SUB SWAP1 LOG2 JUMPDEST PUSH2 0xB9B PUSH1 0x1 PUSH1 0x0 DUP1 MLOAD PUSH1 0x20 PUSH2 0x4A92 DUP4 CODECOPY DUP2 MLOAD SWAP2 MSTORE SSTORE JUMP JUMPDEST PUSH1 0x0 PUSH8 0xDE0B6B3A7640000 PUSH2 0x1283 PUSH2 0x327A JUMP JUMPDEST PUSH1 0x1 PUSH1 0x1 PUSH1 0xA0 SHL SUB DUP5 AND PUSH1 0x0 SWAP1 DUP2 MSTORE PUSH1 0x3 PUSH1 0x20 MSTORE PUSH1 0x40 SWAP1 KECCAK256 SLOAD PUSH2 0xF07 SWAP2 SWAP1 PUSH2 0x485F JUMP JUMPDEST PUSH2 0x12AE PUSH2 0x3653 JUMP JUMPDEST PUSH2 0x12B6 PUSH2 0x3B61 JUMP JUMPDEST PUSH1 0x0 DUP2 GT PUSH2 0x12D6 JUMPI PUSH1 0x40 MLOAD PUSH3 0x461BCD PUSH1 0xE5 SHL DUP2 MSTORE PUSH1 0x4 ADD PUSH2 0x96B SWAP1 PUSH2 0x47D8 JUMP JUMPDEST CALLER PUSH1 0x0 SWAP1 DUP2 MSTORE PUSH1 0x2 PUSH1 0x20 MSTORE PUSH1 0x40 SWAP1 KECCAK256 SLOAD PUSH2 0x133C JUMPI PUSH1 0x40 MLOAD PUSH3 0x461BCD PUSH1 0xE5 SHL DUP2 MSTORE PUSH1 0x20 PUSH1 0x4 DUP3 ADD MSTORE PUSH1 0x21 PUSH1 0x24 DUP3 ADD MSTORE PUSH32 0x50434F4C42555344506F6F6C3A206E6F20504255534420636F6C6C6174657261 PUSH1 0x44 DUP3 ADD MSTORE PUSH1 0x1B PUSH1 0xFA SHL PUSH1 0x64 DUP3 ADD MSTORE PUSH1 0x84 ADD PUSH2 0x96B JUMP JUMPDEST PUSH1 0x40 MLOAD PUSH4 0x70A08231 PUSH1 0xE0 SHL DUP2 MSTORE ADDRESS PUSH1 0x4 DUP3 ADD MSTORE DUP2 SWAP1 PUSH32 0x0 PUSH1 0x1 PUSH1 0x1 PUSH1 0xA0 SHL SUB AND SWAP1 PUSH4 0x70A08231 SWAP1 PUSH1 0x24 ADD PUSH1 0x20 PUSH1 0x40 MLOAD DUP1 DUP4 SUB DUP2 DUP7 GAS STATICCALL ISZERO DUP1 ISZERO PUSH2 0x13A2 JUMPI RETURNDATASIZE PUSH1 0x0 DUP1 RETURNDATACOPY RETURNDATASIZE PUSH1 0x0 REVERT JUMPDEST POP POP POP POP PUSH1 0x40 MLOAD RETURNDATASIZE PUSH1 0x1F NOT PUSH1 0x1F DUP3 ADD AND DUP3 ADD DUP1 PUSH1 0x40 MSTORE POP DUP2 ADD SWAP1 PUSH2 0x13C6 SWAP2 SWAP1 PUSH2 0x4804 JUMP JUMPDEST LT ISZERO PUSH2 0x1414 JUMPI PUSH1 0x40 MLOAD PUSH3 0x461BCD PUSH1 0xE5 SHL DUP2 MSTORE PUSH1 0x20 PUSH1 0x4 DUP3 ADD MSTORE PUSH1 0x1E PUSH1 0x24 DUP3 ADD MSTORE PUSH32 0x50434F4C42555344506F6F6C3A20696E73756666696369656E7420434F4C0000 PUSH1 0x44 DUP3 ADD MSTORE PUSH1 0x64 ADD PUSH2 0x96B JUMP JUMPDEST PUSH1 0x6 SLOAD PUSH1 0x0 SWAP1 PUSH2 0x142C DUP4 PUSH8 0xDE0B6B3A7640000 PUSH2 0x485F JUMP JUMPDEST PUSH2 0x1436 SWAP2 SWAP1 PUSH2 0x489F JUMP JUMPDEST CALLER PUSH1 0x0 SWAP1 DUP2 MSTORE PUSH1 0x4 PUSH1 0x20 MSTORE PUSH1 0x40 DUP2 KECCAK256 DUP1 SLOAD SWAP3 SWAP4 POP DUP4 SWAP3 SWAP1 SWAP2 SWAP1 PUSH2 0x145A SWAP1 DUP5 SWAP1 PUSH2 0x4876 JUMP JUMPDEST SWAP3 POP POP DUP2 SWAP1 SSTORE POP DUP1 PUSH1 0xA PUSH1 0x0 DUP3 DUP3 SLOAD PUSH2 0x1473 SWAP2 SWAP1 PUSH2 0x4876 JUMP JUMPDEST SWAP1 SWAP2 SSTORE POP PUSH8 0xDE0B6B3A7640000 SWAP1 POP PUSH2 0x148B CALLER PUSH2 0xE3C JUMP JUMPDEST LT ISZERO PUSH2 0x14A9 JUMPI PUSH1 0x40 MLOAD PUSH3 0x461BCD PUSH1 0xE5 SHL DUP2 MSTORE PUSH1 0x4 ADD PUSH2 0x96B SWAP1 PUSH2 0x48B3 JUMP JUMPDEST PUSH2 0x14DD PUSH1 0x1 PUSH1 0x1 PUSH1 0xA0 SHL SUB PUSH32 0x0 AND CALLER DUP5 PUSH2 0x3C48 JUMP JUMPDEST PUSH1 0x1C SLOAD ISZERO PUSH2 0x154C JUMPI PUSH1 0x0 SLOAD PUSH1 0x1C SLOAD PUSH1 0x40 MLOAD PUSH4 0x4D248487 PUSH1 0xE1 SHL DUP2 MSTORE PUSH1 0x1 PUSH1 0x1 PUSH1 0xA0 SHL SUB SWAP1 SWAP3 AND SWAP2 PUSH4 0x9A49090E SWAP2 PUSH2 0x1519 SWAP2 CALLER SWAP2 SWAP1 PUSH1 0x4 ADD PUSH2 0x4846 JUMP JUMPDEST PUSH1 0x0 PUSH1 0x40 MLOAD DUP1 DUP4 SUB DUP2 PUSH1 0x0 DUP8 DUP1 EXTCODESIZE ISZERO DUP1 ISZERO PUSH2 0x1533 JUMPI PUSH1 0x0 DUP1 REVERT JUMPDEST POP GAS CALL ISZERO DUP1 ISZERO PUSH2 0x1547 JUMPI RETURNDATASIZE PUSH1 0x0 DUP1 RETURNDATACOPY RETURNDATASIZE PUSH1 0x0 REVERT JUMPDEST POP POP POP POP JUMPDEST PUSH1 0x40 MLOAD DUP3 DUP2 MSTORE CALLER SWAP1 PUSH32 0x64058EF3FD742704269A61C4D8E869AC215D70D1DFBD716D4746DA00FA89A839 SWAP1 PUSH1 0x20 ADD JUMPDEST PUSH1 0x40 MLOAD DUP1 SWAP2 SUB SWAP1 LOG2 POP PUSH2 0xB9B PUSH1 0x1 PUSH1 0x0 DUP1 MLOAD PUSH1 0x20 PUSH2 0x4A92 DUP4 CODECOPY DUP2 MLOAD SWAP2 MSTORE SSTORE JUMP JUMPDEST PUSH2 0x15A2 PUSH2 0x3653 JUMP JUMPDEST PUSH2 0x15AA PUSH2 0x3C82 JUMP JUMPDEST PUSH1 0x0 DUP2 GT PUSH2 0x15CA JUMPI PUSH1 0x40 MLOAD PUSH3 0x461BCD PUSH1 0xE5 SHL DUP2 MSTORE PUSH1 0x4 ADD PUSH2 0x96B SWAP1 PUSH2 0x47D8 JUMP JUMPDEST CALLER PUSH1 0x0 SWAP1 DUP2 MSTORE PUSH1 0x1 PUSH1 0x20 MSTORE PUSH1 0x40 SWAP1 KECCAK256 SLOAD PUSH2 0x1626 JUMPI PUSH1 0x40 MLOAD PUSH3 0x461BCD PUSH1 0xE5 SHL DUP2 MSTORE PUSH1 0x20 PUSH1 0x4 DUP3 ADD DUP2 SWAP1 MSTORE PUSH1 0x24 DUP3 ADD MSTORE PUSH32 0x50434F4C42555344506F6F6C3A206E6F2050434F4C20636F6C6C61746572616C PUSH1 0x44 DUP3 ADD MSTORE PUSH1 0x64 ADD PUSH2 0x96B JUMP JUMPDEST PUSH1 0x40 MLOAD PUSH4 0x70A08231 PUSH1 0xE0 SHL DUP2 MSTORE ADDRESS PUSH1 0x4 DUP3 ADD MSTORE DUP2 SWAP1 PUSH32 0x0 PUSH1 0x1 PUSH1 0x1 PUSH1 0xA0 SHL SUB AND SWAP1 PUSH4 0x70A08231 SWAP1 PUSH1 0x24 ADD PUSH1 0x20 PUSH1 0x40 MLOAD DUP1 DUP4 SUB DUP2 DUP7 GAS STATICCALL ISZERO DUP1 ISZERO PUSH2 0x168C JUMPI RETURNDATASIZE PUSH1 0x0 DUP1 RETURNDATACOPY RETURNDATASIZE PUSH1 0x0 REVERT JUMPDEST POP POP POP POP PUSH1 0x40 MLOAD RETURNDATASIZE PUSH1 0x1F NOT PUSH1 0x1F DUP3 ADD AND DUP3 ADD DUP1 PUSH1 0x40 MSTORE POP DUP2 ADD SWAP1 PUSH2 0x16B0 SWAP2 SWAP1 PUSH2 0x4804 JUMP JUMPDEST LT ISZERO PUSH2 0x16FE JUMPI PUSH1 0x40 MLOAD PUSH3 0x461BCD PUSH1 0xE5 SHL DUP2 MSTORE PUSH1 0x20 PUSH1 0x4 DUP3 ADD MSTORE PUSH1 0x1F PUSH1 0x24 DUP3 ADD MSTORE PUSH32 0x50434F4C42555344506F6F6C3A20696E73756666696369656E74204255534400 PUSH1 0x44 DUP3 ADD MSTORE PUSH1 0x64 ADD PUSH2 0x96B JUMP JUMPDEST PUSH1 0x5 SLOAD PUSH1 0x0 SWAP1 PUSH2 0x1716 DUP4 PUSH8 0xDE0B6B3A7640000 PUSH2 0x485F JUMP JUMPDEST PUSH2 0x1720 SWAP2 SWAP1 PUSH2 0x489F JUMP JUMPDEST CALLER PUSH1 0x0 SWAP1 DUP2 MSTORE PUSH1 0x3 PUSH1 0x20 MSTORE PUSH1 0x40 DUP2 KECCAK256 DUP1 SLOAD SWAP3 SWAP4 POP DUP4 SWAP3 SWAP1 SWAP2 SWAP1 PUSH2 0x1744 SWAP1 DUP5 SWAP1 PUSH2 0x4876 JUMP JUMPDEST SWAP3 POP POP DUP2 SWAP1 SSTORE POP DUP1 PUSH1 0x9 PUSH1 0x0 DUP3 DUP3 SLOAD PUSH2 0x175D SWAP2 SWAP1 PUSH2 0x4876 JUMP JUMPDEST SWAP1 SWAP2 SSTORE POP PUSH8 0xDE0B6B3A7640000 SWAP1 POP PUSH2 0x1775 CALLER PUSH2 0xF25 JUMP JUMPDEST LT ISZERO PUSH2 0x1793 JUMPI PUSH1 0x40 MLOAD PUSH3 0x461BCD PUSH1 0xE5 SHL DUP2 MSTORE PUSH1 0x4 ADD PUSH2 0x96B SWAP1 PUSH2 0x48B3 JUMP JUMPDEST PUSH2 0x17C7 PUSH1 0x1 PUSH1 0x1 PUSH1 0xA0 SHL SUB PUSH32 0x0 AND CALLER DUP5 PUSH2 0x3C48 JUMP JUMPDEST PUSH1 0x1C SLOAD ISZERO PUSH2 0x1836 JUMPI PUSH1 0x0 SLOAD PUSH1 0x1C SLOAD PUSH1 0x40 MLOAD PUSH4 0x4D248487 PUSH1 0xE1 SHL DUP2 MSTORE PUSH1 0x1 PUSH1 0x1 PUSH1 0xA0 SHL SUB SWAP1 SWAP3 AND SWAP2 PUSH4 0x9A49090E SWAP2 PUSH2 0x1803 SWAP2 CALLER SWAP2 SWAP1 PUSH1 0x4 ADD PUSH2 0x4846 JUMP JUMPDEST PUSH1 0x0 PUSH1 0x40 MLOAD DUP1 DUP4 SUB DUP2 PUSH1 0x0 DUP8 DUP1 EXTCODESIZE ISZERO DUP1 ISZERO PUSH2 0x181D JUMPI PUSH1 0x0 DUP1 REVERT JUMPDEST POP GAS CALL ISZERO DUP1 ISZERO PUSH2 0x1831 JUMPI RETURNDATASIZE PUSH1 0x0 DUP1 RETURNDATACOPY RETURNDATASIZE PUSH1 0x0 REVERT JUMPDEST POP POP POP POP JUMPDEST PUSH1 0x40 MLOAD DUP3 DUP2 MSTORE CALLER SWAP1 PUSH32 0xF6FC424A68D90F3F5323BE41DB315721F4B8843B3799AE1089007F88E2190551 SWAP1 PUSH1 0x20 ADD PUSH2 0x157A JUMP JUMPDEST PUSH2 0x1870 PUSH2 0x3653 JUMP JUMPDEST PUSH1 0x0 DUP2 GT PUSH2 0x1890 JUMPI PUSH1 0x40 MLOAD PUSH3 0x461BCD PUSH1 0xE5 SHL DUP2 MSTORE PUSH1 0x4 ADD PUSH2 0x96B SWAP1 PUSH2 0x47D8 JUMP JUMPDEST PUSH2 0x18C5 PUSH1 0x1 PUSH1 0x1 PUSH1 0xA0 SHL SUB PUSH32 0x0 AND CALLER ADDRESS DUP5 PUSH2 0x366F JUMP JUMPDEST PUSH1 0x40 MLOAD PUSH4 0x70A08231 PUSH1 0xE0 SHL DUP2 MSTORE ADDRESS PUSH1 0x4 DUP3 ADD MSTORE PUSH1 0x0 SWAP1 PUSH32 0x0 PUSH1 0x1 PUSH1 0x1 PUSH1 0xA0 SHL SUB AND SWAP1 PUSH4 0x70A08231 SWAP1 PUSH1 0x24 ADD PUSH1 0x20 PUSH1 0x40 MLOAD DUP1 DUP4 SUB DUP2 DUP7 GAS STATICCALL ISZERO DUP1 ISZERO PUSH2 0x192C JUMPI RETURNDATASIZE PUSH1 0x0 DUP1 RETURNDATACOPY RETURNDATASIZE PUSH1 0x0 REVERT JUMPDEST POP POP POP POP PUSH1 0x40 MLOAD RETURNDATASIZE PUSH1 0x1F NOT PUSH1 0x1F DUP3 ADD AND DUP3 ADD DUP1 PUSH1 0x40 MSTORE POP DUP2 ADD SWAP1 PUSH2 0x1950 SWAP2 SWAP1 PUSH2 0x4804 JUMP JUMPDEST SWAP1 POP PUSH1 0x0 PUSH2 0x195E DUP4 DUP4 PUSH2 0x36AB JUMP JUMPDEST SWAP1 POP PUSH1 0x0 PUSH2 0x196C DUP3 DUP6 PUSH2 0x4833 JUMP JUMPDEST PUSH1 0x40 MLOAD PUSH4 0x40C10F19 PUSH1 0xE0 SHL DUP2 MSTORE SWAP1 SWAP2 POP PUSH1 0x1 PUSH1 0x1 PUSH1 0xA0 SHL SUB PUSH32 0x0 AND SWAP1 PUSH4 0x40C10F19 SWAP1 PUSH2 0x19BD SWAP1 CALLER SWAP1 DUP6 SWAP1 PUSH1 0x4 ADD PUSH2 0x4846 JUMP JUMPDEST PUSH1 0x0 PUSH1 0x40 MLOAD DUP1 DUP4 SUB DUP2 PUSH1 0x0 DUP8 DUP1 EXTCODESIZE ISZERO DUP1 ISZERO PUSH2 0x19D7 JUMPI PUSH1 0x0 DUP1 REVERT JUMPDEST POP GAS CALL ISZERO DUP1 ISZERO PUSH2 0x19EB JUMPI RETURNDATASIZE PUSH1 0x0 DUP1 RETURNDATACOPY RETURNDATASIZE PUSH1 0x0 REVERT JUMPDEST POP POP POP POP PUSH1 0x0 PUSH1 0x1B SLOAD GT ISZERO PUSH2 0x1A61 JUMPI PUSH1 0x0 SLOAD PUSH1 0x1B SLOAD PUSH1 0x40 MLOAD PUSH4 0x4D248487 PUSH1 0xE1 SHL DUP2 MSTORE PUSH1 0x1 PUSH1 0x1 PUSH1 0xA0 SHL SUB SWAP1 SWAP3 AND SWAP2 PUSH4 0x9A49090E SWAP2 PUSH2 0x1A2E SWAP2 CALLER SWAP2 SWAP1 PUSH1 0x4 ADD PUSH2 0x4846 JUMP JUMPDEST PUSH1 0x0 PUSH1 0x40 MLOAD DUP1 DUP4 SUB DUP2 PUSH1 0x0 DUP8 DUP1 EXTCODESIZE ISZERO DUP1 ISZERO PUSH2 0x1A48 JUMPI PUSH1 0x0 DUP1 REVERT JUMPDEST POP GAS CALL ISZERO DUP1 ISZERO PUSH2 0x1A5C JUMPI RETURNDATASIZE PUSH1 0x0 DUP1 RETURNDATACOPY RETURNDATASIZE PUSH1 0x0 REVERT JUMPDEST POP POP POP POP JUMPDEST PUSH1 0x40 DUP1 MLOAD DUP6 DUP2 MSTORE PUSH1 0x20 DUP2 ADD DUP4 SWAP1 MSTORE CALLER SWAP2 PUSH32 0x8A2298614B2CCBBC8111D5698F4353B52ED97C61821CE6BB845F369A687CF4D3 SWAP2 ADD PUSH2 0xB79 JUMP JUMPDEST PUSH2 0x1AA1 PUSH2 0x3653 JUMP JUMPDEST DUP1 ISZERO PUSH2 0x1259 JUMPI PUSH2 0x1ADC PUSH1 0x1 PUSH1 0x1 PUSH1 0xA0 SHL SUB PUSH32 0x0 AND CALLER ADDRESS DUP5 PUSH2 0x366F JUMP JUMPDEST PUSH1 0x40 MLOAD DUP2 DUP2 MSTORE CALLER SWAP1 PUSH32 0x8D0BC5F167288ABBD197C625A480D13BE237511304CE7B9D244BD8ED6D039A93 SWAP1 PUSH1 0x20 ADD PUSH2 0x1250 JUMP JUMPDEST PUSH2 0x1B16 PUSH2 0x3653 JUMP JUMPDEST PUSH32 0x0 PUSH1 0x1 PUSH1 0x1 PUSH1 0xA0 SHL SUB AND DUP5 PUSH1 0x1 PUSH1 0x1 PUSH1 0xA0 SHL SUB AND EQ DUP1 PUSH2 0x1B87 JUMPI POP PUSH32 0x0 PUSH1 0x1 PUSH1 0x1 PUSH1 0xA0 SHL SUB AND DUP5 PUSH1 0x1 PUSH1 0x1 PUSH1 0xA0 SHL SUB AND EQ JUMPDEST PUSH2 0x1BD3 JUMPI PUSH1 0x40 MLOAD PUSH3 0x461BCD PUSH1 0xE5 SHL DUP2 MSTORE PUSH1 0x20 PUSH1 0x4 DUP3 ADD MSTORE PUSH1 0x19 PUSH1 0x24 DUP3 ADD MSTORE PUSH32 0x50434F4C42555344506F6F6C3A20756E737570706F7274656400000000000000 PUSH1 0x44 DUP3 ADD MSTORE PUSH1 0x64 ADD PUSH2 0x96B JUMP JUMPDEST PUSH1 0x0 DUP4 GT DUP1 ISZERO PUSH2 0x1BE6 JUMPI POP PUSH1 0x1D SLOAD PUSH1 0xFF AND ISZERO JUMPDEST PUSH2 0x1C32 JUMPI PUSH1 0x40 MLOAD PUSH3 0x461BCD PUSH1 0xE5 SHL DUP2 MSTORE PUSH1 0x20 PUSH1 0x4 DUP3 ADD MSTORE PUSH1 0x1B PUSH1 0x24 DUP3 ADD MSTORE PUSH32 0x50434F4C42555344506F6F6C3A20696E76616C696420666C6173680000000000 PUSH1 0x44 DUP3 ADD MSTORE PUSH1 0x64 ADD PUSH2 0x96B JUMP JUMPDEST PUSH1 0x0 PUSH2 0x2710 PUSH1 0x18 SLOAD DUP6 PUSH2 0x1C45 SWAP2 SWAP1 PUSH2 0x485F JUMP JUMPDEST PUSH2 0x1C4F SWAP2 SWAP1 PUSH2 0x489F JUMP JUMPDEST PUSH1 0x1D DUP1 SLOAD PUSH1 0xFF NOT AND PUSH1 0x1 OR SWAP1 SSTORE PUSH1 0x40 MLOAD PUSH4 0x70A08231 PUSH1 0xE0 SHL DUP2 MSTORE ADDRESS PUSH1 0x4 DUP3 ADD MSTORE SWAP1 SWAP2 POP PUSH1 0x0 SWAP1 PUSH1 0x1 PUSH1 0x1 PUSH1 0xA0 SHL SUB DUP8 AND SWAP1 PUSH4 0x70A08231 SWAP1 PUSH1 0x24 ADD PUSH1 0x20 PUSH1 0x40 MLOAD DUP1 DUP4 SUB DUP2 DUP7 GAS STATICCALL ISZERO DUP1 ISZERO PUSH2 0x1CA6 JUMPI RETURNDATASIZE PUSH1 0x0 DUP1 RETURNDATACOPY RETURNDATASIZE PUSH1 0x0 REVERT JUMPDEST POP POP POP POP PUSH1 0x40 MLOAD RETURNDATASIZE PUSH1 0x1F NOT PUSH1 0x1F DUP3 ADD AND DUP3 ADD DUP1 PUSH1 0x40 MSTORE POP DUP2 ADD SWAP1 PUSH2 0x1CCA SWAP2 SWAP1 PUSH2 0x4804 JUMP JUMPDEST SWAP1 POP PUSH2 0x1CE0 PUSH1 0x1 PUSH1 0x1 PUSH1 0xA0 SHL SUB DUP8 AND DUP9 DUP8 PUSH2 0x3C48 JUMP JUMPDEST PUSH1 0x40 MLOAD PUSH4 0x1B11D0FF PUSH1 0xE0 SHL DUP2 MSTORE PUSH1 0x1 PUSH1 0x1 PUSH1 0xA0 SHL SUB DUP9 AND SWAP1 PUSH4 0x1B11D0FF SWAP1 PUSH2 0x1D16 SWAP1 DUP10 SWAP1 DUP10 SWAP1 DUP8 SWAP1 CALLER SWAP1 DUP12 SWAP1 DUP12 SWAP1 PUSH1 0x4 ADD PUSH2 0x48DD JUMP JUMPDEST PUSH1 0x20 PUSH1 0x40 MLOAD DUP1 DUP4 SUB DUP2 PUSH1 0x0 DUP8 GAS CALL ISZERO DUP1 ISZERO PUSH2 0x1D35 JUMPI RETURNDATASIZE PUSH1 0x0 DUP1 RETURNDATACOPY RETURNDATASIZE PUSH1 0x0 REVERT JUMPDEST POP POP POP POP PUSH1 0x40 MLOAD RETURNDATASIZE PUSH1 0x1F NOT PUSH1 0x1F DUP3 ADD AND DUP3 ADD DUP1 PUSH1 0x40 MSTORE POP DUP2 ADD SWAP1 PUSH2 0x1D59 SWAP2 SWAP1 PUSH2 0x4939 JUMP JUMPDEST PUSH2 0x1DA5 JUMPI PUSH1 0x40 MLOAD PUSH3 0x461BCD PUSH1 0xE5 SHL DUP2 MSTORE PUSH1 0x20 PUSH1 0x4 DUP3 ADD MSTORE PUSH1 0x1A PUSH1 0x24 DUP3 ADD MSTORE PUSH32 0x50434F4C42555344506F6F6C3A20666C617368206661696C6564000000000000 PUSH1 0x44 DUP3 ADD MSTORE PUSH1 0x64 ADD PUSH2 0x96B JUMP JUMPDEST PUSH2 0x1DAF DUP3 DUP3 PUSH2 0x4876 JUMP JUMPDEST PUSH1 0x40 MLOAD PUSH4 0x70A08231 PUSH1 0xE0 SHL DUP2 MSTORE ADDRESS PUSH1 0x4 DUP3 ADD MSTORE PUSH1 0x1 PUSH1 0x1 PUSH1 0xA0 SHL SUB DUP9 AND SWAP1 PUSH4 0x70A08231 SWAP1 PUSH1 0x24 ADD PUSH1 0x20 PUSH1 0x40 MLOAD DUP1 DUP4 SUB DUP2 DUP7 GAS STATICCALL ISZERO DUP1 ISZERO PUSH2 0x1DF3 JUMPI RETURNDATASIZE PUSH1 0x0 DUP1 RETURNDATACOPY RETURNDATASIZE PUSH1 0x0 REVERT JUMPDEST POP POP POP POP PUSH1 0x40 MLOAD RETURNDATASIZE PUSH1 0x1F NOT PUSH1 0x1F DUP3 ADD AND DUP3 ADD DUP1 PUSH1 0x40 MSTORE POP DUP2 ADD SWAP1 PUSH2 0x1E17 SWAP2 SWAP1 PUSH2 0x4804 JUMP JUMPDEST LT ISZERO PUSH2 0x1E65 JUMPI PUSH1 0x40 MLOAD PUSH3 0x461BCD PUSH1 0xE5 SHL DUP2 MSTORE PUSH1 0x20 PUSH1 0x4 DUP3 ADD MSTORE PUSH1 0x18 PUSH1 0x24 DUP3 ADD MSTORE PUSH32 0x50434F4C42555344506F6F6C3A206E6F74207265706169640000000000000000 PUSH1 0x44 DUP3 ADD MSTORE PUSH1 0x64 ADD PUSH2 0x96B JUMP JUMPDEST PUSH1 0x1D DUP1 SLOAD PUSH1 0xFF NOT AND SWAP1 SSTORE PUSH1 0x40 DUP1 MLOAD DUP7 DUP2 MSTORE PUSH1 0x20 DUP2 ADD DUP5 SWAP1 MSTORE PUSH1 0x1 PUSH1 0x1 PUSH1 0xA0 SHL SUB DUP9 DUP2 AND SWAP3 SWAP1 DUP11 AND SWAP2 PUSH32 0xD7D75E01AB95780D3CD1C8EC0DD6C2CE19E3A20427EEC8BF53283B6FB8E95F0 SWAP2 ADD PUSH1 0x40 MLOAD DUP1 SWAP2 SUB SWAP1 LOG3 POP POP PUSH2 0x1ED1 PUSH1 0x1 PUSH1 0x0 DUP1 MLOAD PUSH1 0x20 PUSH2 0x4A92 DUP4 CODECOPY DUP2 MLOAD SWAP2 MSTORE SSTORE JUMP JUMPDEST POP POP POP POP POP JUMP JUMPDEST PUSH2 0x1EE0 PUSH2 0x3653 JUMP JUMPDEST PUSH2 0x1EE8 PUSH2 0x3B61 JUMP JUMPDEST PUSH8 0xDE0B6B3A7640000 PUSH2 0x1EFA DUP3 PUSH2 0xE3C JUMP JUMPDEST LT PUSH2 0x1F47 JUMPI PUSH1 0x40 MLOAD PUSH3 0x461BCD PUSH1 0xE5 SHL DUP2 MSTORE PUSH1 0x20 PUSH1 0x4 DUP3 ADD MSTORE PUSH1 0x1E PUSH1 0x24 DUP3 ADD MSTORE PUSH32 0x50434F4C42555344506F6F6C3A206E6F74206C6971756964617461626C650000 PUSH1 0x44 DUP3 ADD MSTORE PUSH1 0x64 ADD PUSH2 0x96B JUMP JUMPDEST PUSH1 0x6 SLOAD PUSH1 0x1 PUSH1 0x1 PUSH1 0xA0 SHL SUB DUP3 AND PUSH1 0x0 SWAP1 DUP2 MSTORE PUSH1 0x4 PUSH1 0x20 MSTORE PUSH1 0x40 DUP2 KECCAK256 SLOAD SWAP1 SWAP2 PUSH8 0xDE0B6B3A7640000 SWAP2 PUSH2 0x1F79 SWAP2 SWAP1 PUSH2 0x485F JUMP JUMPDEST PUSH2 0x1F83 SWAP2 SWAP1 PUSH2 0x489F JUMP JUMPDEST SWAP1 POP PUSH1 0x0 DUP2 GT DUP1 ISZERO PUSH2 0x1FAC JUMPI POP PUSH1 0x1 PUSH1 0x1 PUSH1 0xA0 SHL SUB DUP3 AND PUSH1 0x0 SWAP1 DUP2 MSTORE PUSH1 0x2 PUSH1 0x20 MSTORE PUSH1 0x40 SWAP1 KECCAK256 SLOAD ISZERO ISZERO JUMPDEST PUSH2 0x1FEF JUMPI PUSH1 0x40 MLOAD PUSH3 0x461BCD PUSH1 0xE5 SHL DUP2 MSTORE PUSH1 0x20 PUSH1 0x4 DUP3 ADD MSTORE PUSH1 0x14 PUSH1 0x24 DUP3 ADD MSTORE PUSH20 0x50434F4C42555344506F6F6C3A206E6F20706F73 PUSH1 0x60 SHL PUSH1 0x44 DUP3 ADD MSTORE PUSH1 0x64 ADD PUSH2 0x96B JUMP JUMPDEST PUSH1 0x6 SLOAD PUSH1 0x0 SWAP1 PUSH2 0x2007 DUP4 PUSH8 0xDE0B6B3A7640000 PUSH2 0x485F JUMP JUMPDEST PUSH2 0x2011 SWAP2 SWAP1 PUSH2 0x489F JUMP JUMPDEST PUSH1 0x1 PUSH1 0x1 PUSH1 0xA0 SHL SUB DUP5 AND PUSH1 0x0 SWAP1 DUP2 MSTORE PUSH1 0x4 PUSH1 0x20 MSTORE PUSH1 0x40 DUP2 KECCAK256 DUP2 SWAP1 SSTORE PUSH1 0xA DUP1 SLOAD SWAP3 SWAP4 POP DUP4 SWAP3 SWAP1 SWAP2 SWAP1 PUSH2 0x2043 SWAP1 DUP5 SWAP1 PUSH2 0x4833 JUMP JUMPDEST SWAP1 SWAP2 SSTORE POP POP PUSH1 0x1 PUSH1 0x1 PUSH1 0xA0 SHL SUB DUP4 AND PUSH1 0x0 SWAP1 DUP2 MSTORE PUSH1 0x2 PUSH1 0x20 MSTORE PUSH1 0x40 DUP2 KECCAK256 DUP1 SLOAD SWAP1 DUP3 SWAP1 SSTORE PUSH1 0x17 SLOAD SWAP1 SWAP2 SWAP1 PUSH2 0x2710 SWAP1 PUSH2 0x207A SWAP1 DUP3 PUSH2 0x4876 JUMP JUMPDEST PUSH2 0x2084 SWAP1 DUP5 PUSH2 0x485F JUMP JUMPDEST PUSH2 0x208E SWAP2 SWAP1 PUSH2 0x489F JUMP JUMPDEST SWAP1 POP DUP2 DUP2 GT ISZERO PUSH2 0x209B JUMPI POP DUP1 JUMPDEST PUSH1 0x0 PUSH2 0x20A7 DUP3 DUP5 PUSH2 0x4833 JUMP JUMPDEST SWAP1 POP PUSH2 0x20DE PUSH1 0x1 PUSH1 0x1 PUSH1 0xA0 SHL SUB PUSH32 0x0 AND CALLER ADDRESS DUP9 PUSH2 0x366F JUMP JUMPDEST DUP1 ISZERO PUSH2 0x2165 JUMPI PUSH1 0x40 MLOAD PUSH4 0x2770A7EB PUSH1 0xE2 SHL DUP2 MSTORE PUSH1 0x1 PUSH1 0x1 PUSH1 0xA0 SHL SUB PUSH32 0x0 AND SWAP1 PUSH4 0x9DC29FAC SWAP1 PUSH2 0x2132 SWAP1 ADDRESS SWAP1 DUP6 SWAP1 PUSH1 0x4 ADD PUSH2 0x4846 JUMP JUMPDEST PUSH1 0x0 PUSH1 0x40 MLOAD DUP1 DUP4 SUB DUP2 PUSH1 0x0 DUP8 DUP1 EXTCODESIZE ISZERO DUP1 ISZERO PUSH2 0x214C JUMPI PUSH1 0x0 DUP1 REVERT JUMPDEST POP GAS CALL ISZERO DUP1 ISZERO PUSH2 0x2160 JUMPI RETURNDATASIZE PUSH1 0x0 DUP1 RETURNDATACOPY RETURNDATASIZE PUSH1 0x0 REVERT JUMPDEST POP POP POP POP JUMPDEST PUSH2 0x2199 PUSH1 0x1 PUSH1 0x1 PUSH1 0xA0 SHL SUB PUSH32 0x0 AND CALLER DUP5 PUSH2 0x3C48 JUMP JUMPDEST PUSH1 0x40 DUP1 MLOAD DUP7 DUP2 MSTORE PUSH1 0x20 DUP2 ADD DUP5 SWAP1 MSTORE PUSH1 0x1 PUSH1 0x1 PUSH1 0xA0 SHL SUB DUP9 AND SWAP2 CALLER SWAP2 PUSH32 0xE912F4CCB4A26A55BF54B23B7E96FCAC60EBC03B3E76CCDB6752B5D8ABC7E8F9 SWAP2 ADD JUMPDEST PUSH1 0x40 MLOAD DUP1 SWAP2 SUB SWAP1 LOG3 POP POP POP POP POP PUSH2 0xB9B PUSH1 0x1 PUSH1 0x0 DUP1 MLOAD PUSH1 0x20 PUSH2 0x4A92 DUP4 CODECOPY DUP2 MLOAD SWAP2 MSTORE SSTORE JUMP JUMPDEST PUSH1 0x0 DUP1 PUSH2 0x2207 PUSH2 0x10E4 JUMP JUMPDEST SWAP1 POP PUSH1 0x0 PUSH2 0x2213 PUSH2 0xF17 JUMP JUMPDEST SWAP1 POP PUSH2 0x2229 PUSH2 0x2710 PUSH8 0xDE0B6B3A7640000 PUSH2 0x485F JUMP JUMPDEST PUSH1 0x14 SLOAD PUSH2 0x2238 SWAP1 PUSH2 0x2710 PUSH2 0x4833 JUMP JUMPDEST PUSH2 0x2242 DUP5 DUP5 PUSH2 0x485F JUMP JUMPDEST PUSH2 0x224C SWAP2 SWAP1 PUSH2 0x485F JUMP JUMPDEST PUSH2 0xFD7 SWAP2 SWAP1 PUSH2 0x489F JUMP JUMPDEST PUSH2 0x225E PUSH2 0x3653 JUMP JUMPDEST PUSH1 0x0 DUP2 GT PUSH2 0x227E JUMPI PUSH1 0x40 MLOAD PUSH3 0x461BCD PUSH1 0xE5 SHL DUP2 MSTORE PUSH1 0x4 ADD PUSH2 0x96B SWAP1 PUSH2 0x47D8 JUMP JUMPDEST PUSH1 0x40 MLOAD PUSH4 0x70A08231 PUSH1 0xE0 SHL DUP2 MSTORE ADDRESS PUSH1 0x4 DUP3 ADD MSTORE DUP2 SWAP1 PUSH32 0x0 PUSH1 0x1 PUSH1 0x1 PUSH1 0xA0 SHL SUB AND SWAP1 PUSH4 0x70A08231 SWAP1 PUSH1 0x24 ADD PUSH1 0x20 PUSH1 0x40 MLOAD DUP1 DUP4 SUB DUP2 DUP7 GAS STATICCALL ISZERO DUP1 ISZERO PUSH2 0x22E4 JUMPI RETURNDATASIZE PUSH1 0x0 DUP1 RETURNDATACOPY RETURNDATASIZE PUSH1 0x0 REVERT JUMPDEST POP POP POP POP PUSH1 0x40 MLOAD RETURNDATASIZE PUSH1 0x1F NOT PUSH1 0x1F DUP3 ADD AND DUP3 ADD DUP1 PUSH1 0x40 MSTORE POP DUP2 ADD SWAP1 PUSH2 0x2308 SWAP2 SWAP1 PUSH2 0x4804 JUMP JUMPDEST LT ISZERO PUSH2 0x2356 JUMPI PUSH1 0x40 MLOAD PUSH3 0x461BCD PUSH1 0xE5 SHL DUP2 MSTORE PUSH1 0x20 PUSH1 0x4 DUP3 ADD MSTORE PUSH1 0x1E PUSH1 0x24 DUP3 ADD MSTORE PUSH32 0x50434F4C42555344506F6F6C3A20696E73756666696369656E7420434F4C0000 PUSH1 0x44 DUP3 ADD MSTORE PUSH1 0x64 ADD PUSH2 0x96B JUMP JUMPDEST PUSH1 0x40 MLOAD PUSH4 0x2770A7EB PUSH1 0xE2 SHL DUP2 MSTORE PUSH1 0x1 PUSH1 0x1 PUSH1 0xA0 SHL SUB PUSH32 0x0 AND SWAP1 PUSH4 0x9DC29FAC SWAP1 PUSH2 0x23A4 SWAP1 CALLER SWAP1 DUP6 SWAP1 PUSH1 0x4 ADD PUSH2 0x4846 JUMP JUMPDEST PUSH1 0x0 PUSH1 0x40 MLOAD DUP1 DUP4 SUB DUP2 PUSH1 0x0 DUP8 DUP1 EXTCODESIZE ISZERO DUP1 ISZERO PUSH2 0x23BE JUMPI PUSH1 0x0 DUP1 REVERT JUMPDEST POP GAS CALL ISZERO DUP1 ISZERO PUSH2 0x23D2 JUMPI RETURNDATASIZE PUSH1 0x0 DUP1 RETURNDATACOPY RETURNDATASIZE PUSH1 0x0 REVERT JUMPDEST POP PUSH2 0x240C SWAP3 POP POP PUSH1 0x1 PUSH1 0x1 PUSH1 0xA0 SHL SUB PUSH32 0x0 AND SWAP1 POP CALLER DUP4 PUSH2 0x3C48 JUMP JUMPDEST PUSH1 0x40 DUP1 MLOAD DUP3 DUP2 MSTORE PUSH1 0x20 DUP2 ADD DUP4 SWAP1 MSTORE CALLER SWAP2 PUSH32 0xD36C28D8252079F996F11D24E2776FCDC1E0F4CEADFF156993AFF84CBFD37A75 SWAP2 ADD PUSH2 0x1250 JUMP JUMPDEST PUSH1 0x1 PUSH1 0x1 PUSH1 0xA0 SHL SUB DUP2 AND PUSH1 0x0 SWAP1 DUP2 MSTORE PUSH1 0x2 PUSH1 0x20 MSTORE PUSH1 0x40 DUP2 KECCAK256 SLOAD DUP1 DUP3 SUB PUSH2 0x246D JUMPI POP PUSH1 0x0 SWAP3 SWAP2 POP POP JUMP JUMPDEST PUSH1 0x40 MLOAD PUSH4 0x70A08231 PUSH1 0xE0 SHL DUP2 MSTORE ADDRESS PUSH1 0x4 DUP3 ADD MSTORE PUSH1 0x0 SWAP1 PUSH32 0x0 PUSH1 0x1 PUSH1 0x1 PUSH1 0xA0 SHL SUB AND SWAP1 PUSH4 0x70A08231 SWAP1 PUSH1 0x24 ADD PUSH1 0x20 PUSH1 0x40 MLOAD DUP1 DUP4 SUB DUP2 DUP7 GAS STATICCALL ISZERO DUP1 ISZERO PUSH2 0x24D4 JUMPI RETURNDATASIZE PUSH1 0x0 DUP1 RETURNDATACOPY RETURNDATASIZE PUSH1 0x0 REVERT JUMPDEST POP POP POP POP PUSH1 0x40 MLOAD RETURNDATASIZE PUSH1 0x1F NOT PUSH1 0x1F DUP3 ADD AND DUP3 ADD DUP1 PUSH1 0x40 MSTORE POP DUP2 ADD SWAP1 PUSH2 0x24F8 SWAP2 SWAP1 PUSH2 0x4804 JUMP JUMPDEST PUSH1 0x40 MLOAD PUSH4 0x70A08231 PUSH1 0xE0 SHL DUP2 MSTORE ADDRESS PUSH1 0x4 DUP3 ADD MSTORE SWAP1 SWAP2 POP PUSH1 0x0 SWAP1 PUSH1 0x1 PUSH1 0x1 PUSH1 0xA0 SHL SUB PUSH32 0x0 AND SWAP1 PUSH4 0x70A08231 SWAP1 PUSH1 0x24 ADD PUSH1 0x20 PUSH1 0x40 MLOAD DUP1 DUP4 SUB DUP2 DUP7 GAS STATICCALL ISZERO DUP1 ISZERO PUSH2 0x2562 JUMPI RETURNDATASIZE PUSH1 0x0 DUP1 RETURNDATACOPY RETURNDATASIZE PUSH1 0x0 REVERT JUMPDEST POP POP POP POP PUSH1 0x40 MLOAD RETURNDATASIZE PUSH1 0x1F NOT PUSH1 0x1F DUP3 ADD AND DUP3 ADD DUP1 PUSH1 0x40 MSTORE POP DUP2 ADD SWAP1 PUSH2 0x2586 SWAP2 SWAP1 PUSH2 0x4804 JUMP JUMPDEST SWAP1 POP DUP2 PUSH1 0x0 SUB PUSH2 0x259B JUMPI POP PUSH1 0x0 SWAP5 SWAP4 POP POP POP POP JUMP JUMPDEST PUSH1 0x0 PUSH2 0x25A6 DUP7 PUSH2 0xED1 JUMP JUMPDEST PUSH1 0x16 SLOAD SWAP1 SWAP2 POP PUSH1 0x0 DUP4 PUSH2 0x25B9 DUP4 DUP9 PUSH2 0x485F JUMP JUMPDEST PUSH2 0x25C3 SWAP2 SWAP1 PUSH2 0x485F JUMP JUMPDEST SWAP1 POP PUSH1 0x0 PUSH2 0x2710 PUSH2 0x25D4 DUP8 DUP7 PUSH2 0x485F JUMP JUMPDEST PUSH2 0x25DE SWAP2 SWAP1 PUSH2 0x485F JUMP JUMPDEST SWAP1 POP DUP1 DUP3 GT PUSH2 0x25F6 JUMPI POP PUSH1 0x0 SWAP9 SWAP8 POP POP POP POP POP POP POP POP JUMP JUMPDEST PUSH1 0x0 PUSH2 0x2604 PUSH2 0x2710 DUP9 PUSH2 0x485F JUMP JUMPDEST PUSH2 0x260E DUP6 DUP11 PUSH2 0x485F JUMP JUMPDEST PUSH2 0x2618 SWAP2 SWAP1 PUSH2 0x4876 JUMP JUMPDEST PUSH2 0x2622 DUP4 DUP6 PUSH2 0x4833 JUMP JUMPDEST PUSH2 0x262C SWAP2 SWAP1 PUSH2 0x489F JUMP JUMPDEST SWAP1 POP DUP6 DUP2 GT ISZERO PUSH2 0x2639 JUMPI POP DUP5 JUMPDEST DUP1 PUSH1 0x0 SUB PUSH2 0x2651 JUMPI POP PUSH1 0x0 SWAP10 SWAP9 POP POP POP POP POP POP POP POP POP JUMP JUMPDEST PUSH1 0x0 DUP2 JUMPDEST DUP1 DUP3 LT ISZERO PUSH2 0xE2D JUMPI PUSH1 0x0 PUSH1 0x2 PUSH2 0x266B DUP4 DUP6 PUSH2 0x4876 JUMP JUMPDEST PUSH2 0x2676 SWAP1 PUSH1 0x1 PUSH2 0x4876 JUMP JUMPDEST PUSH2 0x2680 SWAP2 SWAP1 PUSH2 0x489F JUMP JUMPDEST SWAP1 POP PUSH8 0xDE0B6B3A7640000 PUSH2 0x2695 DUP15 DUP4 PUSH2 0x3D69 JUMP JUMPDEST LT PUSH2 0x26A2 JUMPI DUP1 SWAP3 POP PUSH2 0x26B0 JUMP JUMPDEST PUSH2 0x26AD PUSH1 0x1 DUP3 PUSH2 0x4833 JUMP JUMPDEST SWAP2 POP JUMPDEST POP PUSH2 0x2655 JUMP JUMPDEST PUSH1 0x0 PUSH1 0x8 SLOAD NUMBER GT PUSH2 0x26C8 JUMPI POP PUSH1 0x6 SLOAD SWAP1 JUMP JUMPDEST PUSH1 0x0 PUSH1 0x8 SLOAD NUMBER PUSH2 0x26D8 SWAP2 SWAP1 PUSH2 0x4833 JUMP JUMPDEST SWAP1 POP PUSH1 0x0 PUSH2 0x26E7 PUSH1 0x6 SLOAD PUSH2 0x3F93 JUMP JUMPDEST SWAP1 POP PUSH1 0x0 PUSH2 0x26FD DUP3 PUSH8 0xDE0B6B3A7640000 PUSH2 0x4876 JUMP JUMPDEST SWAP1 POP PUSH8 0xDE0B6B3A7640000 DUP4 DUP3 JUMPDEST DUP2 ISZERO PUSH2 0x2774 JUMPI PUSH2 0x271C PUSH1 0x2 DUP4 PUSH2 0x495B JUMP JUMPDEST PUSH1 0x1 SUB PUSH2 0x2743 JUMPI PUSH8 0xDE0B6B3A7640000 PUSH2 0x2736 DUP3 DUP6 PUSH2 0x485F JUMP JUMPDEST PUSH2 0x2740 SWAP2 SWAP1 PUSH2 0x489F JUMP JUMPDEST SWAP3 POP JUMPDEST PUSH8 0xDE0B6B3A7640000 PUSH2 0x2756 DUP3 DUP1 PUSH2 0x485F JUMP JUMPDEST PUSH2 0x2760 SWAP2 SWAP1 PUSH2 0x489F JUMP JUMPDEST SWAP1 POP PUSH2 0x276D PUSH1 0x2 DUP4 PUSH2 0x489F JUMP JUMPDEST SWAP2 POP PUSH2 0x270B JUMP JUMPDEST PUSH8 0xDE0B6B3A7640000 DUP4 PUSH1 0x6 SLOAD PUSH2 0x278B SWAP2 SWAP1 PUSH2 0x485F JUMP JUMPDEST PUSH2 0x2795 SWAP2 SWAP1 PUSH2 0x489F JUMP JUMPDEST SWAP7 POP POP POP POP POP POP POP SWAP1 JUMP JUMPDEST PUSH1 0x0 PUSH2 0x2710 PUSH1 0x18 SLOAD DUP4 PUSH2 0xF07 SWAP2 SWAP1 PUSH2 0x485F JUMP JUMPDEST PUSH2 0x27BB PUSH2 0x3653 JUMP JUMPDEST PUSH1 0x0 DUP2 GT PUSH2 0x27DB JUMPI PUSH1 0x40 MLOAD PUSH3 0x461BCD PUSH1 0xE5 SHL DUP2 MSTORE PUSH1 0x4 ADD PUSH2 0x96B SWAP1 PUSH2 0x47D8 JUMP JUMPDEST PUSH2 0x2810 PUSH1 0x1 PUSH1 0x1 PUSH1 0xA0 SHL SUB PUSH32 0x0 AND CALLER ADDRESS DUP5 PUSH2 0x366F JUMP JUMPDEST CALLER PUSH1 0x0 SWAP1 DUP2 MSTORE PUSH1 0x2 PUSH1 0x20 MSTORE PUSH1 0x40 DUP2 KECCAK256 DUP1 SLOAD DUP4 SWAP3 SWAP1 PUSH2 0x282F SWAP1 DUP5 SWAP1 PUSH2 0x4876 JUMP JUMPDEST SWAP1 SWAP2 SSTORE POP POP PUSH1 0x40 MLOAD DUP2 DUP2 MSTORE CALLER SWAP1 PUSH32 0x880138561F4BDF4C4463046399B16F8186186AD3F21982105D09E65905FAFB9B SWAP1 PUSH1 0x20 ADD PUSH2 0x1250 JUMP JUMPDEST PUSH1 0x0 DUP1 PUSH2 0x2871 PUSH2 0x2B3C JUMP JUMPDEST SWAP1 POP PUSH1 0x0 PUSH2 0x287D PUSH2 0xB9E JUMP JUMPDEST SWAP1 POP PUSH2 0x2893 PUSH2 0x2710 PUSH8 0xDE0B6B3A7640000 PUSH2 0x485F JUMP JUMPDEST PUSH1 0x13 SLOAD PUSH2 0x2238 SWAP1 PUSH2 0x2710 PUSH2 0x4833 JUMP JUMPDEST PUSH2 0x28AA PUSH2 0x3653 JUMP JUMPDEST PUSH1 0x0 DUP2 GT DUP1 ISZERO PUSH2 0x28C9 JUMPI POP CALLER PUSH1 0x0 SWAP1 DUP2 MSTORE PUSH1 0x2 PUSH1 0x20 MSTORE PUSH1 0x40 SWAP1 KECCAK256 SLOAD DUP2 GT ISZERO JUMPDEST PUSH2 0x290D JUMPI PUSH1 0x40 MLOAD PUSH3 0x461BCD PUSH1 0xE5 SHL DUP2 MSTORE PUSH1 0x20 PUSH1 0x4 DUP3 ADD MSTORE PUSH1 0x15 PUSH1 0x24 DUP3 ADD MSTORE PUSH21 0x1410D3D3109554D1141BDBDB0E881A5B9D985B1A59 PUSH1 0x5A SHL PUSH1 0x44 DUP3 ADD MSTORE PUSH1 0x64 ADD PUSH2 0x96B JUMP JUMPDEST CALLER PUSH1 0x0 SWAP1 DUP2 MSTORE PUSH1 0x2 PUSH1 0x20 MSTORE PUSH1 0x40 DUP2 KECCAK256 DUP1 SLOAD DUP4 SWAP3 SWAP1 PUSH2 0x292C SWAP1 DUP5 SWAP1 PUSH2 0x4833 JUMP JUMPDEST SWAP1 SWAP2 SSTORE POP POP CALLER PUSH1 0x0 SWAP1 DUP2 MSTORE PUSH1 0x4 PUSH1 0x20 MSTORE PUSH1 0x40 SWAP1 KECCAK256 SLOAD ISZERO PUSH2 0x2976 JUMPI PUSH8 0xDE0B6B3A7640000 PUSH2 0x2958 CALLER PUSH2 0xE3C JUMP JUMPDEST LT ISZERO PUSH2 0x2976 JUMPI PUSH1 0x40 MLOAD PUSH3 0x461BCD PUSH1 0xE5 SHL DUP2 MSTORE PUSH1 0x4 ADD PUSH2 0x96B SWAP1 PUSH2 0x48B3 JUMP JUMPDEST PUSH2 0x29AA PUSH1 0x1 PUSH1 0x1 PUSH1 0xA0 SHL SUB PUSH32 0x0 AND CALLER DUP4 PUSH2 0x3C48 JUMP JUMPDEST PUSH1 0x40 MLOAD DUP2 DUP2 MSTORE CALLER SWAP1 PUSH32 0xB1F9AFA3FB91753D83C90B2584137DE0980AEDCB24565BB6BE5A4A044394DA51 SWAP1 PUSH1 0x20 ADD PUSH2 0x1250 JUMP JUMPDEST PUSH2 0x29E4 PUSH2 0x3653 JUMP JUMPDEST PUSH1 0x0 DUP2 GT PUSH2 0x2A04 JUMPI PUSH1 0x40 MLOAD PUSH3 0x461BCD PUSH1 0xE5 SHL DUP2 MSTORE PUSH1 0x4 ADD PUSH2 0x96B SWAP1 PUSH2 0x47D8 JUMP JUMPDEST PUSH2 0x2A39 PUSH1 0x1 PUSH1 0x1 PUSH1 0xA0 SHL SUB PUSH32 0x0 AND CALLER ADDRESS DUP5 PUSH2 0x366F JUMP JUMPDEST CALLER PUSH1 0x0 SWAP1 DUP2 MSTORE PUSH1 0x1 PUSH1 0x20 MSTORE PUSH1 0x40 DUP2 KECCAK256 DUP1 SLOAD DUP4 SWAP3 SWAP1 PUSH2 0x2A58 SWAP1 DUP5 SWAP1 PUSH2 0x4876 JUMP JUMPDEST SWAP1 SWAP2 SSTORE POP POP PUSH1 0x40 MLOAD DUP2 DUP2 MSTORE CALLER SWAP1 PUSH32 0x92C5AA6131247B5349EBE4C0B884354154558790641067D72925AC93B11A7DE5 SWAP1 PUSH1 0x20 ADD PUSH2 0x1250 JUMP JUMPDEST PUSH1 0x40 MLOAD PUSH4 0x70A08231 PUSH1 0xE0 SHL DUP2 MSTORE ADDRESS PUSH1 0x4 DUP3 ADD MSTORE PUSH1 0x0 SWAP1 DUP2 SWAP1 DUP4 SWAP1 PUSH1 0x1 PUSH1 0x1 PUSH1 0xA0 SHL SUB PUSH32 0x0 AND SWAP1 PUSH4 0x70A08231 SWAP1 PUSH1 0x24 ADD JUMPDEST PUSH1 0x20 PUSH1 0x40 MLOAD DUP1 DUP4 SUB DUP2 DUP7 GAS STATICCALL ISZERO DUP1 ISZERO PUSH2 0x2AFB JUMPI RETURNDATASIZE PUSH1 0x0 DUP1 RETURNDATACOPY RETURNDATASIZE PUSH1 0x0 REVERT JUMPDEST POP POP POP POP PUSH1 0x40 MLOAD RETURNDATASIZE PUSH1 0x1F NOT PUSH1 0x1F DUP3 ADD AND DUP3 ADD DUP1 PUSH1 0x40 MSTORE POP DUP2 ADD SWAP1 PUSH2 0x2B1F SWAP2 SWAP1 PUSH2 0x4804 JUMP JUMPDEST PUSH2 0x2B29 SWAP2 SWAP1 PUSH2 0x4876 JUMP JUMPDEST SWAP1 POP PUSH2 0x2B35 DUP4 DUP3 PUSH2 0x36AB JUMP JUMPDEST SWAP4 SWAP3 POP POP POP JUMP JUMPDEST PUSH1 0x40 MLOAD PUSH4 0x70A08231 PUSH1 0xE0 SHL DUP2 MSTORE ADDRESS PUSH1 0x4 DUP3 ADD MSTORE PUSH1 0x0 SWAP1 DUP2 SWAP1 PUSH1 0x1 PUSH1 0x1 PUSH1 0xA0 SHL SUB PUSH32 0x0 AND SWAP1 PUSH4 0x70A08231 SWAP1 PUSH1 0x24 ADD PUSH1 0x20 PUSH1 0x40 MLOAD DUP1 DUP4 SUB DUP2 DUP7 GAS STATICCALL ISZERO DUP1 ISZERO PUSH2 0x2BA5 JUMPI RETURNDATASIZE PUSH1 0x0 DUP1 RETURNDATACOPY RETURNDATASIZE PUSH1 0x0 REVERT JUMPDEST POP POP POP POP PUSH1 0x40 MLOAD RETURNDATASIZE PUSH1 0x1F NOT PUSH1 0x1F DUP3 ADD AND DUP3 ADD DUP1 PUSH1 0x40 MSTORE POP DUP2 ADD SWAP1 PUSH2 0x2BC9 SWAP2 SWAP1 PUSH2 0x4804 JUMP JUMPDEST SWAP1 POP PUSH1 0x0 PUSH8 0xDE0B6B3A7640000 PUSH2 0x2BDE PUSH2 0x327A JUMP JUMPDEST PUSH1 0x9 SLOAD PUSH2 0x1193 SWAP2 SWAP1 PUSH2 0x485F JUMP JUMPDEST PUSH1 0x0 PUSH8 0xDE0B6B3A7640000 PUSH2 0x2BFF DUP4 PUSH2 0xF25 JUMP JUMPDEST LT SWAP3 SWAP2 POP POP JUMP JUMPDEST PUSH1 0x1 PUSH1 0x1 PUSH1 0xA0 SHL SUB DUP2 AND PUSH1 0x0 SWAP1 DUP2 MSTORE PUSH1 0x2 PUSH1 0x20 MSTORE PUSH1 0x40 DUP2 KECCAK256 SLOAD DUP2 SWAP1 PUSH2 0x2C2A DUP5 PUSH2 0xED1 JUMP JUMPDEST SWAP2 POP SWAP2 POP SWAP2 POP SWAP2 JUMP JUMPDEST PUSH2 0x2C3B PUSH2 0x3653 JUMP JUMPDEST PUSH1 0x0 DUP2 GT PUSH2 0x2C5B JUMPI PUSH1 0x40 MLOAD PUSH3 0x461BCD PUSH1 0xE5 SHL DUP2 MSTORE PUSH1 0x4 ADD PUSH2 0x96B SWAP1 PUSH2 0x47D8 JUMP JUMPDEST PUSH1 0x40 MLOAD PUSH4 0x70A08231 PUSH1 0xE0 SHL DUP2 MSTORE ADDRESS PUSH1 0x4 DUP3 ADD MSTORE DUP2 SWAP1 PUSH32 0x0 PUSH1 0x1 PUSH1 0x1 PUSH1 0xA0 SHL SUB AND SWAP1 PUSH4 0x70A08231 SWAP1 PUSH1 0x24 ADD PUSH1 0x20 PUSH1 0x40 MLOAD DUP1 DUP4 SUB DUP2 DUP7 GAS STATICCALL ISZERO DUP1 ISZERO PUSH2 0x2CC1 JUMPI RETURNDATASIZE PUSH1 0x0 DUP1 RETURNDATACOPY RETURNDATASIZE PUSH1 0x0 REVERT JUMPDEST POP POP POP POP PUSH1 0x40 MLOAD RETURNDATASIZE PUSH1 0x1F NOT PUSH1 0x1F DUP3 ADD AND DUP3 ADD DUP1 PUSH1 0x40 MSTORE POP DUP2 ADD SWAP1 PUSH2 0x2CE5 SWAP2 SWAP1 PUSH2 0x4804 JUMP JUMPDEST LT ISZERO PUSH2 0x2D33 JUMPI PUSH1 0x40 MLOAD PUSH3 0x461BCD PUSH1 0xE5 SHL DUP2 MSTORE PUSH1 0x20 PUSH1 0x4 DUP3 ADD MSTORE PUSH1 0x1F PUSH1 0x24 DUP3 ADD MSTORE PUSH32 0x50434F4C42555344506F6F6C3A20696E73756666696369656E74204255534400 PUSH1 0x44 DUP3 ADD MSTORE PUSH1 0x64 ADD PUSH2 0x96B JUMP JUMPDEST PUSH1 0x40 MLOAD PUSH4 0x2770A7EB PUSH1 0xE2 SHL DUP2 MSTORE PUSH1 0x1 PUSH1 0x1 PUSH1 0xA0 SHL SUB PUSH32 0x0 AND SWAP1 PUSH4 0x9DC29FAC SWAP1 PUSH2 0x2D81 SWAP1 CALLER SWAP1 DUP6 SWAP1 PUSH1 0x4 ADD PUSH2 0x4846 JUMP JUMPDEST PUSH1 0x0 PUSH1 0x40 MLOAD DUP1 DUP4 SUB DUP2 PUSH1 0x0 DUP8 DUP1 EXTCODESIZE ISZERO DUP1 ISZERO PUSH2 0x2D9B JUMPI PUSH1 0x0 DUP1 REVERT JUMPDEST POP GAS CALL ISZERO DUP1 ISZERO PUSH2 0x2DAF JUMPI RETURNDATASIZE PUSH1 0x0 DUP1 RETURNDATACOPY RETURNDATASIZE PUSH1 0x0 REVERT JUMPDEST POP PUSH2 0x2DE9 SWAP3 POP POP PUSH1 0x1 PUSH1 0x1 PUSH1 0xA0 SHL SUB PUSH32 0x0 AND SWAP1 POP CALLER DUP4 PUSH2 0x3C48 JUMP JUMPDEST PUSH1 0x40 DUP1 MLOAD DUP3 DUP2 MSTORE PUSH1 0x20 DUP2 ADD DUP4 SWAP1 MSTORE CALLER SWAP2 PUSH32 0x8041F45367F7CCEFD38C06AE22C296CA3AD95CF10BE3C54C81C11F849F105F2B SWAP2 ADD PUSH2 0x1250 JUMP JUMPDEST PUSH1 0x1 PUSH1 0x1 PUSH1 0xA0 SHL SUB DUP2 AND PUSH1 0x0 SWAP1 DUP2 MSTORE PUSH1 0x1 PUSH1 0x20 MSTORE PUSH1 0x40 DUP2 KECCAK256 SLOAD DUP2 SWAP1 PUSH2 0x2C2A DUP5 PUSH2 0x1270 JUMP JUMPDEST PUSH1 0x40 MLOAD PUSH4 0x70A08231 PUSH1 0xE0 SHL DUP2 MSTORE ADDRESS PUSH1 0x4 DUP3 ADD MSTORE PUSH1 0x0 SWAP1 DUP2 SWAP1 DUP4 SWAP1 PUSH1 0x1 PUSH1 0x1 PUSH1 0xA0 SHL SUB PUSH32 0x0 AND SWAP1 PUSH4 0x70A08231 SWAP1 PUSH1 0x24 ADD PUSH2 0x2ADE JUMP JUMPDEST PUSH2 0x2EA0 PUSH2 0x3653 JUMP JUMPDEST PUSH1 0x0 DUP2 GT DUP1 ISZERO PUSH2 0x2EBF JUMPI POP CALLER PUSH1 0x0 SWAP1 DUP2 MSTORE PUSH1 0x1 PUSH1 0x20 MSTORE PUSH1 0x40 SWAP1 KECCAK256 SLOAD DUP2 GT ISZERO JUMPDEST PUSH2 0x2F03 JUMPI PUSH1 0x40 MLOAD PUSH3 0x461BCD PUSH1 0xE5 SHL DUP2 MSTORE PUSH1 0x20 PUSH1 0x4 DUP3 ADD MSTORE PUSH1 0x15 PUSH1 0x24 DUP3 ADD MSTORE PUSH21 0x1410D3D3109554D1141BDBDB0E881A5B9D985B1A59 PUSH1 0x5A SHL PUSH1 0x44 DUP3 ADD MSTORE PUSH1 0x64 ADD PUSH2 0x96B JUMP JUMPDEST CALLER PUSH1 0x0 SWAP1 DUP2 MSTORE PUSH1 0x1 PUSH1 0x20 MSTORE PUSH1 0x40 DUP2 KECCAK256 DUP1 SLOAD DUP4 SWAP3 SWAP1 PUSH2 0x2F22 SWAP1 DUP5 SWAP1 PUSH2 0x4833 JUMP JUMPDEST SWAP1 SWAP2 SSTORE POP POP CALLER PUSH1 0x0 SWAP1 DUP2 MSTORE PUSH1 0x3 PUSH1 0x20 MSTORE PUSH1 0x40 SWAP1 KECCAK256 SLOAD ISZERO PUSH2 0x2F6C JUMPI PUSH8 0xDE0B6B3A7640000 PUSH2 0x2F4E CALLER PUSH2 0xF25 JUMP JUMPDEST LT ISZERO PUSH2 0x2F6C JUMPI PUSH1 0x40 MLOAD PUSH3 0x461BCD PUSH1 0xE5 SHL DUP2 MSTORE PUSH1 0x4 ADD PUSH2 0x96B SWAP1 PUSH2 0x48B3 JUMP JUMPDEST PUSH2 0x2FA0 PUSH1 0x1 PUSH1 0x1 PUSH1 0xA0 SHL SUB PUSH32 0x0 AND CALLER DUP4 PUSH2 0x3C48 JUMP JUMPDEST PUSH1 0x40 MLOAD DUP2 DUP2 MSTORE CALLER SWAP1 PUSH32 0x5F2AC0B7CA7309144E88EDEDC8FA236C0A7019BDC8C02AB6F6DB5095752E7CDC SWAP1 PUSH1 0x20 ADD PUSH2 0x1250 JUMP JUMPDEST PUSH1 0x0 PUSH2 0xBB6 PUSH2 0x3985 JUMP JUMPDEST PUSH2 0x2FE4 PUSH2 0x3653 JUMP JUMPDEST PUSH2 0x2FEC PUSH2 0x3C82 JUMP JUMPDEST PUSH1 0x0 DUP2 GT PUSH2 0x300C JUMPI PUSH1 0x40 MLOAD PUSH3 0x461BCD PUSH1 0xE5 SHL DUP2 MSTORE PUSH1 0x4 ADD PUSH2 0x96B SWAP1 PUSH2 0x47D8 JUMP JUMPDEST PUSH1 0x5 SLOAD CALLER PUSH1 0x0 SWAP1 DUP2 MSTORE PUSH1 0x3 PUSH1 0x20 MSTORE PUSH1 0x40 DUP2 KECCAK256 SLOAD SWAP1 SWAP2 PUSH8 0xDE0B6B3A7640000 SWAP2 PUSH2 0x3035 SWAP2 SWAP1 PUSH2 0x485F JUMP JUMPDEST PUSH2 0x303F SWAP2 SWAP1 PUSH2 0x489F JUMP JUMPDEST SWAP1 POP PUSH1 0x0 DUP2 DUP4 GT PUSH2 0x3050 JUMPI DUP3 PUSH2 0x3052 JUMP JUMPDEST DUP2 JUMPDEST SWAP1 POP PUSH1 0x0 PUSH1 0x5 SLOAD DUP3 PUSH8 0xDE0B6B3A7640000 PUSH2 0x306D SWAP2 SWAP1 PUSH2 0x485F JUMP JUMPDEST PUSH2 0x3077 SWAP2 SWAP1 PUSH2 0x489F JUMP JUMPDEST CALLER PUSH1 0x0 SWAP1 DUP2 MSTORE PUSH1 0x3 PUSH1 0x20 MSTORE PUSH1 0x40 DUP2 KECCAK256 DUP1 SLOAD SWAP3 SWAP4 POP DUP4 SWAP3 SWAP1 SWAP2 SWAP1 PUSH2 0x309B SWAP1 DUP5 SWAP1 PUSH2 0x4833 JUMP JUMPDEST SWAP3 POP POP DUP2 SWAP1 SSTORE POP DUP1 PUSH1 0x9 PUSH1 0x0 DUP3 DUP3 SLOAD PUSH2 0x30B4 SWAP2 SWAP1 PUSH2 0x4833 JUMP JUMPDEST SWAP1 SWAP2 SSTORE POP PUSH2 0x30EF SWAP1 POP PUSH1 0x1 PUSH1 0x1 PUSH1 0xA0 SHL SUB PUSH32 0x0 AND CALLER ADDRESS DUP6 PUSH2 0x366F JUMP JUMPDEST PUSH1 0x40 MLOAD DUP3 DUP2 MSTORE CALLER SWAP1 PUSH32 0xE2D5D60502594D615DD5827340647C7A7A88A014E9896FDEF12F6458B60C0432 SWAP1 PUSH1 0x20 ADD PUSH2 0xB79 JUMP JUMPDEST PUSH2 0x3129 PUSH2 0x3653 JUMP JUMPDEST PUSH2 0x3131 PUSH2 0x3B61 JUMP JUMPDEST PUSH1 0x0 DUP2 GT PUSH2 0x3151 JUMPI PUSH1 0x40 MLOAD PUSH3 0x461BCD PUSH1 0xE5 SHL DUP2 MSTORE PUSH1 0x4 ADD PUSH2 0x96B SWAP1 PUSH2 0x47D8 JUMP JUMPDEST PUSH1 0x6 SLOAD CALLER PUSH1 0x0 SWAP1 DUP2 MSTORE PUSH1 0x4 PUSH1 0x20 MSTORE PUSH1 0x40 DUP2 KECCAK256 SLOAD SWAP1 SWAP2 PUSH8 0xDE0B6B3A7640000 SWAP2 PUSH2 0x317A SWAP2 SWAP1 PUSH2 0x485F JUMP JUMPDEST PUSH2 0x3184 SWAP2 SWAP1 PUSH2 0x489F JUMP JUMPDEST SWAP1 POP PUSH1 0x0 DUP2 DUP4 GT PUSH2 0x3195 JUMPI DUP3 PUSH2 0x3197 JUMP JUMPDEST DUP2 JUMPDEST SWAP1 POP PUSH1 0x0 PUSH1 0x6 SLOAD DUP3 PUSH8 0xDE0B6B3A7640000 PUSH2 0x31B2 SWAP2 SWAP1 PUSH2 0x485F JUMP JUMPDEST PUSH2 0x31BC SWAP2 SWAP1 PUSH2 0x489F JUMP JUMPDEST CALLER PUSH1 0x0 SWAP1 DUP2 MSTORE PUSH1 0x4 PUSH1 0x20 MSTORE PUSH1 0x40 DUP2 KECCAK256 DUP1 SLOAD SWAP3 SWAP4 POP DUP4 SWAP3 SWAP1 SWAP2 SWAP1 PUSH2 0x31E0 SWAP1 DUP5 SWAP1 PUSH2 0x4833 JUMP JUMPDEST SWAP3 POP POP DUP2 SWAP1 SSTORE POP DUP1 PUSH1 0xA PUSH1 0x0 DUP3 DUP3 SLOAD PUSH2 0x31F9 SWAP2 SWAP1 PUSH2 0x4833 JUMP JUMPDEST SWAP1 SWAP2 SSTORE POP PUSH2 0x3234 SWAP1 POP PUSH1 0x1 PUSH1 0x1 PUSH1 0xA0 SHL SUB PUSH32 0x0 AND CALLER ADDRESS DUP6 PUSH2 0x366F JUMP JUMPDEST PUSH1 0x40 MLOAD DUP3 DUP2 MSTORE CALLER SWAP1 PUSH32 0xD79A2BC9877030756CD908ACBB64634D527091BE3EDEED80CDEA7ED4CF40BE05 SWAP1 PUSH1 0x20 ADD PUSH2 0xB79 JUMP JUMPDEST PUSH1 0x0 PUSH8 0xDE0B6B3A7640000 PUSH2 0x2BFF DUP4 PUSH2 0xE3C JUMP JUMPDEST PUSH1 0x0 PUSH1 0x7 SLOAD NUMBER GT PUSH2 0x328C JUMPI POP PUSH1 0x5 SLOAD SWAP1 JUMP JUMPDEST PUSH1 0x0 PUSH1 0x7 SLOAD NUMBER PUSH2 0x329C SWAP2 SWAP1 PUSH2 0x4833 JUMP JUMPDEST SWAP1 POP PUSH1 0x0 PUSH2 0x32AB PUSH1 0x5 SLOAD PUSH2 0x413A JUMP JUMPDEST SWAP1 POP PUSH1 0x0 PUSH2 0x32C1 DUP3 PUSH8 0xDE0B6B3A7640000 PUSH2 0x4876 JUMP JUMPDEST SWAP1 POP PUSH8 0xDE0B6B3A7640000 DUP4 DUP3 JUMPDEST DUP2 ISZERO PUSH2 0x3338 JUMPI PUSH2 0x32E0 PUSH1 0x2 DUP4 PUSH2 0x495B JUMP JUMPDEST PUSH1 0x1 SUB PUSH2 0x3307 JUMPI PUSH8 0xDE0B6B3A7640000 PUSH2 0x32FA DUP3 DUP6 PUSH2 0x485F JUMP JUMPDEST PUSH2 0x3304 SWAP2 SWAP1 PUSH2 0x489F JUMP JUMPDEST SWAP3 POP JUMPDEST PUSH8 0xDE0B6B3A7640000 PUSH2 0x331A DUP3 DUP1 PUSH2 0x485F JUMP JUMPDEST PUSH2 0x3324 SWAP2 SWAP1 PUSH2 0x489F JUMP JUMPDEST SWAP1 POP PUSH2 0x3331 PUSH1 0x2 DUP4 PUSH2 0x489F JUMP JUMPDEST SWAP2 POP PUSH2 0x32CF JUMP JUMPDEST PUSH8 0xDE0B6B3A7640000 DUP4 PUSH1 0x5 SLOAD PUSH2 0x278B SWAP2 SWAP1 PUSH2 0x485F JUMP JUMPDEST PUSH2 0x3357 PUSH2 0x3653 JUMP JUMPDEST PUSH2 0x335F PUSH2 0x3C82 JUMP JUMPDEST PUSH8 0xDE0B6B3A7640000 PUSH2 0x3371 DUP3 PUSH2 0xF25 JUMP JUMPDEST LT PUSH2 0x33BE JUMPI PUSH1 0x40 MLOAD PUSH3 0x461BCD PUSH1 0xE5 SHL DUP2 MSTORE PUSH1 0x20 PUSH1 0x4 DUP3 ADD MSTORE PUSH1 0x1E PUSH1 0x24 DUP3 ADD MSTORE PUSH32 0x50434F4C42555344506F6F6C3A206E6F74206C6971756964617461626C650000 PUSH1 0x44 DUP3 ADD MSTORE PUSH1 0x64 ADD PUSH2 0x96B JUMP JUMPDEST PUSH1 0x5 SLOAD PUSH1 0x1 PUSH1 0x1 PUSH1 0xA0 SHL SUB DUP3 AND PUSH1 0x0 SWAP1 DUP2 MSTORE PUSH1 0x3 PUSH1 0x20 MSTORE PUSH1 0x40 DUP2 KECCAK256 SLOAD SWAP1 SWAP2 PUSH8 0xDE0B6B3A7640000 SWAP2 PUSH2 0x33F0 SWAP2 SWAP1 PUSH2 0x485F JUMP JUMPDEST PUSH2 0x33FA SWAP2 SWAP1 PUSH2 0x489F JUMP JUMPDEST SWAP1 POP PUSH1 0x0 DUP2 GT DUP1 ISZERO PUSH2 0x3423 JUMPI POP PUSH1 0x1 PUSH1 0x1 PUSH1 0xA0 SHL SUB DUP3 AND PUSH1 0x0 SWAP1 DUP2 MSTORE PUSH1 0x1 PUSH1 0x20 MSTORE PUSH1 0x40 SWAP1 KECCAK256 SLOAD ISZERO ISZERO JUMPDEST PUSH2 0x3466 JUMPI PUSH1 0x40 MLOAD PUSH3 0x461BCD PUSH1 0xE5 SHL DUP2 MSTORE PUSH1 0x20 PUSH1 0x4 DUP3 ADD MSTORE PUSH1 0x14 PUSH1 0x24 DUP3 ADD MSTORE PUSH20 0x50434F4C42555344506F6F6C3A206E6F20706F73 PUSH1 0x60 SHL PUSH1 0x44 DUP3 ADD MSTORE PUSH1 0x64 ADD PUSH2 0x96B JUMP JUMPDEST PUSH1 0x5 SLOAD PUSH1 0x0 SWAP1 PUSH2 0x347E DUP4 PUSH8 0xDE0B6B3A7640000 PUSH2 0x485F JUMP JUMPDEST PUSH2 0x3488 SWAP2 SWAP1 PUSH2 0x489F JUMP JUMPDEST PUSH1 0x1 PUSH1 0x1 PUSH1 0xA0 SHL SUB DUP5 AND PUSH1 0x0 SWAP1 DUP2 MSTORE PUSH1 0x3 PUSH1 0x20 MSTORE PUSH1 0x40 DUP2 KECCAK256 DUP2 SWAP1 SSTORE PUSH1 0x9 DUP1 SLOAD SWAP3 SWAP4 POP DUP4 SWAP3 SWAP1 SWAP2 SWAP1 PUSH2 0x34BA SWAP1 DUP5 SWAP1 PUSH2 0x4833 JUMP JUMPDEST SWAP1 SWAP2 SSTORE POP POP PUSH1 0x1 PUSH1 0x1 PUSH1 0xA0 SHL SUB DUP4 AND PUSH1 0x0 SWAP1 DUP2 MSTORE PUSH1 0x1 PUSH1 0x20 MSTORE PUSH1 0x40 DUP2 KECCAK256 DUP1 SLOAD SWAP1 DUP3 SWAP1 SSTORE PUSH1 0x17 SLOAD SWAP1 SWAP2 SWAP1 PUSH2 0x2710 SWAP1 PUSH2 0x34F1 SWAP1 DUP3 PUSH2 0x4876 JUMP JUMPDEST PUSH2 0x34FB SWAP1 DUP5 PUSH2 0x485F JUMP JUMPDEST PUSH2 0x3505 SWAP2 SWAP1 PUSH2 0x489F JUMP JUMPDEST SWAP1 POP DUP2 DUP2 GT ISZERO PUSH2 0x3512 JUMPI POP DUP1 JUMPDEST PUSH1 0x0 PUSH2 0x351E DUP3 DUP5 PUSH2 0x4833 JUMP JUMPDEST SWAP1 POP PUSH2 0x3555 PUSH1 0x1 PUSH1 0x1 PUSH1 0xA0 SHL SUB PUSH32 0x0 AND CALLER ADDRESS DUP9 PUSH2 0x366F JUMP JUMPDEST DUP1 ISZERO PUSH2 0x35DC JUMPI PUSH1 0x40 MLOAD PUSH4 0x2770A7EB PUSH1 0xE2 SHL DUP2 MSTORE PUSH1 0x1 PUSH1 0x1 PUSH1 0xA0 SHL SUB PUSH32 0x0 AND SWAP1 PUSH4 0x9DC29FAC SWAP1 PUSH2 0x35A9 SWAP1 ADDRESS SWAP1 DUP6 SWAP1 PUSH1 0x4 ADD PUSH2 0x4846 JUMP JUMPDEST PUSH1 0x0 PUSH1 0x40 MLOAD DUP1 DUP4 SUB DUP2 PUSH1 0x0 DUP8 DUP1 EXTCODESIZE ISZERO DUP1 ISZERO PUSH2 0x35C3 JUMPI PUSH1 0x0 DUP1 REVERT JUMPDEST POP GAS CALL ISZERO DUP1 ISZERO PUSH2 0x35D7 JUMPI RETURNDATASIZE PUSH1 0x0 DUP1 RETURNDATACOPY RETURNDATASIZE PUSH1 0x0 REVERT JUMPDEST POP POP POP POP JUMPDEST PUSH2 0x3610 PUSH1 0x1 PUSH1 0x1 PUSH1 0xA0 SHL SUB PUSH32 0x0 AND CALLER DUP5 PUSH2 0x3C48 JUMP JUMPDEST PUSH1 0x40 DUP1 MLOAD DUP7 DUP2 MSTORE PUSH1 0x20 DUP2 ADD DUP5 SWAP1 MSTORE PUSH1 0x1 PUSH1 0x1 PUSH1 0xA0 SHL SUB DUP9 AND SWAP2 CALLER SWAP2 PUSH32 0x1DF8781BABB2CE0B72D80A0D4EB75715B3F84D14598B945EFFA23C678F239A53 SWAP2 ADD PUSH2 0x21D8 JUMP JUMPDEST PUSH2 0x365B PUSH2 0x42B6 JUMP JUMPDEST PUSH1 0x2 PUSH1 0x0 DUP1 MLOAD PUSH1 0x20 PUSH2 0x4A92 DUP4 CODECOPY DUP2 MLOAD SWAP2 MSTORE SSTORE JUMP JUMPDEST PUSH2 0x367D DUP5 DUP5 DUP5 DUP5 PUSH1 0x1 PUSH2 0x42E8 JUMP JUMPDEST PUSH2 0x36A5 JUMPI PUSH1 0x40 MLOAD PUSH4 0x5274AFE7 PUSH1 0xE0 SHL DUP2 MSTORE PUSH1 0x1 PUSH1 0x1 PUSH1 0xA0 SHL SUB DUP6 AND PUSH1 0x4 DUP3 ADD MSTORE PUSH1 0x24 ADD PUSH2 0x96B JUMP JUMPDEST POP POP POP POP JUMP JUMPDEST PUSH1 0x0 DUP1 PUSH2 0x36B8 DUP5 DUP5 PUSH2 0x4833 JUMP JUMPDEST SWAP1 POP DUP1 PUSH1 0x0 SUB PUSH2 0x36E5 JUMPI PUSH2 0x2710 PUSH1 0x19 SLOAD DUP6 PUSH2 0x36D3 SWAP2 SWAP1 PUSH2 0x485F JUMP JUMPDEST PUSH2 0x36DD SWAP2 SWAP1 PUSH2 0x489F JUMP JUMPDEST SWAP2 POP POP PUSH2 0xF11 JUMP JUMPDEST DUP3 PUSH1 0x0 DUP2 PUSH2 0x36FB DUP8 PUSH8 0xDE0B6B3A7640000 PUSH2 0x485F JUMP JUMPDEST PUSH2 0x3705 SWAP2 SWAP1 PUSH2 0x489F JUMP JUMPDEST SWAP1 POP PUSH1 0x0 PUSH2 0x3712 DUP3 PUSH2 0x435A JUMP JUMPDEST SWAP1 POP PUSH2 0x3728 PUSH2 0x2710 PUSH8 0xDE0B6B3A7640000 PUSH2 0x485F JUMP JUMPDEST PUSH1 0x1A SLOAD PUSH2 0x3735 DUP4 DUP11 PUSH2 0x485F JUMP JUMPDEST PUSH2 0x373F SWAP2 SWAP1 PUSH2 0x485F JUMP JUMPDEST PUSH2 0x3749 SWAP2 SWAP1 PUSH2 0x489F JUMP JUMPDEST SWAP5 POP DUP7 DUP6 GT ISZERO PUSH2 0x3757 JUMPI DUP7 SWAP5 POP JUMPDEST POP POP POP POP SWAP3 SWAP2 POP POP JUMP JUMPDEST PUSH1 0x1 PUSH1 0x1 PUSH1 0xA0 SHL SUB DUP3 AND PUSH1 0x0 SWAP1 DUP2 MSTORE PUSH1 0x1 PUSH1 0x20 MSTORE PUSH1 0x40 DUP2 KECCAK256 SLOAD DUP1 DUP3 SUB PUSH2 0x378B JUMPI PUSH1 0x0 SWAP2 POP POP PUSH2 0xF11 JUMP JUMPDEST PUSH1 0x40 MLOAD PUSH4 0x70A08231 PUSH1 0xE0 SHL DUP2 MSTORE ADDRESS PUSH1 0x4 DUP3 ADD MSTORE PUSH1 0x0 SWAP1 PUSH32 0x0 PUSH1 0x1 PUSH1 0x1 PUSH1 0xA0 SHL SUB AND SWAP1 PUSH4 0x70A08231 SWAP1 PUSH1 0x24 ADD PUSH1 0x20 PUSH1 0x40 MLOAD DUP1 DUP4 SUB DUP2 DUP7 GAS STATICCALL ISZERO DUP1 ISZERO PUSH2 0x37F2 JUMPI RETURNDATASIZE PUSH1 0x0 DUP1 RETURNDATACOPY RETURNDATASIZE PUSH1 0x0 REVERT JUMPDEST POP POP POP POP PUSH1 0x40 MLOAD RETURNDATASIZE PUSH1 0x1F NOT PUSH1 0x1F DUP3 ADD AND DUP3 ADD DUP1 PUSH1 0x40 MSTORE POP DUP2 ADD SWAP1 PUSH2 0x3816 SWAP2 SWAP1 PUSH2 0x4804 JUMP JUMPDEST PUSH1 0x40 MLOAD PUSH4 0x70A08231 PUSH1 0xE0 SHL DUP2 MSTORE ADDRESS PUSH1 0x4 DUP3 ADD MSTORE SWAP1 SWAP2 POP PUSH1 0x0 SWAP1 PUSH1 0x1 PUSH1 0x1 PUSH1 0xA0 SHL SUB PUSH32 0x0 AND SWAP1 PUSH4 0x70A08231 SWAP1 PUSH1 0x24 ADD PUSH1 0x20 PUSH1 0x40 MLOAD DUP1 DUP4 SUB DUP2 DUP7 GAS STATICCALL ISZERO DUP1 ISZERO PUSH2 0x3880 JUMPI RETURNDATASIZE PUSH1 0x0 DUP1 RETURNDATACOPY RETURNDATASIZE PUSH1 0x0 REVERT JUMPDEST POP POP POP POP PUSH1 0x40 MLOAD RETURNDATASIZE PUSH1 0x1F NOT PUSH1 0x1F DUP3 ADD AND DUP3 ADD DUP1 PUSH1 0x40 MSTORE POP DUP2 ADD SWAP1 PUSH2 0x38A4 SWAP2 SWAP1 PUSH2 0x4804 JUMP JUMPDEST SWAP1 POP DUP1 ISZERO DUP1 PUSH2 0x38B2 JUMPI POP DUP2 DUP6 GT JUMPDEST ISZERO PUSH2 0x38C3 JUMPI PUSH1 0x0 SWAP4 POP POP POP POP PUSH2 0xF11 JUMP JUMPDEST PUSH1 0x0 DUP6 PUSH2 0x38CF DUP9 PUSH2 0x1270 JUMP JUMPDEST PUSH2 0x38D9 SWAP2 SWAP1 PUSH2 0x4876 JUMP JUMPDEST SWAP1 POP DUP1 PUSH1 0x0 SUB PUSH2 0x38F1 JUMPI PUSH1 0x0 NOT SWAP5 POP POP POP POP POP PUSH2 0xF11 JUMP JUMPDEST PUSH1 0x0 PUSH2 0x38FD DUP8 DUP6 PUSH2 0x4833 JUMP JUMPDEST SWAP1 POP PUSH1 0x0 PUSH2 0x390B DUP3 DUP6 PUSH2 0x43A9 JUMP JUMPDEST PUSH2 0x3915 SWAP1 DUP8 PUSH2 0x485F JUMP JUMPDEST SWAP1 POP PUSH1 0x0 PUSH2 0x3927 PUSH4 0x5F5E100 DUP6 PUSH2 0x485F JUMP JUMPDEST SWAP1 POP DUP1 PUSH1 0x0 SUB PUSH2 0x3942 JUMPI PUSH1 0x0 NOT SWAP8 POP POP POP POP POP POP POP POP PUSH2 0xF11 JUMP JUMPDEST PUSH2 0x394E PUSH2 0x2710 DUP3 PUSH2 0x485F JUMP JUMPDEST PUSH1 0x15 SLOAD PUSH2 0x395B SWAP1 DUP5 PUSH2 0x485F JUMP JUMPDEST PUSH2 0x396D SWAP1 PUSH8 0xDE0B6B3A7640000 PUSH2 0x485F JUMP JUMPDEST PUSH2 0x3977 SWAP2 SWAP1 PUSH2 0x489F JUMP JUMPDEST SWAP11 SWAP10 POP POP POP POP POP POP POP POP POP POP JUMP JUMPDEST PUSH1 0x0 DUP1 PUSH1 0x0 PUSH2 0x3992 PUSH2 0x44FF JUMP JUMPDEST SWAP2 POP SWAP2 POP DUP2 PUSH1 0x0 SUB PUSH2 0x39A7 JUMPI PUSH1 0x0 SWAP3 POP POP POP SWAP1 JUMP JUMPDEST PUSH1 0x0 PUSH32 0x0 PUSH1 0x1 PUSH1 0x1 PUSH1 0xA0 SHL SUB AND PUSH4 0x313CE567 PUSH1 0x40 MLOAD DUP2 PUSH4 0xFFFFFFFF AND PUSH1 0xE0 SHL DUP2 MSTORE PUSH1 0x4 ADD PUSH1 0x20 PUSH1 0x40 MLOAD DUP1 DUP4 SUB DUP2 DUP7 GAS STATICCALL ISZERO DUP1 ISZERO PUSH2 0x3A07 JUMPI RETURNDATASIZE PUSH1 0x0 DUP1 RETURNDATACOPY RETURNDATASIZE PUSH1 0x0 REVERT JUMPDEST POP POP POP POP PUSH1 0x40 MLOAD RETURNDATASIZE PUSH1 0x1F NOT PUSH1 0x1F DUP3 ADD AND DUP3 ADD DUP1 PUSH1 0x40 MSTORE POP DUP2 ADD SWAP1 PUSH2 0x3A2B SWAP2 SWAP1 PUSH2 0x496F JUMP JUMPDEST SWAP1 POP PUSH1 0x0 PUSH32 0x0 PUSH1 0x1 PUSH1 0x1 PUSH1 0xA0 SHL SUB AND PUSH4 0x313CE567 PUSH1 0x40 MLOAD DUP2 PUSH4 0xFFFFFFFF AND PUSH1 0xE0 SHL DUP2 MSTORE PUSH1 0x4 ADD PUSH1 0x20 PUSH1 0x40 MLOAD DUP1 DUP4 SUB DUP2 DUP7 GAS STATICCALL ISZERO DUP1 ISZERO PUSH2 0x3A8D JUMPI RETURNDATASIZE PUSH1 0x0 DUP1 RETURNDATACOPY RETURNDATASIZE PUSH1 0x0 REVERT JUMPDEST POP POP POP POP PUSH1 0x40 MLOAD RETURNDATASIZE PUSH1 0x1F NOT PUSH1 0x1F DUP3 ADD AND DUP3 ADD DUP1 PUSH1 0x40 MSTORE POP DUP2 ADD SWAP1 PUSH2 0x3AB1 SWAP2 SWAP1 PUSH2 0x496F JUMP JUMPDEST SWAP1 POP PUSH2 0x3ABE DUP2 PUSH1 0xA PUSH2 0x4A76 JUMP JUMPDEST PUSH2 0x3AC8 SWAP1 DUP6 PUSH2 0x485F JUMP JUMPDEST PUSH2 0x3AD6 PUSH1 0xFF DUP5 AND PUSH1 0x8 PUSH2 0x4876 JUMP JUMPDEST PUSH2 0x3AE1 SWAP1 PUSH1 0xA PUSH2 0x4A85 JUMP JUMPDEST PUSH2 0x3AEB SWAP1 DUP6 PUSH2 0x485F JUMP JUMPDEST PUSH2 0x3AF5 SWAP2 SWAP1 PUSH2 0x489F JUMP JUMPDEST SWAP5 POP POP POP POP POP SWAP1 JUMP JUMPDEST PUSH1 0x1 PUSH1 0x1 PUSH1 0xA0 SHL SUB DUP2 AND PUSH1 0x0 SWAP1 DUP2 MSTORE PUSH1 0x2 PUSH1 0x20 MSTORE PUSH1 0x40 DUP2 KECCAK256 SLOAD PUSH2 0xF11 SWAP1 PUSH4 0x5F5E100 SWAP1 PUSH2 0x485F JUMP JUMPDEST PUSH1 0x1 PUSH1 0x1 PUSH1 0xA0 SHL SUB DUP2 AND PUSH1 0x0 SWAP1 DUP2 MSTORE PUSH1 0x1 PUSH1 0x20 MSTORE PUSH1 0x40 DUP2 KECCAK256 SLOAD DUP1 DUP3 SUB PUSH2 0x3B4F JUMPI POP PUSH1 0x0 SWAP3 SWAP2 POP POP JUMP JUMPDEST PUSH2 0x3B57 PUSH2 0x3985 JUMP JUMPDEST PUSH2 0x2B35 SWAP1 DUP3 PUSH2 0x485F JUMP JUMPDEST PUSH1 0x8 SLOAD NUMBER GT PUSH2 0x3B6C JUMPI JUMP JUMPDEST PUSH1 0x0 PUSH1 0x8 SLOAD NUMBER PUSH2 0x3B7C SWAP2 SWAP1 PUSH2 0x4833 JUMP JUMPDEST SWAP1 POP PUSH1 0x0 PUSH2 0x3B8B PUSH1 0x6 SLOAD PUSH2 0x3F93 JUMP JUMPDEST SWAP1 POP PUSH1 0x0 PUSH2 0x3BA1 DUP3 PUSH8 0xDE0B6B3A7640000 PUSH2 0x4876 JUMP JUMPDEST SWAP1 POP PUSH8 0xDE0B6B3A7640000 DUP4 DUP3 JUMPDEST DUP2 ISZERO PUSH2 0x3C18 JUMPI PUSH2 0x3BC0 PUSH1 0x2 DUP4 PUSH2 0x495B JUMP JUMPDEST PUSH1 0x1 SUB PUSH2 0x3BE7 JUMPI PUSH8 0xDE0B6B3A7640000 PUSH2 0x3BDA DUP3 DUP6 PUSH2 0x485F JUMP JUMPDEST PUSH2 0x3BE4 SWAP2 SWAP1 PUSH2 0x489F JUMP JUMPDEST SWAP3 POP JUMPDEST PUSH8 0xDE0B6B3A7640000 PUSH2 0x3BFA DUP3 DUP1 PUSH2 0x485F JUMP JUMPDEST PUSH2 0x3C04 SWAP2 SWAP1 PUSH2 0x489F JUMP JUMPDEST SWAP1 POP PUSH2 0x3C11 PUSH1 0x2 DUP4 PUSH2 0x489F JUMP JUMPDEST SWAP2 POP PUSH2 0x3BAF JUMP JUMPDEST PUSH8 0xDE0B6B3A7640000 DUP4 PUSH1 0x6 SLOAD PUSH2 0x3C2F SWAP2 SWAP1 PUSH2 0x485F JUMP JUMPDEST PUSH2 0x3C39 SWAP2 SWAP1 PUSH2 0x489F JUMP JUMPDEST PUSH1 0x6 SSTORE POP POP NUMBER PUSH1 0x8 SSTORE POP POP POP POP JUMP JUMPDEST PUSH2 0x3C55 DUP4 DUP4 DUP4 PUSH1 0x1 PUSH2 0x461D JUMP JUMPDEST PUSH2 0x3C7D JUMPI PUSH1 0x40 MLOAD PUSH4 0x5274AFE7 PUSH1 0xE0 SHL DUP2 MSTORE PUSH1 0x1 PUSH1 0x1 PUSH1 0xA0 SHL SUB DUP5 AND PUSH1 0x4 DUP3 ADD MSTORE PUSH1 0x24 ADD PUSH2 0x96B JUMP JUMPDEST POP POP POP JUMP JUMPDEST PUSH1 0x7 SLOAD NUMBER GT PUSH2 0x3C8D JUMPI JUMP JUMPDEST PUSH1 0x0 PUSH1 0x7 SLOAD NUMBER PUSH2 0x3C9D SWAP2 SWAP1 PUSH2 0x4833 JUMP JUMPDEST SWAP1 POP PUSH1 0x0 PUSH2 0x3CAC PUSH1 0x5 SLOAD PUSH2 0x413A JUMP JUMPDEST SWAP1 POP PUSH1 0x0 PUSH2 0x3CC2 DUP3 PUSH8 0xDE0B6B3A7640000 PUSH2 0x4876 JUMP JUMPDEST SWAP1 POP PUSH8 0xDE0B6B3A7640000 DUP4 DUP3 JUMPDEST DUP2 ISZERO PUSH2 0x3D39 JUMPI PUSH2 0x3CE1 PUSH1 0x2 DUP4 PUSH2 0x495B JUMP JUMPDEST PUSH1 0x1 SUB PUSH2 0x3D08 JUMPI PUSH8 0xDE0B6B3A7640000 PUSH2 0x3CFB DUP3 DUP6 PUSH2 0x485F JUMP JUMPDEST PUSH2 0x3D05 SWAP2 SWAP1 PUSH2 0x489F JUMP JUMPDEST SWAP3 POP JUMPDEST PUSH8 0xDE0B6B3A7640000 PUSH2 0x3D1B DUP3 DUP1 PUSH2 0x485F JUMP JUMPDEST PUSH2 0x3D25 SWAP2 SWAP1 PUSH2 0x489F JUMP JUMPDEST SWAP1 POP PUSH2 0x3D32 PUSH1 0x2 DUP4 PUSH2 0x489F JUMP JUMPDEST SWAP2 POP PUSH2 0x3CD0 JUMP JUMPDEST PUSH8 0xDE0B6B3A7640000 DUP4 PUSH1 0x5 SLOAD PUSH2 0x3D50 SWAP2 SWAP1 PUSH2 0x485F JUMP JUMPDEST PUSH2 0x3D5A SWAP2 SWAP1 PUSH2 0x489F JUMP JUMPDEST PUSH1 0x5 SSTORE POP POP NUMBER PUSH1 0x7 SSTORE POP POP POP POP JUMP JUMPDEST PUSH1 0x1 PUSH1 0x1 PUSH1 0xA0 SHL SUB DUP3 AND PUSH1 0x0 SWAP1 DUP2 MSTORE PUSH1 0x2 PUSH1 0x20 MSTORE PUSH1 0x40 DUP2 KECCAK256 SLOAD DUP1 DUP3 SUB PUSH2 0x3D93 JUMPI PUSH1 0x0 SWAP2 POP POP PUSH2 0xF11 JUMP JUMPDEST PUSH1 0x40 MLOAD PUSH4 0x70A08231 PUSH1 0xE0 SHL DUP2 MSTORE ADDRESS PUSH1 0x4 DUP3 ADD MSTORE PUSH1 0x0 SWAP1 PUSH32 0x0 PUSH1 0x1 PUSH1 0x1 PUSH1 0xA0 SHL SUB AND SWAP1 PUSH4 0x70A08231 SWAP1 PUSH1 0x24 ADD PUSH1 0x20 PUSH1 0x40 MLOAD DUP1 DUP4 SUB DUP2 DUP7 GAS STATICCALL ISZERO DUP1 ISZERO PUSH2 0x3DFA JUMPI RETURNDATASIZE PUSH1 0x0 DUP1 RETURNDATACOPY RETURNDATASIZE PUSH1 0x0 REVERT JUMPDEST POP POP POP POP PUSH1 0x40 MLOAD RETURNDATASIZE PUSH1 0x1F NOT PUSH1 0x1F DUP3 ADD AND DUP3 ADD DUP1 PUSH1 0x40 MSTORE POP DUP2 ADD SWAP1 PUSH2 0x3E1E SWAP2 SWAP1 PUSH2 0x4804 JUMP JUMPDEST PUSH1 0x40 MLOAD PUSH4 0x70A08231 PUSH1 0xE0 SHL DUP2 MSTORE ADDRESS PUSH1 0x4 DUP3 ADD MSTORE SWAP1 SWAP2 POP PUSH1 0x0 SWAP1 PUSH1 0x1 PUSH1 0x1 PUSH1 0xA0 SHL SUB PUSH32 0x0 AND SWAP1 PUSH4 0x70A08231 SWAP1 PUSH1 0x24 ADD PUSH1 0x20 PUSH1 0x40 MLOAD DUP1 DUP4 SUB DUP2 DUP7 GAS STATICCALL ISZERO DUP1 ISZERO PUSH2 0x3E88 JUMPI RETURNDATASIZE PUSH1 0x0 DUP1 RETURNDATACOPY RETURNDATASIZE PUSH1 0x0 REVERT JUMPDEST POP POP POP POP PUSH1 0x40 MLOAD RETURNDATASIZE PUSH1 0x1F NOT PUSH1 0x1F DUP3 ADD AND DUP3 ADD DUP1 PUSH1 0x40 MSTORE POP DUP2 ADD SWAP1 PUSH2 0x3EAC SWAP2 SWAP1 PUSH2 0x4804 JUMP JUMPDEST SWAP1 POP DUP2 ISZERO DUP1 PUSH2 0x3EBA JUMPI POP DUP1 DUP6 GT JUMPDEST ISZERO PUSH2 0x3ECB JUMPI PUSH1 0x0 SWAP4 POP POP POP POP PUSH2 0xF11 JUMP JUMPDEST PUSH1 0x0 DUP6 PUSH2 0x3ED7 DUP9 PUSH2 0xED1 JUMP JUMPDEST PUSH2 0x3EE1 SWAP2 SWAP1 PUSH2 0x4876 JUMP JUMPDEST SWAP1 POP DUP1 PUSH1 0x0 SUB PUSH2 0x3EF9 JUMPI PUSH1 0x0 NOT SWAP5 POP POP POP POP POP PUSH2 0xF11 JUMP JUMPDEST PUSH1 0x0 PUSH2 0x3F05 DUP8 DUP5 PUSH2 0x4833 JUMP JUMPDEST SWAP1 POP PUSH1 0x0 PUSH2 0x3F13 DUP6 DUP4 PUSH2 0x43A9 JUMP JUMPDEST SWAP1 POP PUSH1 0x0 PUSH2 0x3F25 PUSH4 0x5F5E100 DUP9 PUSH2 0x485F JUMP JUMPDEST SWAP1 POP PUSH1 0x0 PUSH2 0x3F33 DUP4 DUP7 PUSH2 0x485F JUMP JUMPDEST SWAP1 POP DUP1 PUSH1 0x0 SUB PUSH2 0x3F4F JUMPI PUSH1 0x0 NOT SWAP9 POP POP POP POP POP POP POP POP POP PUSH2 0xF11 JUMP JUMPDEST PUSH2 0x3F5B PUSH2 0x2710 DUP3 PUSH2 0x485F JUMP JUMPDEST PUSH1 0x16 SLOAD PUSH2 0x3F68 SWAP1 DUP5 PUSH2 0x485F JUMP JUMPDEST PUSH2 0x3F7A SWAP1 PUSH8 0xDE0B6B3A7640000 PUSH2 0x485F JUMP JUMPDEST PUSH2 0x3F84 SWAP2 SWAP1 PUSH2 0x489F JUMP JUMPDEST SWAP12 SWAP11 POP POP POP POP POP POP POP POP POP POP POP JUMP JUMPDEST PUSH1 0x40 MLOAD PUSH4 0x70A08231 PUSH1 0xE0 SHL DUP2 MSTORE ADDRESS PUSH1 0x4 DUP3 ADD MSTORE PUSH1 0x0 SWAP1 DUP2 SWAP1 PUSH1 0x1 PUSH1 0x1 PUSH1 0xA0 SHL SUB PUSH32 0x0 AND SWAP1 PUSH4 0x70A08231 SWAP1 PUSH1 0x24 ADD PUSH1 0x20 PUSH1 0x40 MLOAD DUP1 DUP4 SUB DUP2 DUP7 GAS STATICCALL ISZERO DUP1 ISZERO PUSH2 0x3FFC JUMPI RETURNDATASIZE PUSH1 0x0 DUP1 RETURNDATACOPY RETURNDATASIZE PUSH1 0x0 REVERT JUMPDEST POP POP POP POP PUSH1 0x40 MLOAD RETURNDATASIZE PUSH1 0x1F NOT PUSH1 0x1F DUP3 ADD AND DUP3 ADD DUP1 PUSH1 0x40 MSTORE POP DUP2 ADD SWAP1 PUSH2 0x4020 SWAP2 SWAP1 PUSH2 0x4804 JUMP JUMPDEST SWAP1 POP PUSH1 0x0 PUSH8 0xDE0B6B3A7640000 DUP5 PUSH1 0xA SLOAD PUSH2 0x403B SWAP2 SWAP1 PUSH2 0x485F JUMP JUMPDEST PUSH2 0x4045 SWAP2 SWAP1 PUSH2 0x489F JUMP JUMPDEST SWAP1 POP PUSH1 0x0 PUSH2 0x4053 DUP3 DUP5 PUSH2 0x4876 JUMP JUMPDEST SWAP1 POP PUSH1 0x0 DUP2 ISZERO PUSH2 0x407F JUMPI DUP2 PUSH2 0x4070 DUP5 PUSH8 0xDE0B6B3A7640000 PUSH2 0x485F JUMP JUMPDEST PUSH2 0x407A SWAP2 SWAP1 PUSH2 0x489F JUMP JUMPDEST PUSH2 0x4082 JUMP JUMPDEST PUSH1 0x0 JUMPDEST PUSH1 0x12 SLOAD SWAP1 SWAP2 POP DUP1 DUP3 GT PUSH2 0x40C8 JUMPI PUSH8 0xDE0B6B3A7640000 DUP3 PUSH1 0x10 SLOAD PUSH2 0x40A6 SWAP2 SWAP1 PUSH2 0x485F JUMP JUMPDEST PUSH2 0x40B0 SWAP2 SWAP1 PUSH2 0x489F JUMP JUMPDEST PUSH1 0xF SLOAD PUSH2 0x40BD SWAP2 SWAP1 PUSH2 0x4876 JUMP JUMPDEST SWAP8 SWAP7 POP POP POP POP POP POP POP JUMP JUMPDEST PUSH1 0x0 PUSH8 0xDE0B6B3A7640000 DUP3 PUSH1 0x10 SLOAD PUSH2 0x40E1 SWAP2 SWAP1 PUSH2 0x485F JUMP JUMPDEST PUSH2 0x40EB SWAP2 SWAP1 PUSH2 0x489F JUMP JUMPDEST PUSH1 0xF SLOAD PUSH2 0x40F8 SWAP2 SWAP1 PUSH2 0x4876 JUMP JUMPDEST SWAP1 POP PUSH8 0xDE0B6B3A7640000 PUSH2 0x410D DUP4 DUP6 PUSH2 0x4833 JUMP JUMPDEST PUSH1 0x11 SLOAD PUSH2 0x411A SWAP2 SWAP1 PUSH2 0x485F JUMP JUMPDEST PUSH2 0x4124 SWAP2 SWAP1 PUSH2 0x489F JUMP JUMPDEST PUSH2 0x412E SWAP1 DUP3 PUSH2 0x4876 JUMP JUMPDEST SWAP9 SWAP8 POP POP POP POP POP POP POP POP JUMP JUMPDEST PUSH1 0x40 MLOAD PUSH4 0x70A08231 PUSH1 0xE0 SHL DUP2 MSTORE ADDRESS PUSH1 0x4 DUP3 ADD MSTORE PUSH1 0x0 SWAP1 DUP2 SWAP1 PUSH1 0x1 PUSH1 0x1 PUSH1 0xA0 SHL SUB PUSH32 0x0 AND SWAP1 PUSH4 0x70A08231 SWAP1 PUSH1 0x24 ADD PUSH1 0x20 PUSH1 0x40 MLOAD DUP1 DUP4 SUB DUP2 DUP7 GAS STATICCALL ISZERO DUP1 ISZERO PUSH2 0x41A3 JUMPI RETURNDATASIZE PUSH1 0x0 DUP1 RETURNDATACOPY RETURNDATASIZE PUSH1 0x0 REVERT JUMPDEST POP POP POP POP PUSH1 0x40 MLOAD RETURNDATASIZE PUSH1 0x1F NOT PUSH1 0x1F DUP3 ADD AND DUP3 ADD DUP1 PUSH1 0x40 MSTORE POP DUP2 ADD SWAP1 PUSH2 0x41C7 SWAP2 SWAP1 PUSH2 0x4804 JUMP JUMPDEST SWAP1 POP PUSH1 0x0 PUSH8 0xDE0B6B3A7640000 DUP5 PUSH1 0x9 SLOAD PUSH2 0x41E2 SWAP2 SWAP1 PUSH2 0x485F JUMP JUMPDEST PUSH2 0x41EC SWAP2 SWAP1 PUSH2 0x489F JUMP JUMPDEST SWAP1 POP PUSH1 0x0 PUSH2 0x41FA DUP3 DUP5 PUSH2 0x4876 JUMP JUMPDEST SWAP1 POP PUSH1 0x0 DUP2 ISZERO PUSH2 0x4226 JUMPI DUP2 PUSH2 0x4217 DUP5 PUSH8 0xDE0B6B3A7640000 PUSH2 0x485F JUMP JUMPDEST PUSH2 0x4221 SWAP2 SWAP1 PUSH2 0x489F JUMP JUMPDEST PUSH2 0x4229 JUMP JUMPDEST PUSH1 0x0 JUMPDEST PUSH1 0xE SLOAD SWAP1 SWAP2 POP DUP1 DUP3 GT PUSH2 0x4264 JUMPI PUSH8 0xDE0B6B3A7640000 DUP3 PUSH1 0xC SLOAD PUSH2 0x424D SWAP2 SWAP1 PUSH2 0x485F JUMP JUMPDEST PUSH2 0x4257 SWAP2 SWAP1 PUSH2 0x489F JUMP JUMPDEST PUSH1 0xB SLOAD PUSH2 0x40BD SWAP2 SWAP1 PUSH2 0x4876 JUMP JUMPDEST PUSH1 0x0 PUSH8 0xDE0B6B3A7640000 DUP3 PUSH1 0xC SLOAD PUSH2 0x427D SWAP2 SWAP1 PUSH2 0x485F JUMP JUMPDEST PUSH2 0x4287 SWAP2 SWAP1 PUSH2 0x489F JUMP JUMPDEST PUSH1 0xB SLOAD PUSH2 0x4294 SWAP2 SWAP1 PUSH2 0x4876 JUMP JUMPDEST SWAP1 POP PUSH8 0xDE0B6B3A7640000 PUSH2 0x42A9 DUP4 DUP6 PUSH2 0x4833 JUMP JUMPDEST PUSH1 0xD SLOAD PUSH2 0x411A SWAP2 SWAP1 PUSH2 0x485F JUMP JUMPDEST PUSH1 0x0 DUP1 MLOAD PUSH1 0x20 PUSH2 0x4A92 DUP4 CODECOPY DUP2 MLOAD SWAP2 MSTORE SLOAD PUSH1 0x2 SUB PUSH2 0x42E6 JUMPI PUSH1 0x40 MLOAD PUSH4 0x3EE5AEB5 PUSH1 0xE0 SHL DUP2 MSTORE PUSH1 0x4 ADD PUSH1 0x40 MLOAD DUP1 SWAP2 SUB SWAP1 REVERT JUMPDEST JUMP JUMPDEST PUSH1 0x40 MLOAD PUSH4 0x23B872DD PUSH1 0xE0 SHL PUSH1 0x0 DUP2 DUP2 MSTORE PUSH1 0x1 PUSH1 0x1 PUSH1 0xA0 SHL SUB DUP8 DUP2 AND PUSH1 0x4 MSTORE DUP7 AND PUSH1 0x24 MSTORE PUSH1 0x44 DUP6 SWAP1 MSTORE SWAP2 PUSH1 0x20 DUP4 PUSH1 0x64 DUP2 DUP1 DUP13 GAS CALL SWAP3 POP PUSH1 0x1 PUSH1 0x0 MLOAD EQ DUP4 AND PUSH2 0x4348 JUMPI DUP4 DUP4 ISZERO AND ISZERO PUSH2 0x433B JUMPI RETURNDATASIZE PUSH1 0x0 DUP3 RETURNDATACOPY RETURNDATASIZE DUP2 REVERT JUMPDEST PUSH1 0x0 DUP9 EXTCODESIZE GT RETURNDATASIZE ISZERO AND DUP4 AND SWAP3 POP JUMPDEST PUSH1 0x40 MSTORE POP PUSH1 0x0 PUSH1 0x60 MSTORE SWAP6 SWAP5 POP POP POP POP POP JUMP JUMPDEST PUSH1 0x0 DUP2 PUSH1 0x0 SUB PUSH2 0x436C JUMPI POP PUSH1 0x0 SWAP2 SWAP1 POP JUMP JUMPDEST PUSH1 0x0 PUSH2 0x4377 DUP4 PUSH2 0x4683 JUMP JUMPDEST SWAP1 POP PUSH1 0x0 PUSH2 0x4391 PUSH2 0x438C DUP4 PUSH4 0x3B9ACA00 PUSH2 0x485F JUMP JUMPDEST PUSH2 0x4683 JUMP JUMPDEST SWAP1 POP PUSH2 0x43A1 DUP2 PUSH4 0x3B9ACA00 PUSH2 0x485F JUMP JUMPDEST SWAP5 SWAP4 POP POP POP POP JUMP JUMPDEST PUSH1 0x0 DUP2 PUSH1 0x0 SUB PUSH2 0x43BB JUMPI POP PUSH1 0x0 PUSH2 0xF11 JUMP JUMPDEST PUSH1 0x0 PUSH32 0x0 PUSH1 0x1 PUSH1 0x1 PUSH1 0xA0 SHL SUB AND PUSH4 0x313CE567 PUSH1 0x40 MLOAD DUP2 PUSH4 0xFFFFFFFF AND PUSH1 0xE0 SHL DUP2 MSTORE PUSH1 0x4 ADD PUSH1 0x20 PUSH1 0x40 MLOAD DUP1 DUP4 SUB DUP2 DUP7 GAS STATICCALL ISZERO DUP1 ISZERO PUSH2 0x441B JUMPI RETURNDATASIZE PUSH1 0x0 DUP1 RETURNDATACOPY RETURNDATASIZE PUSH1 0x0 REVERT JUMPDEST POP POP POP POP PUSH1 0x40 MLOAD RETURNDATASIZE PUSH1 0x1F NOT PUSH1 0x1F DUP3 ADD AND DUP3 ADD DUP1 PUSH1 0x40 MSTORE POP DUP2 ADD SWAP1 PUSH2 0x443F SWAP2 SWAP1 PUSH2 0x496F JUMP JUMPDEST SWAP1 POP PUSH1 0x0 PUSH32 0x0 PUSH1 0x1 PUSH1 0x1 PUSH1 0xA0 SHL SUB AND PUSH4 0x313CE567 PUSH1 0x40 MLOAD DUP2 PUSH4 0xFFFFFFFF AND PUSH1 0xE0 SHL DUP2 MSTORE PUSH1 0x4 ADD PUSH1 0x20 PUSH1 0x40 MLOAD DUP1 DUP4 SUB DUP2 DUP7 GAS STATICCALL ISZERO DUP1 ISZERO PUSH2 0x44A1 JUMPI RETURNDATASIZE PUSH1 0x0 DUP1 RETURNDATACOPY RETURNDATASIZE PUSH1 0x0 REVERT JUMPDEST POP POP POP POP PUSH1 0x40 MLOAD RETURNDATASIZE PUSH1 0x1F NOT PUSH1 0x1F DUP3 ADD AND DUP3 ADD DUP1 PUSH1 0x40 MSTORE POP DUP2 ADD SWAP1 PUSH2 0x44C5 SWAP2 SWAP1 PUSH2 0x496F JUMP JUMPDEST SWAP1 POP PUSH2 0x44D2 DUP2 PUSH1 0xA PUSH2 0x4A76 JUMP JUMPDEST PUSH2 0x44DC SWAP1 DUP6 PUSH2 0x485F JUMP JUMPDEST PUSH2 0x44EA PUSH1 0xFF DUP5 AND PUSH1 0x8 PUSH2 0x4876 JUMP JUMPDEST PUSH2 0x44F5 SWAP1 PUSH1 0xA PUSH2 0x4A85 JUMP JUMPDEST PUSH2 0xEBE SWAP1 DUP8 PUSH2 0x485F JUMP JUMPDEST PUSH1 0x40 MLOAD PUSH4 0x70A08231 PUSH1 0xE0 SHL DUP2 MSTORE ADDRESS PUSH1 0x4 DUP3 ADD MSTORE PUSH1 0x0 SWAP1 DUP2 SWAP1 PUSH1 0x1 PUSH1 0x1 PUSH1 0xA0 SHL SUB PUSH32 0x0 AND SWAP1 PUSH4 0x70A08231 SWAP1 PUSH1 0x24 ADD PUSH1 0x20 PUSH1 0x40 MLOAD DUP1 DUP4 SUB DUP2 DUP7 GAS STATICCALL ISZERO DUP1 ISZERO PUSH2 0x4568 JUMPI RETURNDATASIZE PUSH1 0x0 DUP1 RETURNDATACOPY RETURNDATASIZE PUSH1 0x0 REVERT JUMPDEST POP POP POP POP PUSH1 0x40 MLOAD RETURNDATASIZE PUSH1 0x1F NOT PUSH1 0x1F DUP3 ADD AND DUP3 ADD DUP1 PUSH1 0x40 MSTORE POP DUP2 ADD SWAP1 PUSH2 0x458C SWAP2 SWAP1 PUSH2 0x4804 JUMP JUMPDEST PUSH1 0x40 MLOAD PUSH4 0x70A08231 PUSH1 0xE0 SHL DUP2 MSTORE ADDRESS PUSH1 0x4 DUP3 ADD MSTORE SWAP1 SWAP3 POP PUSH32 0x0 PUSH1 0x1 PUSH1 0x1 PUSH1 0xA0 SHL SUB AND SWAP1 PUSH4 0x70A08231 SWAP1 PUSH1 0x24 ADD PUSH1 0x20 PUSH1 0x40 MLOAD DUP1 DUP4 SUB DUP2 DUP7 GAS STATICCALL ISZERO DUP1 ISZERO PUSH2 0x45F3 JUMPI RETURNDATASIZE PUSH1 0x0 DUP1 RETURNDATACOPY RETURNDATASIZE PUSH1 0x0 REVERT JUMPDEST POP POP POP POP PUSH1 0x40 MLOAD RETURNDATASIZE PUSH1 0x1F NOT PUSH1 0x1F DUP3 ADD AND DUP3 ADD DUP1 PUSH1 0x40 MSTORE POP DUP2 ADD SWAP1 PUSH2 0x4617 SWAP2 SWAP1 PUSH2 0x4804 JUMP JUMPDEST SWAP1 POP SWAP1 SWAP2 JUMP JUMPDEST PUSH1 0x40 MLOAD PUSH4 0xA9059CBB PUSH1 0xE0 SHL PUSH1 0x0 DUP2 DUP2 MSTORE PUSH1 0x1 PUSH1 0x1 PUSH1 0xA0 SHL SUB DUP7 AND PUSH1 0x4 MSTORE PUSH1 0x24 DUP6 SWAP1 MSTORE SWAP2 PUSH1 0x20 DUP4 PUSH1 0x44 DUP2 DUP1 DUP12 GAS CALL SWAP3 POP PUSH1 0x1 PUSH1 0x0 MLOAD EQ DUP4 AND PUSH2 0x4677 JUMPI DUP4 DUP4 ISZERO AND ISZERO PUSH2 0x466A JUMPI RETURNDATASIZE PUSH1 0x0 DUP3 RETURNDATACOPY RETURNDATASIZE DUP2 REVERT JUMPDEST PUSH1 0x0 DUP8 EXTCODESIZE GT RETURNDATASIZE ISZERO AND DUP4 AND SWAP3 POP JUMPDEST PUSH1 0x40 MSTORE POP SWAP5 SWAP4 POP POP POP POP JUMP JUMPDEST PUSH1 0x0 DUP2 PUSH1 0x0 SUB PUSH2 0x4695 JUMPI POP PUSH1 0x0 SWAP2 SWAP1 POP JUMP JUMPDEST PUSH1 0x0 PUSH1 0x2 PUSH2 0x46A4 DUP5 PUSH1 0x1 PUSH2 0x4876 JUMP JUMPDEST PUSH2 0x46AE SWAP2 SWAP1 PUSH2 0x489F JUMP JUMPDEST SWAP1 POP DUP3 SWAP2 POP JUMPDEST DUP2 DUP2 LT ISZERO PUSH2 0x46E7 JUMPI SWAP1 POP DUP1 PUSH1 0x2 DUP2 PUSH2 0x46CC DUP2 DUP7 PUSH2 0x489F JUMP JUMPDEST PUSH2 0x46D6 SWAP2 SWAP1 PUSH2 0x4876 JUMP JUMPDEST PUSH2 0x46E0 SWAP2 SWAP1 PUSH2 0x489F JUMP JUMPDEST SWAP1 POP PUSH2 0x46B4 JUMP JUMPDEST POP SWAP2 SWAP1 POP JUMP JUMPDEST DUP1 CALLDATALOAD PUSH1 0x1 PUSH1 0x1 PUSH1 0xA0 SHL SUB DUP2 AND DUP2 EQ PUSH2 0x4704 JUMPI PUSH1 0x0 DUP1 REVERT JUMPDEST SWAP2 SWAP1 POP JUMP JUMPDEST PUSH1 0x0 PUSH1 0x20 DUP3 DUP5 SUB SLT ISZERO PUSH2 0x471B JUMPI PUSH1 0x0 DUP1 REVERT JUMPDEST PUSH2 0x2B35 DUP3 PUSH2 0x46ED JUMP JUMPDEST PUSH1 0x0 PUSH1 0x20 DUP3 DUP5 SUB SLT ISZERO PUSH2 0x4736 JUMPI PUSH1 0x0 DUP1 REVERT JUMPDEST POP CALLDATALOAD SWAP2 SWAP1 POP JUMP JUMPDEST PUSH1 0x0 DUP1 PUSH1 0x0 DUP1 PUSH1 0x0 PUSH1 0x80 DUP7 DUP9 SUB SLT ISZERO PUSH2 0x4755 JUMPI PUSH1 0x0 DUP1 REVERT JUMPDEST PUSH2 0x475E DUP7 PUSH2 0x46ED JUMP JUMPDEST SWAP5 POP PUSH2 0x476C PUSH1 0x20 DUP8 ADD PUSH2 0x46ED JUMP JUMPDEST SWAP4 POP PUSH1 0x40 DUP7 ADD CALLDATALOAD SWAP3 POP PUSH1 0x60 DUP7 ADD CALLDATALOAD PUSH8 0xFFFFFFFFFFFFFFFF DUP1 DUP3 GT ISZERO PUSH2 0x4790 JUMPI PUSH1 0x0 DUP1 REVERT JUMPDEST DUP2 DUP9 ADD SWAP2 POP DUP9 PUSH1 0x1F DUP4 ADD SLT PUSH2 0x47A4 JUMPI PUSH1 0x0 DUP1 REVERT JUMPDEST DUP2 CALLDATALOAD DUP2 DUP2 GT ISZERO PUSH2 0x47B3 JUMPI PUSH1 0x0 DUP1 REVERT JUMPDEST DUP10 PUSH1 0x20 DUP3 DUP6 ADD ADD GT ISZERO PUSH2 0x47C5 JUMPI PUSH1 0x0 DUP1 REVERT JUMPDEST SWAP7 SWAP10 SWAP6 SWAP9 POP SWAP4 SWAP7 POP PUSH1 0x20 ADD SWAP5 SWAP4 SWAP3 POP POP POP JUMP JUMPDEST PUSH1 0x20 DUP1 DUP3 MSTORE PUSH1 0x12 SWAP1 DUP3 ADD MSTORE PUSH18 0x50434F4C42555344506F6F6C3A207A65726F PUSH1 0x70 SHL PUSH1 0x40 DUP3 ADD MSTORE PUSH1 0x60 ADD SWAP1 JUMP JUMPDEST PUSH1 0x0 PUSH1 0x20 DUP3 DUP5 SUB SLT ISZERO PUSH2 0x4816 JUMPI PUSH1 0x0 DUP1 REVERT JUMPDEST POP MLOAD SWAP2 SWAP1 POP JUMP JUMPDEST PUSH4 0x4E487B71 PUSH1 0xE0 SHL PUSH1 0x0 MSTORE PUSH1 0x11 PUSH1 0x4 MSTORE PUSH1 0x24 PUSH1 0x0 REVERT JUMPDEST DUP2 DUP2 SUB DUP2 DUP2 GT ISZERO PUSH2 0xF11 JUMPI PUSH2 0xF11 PUSH2 0x481D JUMP JUMPDEST PUSH1 0x1 PUSH1 0x1 PUSH1 0xA0 SHL SUB SWAP3 SWAP1 SWAP3 AND DUP3 MSTORE PUSH1 0x20 DUP3 ADD MSTORE PUSH1 0x40 ADD SWAP1 JUMP JUMPDEST DUP1 DUP3 MUL DUP2 ISZERO DUP3 DUP3 DIV DUP5 EQ OR PUSH2 0xF11 JUMPI PUSH2 0xF11 PUSH2 0x481D JUMP JUMPDEST DUP1 DUP3 ADD DUP1 DUP3 GT ISZERO PUSH2 0xF11 JUMPI PUSH2 0xF11 PUSH2 0x481D JUMP JUMPDEST PUSH4 0x4E487B71 PUSH1 0xE0 SHL PUSH1 0x0 MSTORE PUSH1 0x12 PUSH1 0x4 MSTORE PUSH1 0x24 PUSH1 0x0 REVERT JUMPDEST PUSH1 0x0 DUP3 PUSH2 0x48AE JUMPI PUSH2 0x48AE PUSH2 0x4889 JUMP JUMPDEST POP DIV SWAP1 JUMP JUMPDEST PUSH1 0x20 DUP1 DUP3 MSTORE PUSH1 0x10 SWAP1 DUP3 ADD MSTORE PUSH16 0x2821A7A6212AA9A22837B7B61D102423 PUSH1 0x81 SHL PUSH1 0x40 DUP3 ADD MSTORE PUSH1 0x60 ADD SWAP1 JUMP JUMPDEST PUSH1 0x1 PUSH1 0x1 PUSH1 0xA0 SHL SUB DUP8 DUP2 AND DUP3 MSTORE PUSH1 0x20 DUP3 ADD DUP8 SWAP1 MSTORE PUSH1 0x40 DUP3 ADD DUP7 SWAP1 MSTORE DUP5 AND PUSH1 0x60 DUP3 ADD MSTORE PUSH1 0xA0 PUSH1 0x80 DUP3 ADD DUP2 SWAP1 MSTORE DUP2 ADD DUP3 SWAP1 MSTORE PUSH1 0x0 DUP3 DUP5 PUSH1 0xC0 DUP5 ADD CALLDATACOPY PUSH1 0x0 PUSH1 0xC0 DUP5 DUP5 ADD ADD MSTORE PUSH1 0xC0 PUSH1 0x1F NOT PUSH1 0x1F DUP6 ADD AND DUP4 ADD ADD SWAP1 POP SWAP8 SWAP7 POP POP POP POP POP POP POP JUMP JUMPDEST PUSH1 0x0 PUSH1 0x20 DUP3 DUP5 SUB SLT ISZERO PUSH2 0x494B JUMPI PUSH1 0x0 DUP1 REVERT JUMPDEST DUP2 MLOAD DUP1 ISZERO ISZERO DUP2 EQ PUSH2 0x2B35 JUMPI PUSH1 0x0 DUP1 REVERT JUMPDEST PUSH1 0x0 DUP3 PUSH2 0x496A JUMPI PUSH2 0x496A PUSH2 0x4889 JUMP JUMPDEST POP MOD SWAP1 JUMP JUMPDEST PUSH1 0x0 PUSH1 0x20 DUP3 DUP5 SUB SLT ISZERO PUSH2 0x4981 JUMPI PUSH1 0x0 DUP1 REVERT JUMPDEST DUP2 MLOAD PUSH1 0xFF DUP2 AND DUP2 EQ PUSH2 0x2B35 JUMPI PUSH1 0x0 DUP1 REVERT JUMPDEST PUSH1 0x1 DUP2 DUP2 JUMPDEST DUP1 DUP6 GT ISZERO PUSH2 0x49CD JUMPI DUP2 PUSH1 0x0 NOT DIV DUP3 GT ISZERO PUSH2 0x49B3 JUMPI PUSH2 0x49B3 PUSH2 0x481D JUMP JUMPDEST DUP1 DUP6 AND ISZERO PUSH2 0x49C0 JUMPI SWAP2 DUP2 MUL SWAP2 JUMPDEST SWAP4 DUP5 SHR SWAP4 SWAP1 DUP1 MUL SWAP1 PUSH2 0x4997 JUMP JUMPDEST POP SWAP3 POP SWAP3 SWAP1 POP JUMP JUMPDEST PUSH1 0x0 DUP3 PUSH2 0x49E4 JUMPI POP PUSH1 0x1 PUSH2 0xF11 JUMP JUMPDEST DUP2 PUSH2 0x49F1 JUMPI POP PUSH1 0x0 PUSH2 0xF11 JUMP JUMPDEST DUP2 PUSH1 0x1 DUP2 EQ PUSH2 0x4A07 JUMPI PUSH1 0x2 DUP2 EQ PUSH2 0x4A11 JUMPI PUSH2 0x4A2D JUMP JUMPDEST PUSH1 0x1 SWAP2 POP POP PUSH2 0xF11 JUMP JUMPDEST PUSH1 0xFF DUP5 GT ISZERO PUSH2 0x4A22 JUMPI PUSH2 0x4A22 PUSH2 0x481D JUMP JUMPDEST POP POP PUSH1 0x1 DUP3 SHL PUSH2 0xF11 JUMP JUMPDEST POP PUSH1 0x20 DUP4 LT PUSH2 0x133 DUP4 LT AND PUSH1 0x4E DUP5 LT PUSH1 0xB DUP5 LT AND OR ISZERO PUSH2 0x4A50 JUMPI POP DUP2 DUP2 EXP PUSH2 0xF11 JUMP JUMPDEST PUSH2 0x4A5A DUP4 DUP4 PUSH2 0x4992 JUMP JUMPDEST DUP1 PUSH1 0x0 NOT DIV DUP3 GT ISZERO PUSH2 0x4A6E JUMPI PUSH2 0x4A6E PUSH2 0x481D JUMP JUMPDEST MUL SWAP4 SWAP3 POP POP POP JUMP JUMPDEST PUSH1 0x0 PUSH2 0x2B35 PUSH1 0xFF DUP5 AND DUP4 PUSH2 0x49D5 JUMP JUMPDEST PUSH1 0x0 PUSH2 0x2B35 DUP4 DUP4 PUSH2 0x49D5 JUMP INVALID SWAP12 PUSH24 0x9B17422D0DF92223018B32B4D1FA46E071723D6817E2486D STOP EXTCODESIZE 0xEC 0xC5 PUSH0 STOP LOG2 PUSH5 0x6970667358 0x22 SLT KECCAK256 DUP7 SWAP9 GAS EXTCODECOPY 0xE 0xAD 0xBB BASEFEE 0xE8 RETURNDATACOPY SWAP9 DUP11 JUMPDEST SWAP8 0x2B 0xE2 0xC8 XOR 0xBC KECCAK256 0xE1 SMOD DUP13 0xCF 0x21 0xD9 EXTCODESIZE CREATE2 SLOAD JUMPDEST 0xD7 SWAP7 PUSH5 0x736F6C6343 STOP ADDMOD EQ STOP CALLER PUSH1 0xA0 PUSH1 0x40 MSTORE CALLVALUE DUP1 ISZERO PUSH3 0x11 JUMPI PUSH1 0x0 DUP1 REVERT JUMPDEST POP PUSH1 0x40 MLOAD PUSH3 0xCAD CODESIZE SUB DUP1 PUSH3 0xCAD DUP4 CODECOPY DUP2 ADD PUSH1 0x40 DUP2 SWAP1 MSTORE PUSH3 0x34 SWAP2 PUSH3 0x18B JUMP JUMPDEST DUP3 DUP3 PUSH1 0x3 PUSH3 0x44 DUP4 DUP3 PUSH3 0x2A7 JUMP JUMPDEST POP PUSH1 0x4 PUSH3 0x53 DUP3 DUP3 PUSH3 0x2A7 JUMP JUMPDEST POP POP POP PUSH1 0x1 PUSH1 0x1 PUSH1 0xA0 SHL SUB DUP2 AND PUSH3 0xB1 JUMPI PUSH1 0x40 MLOAD PUSH3 0x461BCD PUSH1 0xE5 SHL DUP2 MSTORE PUSH1 0x20 PUSH1 0x4 DUP3 ADD MSTORE PUSH1 0x17 PUSH1 0x24 DUP3 ADD MSTORE PUSH32 0x52656365697074546F6B656E3A207A65726F20706F6F6C000000000000000000 PUSH1 0x44 DUP3 ADD MSTORE PUSH1 0x64 ADD PUSH1 0x40 MLOAD DUP1 SWAP2 SUB SWAP1 REVERT JUMPDEST PUSH1 0x1 PUSH1 0x1 PUSH1 0xA0 SHL SUB AND PUSH1 0x80 MSTORE POP PUSH3 0x373 SWAP1 POP JUMP JUMPDEST PUSH4 0x4E487B71 PUSH1 0xE0 SHL PUSH1 0x0 MSTORE PUSH1 0x41 PUSH1 0x4 MSTORE PUSH1 0x24 PUSH1 0x0 REVERT JUMPDEST PUSH1 0x0 DUP3 PUSH1 0x1F DUP4 ADD SLT PUSH3 0xEE JUMPI PUSH1 0x0 DUP1 REVERT JUMPDEST DUP2 MLOAD PUSH1 0x1 PUSH1 0x1 PUSH1 0x40 SHL SUB DUP1 DUP3 GT ISZERO PUSH3 0x10B JUMPI PUSH3 0x10B PUSH3 0xC6 JUMP JUMPDEST PUSH1 0x40 MLOAD PUSH1 0x1F DUP4 ADD PUSH1 0x1F NOT SWAP1 DUP2 AND PUSH1 0x3F ADD AND DUP2 ADD SWAP1 DUP3 DUP3 GT DUP2 DUP4 LT OR ISZERO PUSH3 0x136 JUMPI PUSH3 0x136 PUSH3 0xC6 JUMP JUMPDEST DUP2 PUSH1 0x40 MSTORE DUP4 DUP2 MSTORE PUSH1 0x20 SWAP3 POP DUP7 DUP4 DUP6 DUP9 ADD ADD GT ISZERO PUSH3 0x153 JUMPI PUSH1 0x0 DUP1 REVERT JUMPDEST PUSH1 0x0 SWAP2 POP JUMPDEST DUP4 DUP3 LT ISZERO PUSH3 0x177 JUMPI DUP6 DUP3 ADD DUP4 ADD MLOAD DUP2 DUP4 ADD DUP5 ADD MSTORE SWAP1 DUP3 ADD SWAP1 PUSH3 0x158 JUMP JUMPDEST PUSH1 0x0 SWAP4 DUP2 ADD SWAP1 SWAP3 ADD SWAP3 SWAP1 SWAP3 MSTORE SWAP5 SWAP4 POP POP POP POP JUMP JUMPDEST PUSH1 0x0 DUP1 PUSH1 0x0 PUSH1 0x60 DUP5 DUP7 SUB SLT ISZERO PUSH3 0x1A1 JUMPI PUSH1 0x0 DUP1 REVERT JUMPDEST DUP4 MLOAD PUSH1 0x1 PUSH1 0x1 PUSH1 0x40 SHL SUB DUP1 DUP3 GT ISZERO PUSH3 0x1B9 JUMPI PUSH1 0x0 DUP1 REVERT JUMPDEST PUSH3 0x1C7 DUP8 DUP4 DUP9 ADD PUSH3 0xDC JUMP JUMPDEST SWAP5 POP PUSH1 0x20 DUP7 ADD MLOAD SWAP2 POP DUP1 DUP3 GT ISZERO PUSH3 0x1DE JUMPI PUSH1 0x0 DUP1 REVERT JUMPDEST POP PUSH3 0x1ED DUP7 DUP3 DUP8 ADD PUSH3 0xDC JUMP JUMPDEST PUSH1 0x40 DUP7 ADD MLOAD SWAP1 SWAP4 POP SWAP1 POP PUSH1 0x1 PUSH1 0x1 PUSH1 0xA0 SHL SUB DUP2 AND DUP2 EQ PUSH3 0x20D JUMPI PUSH1 0x0 DUP1 REVERT JUMPDEST DUP1 SWAP2 POP POP SWAP3 POP SWAP3 POP SWAP3 JUMP JUMPDEST PUSH1 0x1 DUP2 DUP2 SHR SWAP1 DUP3 AND DUP1 PUSH3 0x22D JUMPI PUSH1 0x7F DUP3 AND SWAP2 POP JUMPDEST PUSH1 0x20 DUP3 LT DUP2 SUB PUSH3 0x24E JUMPI PUSH4 0x4E487B71 PUSH1 0xE0 SHL PUSH1 0x0 MSTORE PUSH1 0x22 PUSH1 0x4 MSTORE PUSH1 0x24 PUSH1 0x0 REVERT JUMPDEST POP SWAP2 SWAP1 POP JUMP JUMPDEST PUSH1 0x1F DUP3 GT ISZERO PUSH3 0x2A2 JUMPI PUSH1 0x0 DUP2 DUP2 MSTORE PUSH1 0x20 DUP2 KECCAK256 PUSH1 0x1F DUP6 ADD PUSH1 0x5 SHR DUP2 ADD PUSH1 0x20 DUP7 LT ISZERO PUSH3 0x27D JUMPI POP DUP1 JUMPDEST PUSH1 0x1F DUP6 ADD PUSH1 0x5 SHR DUP3 ADD SWAP2 POP JUMPDEST DUP2 DUP2 LT ISZERO PUSH3 0x29E JUMPI DUP3 DUP2 SSTORE PUSH1 0x1 ADD PUSH3 0x289 JUMP JUMPDEST POP POP POP JUMPDEST POP POP POP JUMP JUMPDEST DUP2 MLOAD PUSH1 0x1 PUSH1 0x1 PUSH1 0x40 SHL SUB DUP2 GT ISZERO PUSH3 0x2C3 JUMPI PUSH3 0x2C3 PUSH3 0xC6 JUMP JUMPDEST PUSH3 0x2DB DUP2 PUSH3 0x2D4 DUP5 SLOAD PUSH3 0x218 JUMP JUMPDEST DUP5 PUSH3 0x254 JUMP JUMPDEST PUSH1 0x20 DUP1 PUSH1 0x1F DUP4 GT PUSH1 0x1 DUP2 EQ PUSH3 0x313 JUMPI PUSH1 0x0 DUP5 ISZERO PUSH3 0x2FA JUMPI POP DUP6 DUP4 ADD MLOAD JUMPDEST PUSH1 0x0 NOT PUSH1 0x3 DUP7 SWAP1 SHL SHR NOT AND PUSH1 0x1 DUP6 SWAP1 SHL OR DUP6 SSTORE PUSH3 0x29E JUMP JUMPDEST PUSH1 0x0 DUP6 DUP2 MSTORE PUSH1 0x20 DUP2 KECCAK256 PUSH1 0x1F NOT DUP7 AND SWAP2 JUMPDEST DUP3 DUP2 LT ISZERO PUSH3 0x344 JUMPI DUP9 DUP7 ADD MLOAD DUP3 SSTORE SWAP5 DUP5 ADD SWAP5 PUSH1 0x1 SWAP1 SWAP2 ADD SWAP1 DUP5 ADD PUSH3 0x323 JUMP JUMPDEST POP DUP6 DUP3 LT ISZERO PUSH3 0x363 JUMPI DUP8 DUP6 ADD MLOAD PUSH1 0x0 NOT PUSH1 0x3 DUP9 SWAP1 SHL PUSH1 0xF8 AND SHR NOT AND DUP2 SSTORE JUMPDEST POP POP POP POP POP PUSH1 0x1 SWAP1 DUP2 SHL ADD SWAP1 SSTORE POP JUMP JUMPDEST PUSH1 0x80 MLOAD PUSH2 0x911 PUSH3 0x39C PUSH1 0x0 CODECOPY PUSH1 0x0 DUP2 DUP2 PUSH1 0xFF ADD MSTORE DUP2 DUP2 PUSH2 0x2ED ADD MSTORE PUSH2 0x381 ADD MSTORE PUSH2 0x911 PUSH1 0x0 RETURN INVALID PUSH1 0x80 PUSH1 0x40 MSTORE CALLVALUE DUP1 ISZERO PUSH2 0x10 JUMPI PUSH1 0x0 DUP1 REVERT JUMPDEST POP PUSH1 0x4 CALLDATASIZE LT PUSH2 0xB4 JUMPI PUSH1 0x0 CALLDATALOAD PUSH1 0xE0 SHR DUP1 PUSH4 0x40C10F19 GT PUSH2 0x71 JUMPI DUP1 PUSH4 0x40C10F19 EQ PUSH2 0x16D JUMPI DUP1 PUSH4 0x70A08231 EQ PUSH2 0x182 JUMPI DUP1 PUSH4 0x95D89B41 EQ PUSH2 0x1AB JUMPI DUP1 PUSH4 0x9DC29FAC EQ PUSH2 0x1B3 JUMPI DUP1 PUSH4 0xA9059CBB EQ PUSH2 0x1C6 JUMPI DUP1 PUSH4 0xDD62ED3E EQ PUSH2 0x1D9 JUMPI PUSH1 0x0 DUP1 REVERT JUMPDEST DUP1 PUSH4 0x6FDDE03 EQ PUSH2 0xB9 JUMPI DUP1 PUSH4 0x95EA7B3 EQ PUSH2 0xD7 JUMPI DUP1 PUSH4 0x16F0115B EQ PUSH2 0xFA JUMPI DUP1 PUSH4 0x18160DDD EQ PUSH2 0x139 JUMPI DUP1 PUSH4 0x23B872DD EQ PUSH2 0x14B JUMPI DUP1 PUSH4 0x313CE567 EQ PUSH2 0x15E JUMPI JUMPDEST PUSH1 0x0 DUP1 REVERT JUMPDEST PUSH2 0xC1 PUSH2 0x212 JUMP JUMPDEST PUSH1 0x40 MLOAD PUSH2 0xCE SWAP2 SWAP1 PUSH2 0x75B JUMP JUMPDEST PUSH1 0x40 MLOAD DUP1 SWAP2 SUB SWAP1 RETURN JUMPDEST PUSH2 0xEA PUSH2 0xE5 CALLDATASIZE PUSH1 0x4 PUSH2 0x7C5 JUMP JUMPDEST PUSH2 0x2A4 JUMP JUMPDEST PUSH1 0x40 MLOAD SWAP1 ISZERO ISZERO DUP2 MSTORE PUSH1 0x20 ADD PUSH2 0xCE JUMP JUMPDEST PUSH2 0x121 PUSH32 0x0 DUP2 JUMP JUMPDEST PUSH1 0x40 MLOAD PUSH1 0x1 PUSH1 0x1 PUSH1 0xA0 SHL SUB SWAP1 SWAP2 AND DUP2 MSTORE PUSH1 0x20 ADD PUSH2 0xCE JUMP JUMPDEST PUSH1 0x2 SLOAD JUMPDEST PUSH1 0x40 MLOAD SWAP1 DUP2 MSTORE PUSH1 0x20 ADD PUSH2 0xCE JUMP JUMPDEST PUSH2 0xEA PUSH2 0x159 CALLDATASIZE PUSH1 0x4 PUSH2 0x7EF JUMP JUMPDEST PUSH2 0x2BE JUMP JUMPDEST PUSH1 0x40 MLOAD PUSH1 0x12 DUP2 MSTORE PUSH1 0x20 ADD PUSH2 0xCE JUMP JUMPDEST PUSH2 0x180 PUSH2 0x17B CALLDATASIZE PUSH1 0x4 PUSH2 0x7C5 JUMP JUMPDEST PUSH2 0x2E2 JUMP JUMPDEST STOP JUMPDEST PUSH2 0x13D PUSH2 0x190 CALLDATASIZE PUSH1 0x4 PUSH2 0x82B JUMP JUMPDEST PUSH1 0x1 PUSH1 0x1 PUSH1 0xA0 SHL SUB AND PUSH1 0x0 SWAP1 DUP2 MSTORE PUSH1 0x20 DUP2 SWAP1 MSTORE PUSH1 0x40 SWAP1 KECCAK256 SLOAD SWAP1 JUMP JUMPDEST PUSH2 0xC1 PUSH2 0x367 JUMP JUMPDEST PUSH2 0x180 PUSH2 0x1C1 CALLDATASIZE PUSH1 0x4 PUSH2 0x7C5 JUMP JUMPDEST PUSH2 0x376 JUMP JUMPDEST PUSH2 0xEA PUSH2 0x1D4 CALLDATASIZE PUSH1 0x4 PUSH2 0x7C5 JUMP JUMPDEST PUSH2 0x3F2 JUMP JUMPDEST PUSH2 0x13D PUSH2 0x1E7 CALLDATASIZE PUSH1 0x4 PUSH2 0x84D JUMP JUMPDEST PUSH1 0x1 PUSH1 0x1 PUSH1 0xA0 SHL SUB SWAP2 DUP3 AND PUSH1 0x0 SWAP1 DUP2 MSTORE PUSH1 0x1 PUSH1 0x20 SWAP1 DUP2 MSTORE PUSH1 0x40 DUP1 DUP4 KECCAK256 SWAP4 SWAP1 SWAP5 AND DUP3 MSTORE SWAP2 SWAP1 SWAP2 MSTORE KECCAK256 SLOAD SWAP1 JUMP JUMPDEST PUSH1 0x60 PUSH1 0x3 DUP1 SLOAD PUSH2 0x221 SWAP1 PUSH2 0x880 JUMP JUMPDEST DUP1 PUSH1 0x1F ADD PUSH1 0x20 DUP1 SWAP2 DIV MUL PUSH1 0x20 ADD PUSH1 0x40 MLOAD SWAP1 DUP2 ADD PUSH1 0x40 MSTORE DUP1 SWAP3 SWAP2 SWAP1 DUP2 DUP2 MSTORE PUSH1 0x20 ADD DUP3 DUP1 SLOAD PUSH2 0x24D SWAP1 PUSH2 0x880 JUMP JUMPDEST DUP1 ISZERO PUSH2 0x29A JUMPI DUP1 PUSH1 0x1F LT PUSH2 0x26F JUMPI PUSH2 0x100 DUP1 DUP4 SLOAD DIV MUL DUP4 MSTORE SWAP2 PUSH1 0x20 ADD SWAP2 PUSH2 0x29A JUMP JUMPDEST DUP3 ADD SWAP2 SWAP1 PUSH1 0x0 MSTORE PUSH1 0x20 PUSH1 0x0 KECCAK256 SWAP1 JUMPDEST DUP2 SLOAD DUP2 MSTORE SWAP1 PUSH1 0x1 ADD SWAP1 PUSH1 0x20 ADD DUP1 DUP4 GT PUSH2 0x27D JUMPI DUP3 SWAP1 SUB PUSH1 0x1F AND DUP3 ADD SWAP2 JUMPDEST POP POP POP POP POP SWAP1 POP SWAP1 JUMP JUMPDEST PUSH1 0x0 CALLER PUSH2 0x2B2 DUP2 DUP6 DUP6 PUSH2 0x400 JUMP JUMPDEST PUSH1 0x1 SWAP2 POP POP JUMPDEST SWAP3 SWAP2 POP POP JUMP JUMPDEST PUSH1 0x0 CALLER PUSH2 0x2CC DUP6 DUP3 DUP6 PUSH2 0x412 JUMP JUMPDEST PUSH2 0x2D7 DUP6 DUP6 DUP6 PUSH2 0x491 JUMP JUMPDEST POP PUSH1 0x1 SWAP5 SWAP4 POP POP POP POP JUMP JUMPDEST CALLER PUSH1 0x1 PUSH1 0x1 PUSH1 0xA0 SHL SUB PUSH32 0x0 AND EQ PUSH2 0x359 JUMPI PUSH1 0x40 MLOAD PUSH3 0x461BCD PUSH1 0xE5 SHL DUP2 MSTORE PUSH1 0x20 PUSH1 0x4 DUP3 ADD MSTORE PUSH1 0x17 PUSH1 0x24 DUP3 ADD MSTORE PUSH23 0x149958D95A5C1D151BDAD95B8E881BDB9B1E481C1BDBDB PUSH1 0x4A SHL PUSH1 0x44 DUP3 ADD MSTORE PUSH1 0x64 ADD JUMPDEST PUSH1 0x40 MLOAD DUP1 SWAP2 SUB SWAP1 REVERT JUMPDEST PUSH2 0x363 DUP3 DUP3 PUSH2 0x4F0 JUMP JUMPDEST POP POP JUMP JUMPDEST PUSH1 0x60 PUSH1 0x4 DUP1 SLOAD PUSH2 0x221 SWAP1 PUSH2 0x880 JUMP JUMPDEST CALLER PUSH1 0x1 PUSH1 0x1 PUSH1 0xA0 SHL SUB PUSH32 0x0 AND EQ PUSH2 0x3E8 JUMPI PUSH1 0x40 MLOAD PUSH3 0x461BCD PUSH1 0xE5 SHL DUP2 MSTORE PUSH1 0x20 PUSH1 0x4 DUP3 ADD MSTORE PUSH1 0x17 PUSH1 0x24 DUP3 ADD MSTORE PUSH23 0x149958D95A5C1D151BDAD95B8E881BDB9B1E481C1BDBDB PUSH1 0x4A SHL PUSH1 0x44 DUP3 ADD MSTORE PUSH1 0x64 ADD PUSH2 0x350 JUMP JUMPDEST PUSH2 0x363 DUP3 DUP3 PUSH2 0x526 JUMP JUMPDEST PUSH1 0x0 CALLER PUSH2 0x2B2 DUP2 DUP6 DUP6 PUSH2 0x491 JUMP JUMPDEST PUSH2 0x40D DUP4 DUP4 DUP4 PUSH1 0x1 PUSH2 0x55C JUMP JUMPDEST POP POP POP JUMP JUMPDEST PUSH1 0x1 PUSH1 0x1 PUSH1 0xA0 SHL SUB DUP4 DUP2 AND PUSH1 0x0 SWAP1 DUP2 MSTORE PUSH1 0x1 PUSH1 0x20 SWAP1 DUP2 MSTORE PUSH1 0x40 DUP1 DUP4 KECCAK256 SWAP4 DUP7 AND DUP4 MSTORE SWAP3 SWAP1 MSTORE KECCAK256 SLOAD PUSH1 0x0 NOT DUP2 LT ISZERO PUSH2 0x48B JUMPI DUP2 DUP2 LT ISZERO PUSH2 0x47C JUMPI PUSH1 0x40 MLOAD PUSH4 0x7DC7A0D9 PUSH1 0xE1 SHL DUP2 MSTORE PUSH1 0x1 PUSH1 0x1 PUSH1 0xA0 SHL SUB DUP5 AND PUSH1 0x4 DUP3 ADD MSTORE PUSH1 0x24 DUP2 ADD DUP3 SWAP1 MSTORE PUSH1 0x44 DUP2 ADD DUP4 SWAP1 MSTORE PUSH1 0x64 ADD PUSH2 0x350 JUMP JUMPDEST PUSH2 0x48B DUP5 DUP5 DUP5 DUP5 SUB PUSH1 0x0 PUSH2 0x55C JUMP JUMPDEST POP POP POP POP JUMP JUMPDEST PUSH1 0x1 PUSH1 0x1 PUSH1 0xA0 SHL SUB DUP4 AND PUSH2 0x4BB JUMPI PUSH1 0x40 MLOAD PUSH4 0x4B637E8F PUSH1 0xE1 SHL DUP2 MSTORE PUSH1 0x0 PUSH1 0x4 DUP3 ADD MSTORE PUSH1 0x24 ADD PUSH2 0x350 JUMP JUMPDEST PUSH1 0x1 PUSH1 0x1 PUSH1 0xA0 SHL SUB DUP3 AND PUSH2 0x4E5 JUMPI PUSH1 0x40 MLOAD PUSH4 0xEC442F05 PUSH1 0xE0 SHL DUP2 MSTORE PUSH1 0x0 PUSH1 0x4 DUP3 ADD MSTORE PUSH1 0x24 ADD PUSH2 0x350 JUMP JUMPDEST PUSH2 0x40D DUP4 DUP4 DUP4 PUSH2 0x631 JUMP JUMPDEST PUSH1 0x1 PUSH1 0x1 PUSH1 0xA0 SHL SUB DUP3 AND PUSH2 0x51A JUMPI PUSH1 0x40 MLOAD PUSH4 0xEC442F05 PUSH1 0xE0 SHL DUP2 MSTORE PUSH1 0x0 PUSH1 0x4 DUP3 ADD MSTORE PUSH1 0x24 ADD PUSH2 0x350 JUMP JUMPDEST PUSH2 0x363 PUSH1 0x0 DUP4 DUP4 PUSH2 0x631 JUMP JUMPDEST PUSH1 0x1 PUSH1 0x1 PUSH1 0xA0 SHL SUB DUP3 AND PUSH2 0x550 JUMPI PUSH1 0x40 MLOAD PUSH4 0x4B637E8F PUSH1 0xE1 SHL DUP2 MSTORE PUSH1 0x0 PUSH1 0x4 DUP3 ADD MSTORE PUSH1 0x24 ADD PUSH2 0x350 JUMP JUMPDEST PUSH2 0x363 DUP3 PUSH1 0x0 DUP4 PUSH2 0x631 JUMP JUMPDEST PUSH1 0x1 PUSH1 0x1 PUSH1 0xA0 SHL SUB DUP5 AND PUSH2 0x586 JUMPI PUSH1 0x40 MLOAD PUSH4 0xE602DF05 PUSH1 0xE0 SHL DUP2 MSTORE PUSH1 0x0 PUSH1 0x4 DUP3 ADD MSTORE PUSH1 0x24 ADD PUSH2 0x350 JUMP JUMPDEST PUSH1 0x1 PUSH1 0x1 PUSH1 0xA0 SHL SUB DUP4 AND PUSH2 0x5B0 JUMPI PUSH1 0x40 MLOAD PUSH4 0x4A1406B1 PUSH1 0xE1 SHL DUP2 MSTORE PUSH1 0x0 PUSH1 0x4 DUP3 ADD MSTORE PUSH1 0x24 ADD PUSH2 0x350 JUMP JUMPDEST PUSH1 0x1 PUSH1 0x1 PUSH1 0xA0 SHL SUB DUP1 DUP6 AND PUSH1 0x0 SWAP1 DUP2 MSTORE PUSH1 0x1 PUSH1 0x20 SWAP1 DUP2 MSTORE PUSH1 0x40 DUP1 DUP4 KECCAK256 SWAP4 DUP8 AND DUP4 MSTORE SWAP3 SWAP1 MSTORE KECCAK256 DUP3 SWAP1 SSTORE DUP1 ISZERO PUSH2 0x48B JUMPI DUP3 PUSH1 0x1 PUSH1 0x1 PUSH1 0xA0 SHL SUB AND DUP5 PUSH1 0x1 PUSH1 0x1 PUSH1 0xA0 SHL SUB AND PUSH32 0x8C5BE1E5EBEC7D5BD14F71427D1E84F3DD0314C0F7B2291E5B200AC8C7C3B925 DUP5 PUSH1 0x40 MLOAD PUSH2 0x623 SWAP2 DUP2 MSTORE PUSH1 0x20 ADD SWAP1 JUMP JUMPDEST PUSH1 0x40 MLOAD DUP1 SWAP2 SUB SWAP1 LOG3 POP POP POP POP JUMP JUMPDEST PUSH1 0x1 PUSH1 0x1 PUSH1 0xA0 SHL SUB DUP4 AND PUSH2 0x65C JUMPI DUP1 PUSH1 0x2 PUSH1 0x0 DUP3 DUP3 SLOAD PUSH2 0x651 SWAP2 SWAP1 PUSH2 0x8BA JUMP JUMPDEST SWAP1 SWAP2 SSTORE POP PUSH2 0x6CE SWAP1 POP JUMP JUMPDEST PUSH1 0x1 PUSH1 0x1 PUSH1 0xA0 SHL SUB DUP4 AND PUSH1 0x0 SWAP1 DUP2 MSTORE PUSH1 0x20 DUP2 SWAP1 MSTORE PUSH1 0x40 SWAP1 KECCAK256 SLOAD DUP2 DUP2 LT ISZERO PUSH2 0x6AF JUMPI PUSH1 0x40 MLOAD PUSH4 0x391434E3 PUSH1 0xE2 SHL DUP2 MSTORE PUSH1 0x1 PUSH1 0x1 PUSH1 0xA0 SHL SUB DUP6 AND PUSH1 0x4 DUP3 ADD MSTORE PUSH1 0x24 DUP2 ADD DUP3 SWAP1 MSTORE PUSH1 0x44 DUP2 ADD DUP4 SWAP1 MSTORE PUSH1 0x64 ADD PUSH2 0x350 JUMP JUMPDEST PUSH1 0x1 PUSH1 0x1 PUSH1 0xA0 SHL SUB DUP5 AND PUSH1 0x0 SWAP1 DUP2 MSTORE PUSH1 0x20 DUP2 SWAP1 MSTORE PUSH1 0x40 SWAP1 KECCAK256 SWAP1 DUP3 SWAP1 SUB SWAP1 SSTORE JUMPDEST PUSH1 0x1 PUSH1 0x1 PUSH1 0xA0 SHL SUB DUP3 AND PUSH2 0x6EA JUMPI PUSH1 0x2 DUP1 SLOAD DUP3 SWAP1 SUB SWAP1 SSTORE PUSH2 0x709 JUMP JUMPDEST PUSH1 0x1 PUSH1 0x1 PUSH1 0xA0 SHL SUB DUP3 AND PUSH1 0x0 SWAP1 DUP2 MSTORE PUSH1 0x20 DUP2 SWAP1 MSTORE PUSH1 0x40 SWAP1 KECCAK256 DUP1 SLOAD DUP3 ADD SWAP1 SSTORE JUMPDEST DUP2 PUSH1 0x1 PUSH1 0x1 PUSH1 0xA0 SHL SUB AND DUP4 PUSH1 0x1 PUSH1 0x1 PUSH1 0xA0 SHL SUB AND PUSH32 0xDDF252AD1BE2C89B69C2B068FC378DAA952BA7F163C4A11628F55A4DF523B3EF DUP4 PUSH1 0x40 MLOAD PUSH2 0x74E SWAP2 DUP2 MSTORE PUSH1 0x20 ADD SWAP1 JUMP JUMPDEST PUSH1 0x40 MLOAD DUP1 SWAP2 SUB SWAP1 LOG3 POP POP POP JUMP JUMPDEST PUSH1 0x0 PUSH1 0x20 DUP1 DUP4 MSTORE DUP4 MLOAD DUP1 DUP3 DUP6 ADD MSTORE PUSH1 0x0 JUMPDEST DUP2 DUP2 LT ISZERO PUSH2 0x788 JUMPI DUP6 DUP2 ADD DUP4 ADD MLOAD DUP6 DUP3 ADD PUSH1 0x40 ADD MSTORE DUP3 ADD PUSH2 0x76C JUMP JUMPDEST POP PUSH1 0x0 PUSH1 0x40 DUP3 DUP7 ADD ADD MSTORE PUSH1 0x40 PUSH1 0x1F NOT PUSH1 0x1F DUP4 ADD AND DUP6 ADD ADD SWAP3 POP POP POP SWAP3 SWAP2 POP POP JUMP JUMPDEST DUP1 CALLDATALOAD PUSH1 0x1 PUSH1 0x1 PUSH1 0xA0 SHL SUB DUP2 AND DUP2 EQ PUSH2 0x7C0 JUMPI PUSH1 0x0 DUP1 REVERT JUMPDEST SWAP2 SWAP1 POP JUMP JUMPDEST PUSH1 0x0 DUP1 PUSH1 0x40 DUP4 DUP6 SUB SLT ISZERO PUSH2 0x7D8 JUMPI PUSH1 0x0 DUP1 REVERT JUMPDEST PUSH2 0x7E1 DUP4 PUSH2 0x7A9 JUMP JUMPDEST SWAP5 PUSH1 0x20 SWAP4 SWAP1 SWAP4 ADD CALLDATALOAD SWAP4 POP POP POP JUMP JUMPDEST PUSH1 0x0 DUP1 PUSH1 0x0 PUSH1 0x60 DUP5 DUP7 SUB SLT ISZERO PUSH2 0x804 JUMPI PUSH1 0x0 DUP1 REVERT JUMPDEST PUSH2 0x80D DUP5 PUSH2 0x7A9 JUMP JUMPDEST SWAP3 POP PUSH2 0x81B PUSH1 0x20 DUP6 ADD PUSH2 0x7A9 JUMP JUMPDEST SWAP2 POP PUSH1 0x40 DUP5 ADD CALLDATALOAD SWAP1 POP SWAP3 POP SWAP3 POP SWAP3 JUMP JUMPDEST PUSH1 0x0 PUSH1 0x20 DUP3 DUP5 SUB SLT ISZERO PUSH2 0x83D JUMPI PUSH1 0x0 DUP1 REVERT JUMPDEST PUSH2 0x846 DUP3 PUSH2 0x7A9 JUMP JUMPDEST SWAP4 SWAP3 POP POP POP JUMP JUMPDEST PUSH1 0x0 DUP1 PUSH1 0x40 DUP4 DUP6 SUB SLT ISZERO PUSH2 0x860 JUMPI PUSH1 0x0 DUP1 REVERT JUMPDEST PUSH2 0x869 DUP4 PUSH2 0x7A9 JUMP JUMPDEST SWAP2 POP PUSH2 0x877 PUSH1 0x20 DUP5 ADD PUSH2 0x7A9 JUMP JUMPDEST SWAP1 POP SWAP3 POP SWAP3 SWAP1 POP JUMP JUMPDEST PUSH1 0x1 DUP2 DUP2 SHR SWAP1 DUP3 AND DUP1 PUSH2 0x894 JUMPI PUSH1 0x7F DUP3 AND SWAP2 POP JUMPDEST PUSH1 0x20 DUP3 LT DUP2 SUB PUSH2 0x8B4 JUMPI PUSH4 0x4E487B71 PUSH1 0xE0 SHL PUSH1 0x0 MSTORE PUSH1 0x22 PUSH1 0x4 MSTORE PUSH1 0x24 PUSH1 0x0 REVERT JUMPDEST POP SWAP2 SWAP1 POP JUMP JUMPDEST DUP1 DUP3 ADD DUP1 DUP3 GT ISZERO PUSH2 0x2B8 JUMPI PUSH4 0x4E487B71 PUSH1 0xE0 SHL PUSH1 0x0 MSTORE PUSH1 0x11 PUSH1 0x4 MSTORE PUSH1 0x24 PUSH1 0x0 REVERT INVALID LOG2 PUSH5 0x6970667358 0x22 SLT KECCAK256 0xBD SWAP4 PUSH13 0x1763FCC336C7D1C45F774D88AB PUSH17 0x33A66070011519DBD3906D16D2CCB16473 PUSH16 0x6C634300081400330000000000000000 "},"methodIdentifiers":{"baseRatePerBlockBUSD()":"2f5b0aba","baseRatePerBlockCOL()":"fd47fbf2","borrowBUSD(uint256)":"4577848e","borrowCOL(uint256)":"4564987a","borrowIndexBUSD()":"bf83df13","borrowIndexCOL()":"ba08ff9b","depositBUSD(uint256)":"46bfe1df","depositCOL(uint256)":"056fd0f7","depositCollateralPBUSD(uint256)":"a178f59d","depositCollateralPCOL(uint256)":"a3e3d86e","depositFeeBps()":"ab879827","flashLoan(address,address,uint256,bytes)":"5cffe9de","flashLoanFeeBps()":"c0c7347e","getBorrowAPYBUSD()":"19b87fe8","getBorrowAPYCOL()":"30e0c05e","getBorrowIndexBUSDView()":"fdd73f41","getBorrowIndexCOLView()":"82463417","getBorrowRatePerBlockBUSD()":"38124fa4","getBorrowRatePerBlockCOL()":"3c6ce203","getCurrentDebtBUSD(address)":"4454a10e","getCurrentDebtCOL(address)":"2beabef3","getDepositFeeBUSD(uint256)":"ec81c8bb","getDepositFeeCOL(uint256)":"a64bacc9","getFlashLoanFee(uint256)":"8dd2a7cf","getHealthFactorPBUSD(address)":"226f4b4e","getHealthFactorPCOL(address)":"326770f2","getMaxBorrowBUSD(address)":"1c1318eb","getMaxBorrowCOL(address)":"752e6088","getPriceBUSDIn8()":"ac72d9ac","getPriceCOLIn8()":"f205743f","getSupplyAPYBUSD()":"a1957856","getSupplyAPYCOL()":"6e2e4659","getUserPositionPBUSD(address)":"b7be98ab","getUserPositionPCOL(address)":"e68a5c04","getUtilizationBUSD()":"a74f0bfa","getUtilizationCOL()":"3d60db5a","governanceToken()":"f96dae0a","impactFeeMultiplierBps()":"57c9df26","injectBUSD(uint256)":"4a1a3e9c","injectCOL(uint256)":"43aff645","isLiquidatablePBUSD(address)":"f9efd058","isLiquidatablePCOL(address)":"adcd54a7","lastBlockBUSD()":"8edb376c","lastBlockCOL()":"f4216de1","liquidateBUSD(address)":"ffdee98d","liquidateCOL(address)":"68532c95","liquidationBonus()":"7b7c1f4c","liquidationThresholdPBUSD()":"70f5407d","liquidationThresholdPCOL()":"e3709b46","lockedPBUSD(address)":"21c61671","lockedPCOL(address)":"28a88d23","optimalUtilizationBUSD()":"2b536beb","optimalUtilizationCOL()":"2aa842b1","pbusdToken()":"128078a7","pcolToken()":"1f59d2b8","repayBUSD(uint256)":"f5908219","repayCOL(uint256)":"f678e9d7","reserveFactorBpsBUSD()":"8617d017","reserveFactorBpsCOL()":"3c5607a5","rewardPerBorrow()":"26bbb608","rewardPerDeposit()":"ea4e2fd2","scaledDebtBUSD(address)":"01fbcfde","scaledDebtCOL(address)":"dceba451","slope1PerBlockBUSD()":"e9e582b9","slope1PerBlockCOL()":"e229ae9e","slope2PerBlockBUSD()":"9f168ed8","slope2PerBlockCOL()":"99cea1ba","tokenBUSD()":"213ef7f7","tokenCOL()":"cbe98e3b","totalScaledDebtBUSD()":"c0656bd0","totalScaledDebtCOL()":"737808f4","withdrawBUSD(uint256)":"cc3bcaf3","withdrawCOL(uint256)":"7502237b","withdrawCollateralPBUSD(uint256)":"a32447bc","withdrawCollateralPCOL(uint256)":"edc38cb4"}}}}}