{"contracts/PCOLBUSDPool.sol":{"PCOLBUSDPool":{"abi":[{"inputs":[{"internalType":"address","name":"_tokenCOL","type":"address"},{"internalType":"address","name":"_tokenBUSD","type":"address"},{"internalType":"address","name":"_governanceToken","type":"address"}],"stateMutability":"nonpayable","type":"constructor"},{"inputs":[],"name":"ReentrancyGuardReentrantCall","type":"error"},{"inputs":[{"internalType":"address","name":"token","type":"address"}],"name":"SafeERC20FailedOperation","type":"error"},{"anonymous":false,"inputs":[{"indexed":true,"internalType":"address","name":"user","type":"address"},{"indexed":false,"internalType":"uint256","name":"amount","type":"uint256"}],"name":"BorrowBUSD","type":"event"},{"anonymous":false,"inputs":[{"indexed":true,"internalType":"address","name":"user","type":"address"},{"indexed":false,"internalType":"uint256","name":"amount","type":"uint256"}],"name":"BorrowCOL","type":"event"},{"anonymous":false,"inputs":[{"indexed":true,"internalType":"address","name":"user","type":"address"},{"indexed":false,"internalType":"uint256","name":"amount","type":"uint256"},{"indexed":false,"internalType":"uint256","name":"pbusdMinted","type":"uint256"}],"name":"DepositBUSD","type":"event"},{"anonymous":false,"inputs":[{"indexed":true,"internalType":"address","name":"user","type":"address"},{"indexed":false,"internalType":"uint256","name":"amount","type":"uint256"},{"indexed":false,"internalType":"uint256","name":"pcolMinted","type":"uint256"}],"name":"DepositCOL","type":"event"},{"anonymous":false,"inputs":[{"indexed":true,"internalType":"address","name":"user","type":"address"},{"indexed":false,"internalType":"uint256","name":"amount","type":"uint256"}],"name":"DepositCollateralPBUSD","type":"event"},{"anonymous":false,"inputs":[{"indexed":true,"internalType":"address","name":"user","type":"address"},{"indexed":false,"internalType":"uint256","name":"amount","type":"uint256"}],"name":"DepositCollateralPCOL","type":"event"},{"anonymous":false,"inputs":[{"indexed":true,"internalType":"address","name":"receiver","type":"address"},{"indexed":true,"internalType":"address","name":"asset","type":"address"},{"indexed":false,"internalType":"uint256","name":"amount","type":"uint256"},{"indexed":false,"internalType":"uint256","name":"fee","type":"uint256"}],"name":"FlashLoan","type":"event"},{"anonymous":false,"inputs":[{"indexed":true,"internalType":"address","name":"liquidator","type":"address"},{"indexed":true,"internalType":"address","name":"user","type":"address"},{"indexed":false,"internalType":"uint256","name":"debtRepaid","type":"uint256"},{"indexed":false,"internalType":"uint256","name":"pcolReceived","type":"uint256"}],"name":"LiquidateBUSD","type":"event"},{"anonymous":false,"inputs":[{"indexed":true,"internalType":"address","name":"liquidator","type":"address"},{"indexed":true,"internalType":"address","name":"user","type":"address"},{"indexed":false,"internalType":"uint256","name":"debtRepaid","type":"uint256"},{"indexed":false,"internalType":"uint256","name":"pbusdReceived","type":"uint256"}],"name":"LiquidateCOL","type":"event"},{"anonymous":false,"inputs":[{"indexed":true,"internalType":"address","name":"user","type":"address"},{"indexed":false,"internalType":"uint256","name":"amount","type":"uint256"}],"name":"RepayBUSD","type":"event"},{"anonymous":false,"inputs":[{"indexed":true,"internalType":"address","name":"user","type":"address"},{"indexed":false,"internalType":"uint256","name":"amount","type":"uint256"}],"name":"RepayCOL","type":"event"},{"anonymous":false,"inputs":[{"indexed":true,"internalType":"address","name":"user","type":"address"},{"indexed":false,"internalType":"uint256","name":"amount","type":"uint256"},{"indexed":false,"internalType":"uint256","name":"pbusdBurned","type":"uint256"}],"name":"WithdrawBUSD","type":"event"},{"anonymous":false,"inputs":[{"indexed":true,"internalType":"address","name":"user","type":"address"},{"indexed":false,"internalType":"uint256","name":"amount","type":"uint256"},{"indexed":false,"internalType":"uint256","name":"pcolBurned","type":"uint256"}],"name":"WithdrawCOL","type":"event"},{"anonymous":false,"inputs":[{"indexed":true,"internalType":"address","name":"user","type":"address"},{"indexed":false,"internalType":"uint256","name":"amount","type":"uint256"}],"name":"WithdrawCollateralPBUSD","type":"event"},{"anonymous":false,"inputs":[{"indexed":true,"internalType":"address","name":"user","type":"address"},{"indexed":false,"internalType":"uint256","name":"amount","type":"uint256"}],"name":"WithdrawCollateralPCOL","type":"event"},{"inputs":[],"name":"baseRatePerBlockBUSD","outputs":[{"internalType":"uint256","name":"","type":"uint256"}],"stateMutability":"view","type":"function"},{"inputs":[],"name":"baseRatePerBlockCOL","outputs":[{"internalType":"uint256","name":"","type":"uint256"}],"stateMutability":"view","type":"function"},{"inputs":[{"internalType":"uint256","name":"amount","type":"uint256"}],"name":"borrowBUSD","outputs":[],"stateMutability":"nonpayable","type":"function"},{"inputs":[{"internalType":"uint256","name":"amount","type":"uint256"}],"name":"borrowCOL","outputs":[],"stateMutability":"nonpayable","type":"function"},{"inputs":[],"name":"borrowIndexBUSD","outputs":[{"internalType":"uint256","name":"","type":"uint256"}],"stateMutability":"view","type":"function"},{"inputs":[],"name":"borrowIndexCOL","outputs":[{"internalType":"uint256","name":"","type":"uint256"}],"stateMutability":"view","type":"function"},{"inputs":[{"internalType":"uint256","name":"amount","type":"uint256"}],"name":"depositBUSD","outputs":[],"stateMutability":"nonpayable","type":"function"},{"inputs":[{"internalType":"uint256","name":"amount","type":"uint256"}],"name":"depositCOL","outputs":[],"stateMutability":"nonpayable","type":"function"},{"inputs":[{"internalType":"uint256","name":"amount","type":"uint256"}],"name":"depositCollateralPBUSD","outputs":[],"stateMutability":"nonpayable","type":"function"},{"inputs":[{"internalType":"uint256","name":"amount","type":"uint256"}],"name":"depositCollateralPCOL","outputs":[],"stateMutability":"nonpayable","type":"function"},{"inputs":[],"name":"depositFeeBps","outputs":[{"internalType":"uint256","name":"","type":"uint256"}],"stateMutability":"view","type":"function"},{"inputs":[{"internalType":"address","name":"receiverAddress","type":"address"},{"internalType":"address","name":"asset","type":"address"},{"internalType":"uint256","name":"amount","type":"uint256"},{"internalType":"bytes","name":"params","type":"bytes"}],"name":"flashLoan","outputs":[],"stateMutability":"nonpayable","type":"function"},{"inputs":[],"name":"flashLoanFeeBps","outputs":[{"internalType":"uint256","name":"","type":"uint256"}],"stateMutability":"view","type":"function"},{"inputs":[],"name":"getBorrowAPYBUSD","outputs":[{"internalType":"uint256","name":"","type":"uint256"}],"stateMutability":"view","type":"function"},{"inputs":[],"name":"getBorrowAPYCOL","outputs":[{"internalType":"uint256","name":"","type":"uint256"}],"stateMutability":"view","type":"function"},{"inputs":[],"name":"getBorrowIndexBUSDView","outputs":[{"internalType":"uint256","name":"","type":"uint256"}],"stateMutability":"view","type":"function"},{"inputs":[],"name":"getBorrowIndexCOLView","outputs":[{"internalType":"uint256","name":"","type":"uint256"}],"stateMutability":"view","type":"function"},{"inputs":[],"name":"getBorrowRatePerBlockBUSD","outputs":[{"internalType":"uint256","name":"","type":"uint256"}],"stateMutability":"view","type":"function"},{"inputs":[],"name":"getBorrowRatePerBlockCOL","outputs":[{"internalType":"uint256","name":"","type":"uint256"}],"stateMutability":"view","type":"function"},{"inputs":[{"internalType":"address","name":"user","type":"address"}],"name":"getCurrentDebtBUSD","outputs":[{"internalType":"uint256","name":"","type":"uint256"}],"stateMutability":"view","type":"function"},{"inputs":[{"internalType":"address","name":"user","type":"address"}],"name":"getCurrentDebtCOL","outputs":[{"internalType":"uint256","name":"","type":"uint256"}],"stateMutability":"view","type":"function"},{"inputs":[{"internalType":"uint256","name":"amount","type":"uint256"}],"name":"getFlashLoanFee","outputs":[{"internalType":"uint256","name":"","type":"uint256"}],"stateMutability":"view","type":"function"},{"inputs":[{"internalType":"address","name":"user","type":"address"}],"name":"getHealthFactorPBUSD","outputs":[{"internalType":"uint256","name":"","type":"uint256"}],"stateMutability":"view","type":"function"},{"inputs":[{"internalType":"address","name":"user","type":"address"}],"name":"getHealthFactorPCOL","outputs":[{"internalType":"uint256","name":"","type":"uint256"}],"stateMutability":"view","type":"function"},{"inputs":[{"internalType":"address","name":"user","type":"address"}],"name":"getMaxBorrowBUSD","outputs":[{"internalType":"uint256","name":"","type":"uint256"}],"stateMutability":"view","type":"function"},{"inputs":[{"internalType":"address","name":"user","type":"address"}],"name":"getMaxBorrowCOL","outputs":[{"internalType":"uint256","name":"","type":"uint256"}],"stateMutability":"view","type":"function"},{"inputs":[],"name":"getPriceBUSDIn8","outputs":[{"internalType":"uint256","name":"","type":"uint256"}],"stateMutability":"pure","type":"function"},{"inputs":[],"name":"getPriceCOLIn8","outputs":[{"internalType":"uint256","name":"","type":"uint256"}],"stateMutability":"view","type":"function"},{"inputs":[],"name":"getSupplyAPYBUSD","outputs":[{"internalType":"uint256","name":"","type":"uint256"}],"stateMutability":"view","type":"function"},{"inputs":[],"name":"getSupplyAPYCOL","outputs":[{"internalType":"uint256","name":"","type":"uint256"}],"stateMutability":"view","type":"function"},{"inputs":[{"internalType":"address","name":"user","type":"address"}],"name":"getUserPositionPBUSD","outputs":[{"internalType":"uint256","name":"collateralPBUSD","type":"uint256"},{"internalType":"uint256","name":"debtCOL_","type":"uint256"}],"stateMutability":"view","type":"function"},{"inputs":[{"internalType":"address","name":"user","type":"address"}],"name":"getUserPositionPCOL","outputs":[{"internalType":"uint256","name":"collateralPCOL","type":"uint256"},{"internalType":"uint256","name":"debtBUSD_","type":"uint256"}],"stateMutability":"view","type":"function"},{"inputs":[],"name":"getUtilizationBUSD","outputs":[{"internalType":"uint256","name":"","type":"uint256"}],"stateMutability":"view","type":"function"},{"inputs":[],"name":"getUtilizationCOL","outputs":[{"internalType":"uint256","name":"","type":"uint256"}],"stateMutability":"view","type":"function"},{"inputs":[],"name":"governanceToken","outputs":[{"internalType":"contract GovernanceToken","name":"","type":"address"}],"stateMutability":"view","type":"function"},{"inputs":[{"internalType":"address","name":"user","type":"address"}],"name":"isLiquidatablePBUSD","outputs":[{"internalType":"bool","name":"","type":"bool"}],"stateMutability":"view","type":"function"},{"inputs":[{"internalType":"address","name":"user","type":"address"}],"name":"isLiquidatablePCOL","outputs":[{"internalType":"bool","name":"","type":"bool"}],"stateMutability":"view","type":"function"},{"inputs":[],"name":"lastBlockBUSD","outputs":[{"internalType":"uint256","name":"","type":"uint256"}],"stateMutability":"view","type":"function"},{"inputs":[],"name":"lastBlockCOL","outputs":[{"internalType":"uint256","name":"","type":"uint256"}],"stateMutability":"view","type":"function"},{"inputs":[{"internalType":"address","name":"user","type":"address"}],"name":"liquidateBUSD","outputs":[],"stateMutability":"nonpayable","type":"function"},{"inputs":[{"internalType":"address","name":"user","type":"address"}],"name":"liquidateCOL","outputs":[],"stateMutability":"nonpayable","type":"function"},{"inputs":[],"name":"liquidationBonus","outputs":[{"internalType":"uint256","name":"","type":"uint256"}],"stateMutability":"view","type":"function"},{"inputs":[],"name":"liquidationThresholdPBUSD","outputs":[{"internalType":"uint256","name":"","type":"uint256"}],"stateMutability":"view","type":"function"},{"inputs":[],"name":"liquidationThresholdPCOL","outputs":[{"internalType":"uint256","name":"","type":"uint256"}],"stateMutability":"view","type":"function"},{"inputs":[{"internalType":"address","name":"","type":"address"}],"name":"lockedPBUSD","outputs":[{"internalType":"uint256","name":"","type":"uint256"}],"stateMutability":"view","type":"function"},{"inputs":[{"internalType":"address","name":"","type":"address"}],"name":"lockedPCOL","outputs":[{"internalType":"uint256","name":"","type":"uint256"}],"stateMutability":"view","type":"function"},{"inputs":[],"name":"optimalUtilizationBUSD","outputs":[{"internalType":"uint256","name":"","type":"uint256"}],"stateMutability":"view","type":"function"},{"inputs":[],"name":"optimalUtilizationCOL","outputs":[{"internalType":"uint256","name":"","type":"uint256"}],"stateMutability":"view","type":"function"},{"inputs":[],"name":"pbusdToken","outputs":[{"internalType":"contract ReceiptToken","name":"","type":"address"}],"stateMutability":"view","type":"function"},{"inputs":[],"name":"pcolToken","outputs":[{"internalType":"contract ReceiptToken","name":"","type":"address"}],"stateMutability":"view","type":"function"},{"inputs":[{"internalType":"uint256","name":"amount","type":"uint256"}],"name":"repayBUSD","outputs":[],"stateMutability":"nonpayable","type":"function"},{"inputs":[{"internalType":"uint256","name":"amount","type":"uint256"}],"name":"repayCOL","outputs":[],"stateMutability":"nonpayable","type":"function"},{"inputs":[],"name":"reserveFactorBpsBUSD","outputs":[{"internalType":"uint256","name":"","type":"uint256"}],"stateMutability":"view","type":"function"},{"inputs":[],"name":"reserveFactorBpsCOL","outputs":[{"internalType":"uint256","name":"","type":"uint256"}],"stateMutability":"view","type":"function"},{"inputs":[],"name":"rewardPerBorrow","outputs":[{"internalType":"uint256","name":"","type":"uint256"}],"stateMutability":"view","type":"function"},{"inputs":[],"name":"rewardPerDeposit","outputs":[{"internalType":"uint256","name":"","type":"uint256"}],"stateMutability":"view","type":"function"},{"inputs":[{"internalType":"address","name":"","type":"address"}],"name":"scaledDebtBUSD","outputs":[{"internalType":"uint256","name":"","type":"uint256"}],"stateMutability":"view","type":"function"},{"inputs":[{"internalType":"address","name":"","type":"address"}],"name":"scaledDebtCOL","outputs":[{"internalType":"uint256","name":"","type":"uint256"}],"stateMutability":"view","type":"function"},{"inputs":[],"name":"slope1PerBlockBUSD","outputs":[{"internalType":"uint256","name":"","type":"uint256"}],"stateMutability":"view","type":"function"},{"inputs":[],"name":"slope1PerBlockCOL","outputs":[{"internalType":"uint256","name":"","type":"uint256"}],"stateMutability":"view","type":"function"},{"inputs":[],"name":"slope2PerBlockBUSD","outputs":[{"internalType":"uint256","name":"","type":"uint256"}],"stateMutability":"view","type":"function"},{"inputs":[],"name":"slope2PerBlockCOL","outputs":[{"internalType":"uint256","name":"","type":"uint256"}],"stateMutability":"view","type":"function"},{"inputs":[],"name":"tokenBUSD","outputs":[{"internalType":"address","name":"","type":"address"}],"stateMutability":"view","type":"function"},{"inputs":[],"name":"tokenCOL","outputs":[{"internalType":"address","name":"","type":"address"}],"stateMutability":"view","type":"function"},{"inputs":[],"name":"totalScaledDebtBUSD","outputs":[{"internalType":"uint256","name":"","type":"uint256"}],"stateMutability":"view","type":"function"},{"inputs":[],"name":"totalScaledDebtCOL","outputs":[{"internalType":"uint256","name":"","type":"uint256"}],"stateMutability":"view","type":"function"},{"inputs":[{"internalType":"uint256","name":"amount","type":"uint256"}],"name":"withdrawBUSD","outputs":[],"stateMutability":"nonpayable","type":"function"},{"inputs":[{"internalType":"uint256","name":"amount","type":"uint256"}],"name":"withdrawCOL","outputs":[],"stateMutability":"nonpayable","type":"function"},{"inputs":[{"internalType":"uint256","name":"amount","type":"uint256"}],"name":"withdrawCollateralPBUSD","outputs":[],"stateMutability":"nonpayable","type":"function"},{"inputs":[{"internalType":"uint256","name":"amount","type":"uint256"}],"name":"withdrawCollateralPCOL","outputs":[],"stateMutability":"nonpayable","type":"function"}],"evm":{"bytecode":{"linkReferences":{},"object":"610100604052670de0b6b3a7640000600555670de0b6b3a76400006006556402540be400600b5564174876e800600c556501d1a94a2000600d55670bcbce7f1b150000600e556402540be400600f55642e90edd0006010556502ba7def30006011556707a1fe16027700006012556103e86013556103e86014556119646015556121346016556103e860175560096018556005601955670de0b6b3a7640000601a5567016345785d8a0000601b55348015620000ba57600080fd5b50604051620057f6380380620057f6833981016040819052620000dd9162000356565b60017f9b779b17422d0df92223018b32b4d1fa46e071723d6817e2486d003becc55f00556001600160a01b038316158015906200012257506001600160a01b03821615155b80156200013757506001600160a01b03811615155b6200017e5760405162461bcd60e51b815260206004820152601260248201527150434f4c42555344506f6f6c3a207a65726f60701b60448201526064015b60405180910390fd5b816001600160a01b0316836001600160a01b031603620001e15760405162461bcd60e51b815260206004820152601860248201527f50434f4c42555344506f6f6c3a2073616d6520746f6b656e0000000000000000604482015260640162000175565b6001600160a01b03808416608052821660a052604051309062000204906200032b565b606080825260089082015267141bdbdb0810d3d360c21b608082015260a060208201819052600490820152631410d3d360e21b60c08201526001600160a01b03909116604082015260e001604051809103906000f0801580156200026c573d6000803e3d6000fd5b506001600160a01b031660c052604051309062000289906200032b565b606080825260099082015268141bdbdb08109554d160ba1b608082015260a0602082018190526005908201526414109554d160da1b60c08201526001600160a01b03909116604082015260e001604051809103906000f080158015620002f3573d6000803e3d6000fd5b506001600160a01b0390811660e052600080546001600160a01b031916929091169190911790555050436007819055600855620003a0565b610cad8062004b4983390190565b80516001600160a01b03811681146200035157600080fd5b919050565b6000806000606084860312156200036c57600080fd5b620003778462000339565b9250620003876020850162000339565b9150620003976040850162000339565b90509250925092565b60805160a05160c05160e05161462d6200051c600039600081816104640152818161177001528181611e7001528181611ee701528181612578015281816127130152612a2d0152600081816104be01528181610962015281816120e2015281816127a101528181612c090152818161322001526132970152600081816104e501528181610af3015281816114a30152818161160601528181611703015281816118c801528181612215015281816128410152818161295501528181612aa301528181612d57015281816131db0152818161339b01528181613629015281816139aa01528181613d5b01528181613ff50152614154015260008181610797015281816108f501528181610b8901528181610ffd015281816111b90152818161131c0152818161188d01528181611e2b0152818161200a01528181612158015281816122ab01528181612eba01528181613431015281816135a301528181613a4001528181613bb401528181613f6f01526140d1015261462d6000f3fe608060405234801561001057600080fd5b50600436106104125760003560e01c80638dd2a7cf11610220578063cbe98e3b11610130578063f205743f116100b8578063f96dae0a11610087578063f96dae0a1461086d578063f9efd05814610880578063fd47fbf214610893578063fdd73f411461089c578063ffdee98d146108a457600080fd5b8063f205743f14610836578063f4216de11461083e578063f590821914610847578063f678e9d71461085a57600080fd5b8063e3709b46116100ff578063e3709b46146107f5578063e68a5c04146107fe578063e9e582b914610811578063ea4e2fd21461081a578063edc38cb41461082357600080fd5b8063cbe98e3b14610792578063cc3bcaf3146107b9578063dceba451146107cc578063e229ae9e146107ec57600080fd5b8063a74f0bfa116101b3578063b7be98ab11610182578063b7be98ab14610746578063ba08ff9b1461076e578063bf83df1314610777578063c0656bd014610780578063c0c7347e1461078957600080fd5b8063a74f0bfa14610708578063ab87982714610710578063ac72d9ac14610719578063adcd54a71461072357600080fd5b8063a178f59d116101ef578063a178f59d146106c7578063a1957856146106da578063a32447bc146106e2578063a3e3d86e146106f557600080fd5b80638dd2a7cf146106995780638edb376c146106ac57806399cea1ba146106b55780639f168ed8146106be57600080fd5b806338124fa41161032657806368532c95116102ae5780637502237b1161027d5780637502237b14610659578063752e60881461066c5780637b7c1f4c1461067f57806382463417146106885780638617d0171461069057600080fd5b806368532c951461062c5780636e2e46591461063f57806370f5407d14610647578063737808f41461065057600080fd5b80634454a10e116102f55780634454a10e146105cd5780634564987a146105e05780634577848e146105f357806346bfe1df146106065780635cffe9de1461061957600080fd5b806338124fa4146105ac5780633c5607a5146105b45780633c6ce203146105bd5780633d60db5a146105c557600080fd5b8063226f4b4e116103a95780632b536beb116103785780632b536beb1461056c5780632beabef3146105755780632f5b0aba1461058857806330e0c05e14610591578063326770f21461059957600080fd5b8063226f4b4e1461052757806326bbb6081461053a57806328a88d23146105435780632aa842b11461056357600080fd5b80631c1318eb116103e55780631c1318eb146104a65780631f59d2b8146104b9578063213ef7f7146104e057806321c616711461050757600080fd5b806301fbcfde14610417578063056fd0f71461044a578063128078a71461045f57806319b87fe81461049e575b600080fd5b61043761042536600461424f565b60036020526000908152604090205481565b6040519081526020015b60405180910390f35b61045d61045836600461426a565b6108b7565b005b6104867f000000000000000000000000000000000000000000000000000000000000000081565b6040516001600160a01b039091168152602001610441565b610437610a95565b6104376104b436600461424f565b610ab2565b6104867f000000000000000000000000000000000000000000000000000000000000000081565b6104867f000000000000000000000000000000000000000000000000000000000000000081565b61043761051536600461424f565b60026020526000908152604090205481565b61043761053536600461424f565b610d33565b610437601b5481565b61043761055136600461424f565b60016020526000908152604090205481565b61043760125481565b610437600e5481565b61043761058336600461424f565b610dc8565b610437600b5481565b610437610e0e565b6104376105a736600461424f565b610e1c565b610437610e88565b61043760145481565b610437610f43565b610437610fdb565b6104376105db36600461424f565b6110d6565b61045d6105ee36600461426a565b61110c565b61045d61060136600461426a565b611400565b61045d61061436600461426a565b6116ce565b61045d610627366004614283565b611883565b61045d61063a36600461424f565b611c4d565b610437611f71565b61043760165481565b610437600a5481565b61045d61066736600461426a565b611fcb565b61043761067a36600461424f565b6121d4565b61043760175481565b610437612446565b61043760135481565b6104376106a736600461426a565b612530565b61043760075481565b61043760115481565b610437600d5481565b61045d6106d536600461426a565b612543565b6104376125f6565b61045d6106f036600461426a565b612632565b61045d61070336600461426a565b61276c565b61043761281f565b61043760195481565b6305f5e100610437565b61073661073136600461424f565b6128ce565b6040519015158152602001610441565b61075961075436600461424f565b6128e9565b60408051928352602083019190915201610441565b61043760065481565b61043760055481565b61043760095481565b61043760185481565b6104867f000000000000000000000000000000000000000000000000000000000000000081565b61045d6107c736600461426a565b612916565b6104376107da36600461424f565b60046020526000908152604090205481565b61043760105481565b61043760155481565b61075961080c36600461424f565b612b04565b610437600c5481565b610437601a5481565b61045d61083136600461426a565b612b28565b610437612c62565b61043760085481565b61045d61085536600461426a565b612c6c565b61045d61086836600461426a565b612dcf565b600054610486906001600160a01b031681565b61073661088e36600461424f565b612f14565b610437600f5481565b610437612f28565b61045d6108b236600461424f565b612ffd565b6108bf613301565b600081116108e85760405162461bcd60e51b81526004016108df9061431e565b60405180910390fd5b61091d6001600160a01b037f00000000000000000000000000000000000000000000000000000000000000001633308461331d565b6000612710601954836109309190614360565b61093a919061438d565b9050600061094882846143a1565b6040516340c10f1960e01b81529091506001600160a01b037f000000000000000000000000000000000000000000000000000000000000000016906340c10f199061099990339085906004016143b4565b600060405180830381600087803b1580156109b357600080fd5b505af11580156109c7573d6000803e3d6000fd5b505050506000601a541115610a3d57600054601a54604051634d24848760e11b81526001600160a01b0390921691639a49090e91610a0a913391906004016143b4565b600060405180830381600087803b158015610a2457600080fd5b505af1158015610a38573d6000803e3d6000fd5b505050505b604080518481526020810183905233917f69cf9c0357203eb60830c3c768cc9adf5436120832d38c926997c4523adc816791015b60405180910390a25050610a9260016000805160206145d883398151915255565b50565b600062201480610aa3610e88565b610aad9190614360565b905090565b6001600160a01b038116600090815260016020526040812054808203610adb5750600092915050565b6040516370a0823160e01b81523060048201526000907f00000000000000000000000000000000000000000000000000000000000000006001600160a01b0316906370a0823190602401602060405180830381865afa158015610b42573d6000803e3d6000fd5b505050506040513d601f19601f82011682018060405250810190610b6691906143cd565b6040516370a0823160e01b81523060048201529091506000906001600160a01b037f000000000000000000000000000000000000000000000000000000000000000016906370a0823190602401602060405180830381865afa158015610bd0573d6000803e3d6000fd5b505050506040513d601f19601f82011682018060405250810190610bf491906143cd565b905080600003610c0957506000949350505050565b6000610c14866110d6565b601554909150600081610c278688614360565b610c319190614360565b90506000612710610c428686614360565b610c4c9190614360565b9050808211610c645750600098975050505050505050565b6000610c7261271087614360565b610c7c858a614360565b610c8691906143e6565b610c9083856143a1565b610c9a919061438d565b905086811115610ca75750855b80600003610cbf575060009998505050505050505050565b6000815b80821015610d245760006002610cd983856143e6565b610ce49060016143e6565b610cee919061438d565b9050670de0b6b3a7640000610d038e83613359565b10610d1057809250610d1e565b610d1b6001826143a1565b91505b50610cc3565b509a9950505050505050505050565b600080610d3f83610dc8565b905080600003610d53575060001992915050565b6000610d5d61357d565b610d679083614360565b90506000610d74856136f6565b905081600003610d8a5750600019949350505050565b610d9661271083614360565b601654610da39083614360565b610db590670de0b6b3a7640000614360565b610dbf919061438d565b95945050505050565b6000670de0b6b3a7640000610ddb612446565b6001600160a01b038416600090815260046020526040902054610dfe9190614360565b610e08919061438d565b92915050565b600062201480610aa3610f43565b600080610e28836110d6565b905080600003610e3c575060001992915050565b6000610e4c6305f5e10083614360565b90506000610e598561371e565b905081600003610e6f5750600019949350505050565b610e7b61271083614360565b601554610da39083614360565b600080610e9361281f565b600e54909150808211610ed557670de0b6b3a764000082600c54610eb79190614360565b610ec1919061438d565b600b54610ece91906143e6565b9250505090565b6000670de0b6b3a764000082600c54610eee9190614360565b610ef8919061438d565b600b54610f0591906143e6565b9050670de0b6b3a7640000610f1a83856143a1565b600d54610f279190614360565b610f31919061438d565b610f3b90826143e6565b935050505090565b600080610f4e610fdb565b601254909150808211610f8957670de0b6b3a764000082601054610f729190614360565b610f7c919061438d565b600f54610ece91906143e6565b6000670de0b6b3a764000082601054610fa29190614360565b610fac919061438d565b600f54610fb991906143e6565b9050670de0b6b3a7640000610fce83856143a1565b601154610f279190614360565b6040516370a0823160e01b815230600482015260009081906001600160a01b037f000000000000000000000000000000000000000000000000000000000000000016906370a0823190602401602060405180830381865afa158015611044573d6000803e3d6000fd5b505050506040513d601f19601f8201168201806040525081019061106891906143cd565b90506000670de0b6b3a764000061107d612446565b600a5461108a9190614360565b611094919061438d565b905060006110a282846143e6565b905080156110cc57806110bd83670de0b6b3a7640000614360565b6110c7919061438d565b610f3b565b6000935050505090565b6000670de0b6b3a76400006110e9612f28565b6001600160a01b038416600090815260036020526040902054610dfe9190614360565b611114613301565b61111c613760565b6000811161113c5760405162461bcd60e51b81526004016108df9061431e565b336000908152600260205260409020546111a25760405162461bcd60e51b815260206004820152602160248201527f50434f4c42555344506f6f6c3a206e6f20504255534420636f6c6c61746572616044820152601b60fa1b60648201526084016108df565b6040516370a0823160e01b815230600482015281907f00000000000000000000000000000000000000000000000000000000000000006001600160a01b0316906370a0823190602401602060405180830381865afa158015611208573d6000803e3d6000fd5b505050506040513d601f19601f8201168201806040525081019061122c91906143cd565b101561127a5760405162461bcd60e51b815260206004820152601e60248201527f50434f4c42555344506f6f6c3a20696e73756666696369656e7420434f4c000060448201526064016108df565b60065460009061129283670de0b6b3a7640000614360565b61129c919061438d565b336000908152600460205260408120805492935083929091906112c09084906143e6565b9250508190555080600a60008282546112d991906143e6565b90915550670de0b6b3a764000090506112f133610d33565b101561130f5760405162461bcd60e51b81526004016108df906143f9565b6113436001600160a01b037f0000000000000000000000000000000000000000000000000000000000000000163384613847565b601b54156113b257600054601b54604051634d24848760e11b81526001600160a01b0390921691639a49090e9161137f913391906004016143b4565b600060405180830381600087803b15801561139957600080fd5b505af11580156113ad573d6000803e3d6000fd5b505050505b60405182815233907f64058ef3fd742704269a61c4d8e869ac215d70d1dfbd716d4746da00fa89a839906020015b60405180910390a250610a9260016000805160206145d883398151915255565b611408613301565b611410613881565b600081116114305760405162461bcd60e51b81526004016108df9061431e565b3360009081526001602052604090205461148c5760405162461bcd60e51b815260206004820181905260248201527f50434f4c42555344506f6f6c3a206e6f2050434f4c20636f6c6c61746572616c60448201526064016108df565b6040516370a0823160e01b815230600482015281907f00000000000000000000000000000000000000000000000000000000000000006001600160a01b0316906370a0823190602401602060405180830381865afa1580156114f2573d6000803e3d6000fd5b505050506040513d601f19601f8201168201806040525081019061151691906143cd565b10156115645760405162461bcd60e51b815260206004820152601f60248201527f50434f4c42555344506f6f6c3a20696e73756666696369656e7420425553440060448201526064016108df565b60055460009061157c83670de0b6b3a7640000614360565b611586919061438d565b336000908152600360205260408120805492935083929091906115aa9084906143e6565b9250508190555080600960008282546115c391906143e6565b90915550670de0b6b3a764000090506115db33610e1c565b10156115f95760405162461bcd60e51b81526004016108df906143f9565b61162d6001600160a01b037f0000000000000000000000000000000000000000000000000000000000000000163384613847565b601b541561169c57600054601b54604051634d24848760e11b81526001600160a01b0390921691639a49090e91611669913391906004016143b4565b600060405180830381600087803b15801561168357600080fd5b505af1158015611697573d6000803e3d6000fd5b505050505b60405182815233907ff6fc424a68d90f3f5323be41db315721f4b8843b3799ae1089007f88e2190551906020016113e0565b6116d6613301565b600081116116f65760405162461bcd60e51b81526004016108df9061431e565b61172b6001600160a01b037f00000000000000000000000000000000000000000000000000000000000000001633308461331d565b60006127106019548361173e9190614360565b611748919061438d565b9050600061175682846143a1565b6040516340c10f1960e01b81529091506001600160a01b037f000000000000000000000000000000000000000000000000000000000000000016906340c10f19906117a790339085906004016143b4565b600060405180830381600087803b1580156117c157600080fd5b505af11580156117d5573d6000803e3d6000fd5b505050506000601a54111561184b57600054601a54604051634d24848760e11b81526001600160a01b0390921691639a49090e91611818913391906004016143b4565b600060405180830381600087803b15801561183257600080fd5b505af1158015611846573d6000803e3d6000fd5b505050505b604080518481526020810183905233917f8a2298614b2ccbbc8111d5698f4353b52ed97c61821ce6bb845f369a687cf4d39101610a71565b61188b613301565b7f00000000000000000000000000000000000000000000000000000000000000006001600160a01b0316846001600160a01b031614806118fc57507f00000000000000000000000000000000000000000000000000000000000000006001600160a01b0316846001600160a01b0316145b6119485760405162461bcd60e51b815260206004820152601960248201527f50434f4c42555344506f6f6c3a20756e737570706f727465640000000000000060448201526064016108df565b60008311801561195b5750601c5460ff16155b6119a75760405162461bcd60e51b815260206004820152601b60248201527f50434f4c42555344506f6f6c3a20696e76616c696420666c617368000000000060448201526064016108df565b6000612710601854856119ba9190614360565b6119c4919061438d565b601c805460ff191660011790556040516370a0823160e01b81523060048201529091506000906001600160a01b038716906370a0823190602401602060405180830381865afa158015611a1b573d6000803e3d6000fd5b505050506040513d601f19601f82011682018060405250810190611a3f91906143cd565b9050611a556001600160a01b0387168887613847565b604051631b11d0ff60e01b81526001600160a01b03881690631b11d0ff90611a8b9089908990879033908b908b90600401614423565b6020604051808303816000875af1158015611aaa573d6000803e3d6000fd5b505050506040513d601f19601f82011682018060405250810190611ace919061447f565b611b1a5760405162461bcd60e51b815260206004820152601a60248201527f50434f4c42555344506f6f6c3a20666c617368206661696c656400000000000060448201526064016108df565b611b2482826143e6565b6040516370a0823160e01b81523060048201526001600160a01b038816906370a0823190602401602060405180830381865afa158015611b68573d6000803e3d6000fd5b505050506040513d601f19601f82011682018060405250810190611b8c91906143cd565b1015611bda5760405162461bcd60e51b815260206004820152601860248201527f50434f4c42555344506f6f6c3a206e6f7420726570616964000000000000000060448201526064016108df565b601c805460ff1916905560408051868152602081018490526001600160a01b0388811692908a16917f0d7d75e01ab95780d3cd1c8ec0dd6c2ce19e3a20427eec8bf53283b6fb8e95f0910160405180910390a35050611c4660016000805160206145d883398151915255565b5050505050565b611c55613301565b611c5d613760565b670de0b6b3a7640000611c6f82610d33565b10611cbc5760405162461bcd60e51b815260206004820152601e60248201527f50434f4c42555344506f6f6c3a206e6f74206c6971756964617461626c65000060448201526064016108df565b6006546001600160a01b0382166000908152600460205260408120549091670de0b6b3a764000091611cee9190614360565b611cf8919061438d565b9050600081118015611d2157506001600160a01b03821660009081526002602052604090205415155b611d645760405162461bcd60e51b815260206004820152601460248201527350434f4c42555344506f6f6c3a206e6f20706f7360601b60448201526064016108df565b600654600090611d7c83670de0b6b3a7640000614360565b611d86919061438d565b6001600160a01b0384166000908152600460205260408120819055600a80549293508392909190611db89084906143a1565b90915550506001600160a01b038316600090815260026020526040812080549082905560175490919061271090611def90826143e6565b611df99084614360565b611e03919061438d565b905081811115611e105750805b6000611e1c82846143a1565b9050611e536001600160a01b037f00000000000000000000000000000000000000000000000000000000000000001633308861331d565b8015611eda57604051632770a7eb60e21b81526001600160a01b037f00000000000000000000000000000000000000000000000000000000000000001690639dc29fac90611ea790309085906004016143b4565b600060405180830381600087803b158015611ec157600080fd5b505af1158015611ed5573d6000803e3d6000fd5b505050505b611f0e6001600160a01b037f0000000000000000000000000000000000000000000000000000000000000000163384613847565b60408051868152602081018490526001600160a01b0388169133917fe912f4ccb4a26a55bf54b23b7e96fcac60ebc03b3e76ccdb6752b5d8abc7e8f991015b60405180910390a35050505050610a9260016000805160206145d883398151915255565b600080611f7c610fdb565b90506000611f88610e0e565b9050611f9e612710670de0b6b3a7640000614360565b601454611fad906127106143a1565b611fb78484614360565b611fc19190614360565b610ece919061438d565b611fd3613301565b60008111611ff35760405162461bcd60e51b81526004016108df9061431e565b6040516370a0823160e01b815230600482015281907f00000000000000000000000000000000000000000000000000000000000000006001600160a01b0316906370a0823190602401602060405180830381865afa158015612059573d6000803e3d6000fd5b505050506040513d601f19601f8201168201806040525081019061207d91906143cd565b10156120cb5760405162461bcd60e51b815260206004820152601e60248201527f50434f4c42555344506f6f6c3a20696e73756666696369656e7420434f4c000060448201526064016108df565b604051632770a7eb60e21b81526001600160a01b037f00000000000000000000000000000000000000000000000000000000000000001690639dc29fac9061211990339085906004016143b4565b600060405180830381600087803b15801561213357600080fd5b505af1158015612147573d6000803e3d6000fd5b506121819250506001600160a01b037f00000000000000000000000000000000000000000000000000000000000000001690503383613847565b604080518281526020810183905233917fd36c28d8252079f996f11d24e2776fcdc1e0f4ceadff156993aff84cbfd37a7591015b60405180910390a2610a9260016000805160206145d883398151915255565b6001600160a01b0381166000908152600260205260408120548082036121fd5750600092915050565b6040516370a0823160e01b81523060048201526000907f00000000000000000000000000000000000000000000000000000000000000006001600160a01b0316906370a0823190602401602060405180830381865afa158015612264573d6000803e3d6000fd5b505050506040513d601f19601f8201168201806040525081019061228891906143cd565b6040516370a0823160e01b81523060048201529091506000906001600160a01b037f000000000000000000000000000000000000000000000000000000000000000016906370a0823190602401602060405180830381865afa1580156122f2573d6000803e3d6000fd5b505050506040513d601f19601f8201168201806040525081019061231691906143cd565b90508160000361232b57506000949350505050565b600061233686610dc8565b6016549091506000836123498388614360565b6123539190614360565b905060006127106123648786614360565b61236e9190614360565b90508082116123865750600098975050505050505050565b600061239461271088614360565b61239e858a614360565b6123a891906143e6565b6123b283856143a1565b6123bc919061438d565b9050858111156123c95750845b806000036123e1575060009998505050505050505050565b6000815b80821015610d2457600060026123fb83856143e6565b6124069060016143e6565b612410919061438d565b9050670de0b6b3a76400006124258e83613968565b1061243257809250612440565b61243d6001826143a1565b91505b506123e5565b60006008544311612458575060065490565b60006008544361246891906143a1565b90506000612477600654613b92565b9050600061248d82670de0b6b3a76400006143e6565b9050670de0b6b3a764000083825b8115612504576124ac6002836144a1565b6001036124d357670de0b6b3a76400006124c68285614360565b6124d0919061438d565b92505b670de0b6b3a76400006124e68280614360565b6124f0919061438d565b90506124fd60028361438d565b915061249b565b670de0b6b3a76400008360065461251b9190614360565b612525919061438d565b965050505050505090565b600061271060185483610dfe9190614360565b61254b613301565b6000811161256b5760405162461bcd60e51b81526004016108df9061431e565b6125a06001600160a01b037f00000000000000000000000000000000000000000000000000000000000000001633308461331d565b33600090815260026020526040812080548392906125bf9084906143e6565b909155505060405181815233907f880138561f4bdf4c4463046399b16f8186186ad3f21982105d09e65905fafb9b906020016121b5565b60008061260161281f565b9050600061260d610a95565b9050612623612710670de0b6b3a7640000614360565b601354611fad906127106143a1565b61263a613301565b6000811180156126595750336000908152600260205260409020548111155b61269d5760405162461bcd60e51b81526020600482015260156024820152741410d3d3109554d1141bdbdb0e881a5b9d985b1a59605a1b60448201526064016108df565b33600090815260026020526040812080548392906126bc9084906143a1565b9091555050336000908152600460205260409020541561270657670de0b6b3a76400006126e833610d33565b10156127065760405162461bcd60e51b81526004016108df906143f9565b61273a6001600160a01b037f0000000000000000000000000000000000000000000000000000000000000000163383613847565b60405181815233907fb1f9afa3fb91753d83c90b2584137de0980aedcb24565bb6be5a4a044394da51906020016121b5565b612774613301565b600081116127945760405162461bcd60e51b81526004016108df9061431e565b6127c96001600160a01b037f00000000000000000000000000000000000000000000000000000000000000001633308461331d565b33600090815260016020526040812080548392906127e89084906143e6565b909155505060405181815233907f92c5aa6131247b5349ebe4c0b884354154558790641067d72925ac93b11a7de5906020016121b5565b6040516370a0823160e01b815230600482015260009081906001600160a01b037f000000000000000000000000000000000000000000000000000000000000000016906370a0823190602401602060405180830381865afa158015612888573d6000803e3d6000fd5b505050506040513d601f19601f820116820180604052508101906128ac91906143cd565b90506000670de0b6b3a76400006128c1612f28565b60095461108a9190614360565b6000670de0b6b3a76400006128e283610e1c565b1092915050565b6001600160a01b038116600090815260026020526040812054819061290d84610dc8565b91509150915091565b61291e613301565b6000811161293e5760405162461bcd60e51b81526004016108df9061431e565b6040516370a0823160e01b815230600482015281907f00000000000000000000000000000000000000000000000000000000000000006001600160a01b0316906370a0823190602401602060405180830381865afa1580156129a4573d6000803e3d6000fd5b505050506040513d601f19601f820116820180604052508101906129c891906143cd565b1015612a165760405162461bcd60e51b815260206004820152601f60248201527f50434f4c42555344506f6f6c3a20696e73756666696369656e7420425553440060448201526064016108df565b604051632770a7eb60e21b81526001600160a01b037f00000000000000000000000000000000000000000000000000000000000000001690639dc29fac90612a6490339085906004016143b4565b600060405180830381600087803b158015612a7e57600080fd5b505af1158015612a92573d6000803e3d6000fd5b50612acc9250506001600160a01b037f00000000000000000000000000000000000000000000000000000000000000001690503383613847565b604080518281526020810183905233917f8041f45367f7ccefd38c06ae22c296ca3ad95cf10be3c54c81c11f849f105f2b91016121b5565b6001600160a01b038116600090815260016020526040812054819061290d846110d6565b612b30613301565b600081118015612b4f5750336000908152600160205260409020548111155b612b935760405162461bcd60e51b81526020600482015260156024820152741410d3d3109554d1141bdbdb0e881a5b9d985b1a59605a1b60448201526064016108df565b3360009081526001602052604081208054839290612bb29084906143a1565b90915550503360009081526003602052604090205415612bfc57670de0b6b3a7640000612bde33610e1c565b1015612bfc5760405162461bcd60e51b81526004016108df906143f9565b612c306001600160a01b037f0000000000000000000000000000000000000000000000000000000000000000163383613847565b60405181815233907f5f2ac0b7ca7309144e88ededc8fa236c0a7019bdc8c02ab6f6db5095752e7cdc906020016121b5565b6000610aad61357d565b612c74613301565b612c7c613881565b60008111612c9c5760405162461bcd60e51b81526004016108df9061431e565b600554336000908152600360205260408120549091670de0b6b3a764000091612cc59190614360565b612ccf919061438d565b90506000818311612ce05782612ce2565b815b9050600060055482670de0b6b3a7640000612cfd9190614360565b612d07919061438d565b33600090815260036020526040812080549293508392909190612d2b9084906143a1565b925050819055508060096000828254612d4491906143a1565b90915550612d7f90506001600160a01b037f00000000000000000000000000000000000000000000000000000000000000001633308561331d565b60405182815233907fe2d5d60502594d615dd5827340647c7a7a88a014e9896fdef12f6458b60c0432906020015b60405180910390a2505050610a9260016000805160206145d883398151915255565b612dd7613301565b612ddf613760565b60008111612dff5760405162461bcd60e51b81526004016108df9061431e565b600654336000908152600460205260408120549091670de0b6b3a764000091612e289190614360565b612e32919061438d565b90506000818311612e435782612e45565b815b9050600060065482670de0b6b3a7640000612e609190614360565b612e6a919061438d565b33600090815260046020526040812080549293508392909190612e8e9084906143a1565b9250508190555080600a6000828254612ea791906143a1565b90915550612ee290506001600160a01b037f00000000000000000000000000000000000000000000000000000000000000001633308561331d565b60405182815233907fd79a2bc9877030756cd908acbb64634d527091be3edeed80cdea7ed4cf40be0590602001612dad565b6000670de0b6b3a76400006128e283610d33565b60006007544311612f3a575060055490565b600060075443612f4a91906143a1565b90506000612f59600554613d39565b90506000612f6f82670de0b6b3a76400006143e6565b9050670de0b6b3a764000083825b8115612fe657612f8e6002836144a1565b600103612fb557670de0b6b3a7640000612fa88285614360565b612fb2919061438d565b92505b670de0b6b3a7640000612fc88280614360565b612fd2919061438d565b9050612fdf60028361438d565b9150612f7d565b670de0b6b3a76400008360055461251b9190614360565b613005613301565b61300d613881565b670de0b6b3a764000061301f82610e1c565b1061306c5760405162461bcd60e51b815260206004820152601e60248201527f50434f4c42555344506f6f6c3a206e6f74206c6971756964617461626c65000060448201526064016108df565b6005546001600160a01b0382166000908152600360205260408120549091670de0b6b3a76400009161309e9190614360565b6130a8919061438d565b90506000811180156130d157506001600160a01b03821660009081526001602052604090205415155b6131145760405162461bcd60e51b815260206004820152601460248201527350434f4c42555344506f6f6c3a206e6f20706f7360601b60448201526064016108df565b60055460009061312c83670de0b6b3a7640000614360565b613136919061438d565b6001600160a01b03841660009081526003602052604081208190556009805492935083929091906131689084906143a1565b90915550506001600160a01b03831660009081526001602052604081208054908290556017549091906127109061319f90826143e6565b6131a99084614360565b6131b3919061438d565b9050818111156131c05750805b60006131cc82846143a1565b90506132036001600160a01b037f00000000000000000000000000000000000000000000000000000000000000001633308861331d565b801561328a57604051632770a7eb60e21b81526001600160a01b037f00000000000000000000000000000000000000000000000000000000000000001690639dc29fac9061325790309085906004016143b4565b600060405180830381600087803b15801561327157600080fd5b505af1158015613285573d6000803e3d6000fd5b505050505b6132be6001600160a01b037f0000000000000000000000000000000000000000000000000000000000000000163384613847565b60408051868152602081018490526001600160a01b0388169133917f1df8781babb2ce0b72d80a0d4eb75715b3f84d14598b945effa23c678f239a539101611f4d565b613309613eb5565b60026000805160206145d883398151915255565b61332b848484846001613ee7565b61335357604051635274afe760e01b81526001600160a01b03851660048201526024016108df565b50505050565b6001600160a01b038216600090815260016020526040812054808203613383576000915050610e08565b6040516370a0823160e01b81523060048201526000907f00000000000000000000000000000000000000000000000000000000000000006001600160a01b0316906370a0823190602401602060405180830381865afa1580156133ea573d6000803e3d6000fd5b505050506040513d601f19601f8201168201806040525081019061340e91906143cd565b6040516370a0823160e01b81523060048201529091506000906001600160a01b037f000000000000000000000000000000000000000000000000000000000000000016906370a0823190602401602060405180830381865afa158015613478573d6000803e3d6000fd5b505050506040513d601f19601f8201168201806040525081019061349c91906143cd565b90508015806134aa57508185115b156134bb5760009350505050610e08565b6000856134c7886110d6565b6134d191906143e6565b9050806000036134e957600019945050505050610e08565b60006134f587856143a1565b905060006135038285613f59565b61350d9087614360565b9050600061351f6305f5e10085614360565b90508060000361353a57600019975050505050505050610e08565b61354661271082614360565b6015546135539084614360565b61356590670de0b6b3a7640000614360565b61356f919061438d565b9a9950505050505050505050565b600080600061358a6140af565b915091508160000361359f5760009250505090565b60007f00000000000000000000000000000000000000000000000000000000000000006001600160a01b031663313ce5676040518163ffffffff1660e01b8152600401602060405180830381865afa1580156135ff573d6000803e3d6000fd5b505050506040513d601f19601f8201168201806040525081019061362391906144b5565b905060007f00000000000000000000000000000000000000000000000000000000000000006001600160a01b031663313ce5676040518163ffffffff1660e01b8152600401602060405180830381865afa158015613685573d6000803e3d6000fd5b505050506040513d601f19601f820116820180604052508101906136a991906144b5565b90506136b681600a6145bc565b6136c09085614360565b6136ce60ff841660086143e6565b6136d990600a6145cb565b6136e39085614360565b6136ed919061438d565b94505050505090565b6001600160a01b038116600090815260026020526040812054610e08906305f5e10090614360565b6001600160a01b0381166000908152600160205260408120548082036137475750600092915050565b61374f61357d565b6137599082614360565b9392505050565b600854431161376b57565b60006008544361377b91906143a1565b9050600061378a600654613b92565b905060006137a082670de0b6b3a76400006143e6565b9050670de0b6b3a764000083825b8115613817576137bf6002836144a1565b6001036137e657670de0b6b3a76400006137d98285614360565b6137e3919061438d565b92505b670de0b6b3a76400006137f98280614360565b613803919061438d565b905061381060028361438d565b91506137ae565b670de0b6b3a76400008360065461382e9190614360565b613838919061438d565b60065550504360085550505050565b61385483838360016141cd565b61387c57604051635274afe760e01b81526001600160a01b03841660048201526024016108df565b505050565b600754431161388c57565b60006007544361389c91906143a1565b905060006138ab600554613d39565b905060006138c182670de0b6b3a76400006143e6565b9050670de0b6b3a764000083825b8115613938576138e06002836144a1565b60010361390757670de0b6b3a76400006138fa8285614360565b613904919061438d565b92505b670de0b6b3a764000061391a8280614360565b613924919061438d565b905061393160028361438d565b91506138cf565b670de0b6b3a76400008360055461394f9190614360565b613959919061438d565b60055550504360075550505050565b6001600160a01b038216600090815260026020526040812054808203613992576000915050610e08565b6040516370a0823160e01b81523060048201526000907f00000000000000000000000000000000000000000000000000000000000000006001600160a01b0316906370a0823190602401602060405180830381865afa1580156139f9573d6000803e3d6000fd5b505050506040513d601f19601f82011682018060405250810190613a1d91906143cd565b6040516370a0823160e01b81523060048201529091506000906001600160a01b037f000000000000000000000000000000000000000000000000000000000000000016906370a0823190602401602060405180830381865afa158015613a87573d6000803e3d6000fd5b505050506040513d601f19601f82011682018060405250810190613aab91906143cd565b9050811580613ab957508085115b15613aca5760009350505050610e08565b600085613ad688610dc8565b613ae091906143e6565b905080600003613af857600019945050505050610e08565b6000613b0487846143a1565b90506000613b128583613f59565b90506000613b246305f5e10088614360565b90506000613b328386614360565b905080600003613b4e5760001998505050505050505050610e08565b613b5a61271082614360565b601654613b679084614360565b613b7990670de0b6b3a7640000614360565b613b83919061438d565b9b9a5050505050505050505050565b6040516370a0823160e01b815230600482015260009081906001600160a01b037f000000000000000000000000000000000000000000000000000000000000000016906370a0823190602401602060405180830381865afa158015613bfb573d6000803e3d6000fd5b505050506040513d601f19601f82011682018060405250810190613c1f91906143cd565b90506000670de0b6b3a764000084600a54613c3a9190614360565b613c44919061438d565b90506000613c5282846143e6565b905060008115613c7e5781613c6f84670de0b6b3a7640000614360565b613c79919061438d565b613c81565b60005b601254909150808211613cc757670de0b6b3a764000082601054613ca59190614360565b613caf919061438d565b600f54613cbc91906143e6565b979650505050505050565b6000670de0b6b3a764000082601054613ce09190614360565b613cea919061438d565b600f54613cf791906143e6565b9050670de0b6b3a7640000613d0c83856143a1565b601154613d199190614360565b613d23919061438d565b613d2d90826143e6565b98975050505050505050565b6040516370a0823160e01b815230600482015260009081906001600160a01b037f000000000000000000000000000000000000000000000000000000000000000016906370a0823190602401602060405180830381865afa158015613da2573d6000803e3d6000fd5b505050506040513d601f19601f82011682018060405250810190613dc691906143cd565b90506000670de0b6b3a764000084600954613de19190614360565b613deb919061438d565b90506000613df982846143e6565b905060008115613e255781613e1684670de0b6b3a7640000614360565b613e20919061438d565b613e28565b60005b600e54909150808211613e6357670de0b6b3a764000082600c54613e4c9190614360565b613e56919061438d565b600b54613cbc91906143e6565b6000670de0b6b3a764000082600c54613e7c9190614360565b613e86919061438d565b600b54613e9391906143e6565b9050670de0b6b3a7640000613ea883856143a1565b600d54613d199190614360565b6000805160206145d883398151915254600203613ee557604051633ee5aeb560e01b815260040160405180910390fd5b565b6040516323b872dd60e01b60008181526001600160a01b038781166004528616602452604485905291602083606481808c5af192506001600051148316613f47578383151615613f3a573d6000823e3d81fd5b6000883b113d1516831692505b60405250600060605295945050505050565b600081600003613f6b57506000610e08565b60007f00000000000000000000000000000000000000000000000000000000000000006001600160a01b031663313ce5676040518163ffffffff1660e01b8152600401602060405180830381865afa158015613fcb573d6000803e3d6000fd5b505050506040513d601f19601f82011682018060405250810190613fef91906144b5565b905060007f00000000000000000000000000000000000000000000000000000000000000006001600160a01b031663313ce5676040518163ffffffff1660e01b8152600401602060405180830381865afa158015614051573d6000803e3d6000fd5b505050506040513d601f19601f8201168201806040525081019061407591906144b5565b905061408281600a6145bc565b61408c9085614360565b61409a60ff841660086143e6565b6140a590600a6145cb565b610db59087614360565b6040516370a0823160e01b815230600482015260009081906001600160a01b037f000000000000000000000000000000000000000000000000000000000000000016906370a0823190602401602060405180830381865afa158015614118573d6000803e3d6000fd5b505050506040513d601f19601f8201168201806040525081019061413c91906143cd565b6040516370a0823160e01b81523060048201529092507f00000000000000000000000000000000000000000000000000000000000000006001600160a01b0316906370a0823190602401602060405180830381865afa1580156141a3573d6000803e3d6000fd5b505050506040513d601f19601f820116820180604052508101906141c791906143cd565b90509091565b60405163a9059cbb60e01b60008181526001600160a01b038616600452602485905291602083604481808b5af19250600160005114831661422757838315161561421a573d6000823e3d81fd5b6000873b113d1516831692505b60405250949350505050565b80356001600160a01b038116811461424a57600080fd5b919050565b60006020828403121561426157600080fd5b61375982614233565b60006020828403121561427c57600080fd5b5035919050565b60008060008060006080868803121561429b57600080fd5b6142a486614233565b94506142b260208701614233565b935060408601359250606086013567ffffffffffffffff808211156142d657600080fd5b818801915088601f8301126142ea57600080fd5b8135818111156142f957600080fd5b89602082850101111561430b57600080fd5b9699959850939650602001949392505050565b60208082526012908201527150434f4c42555344506f6f6c3a207a65726f60701b604082015260600190565b634e487b7160e01b600052601160045260246000fd5b8082028115828204841417610e0857610e0861434a565b634e487b7160e01b600052601260045260246000fd5b60008261439c5761439c614377565b500490565b81810381811115610e0857610e0861434a565b6001600160a01b03929092168252602082015260400190565b6000602082840312156143df57600080fd5b5051919050565b80820180821115610e0857610e0861434a565b60208082526010908201526f2821a7a6212aa9a22837b7b61d10242360811b604082015260600190565b6001600160a01b03878116825260208201879052604082018690528416606082015260a06080820181905281018290526000828460c0840137600060c0848401015260c0601f19601f8501168301019050979650505050505050565b60006020828403121561449157600080fd5b8151801515811461375957600080fd5b6000826144b0576144b0614377565b500690565b6000602082840312156144c757600080fd5b815160ff8116811461375957600080fd5b600181815b808511156145135781600019048211156144f9576144f961434a565b8085161561450657918102915b93841c93908002906144dd565b509250929050565b60008261452a57506001610e08565b8161453757506000610e08565b816001811461454d576002811461455757614573565b6001915050610e08565b60ff8411156145685761456861434a565b50506001821b610e08565b5060208310610133831016604e8410600b8410161715614596575081810a610e08565b6145a083836144d8565b80600019048211156145b4576145b461434a565b029392505050565b600061375960ff84168361451b565b6000613759838361451b56fe9b779b17422d0df92223018b32b4d1fa46e071723d6817e2486d003becc55f00a264697066735822122043d101630392513d1215a2c127fcd44a77dead8bc1a22ddc445dd952f9b3a74564736f6c6343000814003360a06040523480156200001157600080fd5b5060405162000cad38038062000cad83398101604081905262000034916200018b565b82826003620000448382620002a7565b506004620000538282620002a7565b5050506001600160a01b038116620000b15760405162461bcd60e51b815260206004820152601760248201527f52656365697074546f6b656e3a207a65726f20706f6f6c000000000000000000604482015260640160405180910390fd5b6001600160a01b031660805250620003739050565b634e487b7160e01b600052604160045260246000fd5b600082601f830112620000ee57600080fd5b81516001600160401b03808211156200010b576200010b620000c6565b604051601f8301601f19908116603f01168101908282118183101715620001365762000136620000c6565b816040528381526020925086838588010111156200015357600080fd5b600091505b8382101562000177578582018301518183018401529082019062000158565b600093810190920192909252949350505050565b600080600060608486031215620001a157600080fd5b83516001600160401b0380821115620001b957600080fd5b620001c787838801620000dc565b94506020860151915080821115620001de57600080fd5b50620001ed86828701620000dc565b604086015190935090506001600160a01b03811681146200020d57600080fd5b809150509250925092565b600181811c908216806200022d57607f821691505b6020821081036200024e57634e487b7160e01b600052602260045260246000fd5b50919050565b601f821115620002a257600081815260208120601f850160051c810160208610156200027d5750805b601f850160051c820191505b818110156200029e5782815560010162000289565b5050505b505050565b81516001600160401b03811115620002c357620002c3620000c6565b620002db81620002d4845462000218565b8462000254565b602080601f831160018114620003135760008415620002fa5750858301515b600019600386901b1c1916600185901b1785556200029e565b600085815260208120601f198616915b82811015620003445788860151825594840194600190910190840162000323565b5085821015620003635787850151600019600388901b60f8161c191681555b5050505050600190811b01905550565b6080516109116200039c6000396000818160ff015281816102ed015261038101526109116000f3fe608060405234801561001057600080fd5b50600436106100b45760003560e01c806340c10f191161007157806340c10f191461016d57806370a082311461018257806395d89b41146101ab5780639dc29fac146101b3578063a9059cbb146101c6578063dd62ed3e146101d957600080fd5b806306fdde03146100b9578063095ea7b3146100d757806316f0115b146100fa57806318160ddd1461013957806323b872dd1461014b578063313ce5671461015e575b600080fd5b6100c1610212565b6040516100ce919061075b565b60405180910390f35b6100ea6100e53660046107c5565b6102a4565b60405190151581526020016100ce565b6101217f000000000000000000000000000000000000000000000000000000000000000081565b6040516001600160a01b0390911681526020016100ce565b6002545b6040519081526020016100ce565b6100ea6101593660046107ef565b6102be565b604051601281526020016100ce565b61018061017b3660046107c5565b6102e2565b005b61013d61019036600461082b565b6001600160a01b031660009081526020819052604090205490565b6100c1610367565b6101806101c13660046107c5565b610376565b6100ea6101d43660046107c5565b6103f2565b61013d6101e736600461084d565b6001600160a01b03918216600090815260016020908152604080832093909416825291909152205490565b60606003805461022190610880565b80601f016020809104026020016040519081016040528092919081815260200182805461024d90610880565b801561029a5780601f1061026f5761010080835404028352916020019161029a565b820191906000526020600020905b81548152906001019060200180831161027d57829003601f168201915b5050505050905090565b6000336102b2818585610400565b60019150505b92915050565b6000336102cc858285610412565b6102d7858585610491565b506001949350505050565b336001600160a01b037f000000000000000000000000000000000000000000000000000000000000000016146103595760405162461bcd60e51b8152602060048201526017602482015276149958d95a5c1d151bdad95b8e881bdb9b1e481c1bdbdb604a1b60448201526064015b60405180910390fd5b61036382826104f0565b5050565b60606004805461022190610880565b336001600160a01b037f000000000000000000000000000000000000000000000000000000000000000016146103e85760405162461bcd60e51b8152602060048201526017602482015276149958d95a5c1d151bdad95b8e881bdb9b1e481c1bdbdb604a1b6044820152606401610350565b6103638282610526565b6000336102b2818585610491565b61040d838383600161055c565b505050565b6001600160a01b0383811660009081526001602090815260408083209386168352929052205460001981101561048b578181101561047c57604051637dc7a0d960e11b81526001600160a01b03841660048201526024810182905260448101839052606401610350565b61048b8484848403600061055c565b50505050565b6001600160a01b0383166104bb57604051634b637e8f60e11b815260006004820152602401610350565b6001600160a01b0382166104e55760405163ec442f0560e01b815260006004820152602401610350565b61040d838383610631565b6001600160a01b03821661051a5760405163ec442f0560e01b815260006004820152602401610350565b61036360008383610631565b6001600160a01b03821661055057604051634b637e8f60e11b815260006004820152602401610350565b61036382600083610631565b6001600160a01b0384166105865760405163e602df0560e01b815260006004820152602401610350565b6001600160a01b0383166105b057604051634a1406b160e11b815260006004820152602401610350565b6001600160a01b038085166000908152600160209081526040808320938716835292905220829055801561048b57826001600160a01b0316846001600160a01b03167f8c5be1e5ebec7d5bd14f71427d1e84f3dd0314c0f7b2291e5b200ac8c7c3b9258460405161062391815260200190565b60405180910390a350505050565b6001600160a01b03831661065c57806002600082825461065191906108ba565b909155506106ce9050565b6001600160a01b038316600090815260208190526040902054818110156106af5760405163391434e360e21b81526001600160a01b03851660048201526024810182905260448101839052606401610350565b6001600160a01b03841660009081526020819052604090209082900390555b6001600160a01b0382166106ea57600280548290039055610709565b6001600160a01b03821660009081526020819052604090208054820190555b816001600160a01b0316836001600160a01b03167fddf252ad1be2c89b69c2b068fc378daa952ba7f163c4a11628f55a4df523b3ef8360405161074e91815260200190565b60405180910390a3505050565b600060208083528351808285015260005b818110156107885785810183015185820160400152820161076c565b506000604082860101526040601f19601f8301168501019250505092915050565b80356001600160a01b03811681146107c057600080fd5b919050565b600080604083850312156107d857600080fd5b6107e1836107a9565b946020939093013593505050565b60008060006060848603121561080457600080fd5b61080d846107a9565b925061081b602085016107a9565b9150604084013590509250925092565b60006020828403121561083d57600080fd5b610846826107a9565b9392505050565b6000806040838503121561086057600080fd5b610869836107a9565b9150610877602084016107a9565b90509250929050565b600181811c9082168061089457607f821691505b6020821081036108b457634e487b7160e01b600052602260045260246000fd5b50919050565b808201808211156102b857634e487b7160e01b600052601160045260246000fdfea2646970667358221220bd936c1763fcc336c7d1c45f774d88ab7033a66070011519dbd3906d16d2ccb164736f6c63430008140033","opcodes":"PUSH2 0x100 PUSH1 0x40 MSTORE PUSH8 0xDE0B6B3A7640000 PUSH1 0x5 SSTORE PUSH8 0xDE0B6B3A7640000 PUSH1 0x6 SSTORE PUSH5 0x2540BE400 PUSH1 0xB SSTORE PUSH5 0x174876E800 PUSH1 0xC SSTORE PUSH6 0x1D1A94A2000 PUSH1 0xD SSTORE PUSH8 0xBCBCE7F1B150000 PUSH1 0xE SSTORE PUSH5 0x2540BE400 PUSH1 0xF SSTORE PUSH5 0x2E90EDD000 PUSH1 0x10 SSTORE PUSH6 0x2BA7DEF3000 PUSH1 0x11 SSTORE PUSH8 0x7A1FE1602770000 PUSH1 0x12 SSTORE PUSH2 0x3E8 PUSH1 0x13 SSTORE PUSH2 0x3E8 PUSH1 0x14 SSTORE PUSH2 0x1964 PUSH1 0x15 SSTORE PUSH2 0x2134 PUSH1 0x16 SSTORE PUSH2 0x3E8 PUSH1 0x17 SSTORE PUSH1 0x9 PUSH1 0x18 SSTORE PUSH1 0x5 PUSH1 0x19 SSTORE PUSH8 0xDE0B6B3A7640000 PUSH1 0x1A SSTORE PUSH8 0x16345785D8A0000 PUSH1 0x1B SSTORE CALLVALUE DUP1 ISZERO PUSH3 0xBA JUMPI PUSH1 0x0 DUP1 REVERT JUMPDEST POP PUSH1 0x40 MLOAD PUSH3 0x57F6 CODESIZE SUB DUP1 PUSH3 0x57F6 DUP4 CODECOPY DUP2 ADD PUSH1 0x40 DUP2 SWAP1 MSTORE PUSH3 0xDD SWAP2 PUSH3 0x356 JUMP JUMPDEST PUSH1 0x1 PUSH32 0x9B779B17422D0DF92223018B32B4D1FA46E071723D6817E2486D003BECC55F00 SSTORE PUSH1 0x1 PUSH1 0x1 PUSH1 0xA0 SHL SUB DUP4 AND ISZERO DUP1 ISZERO SWAP1 PUSH3 0x122 JUMPI POP PUSH1 0x1 PUSH1 0x1 PUSH1 0xA0 SHL SUB DUP3 AND ISZERO ISZERO JUMPDEST DUP1 ISZERO PUSH3 0x137 JUMPI POP PUSH1 0x1 PUSH1 0x1 PUSH1 0xA0 SHL SUB DUP2 AND ISZERO ISZERO JUMPDEST PUSH3 0x17E JUMPI PUSH1 0x40 MLOAD PUSH3 0x461BCD PUSH1 0xE5 SHL DUP2 MSTORE PUSH1 0x20 PUSH1 0x4 DUP3 ADD MSTORE PUSH1 0x12 PUSH1 0x24 DUP3 ADD MSTORE PUSH18 0x50434F4C42555344506F6F6C3A207A65726F PUSH1 0x70 SHL PUSH1 0x44 DUP3 ADD MSTORE PUSH1 0x64 ADD JUMPDEST PUSH1 0x40 MLOAD DUP1 SWAP2 SUB SWAP1 REVERT JUMPDEST DUP2 PUSH1 0x1 PUSH1 0x1 PUSH1 0xA0 SHL SUB AND DUP4 PUSH1 0x1 PUSH1 0x1 PUSH1 0xA0 SHL SUB AND SUB PUSH3 0x1E1 JUMPI PUSH1 0x40 MLOAD PUSH3 0x461BCD PUSH1 0xE5 SHL DUP2 MSTORE PUSH1 0x20 PUSH1 0x4 DUP3 ADD MSTORE PUSH1 0x18 PUSH1 0x24 DUP3 ADD MSTORE PUSH32 0x50434F4C42555344506F6F6C3A2073616D6520746F6B656E0000000000000000 PUSH1 0x44 DUP3 ADD MSTORE PUSH1 0x64 ADD PUSH3 0x175 JUMP JUMPDEST PUSH1 0x1 PUSH1 0x1 PUSH1 0xA0 SHL SUB DUP1 DUP5 AND PUSH1 0x80 MSTORE DUP3 AND PUSH1 0xA0 MSTORE PUSH1 0x40 MLOAD ADDRESS SWAP1 PUSH3 0x204 SWAP1 PUSH3 0x32B JUMP JUMPDEST PUSH1 0x60 DUP1 DUP3 MSTORE PUSH1 0x8 SWAP1 DUP3 ADD MSTORE PUSH8 0x141BDBDB0810D3D3 PUSH1 0xC2 SHL PUSH1 0x80 DUP3 ADD MSTORE PUSH1 0xA0 PUSH1 0x20 DUP3 ADD DUP2 SWAP1 MSTORE PUSH1 0x4 SWAP1 DUP3 ADD MSTORE PUSH4 0x1410D3D3 PUSH1 0xE2 SHL PUSH1 0xC0 DUP3 ADD MSTORE PUSH1 0x1 PUSH1 0x1 PUSH1 0xA0 SHL SUB SWAP1 SWAP2 AND PUSH1 0x40 DUP3 ADD MSTORE PUSH1 0xE0 ADD PUSH1 0x40 MLOAD DUP1 SWAP2 SUB SWAP1 PUSH1 0x0 CREATE DUP1 ISZERO DUP1 ISZERO PUSH3 0x26C JUMPI RETURNDATASIZE PUSH1 0x0 DUP1 RETURNDATACOPY RETURNDATASIZE PUSH1 0x0 REVERT JUMPDEST POP PUSH1 0x1 PUSH1 0x1 PUSH1 0xA0 SHL SUB AND PUSH1 0xC0 MSTORE PUSH1 0x40 MLOAD ADDRESS SWAP1 PUSH3 0x289 SWAP1 PUSH3 0x32B JUMP JUMPDEST PUSH1 0x60 DUP1 DUP3 MSTORE PUSH1 0x9 SWAP1 DUP3 ADD MSTORE PUSH9 0x141BDBDB08109554D1 PUSH1 0xBA SHL PUSH1 0x80 DUP3 ADD MSTORE PUSH1 0xA0 PUSH1 0x20 DUP3 ADD DUP2 SWAP1 MSTORE PUSH1 0x5 SWAP1 DUP3 ADD MSTORE PUSH5 0x14109554D1 PUSH1 0xDA SHL PUSH1 0xC0 DUP3 ADD MSTORE PUSH1 0x1 PUSH1 0x1 PUSH1 0xA0 SHL SUB SWAP1 SWAP2 AND PUSH1 0x40 DUP3 ADD MSTORE PUSH1 0xE0 ADD PUSH1 0x40 MLOAD DUP1 SWAP2 SUB SWAP1 PUSH1 0x0 CREATE DUP1 ISZERO DUP1 ISZERO PUSH3 0x2F3 JUMPI RETURNDATASIZE PUSH1 0x0 DUP1 RETURNDATACOPY RETURNDATASIZE PUSH1 0x0 REVERT JUMPDEST POP PUSH1 0x1 PUSH1 0x1 PUSH1 0xA0 SHL SUB SWAP1 DUP2 AND PUSH1 0xE0 MSTORE PUSH1 0x0 DUP1 SLOAD PUSH1 0x1 PUSH1 0x1 PUSH1 0xA0 SHL SUB NOT AND SWAP3 SWAP1 SWAP2 AND SWAP2 SWAP1 SWAP2 OR SWAP1 SSTORE POP POP NUMBER PUSH1 0x7 DUP2 SWAP1 SSTORE PUSH1 0x8 SSTORE PUSH3 0x3A0 JUMP JUMPDEST PUSH2 0xCAD DUP1 PUSH3 0x4B49 DUP4 CODECOPY ADD SWAP1 JUMP JUMPDEST DUP1 MLOAD PUSH1 0x1 PUSH1 0x1 PUSH1 0xA0 SHL SUB DUP2 AND DUP2 EQ PUSH3 0x351 JUMPI PUSH1 0x0 DUP1 REVERT JUMPDEST SWAP2 SWAP1 POP JUMP JUMPDEST PUSH1 0x0 DUP1 PUSH1 0x0 PUSH1 0x60 DUP5 DUP7 SUB SLT ISZERO PUSH3 0x36C JUMPI PUSH1 0x0 DUP1 REVERT JUMPDEST PUSH3 0x377 DUP5 PUSH3 0x339 JUMP JUMPDEST SWAP3 POP PUSH3 0x387 PUSH1 0x20 DUP6 ADD PUSH3 0x339 JUMP JUMPDEST SWAP2 POP PUSH3 0x397 PUSH1 0x40 DUP6 ADD PUSH3 0x339 JUMP JUMPDEST SWAP1 POP SWAP3 POP SWAP3 POP SWAP3 JUMP JUMPDEST PUSH1 0x80 MLOAD PUSH1 0xA0 MLOAD PUSH1 0xC0 MLOAD PUSH1 0xE0 MLOAD PUSH2 0x462D PUSH3 0x51C PUSH1 0x0 CODECOPY PUSH1 0x0 DUP2 DUP2 PUSH2 0x464 ADD MSTORE DUP2 DUP2 PUSH2 0x1770 ADD MSTORE DUP2 DUP2 PUSH2 0x1E70 ADD MSTORE DUP2 DUP2 PUSH2 0x1EE7 ADD MSTORE DUP2 DUP2 PUSH2 0x2578 ADD MSTORE DUP2 DUP2 PUSH2 0x2713 ADD MSTORE PUSH2 0x2A2D ADD MSTORE PUSH1 0x0 DUP2 DUP2 PUSH2 0x4BE ADD MSTORE DUP2 DUP2 PUSH2 0x962 ADD MSTORE DUP2 DUP2 PUSH2 0x20E2 ADD MSTORE DUP2 DUP2 PUSH2 0x27A1 ADD MSTORE DUP2 DUP2 PUSH2 0x2C09 ADD MSTORE DUP2 DUP2 PUSH2 0x3220 ADD MSTORE PUSH2 0x3297 ADD MSTORE PUSH1 0x0 DUP2 DUP2 PUSH2 0x4E5 ADD MSTORE DUP2 DUP2 PUSH2 0xAF3 ADD MSTORE DUP2 DUP2 PUSH2 0x14A3 ADD MSTORE DUP2 DUP2 PUSH2 0x1606 ADD MSTORE DUP2 DUP2 PUSH2 0x1703 ADD MSTORE DUP2 DUP2 PUSH2 0x18C8 ADD MSTORE DUP2 DUP2 PUSH2 0x2215 ADD MSTORE DUP2 DUP2 PUSH2 0x2841 ADD MSTORE DUP2 DUP2 PUSH2 0x2955 ADD MSTORE DUP2 DUP2 PUSH2 0x2AA3 ADD MSTORE DUP2 DUP2 PUSH2 0x2D57 ADD MSTORE DUP2 DUP2 PUSH2 0x31DB ADD MSTORE DUP2 DUP2 PUSH2 0x339B ADD MSTORE DUP2 DUP2 PUSH2 0x3629 ADD MSTORE DUP2 DUP2 PUSH2 0x39AA ADD MSTORE DUP2 DUP2 PUSH2 0x3D5B ADD MSTORE DUP2 DUP2 PUSH2 0x3FF5 ADD MSTORE PUSH2 0x4154 ADD MSTORE PUSH1 0x0 DUP2 DUP2 PUSH2 0x797 ADD MSTORE DUP2 DUP2 PUSH2 0x8F5 ADD MSTORE DUP2 DUP2 PUSH2 0xB89 ADD MSTORE DUP2 DUP2 PUSH2 0xFFD ADD MSTORE DUP2 DUP2 PUSH2 0x11B9 ADD MSTORE DUP2 DUP2 PUSH2 0x131C ADD MSTORE DUP2 DUP2 PUSH2 0x188D ADD MSTORE DUP2 DUP2 PUSH2 0x1E2B ADD MSTORE DUP2 DUP2 PUSH2 0x200A ADD MSTORE DUP2 DUP2 PUSH2 0x2158 ADD MSTORE DUP2 DUP2 PUSH2 0x22AB ADD MSTORE DUP2 DUP2 PUSH2 0x2EBA ADD MSTORE DUP2 DUP2 PUSH2 0x3431 ADD MSTORE DUP2 DUP2 PUSH2 0x35A3 ADD MSTORE DUP2 DUP2 PUSH2 0x3A40 ADD MSTORE DUP2 DUP2 PUSH2 0x3BB4 ADD MSTORE DUP2 DUP2 PUSH2 0x3F6F ADD MSTORE PUSH2 0x40D1 ADD MSTORE PUSH2 0x462D PUSH1 0x0 RETURN INVALID PUSH1 0x80 PUSH1 0x40 MSTORE CALLVALUE DUP1 ISZERO PUSH2 0x10 JUMPI PUSH1 0x0 DUP1 REVERT JUMPDEST POP PUSH1 0x4 CALLDATASIZE LT PUSH2 0x412 JUMPI PUSH1 0x0 CALLDATALOAD PUSH1 0xE0 SHR DUP1 PUSH4 0x8DD2A7CF GT PUSH2 0x220 JUMPI DUP1 PUSH4 0xCBE98E3B GT PUSH2 0x130 JUMPI DUP1 PUSH4 0xF205743F GT PUSH2 0xB8 JUMPI DUP1 PUSH4 0xF96DAE0A GT PUSH2 0x87 JUMPI DUP1 PUSH4 0xF96DAE0A EQ PUSH2 0x86D JUMPI DUP1 PUSH4 0xF9EFD058 EQ PUSH2 0x880 JUMPI DUP1 PUSH4 0xFD47FBF2 EQ PUSH2 0x893 JUMPI DUP1 PUSH4 0xFDD73F41 EQ PUSH2 0x89C JUMPI DUP1 PUSH4 0xFFDEE98D EQ PUSH2 0x8A4 JUMPI PUSH1 0x0 DUP1 REVERT JUMPDEST DUP1 PUSH4 0xF205743F EQ PUSH2 0x836 JUMPI DUP1 PUSH4 0xF4216DE1 EQ PUSH2 0x83E JUMPI DUP1 PUSH4 0xF5908219 EQ PUSH2 0x847 JUMPI DUP1 PUSH4 0xF678E9D7 EQ PUSH2 0x85A JUMPI PUSH1 0x0 DUP1 REVERT JUMPDEST DUP1 PUSH4 0xE3709B46 GT PUSH2 0xFF JUMPI DUP1 PUSH4 0xE3709B46 EQ PUSH2 0x7F5 JUMPI DUP1 PUSH4 0xE68A5C04 EQ PUSH2 0x7FE JUMPI DUP1 PUSH4 0xE9E582B9 EQ PUSH2 0x811 JUMPI DUP1 PUSH4 0xEA4E2FD2 EQ PUSH2 0x81A JUMPI DUP1 PUSH4 0xEDC38CB4 EQ PUSH2 0x823 JUMPI PUSH1 0x0 DUP1 REVERT JUMPDEST DUP1 PUSH4 0xCBE98E3B EQ PUSH2 0x792 JUMPI DUP1 PUSH4 0xCC3BCAF3 EQ PUSH2 0x7B9 JUMPI DUP1 PUSH4 0xDCEBA451 EQ PUSH2 0x7CC JUMPI DUP1 PUSH4 0xE229AE9E EQ PUSH2 0x7EC JUMPI PUSH1 0x0 DUP1 REVERT JUMPDEST DUP1 PUSH4 0xA74F0BFA GT PUSH2 0x1B3 JUMPI DUP1 PUSH4 0xB7BE98AB GT PUSH2 0x182 JUMPI DUP1 PUSH4 0xB7BE98AB EQ PUSH2 0x746 JUMPI DUP1 PUSH4 0xBA08FF9B EQ PUSH2 0x76E JUMPI DUP1 PUSH4 0xBF83DF13 EQ PUSH2 0x777 JUMPI DUP1 PUSH4 0xC0656BD0 EQ PUSH2 0x780 JUMPI DUP1 PUSH4 0xC0C7347E EQ PUSH2 0x789 JUMPI PUSH1 0x0 DUP1 REVERT JUMPDEST DUP1 PUSH4 0xA74F0BFA EQ PUSH2 0x708 JUMPI DUP1 PUSH4 0xAB879827 EQ PUSH2 0x710 JUMPI DUP1 PUSH4 0xAC72D9AC EQ PUSH2 0x719 JUMPI DUP1 PUSH4 0xADCD54A7 EQ PUSH2 0x723 JUMPI PUSH1 0x0 DUP1 REVERT JUMPDEST DUP1 PUSH4 0xA178F59D GT PUSH2 0x1EF JUMPI DUP1 PUSH4 0xA178F59D EQ PUSH2 0x6C7 JUMPI DUP1 PUSH4 0xA1957856 EQ PUSH2 0x6DA JUMPI DUP1 PUSH4 0xA32447BC EQ PUSH2 0x6E2 JUMPI DUP1 PUSH4 0xA3E3D86E EQ PUSH2 0x6F5 JUMPI PUSH1 0x0 DUP1 REVERT JUMPDEST DUP1 PUSH4 0x8DD2A7CF EQ PUSH2 0x699 JUMPI DUP1 PUSH4 0x8EDB376C EQ PUSH2 0x6AC JUMPI DUP1 PUSH4 0x99CEA1BA EQ PUSH2 0x6B5 JUMPI DUP1 PUSH4 0x9F168ED8 EQ PUSH2 0x6BE JUMPI PUSH1 0x0 DUP1 REVERT JUMPDEST DUP1 PUSH4 0x38124FA4 GT PUSH2 0x326 JUMPI DUP1 PUSH4 0x68532C95 GT PUSH2 0x2AE JUMPI DUP1 PUSH4 0x7502237B GT PUSH2 0x27D JUMPI DUP1 PUSH4 0x7502237B EQ PUSH2 0x659 JUMPI DUP1 PUSH4 0x752E6088 EQ PUSH2 0x66C JUMPI DUP1 PUSH4 0x7B7C1F4C EQ PUSH2 0x67F JUMPI DUP1 PUSH4 0x82463417 EQ PUSH2 0x688 JUMPI DUP1 PUSH4 0x8617D017 EQ PUSH2 0x690 JUMPI PUSH1 0x0 DUP1 REVERT JUMPDEST DUP1 PUSH4 0x68532C95 EQ PUSH2 0x62C JUMPI DUP1 PUSH4 0x6E2E4659 EQ PUSH2 0x63F JUMPI DUP1 PUSH4 0x70F5407D EQ PUSH2 0x647 JUMPI DUP1 PUSH4 0x737808F4 EQ PUSH2 0x650 JUMPI PUSH1 0x0 DUP1 REVERT JUMPDEST DUP1 PUSH4 0x4454A10E GT PUSH2 0x2F5 JUMPI DUP1 PUSH4 0x4454A10E EQ PUSH2 0x5CD JUMPI DUP1 PUSH4 0x4564987A EQ PUSH2 0x5E0 JUMPI DUP1 PUSH4 0x4577848E EQ PUSH2 0x5F3 JUMPI DUP1 PUSH4 0x46BFE1DF EQ PUSH2 0x606 JUMPI DUP1 PUSH4 0x5CFFE9DE EQ PUSH2 0x619 JUMPI PUSH1 0x0 DUP1 REVERT JUMPDEST DUP1 PUSH4 0x38124FA4 EQ PUSH2 0x5AC JUMPI DUP1 PUSH4 0x3C5607A5 EQ PUSH2 0x5B4 JUMPI DUP1 PUSH4 0x3C6CE203 EQ PUSH2 0x5BD JUMPI DUP1 PUSH4 0x3D60DB5A EQ PUSH2 0x5C5 JUMPI PUSH1 0x0 DUP1 REVERT JUMPDEST DUP1 PUSH4 0x226F4B4E GT PUSH2 0x3A9 JUMPI DUP1 PUSH4 0x2B536BEB GT PUSH2 0x378 JUMPI DUP1 PUSH4 0x2B536BEB EQ PUSH2 0x56C JUMPI DUP1 PUSH4 0x2BEABEF3 EQ PUSH2 0x575 JUMPI DUP1 PUSH4 0x2F5B0ABA EQ PUSH2 0x588 JUMPI DUP1 PUSH4 0x30E0C05E EQ PUSH2 0x591 JUMPI DUP1 PUSH4 0x326770F2 EQ PUSH2 0x599 JUMPI PUSH1 0x0 DUP1 REVERT JUMPDEST DUP1 PUSH4 0x226F4B4E EQ PUSH2 0x527 JUMPI DUP1 PUSH4 0x26BBB608 EQ PUSH2 0x53A JUMPI DUP1 PUSH4 0x28A88D23 EQ PUSH2 0x543 JUMPI DUP1 PUSH4 0x2AA842B1 EQ PUSH2 0x563 JUMPI PUSH1 0x0 DUP1 REVERT JUMPDEST DUP1 PUSH4 0x1C1318EB GT PUSH2 0x3E5 JUMPI DUP1 PUSH4 0x1C1318EB EQ PUSH2 0x4A6 JUMPI DUP1 PUSH4 0x1F59D2B8 EQ PUSH2 0x4B9 JUMPI DUP1 PUSH4 0x213EF7F7 EQ PUSH2 0x4E0 JUMPI DUP1 PUSH4 0x21C61671 EQ PUSH2 0x507 JUMPI PUSH1 0x0 DUP1 REVERT JUMPDEST DUP1 PUSH4 0x1FBCFDE EQ PUSH2 0x417 JUMPI DUP1 PUSH4 0x56FD0F7 EQ PUSH2 0x44A JUMPI DUP1 PUSH4 0x128078A7 EQ PUSH2 0x45F JUMPI DUP1 PUSH4 0x19B87FE8 EQ PUSH2 0x49E JUMPI JUMPDEST PUSH1 0x0 DUP1 REVERT JUMPDEST PUSH2 0x437 PUSH2 0x425 CALLDATASIZE PUSH1 0x4 PUSH2 0x424F JUMP JUMPDEST PUSH1 0x3 PUSH1 0x20 MSTORE PUSH1 0x0 SWAP1 DUP2 MSTORE PUSH1 0x40 SWAP1 KECCAK256 SLOAD DUP2 JUMP JUMPDEST PUSH1 0x40 MLOAD SWAP1 DUP2 MSTORE PUSH1 0x20 ADD JUMPDEST PUSH1 0x40 MLOAD DUP1 SWAP2 SUB SWAP1 RETURN JUMPDEST PUSH2 0x45D PUSH2 0x458 CALLDATASIZE PUSH1 0x4 PUSH2 0x426A JUMP JUMPDEST PUSH2 0x8B7 JUMP JUMPDEST STOP JUMPDEST PUSH2 0x486 PUSH32 0x0 DUP2 JUMP JUMPDEST PUSH1 0x40 MLOAD PUSH1 0x1 PUSH1 0x1 PUSH1 0xA0 SHL SUB SWAP1 SWAP2 AND DUP2 MSTORE PUSH1 0x20 ADD PUSH2 0x441 JUMP JUMPDEST PUSH2 0x437 PUSH2 0xA95 JUMP JUMPDEST PUSH2 0x437 PUSH2 0x4B4 CALLDATASIZE PUSH1 0x4 PUSH2 0x424F JUMP JUMPDEST PUSH2 0xAB2 JUMP JUMPDEST PUSH2 0x486 PUSH32 0x0 DUP2 JUMP JUMPDEST PUSH2 0x486 PUSH32 0x0 DUP2 JUMP JUMPDEST PUSH2 0x437 PUSH2 0x515 CALLDATASIZE PUSH1 0x4 PUSH2 0x424F JUMP JUMPDEST PUSH1 0x2 PUSH1 0x20 MSTORE PUSH1 0x0 SWAP1 DUP2 MSTORE PUSH1 0x40 SWAP1 KECCAK256 SLOAD DUP2 JUMP JUMPDEST PUSH2 0x437 PUSH2 0x535 CALLDATASIZE PUSH1 0x4 PUSH2 0x424F JUMP JUMPDEST PUSH2 0xD33 JUMP JUMPDEST PUSH2 0x437 PUSH1 0x1B SLOAD DUP2 JUMP JUMPDEST PUSH2 0x437 PUSH2 0x551 CALLDATASIZE PUSH1 0x4 PUSH2 0x424F JUMP JUMPDEST PUSH1 0x1 PUSH1 0x20 MSTORE PUSH1 0x0 SWAP1 DUP2 MSTORE PUSH1 0x40 SWAP1 KECCAK256 SLOAD DUP2 JUMP JUMPDEST PUSH2 0x437 PUSH1 0x12 SLOAD DUP2 JUMP JUMPDEST PUSH2 0x437 PUSH1 0xE SLOAD DUP2 JUMP JUMPDEST PUSH2 0x437 PUSH2 0x583 CALLDATASIZE PUSH1 0x4 PUSH2 0x424F JUMP JUMPDEST PUSH2 0xDC8 JUMP JUMPDEST PUSH2 0x437 PUSH1 0xB SLOAD DUP2 JUMP JUMPDEST PUSH2 0x437 PUSH2 0xE0E JUMP JUMPDEST PUSH2 0x437 PUSH2 0x5A7 CALLDATASIZE PUSH1 0x4 PUSH2 0x424F JUMP JUMPDEST PUSH2 0xE1C JUMP JUMPDEST PUSH2 0x437 PUSH2 0xE88 JUMP JUMPDEST PUSH2 0x437 PUSH1 0x14 SLOAD DUP2 JUMP JUMPDEST PUSH2 0x437 PUSH2 0xF43 JUMP JUMPDEST PUSH2 0x437 PUSH2 0xFDB JUMP JUMPDEST PUSH2 0x437 PUSH2 0x5DB CALLDATASIZE PUSH1 0x4 PUSH2 0x424F JUMP JUMPDEST PUSH2 0x10D6 JUMP JUMPDEST PUSH2 0x45D PUSH2 0x5EE CALLDATASIZE PUSH1 0x4 PUSH2 0x426A JUMP JUMPDEST PUSH2 0x110C JUMP JUMPDEST PUSH2 0x45D PUSH2 0x601 CALLDATASIZE PUSH1 0x4 PUSH2 0x426A JUMP JUMPDEST PUSH2 0x1400 JUMP JUMPDEST PUSH2 0x45D PUSH2 0x614 CALLDATASIZE PUSH1 0x4 PUSH2 0x426A JUMP JUMPDEST PUSH2 0x16CE JUMP JUMPDEST PUSH2 0x45D PUSH2 0x627 CALLDATASIZE PUSH1 0x4 PUSH2 0x4283 JUMP JUMPDEST PUSH2 0x1883 JUMP JUMPDEST PUSH2 0x45D PUSH2 0x63A CALLDATASIZE PUSH1 0x4 PUSH2 0x424F JUMP JUMPDEST PUSH2 0x1C4D JUMP JUMPDEST PUSH2 0x437 PUSH2 0x1F71 JUMP JUMPDEST PUSH2 0x437 PUSH1 0x16 SLOAD DUP2 JUMP JUMPDEST PUSH2 0x437 PUSH1 0xA SLOAD DUP2 JUMP JUMPDEST PUSH2 0x45D PUSH2 0x667 CALLDATASIZE PUSH1 0x4 PUSH2 0x426A JUMP JUMPDEST PUSH2 0x1FCB JUMP JUMPDEST PUSH2 0x437 PUSH2 0x67A CALLDATASIZE PUSH1 0x4 PUSH2 0x424F JUMP JUMPDEST PUSH2 0x21D4 JUMP JUMPDEST PUSH2 0x437 PUSH1 0x17 SLOAD DUP2 JUMP JUMPDEST PUSH2 0x437 PUSH2 0x2446 JUMP JUMPDEST PUSH2 0x437 PUSH1 0x13 SLOAD DUP2 JUMP JUMPDEST PUSH2 0x437 PUSH2 0x6A7 CALLDATASIZE PUSH1 0x4 PUSH2 0x426A JUMP JUMPDEST PUSH2 0x2530 JUMP JUMPDEST PUSH2 0x437 PUSH1 0x7 SLOAD DUP2 JUMP JUMPDEST PUSH2 0x437 PUSH1 0x11 SLOAD DUP2 JUMP JUMPDEST PUSH2 0x437 PUSH1 0xD SLOAD DUP2 JUMP JUMPDEST PUSH2 0x45D PUSH2 0x6D5 CALLDATASIZE PUSH1 0x4 PUSH2 0x426A JUMP JUMPDEST PUSH2 0x2543 JUMP JUMPDEST PUSH2 0x437 PUSH2 0x25F6 JUMP JUMPDEST PUSH2 0x45D PUSH2 0x6F0 CALLDATASIZE PUSH1 0x4 PUSH2 0x426A JUMP JUMPDEST PUSH2 0x2632 JUMP JUMPDEST PUSH2 0x45D PUSH2 0x703 CALLDATASIZE PUSH1 0x4 PUSH2 0x426A JUMP JUMPDEST PUSH2 0x276C JUMP JUMPDEST PUSH2 0x437 PUSH2 0x281F JUMP JUMPDEST PUSH2 0x437 PUSH1 0x19 SLOAD DUP2 JUMP JUMPDEST PUSH4 0x5F5E100 PUSH2 0x437 JUMP JUMPDEST PUSH2 0x736 PUSH2 0x731 CALLDATASIZE PUSH1 0x4 PUSH2 0x424F JUMP JUMPDEST PUSH2 0x28CE JUMP JUMPDEST PUSH1 0x40 MLOAD SWAP1 ISZERO ISZERO DUP2 MSTORE PUSH1 0x20 ADD PUSH2 0x441 JUMP JUMPDEST PUSH2 0x759 PUSH2 0x754 CALLDATASIZE PUSH1 0x4 PUSH2 0x424F JUMP JUMPDEST PUSH2 0x28E9 JUMP JUMPDEST PUSH1 0x40 DUP1 MLOAD SWAP3 DUP4 MSTORE PUSH1 0x20 DUP4 ADD SWAP2 SWAP1 SWAP2 MSTORE ADD PUSH2 0x441 JUMP JUMPDEST PUSH2 0x437 PUSH1 0x6 SLOAD DUP2 JUMP JUMPDEST PUSH2 0x437 PUSH1 0x5 SLOAD DUP2 JUMP JUMPDEST PUSH2 0x437 PUSH1 0x9 SLOAD DUP2 JUMP JUMPDEST PUSH2 0x437 PUSH1 0x18 SLOAD DUP2 JUMP JUMPDEST PUSH2 0x486 PUSH32 0x0 DUP2 JUMP JUMPDEST PUSH2 0x45D PUSH2 0x7C7 CALLDATASIZE PUSH1 0x4 PUSH2 0x426A JUMP JUMPDEST PUSH2 0x2916 JUMP JUMPDEST PUSH2 0x437 PUSH2 0x7DA CALLDATASIZE PUSH1 0x4 PUSH2 0x424F JUMP JUMPDEST PUSH1 0x4 PUSH1 0x20 MSTORE PUSH1 0x0 SWAP1 DUP2 MSTORE PUSH1 0x40 SWAP1 KECCAK256 SLOAD DUP2 JUMP JUMPDEST PUSH2 0x437 PUSH1 0x10 SLOAD DUP2 JUMP JUMPDEST PUSH2 0x437 PUSH1 0x15 SLOAD DUP2 JUMP JUMPDEST PUSH2 0x759 PUSH2 0x80C CALLDATASIZE PUSH1 0x4 PUSH2 0x424F JUMP JUMPDEST PUSH2 0x2B04 JUMP JUMPDEST PUSH2 0x437 PUSH1 0xC SLOAD DUP2 JUMP JUMPDEST PUSH2 0x437 PUSH1 0x1A SLOAD DUP2 JUMP JUMPDEST PUSH2 0x45D PUSH2 0x831 CALLDATASIZE PUSH1 0x4 PUSH2 0x426A JUMP JUMPDEST PUSH2 0x2B28 JUMP JUMPDEST PUSH2 0x437 PUSH2 0x2C62 JUMP JUMPDEST PUSH2 0x437 PUSH1 0x8 SLOAD DUP2 JUMP JUMPDEST PUSH2 0x45D PUSH2 0x855 CALLDATASIZE PUSH1 0x4 PUSH2 0x426A JUMP JUMPDEST PUSH2 0x2C6C JUMP JUMPDEST PUSH2 0x45D PUSH2 0x868 CALLDATASIZE PUSH1 0x4 PUSH2 0x426A JUMP JUMPDEST PUSH2 0x2DCF JUMP JUMPDEST PUSH1 0x0 SLOAD PUSH2 0x486 SWAP1 PUSH1 0x1 PUSH1 0x1 PUSH1 0xA0 SHL SUB AND DUP2 JUMP JUMPDEST PUSH2 0x736 PUSH2 0x88E CALLDATASIZE PUSH1 0x4 PUSH2 0x424F JUMP JUMPDEST PUSH2 0x2F14 JUMP JUMPDEST PUSH2 0x437 PUSH1 0xF SLOAD DUP2 JUMP JUMPDEST PUSH2 0x437 PUSH2 0x2F28 JUMP JUMPDEST PUSH2 0x45D PUSH2 0x8B2 CALLDATASIZE PUSH1 0x4 PUSH2 0x424F JUMP JUMPDEST PUSH2 0x2FFD JUMP JUMPDEST PUSH2 0x8BF PUSH2 0x3301 JUMP JUMPDEST PUSH1 0x0 DUP2 GT PUSH2 0x8E8 JUMPI PUSH1 0x40 MLOAD PUSH3 0x461BCD PUSH1 0xE5 SHL DUP2 MSTORE PUSH1 0x4 ADD PUSH2 0x8DF SWAP1 PUSH2 0x431E JUMP JUMPDEST PUSH1 0x40 MLOAD DUP1 SWAP2 SUB SWAP1 REVERT JUMPDEST PUSH2 0x91D PUSH1 0x1 PUSH1 0x1 PUSH1 0xA0 SHL SUB PUSH32 0x0 AND CALLER ADDRESS DUP5 PUSH2 0x331D JUMP JUMPDEST PUSH1 0x0 PUSH2 0x2710 PUSH1 0x19 SLOAD DUP4 PUSH2 0x930 SWAP2 SWAP1 PUSH2 0x4360 JUMP JUMPDEST PUSH2 0x93A SWAP2 SWAP1 PUSH2 0x438D JUMP JUMPDEST SWAP1 POP PUSH1 0x0 PUSH2 0x948 DUP3 DUP5 PUSH2 0x43A1 JUMP JUMPDEST PUSH1 0x40 MLOAD PUSH4 0x40C10F19 PUSH1 0xE0 SHL DUP2 MSTORE SWAP1 SWAP2 POP PUSH1 0x1 PUSH1 0x1 PUSH1 0xA0 SHL SUB PUSH32 0x0 AND SWAP1 PUSH4 0x40C10F19 SWAP1 PUSH2 0x999 SWAP1 CALLER SWAP1 DUP6 SWAP1 PUSH1 0x4 ADD PUSH2 0x43B4 JUMP JUMPDEST PUSH1 0x0 PUSH1 0x40 MLOAD DUP1 DUP4 SUB DUP2 PUSH1 0x0 DUP8 DUP1 EXTCODESIZE ISZERO DUP1 ISZERO PUSH2 0x9B3 JUMPI PUSH1 0x0 DUP1 REVERT JUMPDEST POP GAS CALL ISZERO DUP1 ISZERO PUSH2 0x9C7 JUMPI RETURNDATASIZE PUSH1 0x0 DUP1 RETURNDATACOPY RETURNDATASIZE PUSH1 0x0 REVERT JUMPDEST POP POP POP POP PUSH1 0x0 PUSH1 0x1A SLOAD GT ISZERO PUSH2 0xA3D JUMPI PUSH1 0x0 SLOAD PUSH1 0x1A SLOAD PUSH1 0x40 MLOAD PUSH4 0x4D248487 PUSH1 0xE1 SHL DUP2 MSTORE PUSH1 0x1 PUSH1 0x1 PUSH1 0xA0 SHL SUB SWAP1 SWAP3 AND SWAP2 PUSH4 0x9A49090E SWAP2 PUSH2 0xA0A SWAP2 CALLER SWAP2 SWAP1 PUSH1 0x4 ADD PUSH2 0x43B4 JUMP JUMPDEST PUSH1 0x0 PUSH1 0x40 MLOAD DUP1 DUP4 SUB DUP2 PUSH1 0x0 DUP8 DUP1 EXTCODESIZE ISZERO DUP1 ISZERO PUSH2 0xA24 JUMPI PUSH1 0x0 DUP1 REVERT JUMPDEST POP GAS CALL ISZERO DUP1 ISZERO PUSH2 0xA38 JUMPI RETURNDATASIZE PUSH1 0x0 DUP1 RETURNDATACOPY RETURNDATASIZE PUSH1 0x0 REVERT JUMPDEST POP POP POP POP JUMPDEST PUSH1 0x40 DUP1 MLOAD DUP5 DUP2 MSTORE PUSH1 0x20 DUP2 ADD DUP4 SWAP1 MSTORE CALLER SWAP2 PUSH32 0x69CF9C0357203EB60830C3C768CC9ADF5436120832D38C926997C4523ADC8167 SWAP2 ADD JUMPDEST PUSH1 0x40 MLOAD DUP1 SWAP2 SUB SWAP1 LOG2 POP POP PUSH2 0xA92 PUSH1 0x1 PUSH1 0x0 DUP1 MLOAD PUSH1 0x20 PUSH2 0x45D8 DUP4 CODECOPY DUP2 MLOAD SWAP2 MSTORE SSTORE JUMP JUMPDEST POP JUMP JUMPDEST PUSH1 0x0 PUSH3 0x201480 PUSH2 0xAA3 PUSH2 0xE88 JUMP JUMPDEST PUSH2 0xAAD SWAP2 SWAP1 PUSH2 0x4360 JUMP JUMPDEST SWAP1 POP SWAP1 JUMP JUMPDEST PUSH1 0x1 PUSH1 0x1 PUSH1 0xA0 SHL SUB DUP2 AND PUSH1 0x0 SWAP1 DUP2 MSTORE PUSH1 0x1 PUSH1 0x20 MSTORE PUSH1 0x40 DUP2 KECCAK256 SLOAD DUP1 DUP3 SUB PUSH2 0xADB JUMPI POP PUSH1 0x0 SWAP3 SWAP2 POP POP JUMP JUMPDEST PUSH1 0x40 MLOAD PUSH4 0x70A08231 PUSH1 0xE0 SHL DUP2 MSTORE ADDRESS PUSH1 0x4 DUP3 ADD MSTORE PUSH1 0x0 SWAP1 PUSH32 0x0 PUSH1 0x1 PUSH1 0x1 PUSH1 0xA0 SHL SUB AND SWAP1 PUSH4 0x70A08231 SWAP1 PUSH1 0x24 ADD PUSH1 0x20 PUSH1 0x40 MLOAD DUP1 DUP4 SUB DUP2 DUP7 GAS STATICCALL ISZERO DUP1 ISZERO PUSH2 0xB42 JUMPI RETURNDATASIZE PUSH1 0x0 DUP1 RETURNDATACOPY RETURNDATASIZE PUSH1 0x0 REVERT JUMPDEST POP POP POP POP PUSH1 0x40 MLOAD RETURNDATASIZE PUSH1 0x1F NOT PUSH1 0x1F DUP3 ADD AND DUP3 ADD DUP1 PUSH1 0x40 MSTORE POP DUP2 ADD SWAP1 PUSH2 0xB66 SWAP2 SWAP1 PUSH2 0x43CD JUMP JUMPDEST PUSH1 0x40 MLOAD PUSH4 0x70A08231 PUSH1 0xE0 SHL DUP2 MSTORE ADDRESS PUSH1 0x4 DUP3 ADD MSTORE SWAP1 SWAP2 POP PUSH1 0x0 SWAP1 PUSH1 0x1 PUSH1 0x1 PUSH1 0xA0 SHL SUB PUSH32 0x0 AND SWAP1 PUSH4 0x70A08231 SWAP1 PUSH1 0x24 ADD PUSH1 0x20 PUSH1 0x40 MLOAD DUP1 DUP4 SUB DUP2 DUP7 GAS STATICCALL ISZERO DUP1 ISZERO PUSH2 0xBD0 JUMPI RETURNDATASIZE PUSH1 0x0 DUP1 RETURNDATACOPY RETURNDATASIZE PUSH1 0x0 REVERT JUMPDEST POP POP POP POP PUSH1 0x40 MLOAD RETURNDATASIZE PUSH1 0x1F NOT PUSH1 0x1F DUP3 ADD AND DUP3 ADD DUP1 PUSH1 0x40 MSTORE POP DUP2 ADD SWAP1 PUSH2 0xBF4 SWAP2 SWAP1 PUSH2 0x43CD JUMP JUMPDEST SWAP1 POP DUP1 PUSH1 0x0 SUB PUSH2 0xC09 JUMPI POP PUSH1 0x0 SWAP5 SWAP4 POP POP POP POP JUMP JUMPDEST PUSH1 0x0 PUSH2 0xC14 DUP7 PUSH2 0x10D6 JUMP JUMPDEST PUSH1 0x15 SLOAD SWAP1 SWAP2 POP PUSH1 0x0 DUP2 PUSH2 0xC27 DUP7 DUP9 PUSH2 0x4360 JUMP JUMPDEST PUSH2 0xC31 SWAP2 SWAP1 PUSH2 0x4360 JUMP JUMPDEST SWAP1 POP PUSH1 0x0 PUSH2 0x2710 PUSH2 0xC42 DUP7 DUP7 PUSH2 0x4360 JUMP JUMPDEST PUSH2 0xC4C SWAP2 SWAP1 PUSH2 0x4360 JUMP JUMPDEST SWAP1 POP DUP1 DUP3 GT PUSH2 0xC64 JUMPI POP PUSH1 0x0 SWAP9 SWAP8 POP POP POP POP POP POP POP POP JUMP JUMPDEST PUSH1 0x0 PUSH2 0xC72 PUSH2 0x2710 DUP8 PUSH2 0x4360 JUMP JUMPDEST PUSH2 0xC7C DUP6 DUP11 PUSH2 0x4360 JUMP JUMPDEST PUSH2 0xC86 SWAP2 SWAP1 PUSH2 0x43E6 JUMP JUMPDEST PUSH2 0xC90 DUP4 DUP6 PUSH2 0x43A1 JUMP JUMPDEST PUSH2 0xC9A SWAP2 SWAP1 PUSH2 0x438D JUMP JUMPDEST SWAP1 POP DUP7 DUP2 GT ISZERO PUSH2 0xCA7 JUMPI POP DUP6 JUMPDEST DUP1 PUSH1 0x0 SUB PUSH2 0xCBF JUMPI POP PUSH1 0x0 SWAP10 SWAP9 POP POP POP POP POP POP POP POP POP JUMP JUMPDEST PUSH1 0x0 DUP2 JUMPDEST DUP1 DUP3 LT ISZERO PUSH2 0xD24 JUMPI PUSH1 0x0 PUSH1 0x2 PUSH2 0xCD9 DUP4 DUP6 PUSH2 0x43E6 JUMP JUMPDEST PUSH2 0xCE4 SWAP1 PUSH1 0x1 PUSH2 0x43E6 JUMP JUMPDEST PUSH2 0xCEE SWAP2 SWAP1 PUSH2 0x438D JUMP JUMPDEST SWAP1 POP PUSH8 0xDE0B6B3A7640000 PUSH2 0xD03 DUP15 DUP4 PUSH2 0x3359 JUMP JUMPDEST LT PUSH2 0xD10 JUMPI DUP1 SWAP3 POP PUSH2 0xD1E JUMP JUMPDEST PUSH2 0xD1B PUSH1 0x1 DUP3 PUSH2 0x43A1 JUMP JUMPDEST SWAP2 POP JUMPDEST POP PUSH2 0xCC3 JUMP JUMPDEST POP SWAP11 SWAP10 POP POP POP POP POP POP POP POP POP POP JUMP JUMPDEST PUSH1 0x0 DUP1 PUSH2 0xD3F DUP4 PUSH2 0xDC8 JUMP JUMPDEST SWAP1 POP DUP1 PUSH1 0x0 SUB PUSH2 0xD53 JUMPI POP PUSH1 0x0 NOT SWAP3 SWAP2 POP POP JUMP JUMPDEST PUSH1 0x0 PUSH2 0xD5D PUSH2 0x357D JUMP JUMPDEST PUSH2 0xD67 SWAP1 DUP4 PUSH2 0x4360 JUMP JUMPDEST SWAP1 POP PUSH1 0x0 PUSH2 0xD74 DUP6 PUSH2 0x36F6 JUMP JUMPDEST SWAP1 POP DUP2 PUSH1 0x0 SUB PUSH2 0xD8A JUMPI POP PUSH1 0x0 NOT SWAP5 SWAP4 POP POP POP POP JUMP JUMPDEST PUSH2 0xD96 PUSH2 0x2710 DUP4 PUSH2 0x4360 JUMP JUMPDEST PUSH1 0x16 SLOAD PUSH2 0xDA3 SWAP1 DUP4 PUSH2 0x4360 JUMP JUMPDEST PUSH2 0xDB5 SWAP1 PUSH8 0xDE0B6B3A7640000 PUSH2 0x4360 JUMP JUMPDEST PUSH2 0xDBF SWAP2 SWAP1 PUSH2 0x438D JUMP JUMPDEST SWAP6 SWAP5 POP POP POP POP POP JUMP JUMPDEST PUSH1 0x0 PUSH8 0xDE0B6B3A7640000 PUSH2 0xDDB PUSH2 0x2446 JUMP JUMPDEST PUSH1 0x1 PUSH1 0x1 PUSH1 0xA0 SHL SUB DUP5 AND PUSH1 0x0 SWAP1 DUP2 MSTORE PUSH1 0x4 PUSH1 0x20 MSTORE PUSH1 0x40 SWAP1 KECCAK256 SLOAD PUSH2 0xDFE SWAP2 SWAP1 PUSH2 0x4360 JUMP JUMPDEST PUSH2 0xE08 SWAP2 SWAP1 PUSH2 0x438D JUMP JUMPDEST SWAP3 SWAP2 POP POP JUMP JUMPDEST PUSH1 0x0 PUSH3 0x201480 PUSH2 0xAA3 PUSH2 0xF43 JUMP JUMPDEST PUSH1 0x0 DUP1 PUSH2 0xE28 DUP4 PUSH2 0x10D6 JUMP JUMPDEST SWAP1 POP DUP1 PUSH1 0x0 SUB PUSH2 0xE3C JUMPI POP PUSH1 0x0 NOT SWAP3 SWAP2 POP POP JUMP JUMPDEST PUSH1 0x0 PUSH2 0xE4C PUSH4 0x5F5E100 DUP4 PUSH2 0x4360 JUMP JUMPDEST SWAP1 POP PUSH1 0x0 PUSH2 0xE59 DUP6 PUSH2 0x371E JUMP JUMPDEST SWAP1 POP DUP2 PUSH1 0x0 SUB PUSH2 0xE6F JUMPI POP PUSH1 0x0 NOT SWAP5 SWAP4 POP POP POP POP JUMP JUMPDEST PUSH2 0xE7B PUSH2 0x2710 DUP4 PUSH2 0x4360 JUMP JUMPDEST PUSH1 0x15 SLOAD PUSH2 0xDA3 SWAP1 DUP4 PUSH2 0x4360 JUMP JUMPDEST PUSH1 0x0 DUP1 PUSH2 0xE93 PUSH2 0x281F JUMP JUMPDEST PUSH1 0xE SLOAD SWAP1 SWAP2 POP DUP1 DUP3 GT PUSH2 0xED5 JUMPI PUSH8 0xDE0B6B3A7640000 DUP3 PUSH1 0xC SLOAD PUSH2 0xEB7 SWAP2 SWAP1 PUSH2 0x4360 JUMP JUMPDEST PUSH2 0xEC1 SWAP2 SWAP1 PUSH2 0x438D JUMP JUMPDEST PUSH1 0xB SLOAD PUSH2 0xECE SWAP2 SWAP1 PUSH2 0x43E6 JUMP JUMPDEST SWAP3 POP POP POP SWAP1 JUMP JUMPDEST PUSH1 0x0 PUSH8 0xDE0B6B3A7640000 DUP3 PUSH1 0xC SLOAD PUSH2 0xEEE SWAP2 SWAP1 PUSH2 0x4360 JUMP JUMPDEST PUSH2 0xEF8 SWAP2 SWAP1 PUSH2 0x438D JUMP JUMPDEST PUSH1 0xB SLOAD PUSH2 0xF05 SWAP2 SWAP1 PUSH2 0x43E6 JUMP JUMPDEST SWAP1 POP PUSH8 0xDE0B6B3A7640000 PUSH2 0xF1A DUP4 DUP6 PUSH2 0x43A1 JUMP JUMPDEST PUSH1 0xD SLOAD PUSH2 0xF27 SWAP2 SWAP1 PUSH2 0x4360 JUMP JUMPDEST PUSH2 0xF31 SWAP2 SWAP1 PUSH2 0x438D JUMP JUMPDEST PUSH2 0xF3B SWAP1 DUP3 PUSH2 0x43E6 JUMP JUMPDEST SWAP4 POP POP POP POP SWAP1 JUMP JUMPDEST PUSH1 0x0 DUP1 PUSH2 0xF4E PUSH2 0xFDB JUMP JUMPDEST PUSH1 0x12 SLOAD SWAP1 SWAP2 POP DUP1 DUP3 GT PUSH2 0xF89 JUMPI PUSH8 0xDE0B6B3A7640000 DUP3 PUSH1 0x10 SLOAD PUSH2 0xF72 SWAP2 SWAP1 PUSH2 0x4360 JUMP JUMPDEST PUSH2 0xF7C SWAP2 SWAP1 PUSH2 0x438D JUMP JUMPDEST PUSH1 0xF SLOAD PUSH2 0xECE SWAP2 SWAP1 PUSH2 0x43E6 JUMP JUMPDEST PUSH1 0x0 PUSH8 0xDE0B6B3A7640000 DUP3 PUSH1 0x10 SLOAD PUSH2 0xFA2 SWAP2 SWAP1 PUSH2 0x4360 JUMP JUMPDEST PUSH2 0xFAC SWAP2 SWAP1 PUSH2 0x438D JUMP JUMPDEST PUSH1 0xF SLOAD PUSH2 0xFB9 SWAP2 SWAP1 PUSH2 0x43E6 JUMP JUMPDEST SWAP1 POP PUSH8 0xDE0B6B3A7640000 PUSH2 0xFCE DUP4 DUP6 PUSH2 0x43A1 JUMP JUMPDEST PUSH1 0x11 SLOAD PUSH2 0xF27 SWAP2 SWAP1 PUSH2 0x4360 JUMP JUMPDEST PUSH1 0x40 MLOAD PUSH4 0x70A08231 PUSH1 0xE0 SHL DUP2 MSTORE ADDRESS PUSH1 0x4 DUP3 ADD MSTORE PUSH1 0x0 SWAP1 DUP2 SWAP1 PUSH1 0x1 PUSH1 0x1 PUSH1 0xA0 SHL SUB PUSH32 0x0 AND SWAP1 PUSH4 0x70A08231 SWAP1 PUSH1 0x24 ADD PUSH1 0x20 PUSH1 0x40 MLOAD DUP1 DUP4 SUB DUP2 DUP7 GAS STATICCALL ISZERO DUP1 ISZERO PUSH2 0x1044 JUMPI RETURNDATASIZE PUSH1 0x0 DUP1 RETURNDATACOPY RETURNDATASIZE PUSH1 0x0 REVERT JUMPDEST POP POP POP POP PUSH1 0x40 MLOAD RETURNDATASIZE PUSH1 0x1F NOT PUSH1 0x1F DUP3 ADD AND DUP3 ADD DUP1 PUSH1 0x40 MSTORE POP DUP2 ADD SWAP1 PUSH2 0x1068 SWAP2 SWAP1 PUSH2 0x43CD JUMP JUMPDEST SWAP1 POP PUSH1 0x0 PUSH8 0xDE0B6B3A7640000 PUSH2 0x107D PUSH2 0x2446 JUMP JUMPDEST PUSH1 0xA SLOAD PUSH2 0x108A SWAP2 SWAP1 PUSH2 0x4360 JUMP JUMPDEST PUSH2 0x1094 SWAP2 SWAP1 PUSH2 0x438D JUMP JUMPDEST SWAP1 POP PUSH1 0x0 PUSH2 0x10A2 DUP3 DUP5 PUSH2 0x43E6 JUMP JUMPDEST SWAP1 POP DUP1 ISZERO PUSH2 0x10CC JUMPI DUP1 PUSH2 0x10BD DUP4 PUSH8 0xDE0B6B3A7640000 PUSH2 0x4360 JUMP JUMPDEST PUSH2 0x10C7 SWAP2 SWAP1 PUSH2 0x438D JUMP JUMPDEST PUSH2 0xF3B JUMP JUMPDEST PUSH1 0x0 SWAP4 POP POP POP POP SWAP1 JUMP JUMPDEST PUSH1 0x0 PUSH8 0xDE0B6B3A7640000 PUSH2 0x10E9 PUSH2 0x2F28 JUMP JUMPDEST PUSH1 0x1 PUSH1 0x1 PUSH1 0xA0 SHL SUB DUP5 AND PUSH1 0x0 SWAP1 DUP2 MSTORE PUSH1 0x3 PUSH1 0x20 MSTORE PUSH1 0x40 SWAP1 KECCAK256 SLOAD PUSH2 0xDFE SWAP2 SWAP1 PUSH2 0x4360 JUMP JUMPDEST PUSH2 0x1114 PUSH2 0x3301 JUMP JUMPDEST PUSH2 0x111C PUSH2 0x3760 JUMP JUMPDEST PUSH1 0x0 DUP2 GT PUSH2 0x113C JUMPI PUSH1 0x40 MLOAD PUSH3 0x461BCD PUSH1 0xE5 SHL DUP2 MSTORE PUSH1 0x4 ADD PUSH2 0x8DF SWAP1 PUSH2 0x431E JUMP JUMPDEST CALLER PUSH1 0x0 SWAP1 DUP2 MSTORE PUSH1 0x2 PUSH1 0x20 MSTORE PUSH1 0x40 SWAP1 KECCAK256 SLOAD PUSH2 0x11A2 JUMPI PUSH1 0x40 MLOAD PUSH3 0x461BCD PUSH1 0xE5 SHL DUP2 MSTORE PUSH1 0x20 PUSH1 0x4 DUP3 ADD MSTORE PUSH1 0x21 PUSH1 0x24 DUP3 ADD MSTORE PUSH32 0x50434F4C42555344506F6F6C3A206E6F20504255534420636F6C6C6174657261 PUSH1 0x44 DUP3 ADD MSTORE PUSH1 0x1B PUSH1 0xFA SHL PUSH1 0x64 DUP3 ADD MSTORE PUSH1 0x84 ADD PUSH2 0x8DF JUMP JUMPDEST PUSH1 0x40 MLOAD PUSH4 0x70A08231 PUSH1 0xE0 SHL DUP2 MSTORE ADDRESS PUSH1 0x4 DUP3 ADD MSTORE DUP2 SWAP1 PUSH32 0x0 PUSH1 0x1 PUSH1 0x1 PUSH1 0xA0 SHL SUB AND SWAP1 PUSH4 0x70A08231 SWAP1 PUSH1 0x24 ADD PUSH1 0x20 PUSH1 0x40 MLOAD DUP1 DUP4 SUB DUP2 DUP7 GAS STATICCALL ISZERO DUP1 ISZERO PUSH2 0x1208 JUMPI RETURNDATASIZE PUSH1 0x0 DUP1 RETURNDATACOPY RETURNDATASIZE PUSH1 0x0 REVERT JUMPDEST POP POP POP POP PUSH1 0x40 MLOAD RETURNDATASIZE PUSH1 0x1F NOT PUSH1 0x1F DUP3 ADD AND DUP3 ADD DUP1 PUSH1 0x40 MSTORE POP DUP2 ADD SWAP1 PUSH2 0x122C SWAP2 SWAP1 PUSH2 0x43CD JUMP JUMPDEST LT ISZERO PUSH2 0x127A JUMPI PUSH1 0x40 MLOAD PUSH3 0x461BCD PUSH1 0xE5 SHL DUP2 MSTORE PUSH1 0x20 PUSH1 0x4 DUP3 ADD MSTORE PUSH1 0x1E PUSH1 0x24 DUP3 ADD MSTORE PUSH32 0x50434F4C42555344506F6F6C3A20696E73756666696369656E7420434F4C0000 PUSH1 0x44 DUP3 ADD MSTORE PUSH1 0x64 ADD PUSH2 0x8DF JUMP JUMPDEST PUSH1 0x6 SLOAD PUSH1 0x0 SWAP1 PUSH2 0x1292 DUP4 PUSH8 0xDE0B6B3A7640000 PUSH2 0x4360 JUMP JUMPDEST PUSH2 0x129C SWAP2 SWAP1 PUSH2 0x438D JUMP JUMPDEST CALLER PUSH1 0x0 SWAP1 DUP2 MSTORE PUSH1 0x4 PUSH1 0x20 MSTORE PUSH1 0x40 DUP2 KECCAK256 DUP1 SLOAD SWAP3 SWAP4 POP DUP4 SWAP3 SWAP1 SWAP2 SWAP1 PUSH2 0x12C0 SWAP1 DUP5 SWAP1 PUSH2 0x43E6 JUMP JUMPDEST SWAP3 POP POP DUP2 SWAP1 SSTORE POP DUP1 PUSH1 0xA PUSH1 0x0 DUP3 DUP3 SLOAD PUSH2 0x12D9 SWAP2 SWAP1 PUSH2 0x43E6 JUMP JUMPDEST SWAP1 SWAP2 SSTORE POP PUSH8 0xDE0B6B3A7640000 SWAP1 POP PUSH2 0x12F1 CALLER PUSH2 0xD33 JUMP JUMPDEST LT ISZERO PUSH2 0x130F JUMPI PUSH1 0x40 MLOAD PUSH3 0x461BCD PUSH1 0xE5 SHL DUP2 MSTORE PUSH1 0x4 ADD PUSH2 0x8DF SWAP1 PUSH2 0x43F9 JUMP JUMPDEST PUSH2 0x1343 PUSH1 0x1 PUSH1 0x1 PUSH1 0xA0 SHL SUB PUSH32 0x0 AND CALLER DUP5 PUSH2 0x3847 JUMP JUMPDEST PUSH1 0x1B SLOAD ISZERO PUSH2 0x13B2 JUMPI PUSH1 0x0 SLOAD PUSH1 0x1B SLOAD PUSH1 0x40 MLOAD PUSH4 0x4D248487 PUSH1 0xE1 SHL DUP2 MSTORE PUSH1 0x1 PUSH1 0x1 PUSH1 0xA0 SHL SUB SWAP1 SWAP3 AND SWAP2 PUSH4 0x9A49090E SWAP2 PUSH2 0x137F SWAP2 CALLER SWAP2 SWAP1 PUSH1 0x4 ADD PUSH2 0x43B4 JUMP JUMPDEST PUSH1 0x0 PUSH1 0x40 MLOAD DUP1 DUP4 SUB DUP2 PUSH1 0x0 DUP8 DUP1 EXTCODESIZE ISZERO DUP1 ISZERO PUSH2 0x1399 JUMPI PUSH1 0x0 DUP1 REVERT JUMPDEST POP GAS CALL ISZERO DUP1 ISZERO PUSH2 0x13AD JUMPI RETURNDATASIZE PUSH1 0x0 DUP1 RETURNDATACOPY RETURNDATASIZE PUSH1 0x0 REVERT JUMPDEST POP POP POP POP JUMPDEST PUSH1 0x40 MLOAD DUP3 DUP2 MSTORE CALLER SWAP1 PUSH32 0x64058EF3FD742704269A61C4D8E869AC215D70D1DFBD716D4746DA00FA89A839 SWAP1 PUSH1 0x20 ADD JUMPDEST PUSH1 0x40 MLOAD DUP1 SWAP2 SUB SWAP1 LOG2 POP PUSH2 0xA92 PUSH1 0x1 PUSH1 0x0 DUP1 MLOAD PUSH1 0x20 PUSH2 0x45D8 DUP4 CODECOPY DUP2 MLOAD SWAP2 MSTORE SSTORE JUMP JUMPDEST PUSH2 0x1408 PUSH2 0x3301 JUMP JUMPDEST PUSH2 0x1410 PUSH2 0x3881 JUMP JUMPDEST PUSH1 0x0 DUP2 GT PUSH2 0x1430 JUMPI PUSH1 0x40 MLOAD PUSH3 0x461BCD PUSH1 0xE5 SHL DUP2 MSTORE PUSH1 0x4 ADD PUSH2 0x8DF SWAP1 PUSH2 0x431E JUMP JUMPDEST CALLER PUSH1 0x0 SWAP1 DUP2 MSTORE PUSH1 0x1 PUSH1 0x20 MSTORE PUSH1 0x40 SWAP1 KECCAK256 SLOAD PUSH2 0x148C JUMPI PUSH1 0x40 MLOAD PUSH3 0x461BCD PUSH1 0xE5 SHL DUP2 MSTORE PUSH1 0x20 PUSH1 0x4 DUP3 ADD DUP2 SWAP1 MSTORE PUSH1 0x24 DUP3 ADD MSTORE PUSH32 0x50434F4C42555344506F6F6C3A206E6F2050434F4C20636F6C6C61746572616C PUSH1 0x44 DUP3 ADD MSTORE PUSH1 0x64 ADD PUSH2 0x8DF JUMP JUMPDEST PUSH1 0x40 MLOAD PUSH4 0x70A08231 PUSH1 0xE0 SHL DUP2 MSTORE ADDRESS PUSH1 0x4 DUP3 ADD MSTORE DUP2 SWAP1 PUSH32 0x0 PUSH1 0x1 PUSH1 0x1 PUSH1 0xA0 SHL SUB AND SWAP1 PUSH4 0x70A08231 SWAP1 PUSH1 0x24 ADD PUSH1 0x20 PUSH1 0x40 MLOAD DUP1 DUP4 SUB DUP2 DUP7 GAS STATICCALL ISZERO DUP1 ISZERO PUSH2 0x14F2 JUMPI RETURNDATASIZE PUSH1 0x0 DUP1 RETURNDATACOPY RETURNDATASIZE PUSH1 0x0 REVERT JUMPDEST POP POP POP POP PUSH1 0x40 MLOAD RETURNDATASIZE PUSH1 0x1F NOT PUSH1 0x1F DUP3 ADD AND DUP3 ADD DUP1 PUSH1 0x40 MSTORE POP DUP2 ADD SWAP1 PUSH2 0x1516 SWAP2 SWAP1 PUSH2 0x43CD JUMP JUMPDEST LT ISZERO PUSH2 0x1564 JUMPI PUSH1 0x40 MLOAD PUSH3 0x461BCD PUSH1 0xE5 SHL DUP2 MSTORE PUSH1 0x20 PUSH1 0x4 DUP3 ADD MSTORE PUSH1 0x1F PUSH1 0x24 DUP3 ADD MSTORE PUSH32 0x50434F4C42555344506F6F6C3A20696E73756666696369656E74204255534400 PUSH1 0x44 DUP3 ADD MSTORE PUSH1 0x64 ADD PUSH2 0x8DF JUMP JUMPDEST PUSH1 0x5 SLOAD PUSH1 0x0 SWAP1 PUSH2 0x157C DUP4 PUSH8 0xDE0B6B3A7640000 PUSH2 0x4360 JUMP JUMPDEST PUSH2 0x1586 SWAP2 SWAP1 PUSH2 0x438D JUMP JUMPDEST CALLER PUSH1 0x0 SWAP1 DUP2 MSTORE PUSH1 0x3 PUSH1 0x20 MSTORE PUSH1 0x40 DUP2 KECCAK256 DUP1 SLOAD SWAP3 SWAP4 POP DUP4 SWAP3 SWAP1 SWAP2 SWAP1 PUSH2 0x15AA SWAP1 DUP5 SWAP1 PUSH2 0x43E6 JUMP JUMPDEST SWAP3 POP POP DUP2 SWAP1 SSTORE POP DUP1 PUSH1 0x9 PUSH1 0x0 DUP3 DUP3 SLOAD PUSH2 0x15C3 SWAP2 SWAP1 PUSH2 0x43E6 JUMP JUMPDEST SWAP1 SWAP2 SSTORE POP PUSH8 0xDE0B6B3A7640000 SWAP1 POP PUSH2 0x15DB CALLER PUSH2 0xE1C JUMP JUMPDEST LT ISZERO PUSH2 0x15F9 JUMPI PUSH1 0x40 MLOAD PUSH3 0x461BCD PUSH1 0xE5 SHL DUP2 MSTORE PUSH1 0x4 ADD PUSH2 0x8DF SWAP1 PUSH2 0x43F9 JUMP JUMPDEST PUSH2 0x162D PUSH1 0x1 PUSH1 0x1 PUSH1 0xA0 SHL SUB PUSH32 0x0 AND CALLER DUP5 PUSH2 0x3847 JUMP JUMPDEST PUSH1 0x1B SLOAD ISZERO PUSH2 0x169C JUMPI PUSH1 0x0 SLOAD PUSH1 0x1B SLOAD PUSH1 0x40 MLOAD PUSH4 0x4D248487 PUSH1 0xE1 SHL DUP2 MSTORE PUSH1 0x1 PUSH1 0x1 PUSH1 0xA0 SHL SUB SWAP1 SWAP3 AND SWAP2 PUSH4 0x9A49090E SWAP2 PUSH2 0x1669 SWAP2 CALLER SWAP2 SWAP1 PUSH1 0x4 ADD PUSH2 0x43B4 JUMP JUMPDEST PUSH1 0x0 PUSH1 0x40 MLOAD DUP1 DUP4 SUB DUP2 PUSH1 0x0 DUP8 DUP1 EXTCODESIZE ISZERO DUP1 ISZERO PUSH2 0x1683 JUMPI PUSH1 0x0 DUP1 REVERT JUMPDEST POP GAS CALL ISZERO DUP1 ISZERO PUSH2 0x1697 JUMPI RETURNDATASIZE PUSH1 0x0 DUP1 RETURNDATACOPY RETURNDATASIZE PUSH1 0x0 REVERT JUMPDEST POP POP POP POP JUMPDEST PUSH1 0x40 MLOAD DUP3 DUP2 MSTORE CALLER SWAP1 PUSH32 0xF6FC424A68D90F3F5323BE41DB315721F4B8843B3799AE1089007F88E2190551 SWAP1 PUSH1 0x20 ADD PUSH2 0x13E0 JUMP JUMPDEST PUSH2 0x16D6 PUSH2 0x3301 JUMP JUMPDEST PUSH1 0x0 DUP2 GT PUSH2 0x16F6 JUMPI PUSH1 0x40 MLOAD PUSH3 0x461BCD PUSH1 0xE5 SHL DUP2 MSTORE PUSH1 0x4 ADD PUSH2 0x8DF SWAP1 PUSH2 0x431E JUMP JUMPDEST PUSH2 0x172B PUSH1 0x1 PUSH1 0x1 PUSH1 0xA0 SHL SUB PUSH32 0x0 AND CALLER ADDRESS DUP5 PUSH2 0x331D JUMP JUMPDEST PUSH1 0x0 PUSH2 0x2710 PUSH1 0x19 SLOAD DUP4 PUSH2 0x173E SWAP2 SWAP1 PUSH2 0x4360 JUMP JUMPDEST PUSH2 0x1748 SWAP2 SWAP1 PUSH2 0x438D JUMP JUMPDEST SWAP1 POP PUSH1 0x0 PUSH2 0x1756 DUP3 DUP5 PUSH2 0x43A1 JUMP JUMPDEST PUSH1 0x40 MLOAD PUSH4 0x40C10F19 PUSH1 0xE0 SHL DUP2 MSTORE SWAP1 SWAP2 POP PUSH1 0x1 PUSH1 0x1 PUSH1 0xA0 SHL SUB PUSH32 0x0 AND SWAP1 PUSH4 0x40C10F19 SWAP1 PUSH2 0x17A7 SWAP1 CALLER SWAP1 DUP6 SWAP1 PUSH1 0x4 ADD PUSH2 0x43B4 JUMP JUMPDEST PUSH1 0x0 PUSH1 0x40 MLOAD DUP1 DUP4 SUB DUP2 PUSH1 0x0 DUP8 DUP1 EXTCODESIZE ISZERO DUP1 ISZERO PUSH2 0x17C1 JUMPI PUSH1 0x0 DUP1 REVERT JUMPDEST POP GAS CALL ISZERO DUP1 ISZERO PUSH2 0x17D5 JUMPI RETURNDATASIZE PUSH1 0x0 DUP1 RETURNDATACOPY RETURNDATASIZE PUSH1 0x0 REVERT JUMPDEST POP POP POP POP PUSH1 0x0 PUSH1 0x1A SLOAD GT ISZERO PUSH2 0x184B JUMPI PUSH1 0x0 SLOAD PUSH1 0x1A SLOAD PUSH1 0x40 MLOAD PUSH4 0x4D248487 PUSH1 0xE1 SHL DUP2 MSTORE PUSH1 0x1 PUSH1 0x1 PUSH1 0xA0 SHL SUB SWAP1 SWAP3 AND SWAP2 PUSH4 0x9A49090E SWAP2 PUSH2 0x1818 SWAP2 CALLER SWAP2 SWAP1 PUSH1 0x4 ADD PUSH2 0x43B4 JUMP JUMPDEST PUSH1 0x0 PUSH1 0x40 MLOAD DUP1 DUP4 SUB DUP2 PUSH1 0x0 DUP8 DUP1 EXTCODESIZE ISZERO DUP1 ISZERO PUSH2 0x1832 JUMPI PUSH1 0x0 DUP1 REVERT JUMPDEST POP GAS CALL ISZERO DUP1 ISZERO PUSH2 0x1846 JUMPI RETURNDATASIZE PUSH1 0x0 DUP1 RETURNDATACOPY RETURNDATASIZE PUSH1 0x0 REVERT JUMPDEST POP POP POP POP JUMPDEST PUSH1 0x40 DUP1 MLOAD DUP5 DUP2 MSTORE PUSH1 0x20 DUP2 ADD DUP4 SWAP1 MSTORE CALLER SWAP2 PUSH32 0x8A2298614B2CCBBC8111D5698F4353B52ED97C61821CE6BB845F369A687CF4D3 SWAP2 ADD PUSH2 0xA71 JUMP JUMPDEST PUSH2 0x188B PUSH2 0x3301 JUMP JUMPDEST PUSH32 0x0 PUSH1 0x1 PUSH1 0x1 PUSH1 0xA0 SHL SUB AND DUP5 PUSH1 0x1 PUSH1 0x1 PUSH1 0xA0 SHL SUB AND EQ DUP1 PUSH2 0x18FC JUMPI POP PUSH32 0x0 PUSH1 0x1 PUSH1 0x1 PUSH1 0xA0 SHL SUB AND DUP5 PUSH1 0x1 PUSH1 0x1 PUSH1 0xA0 SHL SUB AND EQ JUMPDEST PUSH2 0x1948 JUMPI PUSH1 0x40 MLOAD PUSH3 0x461BCD PUSH1 0xE5 SHL DUP2 MSTORE PUSH1 0x20 PUSH1 0x4 DUP3 ADD MSTORE PUSH1 0x19 PUSH1 0x24 DUP3 ADD MSTORE PUSH32 0x50434F4C42555344506F6F6C3A20756E737570706F7274656400000000000000 PUSH1 0x44 DUP3 ADD MSTORE PUSH1 0x64 ADD PUSH2 0x8DF JUMP JUMPDEST PUSH1 0x0 DUP4 GT DUP1 ISZERO PUSH2 0x195B JUMPI POP PUSH1 0x1C SLOAD PUSH1 0xFF AND ISZERO JUMPDEST PUSH2 0x19A7 JUMPI PUSH1 0x40 MLOAD PUSH3 0x461BCD PUSH1 0xE5 SHL DUP2 MSTORE PUSH1 0x20 PUSH1 0x4 DUP3 ADD MSTORE PUSH1 0x1B PUSH1 0x24 DUP3 ADD MSTORE PUSH32 0x50434F4C42555344506F6F6C3A20696E76616C696420666C6173680000000000 PUSH1 0x44 DUP3 ADD MSTORE PUSH1 0x64 ADD PUSH2 0x8DF JUMP JUMPDEST PUSH1 0x0 PUSH2 0x2710 PUSH1 0x18 SLOAD DUP6 PUSH2 0x19BA SWAP2 SWAP1 PUSH2 0x4360 JUMP JUMPDEST PUSH2 0x19C4 SWAP2 SWAP1 PUSH2 0x438D JUMP JUMPDEST PUSH1 0x1C DUP1 SLOAD PUSH1 0xFF NOT AND PUSH1 0x1 OR SWAP1 SSTORE PUSH1 0x40 MLOAD PUSH4 0x70A08231 PUSH1 0xE0 SHL DUP2 MSTORE ADDRESS PUSH1 0x4 DUP3 ADD MSTORE SWAP1 SWAP2 POP PUSH1 0x0 SWAP1 PUSH1 0x1 PUSH1 0x1 PUSH1 0xA0 SHL SUB DUP8 AND SWAP1 PUSH4 0x70A08231 SWAP1 PUSH1 0x24 ADD PUSH1 0x20 PUSH1 0x40 MLOAD DUP1 DUP4 SUB DUP2 DUP7 GAS STATICCALL ISZERO DUP1 ISZERO PUSH2 0x1A1B JUMPI RETURNDATASIZE PUSH1 0x0 DUP1 RETURNDATACOPY RETURNDATASIZE PUSH1 0x0 REVERT JUMPDEST POP POP POP POP PUSH1 0x40 MLOAD RETURNDATASIZE PUSH1 0x1F NOT PUSH1 0x1F DUP3 ADD AND DUP3 ADD DUP1 PUSH1 0x40 MSTORE POP DUP2 ADD SWAP1 PUSH2 0x1A3F SWAP2 SWAP1 PUSH2 0x43CD JUMP JUMPDEST SWAP1 POP PUSH2 0x1A55 PUSH1 0x1 PUSH1 0x1 PUSH1 0xA0 SHL SUB DUP8 AND DUP9 DUP8 PUSH2 0x3847 JUMP JUMPDEST PUSH1 0x40 MLOAD PUSH4 0x1B11D0FF PUSH1 0xE0 SHL DUP2 MSTORE PUSH1 0x1 PUSH1 0x1 PUSH1 0xA0 SHL SUB DUP9 AND SWAP1 PUSH4 0x1B11D0FF SWAP1 PUSH2 0x1A8B SWAP1 DUP10 SWAP1 DUP10 SWAP1 DUP8 SWAP1 CALLER SWAP1 DUP12 SWAP1 DUP12 SWAP1 PUSH1 0x4 ADD PUSH2 0x4423 JUMP JUMPDEST PUSH1 0x20 PUSH1 0x40 MLOAD DUP1 DUP4 SUB DUP2 PUSH1 0x0 DUP8 GAS CALL ISZERO DUP1 ISZERO PUSH2 0x1AAA JUMPI RETURNDATASIZE PUSH1 0x0 DUP1 RETURNDATACOPY RETURNDATASIZE PUSH1 0x0 REVERT JUMPDEST POP POP POP POP PUSH1 0x40 MLOAD RETURNDATASIZE PUSH1 0x1F NOT PUSH1 0x1F DUP3 ADD AND DUP3 ADD DUP1 PUSH1 0x40 MSTORE POP DUP2 ADD SWAP1 PUSH2 0x1ACE SWAP2 SWAP1 PUSH2 0x447F JUMP JUMPDEST PUSH2 0x1B1A JUMPI PUSH1 0x40 MLOAD PUSH3 0x461BCD PUSH1 0xE5 SHL DUP2 MSTORE PUSH1 0x20 PUSH1 0x4 DUP3 ADD MSTORE PUSH1 0x1A PUSH1 0x24 DUP3 ADD MSTORE PUSH32 0x50434F4C42555344506F6F6C3A20666C617368206661696C6564000000000000 PUSH1 0x44 DUP3 ADD MSTORE PUSH1 0x64 ADD PUSH2 0x8DF JUMP JUMPDEST PUSH2 0x1B24 DUP3 DUP3 PUSH2 0x43E6 JUMP JUMPDEST PUSH1 0x40 MLOAD PUSH4 0x70A08231 PUSH1 0xE0 SHL DUP2 MSTORE ADDRESS PUSH1 0x4 DUP3 ADD MSTORE PUSH1 0x1 PUSH1 0x1 PUSH1 0xA0 SHL SUB DUP9 AND SWAP1 PUSH4 0x70A08231 SWAP1 PUSH1 0x24 ADD PUSH1 0x20 PUSH1 0x40 MLOAD DUP1 DUP4 SUB DUP2 DUP7 GAS STATICCALL ISZERO DUP1 ISZERO PUSH2 0x1B68 JUMPI RETURNDATASIZE PUSH1 0x0 DUP1 RETURNDATACOPY RETURNDATASIZE PUSH1 0x0 REVERT JUMPDEST POP POP POP POP PUSH1 0x40 MLOAD RETURNDATASIZE PUSH1 0x1F NOT PUSH1 0x1F DUP3 ADD AND DUP3 ADD DUP1 PUSH1 0x40 MSTORE POP DUP2 ADD SWAP1 PUSH2 0x1B8C SWAP2 SWAP1 PUSH2 0x43CD JUMP JUMPDEST LT ISZERO PUSH2 0x1BDA JUMPI PUSH1 0x40 MLOAD PUSH3 0x461BCD PUSH1 0xE5 SHL DUP2 MSTORE PUSH1 0x20 PUSH1 0x4 DUP3 ADD MSTORE PUSH1 0x18 PUSH1 0x24 DUP3 ADD MSTORE PUSH32 0x50434F4C42555344506F6F6C3A206E6F74207265706169640000000000000000 PUSH1 0x44 DUP3 ADD MSTORE PUSH1 0x64 ADD PUSH2 0x8DF JUMP JUMPDEST PUSH1 0x1C DUP1 SLOAD PUSH1 0xFF NOT AND SWAP1 SSTORE PUSH1 0x40 DUP1 MLOAD DUP7 DUP2 MSTORE PUSH1 0x20 DUP2 ADD DUP5 SWAP1 MSTORE PUSH1 0x1 PUSH1 0x1 PUSH1 0xA0 SHL SUB DUP9 DUP2 AND SWAP3 SWAP1 DUP11 AND SWAP2 PUSH32 0xD7D75E01AB95780D3CD1C8EC0DD6C2CE19E3A20427EEC8BF53283B6FB8E95F0 SWAP2 ADD PUSH1 0x40 MLOAD DUP1 SWAP2 SUB SWAP1 LOG3 POP POP PUSH2 0x1C46 PUSH1 0x1 PUSH1 0x0 DUP1 MLOAD PUSH1 0x20 PUSH2 0x45D8 DUP4 CODECOPY DUP2 MLOAD SWAP2 MSTORE SSTORE JUMP JUMPDEST POP POP POP POP POP JUMP JUMPDEST PUSH2 0x1C55 PUSH2 0x3301 JUMP JUMPDEST PUSH2 0x1C5D PUSH2 0x3760 JUMP JUMPDEST PUSH8 0xDE0B6B3A7640000 PUSH2 0x1C6F DUP3 PUSH2 0xD33 JUMP JUMPDEST LT PUSH2 0x1CBC JUMPI PUSH1 0x40 MLOAD PUSH3 0x461BCD PUSH1 0xE5 SHL DUP2 MSTORE PUSH1 0x20 PUSH1 0x4 DUP3 ADD MSTORE PUSH1 0x1E PUSH1 0x24 DUP3 ADD MSTORE PUSH32 0x50434F4C42555344506F6F6C3A206E6F74206C6971756964617461626C650000 PUSH1 0x44 DUP3 ADD MSTORE PUSH1 0x64 ADD PUSH2 0x8DF JUMP JUMPDEST PUSH1 0x6 SLOAD PUSH1 0x1 PUSH1 0x1 PUSH1 0xA0 SHL SUB DUP3 AND PUSH1 0x0 SWAP1 DUP2 MSTORE PUSH1 0x4 PUSH1 0x20 MSTORE PUSH1 0x40 DUP2 KECCAK256 SLOAD SWAP1 SWAP2 PUSH8 0xDE0B6B3A7640000 SWAP2 PUSH2 0x1CEE SWAP2 SWAP1 PUSH2 0x4360 JUMP JUMPDEST PUSH2 0x1CF8 SWAP2 SWAP1 PUSH2 0x438D JUMP JUMPDEST SWAP1 POP PUSH1 0x0 DUP2 GT DUP1 ISZERO PUSH2 0x1D21 JUMPI POP PUSH1 0x1 PUSH1 0x1 PUSH1 0xA0 SHL SUB DUP3 AND PUSH1 0x0 SWAP1 DUP2 MSTORE PUSH1 0x2 PUSH1 0x20 MSTORE PUSH1 0x40 SWAP1 KECCAK256 SLOAD ISZERO ISZERO JUMPDEST PUSH2 0x1D64 JUMPI PUSH1 0x40 MLOAD PUSH3 0x461BCD PUSH1 0xE5 SHL DUP2 MSTORE PUSH1 0x20 PUSH1 0x4 DUP3 ADD MSTORE PUSH1 0x14 PUSH1 0x24 DUP3 ADD MSTORE PUSH20 0x50434F4C42555344506F6F6C3A206E6F20706F73 PUSH1 0x60 SHL PUSH1 0x44 DUP3 ADD MSTORE PUSH1 0x64 ADD PUSH2 0x8DF JUMP JUMPDEST PUSH1 0x6 SLOAD PUSH1 0x0 SWAP1 PUSH2 0x1D7C DUP4 PUSH8 0xDE0B6B3A7640000 PUSH2 0x4360 JUMP JUMPDEST PUSH2 0x1D86 SWAP2 SWAP1 PUSH2 0x438D JUMP JUMPDEST PUSH1 0x1 PUSH1 0x1 PUSH1 0xA0 SHL SUB DUP5 AND PUSH1 0x0 SWAP1 DUP2 MSTORE PUSH1 0x4 PUSH1 0x20 MSTORE PUSH1 0x40 DUP2 KECCAK256 DUP2 SWAP1 SSTORE PUSH1 0xA DUP1 SLOAD SWAP3 SWAP4 POP DUP4 SWAP3 SWAP1 SWAP2 SWAP1 PUSH2 0x1DB8 SWAP1 DUP5 SWAP1 PUSH2 0x43A1 JUMP JUMPDEST SWAP1 SWAP2 SSTORE POP POP PUSH1 0x1 PUSH1 0x1 PUSH1 0xA0 SHL SUB DUP4 AND PUSH1 0x0 SWAP1 DUP2 MSTORE PUSH1 0x2 PUSH1 0x20 MSTORE PUSH1 0x40 DUP2 KECCAK256 DUP1 SLOAD SWAP1 DUP3 SWAP1 SSTORE PUSH1 0x17 SLOAD SWAP1 SWAP2 SWAP1 PUSH2 0x2710 SWAP1 PUSH2 0x1DEF SWAP1 DUP3 PUSH2 0x43E6 JUMP JUMPDEST PUSH2 0x1DF9 SWAP1 DUP5 PUSH2 0x4360 JUMP JUMPDEST PUSH2 0x1E03 SWAP2 SWAP1 PUSH2 0x438D JUMP JUMPDEST SWAP1 POP DUP2 DUP2 GT ISZERO PUSH2 0x1E10 JUMPI POP DUP1 JUMPDEST PUSH1 0x0 PUSH2 0x1E1C DUP3 DUP5 PUSH2 0x43A1 JUMP JUMPDEST SWAP1 POP PUSH2 0x1E53 PUSH1 0x1 PUSH1 0x1 PUSH1 0xA0 SHL SUB PUSH32 0x0 AND CALLER ADDRESS DUP9 PUSH2 0x331D JUMP JUMPDEST DUP1 ISZERO PUSH2 0x1EDA JUMPI PUSH1 0x40 MLOAD PUSH4 0x2770A7EB PUSH1 0xE2 SHL DUP2 MSTORE PUSH1 0x1 PUSH1 0x1 PUSH1 0xA0 SHL SUB PUSH32 0x0 AND SWAP1 PUSH4 0x9DC29FAC SWAP1 PUSH2 0x1EA7 SWAP1 ADDRESS SWAP1 DUP6 SWAP1 PUSH1 0x4 ADD PUSH2 0x43B4 JUMP JUMPDEST PUSH1 0x0 PUSH1 0x40 MLOAD DUP1 DUP4 SUB DUP2 PUSH1 0x0 DUP8 DUP1 EXTCODESIZE ISZERO DUP1 ISZERO PUSH2 0x1EC1 JUMPI PUSH1 0x0 DUP1 REVERT JUMPDEST POP GAS CALL ISZERO DUP1 ISZERO PUSH2 0x1ED5 JUMPI RETURNDATASIZE PUSH1 0x0 DUP1 RETURNDATACOPY RETURNDATASIZE PUSH1 0x0 REVERT JUMPDEST POP POP POP POP JUMPDEST PUSH2 0x1F0E PUSH1 0x1 PUSH1 0x1 PUSH1 0xA0 SHL SUB PUSH32 0x0 AND CALLER DUP5 PUSH2 0x3847 JUMP JUMPDEST PUSH1 0x40 DUP1 MLOAD DUP7 DUP2 MSTORE PUSH1 0x20 DUP2 ADD DUP5 SWAP1 MSTORE PUSH1 0x1 PUSH1 0x1 PUSH1 0xA0 SHL SUB DUP9 AND SWAP2 CALLER SWAP2 PUSH32 0xE912F4CCB4A26A55BF54B23B7E96FCAC60EBC03B3E76CCDB6752B5D8ABC7E8F9 SWAP2 ADD JUMPDEST PUSH1 0x40 MLOAD DUP1 SWAP2 SUB SWAP1 LOG3 POP POP POP POP POP PUSH2 0xA92 PUSH1 0x1 PUSH1 0x0 DUP1 MLOAD PUSH1 0x20 PUSH2 0x45D8 DUP4 CODECOPY DUP2 MLOAD SWAP2 MSTORE SSTORE JUMP JUMPDEST PUSH1 0x0 DUP1 PUSH2 0x1F7C PUSH2 0xFDB JUMP JUMPDEST SWAP1 POP PUSH1 0x0 PUSH2 0x1F88 PUSH2 0xE0E JUMP JUMPDEST SWAP1 POP PUSH2 0x1F9E PUSH2 0x2710 PUSH8 0xDE0B6B3A7640000 PUSH2 0x4360 JUMP JUMPDEST PUSH1 0x14 SLOAD PUSH2 0x1FAD SWAP1 PUSH2 0x2710 PUSH2 0x43A1 JUMP JUMPDEST PUSH2 0x1FB7 DUP5 DUP5 PUSH2 0x4360 JUMP JUMPDEST PUSH2 0x1FC1 SWAP2 SWAP1 PUSH2 0x4360 JUMP JUMPDEST PUSH2 0xECE SWAP2 SWAP1 PUSH2 0x438D JUMP JUMPDEST PUSH2 0x1FD3 PUSH2 0x3301 JUMP JUMPDEST PUSH1 0x0 DUP2 GT PUSH2 0x1FF3 JUMPI PUSH1 0x40 MLOAD PUSH3 0x461BCD PUSH1 0xE5 SHL DUP2 MSTORE PUSH1 0x4 ADD PUSH2 0x8DF SWAP1 PUSH2 0x431E JUMP JUMPDEST PUSH1 0x40 MLOAD PUSH4 0x70A08231 PUSH1 0xE0 SHL DUP2 MSTORE ADDRESS PUSH1 0x4 DUP3 ADD MSTORE DUP2 SWAP1 PUSH32 0x0 PUSH1 0x1 PUSH1 0x1 PUSH1 0xA0 SHL SUB AND SWAP1 PUSH4 0x70A08231 SWAP1 PUSH1 0x24 ADD PUSH1 0x20 PUSH1 0x40 MLOAD DUP1 DUP4 SUB DUP2 DUP7 GAS STATICCALL ISZERO DUP1 ISZERO PUSH2 0x2059 JUMPI RETURNDATASIZE PUSH1 0x0 DUP1 RETURNDATACOPY RETURNDATASIZE PUSH1 0x0 REVERT JUMPDEST POP POP POP POP PUSH1 0x40 MLOAD RETURNDATASIZE PUSH1 0x1F NOT PUSH1 0x1F DUP3 ADD AND DUP3 ADD DUP1 PUSH1 0x40 MSTORE POP DUP2 ADD SWAP1 PUSH2 0x207D SWAP2 SWAP1 PUSH2 0x43CD JUMP JUMPDEST LT ISZERO PUSH2 0x20CB JUMPI PUSH1 0x40 MLOAD PUSH3 0x461BCD PUSH1 0xE5 SHL DUP2 MSTORE PUSH1 0x20 PUSH1 0x4 DUP3 ADD MSTORE PUSH1 0x1E PUSH1 0x24 DUP3 ADD MSTORE PUSH32 0x50434F4C42555344506F6F6C3A20696E73756666696369656E7420434F4C0000 PUSH1 0x44 DUP3 ADD MSTORE PUSH1 0x64 ADD PUSH2 0x8DF JUMP JUMPDEST PUSH1 0x40 MLOAD PUSH4 0x2770A7EB PUSH1 0xE2 SHL DUP2 MSTORE PUSH1 0x1 PUSH1 0x1 PUSH1 0xA0 SHL SUB PUSH32 0x0 AND SWAP1 PUSH4 0x9DC29FAC SWAP1 PUSH2 0x2119 SWAP1 CALLER SWAP1 DUP6 SWAP1 PUSH1 0x4 ADD PUSH2 0x43B4 JUMP JUMPDEST PUSH1 0x0 PUSH1 0x40 MLOAD DUP1 DUP4 SUB DUP2 PUSH1 0x0 DUP8 DUP1 EXTCODESIZE ISZERO DUP1 ISZERO PUSH2 0x2133 JUMPI PUSH1 0x0 DUP1 REVERT JUMPDEST POP GAS CALL ISZERO DUP1 ISZERO PUSH2 0x2147 JUMPI RETURNDATASIZE PUSH1 0x0 DUP1 RETURNDATACOPY RETURNDATASIZE PUSH1 0x0 REVERT JUMPDEST POP PUSH2 0x2181 SWAP3 POP POP PUSH1 0x1 PUSH1 0x1 PUSH1 0xA0 SHL SUB PUSH32 0x0 AND SWAP1 POP CALLER DUP4 PUSH2 0x3847 JUMP JUMPDEST PUSH1 0x40 DUP1 MLOAD DUP3 DUP2 MSTORE PUSH1 0x20 DUP2 ADD DUP4 SWAP1 MSTORE CALLER SWAP2 PUSH32 0xD36C28D8252079F996F11D24E2776FCDC1E0F4CEADFF156993AFF84CBFD37A75 SWAP2 ADD JUMPDEST PUSH1 0x40 MLOAD DUP1 SWAP2 SUB SWAP1 LOG2 PUSH2 0xA92 PUSH1 0x1 PUSH1 0x0 DUP1 MLOAD PUSH1 0x20 PUSH2 0x45D8 DUP4 CODECOPY DUP2 MLOAD SWAP2 MSTORE SSTORE JUMP JUMPDEST PUSH1 0x1 PUSH1 0x1 PUSH1 0xA0 SHL SUB DUP2 AND PUSH1 0x0 SWAP1 DUP2 MSTORE PUSH1 0x2 PUSH1 0x20 MSTORE PUSH1 0x40 DUP2 KECCAK256 SLOAD DUP1 DUP3 SUB PUSH2 0x21FD JUMPI POP PUSH1 0x0 SWAP3 SWAP2 POP POP JUMP JUMPDEST PUSH1 0x40 MLOAD PUSH4 0x70A08231 PUSH1 0xE0 SHL DUP2 MSTORE ADDRESS PUSH1 0x4 DUP3 ADD MSTORE PUSH1 0x0 SWAP1 PUSH32 0x0 PUSH1 0x1 PUSH1 0x1 PUSH1 0xA0 SHL SUB AND SWAP1 PUSH4 0x70A08231 SWAP1 PUSH1 0x24 ADD PUSH1 0x20 PUSH1 0x40 MLOAD DUP1 DUP4 SUB DUP2 DUP7 GAS STATICCALL ISZERO DUP1 ISZERO PUSH2 0x2264 JUMPI RETURNDATASIZE PUSH1 0x0 DUP1 RETURNDATACOPY RETURNDATASIZE PUSH1 0x0 REVERT JUMPDEST POP POP POP POP PUSH1 0x40 MLOAD RETURNDATASIZE PUSH1 0x1F NOT PUSH1 0x1F DUP3 ADD AND DUP3 ADD DUP1 PUSH1 0x40 MSTORE POP DUP2 ADD SWAP1 PUSH2 0x2288 SWAP2 SWAP1 PUSH2 0x43CD JUMP JUMPDEST PUSH1 0x40 MLOAD PUSH4 0x70A08231 PUSH1 0xE0 SHL DUP2 MSTORE ADDRESS PUSH1 0x4 DUP3 ADD MSTORE SWAP1 SWAP2 POP PUSH1 0x0 SWAP1 PUSH1 0x1 PUSH1 0x1 PUSH1 0xA0 SHL SUB PUSH32 0x0 AND SWAP1 PUSH4 0x70A08231 SWAP1 PUSH1 0x24 ADD PUSH1 0x20 PUSH1 0x40 MLOAD DUP1 DUP4 SUB DUP2 DUP7 GAS STATICCALL ISZERO DUP1 ISZERO PUSH2 0x22F2 JUMPI RETURNDATASIZE PUSH1 0x0 DUP1 RETURNDATACOPY RETURNDATASIZE PUSH1 0x0 REVERT JUMPDEST POP POP POP POP PUSH1 0x40 MLOAD RETURNDATASIZE PUSH1 0x1F NOT PUSH1 0x1F DUP3 ADD AND DUP3 ADD DUP1 PUSH1 0x40 MSTORE POP DUP2 ADD SWAP1 PUSH2 0x2316 SWAP2 SWAP1 PUSH2 0x43CD JUMP JUMPDEST SWAP1 POP DUP2 PUSH1 0x0 SUB PUSH2 0x232B JUMPI POP PUSH1 0x0 SWAP5 SWAP4 POP POP POP POP JUMP JUMPDEST PUSH1 0x0 PUSH2 0x2336 DUP7 PUSH2 0xDC8 JUMP JUMPDEST PUSH1 0x16 SLOAD SWAP1 SWAP2 POP PUSH1 0x0 DUP4 PUSH2 0x2349 DUP4 DUP9 PUSH2 0x4360 JUMP JUMPDEST PUSH2 0x2353 SWAP2 SWAP1 PUSH2 0x4360 JUMP JUMPDEST SWAP1 POP PUSH1 0x0 PUSH2 0x2710 PUSH2 0x2364 DUP8 DUP7 PUSH2 0x4360 JUMP JUMPDEST PUSH2 0x236E SWAP2 SWAP1 PUSH2 0x4360 JUMP JUMPDEST SWAP1 POP DUP1 DUP3 GT PUSH2 0x2386 JUMPI POP PUSH1 0x0 SWAP9 SWAP8 POP POP POP POP POP POP POP POP JUMP JUMPDEST PUSH1 0x0 PUSH2 0x2394 PUSH2 0x2710 DUP9 PUSH2 0x4360 JUMP JUMPDEST PUSH2 0x239E DUP6 DUP11 PUSH2 0x4360 JUMP JUMPDEST PUSH2 0x23A8 SWAP2 SWAP1 PUSH2 0x43E6 JUMP JUMPDEST PUSH2 0x23B2 DUP4 DUP6 PUSH2 0x43A1 JUMP JUMPDEST PUSH2 0x23BC SWAP2 SWAP1 PUSH2 0x438D JUMP JUMPDEST SWAP1 POP DUP6 DUP2 GT ISZERO PUSH2 0x23C9 JUMPI POP DUP5 JUMPDEST DUP1 PUSH1 0x0 SUB PUSH2 0x23E1 JUMPI POP PUSH1 0x0 SWAP10 SWAP9 POP POP POP POP POP POP POP POP POP JUMP JUMPDEST PUSH1 0x0 DUP2 JUMPDEST DUP1 DUP3 LT ISZERO PUSH2 0xD24 JUMPI PUSH1 0x0 PUSH1 0x2 PUSH2 0x23FB DUP4 DUP6 PUSH2 0x43E6 JUMP JUMPDEST PUSH2 0x2406 SWAP1 PUSH1 0x1 PUSH2 0x43E6 JUMP JUMPDEST PUSH2 0x2410 SWAP2 SWAP1 PUSH2 0x438D JUMP JUMPDEST SWAP1 POP PUSH8 0xDE0B6B3A7640000 PUSH2 0x2425 DUP15 DUP4 PUSH2 0x3968 JUMP JUMPDEST LT PUSH2 0x2432 JUMPI DUP1 SWAP3 POP PUSH2 0x2440 JUMP JUMPDEST PUSH2 0x243D PUSH1 0x1 DUP3 PUSH2 0x43A1 JUMP JUMPDEST SWAP2 POP JUMPDEST POP PUSH2 0x23E5 JUMP JUMPDEST PUSH1 0x0 PUSH1 0x8 SLOAD NUMBER GT PUSH2 0x2458 JUMPI POP PUSH1 0x6 SLOAD SWAP1 JUMP JUMPDEST PUSH1 0x0 PUSH1 0x8 SLOAD NUMBER PUSH2 0x2468 SWAP2 SWAP1 PUSH2 0x43A1 JUMP JUMPDEST SWAP1 POP PUSH1 0x0 PUSH2 0x2477 PUSH1 0x6 SLOAD PUSH2 0x3B92 JUMP JUMPDEST SWAP1 POP PUSH1 0x0 PUSH2 0x248D DUP3 PUSH8 0xDE0B6B3A7640000 PUSH2 0x43E6 JUMP JUMPDEST SWAP1 POP PUSH8 0xDE0B6B3A7640000 DUP4 DUP3 JUMPDEST DUP2 ISZERO PUSH2 0x2504 JUMPI PUSH2 0x24AC PUSH1 0x2 DUP4 PUSH2 0x44A1 JUMP JUMPDEST PUSH1 0x1 SUB PUSH2 0x24D3 JUMPI PUSH8 0xDE0B6B3A7640000 PUSH2 0x24C6 DUP3 DUP6 PUSH2 0x4360 JUMP JUMPDEST PUSH2 0x24D0 SWAP2 SWAP1 PUSH2 0x438D JUMP JUMPDEST SWAP3 POP JUMPDEST PUSH8 0xDE0B6B3A7640000 PUSH2 0x24E6 DUP3 DUP1 PUSH2 0x4360 JUMP JUMPDEST PUSH2 0x24F0 SWAP2 SWAP1 PUSH2 0x438D JUMP JUMPDEST SWAP1 POP PUSH2 0x24FD PUSH1 0x2 DUP4 PUSH2 0x438D JUMP JUMPDEST SWAP2 POP PUSH2 0x249B JUMP JUMPDEST PUSH8 0xDE0B6B3A7640000 DUP4 PUSH1 0x6 SLOAD PUSH2 0x251B SWAP2 SWAP1 PUSH2 0x4360 JUMP JUMPDEST PUSH2 0x2525 SWAP2 SWAP1 PUSH2 0x438D JUMP JUMPDEST SWAP7 POP POP POP POP POP POP POP SWAP1 JUMP JUMPDEST PUSH1 0x0 PUSH2 0x2710 PUSH1 0x18 SLOAD DUP4 PUSH2 0xDFE SWAP2 SWAP1 PUSH2 0x4360 JUMP JUMPDEST PUSH2 0x254B PUSH2 0x3301 JUMP JUMPDEST PUSH1 0x0 DUP2 GT PUSH2 0x256B JUMPI PUSH1 0x40 MLOAD PUSH3 0x461BCD PUSH1 0xE5 SHL DUP2 MSTORE PUSH1 0x4 ADD PUSH2 0x8DF SWAP1 PUSH2 0x431E JUMP JUMPDEST PUSH2 0x25A0 PUSH1 0x1 PUSH1 0x1 PUSH1 0xA0 SHL SUB PUSH32 0x0 AND CALLER ADDRESS DUP5 PUSH2 0x331D JUMP JUMPDEST CALLER PUSH1 0x0 SWAP1 DUP2 MSTORE PUSH1 0x2 PUSH1 0x20 MSTORE PUSH1 0x40 DUP2 KECCAK256 DUP1 SLOAD DUP4 SWAP3 SWAP1 PUSH2 0x25BF SWAP1 DUP5 SWAP1 PUSH2 0x43E6 JUMP JUMPDEST SWAP1 SWAP2 SSTORE POP POP PUSH1 0x40 MLOAD DUP2 DUP2 MSTORE CALLER SWAP1 PUSH32 0x880138561F4BDF4C4463046399B16F8186186AD3F21982105D09E65905FAFB9B SWAP1 PUSH1 0x20 ADD PUSH2 0x21B5 JUMP JUMPDEST PUSH1 0x0 DUP1 PUSH2 0x2601 PUSH2 0x281F JUMP JUMPDEST SWAP1 POP PUSH1 0x0 PUSH2 0x260D PUSH2 0xA95 JUMP JUMPDEST SWAP1 POP PUSH2 0x2623 PUSH2 0x2710 PUSH8 0xDE0B6B3A7640000 PUSH2 0x4360 JUMP JUMPDEST PUSH1 0x13 SLOAD PUSH2 0x1FAD SWAP1 PUSH2 0x2710 PUSH2 0x43A1 JUMP JUMPDEST PUSH2 0x263A PUSH2 0x3301 JUMP JUMPDEST PUSH1 0x0 DUP2 GT DUP1 ISZERO PUSH2 0x2659 JUMPI POP CALLER PUSH1 0x0 SWAP1 DUP2 MSTORE PUSH1 0x2 PUSH1 0x20 MSTORE PUSH1 0x40 SWAP1 KECCAK256 SLOAD DUP2 GT ISZERO JUMPDEST PUSH2 0x269D JUMPI PUSH1 0x40 MLOAD PUSH3 0x461BCD PUSH1 0xE5 SHL DUP2 MSTORE PUSH1 0x20 PUSH1 0x4 DUP3 ADD MSTORE PUSH1 0x15 PUSH1 0x24 DUP3 ADD MSTORE PUSH21 0x1410D3D3109554D1141BDBDB0E881A5B9D985B1A59 PUSH1 0x5A SHL PUSH1 0x44 DUP3 ADD MSTORE PUSH1 0x64 ADD PUSH2 0x8DF JUMP JUMPDEST CALLER PUSH1 0x0 SWAP1 DUP2 MSTORE PUSH1 0x2 PUSH1 0x20 MSTORE PUSH1 0x40 DUP2 KECCAK256 DUP1 SLOAD DUP4 SWAP3 SWAP1 PUSH2 0x26BC SWAP1 DUP5 SWAP1 PUSH2 0x43A1 JUMP JUMPDEST SWAP1 SWAP2 SSTORE POP POP CALLER PUSH1 0x0 SWAP1 DUP2 MSTORE PUSH1 0x4 PUSH1 0x20 MSTORE PUSH1 0x40 SWAP1 KECCAK256 SLOAD ISZERO PUSH2 0x2706 JUMPI PUSH8 0xDE0B6B3A7640000 PUSH2 0x26E8 CALLER PUSH2 0xD33 JUMP JUMPDEST LT ISZERO PUSH2 0x2706 JUMPI PUSH1 0x40 MLOAD PUSH3 0x461BCD PUSH1 0xE5 SHL DUP2 MSTORE PUSH1 0x4 ADD PUSH2 0x8DF SWAP1 PUSH2 0x43F9 JUMP JUMPDEST PUSH2 0x273A PUSH1 0x1 PUSH1 0x1 PUSH1 0xA0 SHL SUB PUSH32 0x0 AND CALLER DUP4 PUSH2 0x3847 JUMP JUMPDEST PUSH1 0x40 MLOAD DUP2 DUP2 MSTORE CALLER SWAP1 PUSH32 0xB1F9AFA3FB91753D83C90B2584137DE0980AEDCB24565BB6BE5A4A044394DA51 SWAP1 PUSH1 0x20 ADD PUSH2 0x21B5 JUMP JUMPDEST PUSH2 0x2774 PUSH2 0x3301 JUMP JUMPDEST PUSH1 0x0 DUP2 GT PUSH2 0x2794 JUMPI PUSH1 0x40 MLOAD PUSH3 0x461BCD PUSH1 0xE5 SHL DUP2 MSTORE PUSH1 0x4 ADD PUSH2 0x8DF SWAP1 PUSH2 0x431E JUMP JUMPDEST PUSH2 0x27C9 PUSH1 0x1 PUSH1 0x1 PUSH1 0xA0 SHL SUB PUSH32 0x0 AND CALLER ADDRESS DUP5 PUSH2 0x331D JUMP JUMPDEST CALLER PUSH1 0x0 SWAP1 DUP2 MSTORE PUSH1 0x1 PUSH1 0x20 MSTORE PUSH1 0x40 DUP2 KECCAK256 DUP1 SLOAD DUP4 SWAP3 SWAP1 PUSH2 0x27E8 SWAP1 DUP5 SWAP1 PUSH2 0x43E6 JUMP JUMPDEST SWAP1 SWAP2 SSTORE POP POP PUSH1 0x40 MLOAD DUP2 DUP2 MSTORE CALLER SWAP1 PUSH32 0x92C5AA6131247B5349EBE4C0B884354154558790641067D72925AC93B11A7DE5 SWAP1 PUSH1 0x20 ADD PUSH2 0x21B5 JUMP JUMPDEST PUSH1 0x40 MLOAD PUSH4 0x70A08231 PUSH1 0xE0 SHL DUP2 MSTORE ADDRESS PUSH1 0x4 DUP3 ADD MSTORE PUSH1 0x0 SWAP1 DUP2 SWAP1 PUSH1 0x1 PUSH1 0x1 PUSH1 0xA0 SHL SUB PUSH32 0x0 AND SWAP1 PUSH4 0x70A08231 SWAP1 PUSH1 0x24 ADD PUSH1 0x20 PUSH1 0x40 MLOAD DUP1 DUP4 SUB DUP2 DUP7 GAS STATICCALL ISZERO DUP1 ISZERO PUSH2 0x2888 JUMPI RETURNDATASIZE PUSH1 0x0 DUP1 RETURNDATACOPY RETURNDATASIZE PUSH1 0x0 REVERT JUMPDEST POP POP POP POP PUSH1 0x40 MLOAD RETURNDATASIZE PUSH1 0x1F NOT PUSH1 0x1F DUP3 ADD AND DUP3 ADD DUP1 PUSH1 0x40 MSTORE POP DUP2 ADD SWAP1 PUSH2 0x28AC SWAP2 SWAP1 PUSH2 0x43CD JUMP JUMPDEST SWAP1 POP PUSH1 0x0 PUSH8 0xDE0B6B3A7640000 PUSH2 0x28C1 PUSH2 0x2F28 JUMP JUMPDEST PUSH1 0x9 SLOAD PUSH2 0x108A SWAP2 SWAP1 PUSH2 0x4360 JUMP JUMPDEST PUSH1 0x0 PUSH8 0xDE0B6B3A7640000 PUSH2 0x28E2 DUP4 PUSH2 0xE1C JUMP JUMPDEST LT SWAP3 SWAP2 POP POP JUMP JUMPDEST PUSH1 0x1 PUSH1 0x1 PUSH1 0xA0 SHL SUB DUP2 AND PUSH1 0x0 SWAP1 DUP2 MSTORE PUSH1 0x2 PUSH1 0x20 MSTORE PUSH1 0x40 DUP2 KECCAK256 SLOAD DUP2 SWAP1 PUSH2 0x290D DUP5 PUSH2 0xDC8 JUMP JUMPDEST SWAP2 POP SWAP2 POP SWAP2 POP SWAP2 JUMP JUMPDEST PUSH2 0x291E PUSH2 0x3301 JUMP JUMPDEST PUSH1 0x0 DUP2 GT PUSH2 0x293E JUMPI PUSH1 0x40 MLOAD PUSH3 0x461BCD PUSH1 0xE5 SHL DUP2 MSTORE PUSH1 0x4 ADD PUSH2 0x8DF SWAP1 PUSH2 0x431E JUMP JUMPDEST PUSH1 0x40 MLOAD PUSH4 0x70A08231 PUSH1 0xE0 SHL DUP2 MSTORE ADDRESS PUSH1 0x4 DUP3 ADD MSTORE DUP2 SWAP1 PUSH32 0x0 PUSH1 0x1 PUSH1 0x1 PUSH1 0xA0 SHL SUB AND SWAP1 PUSH4 0x70A08231 SWAP1 PUSH1 0x24 ADD PUSH1 0x20 PUSH1 0x40 MLOAD DUP1 DUP4 SUB DUP2 DUP7 GAS STATICCALL ISZERO DUP1 ISZERO PUSH2 0x29A4 JUMPI RETURNDATASIZE PUSH1 0x0 DUP1 RETURNDATACOPY RETURNDATASIZE PUSH1 0x0 REVERT JUMPDEST POP POP POP POP PUSH1 0x40 MLOAD RETURNDATASIZE PUSH1 0x1F NOT PUSH1 0x1F DUP3 ADD AND DUP3 ADD DUP1 PUSH1 0x40 MSTORE POP DUP2 ADD SWAP1 PUSH2 0x29C8 SWAP2 SWAP1 PUSH2 0x43CD JUMP JUMPDEST LT ISZERO PUSH2 0x2A16 JUMPI PUSH1 0x40 MLOAD PUSH3 0x461BCD PUSH1 0xE5 SHL DUP2 MSTORE PUSH1 0x20 PUSH1 0x4 DUP3 ADD MSTORE PUSH1 0x1F PUSH1 0x24 DUP3 ADD MSTORE PUSH32 0x50434F4C42555344506F6F6C3A20696E73756666696369656E74204255534400 PUSH1 0x44 DUP3 ADD MSTORE PUSH1 0x64 ADD PUSH2 0x8DF JUMP JUMPDEST PUSH1 0x40 MLOAD PUSH4 0x2770A7EB PUSH1 0xE2 SHL DUP2 MSTORE PUSH1 0x1 PUSH1 0x1 PUSH1 0xA0 SHL SUB PUSH32 0x0 AND SWAP1 PUSH4 0x9DC29FAC SWAP1 PUSH2 0x2A64 SWAP1 CALLER SWAP1 DUP6 SWAP1 PUSH1 0x4 ADD PUSH2 0x43B4 JUMP JUMPDEST PUSH1 0x0 PUSH1 0x40 MLOAD DUP1 DUP4 SUB DUP2 PUSH1 0x0 DUP8 DUP1 EXTCODESIZE ISZERO DUP1 ISZERO PUSH2 0x2A7E JUMPI PUSH1 0x0 DUP1 REVERT JUMPDEST POP GAS CALL ISZERO DUP1 ISZERO PUSH2 0x2A92 JUMPI RETURNDATASIZE PUSH1 0x0 DUP1 RETURNDATACOPY RETURNDATASIZE PUSH1 0x0 REVERT JUMPDEST POP PUSH2 0x2ACC SWAP3 POP POP PUSH1 0x1 PUSH1 0x1 PUSH1 0xA0 SHL SUB PUSH32 0x0 AND SWAP1 POP CALLER DUP4 PUSH2 0x3847 JUMP JUMPDEST PUSH1 0x40 DUP1 MLOAD DUP3 DUP2 MSTORE PUSH1 0x20 DUP2 ADD DUP4 SWAP1 MSTORE CALLER SWAP2 PUSH32 0x8041F45367F7CCEFD38C06AE22C296CA3AD95CF10BE3C54C81C11F849F105F2B SWAP2 ADD PUSH2 0x21B5 JUMP JUMPDEST PUSH1 0x1 PUSH1 0x1 PUSH1 0xA0 SHL SUB DUP2 AND PUSH1 0x0 SWAP1 DUP2 MSTORE PUSH1 0x1 PUSH1 0x20 MSTORE PUSH1 0x40 DUP2 KECCAK256 SLOAD DUP2 SWAP1 PUSH2 0x290D DUP5 PUSH2 0x10D6 JUMP JUMPDEST PUSH2 0x2B30 PUSH2 0x3301 JUMP JUMPDEST PUSH1 0x0 DUP2 GT DUP1 ISZERO PUSH2 0x2B4F JUMPI POP CALLER PUSH1 0x0 SWAP1 DUP2 MSTORE PUSH1 0x1 PUSH1 0x20 MSTORE PUSH1 0x40 SWAP1 KECCAK256 SLOAD DUP2 GT ISZERO JUMPDEST PUSH2 0x2B93 JUMPI PUSH1 0x40 MLOAD PUSH3 0x461BCD PUSH1 0xE5 SHL DUP2 MSTORE PUSH1 0x20 PUSH1 0x4 DUP3 ADD MSTORE PUSH1 0x15 PUSH1 0x24 DUP3 ADD MSTORE PUSH21 0x1410D3D3109554D1141BDBDB0E881A5B9D985B1A59 PUSH1 0x5A SHL PUSH1 0x44 DUP3 ADD MSTORE PUSH1 0x64 ADD PUSH2 0x8DF JUMP JUMPDEST CALLER PUSH1 0x0 SWAP1 DUP2 MSTORE PUSH1 0x1 PUSH1 0x20 MSTORE PUSH1 0x40 DUP2 KECCAK256 DUP1 SLOAD DUP4 SWAP3 SWAP1 PUSH2 0x2BB2 SWAP1 DUP5 SWAP1 PUSH2 0x43A1 JUMP JUMPDEST SWAP1 SWAP2 SSTORE POP POP CALLER PUSH1 0x0 SWAP1 DUP2 MSTORE PUSH1 0x3 PUSH1 0x20 MSTORE PUSH1 0x40 SWAP1 KECCAK256 SLOAD ISZERO PUSH2 0x2BFC JUMPI PUSH8 0xDE0B6B3A7640000 PUSH2 0x2BDE CALLER PUSH2 0xE1C JUMP JUMPDEST LT ISZERO PUSH2 0x2BFC JUMPI PUSH1 0x40 MLOAD PUSH3 0x461BCD PUSH1 0xE5 SHL DUP2 MSTORE PUSH1 0x4 ADD PUSH2 0x8DF SWAP1 PUSH2 0x43F9 JUMP JUMPDEST PUSH2 0x2C30 PUSH1 0x1 PUSH1 0x1 PUSH1 0xA0 SHL SUB PUSH32 0x0 AND CALLER DUP4 PUSH2 0x3847 JUMP JUMPDEST PUSH1 0x40 MLOAD DUP2 DUP2 MSTORE CALLER SWAP1 PUSH32 0x5F2AC0B7CA7309144E88EDEDC8FA236C0A7019BDC8C02AB6F6DB5095752E7CDC SWAP1 PUSH1 0x20 ADD PUSH2 0x21B5 JUMP JUMPDEST PUSH1 0x0 PUSH2 0xAAD PUSH2 0x357D JUMP JUMPDEST PUSH2 0x2C74 PUSH2 0x3301 JUMP JUMPDEST PUSH2 0x2C7C PUSH2 0x3881 JUMP JUMPDEST PUSH1 0x0 DUP2 GT PUSH2 0x2C9C JUMPI PUSH1 0x40 MLOAD PUSH3 0x461BCD PUSH1 0xE5 SHL DUP2 MSTORE PUSH1 0x4 ADD PUSH2 0x8DF SWAP1 PUSH2 0x431E JUMP JUMPDEST PUSH1 0x5 SLOAD CALLER PUSH1 0x0 SWAP1 DUP2 MSTORE PUSH1 0x3 PUSH1 0x20 MSTORE PUSH1 0x40 DUP2 KECCAK256 SLOAD SWAP1 SWAP2 PUSH8 0xDE0B6B3A7640000 SWAP2 PUSH2 0x2CC5 SWAP2 SWAP1 PUSH2 0x4360 JUMP JUMPDEST PUSH2 0x2CCF SWAP2 SWAP1 PUSH2 0x438D JUMP JUMPDEST SWAP1 POP PUSH1 0x0 DUP2 DUP4 GT PUSH2 0x2CE0 JUMPI DUP3 PUSH2 0x2CE2 JUMP JUMPDEST DUP2 JUMPDEST SWAP1 POP PUSH1 0x0 PUSH1 0x5 SLOAD DUP3 PUSH8 0xDE0B6B3A7640000 PUSH2 0x2CFD SWAP2 SWAP1 PUSH2 0x4360 JUMP JUMPDEST PUSH2 0x2D07 SWAP2 SWAP1 PUSH2 0x438D JUMP JUMPDEST CALLER PUSH1 0x0 SWAP1 DUP2 MSTORE PUSH1 0x3 PUSH1 0x20 MSTORE PUSH1 0x40 DUP2 KECCAK256 DUP1 SLOAD SWAP3 SWAP4 POP DUP4 SWAP3 SWAP1 SWAP2 SWAP1 PUSH2 0x2D2B SWAP1 DUP5 SWAP1 PUSH2 0x43A1 JUMP JUMPDEST SWAP3 POP POP DUP2 SWAP1 SSTORE POP DUP1 PUSH1 0x9 PUSH1 0x0 DUP3 DUP3 SLOAD PUSH2 0x2D44 SWAP2 SWAP1 PUSH2 0x43A1 JUMP JUMPDEST SWAP1 SWAP2 SSTORE POP PUSH2 0x2D7F SWAP1 POP PUSH1 0x1 PUSH1 0x1 PUSH1 0xA0 SHL SUB PUSH32 0x0 AND CALLER ADDRESS DUP6 PUSH2 0x331D JUMP JUMPDEST PUSH1 0x40 MLOAD DUP3 DUP2 MSTORE CALLER SWAP1 PUSH32 0xE2D5D60502594D615DD5827340647C7A7A88A014E9896FDEF12F6458B60C0432 SWAP1 PUSH1 0x20 ADD JUMPDEST PUSH1 0x40 MLOAD DUP1 SWAP2 SUB SWAP1 LOG2 POP POP POP PUSH2 0xA92 PUSH1 0x1 PUSH1 0x0 DUP1 MLOAD PUSH1 0x20 PUSH2 0x45D8 DUP4 CODECOPY DUP2 MLOAD SWAP2 MSTORE SSTORE JUMP JUMPDEST PUSH2 0x2DD7 PUSH2 0x3301 JUMP JUMPDEST PUSH2 0x2DDF PUSH2 0x3760 JUMP JUMPDEST PUSH1 0x0 DUP2 GT PUSH2 0x2DFF JUMPI PUSH1 0x40 MLOAD PUSH3 0x461BCD PUSH1 0xE5 SHL DUP2 MSTORE PUSH1 0x4 ADD PUSH2 0x8DF SWAP1 PUSH2 0x431E JUMP JUMPDEST PUSH1 0x6 SLOAD CALLER PUSH1 0x0 SWAP1 DUP2 MSTORE PUSH1 0x4 PUSH1 0x20 MSTORE PUSH1 0x40 DUP2 KECCAK256 SLOAD SWAP1 SWAP2 PUSH8 0xDE0B6B3A7640000 SWAP2 PUSH2 0x2E28 SWAP2 SWAP1 PUSH2 0x4360 JUMP JUMPDEST PUSH2 0x2E32 SWAP2 SWAP1 PUSH2 0x438D JUMP JUMPDEST SWAP1 POP PUSH1 0x0 DUP2 DUP4 GT PUSH2 0x2E43 JUMPI DUP3 PUSH2 0x2E45 JUMP JUMPDEST DUP2 JUMPDEST SWAP1 POP PUSH1 0x0 PUSH1 0x6 SLOAD DUP3 PUSH8 0xDE0B6B3A7640000 PUSH2 0x2E60 SWAP2 SWAP1 PUSH2 0x4360 JUMP JUMPDEST PUSH2 0x2E6A SWAP2 SWAP1 PUSH2 0x438D JUMP JUMPDEST CALLER PUSH1 0x0 SWAP1 DUP2 MSTORE PUSH1 0x4 PUSH1 0x20 MSTORE PUSH1 0x40 DUP2 KECCAK256 DUP1 SLOAD SWAP3 SWAP4 POP DUP4 SWAP3 SWAP1 SWAP2 SWAP1 PUSH2 0x2E8E SWAP1 DUP5 SWAP1 PUSH2 0x43A1 JUMP JUMPDEST SWAP3 POP POP DUP2 SWAP1 SSTORE POP DUP1 PUSH1 0xA PUSH1 0x0 DUP3 DUP3 SLOAD PUSH2 0x2EA7 SWAP2 SWAP1 PUSH2 0x43A1 JUMP JUMPDEST SWAP1 SWAP2 SSTORE POP PUSH2 0x2EE2 SWAP1 POP PUSH1 0x1 PUSH1 0x1 PUSH1 0xA0 SHL SUB PUSH32 0x0 AND CALLER ADDRESS DUP6 PUSH2 0x331D JUMP JUMPDEST PUSH1 0x40 MLOAD DUP3 DUP2 MSTORE CALLER SWAP1 PUSH32 0xD79A2BC9877030756CD908ACBB64634D527091BE3EDEED80CDEA7ED4CF40BE05 SWAP1 PUSH1 0x20 ADD PUSH2 0x2DAD JUMP JUMPDEST PUSH1 0x0 PUSH8 0xDE0B6B3A7640000 PUSH2 0x28E2 DUP4 PUSH2 0xD33 JUMP JUMPDEST PUSH1 0x0 PUSH1 0x7 SLOAD NUMBER GT PUSH2 0x2F3A JUMPI POP PUSH1 0x5 SLOAD SWAP1 JUMP JUMPDEST PUSH1 0x0 PUSH1 0x7 SLOAD NUMBER PUSH2 0x2F4A SWAP2 SWAP1 PUSH2 0x43A1 JUMP JUMPDEST SWAP1 POP PUSH1 0x0 PUSH2 0x2F59 PUSH1 0x5 SLOAD PUSH2 0x3D39 JUMP JUMPDEST SWAP1 POP PUSH1 0x0 PUSH2 0x2F6F DUP3 PUSH8 0xDE0B6B3A7640000 PUSH2 0x43E6 JUMP JUMPDEST SWAP1 POP PUSH8 0xDE0B6B3A7640000 DUP4 DUP3 JUMPDEST DUP2 ISZERO PUSH2 0x2FE6 JUMPI PUSH2 0x2F8E PUSH1 0x2 DUP4 PUSH2 0x44A1 JUMP JUMPDEST PUSH1 0x1 SUB PUSH2 0x2FB5 JUMPI PUSH8 0xDE0B6B3A7640000 PUSH2 0x2FA8 DUP3 DUP6 PUSH2 0x4360 JUMP JUMPDEST PUSH2 0x2FB2 SWAP2 SWAP1 PUSH2 0x438D JUMP JUMPDEST SWAP3 POP JUMPDEST PUSH8 0xDE0B6B3A7640000 PUSH2 0x2FC8 DUP3 DUP1 PUSH2 0x4360 JUMP JUMPDEST PUSH2 0x2FD2 SWAP2 SWAP1 PUSH2 0x438D JUMP JUMPDEST SWAP1 POP PUSH2 0x2FDF PUSH1 0x2 DUP4 PUSH2 0x438D JUMP JUMPDEST SWAP2 POP PUSH2 0x2F7D JUMP JUMPDEST PUSH8 0xDE0B6B3A7640000 DUP4 PUSH1 0x5 SLOAD PUSH2 0x251B SWAP2 SWAP1 PUSH2 0x4360 JUMP JUMPDEST PUSH2 0x3005 PUSH2 0x3301 JUMP JUMPDEST PUSH2 0x300D PUSH2 0x3881 JUMP JUMPDEST PUSH8 0xDE0B6B3A7640000 PUSH2 0x301F DUP3 PUSH2 0xE1C JUMP JUMPDEST LT PUSH2 0x306C JUMPI PUSH1 0x40 MLOAD PUSH3 0x461BCD PUSH1 0xE5 SHL DUP2 MSTORE PUSH1 0x20 PUSH1 0x4 DUP3 ADD MSTORE PUSH1 0x1E PUSH1 0x24 DUP3 ADD MSTORE PUSH32 0x50434F4C42555344506F6F6C3A206E6F74206C6971756964617461626C650000 PUSH1 0x44 DUP3 ADD MSTORE PUSH1 0x64 ADD PUSH2 0x8DF JUMP JUMPDEST PUSH1 0x5 SLOAD PUSH1 0x1 PUSH1 0x1 PUSH1 0xA0 SHL SUB DUP3 AND PUSH1 0x0 SWAP1 DUP2 MSTORE PUSH1 0x3 PUSH1 0x20 MSTORE PUSH1 0x40 DUP2 KECCAK256 SLOAD SWAP1 SWAP2 PUSH8 0xDE0B6B3A7640000 SWAP2 PUSH2 0x309E SWAP2 SWAP1 PUSH2 0x4360 JUMP JUMPDEST PUSH2 0x30A8 SWAP2 SWAP1 PUSH2 0x438D JUMP JUMPDEST SWAP1 POP PUSH1 0x0 DUP2 GT DUP1 ISZERO PUSH2 0x30D1 JUMPI POP PUSH1 0x1 PUSH1 0x1 PUSH1 0xA0 SHL SUB DUP3 AND PUSH1 0x0 SWAP1 DUP2 MSTORE PUSH1 0x1 PUSH1 0x20 MSTORE PUSH1 0x40 SWAP1 KECCAK256 SLOAD ISZERO ISZERO JUMPDEST PUSH2 0x3114 JUMPI PUSH1 0x40 MLOAD PUSH3 0x461BCD PUSH1 0xE5 SHL DUP2 MSTORE PUSH1 0x20 PUSH1 0x4 DUP3 ADD MSTORE PUSH1 0x14 PUSH1 0x24 DUP3 ADD MSTORE PUSH20 0x50434F4C42555344506F6F6C3A206E6F20706F73 PUSH1 0x60 SHL PUSH1 0x44 DUP3 ADD MSTORE PUSH1 0x64 ADD PUSH2 0x8DF JUMP JUMPDEST PUSH1 0x5 SLOAD PUSH1 0x0 SWAP1 PUSH2 0x312C DUP4 PUSH8 0xDE0B6B3A7640000 PUSH2 0x4360 JUMP JUMPDEST PUSH2 0x3136 SWAP2 SWAP1 PUSH2 0x438D JUMP JUMPDEST PUSH1 0x1 PUSH1 0x1 PUSH1 0xA0 SHL SUB DUP5 AND PUSH1 0x0 SWAP1 DUP2 MSTORE PUSH1 0x3 PUSH1 0x20 MSTORE PUSH1 0x40 DUP2 KECCAK256 DUP2 SWAP1 SSTORE PUSH1 0x9 DUP1 SLOAD SWAP3 SWAP4 POP DUP4 SWAP3 SWAP1 SWAP2 SWAP1 PUSH2 0x3168 SWAP1 DUP5 SWAP1 PUSH2 0x43A1 JUMP JUMPDEST SWAP1 SWAP2 SSTORE POP POP PUSH1 0x1 PUSH1 0x1 PUSH1 0xA0 SHL SUB DUP4 AND PUSH1 0x0 SWAP1 DUP2 MSTORE PUSH1 0x1 PUSH1 0x20 MSTORE PUSH1 0x40 DUP2 KECCAK256 DUP1 SLOAD SWAP1 DUP3 SWAP1 SSTORE PUSH1 0x17 SLOAD SWAP1 SWAP2 SWAP1 PUSH2 0x2710 SWAP1 PUSH2 0x319F SWAP1 DUP3 PUSH2 0x43E6 JUMP JUMPDEST PUSH2 0x31A9 SWAP1 DUP5 PUSH2 0x4360 JUMP JUMPDEST PUSH2 0x31B3 SWAP2 SWAP1 PUSH2 0x438D JUMP JUMPDEST SWAP1 POP DUP2 DUP2 GT ISZERO PUSH2 0x31C0 JUMPI POP DUP1 JUMPDEST PUSH1 0x0 PUSH2 0x31CC DUP3 DUP5 PUSH2 0x43A1 JUMP JUMPDEST SWAP1 POP PUSH2 0x3203 PUSH1 0x1 PUSH1 0x1 PUSH1 0xA0 SHL SUB PUSH32 0x0 AND CALLER ADDRESS DUP9 PUSH2 0x331D JUMP JUMPDEST DUP1 ISZERO PUSH2 0x328A JUMPI PUSH1 0x40 MLOAD PUSH4 0x2770A7EB PUSH1 0xE2 SHL DUP2 MSTORE PUSH1 0x1 PUSH1 0x1 PUSH1 0xA0 SHL SUB PUSH32 0x0 AND SWAP1 PUSH4 0x9DC29FAC SWAP1 PUSH2 0x3257 SWAP1 ADDRESS SWAP1 DUP6 SWAP1 PUSH1 0x4 ADD PUSH2 0x43B4 JUMP JUMPDEST PUSH1 0x0 PUSH1 0x40 MLOAD DUP1 DUP4 SUB DUP2 PUSH1 0x0 DUP8 DUP1 EXTCODESIZE ISZERO DUP1 ISZERO PUSH2 0x3271 JUMPI PUSH1 0x0 DUP1 REVERT JUMPDEST POP GAS CALL ISZERO DUP1 ISZERO PUSH2 0x3285 JUMPI RETURNDATASIZE PUSH1 0x0 DUP1 RETURNDATACOPY RETURNDATASIZE PUSH1 0x0 REVERT JUMPDEST POP POP POP POP JUMPDEST PUSH2 0x32BE PUSH1 0x1 PUSH1 0x1 PUSH1 0xA0 SHL SUB PUSH32 0x0 AND CALLER DUP5 PUSH2 0x3847 JUMP JUMPDEST PUSH1 0x40 DUP1 MLOAD DUP7 DUP2 MSTORE PUSH1 0x20 DUP2 ADD DUP5 SWAP1 MSTORE PUSH1 0x1 PUSH1 0x1 PUSH1 0xA0 SHL SUB DUP9 AND SWAP2 CALLER SWAP2 PUSH32 0x1DF8781BABB2CE0B72D80A0D4EB75715B3F84D14598B945EFFA23C678F239A53 SWAP2 ADD PUSH2 0x1F4D JUMP JUMPDEST PUSH2 0x3309 PUSH2 0x3EB5 JUMP JUMPDEST PUSH1 0x2 PUSH1 0x0 DUP1 MLOAD PUSH1 0x20 PUSH2 0x45D8 DUP4 CODECOPY DUP2 MLOAD SWAP2 MSTORE SSTORE JUMP JUMPDEST PUSH2 0x332B DUP5 DUP5 DUP5 DUP5 PUSH1 0x1 PUSH2 0x3EE7 JUMP JUMPDEST PUSH2 0x3353 JUMPI PUSH1 0x40 MLOAD PUSH4 0x5274AFE7 PUSH1 0xE0 SHL DUP2 MSTORE PUSH1 0x1 PUSH1 0x1 PUSH1 0xA0 SHL SUB DUP6 AND PUSH1 0x4 DUP3 ADD MSTORE PUSH1 0x24 ADD PUSH2 0x8DF JUMP JUMPDEST POP POP POP POP JUMP JUMPDEST PUSH1 0x1 PUSH1 0x1 PUSH1 0xA0 SHL SUB DUP3 AND PUSH1 0x0 SWAP1 DUP2 MSTORE PUSH1 0x1 PUSH1 0x20 MSTORE PUSH1 0x40 DUP2 KECCAK256 SLOAD DUP1 DUP3 SUB PUSH2 0x3383 JUMPI PUSH1 0x0 SWAP2 POP POP PUSH2 0xE08 JUMP JUMPDEST PUSH1 0x40 MLOAD PUSH4 0x70A08231 PUSH1 0xE0 SHL DUP2 MSTORE ADDRESS PUSH1 0x4 DUP3 ADD MSTORE PUSH1 0x0 SWAP1 PUSH32 0x0 PUSH1 0x1 PUSH1 0x1 PUSH1 0xA0 SHL SUB AND SWAP1 PUSH4 0x70A08231 SWAP1 PUSH1 0x24 ADD PUSH1 0x20 PUSH1 0x40 MLOAD DUP1 DUP4 SUB DUP2 DUP7 GAS STATICCALL ISZERO DUP1 ISZERO PUSH2 0x33EA JUMPI RETURNDATASIZE PUSH1 0x0 DUP1 RETURNDATACOPY RETURNDATASIZE PUSH1 0x0 REVERT JUMPDEST POP POP POP POP PUSH1 0x40 MLOAD RETURNDATASIZE PUSH1 0x1F NOT PUSH1 0x1F DUP3 ADD AND DUP3 ADD DUP1 PUSH1 0x40 MSTORE POP DUP2 ADD SWAP1 PUSH2 0x340E SWAP2 SWAP1 PUSH2 0x43CD JUMP JUMPDEST PUSH1 0x40 MLOAD PUSH4 0x70A08231 PUSH1 0xE0 SHL DUP2 MSTORE ADDRESS PUSH1 0x4 DUP3 ADD MSTORE SWAP1 SWAP2 POP PUSH1 0x0 SWAP1 PUSH1 0x1 PUSH1 0x1 PUSH1 0xA0 SHL SUB PUSH32 0x0 AND SWAP1 PUSH4 0x70A08231 SWAP1 PUSH1 0x24 ADD PUSH1 0x20 PUSH1 0x40 MLOAD DUP1 DUP4 SUB DUP2 DUP7 GAS STATICCALL ISZERO DUP1 ISZERO PUSH2 0x3478 JUMPI RETURNDATASIZE PUSH1 0x0 DUP1 RETURNDATACOPY RETURNDATASIZE PUSH1 0x0 REVERT JUMPDEST POP POP POP POP PUSH1 0x40 MLOAD RETURNDATASIZE PUSH1 0x1F NOT PUSH1 0x1F DUP3 ADD AND DUP3 ADD DUP1 PUSH1 0x40 MSTORE POP DUP2 ADD SWAP1 PUSH2 0x349C SWAP2 SWAP1 PUSH2 0x43CD JUMP JUMPDEST SWAP1 POP DUP1 ISZERO DUP1 PUSH2 0x34AA JUMPI POP DUP2 DUP6 GT JUMPDEST ISZERO PUSH2 0x34BB JUMPI PUSH1 0x0 SWAP4 POP POP POP POP PUSH2 0xE08 JUMP JUMPDEST PUSH1 0x0 DUP6 PUSH2 0x34C7 DUP9 PUSH2 0x10D6 JUMP JUMPDEST PUSH2 0x34D1 SWAP2 SWAP1 PUSH2 0x43E6 JUMP JUMPDEST SWAP1 POP DUP1 PUSH1 0x0 SUB PUSH2 0x34E9 JUMPI PUSH1 0x0 NOT SWAP5 POP POP POP POP POP PUSH2 0xE08 JUMP JUMPDEST PUSH1 0x0 PUSH2 0x34F5 DUP8 DUP6 PUSH2 0x43A1 JUMP JUMPDEST SWAP1 POP PUSH1 0x0 PUSH2 0x3503 DUP3 DUP6 PUSH2 0x3F59 JUMP JUMPDEST PUSH2 0x350D SWAP1 DUP8 PUSH2 0x4360 JUMP JUMPDEST SWAP1 POP PUSH1 0x0 PUSH2 0x351F PUSH4 0x5F5E100 DUP6 PUSH2 0x4360 JUMP JUMPDEST SWAP1 POP DUP1 PUSH1 0x0 SUB PUSH2 0x353A JUMPI PUSH1 0x0 NOT SWAP8 POP POP POP POP POP POP POP POP PUSH2 0xE08 JUMP JUMPDEST PUSH2 0x3546 PUSH2 0x2710 DUP3 PUSH2 0x4360 JUMP JUMPDEST PUSH1 0x15 SLOAD PUSH2 0x3553 SWAP1 DUP5 PUSH2 0x4360 JUMP JUMPDEST PUSH2 0x3565 SWAP1 PUSH8 0xDE0B6B3A7640000 PUSH2 0x4360 JUMP JUMPDEST PUSH2 0x356F SWAP2 SWAP1 PUSH2 0x438D JUMP JUMPDEST SWAP11 SWAP10 POP POP POP POP POP POP POP POP POP POP JUMP JUMPDEST PUSH1 0x0 DUP1 PUSH1 0x0 PUSH2 0x358A PUSH2 0x40AF JUMP JUMPDEST SWAP2 POP SWAP2 POP DUP2 PUSH1 0x0 SUB PUSH2 0x359F JUMPI PUSH1 0x0 SWAP3 POP POP POP SWAP1 JUMP JUMPDEST PUSH1 0x0 PUSH32 0x0 PUSH1 0x1 PUSH1 0x1 PUSH1 0xA0 SHL SUB AND PUSH4 0x313CE567 PUSH1 0x40 MLOAD DUP2 PUSH4 0xFFFFFFFF AND PUSH1 0xE0 SHL DUP2 MSTORE PUSH1 0x4 ADD PUSH1 0x20 PUSH1 0x40 MLOAD DUP1 DUP4 SUB DUP2 DUP7 GAS STATICCALL ISZERO DUP1 ISZERO PUSH2 0x35FF JUMPI RETURNDATASIZE PUSH1 0x0 DUP1 RETURNDATACOPY RETURNDATASIZE PUSH1 0x0 REVERT JUMPDEST POP POP POP POP PUSH1 0x40 MLOAD RETURNDATASIZE PUSH1 0x1F NOT PUSH1 0x1F DUP3 ADD AND DUP3 ADD DUP1 PUSH1 0x40 MSTORE POP DUP2 ADD SWAP1 PUSH2 0x3623 SWAP2 SWAP1 PUSH2 0x44B5 JUMP JUMPDEST SWAP1 POP PUSH1 0x0 PUSH32 0x0 PUSH1 0x1 PUSH1 0x1 PUSH1 0xA0 SHL SUB AND PUSH4 0x313CE567 PUSH1 0x40 MLOAD DUP2 PUSH4 0xFFFFFFFF AND PUSH1 0xE0 SHL DUP2 MSTORE PUSH1 0x4 ADD PUSH1 0x20 PUSH1 0x40 MLOAD DUP1 DUP4 SUB DUP2 DUP7 GAS STATICCALL ISZERO DUP1 ISZERO PUSH2 0x3685 JUMPI RETURNDATASIZE PUSH1 0x0 DUP1 RETURNDATACOPY RETURNDATASIZE PUSH1 0x0 REVERT JUMPDEST POP POP POP POP PUSH1 0x40 MLOAD RETURNDATASIZE PUSH1 0x1F NOT PUSH1 0x1F DUP3 ADD AND DUP3 ADD DUP1 PUSH1 0x40 MSTORE POP DUP2 ADD SWAP1 PUSH2 0x36A9 SWAP2 SWAP1 PUSH2 0x44B5 JUMP JUMPDEST SWAP1 POP PUSH2 0x36B6 DUP2 PUSH1 0xA PUSH2 0x45BC JUMP JUMPDEST PUSH2 0x36C0 SWAP1 DUP6 PUSH2 0x4360 JUMP JUMPDEST PUSH2 0x36CE PUSH1 0xFF DUP5 AND PUSH1 0x8 PUSH2 0x43E6 JUMP JUMPDEST PUSH2 0x36D9 SWAP1 PUSH1 0xA PUSH2 0x45CB JUMP JUMPDEST PUSH2 0x36E3 SWAP1 DUP6 PUSH2 0x4360 JUMP JUMPDEST PUSH2 0x36ED SWAP2 SWAP1 PUSH2 0x438D JUMP JUMPDEST SWAP5 POP POP POP POP POP SWAP1 JUMP JUMPDEST PUSH1 0x1 PUSH1 0x1 PUSH1 0xA0 SHL SUB DUP2 AND PUSH1 0x0 SWAP1 DUP2 MSTORE PUSH1 0x2 PUSH1 0x20 MSTORE PUSH1 0x40 DUP2 KECCAK256 SLOAD PUSH2 0xE08 SWAP1 PUSH4 0x5F5E100 SWAP1 PUSH2 0x4360 JUMP JUMPDEST PUSH1 0x1 PUSH1 0x1 PUSH1 0xA0 SHL SUB DUP2 AND PUSH1 0x0 SWAP1 DUP2 MSTORE PUSH1 0x1 PUSH1 0x20 MSTORE PUSH1 0x40 DUP2 KECCAK256 SLOAD DUP1 DUP3 SUB PUSH2 0x3747 JUMPI POP PUSH1 0x0 SWAP3 SWAP2 POP POP JUMP JUMPDEST PUSH2 0x374F PUSH2 0x357D JUMP JUMPDEST PUSH2 0x3759 SWAP1 DUP3 PUSH2 0x4360 JUMP JUMPDEST SWAP4 SWAP3 POP POP POP JUMP JUMPDEST PUSH1 0x8 SLOAD NUMBER GT PUSH2 0x376B JUMPI JUMP JUMPDEST PUSH1 0x0 PUSH1 0x8 SLOAD NUMBER PUSH2 0x377B SWAP2 SWAP1 PUSH2 0x43A1 JUMP JUMPDEST SWAP1 POP PUSH1 0x0 PUSH2 0x378A PUSH1 0x6 SLOAD PUSH2 0x3B92 JUMP JUMPDEST SWAP1 POP PUSH1 0x0 PUSH2 0x37A0 DUP3 PUSH8 0xDE0B6B3A7640000 PUSH2 0x43E6 JUMP JUMPDEST SWAP1 POP PUSH8 0xDE0B6B3A7640000 DUP4 DUP3 JUMPDEST DUP2 ISZERO PUSH2 0x3817 JUMPI PUSH2 0x37BF PUSH1 0x2 DUP4 PUSH2 0x44A1 JUMP JUMPDEST PUSH1 0x1 SUB PUSH2 0x37E6 JUMPI PUSH8 0xDE0B6B3A7640000 PUSH2 0x37D9 DUP3 DUP6 PUSH2 0x4360 JUMP JUMPDEST PUSH2 0x37E3 SWAP2 SWAP1 PUSH2 0x438D JUMP JUMPDEST SWAP3 POP JUMPDEST PUSH8 0xDE0B6B3A7640000 PUSH2 0x37F9 DUP3 DUP1 PUSH2 0x4360 JUMP JUMPDEST PUSH2 0x3803 SWAP2 SWAP1 PUSH2 0x438D JUMP JUMPDEST SWAP1 POP PUSH2 0x3810 PUSH1 0x2 DUP4 PUSH2 0x438D JUMP JUMPDEST SWAP2 POP PUSH2 0x37AE JUMP JUMPDEST PUSH8 0xDE0B6B3A7640000 DUP4 PUSH1 0x6 SLOAD PUSH2 0x382E SWAP2 SWAP1 PUSH2 0x4360 JUMP JUMPDEST PUSH2 0x3838 SWAP2 SWAP1 PUSH2 0x438D JUMP JUMPDEST PUSH1 0x6 SSTORE POP POP NUMBER PUSH1 0x8 SSTORE POP POP POP POP JUMP JUMPDEST PUSH2 0x3854 DUP4 DUP4 DUP4 PUSH1 0x1 PUSH2 0x41CD JUMP JUMPDEST PUSH2 0x387C JUMPI PUSH1 0x40 MLOAD PUSH4 0x5274AFE7 PUSH1 0xE0 SHL DUP2 MSTORE PUSH1 0x1 PUSH1 0x1 PUSH1 0xA0 SHL SUB DUP5 AND PUSH1 0x4 DUP3 ADD MSTORE PUSH1 0x24 ADD PUSH2 0x8DF JUMP JUMPDEST POP POP POP JUMP JUMPDEST PUSH1 0x7 SLOAD NUMBER GT PUSH2 0x388C JUMPI JUMP JUMPDEST PUSH1 0x0 PUSH1 0x7 SLOAD NUMBER PUSH2 0x389C SWAP2 SWAP1 PUSH2 0x43A1 JUMP JUMPDEST SWAP1 POP PUSH1 0x0 PUSH2 0x38AB PUSH1 0x5 SLOAD PUSH2 0x3D39 JUMP JUMPDEST SWAP1 POP PUSH1 0x0 PUSH2 0x38C1 DUP3 PUSH8 0xDE0B6B3A7640000 PUSH2 0x43E6 JUMP JUMPDEST SWAP1 POP PUSH8 0xDE0B6B3A7640000 DUP4 DUP3 JUMPDEST DUP2 ISZERO PUSH2 0x3938 JUMPI PUSH2 0x38E0 PUSH1 0x2 DUP4 PUSH2 0x44A1 JUMP JUMPDEST PUSH1 0x1 SUB PUSH2 0x3907 JUMPI PUSH8 0xDE0B6B3A7640000 PUSH2 0x38FA DUP3 DUP6 PUSH2 0x4360 JUMP JUMPDEST PUSH2 0x3904 SWAP2 SWAP1 PUSH2 0x438D JUMP JUMPDEST SWAP3 POP JUMPDEST PUSH8 0xDE0B6B3A7640000 PUSH2 0x391A DUP3 DUP1 PUSH2 0x4360 JUMP JUMPDEST PUSH2 0x3924 SWAP2 SWAP1 PUSH2 0x438D JUMP JUMPDEST SWAP1 POP PUSH2 0x3931 PUSH1 0x2 DUP4 PUSH2 0x438D JUMP JUMPDEST SWAP2 POP PUSH2 0x38CF JUMP JUMPDEST PUSH8 0xDE0B6B3A7640000 DUP4 PUSH1 0x5 SLOAD PUSH2 0x394F SWAP2 SWAP1 PUSH2 0x4360 JUMP JUMPDEST PUSH2 0x3959 SWAP2 SWAP1 PUSH2 0x438D JUMP JUMPDEST PUSH1 0x5 SSTORE POP POP NUMBER PUSH1 0x7 SSTORE POP POP POP POP JUMP JUMPDEST PUSH1 0x1 PUSH1 0x1 PUSH1 0xA0 SHL SUB DUP3 AND PUSH1 0x0 SWAP1 DUP2 MSTORE PUSH1 0x2 PUSH1 0x20 MSTORE PUSH1 0x40 DUP2 KECCAK256 SLOAD DUP1 DUP3 SUB PUSH2 0x3992 JUMPI PUSH1 0x0 SWAP2 POP POP PUSH2 0xE08 JUMP JUMPDEST PUSH1 0x40 MLOAD PUSH4 0x70A08231 PUSH1 0xE0 SHL DUP2 MSTORE ADDRESS PUSH1 0x4 DUP3 ADD MSTORE PUSH1 0x0 SWAP1 PUSH32 0x0 PUSH1 0x1 PUSH1 0x1 PUSH1 0xA0 SHL SUB AND SWAP1 PUSH4 0x70A08231 SWAP1 PUSH1 0x24 ADD PUSH1 0x20 PUSH1 0x40 MLOAD DUP1 DUP4 SUB DUP2 DUP7 GAS STATICCALL ISZERO DUP1 ISZERO PUSH2 0x39F9 JUMPI RETURNDATASIZE PUSH1 0x0 DUP1 RETURNDATACOPY RETURNDATASIZE PUSH1 0x0 REVERT JUMPDEST POP POP POP POP PUSH1 0x40 MLOAD RETURNDATASIZE PUSH1 0x1F NOT PUSH1 0x1F DUP3 ADD AND DUP3 ADD DUP1 PUSH1 0x40 MSTORE POP DUP2 ADD SWAP1 PUSH2 0x3A1D SWAP2 SWAP1 PUSH2 0x43CD JUMP JUMPDEST PUSH1 0x40 MLOAD PUSH4 0x70A08231 PUSH1 0xE0 SHL DUP2 MSTORE ADDRESS PUSH1 0x4 DUP3 ADD MSTORE SWAP1 SWAP2 POP PUSH1 0x0 SWAP1 PUSH1 0x1 PUSH1 0x1 PUSH1 0xA0 SHL SUB PUSH32 0x0 AND SWAP1 PUSH4 0x70A08231 SWAP1 PUSH1 0x24 ADD PUSH1 0x20 PUSH1 0x40 MLOAD DUP1 DUP4 SUB DUP2 DUP7 GAS STATICCALL ISZERO DUP1 ISZERO PUSH2 0x3A87 JUMPI RETURNDATASIZE PUSH1 0x0 DUP1 RETURNDATACOPY RETURNDATASIZE PUSH1 0x0 REVERT JUMPDEST POP POP POP POP PUSH1 0x40 MLOAD RETURNDATASIZE PUSH1 0x1F NOT PUSH1 0x1F DUP3 ADD AND DUP3 ADD DUP1 PUSH1 0x40 MSTORE POP DUP2 ADD SWAP1 PUSH2 0x3AAB SWAP2 SWAP1 PUSH2 0x43CD JUMP JUMPDEST SWAP1 POP DUP2 ISZERO DUP1 PUSH2 0x3AB9 JUMPI POP DUP1 DUP6 GT JUMPDEST ISZERO PUSH2 0x3ACA JUMPI PUSH1 0x0 SWAP4 POP POP POP POP PUSH2 0xE08 JUMP JUMPDEST PUSH1 0x0 DUP6 PUSH2 0x3AD6 DUP9 PUSH2 0xDC8 JUMP JUMPDEST PUSH2 0x3AE0 SWAP2 SWAP1 PUSH2 0x43E6 JUMP JUMPDEST SWAP1 POP DUP1 PUSH1 0x0 SUB PUSH2 0x3AF8 JUMPI PUSH1 0x0 NOT SWAP5 POP POP POP POP POP PUSH2 0xE08 JUMP JUMPDEST PUSH1 0x0 PUSH2 0x3B04 DUP8 DUP5 PUSH2 0x43A1 JUMP JUMPDEST SWAP1 POP PUSH1 0x0 PUSH2 0x3B12 DUP6 DUP4 PUSH2 0x3F59 JUMP JUMPDEST SWAP1 POP PUSH1 0x0 PUSH2 0x3B24 PUSH4 0x5F5E100 DUP9 PUSH2 0x4360 JUMP JUMPDEST SWAP1 POP PUSH1 0x0 PUSH2 0x3B32 DUP4 DUP7 PUSH2 0x4360 JUMP JUMPDEST SWAP1 POP DUP1 PUSH1 0x0 SUB PUSH2 0x3B4E JUMPI PUSH1 0x0 NOT SWAP9 POP POP POP POP POP POP POP POP POP PUSH2 0xE08 JUMP JUMPDEST PUSH2 0x3B5A PUSH2 0x2710 DUP3 PUSH2 0x4360 JUMP JUMPDEST PUSH1 0x16 SLOAD PUSH2 0x3B67 SWAP1 DUP5 PUSH2 0x4360 JUMP JUMPDEST PUSH2 0x3B79 SWAP1 PUSH8 0xDE0B6B3A7640000 PUSH2 0x4360 JUMP JUMPDEST PUSH2 0x3B83 SWAP2 SWAP1 PUSH2 0x438D JUMP JUMPDEST SWAP12 SWAP11 POP POP POP POP POP POP POP POP POP POP POP JUMP JUMPDEST PUSH1 0x40 MLOAD PUSH4 0x70A08231 PUSH1 0xE0 SHL DUP2 MSTORE ADDRESS PUSH1 0x4 DUP3 ADD MSTORE PUSH1 0x0 SWAP1 DUP2 SWAP1 PUSH1 0x1 PUSH1 0x1 PUSH1 0xA0 SHL SUB PUSH32 0x0 AND SWAP1 PUSH4 0x70A08231 SWAP1 PUSH1 0x24 ADD PUSH1 0x20 PUSH1 0x40 MLOAD DUP1 DUP4 SUB DUP2 DUP7 GAS STATICCALL ISZERO DUP1 ISZERO PUSH2 0x3BFB JUMPI RETURNDATASIZE PUSH1 0x0 DUP1 RETURNDATACOPY RETURNDATASIZE PUSH1 0x0 REVERT JUMPDEST POP POP POP POP PUSH1 0x40 MLOAD RETURNDATASIZE PUSH1 0x1F NOT PUSH1 0x1F DUP3 ADD AND DUP3 ADD DUP1 PUSH1 0x40 MSTORE POP DUP2 ADD SWAP1 PUSH2 0x3C1F SWAP2 SWAP1 PUSH2 0x43CD JUMP JUMPDEST SWAP1 POP PUSH1 0x0 PUSH8 0xDE0B6B3A7640000 DUP5 PUSH1 0xA SLOAD PUSH2 0x3C3A SWAP2 SWAP1 PUSH2 0x4360 JUMP JUMPDEST PUSH2 0x3C44 SWAP2 SWAP1 PUSH2 0x438D JUMP JUMPDEST SWAP1 POP PUSH1 0x0 PUSH2 0x3C52 DUP3 DUP5 PUSH2 0x43E6 JUMP JUMPDEST SWAP1 POP PUSH1 0x0 DUP2 ISZERO PUSH2 0x3C7E JUMPI DUP2 PUSH2 0x3C6F DUP5 PUSH8 0xDE0B6B3A7640000 PUSH2 0x4360 JUMP JUMPDEST PUSH2 0x3C79 SWAP2 SWAP1 PUSH2 0x438D JUMP JUMPDEST PUSH2 0x3C81 JUMP JUMPDEST PUSH1 0x0 JUMPDEST PUSH1 0x12 SLOAD SWAP1 SWAP2 POP DUP1 DUP3 GT PUSH2 0x3CC7 JUMPI PUSH8 0xDE0B6B3A7640000 DUP3 PUSH1 0x10 SLOAD PUSH2 0x3CA5 SWAP2 SWAP1 PUSH2 0x4360 JUMP JUMPDEST PUSH2 0x3CAF SWAP2 SWAP1 PUSH2 0x438D JUMP JUMPDEST PUSH1 0xF SLOAD PUSH2 0x3CBC SWAP2 SWAP1 PUSH2 0x43E6 JUMP JUMPDEST SWAP8 SWAP7 POP POP POP POP POP POP POP JUMP JUMPDEST PUSH1 0x0 PUSH8 0xDE0B6B3A7640000 DUP3 PUSH1 0x10 SLOAD PUSH2 0x3CE0 SWAP2 SWAP1 PUSH2 0x4360 JUMP JUMPDEST PUSH2 0x3CEA SWAP2 SWAP1 PUSH2 0x438D JUMP JUMPDEST PUSH1 0xF SLOAD PUSH2 0x3CF7 SWAP2 SWAP1 PUSH2 0x43E6 JUMP JUMPDEST SWAP1 POP PUSH8 0xDE0B6B3A7640000 PUSH2 0x3D0C DUP4 DUP6 PUSH2 0x43A1 JUMP JUMPDEST PUSH1 0x11 SLOAD PUSH2 0x3D19 SWAP2 SWAP1 PUSH2 0x4360 JUMP JUMPDEST PUSH2 0x3D23 SWAP2 SWAP1 PUSH2 0x438D JUMP JUMPDEST PUSH2 0x3D2D SWAP1 DUP3 PUSH2 0x43E6 JUMP JUMPDEST SWAP9 SWAP8 POP POP POP POP POP POP POP POP JUMP JUMPDEST PUSH1 0x40 MLOAD PUSH4 0x70A08231 PUSH1 0xE0 SHL DUP2 MSTORE ADDRESS PUSH1 0x4 DUP3 ADD MSTORE PUSH1 0x0 SWAP1 DUP2 SWAP1 PUSH1 0x1 PUSH1 0x1 PUSH1 0xA0 SHL SUB PUSH32 0x0 AND SWAP1 PUSH4 0x70A08231 SWAP1 PUSH1 0x24 ADD PUSH1 0x20 PUSH1 0x40 MLOAD DUP1 DUP4 SUB DUP2 DUP7 GAS STATICCALL ISZERO DUP1 ISZERO PUSH2 0x3DA2 JUMPI RETURNDATASIZE PUSH1 0x0 DUP1 RETURNDATACOPY RETURNDATASIZE PUSH1 0x0 REVERT JUMPDEST POP POP POP POP PUSH1 0x40 MLOAD RETURNDATASIZE PUSH1 0x1F NOT PUSH1 0x1F DUP3 ADD AND DUP3 ADD DUP1 PUSH1 0x40 MSTORE POP DUP2 ADD SWAP1 PUSH2 0x3DC6 SWAP2 SWAP1 PUSH2 0x43CD JUMP JUMPDEST SWAP1 POP PUSH1 0x0 PUSH8 0xDE0B6B3A7640000 DUP5 PUSH1 0x9 SLOAD PUSH2 0x3DE1 SWAP2 SWAP1 PUSH2 0x4360 JUMP JUMPDEST PUSH2 0x3DEB SWAP2 SWAP1 PUSH2 0x438D JUMP JUMPDEST SWAP1 POP PUSH1 0x0 PUSH2 0x3DF9 DUP3 DUP5 PUSH2 0x43E6 JUMP JUMPDEST SWAP1 POP PUSH1 0x0 DUP2 ISZERO PUSH2 0x3E25 JUMPI DUP2 PUSH2 0x3E16 DUP5 PUSH8 0xDE0B6B3A7640000 PUSH2 0x4360 JUMP JUMPDEST PUSH2 0x3E20 SWAP2 SWAP1 PUSH2 0x438D JUMP JUMPDEST PUSH2 0x3E28 JUMP JUMPDEST PUSH1 0x0 JUMPDEST PUSH1 0xE SLOAD SWAP1 SWAP2 POP DUP1 DUP3 GT PUSH2 0x3E63 JUMPI PUSH8 0xDE0B6B3A7640000 DUP3 PUSH1 0xC SLOAD PUSH2 0x3E4C SWAP2 SWAP1 PUSH2 0x4360 JUMP JUMPDEST PUSH2 0x3E56 SWAP2 SWAP1 PUSH2 0x438D JUMP JUMPDEST PUSH1 0xB SLOAD PUSH2 0x3CBC SWAP2 SWAP1 PUSH2 0x43E6 JUMP JUMPDEST PUSH1 0x0 PUSH8 0xDE0B6B3A7640000 DUP3 PUSH1 0xC SLOAD PUSH2 0x3E7C SWAP2 SWAP1 PUSH2 0x4360 JUMP JUMPDEST PUSH2 0x3E86 SWAP2 SWAP1 PUSH2 0x438D JUMP JUMPDEST PUSH1 0xB SLOAD PUSH2 0x3E93 SWAP2 SWAP1 PUSH2 0x43E6 JUMP JUMPDEST SWAP1 POP PUSH8 0xDE0B6B3A7640000 PUSH2 0x3EA8 DUP4 DUP6 PUSH2 0x43A1 JUMP JUMPDEST PUSH1 0xD SLOAD PUSH2 0x3D19 SWAP2 SWAP1 PUSH2 0x4360 JUMP JUMPDEST PUSH1 0x0 DUP1 MLOAD PUSH1 0x20 PUSH2 0x45D8 DUP4 CODECOPY DUP2 MLOAD SWAP2 MSTORE SLOAD PUSH1 0x2 SUB PUSH2 0x3EE5 JUMPI PUSH1 0x40 MLOAD PUSH4 0x3EE5AEB5 PUSH1 0xE0 SHL DUP2 MSTORE PUSH1 0x4 ADD PUSH1 0x40 MLOAD DUP1 SWAP2 SUB SWAP1 REVERT JUMPDEST JUMP JUMPDEST PUSH1 0x40 MLOAD PUSH4 0x23B872DD PUSH1 0xE0 SHL PUSH1 0x0 DUP2 DUP2 MSTORE PUSH1 0x1 PUSH1 0x1 PUSH1 0xA0 SHL SUB DUP8 DUP2 AND PUSH1 0x4 MSTORE DUP7 AND PUSH1 0x24 MSTORE PUSH1 0x44 DUP6 SWAP1 MSTORE SWAP2 PUSH1 0x20 DUP4 PUSH1 0x64 DUP2 DUP1 DUP13 GAS CALL SWAP3 POP PUSH1 0x1 PUSH1 0x0 MLOAD EQ DUP4 AND PUSH2 0x3F47 JUMPI DUP4 DUP4 ISZERO AND ISZERO PUSH2 0x3F3A JUMPI RETURNDATASIZE PUSH1 0x0 DUP3 RETURNDATACOPY RETURNDATASIZE DUP2 REVERT JUMPDEST PUSH1 0x0 DUP9 EXTCODESIZE GT RETURNDATASIZE ISZERO AND DUP4 AND SWAP3 POP JUMPDEST PUSH1 0x40 MSTORE POP PUSH1 0x0 PUSH1 0x60 MSTORE SWAP6 SWAP5 POP POP POP POP POP JUMP JUMPDEST PUSH1 0x0 DUP2 PUSH1 0x0 SUB PUSH2 0x3F6B JUMPI POP PUSH1 0x0 PUSH2 0xE08 JUMP JUMPDEST PUSH1 0x0 PUSH32 0x0 PUSH1 0x1 PUSH1 0x1 PUSH1 0xA0 SHL SUB AND PUSH4 0x313CE567 PUSH1 0x40 MLOAD DUP2 PUSH4 0xFFFFFFFF AND PUSH1 0xE0 SHL DUP2 MSTORE PUSH1 0x4 ADD PUSH1 0x20 PUSH1 0x40 MLOAD DUP1 DUP4 SUB DUP2 DUP7 GAS STATICCALL ISZERO DUP1 ISZERO PUSH2 0x3FCB JUMPI RETURNDATASIZE PUSH1 0x0 DUP1 RETURNDATACOPY RETURNDATASIZE PUSH1 0x0 REVERT JUMPDEST POP POP POP POP PUSH1 0x40 MLOAD RETURNDATASIZE PUSH1 0x1F NOT PUSH1 0x1F DUP3 ADD AND DUP3 ADD DUP1 PUSH1 0x40 MSTORE POP DUP2 ADD SWAP1 PUSH2 0x3FEF SWAP2 SWAP1 PUSH2 0x44B5 JUMP JUMPDEST SWAP1 POP PUSH1 0x0 PUSH32 0x0 PUSH1 0x1 PUSH1 0x1 PUSH1 0xA0 SHL SUB AND PUSH4 0x313CE567 PUSH1 0x40 MLOAD DUP2 PUSH4 0xFFFFFFFF AND PUSH1 0xE0 SHL DUP2 MSTORE PUSH1 0x4 ADD PUSH1 0x20 PUSH1 0x40 MLOAD DUP1 DUP4 SUB DUP2 DUP7 GAS STATICCALL ISZERO DUP1 ISZERO PUSH2 0x4051 JUMPI RETURNDATASIZE PUSH1 0x0 DUP1 RETURNDATACOPY RETURNDATASIZE PUSH1 0x0 REVERT JUMPDEST POP POP POP POP PUSH1 0x40 MLOAD RETURNDATASIZE PUSH1 0x1F NOT PUSH1 0x1F DUP3 ADD AND DUP3 ADD DUP1 PUSH1 0x40 MSTORE POP DUP2 ADD SWAP1 PUSH2 0x4075 SWAP2 SWAP1 PUSH2 0x44B5 JUMP JUMPDEST SWAP1 POP PUSH2 0x4082 DUP2 PUSH1 0xA PUSH2 0x45BC JUMP JUMPDEST PUSH2 0x408C SWAP1 DUP6 PUSH2 0x4360 JUMP JUMPDEST PUSH2 0x409A PUSH1 0xFF DUP5 AND PUSH1 0x8 PUSH2 0x43E6 JUMP JUMPDEST PUSH2 0x40A5 SWAP1 PUSH1 0xA PUSH2 0x45CB JUMP JUMPDEST PUSH2 0xDB5 SWAP1 DUP8 PUSH2 0x4360 JUMP JUMPDEST PUSH1 0x40 MLOAD PUSH4 0x70A08231 PUSH1 0xE0 SHL DUP2 MSTORE ADDRESS PUSH1 0x4 DUP3 ADD MSTORE PUSH1 0x0 SWAP1 DUP2 SWAP1 PUSH1 0x1 PUSH1 0x1 PUSH1 0xA0 SHL SUB PUSH32 0x0 AND SWAP1 PUSH4 0x70A08231 SWAP1 PUSH1 0x24 ADD PUSH1 0x20 PUSH1 0x40 MLOAD DUP1 DUP4 SUB DUP2 DUP7 GAS STATICCALL ISZERO DUP1 ISZERO PUSH2 0x4118 JUMPI RETURNDATASIZE PUSH1 0x0 DUP1 RETURNDATACOPY RETURNDATASIZE PUSH1 0x0 REVERT JUMPDEST POP POP POP POP PUSH1 0x40 MLOAD RETURNDATASIZE PUSH1 0x1F NOT PUSH1 0x1F DUP3 ADD AND DUP3 ADD DUP1 PUSH1 0x40 MSTORE POP DUP2 ADD SWAP1 PUSH2 0x413C SWAP2 SWAP1 PUSH2 0x43CD JUMP JUMPDEST PUSH1 0x40 MLOAD PUSH4 0x70A08231 PUSH1 0xE0 SHL DUP2 MSTORE ADDRESS PUSH1 0x4 DUP3 ADD MSTORE SWAP1 SWAP3 POP PUSH32 0x0 PUSH1 0x1 PUSH1 0x1 PUSH1 0xA0 SHL SUB AND SWAP1 PUSH4 0x70A08231 SWAP1 PUSH1 0x24 ADD PUSH1 0x20 PUSH1 0x40 MLOAD DUP1 DUP4 SUB DUP2 DUP7 GAS STATICCALL ISZERO DUP1 ISZERO PUSH2 0x41A3 JUMPI RETURNDATASIZE PUSH1 0x0 DUP1 RETURNDATACOPY RETURNDATASIZE PUSH1 0x0 REVERT JUMPDEST POP POP POP POP PUSH1 0x40 MLOAD RETURNDATASIZE PUSH1 0x1F NOT PUSH1 0x1F DUP3 ADD AND DUP3 ADD DUP1 PUSH1 0x40 MSTORE POP DUP2 ADD SWAP1 PUSH2 0x41C7 SWAP2 SWAP1 PUSH2 0x43CD JUMP JUMPDEST SWAP1 POP SWAP1 SWAP2 JUMP JUMPDEST PUSH1 0x40 MLOAD PUSH4 0xA9059CBB PUSH1 0xE0 SHL PUSH1 0x0 DUP2 DUP2 MSTORE PUSH1 0x1 PUSH1 0x1 PUSH1 0xA0 SHL SUB DUP7 AND PUSH1 0x4 MSTORE PUSH1 0x24 DUP6 SWAP1 MSTORE SWAP2 PUSH1 0x20 DUP4 PUSH1 0x44 DUP2 DUP1 DUP12 GAS CALL SWAP3 POP PUSH1 0x1 PUSH1 0x0 MLOAD EQ DUP4 AND PUSH2 0x4227 JUMPI DUP4 DUP4 ISZERO AND ISZERO PUSH2 0x421A JUMPI RETURNDATASIZE PUSH1 0x0 DUP3 RETURNDATACOPY RETURNDATASIZE DUP2 REVERT JUMPDEST PUSH1 0x0 DUP8 EXTCODESIZE GT RETURNDATASIZE ISZERO AND DUP4 AND SWAP3 POP JUMPDEST PUSH1 0x40 MSTORE POP SWAP5 SWAP4 POP POP POP POP JUMP JUMPDEST DUP1 CALLDATALOAD PUSH1 0x1 PUSH1 0x1 PUSH1 0xA0 SHL SUB DUP2 AND DUP2 EQ PUSH2 0x424A JUMPI PUSH1 0x0 DUP1 REVERT JUMPDEST SWAP2 SWAP1 POP JUMP JUMPDEST PUSH1 0x0 PUSH1 0x20 DUP3 DUP5 SUB SLT ISZERO PUSH2 0x4261 JUMPI PUSH1 0x0 DUP1 REVERT JUMPDEST PUSH2 0x3759 DUP3 PUSH2 0x4233 JUMP JUMPDEST PUSH1 0x0 PUSH1 0x20 DUP3 DUP5 SUB SLT ISZERO PUSH2 0x427C JUMPI PUSH1 0x0 DUP1 REVERT JUMPDEST POP CALLDATALOAD SWAP2 SWAP1 POP JUMP JUMPDEST PUSH1 0x0 DUP1 PUSH1 0x0 DUP1 PUSH1 0x0 PUSH1 0x80 DUP7 DUP9 SUB SLT ISZERO PUSH2 0x429B JUMPI PUSH1 0x0 DUP1 REVERT JUMPDEST PUSH2 0x42A4 DUP7 PUSH2 0x4233 JUMP JUMPDEST SWAP5 POP PUSH2 0x42B2 PUSH1 0x20 DUP8 ADD PUSH2 0x4233 JUMP JUMPDEST SWAP4 POP PUSH1 0x40 DUP7 ADD CALLDATALOAD SWAP3 POP PUSH1 0x60 DUP7 ADD CALLDATALOAD PUSH8 0xFFFFFFFFFFFFFFFF DUP1 DUP3 GT ISZERO PUSH2 0x42D6 JUMPI PUSH1 0x0 DUP1 REVERT JUMPDEST DUP2 DUP9 ADD SWAP2 POP DUP9 PUSH1 0x1F DUP4 ADD SLT PUSH2 0x42EA JUMPI PUSH1 0x0 DUP1 REVERT JUMPDEST DUP2 CALLDATALOAD DUP2 DUP2 GT ISZERO PUSH2 0x42F9 JUMPI PUSH1 0x0 DUP1 REVERT JUMPDEST DUP10 PUSH1 0x20 DUP3 DUP6 ADD ADD GT ISZERO PUSH2 0x430B JUMPI PUSH1 0x0 DUP1 REVERT JUMPDEST SWAP7 SWAP10 SWAP6 SWAP9 POP SWAP4 SWAP7 POP PUSH1 0x20 ADD SWAP5 SWAP4 SWAP3 POP POP POP JUMP JUMPDEST PUSH1 0x20 DUP1 DUP3 MSTORE PUSH1 0x12 SWAP1 DUP3 ADD MSTORE PUSH18 0x50434F4C42555344506F6F6C3A207A65726F PUSH1 0x70 SHL PUSH1 0x40 DUP3 ADD MSTORE PUSH1 0x60 ADD SWAP1 JUMP JUMPDEST PUSH4 0x4E487B71 PUSH1 0xE0 SHL PUSH1 0x0 MSTORE PUSH1 0x11 PUSH1 0x4 MSTORE PUSH1 0x24 PUSH1 0x0 REVERT JUMPDEST DUP1 DUP3 MUL DUP2 ISZERO DUP3 DUP3 DIV DUP5 EQ OR PUSH2 0xE08 JUMPI PUSH2 0xE08 PUSH2 0x434A JUMP JUMPDEST PUSH4 0x4E487B71 PUSH1 0xE0 SHL PUSH1 0x0 MSTORE PUSH1 0x12 PUSH1 0x4 MSTORE PUSH1 0x24 PUSH1 0x0 REVERT JUMPDEST PUSH1 0x0 DUP3 PUSH2 0x439C JUMPI PUSH2 0x439C PUSH2 0x4377 JUMP JUMPDEST POP DIV SWAP1 JUMP JUMPDEST DUP2 DUP2 SUB DUP2 DUP2 GT ISZERO PUSH2 0xE08 JUMPI PUSH2 0xE08 PUSH2 0x434A JUMP JUMPDEST PUSH1 0x1 PUSH1 0x1 PUSH1 0xA0 SHL SUB SWAP3 SWAP1 SWAP3 AND DUP3 MSTORE PUSH1 0x20 DUP3 ADD MSTORE PUSH1 0x40 ADD SWAP1 JUMP JUMPDEST PUSH1 0x0 PUSH1 0x20 DUP3 DUP5 SUB SLT ISZERO PUSH2 0x43DF JUMPI PUSH1 0x0 DUP1 REVERT JUMPDEST POP MLOAD SWAP2 SWAP1 POP JUMP JUMPDEST DUP1 DUP3 ADD DUP1 DUP3 GT ISZERO PUSH2 0xE08 JUMPI PUSH2 0xE08 PUSH2 0x434A JUMP JUMPDEST PUSH1 0x20 DUP1 DUP3 MSTORE PUSH1 0x10 SWAP1 DUP3 ADD MSTORE PUSH16 0x2821A7A6212AA9A22837B7B61D102423 PUSH1 0x81 SHL PUSH1 0x40 DUP3 ADD MSTORE PUSH1 0x60 ADD SWAP1 JUMP JUMPDEST PUSH1 0x1 PUSH1 0x1 PUSH1 0xA0 SHL SUB DUP8 DUP2 AND DUP3 MSTORE PUSH1 0x20 DUP3 ADD DUP8 SWAP1 MSTORE PUSH1 0x40 DUP3 ADD DUP7 SWAP1 MSTORE DUP5 AND PUSH1 0x60 DUP3 ADD MSTORE PUSH1 0xA0 PUSH1 0x80 DUP3 ADD DUP2 SWAP1 MSTORE DUP2 ADD DUP3 SWAP1 MSTORE PUSH1 0x0 DUP3 DUP5 PUSH1 0xC0 DUP5 ADD CALLDATACOPY PUSH1 0x0 PUSH1 0xC0 DUP5 DUP5 ADD ADD MSTORE PUSH1 0xC0 PUSH1 0x1F NOT PUSH1 0x1F DUP6 ADD AND DUP4 ADD ADD SWAP1 POP SWAP8 SWAP7 POP POP POP POP POP POP POP JUMP JUMPDEST PUSH1 0x0 PUSH1 0x20 DUP3 DUP5 SUB SLT ISZERO PUSH2 0x4491 JUMPI PUSH1 0x0 DUP1 REVERT JUMPDEST DUP2 MLOAD DUP1 ISZERO ISZERO DUP2 EQ PUSH2 0x3759 JUMPI PUSH1 0x0 DUP1 REVERT JUMPDEST PUSH1 0x0 DUP3 PUSH2 0x44B0 JUMPI PUSH2 0x44B0 PUSH2 0x4377 JUMP JUMPDEST POP MOD SWAP1 JUMP JUMPDEST PUSH1 0x0 PUSH1 0x20 DUP3 DUP5 SUB SLT ISZERO PUSH2 0x44C7 JUMPI PUSH1 0x0 DUP1 REVERT JUMPDEST DUP2 MLOAD PUSH1 0xFF DUP2 AND DUP2 EQ PUSH2 0x3759 JUMPI PUSH1 0x0 DUP1 REVERT JUMPDEST PUSH1 0x1 DUP2 DUP2 JUMPDEST DUP1 DUP6 GT ISZERO PUSH2 0x4513 JUMPI DUP2 PUSH1 0x0 NOT DIV DUP3 GT ISZERO PUSH2 0x44F9 JUMPI PUSH2 0x44F9 PUSH2 0x434A JUMP JUMPDEST DUP1 DUP6 AND ISZERO PUSH2 0x4506 JUMPI SWAP2 DUP2 MUL SWAP2 JUMPDEST SWAP4 DUP5 SHR SWAP4 SWAP1 DUP1 MUL SWAP1 PUSH2 0x44DD JUMP JUMPDEST POP SWAP3 POP SWAP3 SWAP1 POP JUMP JUMPDEST PUSH1 0x0 DUP3 PUSH2 0x452A JUMPI POP PUSH1 0x1 PUSH2 0xE08 JUMP JUMPDEST DUP2 PUSH2 0x4537 JUMPI POP PUSH1 0x0 PUSH2 0xE08 JUMP JUMPDEST DUP2 PUSH1 0x1 DUP2 EQ PUSH2 0x454D JUMPI PUSH1 0x2 DUP2 EQ PUSH2 0x4557 JUMPI PUSH2 0x4573 JUMP JUMPDEST PUSH1 0x1 SWAP2 POP POP PUSH2 0xE08 JUMP JUMPDEST PUSH1 0xFF DUP5 GT ISZERO PUSH2 0x4568 JUMPI PUSH2 0x4568 PUSH2 0x434A JUMP JUMPDEST POP POP PUSH1 0x1 DUP3 SHL PUSH2 0xE08 JUMP JUMPDEST POP PUSH1 0x20 DUP4 LT PUSH2 0x133 DUP4 LT AND PUSH1 0x4E DUP5 LT PUSH1 0xB DUP5 LT AND OR ISZERO PUSH2 0x4596 JUMPI POP DUP2 DUP2 EXP PUSH2 0xE08 JUMP JUMPDEST PUSH2 0x45A0 DUP4 DUP4 PUSH2 0x44D8 JUMP JUMPDEST DUP1 PUSH1 0x0 NOT DIV DUP3 GT ISZERO PUSH2 0x45B4 JUMPI PUSH2 0x45B4 PUSH2 0x434A JUMP JUMPDEST MUL SWAP4 SWAP3 POP POP POP JUMP JUMPDEST PUSH1 0x0 PUSH2 0x3759 PUSH1 0xFF DUP5 AND DUP4 PUSH2 0x451B JUMP JUMPDEST PUSH1 0x0 PUSH2 0x3759 DUP4 DUP4 PUSH2 0x451B JUMP INVALID SWAP12 PUSH24 0x9B17422D0DF92223018B32B4D1FA46E071723D6817E2486D STOP EXTCODESIZE 0xEC 0xC5 PUSH0 STOP LOG2 PUSH5 0x6970667358 0x22 SLT KECCAK256 NUMBER 0xD1 ADD PUSH4 0x392513D SLT ISZERO LOG2 0xC1 0x27 0xFC 0xD4 0x4A PUSH24 0xDEAD8BC1A22DDC445DD952F9B3A74564736F6C6343000814 STOP CALLER PUSH1 0xA0 PUSH1 0x40 MSTORE CALLVALUE DUP1 ISZERO PUSH3 0x11 JUMPI PUSH1 0x0 DUP1 REVERT JUMPDEST POP PUSH1 0x40 MLOAD PUSH3 0xCAD CODESIZE SUB DUP1 PUSH3 0xCAD DUP4 CODECOPY DUP2 ADD PUSH1 0x40 DUP2 SWAP1 MSTORE PUSH3 0x34 SWAP2 PUSH3 0x18B JUMP JUMPDEST DUP3 DUP3 PUSH1 0x3 PUSH3 0x44 DUP4 DUP3 PUSH3 0x2A7 JUMP JUMPDEST POP PUSH1 0x4 PUSH3 0x53 DUP3 DUP3 PUSH3 0x2A7 JUMP JUMPDEST POP POP POP PUSH1 0x1 PUSH1 0x1 PUSH1 0xA0 SHL SUB DUP2 AND PUSH3 0xB1 JUMPI PUSH1 0x40 MLOAD PUSH3 0x461BCD PUSH1 0xE5 SHL DUP2 MSTORE PUSH1 0x20 PUSH1 0x4 DUP3 ADD MSTORE PUSH1 0x17 PUSH1 0x24 DUP3 ADD MSTORE PUSH32 0x52656365697074546F6B656E3A207A65726F20706F6F6C000000000000000000 PUSH1 0x44 DUP3 ADD MSTORE PUSH1 0x64 ADD PUSH1 0x40 MLOAD DUP1 SWAP2 SUB SWAP1 REVERT JUMPDEST PUSH1 0x1 PUSH1 0x1 PUSH1 0xA0 SHL SUB AND PUSH1 0x80 MSTORE POP PUSH3 0x373 SWAP1 POP JUMP JUMPDEST PUSH4 0x4E487B71 PUSH1 0xE0 SHL PUSH1 0x0 MSTORE PUSH1 0x41 PUSH1 0x4 MSTORE PUSH1 0x24 PUSH1 0x0 REVERT JUMPDEST PUSH1 0x0 DUP3 PUSH1 0x1F DUP4 ADD SLT PUSH3 0xEE JUMPI PUSH1 0x0 DUP1 REVERT JUMPDEST DUP2 MLOAD PUSH1 0x1 PUSH1 0x1 PUSH1 0x40 SHL SUB DUP1 DUP3 GT ISZERO PUSH3 0x10B JUMPI PUSH3 0x10B PUSH3 0xC6 JUMP JUMPDEST PUSH1 0x40 MLOAD PUSH1 0x1F DUP4 ADD PUSH1 0x1F NOT SWAP1 DUP2 AND PUSH1 0x3F ADD AND DUP2 ADD SWAP1 DUP3 DUP3 GT DUP2 DUP4 LT OR ISZERO PUSH3 0x136 JUMPI PUSH3 0x136 PUSH3 0xC6 JUMP JUMPDEST DUP2 PUSH1 0x40 MSTORE DUP4 DUP2 MSTORE PUSH1 0x20 SWAP3 POP DUP7 DUP4 DUP6 DUP9 ADD ADD GT ISZERO PUSH3 0x153 JUMPI PUSH1 0x0 DUP1 REVERT JUMPDEST PUSH1 0x0 SWAP2 POP JUMPDEST DUP4 DUP3 LT ISZERO PUSH3 0x177 JUMPI DUP6 DUP3 ADD DUP4 ADD MLOAD DUP2 DUP4 ADD DUP5 ADD MSTORE SWAP1 DUP3 ADD SWAP1 PUSH3 0x158 JUMP JUMPDEST PUSH1 0x0 SWAP4 DUP2 ADD SWAP1 SWAP3 ADD SWAP3 SWAP1 SWAP3 MSTORE SWAP5 SWAP4 POP POP POP POP JUMP JUMPDEST PUSH1 0x0 DUP1 PUSH1 0x0 PUSH1 0x60 DUP5 DUP7 SUB SLT ISZERO PUSH3 0x1A1 JUMPI PUSH1 0x0 DUP1 REVERT JUMPDEST DUP4 MLOAD PUSH1 0x1 PUSH1 0x1 PUSH1 0x40 SHL SUB DUP1 DUP3 GT ISZERO PUSH3 0x1B9 JUMPI PUSH1 0x0 DUP1 REVERT JUMPDEST PUSH3 0x1C7 DUP8 DUP4 DUP9 ADD PUSH3 0xDC JUMP JUMPDEST SWAP5 POP PUSH1 0x20 DUP7 ADD MLOAD SWAP2 POP DUP1 DUP3 GT ISZERO PUSH3 0x1DE JUMPI PUSH1 0x0 DUP1 REVERT JUMPDEST POP PUSH3 0x1ED DUP7 DUP3 DUP8 ADD PUSH3 0xDC JUMP JUMPDEST PUSH1 0x40 DUP7 ADD MLOAD SWAP1 SWAP4 POP SWAP1 POP PUSH1 0x1 PUSH1 0x1 PUSH1 0xA0 SHL SUB DUP2 AND DUP2 EQ PUSH3 0x20D JUMPI PUSH1 0x0 DUP1 REVERT JUMPDEST DUP1 SWAP2 POP POP SWAP3 POP SWAP3 POP SWAP3 JUMP JUMPDEST PUSH1 0x1 DUP2 DUP2 SHR SWAP1 DUP3 AND DUP1 PUSH3 0x22D JUMPI PUSH1 0x7F DUP3 AND SWAP2 POP JUMPDEST PUSH1 0x20 DUP3 LT DUP2 SUB PUSH3 0x24E JUMPI PUSH4 0x4E487B71 PUSH1 0xE0 SHL PUSH1 0x0 MSTORE PUSH1 0x22 PUSH1 0x4 MSTORE PUSH1 0x24 PUSH1 0x0 REVERT JUMPDEST POP SWAP2 SWAP1 POP JUMP JUMPDEST PUSH1 0x1F DUP3 GT ISZERO PUSH3 0x2A2 JUMPI PUSH1 0x0 DUP2 DUP2 MSTORE PUSH1 0x20 DUP2 KECCAK256 PUSH1 0x1F DUP6 ADD PUSH1 0x5 SHR DUP2 ADD PUSH1 0x20 DUP7 LT ISZERO PUSH3 0x27D JUMPI POP DUP1 JUMPDEST PUSH1 0x1F DUP6 ADD PUSH1 0x5 SHR DUP3 ADD SWAP2 POP JUMPDEST DUP2 DUP2 LT ISZERO PUSH3 0x29E JUMPI DUP3 DUP2 SSTORE PUSH1 0x1 ADD PUSH3 0x289 JUMP JUMPDEST POP POP POP JUMPDEST POP POP POP JUMP JUMPDEST DUP2 MLOAD PUSH1 0x1 PUSH1 0x1 PUSH1 0x40 SHL SUB DUP2 GT ISZERO PUSH3 0x2C3 JUMPI PUSH3 0x2C3 PUSH3 0xC6 JUMP JUMPDEST PUSH3 0x2DB DUP2 PUSH3 0x2D4 DUP5 SLOAD PUSH3 0x218 JUMP JUMPDEST DUP5 PUSH3 0x254 JUMP JUMPDEST PUSH1 0x20 DUP1 PUSH1 0x1F DUP4 GT PUSH1 0x1 DUP2 EQ PUSH3 0x313 JUMPI PUSH1 0x0 DUP5 ISZERO PUSH3 0x2FA JUMPI POP DUP6 DUP4 ADD MLOAD JUMPDEST PUSH1 0x0 NOT PUSH1 0x3 DUP7 SWAP1 SHL SHR NOT AND PUSH1 0x1 DUP6 SWAP1 SHL OR DUP6 SSTORE PUSH3 0x29E JUMP JUMPDEST PUSH1 0x0 DUP6 DUP2 MSTORE PUSH1 0x20 DUP2 KECCAK256 PUSH1 0x1F NOT DUP7 AND SWAP2 JUMPDEST DUP3 DUP2 LT ISZERO PUSH3 0x344 JUMPI DUP9 DUP7 ADD MLOAD DUP3 SSTORE SWAP5 DUP5 ADD SWAP5 PUSH1 0x1 SWAP1 SWAP2 ADD SWAP1 DUP5 ADD PUSH3 0x323 JUMP JUMPDEST POP DUP6 DUP3 LT ISZERO PUSH3 0x363 JUMPI DUP8 DUP6 ADD MLOAD PUSH1 0x0 NOT PUSH1 0x3 DUP9 SWAP1 SHL PUSH1 0xF8 AND SHR NOT AND DUP2 SSTORE JUMPDEST POP POP POP POP POP PUSH1 0x1 SWAP1 DUP2 SHL ADD SWAP1 SSTORE POP JUMP JUMPDEST PUSH1 0x80 MLOAD PUSH2 0x911 PUSH3 0x39C PUSH1 0x0 CODECOPY PUSH1 0x0 DUP2 DUP2 PUSH1 0xFF ADD MSTORE DUP2 DUP2 PUSH2 0x2ED ADD MSTORE PUSH2 0x381 ADD MSTORE PUSH2 0x911 PUSH1 0x0 RETURN INVALID PUSH1 0x80 PUSH1 0x40 MSTORE CALLVALUE DUP1 ISZERO PUSH2 0x10 JUMPI PUSH1 0x0 DUP1 REVERT JUMPDEST POP PUSH1 0x4 CALLDATASIZE LT PUSH2 0xB4 JUMPI PUSH1 0x0 CALLDATALOAD PUSH1 0xE0 SHR DUP1 PUSH4 0x40C10F19 GT PUSH2 0x71 JUMPI DUP1 PUSH4 0x40C10F19 EQ PUSH2 0x16D JUMPI DUP1 PUSH4 0x70A08231 EQ PUSH2 0x182 JUMPI DUP1 PUSH4 0x95D89B41 EQ PUSH2 0x1AB JUMPI DUP1 PUSH4 0x9DC29FAC EQ PUSH2 0x1B3 JUMPI DUP1 PUSH4 0xA9059CBB EQ PUSH2 0x1C6 JUMPI DUP1 PUSH4 0xDD62ED3E EQ PUSH2 0x1D9 JUMPI PUSH1 0x0 DUP1 REVERT JUMPDEST DUP1 PUSH4 0x6FDDE03 EQ PUSH2 0xB9 JUMPI DUP1 PUSH4 0x95EA7B3 EQ PUSH2 0xD7 JUMPI DUP1 PUSH4 0x16F0115B EQ PUSH2 0xFA JUMPI DUP1 PUSH4 0x18160DDD EQ PUSH2 0x139 JUMPI DUP1 PUSH4 0x23B872DD EQ PUSH2 0x14B JUMPI DUP1 PUSH4 0x313CE567 EQ PUSH2 0x15E JUMPI JUMPDEST PUSH1 0x0 DUP1 REVERT JUMPDEST PUSH2 0xC1 PUSH2 0x212 JUMP JUMPDEST PUSH1 0x40 MLOAD PUSH2 0xCE SWAP2 SWAP1 PUSH2 0x75B JUMP JUMPDEST PUSH1 0x40 MLOAD DUP1 SWAP2 SUB SWAP1 RETURN JUMPDEST PUSH2 0xEA PUSH2 0xE5 CALLDATASIZE PUSH1 0x4 PUSH2 0x7C5 JUMP JUMPDEST PUSH2 0x2A4 JUMP JUMPDEST PUSH1 0x40 MLOAD SWAP1 ISZERO ISZERO DUP2 MSTORE PUSH1 0x20 ADD PUSH2 0xCE JUMP JUMPDEST PUSH2 0x121 PUSH32 0x0 DUP2 JUMP JUMPDEST PUSH1 0x40 MLOAD PUSH1 0x1 PUSH1 0x1 PUSH1 0xA0 SHL SUB SWAP1 SWAP2 AND DUP2 MSTORE PUSH1 0x20 ADD PUSH2 0xCE JUMP JUMPDEST PUSH1 0x2 SLOAD JUMPDEST PUSH1 0x40 MLOAD SWAP1 DUP2 MSTORE PUSH1 0x20 ADD PUSH2 0xCE JUMP JUMPDEST PUSH2 0xEA PUSH2 0x159 CALLDATASIZE PUSH1 0x4 PUSH2 0x7EF JUMP JUMPDEST PUSH2 0x2BE JUMP JUMPDEST PUSH1 0x40 MLOAD PUSH1 0x12 DUP2 MSTORE PUSH1 0x20 ADD PUSH2 0xCE JUMP JUMPDEST PUSH2 0x180 PUSH2 0x17B CALLDATASIZE PUSH1 0x4 PUSH2 0x7C5 JUMP JUMPDEST PUSH2 0x2E2 JUMP JUMPDEST STOP JUMPDEST PUSH2 0x13D PUSH2 0x190 CALLDATASIZE PUSH1 0x4 PUSH2 0x82B JUMP JUMPDEST PUSH1 0x1 PUSH1 0x1 PUSH1 0xA0 SHL SUB AND PUSH1 0x0 SWAP1 DUP2 MSTORE PUSH1 0x20 DUP2 SWAP1 MSTORE PUSH1 0x40 SWAP1 KECCAK256 SLOAD SWAP1 JUMP JUMPDEST PUSH2 0xC1 PUSH2 0x367 JUMP JUMPDEST PUSH2 0x180 PUSH2 0x1C1 CALLDATASIZE PUSH1 0x4 PUSH2 0x7C5 JUMP JUMPDEST PUSH2 0x376 JUMP JUMPDEST PUSH2 0xEA PUSH2 0x1D4 CALLDATASIZE PUSH1 0x4 PUSH2 0x7C5 JUMP JUMPDEST PUSH2 0x3F2 JUMP JUMPDEST PUSH2 0x13D PUSH2 0x1E7 CALLDATASIZE PUSH1 0x4 PUSH2 0x84D JUMP JUMPDEST PUSH1 0x1 PUSH1 0x1 PUSH1 0xA0 SHL SUB SWAP2 DUP3 AND PUSH1 0x0 SWAP1 DUP2 MSTORE PUSH1 0x1 PUSH1 0x20 SWAP1 DUP2 MSTORE PUSH1 0x40 DUP1 DUP4 KECCAK256 SWAP4 SWAP1 SWAP5 AND DUP3 MSTORE SWAP2 SWAP1 SWAP2 MSTORE KECCAK256 SLOAD SWAP1 JUMP JUMPDEST PUSH1 0x60 PUSH1 0x3 DUP1 SLOAD PUSH2 0x221 SWAP1 PUSH2 0x880 JUMP JUMPDEST DUP1 PUSH1 0x1F ADD PUSH1 0x20 DUP1 SWAP2 DIV MUL PUSH1 0x20 ADD PUSH1 0x40 MLOAD SWAP1 DUP2 ADD PUSH1 0x40 MSTORE DUP1 SWAP3 SWAP2 SWAP1 DUP2 DUP2 MSTORE PUSH1 0x20 ADD DUP3 DUP1 SLOAD PUSH2 0x24D SWAP1 PUSH2 0x880 JUMP JUMPDEST DUP1 ISZERO PUSH2 0x29A JUMPI DUP1 PUSH1 0x1F LT PUSH2 0x26F JUMPI PUSH2 0x100 DUP1 DUP4 SLOAD DIV MUL DUP4 MSTORE SWAP2 PUSH1 0x20 ADD SWAP2 PUSH2 0x29A JUMP JUMPDEST DUP3 ADD SWAP2 SWAP1 PUSH1 0x0 MSTORE PUSH1 0x20 PUSH1 0x0 KECCAK256 SWAP1 JUMPDEST DUP2 SLOAD DUP2 MSTORE SWAP1 PUSH1 0x1 ADD SWAP1 PUSH1 0x20 ADD DUP1 DUP4 GT PUSH2 0x27D JUMPI DUP3 SWAP1 SUB PUSH1 0x1F AND DUP3 ADD SWAP2 JUMPDEST POP POP POP POP POP SWAP1 POP SWAP1 JUMP JUMPDEST PUSH1 0x0 CALLER PUSH2 0x2B2 DUP2 DUP6 DUP6 PUSH2 0x400 JUMP JUMPDEST PUSH1 0x1 SWAP2 POP POP JUMPDEST SWAP3 SWAP2 POP POP JUMP JUMPDEST PUSH1 0x0 CALLER PUSH2 0x2CC DUP6 DUP3 DUP6 PUSH2 0x412 JUMP JUMPDEST PUSH2 0x2D7 DUP6 DUP6 DUP6 PUSH2 0x491 JUMP JUMPDEST POP PUSH1 0x1 SWAP5 SWAP4 POP POP POP POP JUMP JUMPDEST CALLER PUSH1 0x1 PUSH1 0x1 PUSH1 0xA0 SHL SUB PUSH32 0x0 AND EQ PUSH2 0x359 JUMPI PUSH1 0x40 MLOAD PUSH3 0x461BCD PUSH1 0xE5 SHL DUP2 MSTORE PUSH1 0x20 PUSH1 0x4 DUP3 ADD MSTORE PUSH1 0x17 PUSH1 0x24 DUP3 ADD MSTORE PUSH23 0x149958D95A5C1D151BDAD95B8E881BDB9B1E481C1BDBDB PUSH1 0x4A SHL PUSH1 0x44 DUP3 ADD MSTORE PUSH1 0x64 ADD JUMPDEST PUSH1 0x40 MLOAD DUP1 SWAP2 SUB SWAP1 REVERT JUMPDEST PUSH2 0x363 DUP3 DUP3 PUSH2 0x4F0 JUMP JUMPDEST POP POP JUMP JUMPDEST PUSH1 0x60 PUSH1 0x4 DUP1 SLOAD PUSH2 0x221 SWAP1 PUSH2 0x880 JUMP JUMPDEST CALLER PUSH1 0x1 PUSH1 0x1 PUSH1 0xA0 SHL SUB PUSH32 0x0 AND EQ PUSH2 0x3E8 JUMPI PUSH1 0x40 MLOAD PUSH3 0x461BCD PUSH1 0xE5 SHL DUP2 MSTORE PUSH1 0x20 PUSH1 0x4 DUP3 ADD MSTORE PUSH1 0x17 PUSH1 0x24 DUP3 ADD MSTORE PUSH23 0x149958D95A5C1D151BDAD95B8E881BDB9B1E481C1BDBDB PUSH1 0x4A SHL PUSH1 0x44 DUP3 ADD MSTORE PUSH1 0x64 ADD PUSH2 0x350 JUMP JUMPDEST PUSH2 0x363 DUP3 DUP3 PUSH2 0x526 JUMP JUMPDEST PUSH1 0x0 CALLER PUSH2 0x2B2 DUP2 DUP6 DUP6 PUSH2 0x491 JUMP JUMPDEST PUSH2 0x40D DUP4 DUP4 DUP4 PUSH1 0x1 PUSH2 0x55C JUMP JUMPDEST POP POP POP JUMP JUMPDEST PUSH1 0x1 PUSH1 0x1 PUSH1 0xA0 SHL SUB DUP4 DUP2 AND PUSH1 0x0 SWAP1 DUP2 MSTORE PUSH1 0x1 PUSH1 0x20 SWAP1 DUP2 MSTORE PUSH1 0x40 DUP1 DUP4 KECCAK256 SWAP4 DUP7 AND DUP4 MSTORE SWAP3 SWAP1 MSTORE KECCAK256 SLOAD PUSH1 0x0 NOT DUP2 LT ISZERO PUSH2 0x48B JUMPI DUP2 DUP2 LT ISZERO PUSH2 0x47C JUMPI PUSH1 0x40 MLOAD PUSH4 0x7DC7A0D9 PUSH1 0xE1 SHL DUP2 MSTORE PUSH1 0x1 PUSH1 0x1 PUSH1 0xA0 SHL SUB DUP5 AND PUSH1 0x4 DUP3 ADD MSTORE PUSH1 0x24 DUP2 ADD DUP3 SWAP1 MSTORE PUSH1 0x44 DUP2 ADD DUP4 SWAP1 MSTORE PUSH1 0x64 ADD PUSH2 0x350 JUMP JUMPDEST PUSH2 0x48B DUP5 DUP5 DUP5 DUP5 SUB PUSH1 0x0 PUSH2 0x55C JUMP JUMPDEST POP POP POP POP JUMP JUMPDEST PUSH1 0x1 PUSH1 0x1 PUSH1 0xA0 SHL SUB DUP4 AND PUSH2 0x4BB JUMPI PUSH1 0x40 MLOAD PUSH4 0x4B637E8F PUSH1 0xE1 SHL DUP2 MSTORE PUSH1 0x0 PUSH1 0x4 DUP3 ADD MSTORE PUSH1 0x24 ADD PUSH2 0x350 JUMP JUMPDEST PUSH1 0x1 PUSH1 0x1 PUSH1 0xA0 SHL SUB DUP3 AND PUSH2 0x4E5 JUMPI PUSH1 0x40 MLOAD PUSH4 0xEC442F05 PUSH1 0xE0 SHL DUP2 MSTORE PUSH1 0x0 PUSH1 0x4 DUP3 ADD MSTORE PUSH1 0x24 ADD PUSH2 0x350 JUMP JUMPDEST PUSH2 0x40D DUP4 DUP4 DUP4 PUSH2 0x631 JUMP JUMPDEST PUSH1 0x1 PUSH1 0x1 PUSH1 0xA0 SHL SUB DUP3 AND PUSH2 0x51A JUMPI PUSH1 0x40 MLOAD PUSH4 0xEC442F05 PUSH1 0xE0 SHL DUP2 MSTORE PUSH1 0x0 PUSH1 0x4 DUP3 ADD MSTORE PUSH1 0x24 ADD PUSH2 0x350 JUMP JUMPDEST PUSH2 0x363 PUSH1 0x0 DUP4 DUP4 PUSH2 0x631 JUMP JUMPDEST PUSH1 0x1 PUSH1 0x1 PUSH1 0xA0 SHL SUB DUP3 AND PUSH2 0x550 JUMPI PUSH1 0x40 MLOAD PUSH4 0x4B637E8F PUSH1 0xE1 SHL DUP2 MSTORE PUSH1 0x0 PUSH1 0x4 DUP3 ADD MSTORE PUSH1 0x24 ADD PUSH2 0x350 JUMP JUMPDEST PUSH2 0x363 DUP3 PUSH1 0x0 DUP4 PUSH2 0x631 JUMP JUMPDEST PUSH1 0x1 PUSH1 0x1 PUSH1 0xA0 SHL SUB DUP5 AND PUSH2 0x586 JUMPI PUSH1 0x40 MLOAD PUSH4 0xE602DF05 PUSH1 0xE0 SHL DUP2 MSTORE PUSH1 0x0 PUSH1 0x4 DUP3 ADD MSTORE PUSH1 0x24 ADD PUSH2 0x350 JUMP JUMPDEST PUSH1 0x1 PUSH1 0x1 PUSH1 0xA0 SHL SUB DUP4 AND PUSH2 0x5B0 JUMPI PUSH1 0x40 MLOAD PUSH4 0x4A1406B1 PUSH1 0xE1 SHL DUP2 MSTORE PUSH1 0x0 PUSH1 0x4 DUP3 ADD MSTORE PUSH1 0x24 ADD PUSH2 0x350 JUMP JUMPDEST PUSH1 0x1 PUSH1 0x1 PUSH1 0xA0 SHL SUB DUP1 DUP6 AND PUSH1 0x0 SWAP1 DUP2 MSTORE PUSH1 0x1 PUSH1 0x20 SWAP1 DUP2 MSTORE PUSH1 0x40 DUP1 DUP4 KECCAK256 SWAP4 DUP8 AND DUP4 MSTORE SWAP3 SWAP1 MSTORE KECCAK256 DUP3 SWAP1 SSTORE DUP1 ISZERO PUSH2 0x48B JUMPI DUP3 PUSH1 0x1 PUSH1 0x1 PUSH1 0xA0 SHL SUB AND DUP5 PUSH1 0x1 PUSH1 0x1 PUSH1 0xA0 SHL SUB AND PUSH32 0x8C5BE1E5EBEC7D5BD14F71427D1E84F3DD0314C0F7B2291E5B200AC8C7C3B925 DUP5 PUSH1 0x40 MLOAD PUSH2 0x623 SWAP2 DUP2 MSTORE PUSH1 0x20 ADD SWAP1 JUMP JUMPDEST PUSH1 0x40 MLOAD DUP1 SWAP2 SUB SWAP1 LOG3 POP POP POP POP JUMP JUMPDEST PUSH1 0x1 PUSH1 0x1 PUSH1 0xA0 SHL SUB DUP4 AND PUSH2 0x65C JUMPI DUP1 PUSH1 0x2 PUSH1 0x0 DUP3 DUP3 SLOAD PUSH2 0x651 SWAP2 SWAP1 PUSH2 0x8BA JUMP JUMPDEST SWAP1 SWAP2 SSTORE POP PUSH2 0x6CE SWAP1 POP JUMP JUMPDEST PUSH1 0x1 PUSH1 0x1 PUSH1 0xA0 SHL SUB DUP4 AND PUSH1 0x0 SWAP1 DUP2 MSTORE PUSH1 0x20 DUP2 SWAP1 MSTORE PUSH1 0x40 SWAP1 KECCAK256 SLOAD DUP2 DUP2 LT ISZERO PUSH2 0x6AF JUMPI PUSH1 0x40 MLOAD PUSH4 0x391434E3 PUSH1 0xE2 SHL DUP2 MSTORE PUSH1 0x1 PUSH1 0x1 PUSH1 0xA0 SHL SUB DUP6 AND PUSH1 0x4 DUP3 ADD MSTORE PUSH1 0x24 DUP2 ADD DUP3 SWAP1 MSTORE PUSH1 0x44 DUP2 ADD DUP4 SWAP1 MSTORE PUSH1 0x64 ADD PUSH2 0x350 JUMP JUMPDEST PUSH1 0x1 PUSH1 0x1 PUSH1 0xA0 SHL SUB DUP5 AND PUSH1 0x0 SWAP1 DUP2 MSTORE PUSH1 0x20 DUP2 SWAP1 MSTORE PUSH1 0x40 SWAP1 KECCAK256 SWAP1 DUP3 SWAP1 SUB SWAP1 SSTORE JUMPDEST PUSH1 0x1 PUSH1 0x1 PUSH1 0xA0 SHL SUB DUP3 AND PUSH2 0x6EA JUMPI PUSH1 0x2 DUP1 SLOAD DUP3 SWAP1 SUB SWAP1 SSTORE PUSH2 0x709 JUMP JUMPDEST PUSH1 0x1 PUSH1 0x1 PUSH1 0xA0 SHL SUB DUP3 AND PUSH1 0x0 SWAP1 DUP2 MSTORE PUSH1 0x20 DUP2 SWAP1 MSTORE PUSH1 0x40 SWAP1 KECCAK256 DUP1 SLOAD DUP3 ADD SWAP1 SSTORE JUMPDEST DUP2 PUSH1 0x1 PUSH1 0x1 PUSH1 0xA0 SHL SUB AND DUP4 PUSH1 0x1 PUSH1 0x1 PUSH1 0xA0 SHL SUB AND PUSH32 0xDDF252AD1BE2C89B69C2B068FC378DAA952BA7F163C4A11628F55A4DF523B3EF DUP4 PUSH1 0x40 MLOAD PUSH2 0x74E SWAP2 DUP2 MSTORE PUSH1 0x20 ADD SWAP1 JUMP JUMPDEST PUSH1 0x40 MLOAD DUP1 SWAP2 SUB SWAP1 LOG3 POP POP POP JUMP JUMPDEST PUSH1 0x0 PUSH1 0x20 DUP1 DUP4 MSTORE DUP4 MLOAD DUP1 DUP3 DUP6 ADD MSTORE PUSH1 0x0 JUMPDEST DUP2 DUP2 LT ISZERO PUSH2 0x788 JUMPI DUP6 DUP2 ADD DUP4 ADD MLOAD DUP6 DUP3 ADD PUSH1 0x40 ADD MSTORE DUP3 ADD PUSH2 0x76C JUMP JUMPDEST POP PUSH1 0x0 PUSH1 0x40 DUP3 DUP7 ADD ADD MSTORE PUSH1 0x40 PUSH1 0x1F NOT PUSH1 0x1F DUP4 ADD AND DUP6 ADD ADD SWAP3 POP POP POP SWAP3 SWAP2 POP POP JUMP JUMPDEST DUP1 CALLDATALOAD PUSH1 0x1 PUSH1 0x1 PUSH1 0xA0 SHL SUB DUP2 AND DUP2 EQ PUSH2 0x7C0 JUMPI PUSH1 0x0 DUP1 REVERT JUMPDEST SWAP2 SWAP1 POP JUMP JUMPDEST PUSH1 0x0 DUP1 PUSH1 0x40 DUP4 DUP6 SUB SLT ISZERO PUSH2 0x7D8 JUMPI PUSH1 0x0 DUP1 REVERT JUMPDEST PUSH2 0x7E1 DUP4 PUSH2 0x7A9 JUMP JUMPDEST SWAP5 PUSH1 0x20 SWAP4 SWAP1 SWAP4 ADD CALLDATALOAD SWAP4 POP POP POP JUMP JUMPDEST PUSH1 0x0 DUP1 PUSH1 0x0 PUSH1 0x60 DUP5 DUP7 SUB SLT ISZERO PUSH2 0x804 JUMPI PUSH1 0x0 DUP1 REVERT JUMPDEST PUSH2 0x80D DUP5 PUSH2 0x7A9 JUMP JUMPDEST SWAP3 POP PUSH2 0x81B PUSH1 0x20 DUP6 ADD PUSH2 0x7A9 JUMP JUMPDEST SWAP2 POP PUSH1 0x40 DUP5 ADD CALLDATALOAD SWAP1 POP SWAP3 POP SWAP3 POP SWAP3 JUMP JUMPDEST PUSH1 0x0 PUSH1 0x20 DUP3 DUP5 SUB SLT ISZERO PUSH2 0x83D JUMPI PUSH1 0x0 DUP1 REVERT JUMPDEST PUSH2 0x846 DUP3 PUSH2 0x7A9 JUMP JUMPDEST SWAP4 SWAP3 POP POP POP JUMP JUMPDEST PUSH1 0x0 DUP1 PUSH1 0x40 DUP4 DUP6 SUB SLT ISZERO PUSH2 0x860 JUMPI PUSH1 0x0 DUP1 REVERT JUMPDEST PUSH2 0x869 DUP4 PUSH2 0x7A9 JUMP JUMPDEST SWAP2 POP PUSH2 0x877 PUSH1 0x20 DUP5 ADD PUSH2 0x7A9 JUMP JUMPDEST SWAP1 POP SWAP3 POP SWAP3 SWAP1 POP JUMP JUMPDEST PUSH1 0x1 DUP2 DUP2 SHR SWAP1 DUP3 AND DUP1 PUSH2 0x894 JUMPI PUSH1 0x7F DUP3 AND SWAP2 POP JUMPDEST PUSH1 0x20 DUP3 LT DUP2 SUB PUSH2 0x8B4 JUMPI PUSH4 0x4E487B71 PUSH1 0xE0 SHL PUSH1 0x0 MSTORE PUSH1 0x22 PUSH1 0x4 MSTORE PUSH1 0x24 PUSH1 0x0 REVERT JUMPDEST POP SWAP2 SWAP1 POP JUMP JUMPDEST DUP1 DUP3 ADD DUP1 DUP3 GT ISZERO PUSH2 0x2B8 JUMPI PUSH4 0x4E487B71 PUSH1 0xE0 SHL PUSH1 0x0 MSTORE PUSH1 0x11 PUSH1 0x4 MSTORE PUSH1 0x24 PUSH1 0x0 REVERT INVALID LOG2 PUSH5 0x6970667358 0x22 SLT KECCAK256 0xBD SWAP4 PUSH13 0x1763FCC336C7D1C45F774D88AB PUSH17 0x33A66070011519DBD3906D16D2CCB16473 PUSH16 0x6C634300081400330000000000000000 "},"methodIdentifiers":{"baseRatePerBlockBUSD()":"2f5b0aba","baseRatePerBlockCOL()":"fd47fbf2","borrowBUSD(uint256)":"4577848e","borrowCOL(uint256)":"4564987a","borrowIndexBUSD()":"bf83df13","borrowIndexCOL()":"ba08ff9b","depositBUSD(uint256)":"46bfe1df","depositCOL(uint256)":"056fd0f7","depositCollateralPBUSD(uint256)":"a178f59d","depositCollateralPCOL(uint256)":"a3e3d86e","depositFeeBps()":"ab879827","flashLoan(address,address,uint256,bytes)":"5cffe9de","flashLoanFeeBps()":"c0c7347e","getBorrowAPYBUSD()":"19b87fe8","getBorrowAPYCOL()":"30e0c05e","getBorrowIndexBUSDView()":"fdd73f41","getBorrowIndexCOLView()":"82463417","getBorrowRatePerBlockBUSD()":"38124fa4","getBorrowRatePerBlockCOL()":"3c6ce203","getCurrentDebtBUSD(address)":"4454a10e","getCurrentDebtCOL(address)":"2beabef3","getFlashLoanFee(uint256)":"8dd2a7cf","getHealthFactorPBUSD(address)":"226f4b4e","getHealthFactorPCOL(address)":"326770f2","getMaxBorrowBUSD(address)":"1c1318eb","getMaxBorrowCOL(address)":"752e6088","getPriceBUSDIn8()":"ac72d9ac","getPriceCOLIn8()":"f205743f","getSupplyAPYBUSD()":"a1957856","getSupplyAPYCOL()":"6e2e4659","getUserPositionPBUSD(address)":"b7be98ab","getUserPositionPCOL(address)":"e68a5c04","getUtilizationBUSD()":"a74f0bfa","getUtilizationCOL()":"3d60db5a","governanceToken()":"f96dae0a","isLiquidatablePBUSD(address)":"f9efd058","isLiquidatablePCOL(address)":"adcd54a7","lastBlockBUSD()":"8edb376c","lastBlockCOL()":"f4216de1","liquidateBUSD(address)":"ffdee98d","liquidateCOL(address)":"68532c95","liquidationBonus()":"7b7c1f4c","liquidationThresholdPBUSD()":"70f5407d","liquidationThresholdPCOL()":"e3709b46","lockedPBUSD(address)":"21c61671","lockedPCOL(address)":"28a88d23","optimalUtilizationBUSD()":"2b536beb","optimalUtilizationCOL()":"2aa842b1","pbusdToken()":"128078a7","pcolToken()":"1f59d2b8","repayBUSD(uint256)":"f5908219","repayCOL(uint256)":"f678e9d7","reserveFactorBpsBUSD()":"8617d017","reserveFactorBpsCOL()":"3c5607a5","rewardPerBorrow()":"26bbb608","rewardPerDeposit()":"ea4e2fd2","scaledDebtBUSD(address)":"01fbcfde","scaledDebtCOL(address)":"dceba451","slope1PerBlockBUSD()":"e9e582b9","slope1PerBlockCOL()":"e229ae9e","slope2PerBlockBUSD()":"9f168ed8","slope2PerBlockCOL()":"99cea1ba","tokenBUSD()":"213ef7f7","tokenCOL()":"cbe98e3b","totalScaledDebtBUSD()":"c0656bd0","totalScaledDebtCOL()":"737808f4","withdrawBUSD(uint256)":"cc3bcaf3","withdrawCOL(uint256)":"7502237b","withdrawCollateralPBUSD(uint256)":"a32447bc","withdrawCollateralPCOL(uint256)":"edc38cb4"}}}}}