{"contracts/PCOLBUSDPool.sol":{"PCOLBUSDPool":{"abi":[{"inputs":[{"internalType":"address","name":"_tokenCOL","type":"address"},{"internalType":"address","name":"_tokenBUSD","type":"address"},{"internalType":"address","name":"_governanceToken","type":"address"}],"stateMutability":"nonpayable","type":"constructor"},{"inputs":[],"name":"ReentrancyGuardReentrantCall","type":"error"},{"inputs":[{"internalType":"address","name":"token","type":"address"}],"name":"SafeERC20FailedOperation","type":"error"},{"anonymous":false,"inputs":[{"indexed":true,"internalType":"address","name":"user","type":"address"},{"indexed":false,"internalType":"uint256","name":"amount","type":"uint256"}],"name":"BorrowBUSD","type":"event"},{"anonymous":false,"inputs":[{"indexed":true,"internalType":"address","name":"user","type":"address"},{"indexed":false,"internalType":"uint256","name":"amount","type":"uint256"}],"name":"BorrowCOL","type":"event"},{"anonymous":false,"inputs":[{"indexed":true,"internalType":"address","name":"user","type":"address"},{"indexed":false,"internalType":"uint256","name":"amount","type":"uint256"},{"indexed":false,"internalType":"uint256","name":"pbusdMinted","type":"uint256"}],"name":"DepositBUSD","type":"event"},{"anonymous":false,"inputs":[{"indexed":true,"internalType":"address","name":"user","type":"address"},{"indexed":false,"internalType":"uint256","name":"amount","type":"uint256"},{"indexed":false,"internalType":"uint256","name":"pcolMinted","type":"uint256"}],"name":"DepositCOL","type":"event"},{"anonymous":false,"inputs":[{"indexed":true,"internalType":"address","name":"user","type":"address"},{"indexed":false,"internalType":"uint256","name":"amount","type":"uint256"}],"name":"DepositCollateralPBUSD","type":"event"},{"anonymous":false,"inputs":[{"indexed":true,"internalType":"address","name":"user","type":"address"},{"indexed":false,"internalType":"uint256","name":"amount","type":"uint256"}],"name":"DepositCollateralPCOL","type":"event"},{"anonymous":false,"inputs":[{"indexed":true,"internalType":"address","name":"receiver","type":"address"},{"indexed":true,"internalType":"address","name":"asset","type":"address"},{"indexed":false,"internalType":"uint256","name":"amount","type":"uint256"},{"indexed":false,"internalType":"uint256","name":"fee","type":"uint256"}],"name":"FlashLoan","type":"event"},{"anonymous":false,"inputs":[{"indexed":true,"internalType":"address","name":"liquidator","type":"address"},{"indexed":true,"internalType":"address","name":"user","type":"address"},{"indexed":false,"internalType":"uint256","name":"debtRepaid","type":"uint256"},{"indexed":false,"internalType":"uint256","name":"pcolReceived","type":"uint256"}],"name":"LiquidateBUSD","type":"event"},{"anonymous":false,"inputs":[{"indexed":true,"internalType":"address","name":"liquidator","type":"address"},{"indexed":true,"internalType":"address","name":"user","type":"address"},{"indexed":false,"internalType":"uint256","name":"debtRepaid","type":"uint256"},{"indexed":false,"internalType":"uint256","name":"pbusdReceived","type":"uint256"}],"name":"LiquidateCOL","type":"event"},{"anonymous":false,"inputs":[{"indexed":true,"internalType":"address","name":"user","type":"address"},{"indexed":false,"internalType":"uint256","name":"amount","type":"uint256"}],"name":"RepayBUSD","type":"event"},{"anonymous":false,"inputs":[{"indexed":true,"internalType":"address","name":"user","type":"address"},{"indexed":false,"internalType":"uint256","name":"amount","type":"uint256"}],"name":"RepayCOL","type":"event"},{"anonymous":false,"inputs":[{"indexed":true,"internalType":"address","name":"user","type":"address"},{"indexed":false,"internalType":"uint256","name":"amount","type":"uint256"},{"indexed":false,"internalType":"uint256","name":"pbusdBurned","type":"uint256"}],"name":"WithdrawBUSD","type":"event"},{"anonymous":false,"inputs":[{"indexed":true,"internalType":"address","name":"user","type":"address"},{"indexed":false,"internalType":"uint256","name":"amount","type":"uint256"},{"indexed":false,"internalType":"uint256","name":"pcolBurned","type":"uint256"}],"name":"WithdrawCOL","type":"event"},{"anonymous":false,"inputs":[{"indexed":true,"internalType":"address","name":"user","type":"address"},{"indexed":false,"internalType":"uint256","name":"amount","type":"uint256"}],"name":"WithdrawCollateralPBUSD","type":"event"},{"anonymous":false,"inputs":[{"indexed":true,"internalType":"address","name":"user","type":"address"},{"indexed":false,"internalType":"uint256","name":"amount","type":"uint256"}],"name":"WithdrawCollateralPCOL","type":"event"},{"inputs":[],"name":"baseRatePerBlockBUSD","outputs":[{"internalType":"uint256","name":"","type":"uint256"}],"stateMutability":"view","type":"function"},{"inputs":[],"name":"baseRatePerBlockCOL","outputs":[{"internalType":"uint256","name":"","type":"uint256"}],"stateMutability":"view","type":"function"},{"inputs":[{"internalType":"uint256","name":"amount","type":"uint256"}],"name":"borrowBUSD","outputs":[],"stateMutability":"nonpayable","type":"function"},{"inputs":[{"internalType":"uint256","name":"amount","type":"uint256"}],"name":"borrowCOL","outputs":[],"stateMutability":"nonpayable","type":"function"},{"inputs":[],"name":"borrowIndexBUSD","outputs":[{"internalType":"uint256","name":"","type":"uint256"}],"stateMutability":"view","type":"function"},{"inputs":[],"name":"borrowIndexCOL","outputs":[{"internalType":"uint256","name":"","type":"uint256"}],"stateMutability":"view","type":"function"},{"inputs":[{"internalType":"uint256","name":"amount","type":"uint256"}],"name":"depositBUSD","outputs":[],"stateMutability":"nonpayable","type":"function"},{"inputs":[{"internalType":"uint256","name":"amount","type":"uint256"}],"name":"depositCOL","outputs":[],"stateMutability":"nonpayable","type":"function"},{"inputs":[{"internalType":"uint256","name":"amount","type":"uint256"}],"name":"depositCollateralPBUSD","outputs":[],"stateMutability":"nonpayable","type":"function"},{"inputs":[{"internalType":"uint256","name":"amount","type":"uint256"}],"name":"depositCollateralPCOL","outputs":[],"stateMutability":"nonpayable","type":"function"},{"inputs":[{"internalType":"address","name":"receiverAddress","type":"address"},{"internalType":"address","name":"asset","type":"address"},{"internalType":"uint256","name":"amount","type":"uint256"},{"internalType":"bytes","name":"params","type":"bytes"}],"name":"flashLoan","outputs":[],"stateMutability":"nonpayable","type":"function"},{"inputs":[],"name":"flashLoanFeeBps","outputs":[{"internalType":"uint256","name":"","type":"uint256"}],"stateMutability":"view","type":"function"},{"inputs":[],"name":"getBorrowAPYBUSD","outputs":[{"internalType":"uint256","name":"","type":"uint256"}],"stateMutability":"view","type":"function"},{"inputs":[],"name":"getBorrowAPYCOL","outputs":[{"internalType":"uint256","name":"","type":"uint256"}],"stateMutability":"view","type":"function"},{"inputs":[],"name":"getBorrowIndexBUSDView","outputs":[{"internalType":"uint256","name":"","type":"uint256"}],"stateMutability":"view","type":"function"},{"inputs":[],"name":"getBorrowIndexCOLView","outputs":[{"internalType":"uint256","name":"","type":"uint256"}],"stateMutability":"view","type":"function"},{"inputs":[],"name":"getBorrowRatePerBlockBUSD","outputs":[{"internalType":"uint256","name":"","type":"uint256"}],"stateMutability":"view","type":"function"},{"inputs":[],"name":"getBorrowRatePerBlockCOL","outputs":[{"internalType":"uint256","name":"","type":"uint256"}],"stateMutability":"view","type":"function"},{"inputs":[{"internalType":"address","name":"user","type":"address"}],"name":"getCurrentDebtBUSD","outputs":[{"internalType":"uint256","name":"","type":"uint256"}],"stateMutability":"view","type":"function"},{"inputs":[{"internalType":"address","name":"user","type":"address"}],"name":"getCurrentDebtCOL","outputs":[{"internalType":"uint256","name":"","type":"uint256"}],"stateMutability":"view","type":"function"},{"inputs":[{"internalType":"uint256","name":"amount","type":"uint256"}],"name":"getFlashLoanFee","outputs":[{"internalType":"uint256","name":"","type":"uint256"}],"stateMutability":"view","type":"function"},{"inputs":[{"internalType":"address","name":"user","type":"address"}],"name":"getHealthFactorPBUSD","outputs":[{"internalType":"uint256","name":"","type":"uint256"}],"stateMutability":"view","type":"function"},{"inputs":[{"internalType":"address","name":"user","type":"address"}],"name":"getHealthFactorPCOL","outputs":[{"internalType":"uint256","name":"","type":"uint256"}],"stateMutability":"view","type":"function"},{"inputs":[{"internalType":"address","name":"user","type":"address"}],"name":"getMaxBorrowBUSD","outputs":[{"internalType":"uint256","name":"","type":"uint256"}],"stateMutability":"view","type":"function"},{"inputs":[{"internalType":"address","name":"user","type":"address"}],"name":"getMaxBorrowCOL","outputs":[{"internalType":"uint256","name":"","type":"uint256"}],"stateMutability":"view","type":"function"},{"inputs":[],"name":"getPriceBUSDIn8","outputs":[{"internalType":"uint256","name":"","type":"uint256"}],"stateMutability":"pure","type":"function"},{"inputs":[],"name":"getPriceCOLIn8","outputs":[{"internalType":"uint256","name":"","type":"uint256"}],"stateMutability":"view","type":"function"},{"inputs":[],"name":"getSupplyAPYBUSD","outputs":[{"internalType":"uint256","name":"","type":"uint256"}],"stateMutability":"view","type":"function"},{"inputs":[],"name":"getSupplyAPYCOL","outputs":[{"internalType":"uint256","name":"","type":"uint256"}],"stateMutability":"view","type":"function"},{"inputs":[{"internalType":"address","name":"user","type":"address"}],"name":"getUserPositionPBUSD","outputs":[{"internalType":"uint256","name":"collateralPBUSD","type":"uint256"},{"internalType":"uint256","name":"debtCOL_","type":"uint256"}],"stateMutability":"view","type":"function"},{"inputs":[{"internalType":"address","name":"user","type":"address"}],"name":"getUserPositionPCOL","outputs":[{"internalType":"uint256","name":"collateralPCOL","type":"uint256"},{"internalType":"uint256","name":"debtBUSD_","type":"uint256"}],"stateMutability":"view","type":"function"},{"inputs":[],"name":"getUtilizationBUSD","outputs":[{"internalType":"uint256","name":"","type":"uint256"}],"stateMutability":"view","type":"function"},{"inputs":[],"name":"getUtilizationCOL","outputs":[{"internalType":"uint256","name":"","type":"uint256"}],"stateMutability":"view","type":"function"},{"inputs":[],"name":"governanceToken","outputs":[{"internalType":"contract GovernanceToken","name":"","type":"address"}],"stateMutability":"view","type":"function"},{"inputs":[{"internalType":"address","name":"user","type":"address"}],"name":"isLiquidatablePBUSD","outputs":[{"internalType":"bool","name":"","type":"bool"}],"stateMutability":"view","type":"function"},{"inputs":[{"internalType":"address","name":"user","type":"address"}],"name":"isLiquidatablePCOL","outputs":[{"internalType":"bool","name":"","type":"bool"}],"stateMutability":"view","type":"function"},{"inputs":[],"name":"lastBlockBUSD","outputs":[{"internalType":"uint256","name":"","type":"uint256"}],"stateMutability":"view","type":"function"},{"inputs":[],"name":"lastBlockCOL","outputs":[{"internalType":"uint256","name":"","type":"uint256"}],"stateMutability":"view","type":"function"},{"inputs":[{"internalType":"address","name":"user","type":"address"}],"name":"liquidateBUSD","outputs":[],"stateMutability":"nonpayable","type":"function"},{"inputs":[{"internalType":"address","name":"user","type":"address"}],"name":"liquidateCOL","outputs":[],"stateMutability":"nonpayable","type":"function"},{"inputs":[],"name":"liquidationBonus","outputs":[{"internalType":"uint256","name":"","type":"uint256"}],"stateMutability":"view","type":"function"},{"inputs":[],"name":"liquidationThreshold","outputs":[{"internalType":"uint256","name":"","type":"uint256"}],"stateMutability":"view","type":"function"},{"inputs":[{"internalType":"address","name":"","type":"address"}],"name":"lockedPBUSD","outputs":[{"internalType":"uint256","name":"","type":"uint256"}],"stateMutability":"view","type":"function"},{"inputs":[{"internalType":"address","name":"","type":"address"}],"name":"lockedPCOL","outputs":[{"internalType":"uint256","name":"","type":"uint256"}],"stateMutability":"view","type":"function"},{"inputs":[],"name":"multiplierPerBlockBUSD","outputs":[{"internalType":"uint256","name":"","type":"uint256"}],"stateMutability":"view","type":"function"},{"inputs":[],"name":"multiplierPerBlockCOL","outputs":[{"internalType":"uint256","name":"","type":"uint256"}],"stateMutability":"view","type":"function"},{"inputs":[],"name":"pbusdToken","outputs":[{"internalType":"contract ReceiptToken","name":"","type":"address"}],"stateMutability":"view","type":"function"},{"inputs":[],"name":"pcolToken","outputs":[{"internalType":"contract ReceiptToken","name":"","type":"address"}],"stateMutability":"view","type":"function"},{"inputs":[{"internalType":"uint256","name":"amount","type":"uint256"}],"name":"repayBUSD","outputs":[],"stateMutability":"nonpayable","type":"function"},{"inputs":[{"internalType":"uint256","name":"amount","type":"uint256"}],"name":"repayCOL","outputs":[],"stateMutability":"nonpayable","type":"function"},{"inputs":[],"name":"reserveFactorBpsBUSD","outputs":[{"internalType":"uint256","name":"","type":"uint256"}],"stateMutability":"view","type":"function"},{"inputs":[],"name":"reserveFactorBpsCOL","outputs":[{"internalType":"uint256","name":"","type":"uint256"}],"stateMutability":"view","type":"function"},{"inputs":[],"name":"rewardPerBorrow","outputs":[{"internalType":"uint256","name":"","type":"uint256"}],"stateMutability":"view","type":"function"},{"inputs":[],"name":"rewardPerDeposit","outputs":[{"internalType":"uint256","name":"","type":"uint256"}],"stateMutability":"view","type":"function"},{"inputs":[{"internalType":"address","name":"","type":"address"}],"name":"scaledDebtBUSD","outputs":[{"internalType":"uint256","name":"","type":"uint256"}],"stateMutability":"view","type":"function"},{"inputs":[{"internalType":"address","name":"","type":"address"}],"name":"scaledDebtCOL","outputs":[{"internalType":"uint256","name":"","type":"uint256"}],"stateMutability":"view","type":"function"},{"inputs":[],"name":"tokenBUSD","outputs":[{"internalType":"address","name":"","type":"address"}],"stateMutability":"view","type":"function"},{"inputs":[],"name":"tokenCOL","outputs":[{"internalType":"address","name":"","type":"address"}],"stateMutability":"view","type":"function"},{"inputs":[],"name":"totalScaledDebtBUSD","outputs":[{"internalType":"uint256","name":"","type":"uint256"}],"stateMutability":"view","type":"function"},{"inputs":[],"name":"totalScaledDebtCOL","outputs":[{"internalType":"uint256","name":"","type":"uint256"}],"stateMutability":"view","type":"function"},{"inputs":[{"internalType":"uint256","name":"amount","type":"uint256"}],"name":"withdrawBUSD","outputs":[],"stateMutability":"nonpayable","type":"function"},{"inputs":[{"internalType":"uint256","name":"amount","type":"uint256"}],"name":"withdrawCOL","outputs":[],"stateMutability":"nonpayable","type":"function"},{"inputs":[{"internalType":"uint256","name":"amount","type":"uint256"}],"name":"withdrawCollateralPBUSD","outputs":[],"stateMutability":"nonpayable","type":"function"},{"inputs":[{"internalType":"uint256","name":"amount","type":"uint256"}],"name":"withdrawCollateralPCOL","outputs":[],"stateMutability":"nonpayable","type":"function"}],"evm":{"bytecode":{"linkReferences":{},"object":"610100604052670de0b6b3a7640000600555670de0b6b3a7640000600655640ba43b7400600b5564746a528800600c556103e8600d55640ba43b7400600e5564746a528800600f556103e8601055611f406011556103e86012556009601355670de0b6b3a764000060145567016345785d8a00006015553480156200008357600080fd5b5060405162004e3538038062004e35833981016040819052620000a6916200031f565b60017f9b779b17422d0df92223018b32b4d1fa46e071723d6817e2486d003becc55f00556001600160a01b03831615801590620000eb57506001600160a01b03821615155b80156200010057506001600160a01b03811615155b620001475760405162461bcd60e51b815260206004820152601260248201527150434f4c42555344506f6f6c3a207a65726f60701b60448201526064015b60405180910390fd5b816001600160a01b0316836001600160a01b031603620001aa5760405162461bcd60e51b815260206004820152601860248201527f50434f4c42555344506f6f6c3a2073616d6520746f6b656e000000000000000060448201526064016200013e565b6001600160a01b03808416608052821660a0526040513090620001cd90620002f4565b606080825260089082015267141bdbdb0810d3d360c21b608082015260a060208201819052600490820152631410d3d360e21b60c08201526001600160a01b03909116604082015260e001604051809103906000f08015801562000235573d6000803e3d6000fd5b506001600160a01b031660c05260405130906200025290620002f4565b606080825260099082015268141bdbdb08109554d160ba1b608082015260a0602082018190526005908201526414109554d160da1b60c08201526001600160a01b03909116604082015260e001604051809103906000f080158015620002bc573d6000803e3d6000fd5b506001600160a01b0390811660e052600080546001600160a01b03191692909116919091179055505043600781905560085562000369565b610cad806200418883390190565b80516001600160a01b03811681146200031a57600080fd5b919050565b6000806000606084860312156200033557600080fd5b620003408462000302565b9250620003506020850162000302565b9150620003606040850162000302565b90509250925092565b60805160a05160c05160e051613ccd620004bb600039600081816104220152818161151d01528181611c1d01528181611c940152818161229701528181612432015261274c01526000818161047c015281816108bc01528181611e96015281816124c00152818161292801528181612f3f0152612fb60152600081816104a301528181610a4b0152818161127e015281816113e1015281816114de0152818161167501528181611fae0152818161256001528181612674015281816127c201528181612a7601528181612efa01528181613124015281816135ae01526137f401526000818161073a0152818161087d01528181610ae101528181610dd701528181610f94015281816110f70152818161163a01528181611bd801528181611dbe01528181611f0c0152818161204401528181612bd90152818161309e0152818161348501526137710152613ccd6000f3fe608060405234801561001057600080fd5b50600436106103d05760003560e01c806382463417116101ff578063c0c7347e1161011a578063f4216de1116100ad578063f9efd0581161007c578063f9efd05814610808578063fd47fbf21461081b578063fdd73f4114610824578063ffdee98d1461082c57600080fd5b8063f4216de1146107c6578063f5908219146107cf578063f678e9d7146107e2578063f96dae0a146107f557600080fd5b8063e68a5c04116100e9578063e68a5c041461078f578063ea4e2fd2146107a2578063edc38cb4146107ab578063f205743f146107be57600080fd5b8063c0c7347e1461072c578063cbe98e3b14610735578063cc3bcaf31461075c578063dceba4511461076f57600080fd5b8063a74f0bfa11610192578063b7be98ab11610161578063b7be98ab146106e9578063ba08ff9b14610711578063bf83df131461071a578063c0656bd01461072357600080fd5b8063a74f0bfa146106ab578063a7a24830146106b3578063ac72d9ac146106bc578063adcd54a7146106c657600080fd5b8063a178f59d116101ce578063a178f59d1461066a578063a19578561461067d578063a32447bc14610685578063a3e3d86e1461069857600080fd5b8063824634171461063d5780638617d017146106455780638dd2a7cf1461064e5780638edb376c1461066157600080fd5b80633c5607a5116102ef5780635cffe9de11610282578063737808f411610251578063737808f4146106055780637502237b1461060e578063752e6088146106215780637b7c1f4c1461063457600080fd5b80635cffe9de146105ce578063643e3fd3146105e157806368532c95146105ea5780636e2e4659146105fd57600080fd5b80634454a10e116102be5780634454a10e146105825780634564987a146105955780634577848e146105a857806346bfe1df146105bb57600080fd5b80633c5607a5146105605780633c6ce203146105695780633d60db5a146105715780634031234c1461057957600080fd5b8063226f4b4e116103675780632f5b0aba116103365780632f5b0aba1461053457806330e0c05e1461053d578063326770f21461054557806338124fa41461055857600080fd5b8063226f4b4e146104e557806326bbb608146104f857806328a88d23146105015780632beabef31461052157600080fd5b80631c1318eb116103a35780631c1318eb146104645780631f59d2b814610477578063213ef7f71461049e57806321c61671146104c557600080fd5b806301fbcfde146103d5578063056fd0f714610408578063128078a71461041d57806319b87fe81461045c575b600080fd5b6103f56103e33660046138ef565b60036020526000908152604090205481565b6040519081526020015b60405180910390f35b61041b61041636600461390a565b61083f565b005b6104447f000000000000000000000000000000000000000000000000000000000000000081565b6040516001600160a01b0390911681526020016103ff565b6103f56109ed565b6103f56104723660046138ef565b610a0a565b6104447f000000000000000000000000000000000000000000000000000000000000000081565b6104447f000000000000000000000000000000000000000000000000000000000000000081565b6103f56104d33660046138ef565b60026020526000908152604090205481565b6103f56104f33660046138ef565b610c13565b6103f560155481565b6103f561050f3660046138ef565b60016020526000908152604090205481565b6103f561052f3660046138ef565b610ca8565b6103f5600b5481565b6103f5610cee565b6103f56105533660046138ef565b610cfc565b6103f5610d39565b6103f560105481565b6103f5610d7a565b6103f5610db5565b6103f560115481565b6103f56105903660046138ef565b610eb1565b61041b6105a336600461390a565b610ee7565b61041b6105b636600461390a565b6111db565b61041b6105c936600461390a565b6114a9565b61041b6105dc366004613923565b611630565b6103f5600f5481565b61041b6105f83660046138ef565b6119fa565b6103f5611d1e565b6103f5600a5481565b61041b61061c36600461390a565b611d7f565b6103f561062f3660046138ef565b611f6d565b6103f560125481565b6103f5612165565b6103f5600d5481565b6103f561065c36600461390a565b61224f565b6103f560075481565b61041b61067836600461390a565b612262565b6103f5612315565b61041b61069336600461390a565b612351565b61041b6106a636600461390a565b61248b565b6103f561253e565b6103f5600c5481565b6305f5e1006103f5565b6106d96106d43660046138ef565b6125ed565b60405190151581526020016103ff565b6106fc6106f73660046138ef565b612608565b604080519283526020830191909152016103ff565b6103f560065481565b6103f560055481565b6103f560095481565b6103f560135481565b6104447f000000000000000000000000000000000000000000000000000000000000000081565b61041b61076a36600461390a565b612635565b6103f561077d3660046138ef565b60046020526000908152604090205481565b6106fc61079d3660046138ef565b612823565b6103f560145481565b61041b6107b936600461390a565b612847565b6103f5612981565b6103f560085481565b61041b6107dd36600461390a565b61298b565b61041b6107f036600461390a565b612aee565b600054610444906001600160a01b031681565b6106d96108163660046138ef565b612c33565b6103f5600e5481565b6103f5612c47565b61041b61083a3660046138ef565b612d1c565b610847613020565b600081116108705760405162461bcd60e51b8152600401610867906139be565b60405180910390fd5b6108a56001600160a01b037f00000000000000000000000000000000000000000000000000000000000000001633308461303c565b6040516340c10f1960e01b81526001600160a01b037f000000000000000000000000000000000000000000000000000000000000000016906340c10f19906108f390339085906004016139ea565b600060405180830381600087803b15801561090d57600080fd5b505af1158015610921573d6000803e3d6000fd5b505050506000601454111561099757600054601454604051634d24848760e11b81526001600160a01b0390921691639a49090e91610964913391906004016139ea565b600060405180830381600087803b15801561097e57600080fd5b505af1158015610992573d6000803e3d6000fd5b505050505b604080518281526020810183905233917f69cf9c0357203eb60830c3c768cc9adf5436120832d38c926997c4523adc816791015b60405180910390a26109ea6001600080516020613c7883398151915255565b50565b6000622014806109fb610d39565b610a059190613a19565b905090565b6001600160a01b038116600090815260016020526040812054808203610a335750600092915050565b6040516370a0823160e01b81523060048201526000907f00000000000000000000000000000000000000000000000000000000000000006001600160a01b0316906370a0823190602401602060405180830381865afa158015610a9a573d6000803e3d6000fd5b505050506040513d601f19601f82011682018060405250810190610abe9190613a30565b6040516370a0823160e01b81523060048201529091506000906001600160a01b037f000000000000000000000000000000000000000000000000000000000000000016906370a0823190602401602060405180830381865afa158015610b28573d6000803e3d6000fd5b505050506040513d601f19601f82011682018060405250810190610b4c9190613a30565b905080600003610b6157506000949350505050565b6000610b6c86610eb1565b601154909150600081610b7f8688613a19565b610b899190613a19565b90506000612710610b9a8686613a19565b610ba49190613a19565b9050808211610bbc5750600098975050505050505050565b6000610bca61271087613a19565b610bd4858a613a19565b610bde9190613a49565b610be88385613a5c565b610bf29190613a85565b905086808211610c025781610c04565b805b9b9a5050505050505050505050565b600080610c1f83610ca8565b905080600003610c33575060001992915050565b6000610c3d613078565b610c479083613a19565b90506000610c54856131f1565b905081600003610c6a5750600019949350505050565b610c7661271083613a19565b601154610c839083613a19565b610c9590670de0b6b3a7640000613a19565b610c9f9190613a85565b95945050505050565b6000670de0b6b3a7640000610cbb612165565b6001600160a01b038416600090815260046020526040902054610cde9190613a19565b610ce89190613a85565b92915050565b6000622014806109fb610d7a565b600080610d0883610eb1565b905080600003610d1c575060001992915050565b6000610d2c6305f5e10083613a19565b90506000610c5485613219565b600080610d4461253e565b9050670de0b6b3a764000081600c54610d5d9190613a19565b610d679190613a85565b600b54610d749190613a49565b91505090565b600080610d85610db5565b9050670de0b6b3a764000081600f54610d9e9190613a19565b610da89190613a85565b600e54610d749190613a49565b6040516370a0823160e01b815230600482015260009081906001600160a01b037f000000000000000000000000000000000000000000000000000000000000000016906370a0823190602401602060405180830381865afa158015610e1e573d6000803e3d6000fd5b505050506040513d601f19601f82011682018060405250810190610e429190613a30565b90506000670de0b6b3a7640000610e57612165565b600a54610e649190613a19565b610e6e9190613a85565b90506000610e7c8284613a49565b90508015610ea65780610e9783670de0b6b3a7640000613a19565b610ea19190613a85565b610ea9565b60005b935050505090565b6000670de0b6b3a7640000610ec4612c47565b6001600160a01b038416600090815260036020526040902054610cde9190613a19565b610eef613020565b610ef761325b565b60008111610f175760405162461bcd60e51b8152600401610867906139be565b33600090815260026020526040902054610f7d5760405162461bcd60e51b815260206004820152602160248201527f50434f4c42555344506f6f6c3a206e6f20504255534420636f6c6c61746572616044820152601b60fa1b6064820152608401610867565b6040516370a0823160e01b815230600482015281907f00000000000000000000000000000000000000000000000000000000000000006001600160a01b0316906370a0823190602401602060405180830381865afa158015610fe3573d6000803e3d6000fd5b505050506040513d601f19601f820116820180604052508101906110079190613a30565b10156110555760405162461bcd60e51b815260206004820152601e60248201527f50434f4c42555344506f6f6c3a20696e73756666696369656e7420434f4c00006044820152606401610867565b60065460009061106d83670de0b6b3a7640000613a19565b6110779190613a85565b3360009081526004602052604081208054929350839290919061109b908490613a49565b9250508190555080600a60008282546110b49190613a49565b90915550670de0b6b3a764000090506110cc33610c13565b10156110ea5760405162461bcd60e51b815260040161086790613a99565b61111e6001600160a01b037f0000000000000000000000000000000000000000000000000000000000000000163384613342565b6015541561118d57600054601554604051634d24848760e11b81526001600160a01b0390921691639a49090e9161115a913391906004016139ea565b600060405180830381600087803b15801561117457600080fd5b505af1158015611188573d6000803e3d6000fd5b505050505b60405182815233907f64058ef3fd742704269a61c4d8e869ac215d70d1dfbd716d4746da00fa89a839906020015b60405180910390a2506109ea6001600080516020613c7883398151915255565b6111e3613020565b6111eb61337c565b6000811161120b5760405162461bcd60e51b8152600401610867906139be565b336000908152600160205260409020546112675760405162461bcd60e51b815260206004820181905260248201527f50434f4c42555344506f6f6c3a206e6f2050434f4c20636f6c6c61746572616c6044820152606401610867565b6040516370a0823160e01b815230600482015281907f00000000000000000000000000000000000000000000000000000000000000006001600160a01b0316906370a0823190602401602060405180830381865afa1580156112cd573d6000803e3d6000fd5b505050506040513d601f19601f820116820180604052508101906112f19190613a30565b101561133f5760405162461bcd60e51b815260206004820152601f60248201527f50434f4c42555344506f6f6c3a20696e73756666696369656e742042555344006044820152606401610867565b60055460009061135783670de0b6b3a7640000613a19565b6113619190613a85565b33600090815260036020526040812080549293508392909190611385908490613a49565b92505081905550806009600082825461139e9190613a49565b90915550670de0b6b3a764000090506113b633610cfc565b10156113d45760405162461bcd60e51b815260040161086790613a99565b6114086001600160a01b037f0000000000000000000000000000000000000000000000000000000000000000163384613342565b6015541561147757600054601554604051634d24848760e11b81526001600160a01b0390921691639a49090e91611444913391906004016139ea565b600060405180830381600087803b15801561145e57600080fd5b505af1158015611472573d6000803e3d6000fd5b505050505b60405182815233907ff6fc424a68d90f3f5323be41db315721f4b8843b3799ae1089007f88e2190551906020016111bb565b6114b1613020565b600081116114d15760405162461bcd60e51b8152600401610867906139be565b6115066001600160a01b037f00000000000000000000000000000000000000000000000000000000000000001633308461303c565b6040516340c10f1960e01b81526001600160a01b037f000000000000000000000000000000000000000000000000000000000000000016906340c10f199061155490339085906004016139ea565b600060405180830381600087803b15801561156e57600080fd5b505af1158015611582573d6000803e3d6000fd5b50505050600060145411156115f857600054601454604051634d24848760e11b81526001600160a01b0390921691639a49090e916115c5913391906004016139ea565b600060405180830381600087803b1580156115df57600080fd5b505af11580156115f3573d6000803e3d6000fd5b505050505b604080518281526020810183905233917f8a2298614b2ccbbc8111d5698f4353b52ed97c61821ce6bb845f369a687cf4d391016109cb565b611638613020565b7f00000000000000000000000000000000000000000000000000000000000000006001600160a01b0316846001600160a01b031614806116a957507f00000000000000000000000000000000000000000000000000000000000000006001600160a01b0316846001600160a01b0316145b6116f55760405162461bcd60e51b815260206004820152601960248201527f50434f4c42555344506f6f6c3a20756e737570706f72746564000000000000006044820152606401610867565b600083118015611708575060165460ff16155b6117545760405162461bcd60e51b815260206004820152601b60248201527f50434f4c42555344506f6f6c3a20696e76616c696420666c61736800000000006044820152606401610867565b6000612710601354856117679190613a19565b6117719190613a85565b6016805460ff191660011790556040516370a0823160e01b81523060048201529091506000906001600160a01b038716906370a0823190602401602060405180830381865afa1580156117c8573d6000803e3d6000fd5b505050506040513d601f19601f820116820180604052508101906117ec9190613a30565b90506118026001600160a01b0387168887613342565b604051631b11d0ff60e01b81526001600160a01b03881690631b11d0ff906118389089908990879033908b908b90600401613ac3565b6020604051808303816000875af1158015611857573d6000803e3d6000fd5b505050506040513d601f19601f8201168201806040525081019061187b9190613b1f565b6118c75760405162461bcd60e51b815260206004820152601a60248201527f50434f4c42555344506f6f6c3a20666c617368206661696c65640000000000006044820152606401610867565b6118d18282613a49565b6040516370a0823160e01b81523060048201526001600160a01b038816906370a0823190602401602060405180830381865afa158015611915573d6000803e3d6000fd5b505050506040513d601f19601f820116820180604052508101906119399190613a30565b10156119875760405162461bcd60e51b815260206004820152601860248201527f50434f4c42555344506f6f6c3a206e6f742072657061696400000000000000006044820152606401610867565b6016805460ff1916905560408051868152602081018490526001600160a01b0388811692908a16917f0d7d75e01ab95780d3cd1c8ec0dd6c2ce19e3a20427eec8bf53283b6fb8e95f0910160405180910390a350506119f36001600080516020613c7883398151915255565b5050505050565b611a02613020565b611a0a61325b565b670de0b6b3a7640000611a1c82610c13565b10611a695760405162461bcd60e51b815260206004820152601e60248201527f50434f4c42555344506f6f6c3a206e6f74206c6971756964617461626c6500006044820152606401610867565b6006546001600160a01b0382166000908152600460205260408120549091670de0b6b3a764000091611a9b9190613a19565b611aa59190613a85565b9050600081118015611ace57506001600160a01b03821660009081526002602052604090205415155b611b115760405162461bcd60e51b815260206004820152601460248201527350434f4c42555344506f6f6c3a206e6f20706f7360601b6044820152606401610867565b600654600090611b2983670de0b6b3a7640000613a19565b611b339190613a85565b6001600160a01b0384166000908152600460205260408120819055600a80549293508392909190611b65908490613a5c565b90915550506001600160a01b038316600090815260026020526040812080549082905560125490919061271090611b9c9082613a49565b611ba69084613a19565b611bb09190613a85565b905081811115611bbd5750805b6000611bc98284613a5c565b9050611c006001600160a01b037f00000000000000000000000000000000000000000000000000000000000000001633308861303c565b8015611c8757604051632770a7eb60e21b81526001600160a01b037f00000000000000000000000000000000000000000000000000000000000000001690639dc29fac90611c5490309085906004016139ea565b600060405180830381600087803b158015611c6e57600080fd5b505af1158015611c82573d6000803e3d6000fd5b505050505b611cbb6001600160a01b037f0000000000000000000000000000000000000000000000000000000000000000163384613342565b60408051868152602081018490526001600160a01b0388169133917fe912f4ccb4a26a55bf54b23b7e96fcac60ebc03b3e76ccdb6752b5d8abc7e8f991015b60405180910390a350505050506109ea6001600080516020613c7883398151915255565b600080611d29610db5565b90506000611d35610cee565b9050611d4b612710670de0b6b3a7640000613a19565b601054611d5a90612710613a5c565b611d648484613a19565b611d6e9190613a19565b611d789190613a85565b9250505090565b611d87613020565b60008111611da75760405162461bcd60e51b8152600401610867906139be565b6040516370a0823160e01b815230600482015281907f00000000000000000000000000000000000000000000000000000000000000006001600160a01b0316906370a0823190602401602060405180830381865afa158015611e0d573d6000803e3d6000fd5b505050506040513d601f19601f82011682018060405250810190611e319190613a30565b1015611e7f5760405162461bcd60e51b815260206004820152601e60248201527f50434f4c42555344506f6f6c3a20696e73756666696369656e7420434f4c00006044820152606401610867565b604051632770a7eb60e21b81526001600160a01b037f00000000000000000000000000000000000000000000000000000000000000001690639dc29fac90611ecd90339085906004016139ea565b600060405180830381600087803b158015611ee757600080fd5b505af1158015611efb573d6000803e3d6000fd5b50611f359250506001600160a01b037f00000000000000000000000000000000000000000000000000000000000000001690503383613342565b604080518281526020810183905233917fd36c28d8252079f996f11d24e2776fcdc1e0f4ceadff156993aff84cbfd37a7591016109cb565b6001600160a01b038116600090815260026020526040812054808203611f965750600092915050565b6040516370a0823160e01b81523060048201526000907f00000000000000000000000000000000000000000000000000000000000000006001600160a01b0316906370a0823190602401602060405180830381865afa158015611ffd573d6000803e3d6000fd5b505050506040513d601f19601f820116820180604052508101906120219190613a30565b6040516370a0823160e01b81523060048201529091506000906001600160a01b037f000000000000000000000000000000000000000000000000000000000000000016906370a0823190602401602060405180830381865afa15801561208b573d6000803e3d6000fd5b505050506040513d601f19601f820116820180604052508101906120af9190613a30565b9050806000036120c457506000949350505050565b60006120cf86610ca8565b6011549091506000836120e28388613a19565b6120ec9190613a19565b905060006127106120fd8786613a19565b6121079190613a19565b905080821161211f5750600098975050505050505050565b600061212d61271088613a19565b612137858a613a19565b6121419190613a49565b61214b8385613a5c565b6121559190613a85565b905085808211610c025781610c04565b60006008544311612177575060065490565b6000600854436121879190613a5c565b90506000612196600654613463565b905060006121ac82670de0b6b3a7640000613a49565b9050670de0b6b3a764000083825b8115612223576121cb600283613b41565b6001036121f257670de0b6b3a76400006121e58285613a19565b6121ef9190613a85565b92505b670de0b6b3a76400006122058280613a19565b61220f9190613a85565b905061221c600283613a85565b91506121ba565b670de0b6b3a76400008360065461223a9190613a19565b6122449190613a85565b965050505050505090565b600061271060135483610cde9190613a19565b61226a613020565b6000811161228a5760405162461bcd60e51b8152600401610867906139be565b6122bf6001600160a01b037f00000000000000000000000000000000000000000000000000000000000000001633308461303c565b33600090815260026020526040812080548392906122de908490613a49565b909155505060405181815233907f880138561f4bdf4c4463046399b16f8186186ad3f21982105d09e65905fafb9b906020016109cb565b60008061232061253e565b9050600061232c6109ed565b9050612342612710670de0b6b3a7640000613a19565b600d54611d5a90612710613a5c565b612359613020565b6000811180156123785750336000908152600260205260409020548111155b6123bc5760405162461bcd60e51b81526020600482015260156024820152741410d3d3109554d1141bdbdb0e881a5b9d985b1a59605a1b6044820152606401610867565b33600090815260026020526040812080548392906123db908490613a5c565b9091555050336000908152600460205260409020541561242557670de0b6b3a764000061240733610c13565b10156124255760405162461bcd60e51b815260040161086790613a99565b6124596001600160a01b037f0000000000000000000000000000000000000000000000000000000000000000163383613342565b60405181815233907fb1f9afa3fb91753d83c90b2584137de0980aedcb24565bb6be5a4a044394da51906020016109cb565b612493613020565b600081116124b35760405162461bcd60e51b8152600401610867906139be565b6124e86001600160a01b037f00000000000000000000000000000000000000000000000000000000000000001633308461303c565b3360009081526001602052604081208054839290612507908490613a49565b909155505060405181815233907f92c5aa6131247b5349ebe4c0b884354154558790641067d72925ac93b11a7de5906020016109cb565b6040516370a0823160e01b815230600482015260009081906001600160a01b037f000000000000000000000000000000000000000000000000000000000000000016906370a0823190602401602060405180830381865afa1580156125a7573d6000803e3d6000fd5b505050506040513d601f19601f820116820180604052508101906125cb9190613a30565b90506000670de0b6b3a76400006125e0612c47565b600954610e649190613a19565b6000670de0b6b3a764000061260183610cfc565b1092915050565b6001600160a01b038116600090815260026020526040812054819061262c84610ca8565b91509150915091565b61263d613020565b6000811161265d5760405162461bcd60e51b8152600401610867906139be565b6040516370a0823160e01b815230600482015281907f00000000000000000000000000000000000000000000000000000000000000006001600160a01b0316906370a0823190602401602060405180830381865afa1580156126c3573d6000803e3d6000fd5b505050506040513d601f19601f820116820180604052508101906126e79190613a30565b10156127355760405162461bcd60e51b815260206004820152601f60248201527f50434f4c42555344506f6f6c3a20696e73756666696369656e742042555344006044820152606401610867565b604051632770a7eb60e21b81526001600160a01b037f00000000000000000000000000000000000000000000000000000000000000001690639dc29fac9061278390339085906004016139ea565b600060405180830381600087803b15801561279d57600080fd5b505af11580156127b1573d6000803e3d6000fd5b506127eb9250506001600160a01b037f00000000000000000000000000000000000000000000000000000000000000001690503383613342565b604080518281526020810183905233917f8041f45367f7ccefd38c06ae22c296ca3ad95cf10be3c54c81c11f849f105f2b91016109cb565b6001600160a01b038116600090815260016020526040812054819061262c84610eb1565b61284f613020565b60008111801561286e5750336000908152600160205260409020548111155b6128b25760405162461bcd60e51b81526020600482015260156024820152741410d3d3109554d1141bdbdb0e881a5b9d985b1a59605a1b6044820152606401610867565b33600090815260016020526040812080548392906128d1908490613a5c565b9091555050336000908152600360205260409020541561291b57670de0b6b3a76400006128fd33610cfc565b101561291b5760405162461bcd60e51b815260040161086790613a99565b61294f6001600160a01b037f0000000000000000000000000000000000000000000000000000000000000000163383613342565b60405181815233907f5f2ac0b7ca7309144e88ededc8fa236c0a7019bdc8c02ab6f6db5095752e7cdc906020016109cb565b6000610a05613078565b612993613020565b61299b61337c565b600081116129bb5760405162461bcd60e51b8152600401610867906139be565b600554336000908152600360205260408120549091670de0b6b3a7640000916129e49190613a19565b6129ee9190613a85565b905060008183116129ff5782612a01565b815b9050600060055482670de0b6b3a7640000612a1c9190613a19565b612a269190613a85565b33600090815260036020526040812080549293508392909190612a4a908490613a5c565b925050819055508060096000828254612a639190613a5c565b90915550612a9e90506001600160a01b037f00000000000000000000000000000000000000000000000000000000000000001633308561303c565b60405182815233907fe2d5d60502594d615dd5827340647c7a7a88a014e9896fdef12f6458b60c0432906020015b60405180910390a25050506109ea6001600080516020613c7883398151915255565b612af6613020565b612afe61325b565b60008111612b1e5760405162461bcd60e51b8152600401610867906139be565b600654336000908152600460205260408120549091670de0b6b3a764000091612b479190613a19565b612b519190613a85565b90506000818311612b625782612b64565b815b9050600060065482670de0b6b3a7640000612b7f9190613a19565b612b899190613a85565b33600090815260046020526040812080549293508392909190612bad908490613a5c565b9250508190555080600a6000828254612bc69190613a5c565b90915550612c0190506001600160a01b037f00000000000000000000000000000000000000000000000000000000000000001633308561303c565b60405182815233907fd79a2bc9877030756cd908acbb64634d527091be3edeed80cdea7ed4cf40be0590602001612acc565b6000670de0b6b3a764000061260183610c13565b60006007544311612c59575060055490565b600060075443612c699190613a5c565b90506000612c7860055461358c565b90506000612c8e82670de0b6b3a7640000613a49565b9050670de0b6b3a764000083825b8115612d0557612cad600283613b41565b600103612cd457670de0b6b3a7640000612cc78285613a19565b612cd19190613a85565b92505b670de0b6b3a7640000612ce78280613a19565b612cf19190613a85565b9050612cfe600283613a85565b9150612c9c565b670de0b6b3a76400008360055461223a9190613a19565b612d24613020565b612d2c61337c565b670de0b6b3a7640000612d3e82610cfc565b10612d8b5760405162461bcd60e51b815260206004820152601e60248201527f50434f4c42555344506f6f6c3a206e6f74206c6971756964617461626c6500006044820152606401610867565b6005546001600160a01b0382166000908152600360205260408120549091670de0b6b3a764000091612dbd9190613a19565b612dc79190613a85565b9050600081118015612df057506001600160a01b03821660009081526001602052604090205415155b612e335760405162461bcd60e51b815260206004820152601460248201527350434f4c42555344506f6f6c3a206e6f20706f7360601b6044820152606401610867565b600554600090612e4b83670de0b6b3a7640000613a19565b612e559190613a85565b6001600160a01b0384166000908152600360205260408120819055600980549293508392909190612e87908490613a5c565b90915550506001600160a01b038316600090815260016020526040812080549082905560125490919061271090612ebe9082613a49565b612ec89084613a19565b612ed29190613a85565b905081811115612edf5750805b6000612eeb8284613a5c565b9050612f226001600160a01b037f00000000000000000000000000000000000000000000000000000000000000001633308861303c565b8015612fa957604051632770a7eb60e21b81526001600160a01b037f00000000000000000000000000000000000000000000000000000000000000001690639dc29fac90612f7690309085906004016139ea565b600060405180830381600087803b158015612f9057600080fd5b505af1158015612fa4573d6000803e3d6000fd5b505050505b612fdd6001600160a01b037f0000000000000000000000000000000000000000000000000000000000000000163384613342565b60408051868152602081018490526001600160a01b0388169133917f1df8781babb2ce0b72d80a0d4eb75715b3f84d14598b945effa23c678f239a539101611cfa565b6130286136ab565b6002600080516020613c7883398151915255565b61304a8484848460016136dd565b61307257604051635274afe760e01b81526001600160a01b0385166004820152602401610867565b50505050565b600080600061308561374f565b915091508160000361309a5760009250505090565b60007f00000000000000000000000000000000000000000000000000000000000000006001600160a01b031663313ce5676040518163ffffffff1660e01b8152600401602060405180830381865afa1580156130fa573d6000803e3d6000fd5b505050506040513d601f19601f8201168201806040525081019061311e9190613b55565b905060007f00000000000000000000000000000000000000000000000000000000000000006001600160a01b031663313ce5676040518163ffffffff1660e01b8152600401602060405180830381865afa158015613180573d6000803e3d6000fd5b505050506040513d601f19601f820116820180604052508101906131a49190613b55565b90506131b181600a613c5c565b6131bb9085613a19565b6131c960ff84166008613a49565b6131d490600a613c6b565b6131de9085613a19565b6131e89190613a85565b94505050505090565b6001600160a01b038116600090815260026020526040812054610ce8906305f5e10090613a19565b6001600160a01b0381166000908152600160205260408120548082036132425750600092915050565b61324a613078565b6132549082613a19565b9392505050565b600854431161326657565b6000600854436132769190613a5c565b90506000613285600654613463565b9050600061329b82670de0b6b3a7640000613a49565b9050670de0b6b3a764000083825b8115613312576132ba600283613b41565b6001036132e157670de0b6b3a76400006132d48285613a19565b6132de9190613a85565b92505b670de0b6b3a76400006132f48280613a19565b6132fe9190613a85565b905061330b600283613a85565b91506132a9565b670de0b6b3a7640000836006546133299190613a19565b6133339190613a85565b60065550504360085550505050565b61334f838383600161386d565b61337757604051635274afe760e01b81526001600160a01b0384166004820152602401610867565b505050565b600754431161338757565b6000600754436133979190613a5c565b905060006133a660055461358c565b905060006133bc82670de0b6b3a7640000613a49565b9050670de0b6b3a764000083825b8115613433576133db600283613b41565b60010361340257670de0b6b3a76400006133f58285613a19565b6133ff9190613a85565b92505b670de0b6b3a76400006134158280613a19565b61341f9190613a85565b905061342c600283613a85565b91506133ca565b670de0b6b3a76400008360055461344a9190613a19565b6134549190613a85565b60055550504360075550505050565b6040516370a0823160e01b815230600482015260009081906001600160a01b037f000000000000000000000000000000000000000000000000000000000000000016906370a0823190602401602060405180830381865afa1580156134cc573d6000803e3d6000fd5b505050506040513d601f19601f820116820180604052508101906134f09190613a30565b90506000670de0b6b3a764000084600a5461350b9190613a19565b6135159190613a85565b905060006135238284613a49565b90506000811561354f578161354084670de0b6b3a7640000613a19565b61354a9190613a85565b613552565b60005b9050670de0b6b3a764000081600f5461356b9190613a19565b6135759190613a85565b600e546135829190613a49565b9695505050505050565b6040516370a0823160e01b815230600482015260009081906001600160a01b037f000000000000000000000000000000000000000000000000000000000000000016906370a0823190602401602060405180830381865afa1580156135f5573d6000803e3d6000fd5b505050506040513d601f19601f820116820180604052508101906136199190613a30565b90506000670de0b6b3a7640000846009546136349190613a19565b61363e9190613a85565b9050600061364c8284613a49565b905060008115613678578161366984670de0b6b3a7640000613a19565b6136739190613a85565b61367b565b60005b9050670de0b6b3a764000081600c546136949190613a19565b61369e9190613a85565b600b546135829190613a49565b600080516020613c78833981519152546002036136db57604051633ee5aeb560e01b815260040160405180910390fd5b565b6040516323b872dd60e01b60008181526001600160a01b038781166004528616602452604485905291602083606481808c5af19250600160005114831661373d578383151615613730573d6000823e3d81fd5b6000883b113d1516831692505b60405250600060605295945050505050565b6040516370a0823160e01b815230600482015260009081906001600160a01b037f000000000000000000000000000000000000000000000000000000000000000016906370a0823190602401602060405180830381865afa1580156137b8573d6000803e3d6000fd5b505050506040513d601f19601f820116820180604052508101906137dc9190613a30565b6040516370a0823160e01b81523060048201529092507f00000000000000000000000000000000000000000000000000000000000000006001600160a01b0316906370a0823190602401602060405180830381865afa158015613843573d6000803e3d6000fd5b505050506040513d601f19601f820116820180604052508101906138679190613a30565b90509091565b60405163a9059cbb60e01b60008181526001600160a01b038616600452602485905291602083604481808b5af1925060016000511483166138c75783831516156138ba573d6000823e3d81fd5b6000873b113d1516831692505b60405250949350505050565b80356001600160a01b03811681146138ea57600080fd5b919050565b60006020828403121561390157600080fd5b613254826138d3565b60006020828403121561391c57600080fd5b5035919050565b60008060008060006080868803121561393b57600080fd5b613944866138d3565b9450613952602087016138d3565b935060408601359250606086013567ffffffffffffffff8082111561397657600080fd5b818801915088601f83011261398a57600080fd5b81358181111561399957600080fd5b8960208285010111156139ab57600080fd5b9699959850939650602001949392505050565b60208082526012908201527150434f4c42555344506f6f6c3a207a65726f60701b604082015260600190565b6001600160a01b03929092168252602082015260400190565b634e487b7160e01b600052601160045260246000fd5b8082028115828204841417610ce857610ce8613a03565b600060208284031215613a4257600080fd5b5051919050565b80820180821115610ce857610ce8613a03565b81810381811115610ce857610ce8613a03565b634e487b7160e01b600052601260045260246000fd5b600082613a9457613a94613a6f565b500490565b60208082526010908201526f2821a7a6212aa9a22837b7b61d10242360811b604082015260600190565b6001600160a01b03878116825260208201879052604082018690528416606082015260a06080820181905281018290526000828460c0840137600060c0848401015260c0601f19601f8501168301019050979650505050505050565b600060208284031215613b3157600080fd5b8151801515811461325457600080fd5b600082613b5057613b50613a6f565b500690565b600060208284031215613b6757600080fd5b815160ff8116811461325457600080fd5b600181815b80851115613bb3578160001904821115613b9957613b99613a03565b80851615613ba657918102915b93841c9390800290613b7d565b509250929050565b600082613bca57506001610ce8565b81613bd757506000610ce8565b8160018114613bed5760028114613bf757613c13565b6001915050610ce8565b60ff841115613c0857613c08613a03565b50506001821b610ce8565b5060208310610133831016604e8410600b8410161715613c36575081810a610ce8565b613c408383613b78565b8060001904821115613c5457613c54613a03565b029392505050565b600061325460ff841683613bbb565b60006132548383613bbb56fe9b779b17422d0df92223018b32b4d1fa46e071723d6817e2486d003becc55f00a264697066735822122030ebe12995c2bf78742c2a70c203a1a3298ef64f6136b04a7418901db32c6cbb64736f6c6343000814003360a06040523480156200001157600080fd5b5060405162000cad38038062000cad83398101604081905262000034916200018b565b82826003620000448382620002a7565b506004620000538282620002a7565b5050506001600160a01b038116620000b15760405162461bcd60e51b815260206004820152601760248201527f52656365697074546f6b656e3a207a65726f20706f6f6c000000000000000000604482015260640160405180910390fd5b6001600160a01b031660805250620003739050565b634e487b7160e01b600052604160045260246000fd5b600082601f830112620000ee57600080fd5b81516001600160401b03808211156200010b576200010b620000c6565b604051601f8301601f19908116603f01168101908282118183101715620001365762000136620000c6565b816040528381526020925086838588010111156200015357600080fd5b600091505b8382101562000177578582018301518183018401529082019062000158565b600093810190920192909252949350505050565b600080600060608486031215620001a157600080fd5b83516001600160401b0380821115620001b957600080fd5b620001c787838801620000dc565b94506020860151915080821115620001de57600080fd5b50620001ed86828701620000dc565b604086015190935090506001600160a01b03811681146200020d57600080fd5b809150509250925092565b600181811c908216806200022d57607f821691505b6020821081036200024e57634e487b7160e01b600052602260045260246000fd5b50919050565b601f821115620002a257600081815260208120601f850160051c810160208610156200027d5750805b601f850160051c820191505b818110156200029e5782815560010162000289565b5050505b505050565b81516001600160401b03811115620002c357620002c3620000c6565b620002db81620002d4845462000218565b8462000254565b602080601f831160018114620003135760008415620002fa5750858301515b600019600386901b1c1916600185901b1785556200029e565b600085815260208120601f198616915b82811015620003445788860151825594840194600190910190840162000323565b5085821015620003635787850151600019600388901b60f8161c191681555b5050505050600190811b01905550565b6080516109116200039c6000396000818160ff015281816102ed015261038101526109116000f3fe608060405234801561001057600080fd5b50600436106100b45760003560e01c806340c10f191161007157806340c10f191461016d57806370a082311461018257806395d89b41146101ab5780639dc29fac146101b3578063a9059cbb146101c6578063dd62ed3e146101d957600080fd5b806306fdde03146100b9578063095ea7b3146100d757806316f0115b146100fa57806318160ddd1461013957806323b872dd1461014b578063313ce5671461015e575b600080fd5b6100c1610212565b6040516100ce919061075b565b60405180910390f35b6100ea6100e53660046107c5565b6102a4565b60405190151581526020016100ce565b6101217f000000000000000000000000000000000000000000000000000000000000000081565b6040516001600160a01b0390911681526020016100ce565b6002545b6040519081526020016100ce565b6100ea6101593660046107ef565b6102be565b604051601281526020016100ce565b61018061017b3660046107c5565b6102e2565b005b61013d61019036600461082b565b6001600160a01b031660009081526020819052604090205490565b6100c1610367565b6101806101c13660046107c5565b610376565b6100ea6101d43660046107c5565b6103f2565b61013d6101e736600461084d565b6001600160a01b03918216600090815260016020908152604080832093909416825291909152205490565b60606003805461022190610880565b80601f016020809104026020016040519081016040528092919081815260200182805461024d90610880565b801561029a5780601f1061026f5761010080835404028352916020019161029a565b820191906000526020600020905b81548152906001019060200180831161027d57829003601f168201915b5050505050905090565b6000336102b2818585610400565b60019150505b92915050565b6000336102cc858285610412565b6102d7858585610491565b506001949350505050565b336001600160a01b037f000000000000000000000000000000000000000000000000000000000000000016146103595760405162461bcd60e51b8152602060048201526017602482015276149958d95a5c1d151bdad95b8e881bdb9b1e481c1bdbdb604a1b60448201526064015b60405180910390fd5b61036382826104f0565b5050565b60606004805461022190610880565b336001600160a01b037f000000000000000000000000000000000000000000000000000000000000000016146103e85760405162461bcd60e51b8152602060048201526017602482015276149958d95a5c1d151bdad95b8e881bdb9b1e481c1bdbdb604a1b6044820152606401610350565b6103638282610526565b6000336102b2818585610491565b61040d838383600161055c565b505050565b6001600160a01b0383811660009081526001602090815260408083209386168352929052205460001981101561048b578181101561047c57604051637dc7a0d960e11b81526001600160a01b03841660048201526024810182905260448101839052606401610350565b61048b8484848403600061055c565b50505050565b6001600160a01b0383166104bb57604051634b637e8f60e11b815260006004820152602401610350565b6001600160a01b0382166104e55760405163ec442f0560e01b815260006004820152602401610350565b61040d838383610631565b6001600160a01b03821661051a5760405163ec442f0560e01b815260006004820152602401610350565b61036360008383610631565b6001600160a01b03821661055057604051634b637e8f60e11b815260006004820152602401610350565b61036382600083610631565b6001600160a01b0384166105865760405163e602df0560e01b815260006004820152602401610350565b6001600160a01b0383166105b057604051634a1406b160e11b815260006004820152602401610350565b6001600160a01b038085166000908152600160209081526040808320938716835292905220829055801561048b57826001600160a01b0316846001600160a01b03167f8c5be1e5ebec7d5bd14f71427d1e84f3dd0314c0f7b2291e5b200ac8c7c3b9258460405161062391815260200190565b60405180910390a350505050565b6001600160a01b03831661065c57806002600082825461065191906108ba565b909155506106ce9050565b6001600160a01b038316600090815260208190526040902054818110156106af5760405163391434e360e21b81526001600160a01b03851660048201526024810182905260448101839052606401610350565b6001600160a01b03841660009081526020819052604090209082900390555b6001600160a01b0382166106ea57600280548290039055610709565b6001600160a01b03821660009081526020819052604090208054820190555b816001600160a01b0316836001600160a01b03167fddf252ad1be2c89b69c2b068fc378daa952ba7f163c4a11628f55a4df523b3ef8360405161074e91815260200190565b60405180910390a3505050565b600060208083528351808285015260005b818110156107885785810183015185820160400152820161076c565b506000604082860101526040601f19601f8301168501019250505092915050565b80356001600160a01b03811681146107c057600080fd5b919050565b600080604083850312156107d857600080fd5b6107e1836107a9565b946020939093013593505050565b60008060006060848603121561080457600080fd5b61080d846107a9565b925061081b602085016107a9565b9150604084013590509250925092565b60006020828403121561083d57600080fd5b610846826107a9565b9392505050565b6000806040838503121561086057600080fd5b610869836107a9565b9150610877602084016107a9565b90509250929050565b600181811c9082168061089457607f821691505b6020821081036108b457634e487b7160e01b600052602260045260246000fd5b50919050565b808201808211156102b857634e487b7160e01b600052601160045260246000fdfea2646970667358221220bd936c1763fcc336c7d1c45f774d88ab7033a66070011519dbd3906d16d2ccb164736f6c63430008140033","opcodes":"PUSH2 0x100 PUSH1 0x40 MSTORE PUSH8 0xDE0B6B3A7640000 PUSH1 0x5 SSTORE PUSH8 0xDE0B6B3A7640000 PUSH1 0x6 SSTORE PUSH5 0xBA43B7400 PUSH1 0xB SSTORE PUSH5 0x746A528800 PUSH1 0xC SSTORE PUSH2 0x3E8 PUSH1 0xD SSTORE PUSH5 0xBA43B7400 PUSH1 0xE SSTORE PUSH5 0x746A528800 PUSH1 0xF SSTORE PUSH2 0x3E8 PUSH1 0x10 SSTORE PUSH2 0x1F40 PUSH1 0x11 SSTORE PUSH2 0x3E8 PUSH1 0x12 SSTORE PUSH1 0x9 PUSH1 0x13 SSTORE PUSH8 0xDE0B6B3A7640000 PUSH1 0x14 SSTORE PUSH8 0x16345785D8A0000 PUSH1 0x15 SSTORE CALLVALUE DUP1 ISZERO PUSH3 0x83 JUMPI PUSH1 0x0 DUP1 REVERT JUMPDEST POP PUSH1 0x40 MLOAD PUSH3 0x4E35 CODESIZE SUB DUP1 PUSH3 0x4E35 DUP4 CODECOPY DUP2 ADD PUSH1 0x40 DUP2 SWAP1 MSTORE PUSH3 0xA6 SWAP2 PUSH3 0x31F JUMP JUMPDEST PUSH1 0x1 PUSH32 0x9B779B17422D0DF92223018B32B4D1FA46E071723D6817E2486D003BECC55F00 SSTORE PUSH1 0x1 PUSH1 0x1 PUSH1 0xA0 SHL SUB DUP4 AND ISZERO DUP1 ISZERO SWAP1 PUSH3 0xEB JUMPI POP PUSH1 0x1 PUSH1 0x1 PUSH1 0xA0 SHL SUB DUP3 AND ISZERO ISZERO JUMPDEST DUP1 ISZERO PUSH3 0x100 JUMPI POP PUSH1 0x1 PUSH1 0x1 PUSH1 0xA0 SHL SUB DUP2 AND ISZERO ISZERO JUMPDEST PUSH3 0x147 JUMPI PUSH1 0x40 MLOAD PUSH3 0x461BCD PUSH1 0xE5 SHL DUP2 MSTORE PUSH1 0x20 PUSH1 0x4 DUP3 ADD MSTORE PUSH1 0x12 PUSH1 0x24 DUP3 ADD MSTORE PUSH18 0x50434F4C42555344506F6F6C3A207A65726F PUSH1 0x70 SHL PUSH1 0x44 DUP3 ADD MSTORE PUSH1 0x64 ADD JUMPDEST PUSH1 0x40 MLOAD DUP1 SWAP2 SUB SWAP1 REVERT JUMPDEST DUP2 PUSH1 0x1 PUSH1 0x1 PUSH1 0xA0 SHL SUB AND DUP4 PUSH1 0x1 PUSH1 0x1 PUSH1 0xA0 SHL SUB AND SUB PUSH3 0x1AA JUMPI PUSH1 0x40 MLOAD PUSH3 0x461BCD PUSH1 0xE5 SHL DUP2 MSTORE PUSH1 0x20 PUSH1 0x4 DUP3 ADD MSTORE PUSH1 0x18 PUSH1 0x24 DUP3 ADD MSTORE PUSH32 0x50434F4C42555344506F6F6C3A2073616D6520746F6B656E0000000000000000 PUSH1 0x44 DUP3 ADD MSTORE PUSH1 0x64 ADD PUSH3 0x13E JUMP JUMPDEST PUSH1 0x1 PUSH1 0x1 PUSH1 0xA0 SHL SUB DUP1 DUP5 AND PUSH1 0x80 MSTORE DUP3 AND PUSH1 0xA0 MSTORE PUSH1 0x40 MLOAD ADDRESS SWAP1 PUSH3 0x1CD SWAP1 PUSH3 0x2F4 JUMP JUMPDEST PUSH1 0x60 DUP1 DUP3 MSTORE PUSH1 0x8 SWAP1 DUP3 ADD MSTORE PUSH8 0x141BDBDB0810D3D3 PUSH1 0xC2 SHL PUSH1 0x80 DUP3 ADD MSTORE PUSH1 0xA0 PUSH1 0x20 DUP3 ADD DUP2 SWAP1 MSTORE PUSH1 0x4 SWAP1 DUP3 ADD MSTORE PUSH4 0x1410D3D3 PUSH1 0xE2 SHL PUSH1 0xC0 DUP3 ADD MSTORE PUSH1 0x1 PUSH1 0x1 PUSH1 0xA0 SHL SUB SWAP1 SWAP2 AND PUSH1 0x40 DUP3 ADD MSTORE PUSH1 0xE0 ADD PUSH1 0x40 MLOAD DUP1 SWAP2 SUB SWAP1 PUSH1 0x0 CREATE DUP1 ISZERO DUP1 ISZERO PUSH3 0x235 JUMPI RETURNDATASIZE PUSH1 0x0 DUP1 RETURNDATACOPY RETURNDATASIZE PUSH1 0x0 REVERT JUMPDEST POP PUSH1 0x1 PUSH1 0x1 PUSH1 0xA0 SHL SUB AND PUSH1 0xC0 MSTORE PUSH1 0x40 MLOAD ADDRESS SWAP1 PUSH3 0x252 SWAP1 PUSH3 0x2F4 JUMP JUMPDEST PUSH1 0x60 DUP1 DUP3 MSTORE PUSH1 0x9 SWAP1 DUP3 ADD MSTORE PUSH9 0x141BDBDB08109554D1 PUSH1 0xBA SHL PUSH1 0x80 DUP3 ADD MSTORE PUSH1 0xA0 PUSH1 0x20 DUP3 ADD DUP2 SWAP1 MSTORE PUSH1 0x5 SWAP1 DUP3 ADD MSTORE PUSH5 0x14109554D1 PUSH1 0xDA SHL PUSH1 0xC0 DUP3 ADD MSTORE PUSH1 0x1 PUSH1 0x1 PUSH1 0xA0 SHL SUB SWAP1 SWAP2 AND PUSH1 0x40 DUP3 ADD MSTORE PUSH1 0xE0 ADD PUSH1 0x40 MLOAD DUP1 SWAP2 SUB SWAP1 PUSH1 0x0 CREATE DUP1 ISZERO DUP1 ISZERO PUSH3 0x2BC JUMPI RETURNDATASIZE PUSH1 0x0 DUP1 RETURNDATACOPY RETURNDATASIZE PUSH1 0x0 REVERT JUMPDEST POP PUSH1 0x1 PUSH1 0x1 PUSH1 0xA0 SHL SUB SWAP1 DUP2 AND PUSH1 0xE0 MSTORE PUSH1 0x0 DUP1 SLOAD PUSH1 0x1 PUSH1 0x1 PUSH1 0xA0 SHL SUB NOT AND SWAP3 SWAP1 SWAP2 AND SWAP2 SWAP1 SWAP2 OR SWAP1 SSTORE POP POP NUMBER PUSH1 0x7 DUP2 SWAP1 SSTORE PUSH1 0x8 SSTORE PUSH3 0x369 JUMP JUMPDEST PUSH2 0xCAD DUP1 PUSH3 0x4188 DUP4 CODECOPY ADD SWAP1 JUMP JUMPDEST DUP1 MLOAD PUSH1 0x1 PUSH1 0x1 PUSH1 0xA0 SHL SUB DUP2 AND DUP2 EQ PUSH3 0x31A JUMPI PUSH1 0x0 DUP1 REVERT JUMPDEST SWAP2 SWAP1 POP JUMP JUMPDEST PUSH1 0x0 DUP1 PUSH1 0x0 PUSH1 0x60 DUP5 DUP7 SUB SLT ISZERO PUSH3 0x335 JUMPI PUSH1 0x0 DUP1 REVERT JUMPDEST PUSH3 0x340 DUP5 PUSH3 0x302 JUMP JUMPDEST SWAP3 POP PUSH3 0x350 PUSH1 0x20 DUP6 ADD PUSH3 0x302 JUMP JUMPDEST SWAP2 POP PUSH3 0x360 PUSH1 0x40 DUP6 ADD PUSH3 0x302 JUMP JUMPDEST SWAP1 POP SWAP3 POP SWAP3 POP SWAP3 JUMP JUMPDEST PUSH1 0x80 MLOAD PUSH1 0xA0 MLOAD PUSH1 0xC0 MLOAD PUSH1 0xE0 MLOAD PUSH2 0x3CCD PUSH3 0x4BB PUSH1 0x0 CODECOPY PUSH1 0x0 DUP2 DUP2 PUSH2 0x422 ADD MSTORE DUP2 DUP2 PUSH2 0x151D ADD MSTORE DUP2 DUP2 PUSH2 0x1C1D ADD MSTORE DUP2 DUP2 PUSH2 0x1C94 ADD MSTORE DUP2 DUP2 PUSH2 0x2297 ADD MSTORE DUP2 DUP2 PUSH2 0x2432 ADD MSTORE PUSH2 0x274C ADD MSTORE PUSH1 0x0 DUP2 DUP2 PUSH2 0x47C ADD MSTORE DUP2 DUP2 PUSH2 0x8BC ADD MSTORE DUP2 DUP2 PUSH2 0x1E96 ADD MSTORE DUP2 DUP2 PUSH2 0x24C0 ADD MSTORE DUP2 DUP2 PUSH2 0x2928 ADD MSTORE DUP2 DUP2 PUSH2 0x2F3F ADD MSTORE PUSH2 0x2FB6 ADD MSTORE PUSH1 0x0 DUP2 DUP2 PUSH2 0x4A3 ADD MSTORE DUP2 DUP2 PUSH2 0xA4B ADD MSTORE DUP2 DUP2 PUSH2 0x127E ADD MSTORE DUP2 DUP2 PUSH2 0x13E1 ADD MSTORE DUP2 DUP2 PUSH2 0x14DE ADD MSTORE DUP2 DUP2 PUSH2 0x1675 ADD MSTORE DUP2 DUP2 PUSH2 0x1FAE ADD MSTORE DUP2 DUP2 PUSH2 0x2560 ADD MSTORE DUP2 DUP2 PUSH2 0x2674 ADD MSTORE DUP2 DUP2 PUSH2 0x27C2 ADD MSTORE DUP2 DUP2 PUSH2 0x2A76 ADD MSTORE DUP2 DUP2 PUSH2 0x2EFA ADD MSTORE DUP2 DUP2 PUSH2 0x3124 ADD MSTORE DUP2 DUP2 PUSH2 0x35AE ADD MSTORE PUSH2 0x37F4 ADD MSTORE PUSH1 0x0 DUP2 DUP2 PUSH2 0x73A ADD MSTORE DUP2 DUP2 PUSH2 0x87D ADD MSTORE DUP2 DUP2 PUSH2 0xAE1 ADD MSTORE DUP2 DUP2 PUSH2 0xDD7 ADD MSTORE DUP2 DUP2 PUSH2 0xF94 ADD MSTORE DUP2 DUP2 PUSH2 0x10F7 ADD MSTORE DUP2 DUP2 PUSH2 0x163A ADD MSTORE DUP2 DUP2 PUSH2 0x1BD8 ADD MSTORE DUP2 DUP2 PUSH2 0x1DBE ADD MSTORE DUP2 DUP2 PUSH2 0x1F0C ADD MSTORE DUP2 DUP2 PUSH2 0x2044 ADD MSTORE DUP2 DUP2 PUSH2 0x2BD9 ADD MSTORE DUP2 DUP2 PUSH2 0x309E ADD MSTORE DUP2 DUP2 PUSH2 0x3485 ADD MSTORE PUSH2 0x3771 ADD MSTORE PUSH2 0x3CCD PUSH1 0x0 RETURN INVALID PUSH1 0x80 PUSH1 0x40 MSTORE CALLVALUE DUP1 ISZERO PUSH2 0x10 JUMPI PUSH1 0x0 DUP1 REVERT JUMPDEST POP PUSH1 0x4 CALLDATASIZE LT PUSH2 0x3D0 JUMPI PUSH1 0x0 CALLDATALOAD PUSH1 0xE0 SHR DUP1 PUSH4 0x82463417 GT PUSH2 0x1FF JUMPI DUP1 PUSH4 0xC0C7347E GT PUSH2 0x11A JUMPI DUP1 PUSH4 0xF4216DE1 GT PUSH2 0xAD JUMPI DUP1 PUSH4 0xF9EFD058 GT PUSH2 0x7C JUMPI DUP1 PUSH4 0xF9EFD058 EQ PUSH2 0x808 JUMPI DUP1 PUSH4 0xFD47FBF2 EQ PUSH2 0x81B JUMPI DUP1 PUSH4 0xFDD73F41 EQ PUSH2 0x824 JUMPI DUP1 PUSH4 0xFFDEE98D EQ PUSH2 0x82C JUMPI PUSH1 0x0 DUP1 REVERT JUMPDEST DUP1 PUSH4 0xF4216DE1 EQ PUSH2 0x7C6 JUMPI DUP1 PUSH4 0xF5908219 EQ PUSH2 0x7CF JUMPI DUP1 PUSH4 0xF678E9D7 EQ PUSH2 0x7E2 JUMPI DUP1 PUSH4 0xF96DAE0A EQ PUSH2 0x7F5 JUMPI PUSH1 0x0 DUP1 REVERT JUMPDEST DUP1 PUSH4 0xE68A5C04 GT PUSH2 0xE9 JUMPI DUP1 PUSH4 0xE68A5C04 EQ PUSH2 0x78F JUMPI DUP1 PUSH4 0xEA4E2FD2 EQ PUSH2 0x7A2 JUMPI DUP1 PUSH4 0xEDC38CB4 EQ PUSH2 0x7AB JUMPI DUP1 PUSH4 0xF205743F EQ PUSH2 0x7BE JUMPI PUSH1 0x0 DUP1 REVERT JUMPDEST DUP1 PUSH4 0xC0C7347E EQ PUSH2 0x72C JUMPI DUP1 PUSH4 0xCBE98E3B EQ PUSH2 0x735 JUMPI DUP1 PUSH4 0xCC3BCAF3 EQ PUSH2 0x75C JUMPI DUP1 PUSH4 0xDCEBA451 EQ PUSH2 0x76F JUMPI PUSH1 0x0 DUP1 REVERT JUMPDEST DUP1 PUSH4 0xA74F0BFA GT PUSH2 0x192 JUMPI DUP1 PUSH4 0xB7BE98AB GT PUSH2 0x161 JUMPI DUP1 PUSH4 0xB7BE98AB EQ PUSH2 0x6E9 JUMPI DUP1 PUSH4 0xBA08FF9B EQ PUSH2 0x711 JUMPI DUP1 PUSH4 0xBF83DF13 EQ PUSH2 0x71A JUMPI DUP1 PUSH4 0xC0656BD0 EQ PUSH2 0x723 JUMPI PUSH1 0x0 DUP1 REVERT JUMPDEST DUP1 PUSH4 0xA74F0BFA EQ PUSH2 0x6AB JUMPI DUP1 PUSH4 0xA7A24830 EQ PUSH2 0x6B3 JUMPI DUP1 PUSH4 0xAC72D9AC EQ PUSH2 0x6BC JUMPI DUP1 PUSH4 0xADCD54A7 EQ PUSH2 0x6C6 JUMPI PUSH1 0x0 DUP1 REVERT JUMPDEST DUP1 PUSH4 0xA178F59D GT PUSH2 0x1CE JUMPI DUP1 PUSH4 0xA178F59D EQ PUSH2 0x66A JUMPI DUP1 PUSH4 0xA1957856 EQ PUSH2 0x67D JUMPI DUP1 PUSH4 0xA32447BC EQ PUSH2 0x685 JUMPI DUP1 PUSH4 0xA3E3D86E EQ PUSH2 0x698 JUMPI PUSH1 0x0 DUP1 REVERT JUMPDEST DUP1 PUSH4 0x82463417 EQ PUSH2 0x63D JUMPI DUP1 PUSH4 0x8617D017 EQ PUSH2 0x645 JUMPI DUP1 PUSH4 0x8DD2A7CF EQ PUSH2 0x64E JUMPI DUP1 PUSH4 0x8EDB376C EQ PUSH2 0x661 JUMPI PUSH1 0x0 DUP1 REVERT JUMPDEST DUP1 PUSH4 0x3C5607A5 GT PUSH2 0x2EF JUMPI DUP1 PUSH4 0x5CFFE9DE GT PUSH2 0x282 JUMPI DUP1 PUSH4 0x737808F4 GT PUSH2 0x251 JUMPI DUP1 PUSH4 0x737808F4 EQ PUSH2 0x605 JUMPI DUP1 PUSH4 0x7502237B EQ PUSH2 0x60E JUMPI DUP1 PUSH4 0x752E6088 EQ PUSH2 0x621 JUMPI DUP1 PUSH4 0x7B7C1F4C EQ PUSH2 0x634 JUMPI PUSH1 0x0 DUP1 REVERT JUMPDEST DUP1 PUSH4 0x5CFFE9DE EQ PUSH2 0x5CE JUMPI DUP1 PUSH4 0x643E3FD3 EQ PUSH2 0x5E1 JUMPI DUP1 PUSH4 0x68532C95 EQ PUSH2 0x5EA JUMPI DUP1 PUSH4 0x6E2E4659 EQ PUSH2 0x5FD JUMPI PUSH1 0x0 DUP1 REVERT JUMPDEST DUP1 PUSH4 0x4454A10E GT PUSH2 0x2BE JUMPI DUP1 PUSH4 0x4454A10E EQ PUSH2 0x582 JUMPI DUP1 PUSH4 0x4564987A EQ PUSH2 0x595 JUMPI DUP1 PUSH4 0x4577848E EQ PUSH2 0x5A8 JUMPI DUP1 PUSH4 0x46BFE1DF EQ PUSH2 0x5BB JUMPI PUSH1 0x0 DUP1 REVERT JUMPDEST DUP1 PUSH4 0x3C5607A5 EQ PUSH2 0x560 JUMPI DUP1 PUSH4 0x3C6CE203 EQ PUSH2 0x569 JUMPI DUP1 PUSH4 0x3D60DB5A EQ PUSH2 0x571 JUMPI DUP1 PUSH4 0x4031234C EQ PUSH2 0x579 JUMPI PUSH1 0x0 DUP1 REVERT JUMPDEST DUP1 PUSH4 0x226F4B4E GT PUSH2 0x367 JUMPI DUP1 PUSH4 0x2F5B0ABA GT PUSH2 0x336 JUMPI DUP1 PUSH4 0x2F5B0ABA EQ PUSH2 0x534 JUMPI DUP1 PUSH4 0x30E0C05E EQ PUSH2 0x53D JUMPI DUP1 PUSH4 0x326770F2 EQ PUSH2 0x545 JUMPI DUP1 PUSH4 0x38124FA4 EQ PUSH2 0x558 JUMPI PUSH1 0x0 DUP1 REVERT JUMPDEST DUP1 PUSH4 0x226F4B4E EQ PUSH2 0x4E5 JUMPI DUP1 PUSH4 0x26BBB608 EQ PUSH2 0x4F8 JUMPI DUP1 PUSH4 0x28A88D23 EQ PUSH2 0x501 JUMPI DUP1 PUSH4 0x2BEABEF3 EQ PUSH2 0x521 JUMPI PUSH1 0x0 DUP1 REVERT JUMPDEST DUP1 PUSH4 0x1C1318EB GT PUSH2 0x3A3 JUMPI DUP1 PUSH4 0x1C1318EB EQ PUSH2 0x464 JUMPI DUP1 PUSH4 0x1F59D2B8 EQ PUSH2 0x477 JUMPI DUP1 PUSH4 0x213EF7F7 EQ PUSH2 0x49E JUMPI DUP1 PUSH4 0x21C61671 EQ PUSH2 0x4C5 JUMPI PUSH1 0x0 DUP1 REVERT JUMPDEST DUP1 PUSH4 0x1FBCFDE EQ PUSH2 0x3D5 JUMPI DUP1 PUSH4 0x56FD0F7 EQ PUSH2 0x408 JUMPI DUP1 PUSH4 0x128078A7 EQ PUSH2 0x41D JUMPI DUP1 PUSH4 0x19B87FE8 EQ PUSH2 0x45C JUMPI JUMPDEST PUSH1 0x0 DUP1 REVERT JUMPDEST PUSH2 0x3F5 PUSH2 0x3E3 CALLDATASIZE PUSH1 0x4 PUSH2 0x38EF JUMP JUMPDEST PUSH1 0x3 PUSH1 0x20 MSTORE PUSH1 0x0 SWAP1 DUP2 MSTORE PUSH1 0x40 SWAP1 KECCAK256 SLOAD DUP2 JUMP JUMPDEST PUSH1 0x40 MLOAD SWAP1 DUP2 MSTORE PUSH1 0x20 ADD JUMPDEST PUSH1 0x40 MLOAD DUP1 SWAP2 SUB SWAP1 RETURN JUMPDEST PUSH2 0x41B PUSH2 0x416 CALLDATASIZE PUSH1 0x4 PUSH2 0x390A JUMP JUMPDEST PUSH2 0x83F JUMP JUMPDEST STOP JUMPDEST PUSH2 0x444 PUSH32 0x0 DUP2 JUMP JUMPDEST PUSH1 0x40 MLOAD PUSH1 0x1 PUSH1 0x1 PUSH1 0xA0 SHL SUB SWAP1 SWAP2 AND DUP2 MSTORE PUSH1 0x20 ADD PUSH2 0x3FF JUMP JUMPDEST PUSH2 0x3F5 PUSH2 0x9ED JUMP JUMPDEST PUSH2 0x3F5 PUSH2 0x472 CALLDATASIZE PUSH1 0x4 PUSH2 0x38EF JUMP JUMPDEST PUSH2 0xA0A JUMP JUMPDEST PUSH2 0x444 PUSH32 0x0 DUP2 JUMP JUMPDEST PUSH2 0x444 PUSH32 0x0 DUP2 JUMP JUMPDEST PUSH2 0x3F5 PUSH2 0x4D3 CALLDATASIZE PUSH1 0x4 PUSH2 0x38EF JUMP JUMPDEST PUSH1 0x2 PUSH1 0x20 MSTORE PUSH1 0x0 SWAP1 DUP2 MSTORE PUSH1 0x40 SWAP1 KECCAK256 SLOAD DUP2 JUMP JUMPDEST PUSH2 0x3F5 PUSH2 0x4F3 CALLDATASIZE PUSH1 0x4 PUSH2 0x38EF JUMP JUMPDEST PUSH2 0xC13 JUMP JUMPDEST PUSH2 0x3F5 PUSH1 0x15 SLOAD DUP2 JUMP JUMPDEST PUSH2 0x3F5 PUSH2 0x50F CALLDATASIZE PUSH1 0x4 PUSH2 0x38EF JUMP JUMPDEST PUSH1 0x1 PUSH1 0x20 MSTORE PUSH1 0x0 SWAP1 DUP2 MSTORE PUSH1 0x40 SWAP1 KECCAK256 SLOAD DUP2 JUMP JUMPDEST PUSH2 0x3F5 PUSH2 0x52F CALLDATASIZE PUSH1 0x4 PUSH2 0x38EF JUMP JUMPDEST PUSH2 0xCA8 JUMP JUMPDEST PUSH2 0x3F5 PUSH1 0xB SLOAD DUP2 JUMP JUMPDEST PUSH2 0x3F5 PUSH2 0xCEE JUMP JUMPDEST PUSH2 0x3F5 PUSH2 0x553 CALLDATASIZE PUSH1 0x4 PUSH2 0x38EF JUMP JUMPDEST PUSH2 0xCFC JUMP JUMPDEST PUSH2 0x3F5 PUSH2 0xD39 JUMP JUMPDEST PUSH2 0x3F5 PUSH1 0x10 SLOAD DUP2 JUMP JUMPDEST PUSH2 0x3F5 PUSH2 0xD7A JUMP JUMPDEST PUSH2 0x3F5 PUSH2 0xDB5 JUMP JUMPDEST PUSH2 0x3F5 PUSH1 0x11 SLOAD DUP2 JUMP JUMPDEST PUSH2 0x3F5 PUSH2 0x590 CALLDATASIZE PUSH1 0x4 PUSH2 0x38EF JUMP JUMPDEST PUSH2 0xEB1 JUMP JUMPDEST PUSH2 0x41B PUSH2 0x5A3 CALLDATASIZE PUSH1 0x4 PUSH2 0x390A JUMP JUMPDEST PUSH2 0xEE7 JUMP JUMPDEST PUSH2 0x41B PUSH2 0x5B6 CALLDATASIZE PUSH1 0x4 PUSH2 0x390A JUMP JUMPDEST PUSH2 0x11DB JUMP JUMPDEST PUSH2 0x41B PUSH2 0x5C9 CALLDATASIZE PUSH1 0x4 PUSH2 0x390A JUMP JUMPDEST PUSH2 0x14A9 JUMP JUMPDEST PUSH2 0x41B PUSH2 0x5DC CALLDATASIZE PUSH1 0x4 PUSH2 0x3923 JUMP JUMPDEST PUSH2 0x1630 JUMP JUMPDEST PUSH2 0x3F5 PUSH1 0xF SLOAD DUP2 JUMP JUMPDEST PUSH2 0x41B PUSH2 0x5F8 CALLDATASIZE PUSH1 0x4 PUSH2 0x38EF JUMP JUMPDEST PUSH2 0x19FA JUMP JUMPDEST PUSH2 0x3F5 PUSH2 0x1D1E JUMP JUMPDEST PUSH2 0x3F5 PUSH1 0xA SLOAD DUP2 JUMP JUMPDEST PUSH2 0x41B PUSH2 0x61C CALLDATASIZE PUSH1 0x4 PUSH2 0x390A JUMP JUMPDEST PUSH2 0x1D7F JUMP JUMPDEST PUSH2 0x3F5 PUSH2 0x62F CALLDATASIZE PUSH1 0x4 PUSH2 0x38EF JUMP JUMPDEST PUSH2 0x1F6D JUMP JUMPDEST PUSH2 0x3F5 PUSH1 0x12 SLOAD DUP2 JUMP JUMPDEST PUSH2 0x3F5 PUSH2 0x2165 JUMP JUMPDEST PUSH2 0x3F5 PUSH1 0xD SLOAD DUP2 JUMP JUMPDEST PUSH2 0x3F5 PUSH2 0x65C CALLDATASIZE PUSH1 0x4 PUSH2 0x390A JUMP JUMPDEST PUSH2 0x224F JUMP JUMPDEST PUSH2 0x3F5 PUSH1 0x7 SLOAD DUP2 JUMP JUMPDEST PUSH2 0x41B PUSH2 0x678 CALLDATASIZE PUSH1 0x4 PUSH2 0x390A JUMP JUMPDEST PUSH2 0x2262 JUMP JUMPDEST PUSH2 0x3F5 PUSH2 0x2315 JUMP JUMPDEST PUSH2 0x41B PUSH2 0x693 CALLDATASIZE PUSH1 0x4 PUSH2 0x390A JUMP JUMPDEST PUSH2 0x2351 JUMP JUMPDEST PUSH2 0x41B PUSH2 0x6A6 CALLDATASIZE PUSH1 0x4 PUSH2 0x390A JUMP JUMPDEST PUSH2 0x248B JUMP JUMPDEST PUSH2 0x3F5 PUSH2 0x253E JUMP JUMPDEST PUSH2 0x3F5 PUSH1 0xC SLOAD DUP2 JUMP JUMPDEST PUSH4 0x5F5E100 PUSH2 0x3F5 JUMP JUMPDEST PUSH2 0x6D9 PUSH2 0x6D4 CALLDATASIZE PUSH1 0x4 PUSH2 0x38EF JUMP JUMPDEST PUSH2 0x25ED JUMP JUMPDEST PUSH1 0x40 MLOAD SWAP1 ISZERO ISZERO DUP2 MSTORE PUSH1 0x20 ADD PUSH2 0x3FF JUMP JUMPDEST PUSH2 0x6FC PUSH2 0x6F7 CALLDATASIZE PUSH1 0x4 PUSH2 0x38EF JUMP JUMPDEST PUSH2 0x2608 JUMP JUMPDEST PUSH1 0x40 DUP1 MLOAD SWAP3 DUP4 MSTORE PUSH1 0x20 DUP4 ADD SWAP2 SWAP1 SWAP2 MSTORE ADD PUSH2 0x3FF JUMP JUMPDEST PUSH2 0x3F5 PUSH1 0x6 SLOAD DUP2 JUMP JUMPDEST PUSH2 0x3F5 PUSH1 0x5 SLOAD DUP2 JUMP JUMPDEST PUSH2 0x3F5 PUSH1 0x9 SLOAD DUP2 JUMP JUMPDEST PUSH2 0x3F5 PUSH1 0x13 SLOAD DUP2 JUMP JUMPDEST PUSH2 0x444 PUSH32 0x0 DUP2 JUMP JUMPDEST PUSH2 0x41B PUSH2 0x76A CALLDATASIZE PUSH1 0x4 PUSH2 0x390A JUMP JUMPDEST PUSH2 0x2635 JUMP JUMPDEST PUSH2 0x3F5 PUSH2 0x77D CALLDATASIZE PUSH1 0x4 PUSH2 0x38EF JUMP JUMPDEST PUSH1 0x4 PUSH1 0x20 MSTORE PUSH1 0x0 SWAP1 DUP2 MSTORE PUSH1 0x40 SWAP1 KECCAK256 SLOAD DUP2 JUMP JUMPDEST PUSH2 0x6FC PUSH2 0x79D CALLDATASIZE PUSH1 0x4 PUSH2 0x38EF JUMP JUMPDEST PUSH2 0x2823 JUMP JUMPDEST PUSH2 0x3F5 PUSH1 0x14 SLOAD DUP2 JUMP JUMPDEST PUSH2 0x41B PUSH2 0x7B9 CALLDATASIZE PUSH1 0x4 PUSH2 0x390A JUMP JUMPDEST PUSH2 0x2847 JUMP JUMPDEST PUSH2 0x3F5 PUSH2 0x2981 JUMP JUMPDEST PUSH2 0x3F5 PUSH1 0x8 SLOAD DUP2 JUMP JUMPDEST PUSH2 0x41B PUSH2 0x7DD CALLDATASIZE PUSH1 0x4 PUSH2 0x390A JUMP JUMPDEST PUSH2 0x298B JUMP JUMPDEST PUSH2 0x41B PUSH2 0x7F0 CALLDATASIZE PUSH1 0x4 PUSH2 0x390A JUMP JUMPDEST PUSH2 0x2AEE JUMP JUMPDEST PUSH1 0x0 SLOAD PUSH2 0x444 SWAP1 PUSH1 0x1 PUSH1 0x1 PUSH1 0xA0 SHL SUB AND DUP2 JUMP JUMPDEST PUSH2 0x6D9 PUSH2 0x816 CALLDATASIZE PUSH1 0x4 PUSH2 0x38EF JUMP JUMPDEST PUSH2 0x2C33 JUMP JUMPDEST PUSH2 0x3F5 PUSH1 0xE SLOAD DUP2 JUMP JUMPDEST PUSH2 0x3F5 PUSH2 0x2C47 JUMP JUMPDEST PUSH2 0x41B PUSH2 0x83A CALLDATASIZE PUSH1 0x4 PUSH2 0x38EF JUMP JUMPDEST PUSH2 0x2D1C JUMP JUMPDEST PUSH2 0x847 PUSH2 0x3020 JUMP JUMPDEST PUSH1 0x0 DUP2 GT PUSH2 0x870 JUMPI PUSH1 0x40 MLOAD PUSH3 0x461BCD PUSH1 0xE5 SHL DUP2 MSTORE PUSH1 0x4 ADD PUSH2 0x867 SWAP1 PUSH2 0x39BE JUMP JUMPDEST PUSH1 0x40 MLOAD DUP1 SWAP2 SUB SWAP1 REVERT JUMPDEST PUSH2 0x8A5 PUSH1 0x1 PUSH1 0x1 PUSH1 0xA0 SHL SUB PUSH32 0x0 AND CALLER ADDRESS DUP5 PUSH2 0x303C JUMP JUMPDEST PUSH1 0x40 MLOAD PUSH4 0x40C10F19 PUSH1 0xE0 SHL DUP2 MSTORE PUSH1 0x1 PUSH1 0x1 PUSH1 0xA0 SHL SUB PUSH32 0x0 AND SWAP1 PUSH4 0x40C10F19 SWAP1 PUSH2 0x8F3 SWAP1 CALLER SWAP1 DUP6 SWAP1 PUSH1 0x4 ADD PUSH2 0x39EA JUMP JUMPDEST PUSH1 0x0 PUSH1 0x40 MLOAD DUP1 DUP4 SUB DUP2 PUSH1 0x0 DUP8 DUP1 EXTCODESIZE ISZERO DUP1 ISZERO PUSH2 0x90D JUMPI PUSH1 0x0 DUP1 REVERT JUMPDEST POP GAS CALL ISZERO DUP1 ISZERO PUSH2 0x921 JUMPI RETURNDATASIZE PUSH1 0x0 DUP1 RETURNDATACOPY RETURNDATASIZE PUSH1 0x0 REVERT JUMPDEST POP POP POP POP PUSH1 0x0 PUSH1 0x14 SLOAD GT ISZERO PUSH2 0x997 JUMPI PUSH1 0x0 SLOAD PUSH1 0x14 SLOAD PUSH1 0x40 MLOAD PUSH4 0x4D248487 PUSH1 0xE1 SHL DUP2 MSTORE PUSH1 0x1 PUSH1 0x1 PUSH1 0xA0 SHL SUB SWAP1 SWAP3 AND SWAP2 PUSH4 0x9A49090E SWAP2 PUSH2 0x964 SWAP2 CALLER SWAP2 SWAP1 PUSH1 0x4 ADD PUSH2 0x39EA JUMP JUMPDEST PUSH1 0x0 PUSH1 0x40 MLOAD DUP1 DUP4 SUB DUP2 PUSH1 0x0 DUP8 DUP1 EXTCODESIZE ISZERO DUP1 ISZERO PUSH2 0x97E JUMPI PUSH1 0x0 DUP1 REVERT JUMPDEST POP GAS CALL ISZERO DUP1 ISZERO PUSH2 0x992 JUMPI RETURNDATASIZE PUSH1 0x0 DUP1 RETURNDATACOPY RETURNDATASIZE PUSH1 0x0 REVERT JUMPDEST POP POP POP POP JUMPDEST PUSH1 0x40 DUP1 MLOAD DUP3 DUP2 MSTORE PUSH1 0x20 DUP2 ADD DUP4 SWAP1 MSTORE CALLER SWAP2 PUSH32 0x69CF9C0357203EB60830C3C768CC9ADF5436120832D38C926997C4523ADC8167 SWAP2 ADD JUMPDEST PUSH1 0x40 MLOAD DUP1 SWAP2 SUB SWAP1 LOG2 PUSH2 0x9EA PUSH1 0x1 PUSH1 0x0 DUP1 MLOAD PUSH1 0x20 PUSH2 0x3C78 DUP4 CODECOPY DUP2 MLOAD SWAP2 MSTORE SSTORE JUMP JUMPDEST POP JUMP JUMPDEST PUSH1 0x0 PUSH3 0x201480 PUSH2 0x9FB PUSH2 0xD39 JUMP JUMPDEST PUSH2 0xA05 SWAP2 SWAP1 PUSH2 0x3A19 JUMP JUMPDEST SWAP1 POP SWAP1 JUMP JUMPDEST PUSH1 0x1 PUSH1 0x1 PUSH1 0xA0 SHL SUB DUP2 AND PUSH1 0x0 SWAP1 DUP2 MSTORE PUSH1 0x1 PUSH1 0x20 MSTORE PUSH1 0x40 DUP2 KECCAK256 SLOAD DUP1 DUP3 SUB PUSH2 0xA33 JUMPI POP PUSH1 0x0 SWAP3 SWAP2 POP POP JUMP JUMPDEST PUSH1 0x40 MLOAD PUSH4 0x70A08231 PUSH1 0xE0 SHL DUP2 MSTORE ADDRESS PUSH1 0x4 DUP3 ADD MSTORE PUSH1 0x0 SWAP1 PUSH32 0x0 PUSH1 0x1 PUSH1 0x1 PUSH1 0xA0 SHL SUB AND SWAP1 PUSH4 0x70A08231 SWAP1 PUSH1 0x24 ADD PUSH1 0x20 PUSH1 0x40 MLOAD DUP1 DUP4 SUB DUP2 DUP7 GAS STATICCALL ISZERO DUP1 ISZERO PUSH2 0xA9A JUMPI RETURNDATASIZE PUSH1 0x0 DUP1 RETURNDATACOPY RETURNDATASIZE PUSH1 0x0 REVERT JUMPDEST POP POP POP POP PUSH1 0x40 MLOAD RETURNDATASIZE PUSH1 0x1F NOT PUSH1 0x1F DUP3 ADD AND DUP3 ADD DUP1 PUSH1 0x40 MSTORE POP DUP2 ADD SWAP1 PUSH2 0xABE SWAP2 SWAP1 PUSH2 0x3A30 JUMP JUMPDEST PUSH1 0x40 MLOAD PUSH4 0x70A08231 PUSH1 0xE0 SHL DUP2 MSTORE ADDRESS PUSH1 0x4 DUP3 ADD MSTORE SWAP1 SWAP2 POP PUSH1 0x0 SWAP1 PUSH1 0x1 PUSH1 0x1 PUSH1 0xA0 SHL SUB PUSH32 0x0 AND SWAP1 PUSH4 0x70A08231 SWAP1 PUSH1 0x24 ADD PUSH1 0x20 PUSH1 0x40 MLOAD DUP1 DUP4 SUB DUP2 DUP7 GAS STATICCALL ISZERO DUP1 ISZERO PUSH2 0xB28 JUMPI RETURNDATASIZE PUSH1 0x0 DUP1 RETURNDATACOPY RETURNDATASIZE PUSH1 0x0 REVERT JUMPDEST POP POP POP POP PUSH1 0x40 MLOAD RETURNDATASIZE PUSH1 0x1F NOT PUSH1 0x1F DUP3 ADD AND DUP3 ADD DUP1 PUSH1 0x40 MSTORE POP DUP2 ADD SWAP1 PUSH2 0xB4C SWAP2 SWAP1 PUSH2 0x3A30 JUMP JUMPDEST SWAP1 POP DUP1 PUSH1 0x0 SUB PUSH2 0xB61 JUMPI POP PUSH1 0x0 SWAP5 SWAP4 POP POP POP POP JUMP JUMPDEST PUSH1 0x0 PUSH2 0xB6C DUP7 PUSH2 0xEB1 JUMP JUMPDEST PUSH1 0x11 SLOAD SWAP1 SWAP2 POP PUSH1 0x0 DUP2 PUSH2 0xB7F DUP7 DUP9 PUSH2 0x3A19 JUMP JUMPDEST PUSH2 0xB89 SWAP2 SWAP1 PUSH2 0x3A19 JUMP JUMPDEST SWAP1 POP PUSH1 0x0 PUSH2 0x2710 PUSH2 0xB9A DUP7 DUP7 PUSH2 0x3A19 JUMP JUMPDEST PUSH2 0xBA4 SWAP2 SWAP1 PUSH2 0x3A19 JUMP JUMPDEST SWAP1 POP DUP1 DUP3 GT PUSH2 0xBBC JUMPI POP PUSH1 0x0 SWAP9 SWAP8 POP POP POP POP POP POP POP POP JUMP JUMPDEST PUSH1 0x0 PUSH2 0xBCA PUSH2 0x2710 DUP8 PUSH2 0x3A19 JUMP JUMPDEST PUSH2 0xBD4 DUP6 DUP11 PUSH2 0x3A19 JUMP JUMPDEST PUSH2 0xBDE SWAP2 SWAP1 PUSH2 0x3A49 JUMP JUMPDEST PUSH2 0xBE8 DUP4 DUP6 PUSH2 0x3A5C JUMP JUMPDEST PUSH2 0xBF2 SWAP2 SWAP1 PUSH2 0x3A85 JUMP JUMPDEST SWAP1 POP DUP7 DUP1 DUP3 GT PUSH2 0xC02 JUMPI DUP2 PUSH2 0xC04 JUMP JUMPDEST DUP1 JUMPDEST SWAP12 SWAP11 POP POP POP POP POP POP POP POP POP POP POP JUMP JUMPDEST PUSH1 0x0 DUP1 PUSH2 0xC1F DUP4 PUSH2 0xCA8 JUMP JUMPDEST SWAP1 POP DUP1 PUSH1 0x0 SUB PUSH2 0xC33 JUMPI POP PUSH1 0x0 NOT SWAP3 SWAP2 POP POP JUMP JUMPDEST PUSH1 0x0 PUSH2 0xC3D PUSH2 0x3078 JUMP JUMPDEST PUSH2 0xC47 SWAP1 DUP4 PUSH2 0x3A19 JUMP JUMPDEST SWAP1 POP PUSH1 0x0 PUSH2 0xC54 DUP6 PUSH2 0x31F1 JUMP JUMPDEST SWAP1 POP DUP2 PUSH1 0x0 SUB PUSH2 0xC6A JUMPI POP PUSH1 0x0 NOT SWAP5 SWAP4 POP POP POP POP JUMP JUMPDEST PUSH2 0xC76 PUSH2 0x2710 DUP4 PUSH2 0x3A19 JUMP JUMPDEST PUSH1 0x11 SLOAD PUSH2 0xC83 SWAP1 DUP4 PUSH2 0x3A19 JUMP JUMPDEST PUSH2 0xC95 SWAP1 PUSH8 0xDE0B6B3A7640000 PUSH2 0x3A19 JUMP JUMPDEST PUSH2 0xC9F SWAP2 SWAP1 PUSH2 0x3A85 JUMP JUMPDEST SWAP6 SWAP5 POP POP POP POP POP JUMP JUMPDEST PUSH1 0x0 PUSH8 0xDE0B6B3A7640000 PUSH2 0xCBB PUSH2 0x2165 JUMP JUMPDEST PUSH1 0x1 PUSH1 0x1 PUSH1 0xA0 SHL SUB DUP5 AND PUSH1 0x0 SWAP1 DUP2 MSTORE PUSH1 0x4 PUSH1 0x20 MSTORE PUSH1 0x40 SWAP1 KECCAK256 SLOAD PUSH2 0xCDE SWAP2 SWAP1 PUSH2 0x3A19 JUMP JUMPDEST PUSH2 0xCE8 SWAP2 SWAP1 PUSH2 0x3A85 JUMP JUMPDEST SWAP3 SWAP2 POP POP JUMP JUMPDEST PUSH1 0x0 PUSH3 0x201480 PUSH2 0x9FB PUSH2 0xD7A JUMP JUMPDEST PUSH1 0x0 DUP1 PUSH2 0xD08 DUP4 PUSH2 0xEB1 JUMP JUMPDEST SWAP1 POP DUP1 PUSH1 0x0 SUB PUSH2 0xD1C JUMPI POP PUSH1 0x0 NOT SWAP3 SWAP2 POP POP JUMP JUMPDEST PUSH1 0x0 PUSH2 0xD2C PUSH4 0x5F5E100 DUP4 PUSH2 0x3A19 JUMP JUMPDEST SWAP1 POP PUSH1 0x0 PUSH2 0xC54 DUP6 PUSH2 0x3219 JUMP JUMPDEST PUSH1 0x0 DUP1 PUSH2 0xD44 PUSH2 0x253E JUMP JUMPDEST SWAP1 POP PUSH8 0xDE0B6B3A7640000 DUP2 PUSH1 0xC SLOAD PUSH2 0xD5D SWAP2 SWAP1 PUSH2 0x3A19 JUMP JUMPDEST PUSH2 0xD67 SWAP2 SWAP1 PUSH2 0x3A85 JUMP JUMPDEST PUSH1 0xB SLOAD PUSH2 0xD74 SWAP2 SWAP1 PUSH2 0x3A49 JUMP JUMPDEST SWAP2 POP POP SWAP1 JUMP JUMPDEST PUSH1 0x0 DUP1 PUSH2 0xD85 PUSH2 0xDB5 JUMP JUMPDEST SWAP1 POP PUSH8 0xDE0B6B3A7640000 DUP2 PUSH1 0xF SLOAD PUSH2 0xD9E SWAP2 SWAP1 PUSH2 0x3A19 JUMP JUMPDEST PUSH2 0xDA8 SWAP2 SWAP1 PUSH2 0x3A85 JUMP JUMPDEST PUSH1 0xE SLOAD PUSH2 0xD74 SWAP2 SWAP1 PUSH2 0x3A49 JUMP JUMPDEST PUSH1 0x40 MLOAD PUSH4 0x70A08231 PUSH1 0xE0 SHL DUP2 MSTORE ADDRESS PUSH1 0x4 DUP3 ADD MSTORE PUSH1 0x0 SWAP1 DUP2 SWAP1 PUSH1 0x1 PUSH1 0x1 PUSH1 0xA0 SHL SUB PUSH32 0x0 AND SWAP1 PUSH4 0x70A08231 SWAP1 PUSH1 0x24 ADD PUSH1 0x20 PUSH1 0x40 MLOAD DUP1 DUP4 SUB DUP2 DUP7 GAS STATICCALL ISZERO DUP1 ISZERO PUSH2 0xE1E JUMPI RETURNDATASIZE PUSH1 0x0 DUP1 RETURNDATACOPY RETURNDATASIZE PUSH1 0x0 REVERT JUMPDEST POP POP POP POP PUSH1 0x40 MLOAD RETURNDATASIZE PUSH1 0x1F NOT PUSH1 0x1F DUP3 ADD AND DUP3 ADD DUP1 PUSH1 0x40 MSTORE POP DUP2 ADD SWAP1 PUSH2 0xE42 SWAP2 SWAP1 PUSH2 0x3A30 JUMP JUMPDEST SWAP1 POP PUSH1 0x0 PUSH8 0xDE0B6B3A7640000 PUSH2 0xE57 PUSH2 0x2165 JUMP JUMPDEST PUSH1 0xA SLOAD PUSH2 0xE64 SWAP2 SWAP1 PUSH2 0x3A19 JUMP JUMPDEST PUSH2 0xE6E SWAP2 SWAP1 PUSH2 0x3A85 JUMP JUMPDEST SWAP1 POP PUSH1 0x0 PUSH2 0xE7C DUP3 DUP5 PUSH2 0x3A49 JUMP JUMPDEST SWAP1 POP DUP1 ISZERO PUSH2 0xEA6 JUMPI DUP1 PUSH2 0xE97 DUP4 PUSH8 0xDE0B6B3A7640000 PUSH2 0x3A19 JUMP JUMPDEST PUSH2 0xEA1 SWAP2 SWAP1 PUSH2 0x3A85 JUMP JUMPDEST PUSH2 0xEA9 JUMP JUMPDEST PUSH1 0x0 JUMPDEST SWAP4 POP POP POP POP SWAP1 JUMP JUMPDEST PUSH1 0x0 PUSH8 0xDE0B6B3A7640000 PUSH2 0xEC4 PUSH2 0x2C47 JUMP JUMPDEST PUSH1 0x1 PUSH1 0x1 PUSH1 0xA0 SHL SUB DUP5 AND PUSH1 0x0 SWAP1 DUP2 MSTORE PUSH1 0x3 PUSH1 0x20 MSTORE PUSH1 0x40 SWAP1 KECCAK256 SLOAD PUSH2 0xCDE SWAP2 SWAP1 PUSH2 0x3A19 JUMP JUMPDEST PUSH2 0xEEF PUSH2 0x3020 JUMP JUMPDEST PUSH2 0xEF7 PUSH2 0x325B JUMP JUMPDEST PUSH1 0x0 DUP2 GT PUSH2 0xF17 JUMPI PUSH1 0x40 MLOAD PUSH3 0x461BCD PUSH1 0xE5 SHL DUP2 MSTORE PUSH1 0x4 ADD PUSH2 0x867 SWAP1 PUSH2 0x39BE JUMP JUMPDEST CALLER PUSH1 0x0 SWAP1 DUP2 MSTORE PUSH1 0x2 PUSH1 0x20 MSTORE PUSH1 0x40 SWAP1 KECCAK256 SLOAD PUSH2 0xF7D JUMPI PUSH1 0x40 MLOAD PUSH3 0x461BCD PUSH1 0xE5 SHL DUP2 MSTORE PUSH1 0x20 PUSH1 0x4 DUP3 ADD MSTORE PUSH1 0x21 PUSH1 0x24 DUP3 ADD MSTORE PUSH32 0x50434F4C42555344506F6F6C3A206E6F20504255534420636F6C6C6174657261 PUSH1 0x44 DUP3 ADD MSTORE PUSH1 0x1B PUSH1 0xFA SHL PUSH1 0x64 DUP3 ADD MSTORE PUSH1 0x84 ADD PUSH2 0x867 JUMP JUMPDEST PUSH1 0x40 MLOAD PUSH4 0x70A08231 PUSH1 0xE0 SHL DUP2 MSTORE ADDRESS PUSH1 0x4 DUP3 ADD MSTORE DUP2 SWAP1 PUSH32 0x0 PUSH1 0x1 PUSH1 0x1 PUSH1 0xA0 SHL SUB AND SWAP1 PUSH4 0x70A08231 SWAP1 PUSH1 0x24 ADD PUSH1 0x20 PUSH1 0x40 MLOAD DUP1 DUP4 SUB DUP2 DUP7 GAS STATICCALL ISZERO DUP1 ISZERO PUSH2 0xFE3 JUMPI RETURNDATASIZE PUSH1 0x0 DUP1 RETURNDATACOPY RETURNDATASIZE PUSH1 0x0 REVERT JUMPDEST POP POP POP POP PUSH1 0x40 MLOAD RETURNDATASIZE PUSH1 0x1F NOT PUSH1 0x1F DUP3 ADD AND DUP3 ADD DUP1 PUSH1 0x40 MSTORE POP DUP2 ADD SWAP1 PUSH2 0x1007 SWAP2 SWAP1 PUSH2 0x3A30 JUMP JUMPDEST LT ISZERO PUSH2 0x1055 JUMPI PUSH1 0x40 MLOAD PUSH3 0x461BCD PUSH1 0xE5 SHL DUP2 MSTORE PUSH1 0x20 PUSH1 0x4 DUP3 ADD MSTORE PUSH1 0x1E PUSH1 0x24 DUP3 ADD MSTORE PUSH32 0x50434F4C42555344506F6F6C3A20696E73756666696369656E7420434F4C0000 PUSH1 0x44 DUP3 ADD MSTORE PUSH1 0x64 ADD PUSH2 0x867 JUMP JUMPDEST PUSH1 0x6 SLOAD PUSH1 0x0 SWAP1 PUSH2 0x106D DUP4 PUSH8 0xDE0B6B3A7640000 PUSH2 0x3A19 JUMP JUMPDEST PUSH2 0x1077 SWAP2 SWAP1 PUSH2 0x3A85 JUMP JUMPDEST CALLER PUSH1 0x0 SWAP1 DUP2 MSTORE PUSH1 0x4 PUSH1 0x20 MSTORE PUSH1 0x40 DUP2 KECCAK256 DUP1 SLOAD SWAP3 SWAP4 POP DUP4 SWAP3 SWAP1 SWAP2 SWAP1 PUSH2 0x109B SWAP1 DUP5 SWAP1 PUSH2 0x3A49 JUMP JUMPDEST SWAP3 POP POP DUP2 SWAP1 SSTORE POP DUP1 PUSH1 0xA PUSH1 0x0 DUP3 DUP3 SLOAD PUSH2 0x10B4 SWAP2 SWAP1 PUSH2 0x3A49 JUMP JUMPDEST SWAP1 SWAP2 SSTORE POP PUSH8 0xDE0B6B3A7640000 SWAP1 POP PUSH2 0x10CC CALLER PUSH2 0xC13 JUMP JUMPDEST LT ISZERO PUSH2 0x10EA JUMPI PUSH1 0x40 MLOAD PUSH3 0x461BCD PUSH1 0xE5 SHL DUP2 MSTORE PUSH1 0x4 ADD PUSH2 0x867 SWAP1 PUSH2 0x3A99 JUMP JUMPDEST PUSH2 0x111E PUSH1 0x1 PUSH1 0x1 PUSH1 0xA0 SHL SUB PUSH32 0x0 AND CALLER DUP5 PUSH2 0x3342 JUMP JUMPDEST PUSH1 0x15 SLOAD ISZERO PUSH2 0x118D JUMPI PUSH1 0x0 SLOAD PUSH1 0x15 SLOAD PUSH1 0x40 MLOAD PUSH4 0x4D248487 PUSH1 0xE1 SHL DUP2 MSTORE PUSH1 0x1 PUSH1 0x1 PUSH1 0xA0 SHL SUB SWAP1 SWAP3 AND SWAP2 PUSH4 0x9A49090E SWAP2 PUSH2 0x115A SWAP2 CALLER SWAP2 SWAP1 PUSH1 0x4 ADD PUSH2 0x39EA JUMP JUMPDEST PUSH1 0x0 PUSH1 0x40 MLOAD DUP1 DUP4 SUB DUP2 PUSH1 0x0 DUP8 DUP1 EXTCODESIZE ISZERO DUP1 ISZERO PUSH2 0x1174 JUMPI PUSH1 0x0 DUP1 REVERT JUMPDEST POP GAS CALL ISZERO DUP1 ISZERO PUSH2 0x1188 JUMPI RETURNDATASIZE PUSH1 0x0 DUP1 RETURNDATACOPY RETURNDATASIZE PUSH1 0x0 REVERT JUMPDEST POP POP POP POP JUMPDEST PUSH1 0x40 MLOAD DUP3 DUP2 MSTORE CALLER SWAP1 PUSH32 0x64058EF3FD742704269A61C4D8E869AC215D70D1DFBD716D4746DA00FA89A839 SWAP1 PUSH1 0x20 ADD JUMPDEST PUSH1 0x40 MLOAD DUP1 SWAP2 SUB SWAP1 LOG2 POP PUSH2 0x9EA PUSH1 0x1 PUSH1 0x0 DUP1 MLOAD PUSH1 0x20 PUSH2 0x3C78 DUP4 CODECOPY DUP2 MLOAD SWAP2 MSTORE SSTORE JUMP JUMPDEST PUSH2 0x11E3 PUSH2 0x3020 JUMP JUMPDEST PUSH2 0x11EB PUSH2 0x337C JUMP JUMPDEST PUSH1 0x0 DUP2 GT PUSH2 0x120B JUMPI PUSH1 0x40 MLOAD PUSH3 0x461BCD PUSH1 0xE5 SHL DUP2 MSTORE PUSH1 0x4 ADD PUSH2 0x867 SWAP1 PUSH2 0x39BE JUMP JUMPDEST CALLER PUSH1 0x0 SWAP1 DUP2 MSTORE PUSH1 0x1 PUSH1 0x20 MSTORE PUSH1 0x40 SWAP1 KECCAK256 SLOAD PUSH2 0x1267 JUMPI PUSH1 0x40 MLOAD PUSH3 0x461BCD PUSH1 0xE5 SHL DUP2 MSTORE PUSH1 0x20 PUSH1 0x4 DUP3 ADD DUP2 SWAP1 MSTORE PUSH1 0x24 DUP3 ADD MSTORE PUSH32 0x50434F4C42555344506F6F6C3A206E6F2050434F4C20636F6C6C61746572616C PUSH1 0x44 DUP3 ADD MSTORE PUSH1 0x64 ADD PUSH2 0x867 JUMP JUMPDEST PUSH1 0x40 MLOAD PUSH4 0x70A08231 PUSH1 0xE0 SHL DUP2 MSTORE ADDRESS PUSH1 0x4 DUP3 ADD MSTORE DUP2 SWAP1 PUSH32 0x0 PUSH1 0x1 PUSH1 0x1 PUSH1 0xA0 SHL SUB AND SWAP1 PUSH4 0x70A08231 SWAP1 PUSH1 0x24 ADD PUSH1 0x20 PUSH1 0x40 MLOAD DUP1 DUP4 SUB DUP2 DUP7 GAS STATICCALL ISZERO DUP1 ISZERO PUSH2 0x12CD JUMPI RETURNDATASIZE PUSH1 0x0 DUP1 RETURNDATACOPY RETURNDATASIZE PUSH1 0x0 REVERT JUMPDEST POP POP POP POP PUSH1 0x40 MLOAD RETURNDATASIZE PUSH1 0x1F NOT PUSH1 0x1F DUP3 ADD AND DUP3 ADD DUP1 PUSH1 0x40 MSTORE POP DUP2 ADD SWAP1 PUSH2 0x12F1 SWAP2 SWAP1 PUSH2 0x3A30 JUMP JUMPDEST LT ISZERO PUSH2 0x133F JUMPI PUSH1 0x40 MLOAD PUSH3 0x461BCD PUSH1 0xE5 SHL DUP2 MSTORE PUSH1 0x20 PUSH1 0x4 DUP3 ADD MSTORE PUSH1 0x1F PUSH1 0x24 DUP3 ADD MSTORE PUSH32 0x50434F4C42555344506F6F6C3A20696E73756666696369656E74204255534400 PUSH1 0x44 DUP3 ADD MSTORE PUSH1 0x64 ADD PUSH2 0x867 JUMP JUMPDEST PUSH1 0x5 SLOAD PUSH1 0x0 SWAP1 PUSH2 0x1357 DUP4 PUSH8 0xDE0B6B3A7640000 PUSH2 0x3A19 JUMP JUMPDEST PUSH2 0x1361 SWAP2 SWAP1 PUSH2 0x3A85 JUMP JUMPDEST CALLER PUSH1 0x0 SWAP1 DUP2 MSTORE PUSH1 0x3 PUSH1 0x20 MSTORE PUSH1 0x40 DUP2 KECCAK256 DUP1 SLOAD SWAP3 SWAP4 POP DUP4 SWAP3 SWAP1 SWAP2 SWAP1 PUSH2 0x1385 SWAP1 DUP5 SWAP1 PUSH2 0x3A49 JUMP JUMPDEST SWAP3 POP POP DUP2 SWAP1 SSTORE POP DUP1 PUSH1 0x9 PUSH1 0x0 DUP3 DUP3 SLOAD PUSH2 0x139E SWAP2 SWAP1 PUSH2 0x3A49 JUMP JUMPDEST SWAP1 SWAP2 SSTORE POP PUSH8 0xDE0B6B3A7640000 SWAP1 POP PUSH2 0x13B6 CALLER PUSH2 0xCFC JUMP JUMPDEST LT ISZERO PUSH2 0x13D4 JUMPI PUSH1 0x40 MLOAD PUSH3 0x461BCD PUSH1 0xE5 SHL DUP2 MSTORE PUSH1 0x4 ADD PUSH2 0x867 SWAP1 PUSH2 0x3A99 JUMP JUMPDEST PUSH2 0x1408 PUSH1 0x1 PUSH1 0x1 PUSH1 0xA0 SHL SUB PUSH32 0x0 AND CALLER DUP5 PUSH2 0x3342 JUMP JUMPDEST PUSH1 0x15 SLOAD ISZERO PUSH2 0x1477 JUMPI PUSH1 0x0 SLOAD PUSH1 0x15 SLOAD PUSH1 0x40 MLOAD PUSH4 0x4D248487 PUSH1 0xE1 SHL DUP2 MSTORE PUSH1 0x1 PUSH1 0x1 PUSH1 0xA0 SHL SUB SWAP1 SWAP3 AND SWAP2 PUSH4 0x9A49090E SWAP2 PUSH2 0x1444 SWAP2 CALLER SWAP2 SWAP1 PUSH1 0x4 ADD PUSH2 0x39EA JUMP JUMPDEST PUSH1 0x0 PUSH1 0x40 MLOAD DUP1 DUP4 SUB DUP2 PUSH1 0x0 DUP8 DUP1 EXTCODESIZE ISZERO DUP1 ISZERO PUSH2 0x145E JUMPI PUSH1 0x0 DUP1 REVERT JUMPDEST POP GAS CALL ISZERO DUP1 ISZERO PUSH2 0x1472 JUMPI RETURNDATASIZE PUSH1 0x0 DUP1 RETURNDATACOPY RETURNDATASIZE PUSH1 0x0 REVERT JUMPDEST POP POP POP POP JUMPDEST PUSH1 0x40 MLOAD DUP3 DUP2 MSTORE CALLER SWAP1 PUSH32 0xF6FC424A68D90F3F5323BE41DB315721F4B8843B3799AE1089007F88E2190551 SWAP1 PUSH1 0x20 ADD PUSH2 0x11BB JUMP JUMPDEST PUSH2 0x14B1 PUSH2 0x3020 JUMP JUMPDEST PUSH1 0x0 DUP2 GT PUSH2 0x14D1 JUMPI PUSH1 0x40 MLOAD PUSH3 0x461BCD PUSH1 0xE5 SHL DUP2 MSTORE PUSH1 0x4 ADD PUSH2 0x867 SWAP1 PUSH2 0x39BE JUMP JUMPDEST PUSH2 0x1506 PUSH1 0x1 PUSH1 0x1 PUSH1 0xA0 SHL SUB PUSH32 0x0 AND CALLER ADDRESS DUP5 PUSH2 0x303C JUMP JUMPDEST PUSH1 0x40 MLOAD PUSH4 0x40C10F19 PUSH1 0xE0 SHL DUP2 MSTORE PUSH1 0x1 PUSH1 0x1 PUSH1 0xA0 SHL SUB PUSH32 0x0 AND SWAP1 PUSH4 0x40C10F19 SWAP1 PUSH2 0x1554 SWAP1 CALLER SWAP1 DUP6 SWAP1 PUSH1 0x4 ADD PUSH2 0x39EA JUMP JUMPDEST PUSH1 0x0 PUSH1 0x40 MLOAD DUP1 DUP4 SUB DUP2 PUSH1 0x0 DUP8 DUP1 EXTCODESIZE ISZERO DUP1 ISZERO PUSH2 0x156E JUMPI PUSH1 0x0 DUP1 REVERT JUMPDEST POP GAS CALL ISZERO DUP1 ISZERO PUSH2 0x1582 JUMPI RETURNDATASIZE PUSH1 0x0 DUP1 RETURNDATACOPY RETURNDATASIZE PUSH1 0x0 REVERT JUMPDEST POP POP POP POP PUSH1 0x0 PUSH1 0x14 SLOAD GT ISZERO PUSH2 0x15F8 JUMPI PUSH1 0x0 SLOAD PUSH1 0x14 SLOAD PUSH1 0x40 MLOAD PUSH4 0x4D248487 PUSH1 0xE1 SHL DUP2 MSTORE PUSH1 0x1 PUSH1 0x1 PUSH1 0xA0 SHL SUB SWAP1 SWAP3 AND SWAP2 PUSH4 0x9A49090E SWAP2 PUSH2 0x15C5 SWAP2 CALLER SWAP2 SWAP1 PUSH1 0x4 ADD PUSH2 0x39EA JUMP JUMPDEST PUSH1 0x0 PUSH1 0x40 MLOAD DUP1 DUP4 SUB DUP2 PUSH1 0x0 DUP8 DUP1 EXTCODESIZE ISZERO DUP1 ISZERO PUSH2 0x15DF JUMPI PUSH1 0x0 DUP1 REVERT JUMPDEST POP GAS CALL ISZERO DUP1 ISZERO PUSH2 0x15F3 JUMPI RETURNDATASIZE PUSH1 0x0 DUP1 RETURNDATACOPY RETURNDATASIZE PUSH1 0x0 REVERT JUMPDEST POP POP POP POP JUMPDEST PUSH1 0x40 DUP1 MLOAD DUP3 DUP2 MSTORE PUSH1 0x20 DUP2 ADD DUP4 SWAP1 MSTORE CALLER SWAP2 PUSH32 0x8A2298614B2CCBBC8111D5698F4353B52ED97C61821CE6BB845F369A687CF4D3 SWAP2 ADD PUSH2 0x9CB JUMP JUMPDEST PUSH2 0x1638 PUSH2 0x3020 JUMP JUMPDEST PUSH32 0x0 PUSH1 0x1 PUSH1 0x1 PUSH1 0xA0 SHL SUB AND DUP5 PUSH1 0x1 PUSH1 0x1 PUSH1 0xA0 SHL SUB AND EQ DUP1 PUSH2 0x16A9 JUMPI POP PUSH32 0x0 PUSH1 0x1 PUSH1 0x1 PUSH1 0xA0 SHL SUB AND DUP5 PUSH1 0x1 PUSH1 0x1 PUSH1 0xA0 SHL SUB AND EQ JUMPDEST PUSH2 0x16F5 JUMPI PUSH1 0x40 MLOAD PUSH3 0x461BCD PUSH1 0xE5 SHL DUP2 MSTORE PUSH1 0x20 PUSH1 0x4 DUP3 ADD MSTORE PUSH1 0x19 PUSH1 0x24 DUP3 ADD MSTORE PUSH32 0x50434F4C42555344506F6F6C3A20756E737570706F7274656400000000000000 PUSH1 0x44 DUP3 ADD MSTORE PUSH1 0x64 ADD PUSH2 0x867 JUMP JUMPDEST PUSH1 0x0 DUP4 GT DUP1 ISZERO PUSH2 0x1708 JUMPI POP PUSH1 0x16 SLOAD PUSH1 0xFF AND ISZERO JUMPDEST PUSH2 0x1754 JUMPI PUSH1 0x40 MLOAD PUSH3 0x461BCD PUSH1 0xE5 SHL DUP2 MSTORE PUSH1 0x20 PUSH1 0x4 DUP3 ADD MSTORE PUSH1 0x1B PUSH1 0x24 DUP3 ADD MSTORE PUSH32 0x50434F4C42555344506F6F6C3A20696E76616C696420666C6173680000000000 PUSH1 0x44 DUP3 ADD MSTORE PUSH1 0x64 ADD PUSH2 0x867 JUMP JUMPDEST PUSH1 0x0 PUSH2 0x2710 PUSH1 0x13 SLOAD DUP6 PUSH2 0x1767 SWAP2 SWAP1 PUSH2 0x3A19 JUMP JUMPDEST PUSH2 0x1771 SWAP2 SWAP1 PUSH2 0x3A85 JUMP JUMPDEST PUSH1 0x16 DUP1 SLOAD PUSH1 0xFF NOT AND PUSH1 0x1 OR SWAP1 SSTORE PUSH1 0x40 MLOAD PUSH4 0x70A08231 PUSH1 0xE0 SHL DUP2 MSTORE ADDRESS PUSH1 0x4 DUP3 ADD MSTORE SWAP1 SWAP2 POP PUSH1 0x0 SWAP1 PUSH1 0x1 PUSH1 0x1 PUSH1 0xA0 SHL SUB DUP8 AND SWAP1 PUSH4 0x70A08231 SWAP1 PUSH1 0x24 ADD PUSH1 0x20 PUSH1 0x40 MLOAD DUP1 DUP4 SUB DUP2 DUP7 GAS STATICCALL ISZERO DUP1 ISZERO PUSH2 0x17C8 JUMPI RETURNDATASIZE PUSH1 0x0 DUP1 RETURNDATACOPY RETURNDATASIZE PUSH1 0x0 REVERT JUMPDEST POP POP POP POP PUSH1 0x40 MLOAD RETURNDATASIZE PUSH1 0x1F NOT PUSH1 0x1F DUP3 ADD AND DUP3 ADD DUP1 PUSH1 0x40 MSTORE POP DUP2 ADD SWAP1 PUSH2 0x17EC SWAP2 SWAP1 PUSH2 0x3A30 JUMP JUMPDEST SWAP1 POP PUSH2 0x1802 PUSH1 0x1 PUSH1 0x1 PUSH1 0xA0 SHL SUB DUP8 AND DUP9 DUP8 PUSH2 0x3342 JUMP JUMPDEST PUSH1 0x40 MLOAD PUSH4 0x1B11D0FF PUSH1 0xE0 SHL DUP2 MSTORE PUSH1 0x1 PUSH1 0x1 PUSH1 0xA0 SHL SUB DUP9 AND SWAP1 PUSH4 0x1B11D0FF SWAP1 PUSH2 0x1838 SWAP1 DUP10 SWAP1 DUP10 SWAP1 DUP8 SWAP1 CALLER SWAP1 DUP12 SWAP1 DUP12 SWAP1 PUSH1 0x4 ADD PUSH2 0x3AC3 JUMP JUMPDEST PUSH1 0x20 PUSH1 0x40 MLOAD DUP1 DUP4 SUB DUP2 PUSH1 0x0 DUP8 GAS CALL ISZERO DUP1 ISZERO PUSH2 0x1857 JUMPI RETURNDATASIZE PUSH1 0x0 DUP1 RETURNDATACOPY RETURNDATASIZE PUSH1 0x0 REVERT JUMPDEST POP POP POP POP PUSH1 0x40 MLOAD RETURNDATASIZE PUSH1 0x1F NOT PUSH1 0x1F DUP3 ADD AND DUP3 ADD DUP1 PUSH1 0x40 MSTORE POP DUP2 ADD SWAP1 PUSH2 0x187B SWAP2 SWAP1 PUSH2 0x3B1F JUMP JUMPDEST PUSH2 0x18C7 JUMPI PUSH1 0x40 MLOAD PUSH3 0x461BCD PUSH1 0xE5 SHL DUP2 MSTORE PUSH1 0x20 PUSH1 0x4 DUP3 ADD MSTORE PUSH1 0x1A PUSH1 0x24 DUP3 ADD MSTORE PUSH32 0x50434F4C42555344506F6F6C3A20666C617368206661696C6564000000000000 PUSH1 0x44 DUP3 ADD MSTORE PUSH1 0x64 ADD PUSH2 0x867 JUMP JUMPDEST PUSH2 0x18D1 DUP3 DUP3 PUSH2 0x3A49 JUMP JUMPDEST PUSH1 0x40 MLOAD PUSH4 0x70A08231 PUSH1 0xE0 SHL DUP2 MSTORE ADDRESS PUSH1 0x4 DUP3 ADD MSTORE PUSH1 0x1 PUSH1 0x1 PUSH1 0xA0 SHL SUB DUP9 AND SWAP1 PUSH4 0x70A08231 SWAP1 PUSH1 0x24 ADD PUSH1 0x20 PUSH1 0x40 MLOAD DUP1 DUP4 SUB DUP2 DUP7 GAS STATICCALL ISZERO DUP1 ISZERO PUSH2 0x1915 JUMPI RETURNDATASIZE PUSH1 0x0 DUP1 RETURNDATACOPY RETURNDATASIZE PUSH1 0x0 REVERT JUMPDEST POP POP POP POP PUSH1 0x40 MLOAD RETURNDATASIZE PUSH1 0x1F NOT PUSH1 0x1F DUP3 ADD AND DUP3 ADD DUP1 PUSH1 0x40 MSTORE POP DUP2 ADD SWAP1 PUSH2 0x1939 SWAP2 SWAP1 PUSH2 0x3A30 JUMP JUMPDEST LT ISZERO PUSH2 0x1987 JUMPI PUSH1 0x40 MLOAD PUSH3 0x461BCD PUSH1 0xE5 SHL DUP2 MSTORE PUSH1 0x20 PUSH1 0x4 DUP3 ADD MSTORE PUSH1 0x18 PUSH1 0x24 DUP3 ADD MSTORE PUSH32 0x50434F4C42555344506F6F6C3A206E6F74207265706169640000000000000000 PUSH1 0x44 DUP3 ADD MSTORE PUSH1 0x64 ADD PUSH2 0x867 JUMP JUMPDEST PUSH1 0x16 DUP1 SLOAD PUSH1 0xFF NOT AND SWAP1 SSTORE PUSH1 0x40 DUP1 MLOAD DUP7 DUP2 MSTORE PUSH1 0x20 DUP2 ADD DUP5 SWAP1 MSTORE PUSH1 0x1 PUSH1 0x1 PUSH1 0xA0 SHL SUB DUP9 DUP2 AND SWAP3 SWAP1 DUP11 AND SWAP2 PUSH32 0xD7D75E01AB95780D3CD1C8EC0DD6C2CE19E3A20427EEC8BF53283B6FB8E95F0 SWAP2 ADD PUSH1 0x40 MLOAD DUP1 SWAP2 SUB SWAP1 LOG3 POP POP PUSH2 0x19F3 PUSH1 0x1 PUSH1 0x0 DUP1 MLOAD PUSH1 0x20 PUSH2 0x3C78 DUP4 CODECOPY DUP2 MLOAD SWAP2 MSTORE SSTORE JUMP JUMPDEST POP POP POP POP POP JUMP JUMPDEST PUSH2 0x1A02 PUSH2 0x3020 JUMP JUMPDEST PUSH2 0x1A0A PUSH2 0x325B JUMP JUMPDEST PUSH8 0xDE0B6B3A7640000 PUSH2 0x1A1C DUP3 PUSH2 0xC13 JUMP JUMPDEST LT PUSH2 0x1A69 JUMPI PUSH1 0x40 MLOAD PUSH3 0x461BCD PUSH1 0xE5 SHL DUP2 MSTORE PUSH1 0x20 PUSH1 0x4 DUP3 ADD MSTORE PUSH1 0x1E PUSH1 0x24 DUP3 ADD MSTORE PUSH32 0x50434F4C42555344506F6F6C3A206E6F74206C6971756964617461626C650000 PUSH1 0x44 DUP3 ADD MSTORE PUSH1 0x64 ADD PUSH2 0x867 JUMP JUMPDEST PUSH1 0x6 SLOAD PUSH1 0x1 PUSH1 0x1 PUSH1 0xA0 SHL SUB DUP3 AND PUSH1 0x0 SWAP1 DUP2 MSTORE PUSH1 0x4 PUSH1 0x20 MSTORE PUSH1 0x40 DUP2 KECCAK256 SLOAD SWAP1 SWAP2 PUSH8 0xDE0B6B3A7640000 SWAP2 PUSH2 0x1A9B SWAP2 SWAP1 PUSH2 0x3A19 JUMP JUMPDEST PUSH2 0x1AA5 SWAP2 SWAP1 PUSH2 0x3A85 JUMP JUMPDEST SWAP1 POP PUSH1 0x0 DUP2 GT DUP1 ISZERO PUSH2 0x1ACE JUMPI POP PUSH1 0x1 PUSH1 0x1 PUSH1 0xA0 SHL SUB DUP3 AND PUSH1 0x0 SWAP1 DUP2 MSTORE PUSH1 0x2 PUSH1 0x20 MSTORE PUSH1 0x40 SWAP1 KECCAK256 SLOAD ISZERO ISZERO JUMPDEST PUSH2 0x1B11 JUMPI PUSH1 0x40 MLOAD PUSH3 0x461BCD PUSH1 0xE5 SHL DUP2 MSTORE PUSH1 0x20 PUSH1 0x4 DUP3 ADD MSTORE PUSH1 0x14 PUSH1 0x24 DUP3 ADD MSTORE PUSH20 0x50434F4C42555344506F6F6C3A206E6F20706F73 PUSH1 0x60 SHL PUSH1 0x44 DUP3 ADD MSTORE PUSH1 0x64 ADD PUSH2 0x867 JUMP JUMPDEST PUSH1 0x6 SLOAD PUSH1 0x0 SWAP1 PUSH2 0x1B29 DUP4 PUSH8 0xDE0B6B3A7640000 PUSH2 0x3A19 JUMP JUMPDEST PUSH2 0x1B33 SWAP2 SWAP1 PUSH2 0x3A85 JUMP JUMPDEST PUSH1 0x1 PUSH1 0x1 PUSH1 0xA0 SHL SUB DUP5 AND PUSH1 0x0 SWAP1 DUP2 MSTORE PUSH1 0x4 PUSH1 0x20 MSTORE PUSH1 0x40 DUP2 KECCAK256 DUP2 SWAP1 SSTORE PUSH1 0xA DUP1 SLOAD SWAP3 SWAP4 POP DUP4 SWAP3 SWAP1 SWAP2 SWAP1 PUSH2 0x1B65 SWAP1 DUP5 SWAP1 PUSH2 0x3A5C JUMP JUMPDEST SWAP1 SWAP2 SSTORE POP POP PUSH1 0x1 PUSH1 0x1 PUSH1 0xA0 SHL SUB DUP4 AND PUSH1 0x0 SWAP1 DUP2 MSTORE PUSH1 0x2 PUSH1 0x20 MSTORE PUSH1 0x40 DUP2 KECCAK256 DUP1 SLOAD SWAP1 DUP3 SWAP1 SSTORE PUSH1 0x12 SLOAD SWAP1 SWAP2 SWAP1 PUSH2 0x2710 SWAP1 PUSH2 0x1B9C SWAP1 DUP3 PUSH2 0x3A49 JUMP JUMPDEST PUSH2 0x1BA6 SWAP1 DUP5 PUSH2 0x3A19 JUMP JUMPDEST PUSH2 0x1BB0 SWAP2 SWAP1 PUSH2 0x3A85 JUMP JUMPDEST SWAP1 POP DUP2 DUP2 GT ISZERO PUSH2 0x1BBD JUMPI POP DUP1 JUMPDEST PUSH1 0x0 PUSH2 0x1BC9 DUP3 DUP5 PUSH2 0x3A5C JUMP JUMPDEST SWAP1 POP PUSH2 0x1C00 PUSH1 0x1 PUSH1 0x1 PUSH1 0xA0 SHL SUB PUSH32 0x0 AND CALLER ADDRESS DUP9 PUSH2 0x303C JUMP JUMPDEST DUP1 ISZERO PUSH2 0x1C87 JUMPI PUSH1 0x40 MLOAD PUSH4 0x2770A7EB PUSH1 0xE2 SHL DUP2 MSTORE PUSH1 0x1 PUSH1 0x1 PUSH1 0xA0 SHL SUB PUSH32 0x0 AND SWAP1 PUSH4 0x9DC29FAC SWAP1 PUSH2 0x1C54 SWAP1 ADDRESS SWAP1 DUP6 SWAP1 PUSH1 0x4 ADD PUSH2 0x39EA JUMP JUMPDEST PUSH1 0x0 PUSH1 0x40 MLOAD DUP1 DUP4 SUB DUP2 PUSH1 0x0 DUP8 DUP1 EXTCODESIZE ISZERO DUP1 ISZERO PUSH2 0x1C6E JUMPI PUSH1 0x0 DUP1 REVERT JUMPDEST POP GAS CALL ISZERO DUP1 ISZERO PUSH2 0x1C82 JUMPI RETURNDATASIZE PUSH1 0x0 DUP1 RETURNDATACOPY RETURNDATASIZE PUSH1 0x0 REVERT JUMPDEST POP POP POP POP JUMPDEST PUSH2 0x1CBB PUSH1 0x1 PUSH1 0x1 PUSH1 0xA0 SHL SUB PUSH32 0x0 AND CALLER DUP5 PUSH2 0x3342 JUMP JUMPDEST PUSH1 0x40 DUP1 MLOAD DUP7 DUP2 MSTORE PUSH1 0x20 DUP2 ADD DUP5 SWAP1 MSTORE PUSH1 0x1 PUSH1 0x1 PUSH1 0xA0 SHL SUB DUP9 AND SWAP2 CALLER SWAP2 PUSH32 0xE912F4CCB4A26A55BF54B23B7E96FCAC60EBC03B3E76CCDB6752B5D8ABC7E8F9 SWAP2 ADD JUMPDEST PUSH1 0x40 MLOAD DUP1 SWAP2 SUB SWAP1 LOG3 POP POP POP POP POP PUSH2 0x9EA PUSH1 0x1 PUSH1 0x0 DUP1 MLOAD PUSH1 0x20 PUSH2 0x3C78 DUP4 CODECOPY DUP2 MLOAD SWAP2 MSTORE SSTORE JUMP JUMPDEST PUSH1 0x0 DUP1 PUSH2 0x1D29 PUSH2 0xDB5 JUMP JUMPDEST SWAP1 POP PUSH1 0x0 PUSH2 0x1D35 PUSH2 0xCEE JUMP JUMPDEST SWAP1 POP PUSH2 0x1D4B PUSH2 0x2710 PUSH8 0xDE0B6B3A7640000 PUSH2 0x3A19 JUMP JUMPDEST PUSH1 0x10 SLOAD PUSH2 0x1D5A SWAP1 PUSH2 0x2710 PUSH2 0x3A5C JUMP JUMPDEST PUSH2 0x1D64 DUP5 DUP5 PUSH2 0x3A19 JUMP JUMPDEST PUSH2 0x1D6E SWAP2 SWAP1 PUSH2 0x3A19 JUMP JUMPDEST PUSH2 0x1D78 SWAP2 SWAP1 PUSH2 0x3A85 JUMP JUMPDEST SWAP3 POP POP POP SWAP1 JUMP JUMPDEST PUSH2 0x1D87 PUSH2 0x3020 JUMP JUMPDEST PUSH1 0x0 DUP2 GT PUSH2 0x1DA7 JUMPI PUSH1 0x40 MLOAD PUSH3 0x461BCD PUSH1 0xE5 SHL DUP2 MSTORE PUSH1 0x4 ADD PUSH2 0x867 SWAP1 PUSH2 0x39BE JUMP JUMPDEST PUSH1 0x40 MLOAD PUSH4 0x70A08231 PUSH1 0xE0 SHL DUP2 MSTORE ADDRESS PUSH1 0x4 DUP3 ADD MSTORE DUP2 SWAP1 PUSH32 0x0 PUSH1 0x1 PUSH1 0x1 PUSH1 0xA0 SHL SUB AND SWAP1 PUSH4 0x70A08231 SWAP1 PUSH1 0x24 ADD PUSH1 0x20 PUSH1 0x40 MLOAD DUP1 DUP4 SUB DUP2 DUP7 GAS STATICCALL ISZERO DUP1 ISZERO PUSH2 0x1E0D JUMPI RETURNDATASIZE PUSH1 0x0 DUP1 RETURNDATACOPY RETURNDATASIZE PUSH1 0x0 REVERT JUMPDEST POP POP POP POP PUSH1 0x40 MLOAD RETURNDATASIZE PUSH1 0x1F NOT PUSH1 0x1F DUP3 ADD AND DUP3 ADD DUP1 PUSH1 0x40 MSTORE POP DUP2 ADD SWAP1 PUSH2 0x1E31 SWAP2 SWAP1 PUSH2 0x3A30 JUMP JUMPDEST LT ISZERO PUSH2 0x1E7F JUMPI PUSH1 0x40 MLOAD PUSH3 0x461BCD PUSH1 0xE5 SHL DUP2 MSTORE PUSH1 0x20 PUSH1 0x4 DUP3 ADD MSTORE PUSH1 0x1E PUSH1 0x24 DUP3 ADD MSTORE PUSH32 0x50434F4C42555344506F6F6C3A20696E73756666696369656E7420434F4C0000 PUSH1 0x44 DUP3 ADD MSTORE PUSH1 0x64 ADD PUSH2 0x867 JUMP JUMPDEST PUSH1 0x40 MLOAD PUSH4 0x2770A7EB PUSH1 0xE2 SHL DUP2 MSTORE PUSH1 0x1 PUSH1 0x1 PUSH1 0xA0 SHL SUB PUSH32 0x0 AND SWAP1 PUSH4 0x9DC29FAC SWAP1 PUSH2 0x1ECD SWAP1 CALLER SWAP1 DUP6 SWAP1 PUSH1 0x4 ADD PUSH2 0x39EA JUMP JUMPDEST PUSH1 0x0 PUSH1 0x40 MLOAD DUP1 DUP4 SUB DUP2 PUSH1 0x0 DUP8 DUP1 EXTCODESIZE ISZERO DUP1 ISZERO PUSH2 0x1EE7 JUMPI PUSH1 0x0 DUP1 REVERT JUMPDEST POP GAS CALL ISZERO DUP1 ISZERO PUSH2 0x1EFB JUMPI RETURNDATASIZE PUSH1 0x0 DUP1 RETURNDATACOPY RETURNDATASIZE PUSH1 0x0 REVERT JUMPDEST POP PUSH2 0x1F35 SWAP3 POP POP PUSH1 0x1 PUSH1 0x1 PUSH1 0xA0 SHL SUB PUSH32 0x0 AND SWAP1 POP CALLER DUP4 PUSH2 0x3342 JUMP JUMPDEST PUSH1 0x40 DUP1 MLOAD DUP3 DUP2 MSTORE PUSH1 0x20 DUP2 ADD DUP4 SWAP1 MSTORE CALLER SWAP2 PUSH32 0xD36C28D8252079F996F11D24E2776FCDC1E0F4CEADFF156993AFF84CBFD37A75 SWAP2 ADD PUSH2 0x9CB JUMP JUMPDEST PUSH1 0x1 PUSH1 0x1 PUSH1 0xA0 SHL SUB DUP2 AND PUSH1 0x0 SWAP1 DUP2 MSTORE PUSH1 0x2 PUSH1 0x20 MSTORE PUSH1 0x40 DUP2 KECCAK256 SLOAD DUP1 DUP3 SUB PUSH2 0x1F96 JUMPI POP PUSH1 0x0 SWAP3 SWAP2 POP POP JUMP JUMPDEST PUSH1 0x40 MLOAD PUSH4 0x70A08231 PUSH1 0xE0 SHL DUP2 MSTORE ADDRESS PUSH1 0x4 DUP3 ADD MSTORE PUSH1 0x0 SWAP1 PUSH32 0x0 PUSH1 0x1 PUSH1 0x1 PUSH1 0xA0 SHL SUB AND SWAP1 PUSH4 0x70A08231 SWAP1 PUSH1 0x24 ADD PUSH1 0x20 PUSH1 0x40 MLOAD DUP1 DUP4 SUB DUP2 DUP7 GAS STATICCALL ISZERO DUP1 ISZERO PUSH2 0x1FFD JUMPI RETURNDATASIZE PUSH1 0x0 DUP1 RETURNDATACOPY RETURNDATASIZE PUSH1 0x0 REVERT JUMPDEST POP POP POP POP PUSH1 0x40 MLOAD RETURNDATASIZE PUSH1 0x1F NOT PUSH1 0x1F DUP3 ADD AND DUP3 ADD DUP1 PUSH1 0x40 MSTORE POP DUP2 ADD SWAP1 PUSH2 0x2021 SWAP2 SWAP1 PUSH2 0x3A30 JUMP JUMPDEST PUSH1 0x40 MLOAD PUSH4 0x70A08231 PUSH1 0xE0 SHL DUP2 MSTORE ADDRESS PUSH1 0x4 DUP3 ADD MSTORE SWAP1 SWAP2 POP PUSH1 0x0 SWAP1 PUSH1 0x1 PUSH1 0x1 PUSH1 0xA0 SHL SUB PUSH32 0x0 AND SWAP1 PUSH4 0x70A08231 SWAP1 PUSH1 0x24 ADD PUSH1 0x20 PUSH1 0x40 MLOAD DUP1 DUP4 SUB DUP2 DUP7 GAS STATICCALL ISZERO DUP1 ISZERO PUSH2 0x208B JUMPI RETURNDATASIZE PUSH1 0x0 DUP1 RETURNDATACOPY RETURNDATASIZE PUSH1 0x0 REVERT JUMPDEST POP POP POP POP PUSH1 0x40 MLOAD RETURNDATASIZE PUSH1 0x1F NOT PUSH1 0x1F DUP3 ADD AND DUP3 ADD DUP1 PUSH1 0x40 MSTORE POP DUP2 ADD SWAP1 PUSH2 0x20AF SWAP2 SWAP1 PUSH2 0x3A30 JUMP JUMPDEST SWAP1 POP DUP1 PUSH1 0x0 SUB PUSH2 0x20C4 JUMPI POP PUSH1 0x0 SWAP5 SWAP4 POP POP POP POP JUMP JUMPDEST PUSH1 0x0 PUSH2 0x20CF DUP7 PUSH2 0xCA8 JUMP JUMPDEST PUSH1 0x11 SLOAD SWAP1 SWAP2 POP PUSH1 0x0 DUP4 PUSH2 0x20E2 DUP4 DUP9 PUSH2 0x3A19 JUMP JUMPDEST PUSH2 0x20EC SWAP2 SWAP1 PUSH2 0x3A19 JUMP JUMPDEST SWAP1 POP PUSH1 0x0 PUSH2 0x2710 PUSH2 0x20FD DUP8 DUP7 PUSH2 0x3A19 JUMP JUMPDEST PUSH2 0x2107 SWAP2 SWAP1 PUSH2 0x3A19 JUMP JUMPDEST SWAP1 POP DUP1 DUP3 GT PUSH2 0x211F JUMPI POP PUSH1 0x0 SWAP9 SWAP8 POP POP POP POP POP POP POP POP JUMP JUMPDEST PUSH1 0x0 PUSH2 0x212D PUSH2 0x2710 DUP9 PUSH2 0x3A19 JUMP JUMPDEST PUSH2 0x2137 DUP6 DUP11 PUSH2 0x3A19 JUMP JUMPDEST PUSH2 0x2141 SWAP2 SWAP1 PUSH2 0x3A49 JUMP JUMPDEST PUSH2 0x214B DUP4 DUP6 PUSH2 0x3A5C JUMP JUMPDEST PUSH2 0x2155 SWAP2 SWAP1 PUSH2 0x3A85 JUMP JUMPDEST SWAP1 POP DUP6 DUP1 DUP3 GT PUSH2 0xC02 JUMPI DUP2 PUSH2 0xC04 JUMP JUMPDEST PUSH1 0x0 PUSH1 0x8 SLOAD NUMBER GT PUSH2 0x2177 JUMPI POP PUSH1 0x6 SLOAD SWAP1 JUMP JUMPDEST PUSH1 0x0 PUSH1 0x8 SLOAD NUMBER PUSH2 0x2187 SWAP2 SWAP1 PUSH2 0x3A5C JUMP JUMPDEST SWAP1 POP PUSH1 0x0 PUSH2 0x2196 PUSH1 0x6 SLOAD PUSH2 0x3463 JUMP JUMPDEST SWAP1 POP PUSH1 0x0 PUSH2 0x21AC DUP3 PUSH8 0xDE0B6B3A7640000 PUSH2 0x3A49 JUMP JUMPDEST SWAP1 POP PUSH8 0xDE0B6B3A7640000 DUP4 DUP3 JUMPDEST DUP2 ISZERO PUSH2 0x2223 JUMPI PUSH2 0x21CB PUSH1 0x2 DUP4 PUSH2 0x3B41 JUMP JUMPDEST PUSH1 0x1 SUB PUSH2 0x21F2 JUMPI PUSH8 0xDE0B6B3A7640000 PUSH2 0x21E5 DUP3 DUP6 PUSH2 0x3A19 JUMP JUMPDEST PUSH2 0x21EF SWAP2 SWAP1 PUSH2 0x3A85 JUMP JUMPDEST SWAP3 POP JUMPDEST PUSH8 0xDE0B6B3A7640000 PUSH2 0x2205 DUP3 DUP1 PUSH2 0x3A19 JUMP JUMPDEST PUSH2 0x220F SWAP2 SWAP1 PUSH2 0x3A85 JUMP JUMPDEST SWAP1 POP PUSH2 0x221C PUSH1 0x2 DUP4 PUSH2 0x3A85 JUMP JUMPDEST SWAP2 POP PUSH2 0x21BA JUMP JUMPDEST PUSH8 0xDE0B6B3A7640000 DUP4 PUSH1 0x6 SLOAD PUSH2 0x223A SWAP2 SWAP1 PUSH2 0x3A19 JUMP JUMPDEST PUSH2 0x2244 SWAP2 SWAP1 PUSH2 0x3A85 JUMP JUMPDEST SWAP7 POP POP POP POP POP POP POP SWAP1 JUMP JUMPDEST PUSH1 0x0 PUSH2 0x2710 PUSH1 0x13 SLOAD DUP4 PUSH2 0xCDE SWAP2 SWAP1 PUSH2 0x3A19 JUMP JUMPDEST PUSH2 0x226A PUSH2 0x3020 JUMP JUMPDEST PUSH1 0x0 DUP2 GT PUSH2 0x228A JUMPI PUSH1 0x40 MLOAD PUSH3 0x461BCD PUSH1 0xE5 SHL DUP2 MSTORE PUSH1 0x4 ADD PUSH2 0x867 SWAP1 PUSH2 0x39BE JUMP JUMPDEST PUSH2 0x22BF PUSH1 0x1 PUSH1 0x1 PUSH1 0xA0 SHL SUB PUSH32 0x0 AND CALLER ADDRESS DUP5 PUSH2 0x303C JUMP JUMPDEST CALLER PUSH1 0x0 SWAP1 DUP2 MSTORE PUSH1 0x2 PUSH1 0x20 MSTORE PUSH1 0x40 DUP2 KECCAK256 DUP1 SLOAD DUP4 SWAP3 SWAP1 PUSH2 0x22DE SWAP1 DUP5 SWAP1 PUSH2 0x3A49 JUMP JUMPDEST SWAP1 SWAP2 SSTORE POP POP PUSH1 0x40 MLOAD DUP2 DUP2 MSTORE CALLER SWAP1 PUSH32 0x880138561F4BDF4C4463046399B16F8186186AD3F21982105D09E65905FAFB9B SWAP1 PUSH1 0x20 ADD PUSH2 0x9CB JUMP JUMPDEST PUSH1 0x0 DUP1 PUSH2 0x2320 PUSH2 0x253E JUMP JUMPDEST SWAP1 POP PUSH1 0x0 PUSH2 0x232C PUSH2 0x9ED JUMP JUMPDEST SWAP1 POP PUSH2 0x2342 PUSH2 0x2710 PUSH8 0xDE0B6B3A7640000 PUSH2 0x3A19 JUMP JUMPDEST PUSH1 0xD SLOAD PUSH2 0x1D5A SWAP1 PUSH2 0x2710 PUSH2 0x3A5C JUMP JUMPDEST PUSH2 0x2359 PUSH2 0x3020 JUMP JUMPDEST PUSH1 0x0 DUP2 GT DUP1 ISZERO PUSH2 0x2378 JUMPI POP CALLER PUSH1 0x0 SWAP1 DUP2 MSTORE PUSH1 0x2 PUSH1 0x20 MSTORE PUSH1 0x40 SWAP1 KECCAK256 SLOAD DUP2 GT ISZERO JUMPDEST PUSH2 0x23BC JUMPI PUSH1 0x40 MLOAD PUSH3 0x461BCD PUSH1 0xE5 SHL DUP2 MSTORE PUSH1 0x20 PUSH1 0x4 DUP3 ADD MSTORE PUSH1 0x15 PUSH1 0x24 DUP3 ADD MSTORE PUSH21 0x1410D3D3109554D1141BDBDB0E881A5B9D985B1A59 PUSH1 0x5A SHL PUSH1 0x44 DUP3 ADD MSTORE PUSH1 0x64 ADD PUSH2 0x867 JUMP JUMPDEST CALLER PUSH1 0x0 SWAP1 DUP2 MSTORE PUSH1 0x2 PUSH1 0x20 MSTORE PUSH1 0x40 DUP2 KECCAK256 DUP1 SLOAD DUP4 SWAP3 SWAP1 PUSH2 0x23DB SWAP1 DUP5 SWAP1 PUSH2 0x3A5C JUMP JUMPDEST SWAP1 SWAP2 SSTORE POP POP CALLER PUSH1 0x0 SWAP1 DUP2 MSTORE PUSH1 0x4 PUSH1 0x20 MSTORE PUSH1 0x40 SWAP1 KECCAK256 SLOAD ISZERO PUSH2 0x2425 JUMPI PUSH8 0xDE0B6B3A7640000 PUSH2 0x2407 CALLER PUSH2 0xC13 JUMP JUMPDEST LT ISZERO PUSH2 0x2425 JUMPI PUSH1 0x40 MLOAD PUSH3 0x461BCD PUSH1 0xE5 SHL DUP2 MSTORE PUSH1 0x4 ADD PUSH2 0x867 SWAP1 PUSH2 0x3A99 JUMP JUMPDEST PUSH2 0x2459 PUSH1 0x1 PUSH1 0x1 PUSH1 0xA0 SHL SUB PUSH32 0x0 AND CALLER DUP4 PUSH2 0x3342 JUMP JUMPDEST PUSH1 0x40 MLOAD DUP2 DUP2 MSTORE CALLER SWAP1 PUSH32 0xB1F9AFA3FB91753D83C90B2584137DE0980AEDCB24565BB6BE5A4A044394DA51 SWAP1 PUSH1 0x20 ADD PUSH2 0x9CB JUMP JUMPDEST PUSH2 0x2493 PUSH2 0x3020 JUMP JUMPDEST PUSH1 0x0 DUP2 GT PUSH2 0x24B3 JUMPI PUSH1 0x40 MLOAD PUSH3 0x461BCD PUSH1 0xE5 SHL DUP2 MSTORE PUSH1 0x4 ADD PUSH2 0x867 SWAP1 PUSH2 0x39BE JUMP JUMPDEST PUSH2 0x24E8 PUSH1 0x1 PUSH1 0x1 PUSH1 0xA0 SHL SUB PUSH32 0x0 AND CALLER ADDRESS DUP5 PUSH2 0x303C JUMP JUMPDEST CALLER PUSH1 0x0 SWAP1 DUP2 MSTORE PUSH1 0x1 PUSH1 0x20 MSTORE PUSH1 0x40 DUP2 KECCAK256 DUP1 SLOAD DUP4 SWAP3 SWAP1 PUSH2 0x2507 SWAP1 DUP5 SWAP1 PUSH2 0x3A49 JUMP JUMPDEST SWAP1 SWAP2 SSTORE POP POP PUSH1 0x40 MLOAD DUP2 DUP2 MSTORE CALLER SWAP1 PUSH32 0x92C5AA6131247B5349EBE4C0B884354154558790641067D72925AC93B11A7DE5 SWAP1 PUSH1 0x20 ADD PUSH2 0x9CB JUMP JUMPDEST PUSH1 0x40 MLOAD PUSH4 0x70A08231 PUSH1 0xE0 SHL DUP2 MSTORE ADDRESS PUSH1 0x4 DUP3 ADD MSTORE PUSH1 0x0 SWAP1 DUP2 SWAP1 PUSH1 0x1 PUSH1 0x1 PUSH1 0xA0 SHL SUB PUSH32 0x0 AND SWAP1 PUSH4 0x70A08231 SWAP1 PUSH1 0x24 ADD PUSH1 0x20 PUSH1 0x40 MLOAD DUP1 DUP4 SUB DUP2 DUP7 GAS STATICCALL ISZERO DUP1 ISZERO PUSH2 0x25A7 JUMPI RETURNDATASIZE PUSH1 0x0 DUP1 RETURNDATACOPY RETURNDATASIZE PUSH1 0x0 REVERT JUMPDEST POP POP POP POP PUSH1 0x40 MLOAD RETURNDATASIZE PUSH1 0x1F NOT PUSH1 0x1F DUP3 ADD AND DUP3 ADD DUP1 PUSH1 0x40 MSTORE POP DUP2 ADD SWAP1 PUSH2 0x25CB SWAP2 SWAP1 PUSH2 0x3A30 JUMP JUMPDEST SWAP1 POP PUSH1 0x0 PUSH8 0xDE0B6B3A7640000 PUSH2 0x25E0 PUSH2 0x2C47 JUMP JUMPDEST PUSH1 0x9 SLOAD PUSH2 0xE64 SWAP2 SWAP1 PUSH2 0x3A19 JUMP JUMPDEST PUSH1 0x0 PUSH8 0xDE0B6B3A7640000 PUSH2 0x2601 DUP4 PUSH2 0xCFC JUMP JUMPDEST LT SWAP3 SWAP2 POP POP JUMP JUMPDEST PUSH1 0x1 PUSH1 0x1 PUSH1 0xA0 SHL SUB DUP2 AND PUSH1 0x0 SWAP1 DUP2 MSTORE PUSH1 0x2 PUSH1 0x20 MSTORE PUSH1 0x40 DUP2 KECCAK256 SLOAD DUP2 SWAP1 PUSH2 0x262C DUP5 PUSH2 0xCA8 JUMP JUMPDEST SWAP2 POP SWAP2 POP SWAP2 POP SWAP2 JUMP JUMPDEST PUSH2 0x263D PUSH2 0x3020 JUMP JUMPDEST PUSH1 0x0 DUP2 GT PUSH2 0x265D JUMPI PUSH1 0x40 MLOAD PUSH3 0x461BCD PUSH1 0xE5 SHL DUP2 MSTORE PUSH1 0x4 ADD PUSH2 0x867 SWAP1 PUSH2 0x39BE JUMP JUMPDEST PUSH1 0x40 MLOAD PUSH4 0x70A08231 PUSH1 0xE0 SHL DUP2 MSTORE ADDRESS PUSH1 0x4 DUP3 ADD MSTORE DUP2 SWAP1 PUSH32 0x0 PUSH1 0x1 PUSH1 0x1 PUSH1 0xA0 SHL SUB AND SWAP1 PUSH4 0x70A08231 SWAP1 PUSH1 0x24 ADD PUSH1 0x20 PUSH1 0x40 MLOAD DUP1 DUP4 SUB DUP2 DUP7 GAS STATICCALL ISZERO DUP1 ISZERO PUSH2 0x26C3 JUMPI RETURNDATASIZE PUSH1 0x0 DUP1 RETURNDATACOPY RETURNDATASIZE PUSH1 0x0 REVERT JUMPDEST POP POP POP POP PUSH1 0x40 MLOAD RETURNDATASIZE PUSH1 0x1F NOT PUSH1 0x1F DUP3 ADD AND DUP3 ADD DUP1 PUSH1 0x40 MSTORE POP DUP2 ADD SWAP1 PUSH2 0x26E7 SWAP2 SWAP1 PUSH2 0x3A30 JUMP JUMPDEST LT ISZERO PUSH2 0x2735 JUMPI PUSH1 0x40 MLOAD PUSH3 0x461BCD PUSH1 0xE5 SHL DUP2 MSTORE PUSH1 0x20 PUSH1 0x4 DUP3 ADD MSTORE PUSH1 0x1F PUSH1 0x24 DUP3 ADD MSTORE PUSH32 0x50434F4C42555344506F6F6C3A20696E73756666696369656E74204255534400 PUSH1 0x44 DUP3 ADD MSTORE PUSH1 0x64 ADD PUSH2 0x867 JUMP JUMPDEST PUSH1 0x40 MLOAD PUSH4 0x2770A7EB PUSH1 0xE2 SHL DUP2 MSTORE PUSH1 0x1 PUSH1 0x1 PUSH1 0xA0 SHL SUB PUSH32 0x0 AND SWAP1 PUSH4 0x9DC29FAC SWAP1 PUSH2 0x2783 SWAP1 CALLER SWAP1 DUP6 SWAP1 PUSH1 0x4 ADD PUSH2 0x39EA JUMP JUMPDEST PUSH1 0x0 PUSH1 0x40 MLOAD DUP1 DUP4 SUB DUP2 PUSH1 0x0 DUP8 DUP1 EXTCODESIZE ISZERO DUP1 ISZERO PUSH2 0x279D JUMPI PUSH1 0x0 DUP1 REVERT JUMPDEST POP GAS CALL ISZERO DUP1 ISZERO PUSH2 0x27B1 JUMPI RETURNDATASIZE PUSH1 0x0 DUP1 RETURNDATACOPY RETURNDATASIZE PUSH1 0x0 REVERT JUMPDEST POP PUSH2 0x27EB SWAP3 POP POP PUSH1 0x1 PUSH1 0x1 PUSH1 0xA0 SHL SUB PUSH32 0x0 AND SWAP1 POP CALLER DUP4 PUSH2 0x3342 JUMP JUMPDEST PUSH1 0x40 DUP1 MLOAD DUP3 DUP2 MSTORE PUSH1 0x20 DUP2 ADD DUP4 SWAP1 MSTORE CALLER SWAP2 PUSH32 0x8041F45367F7CCEFD38C06AE22C296CA3AD95CF10BE3C54C81C11F849F105F2B SWAP2 ADD PUSH2 0x9CB JUMP JUMPDEST PUSH1 0x1 PUSH1 0x1 PUSH1 0xA0 SHL SUB DUP2 AND PUSH1 0x0 SWAP1 DUP2 MSTORE PUSH1 0x1 PUSH1 0x20 MSTORE PUSH1 0x40 DUP2 KECCAK256 SLOAD DUP2 SWAP1 PUSH2 0x262C DUP5 PUSH2 0xEB1 JUMP JUMPDEST PUSH2 0x284F PUSH2 0x3020 JUMP JUMPDEST PUSH1 0x0 DUP2 GT DUP1 ISZERO PUSH2 0x286E JUMPI POP CALLER PUSH1 0x0 SWAP1 DUP2 MSTORE PUSH1 0x1 PUSH1 0x20 MSTORE PUSH1 0x40 SWAP1 KECCAK256 SLOAD DUP2 GT ISZERO JUMPDEST PUSH2 0x28B2 JUMPI PUSH1 0x40 MLOAD PUSH3 0x461BCD PUSH1 0xE5 SHL DUP2 MSTORE PUSH1 0x20 PUSH1 0x4 DUP3 ADD MSTORE PUSH1 0x15 PUSH1 0x24 DUP3 ADD MSTORE PUSH21 0x1410D3D3109554D1141BDBDB0E881A5B9D985B1A59 PUSH1 0x5A SHL PUSH1 0x44 DUP3 ADD MSTORE PUSH1 0x64 ADD PUSH2 0x867 JUMP JUMPDEST CALLER PUSH1 0x0 SWAP1 DUP2 MSTORE PUSH1 0x1 PUSH1 0x20 MSTORE PUSH1 0x40 DUP2 KECCAK256 DUP1 SLOAD DUP4 SWAP3 SWAP1 PUSH2 0x28D1 SWAP1 DUP5 SWAP1 PUSH2 0x3A5C JUMP JUMPDEST SWAP1 SWAP2 SSTORE POP POP CALLER PUSH1 0x0 SWAP1 DUP2 MSTORE PUSH1 0x3 PUSH1 0x20 MSTORE PUSH1 0x40 SWAP1 KECCAK256 SLOAD ISZERO PUSH2 0x291B JUMPI PUSH8 0xDE0B6B3A7640000 PUSH2 0x28FD CALLER PUSH2 0xCFC JUMP JUMPDEST LT ISZERO PUSH2 0x291B JUMPI PUSH1 0x40 MLOAD PUSH3 0x461BCD PUSH1 0xE5 SHL DUP2 MSTORE PUSH1 0x4 ADD PUSH2 0x867 SWAP1 PUSH2 0x3A99 JUMP JUMPDEST PUSH2 0x294F PUSH1 0x1 PUSH1 0x1 PUSH1 0xA0 SHL SUB PUSH32 0x0 AND CALLER DUP4 PUSH2 0x3342 JUMP JUMPDEST PUSH1 0x40 MLOAD DUP2 DUP2 MSTORE CALLER SWAP1 PUSH32 0x5F2AC0B7CA7309144E88EDEDC8FA236C0A7019BDC8C02AB6F6DB5095752E7CDC SWAP1 PUSH1 0x20 ADD PUSH2 0x9CB JUMP JUMPDEST PUSH1 0x0 PUSH2 0xA05 PUSH2 0x3078 JUMP JUMPDEST PUSH2 0x2993 PUSH2 0x3020 JUMP JUMPDEST PUSH2 0x299B PUSH2 0x337C JUMP JUMPDEST PUSH1 0x0 DUP2 GT PUSH2 0x29BB JUMPI PUSH1 0x40 MLOAD PUSH3 0x461BCD PUSH1 0xE5 SHL DUP2 MSTORE PUSH1 0x4 ADD PUSH2 0x867 SWAP1 PUSH2 0x39BE JUMP JUMPDEST PUSH1 0x5 SLOAD CALLER PUSH1 0x0 SWAP1 DUP2 MSTORE PUSH1 0x3 PUSH1 0x20 MSTORE PUSH1 0x40 DUP2 KECCAK256 SLOAD SWAP1 SWAP2 PUSH8 0xDE0B6B3A7640000 SWAP2 PUSH2 0x29E4 SWAP2 SWAP1 PUSH2 0x3A19 JUMP JUMPDEST PUSH2 0x29EE SWAP2 SWAP1 PUSH2 0x3A85 JUMP JUMPDEST SWAP1 POP PUSH1 0x0 DUP2 DUP4 GT PUSH2 0x29FF JUMPI DUP3 PUSH2 0x2A01 JUMP JUMPDEST DUP2 JUMPDEST SWAP1 POP PUSH1 0x0 PUSH1 0x5 SLOAD DUP3 PUSH8 0xDE0B6B3A7640000 PUSH2 0x2A1C SWAP2 SWAP1 PUSH2 0x3A19 JUMP JUMPDEST PUSH2 0x2A26 SWAP2 SWAP1 PUSH2 0x3A85 JUMP JUMPDEST CALLER PUSH1 0x0 SWAP1 DUP2 MSTORE PUSH1 0x3 PUSH1 0x20 MSTORE PUSH1 0x40 DUP2 KECCAK256 DUP1 SLOAD SWAP3 SWAP4 POP DUP4 SWAP3 SWAP1 SWAP2 SWAP1 PUSH2 0x2A4A SWAP1 DUP5 SWAP1 PUSH2 0x3A5C JUMP JUMPDEST SWAP3 POP POP DUP2 SWAP1 SSTORE POP DUP1 PUSH1 0x9 PUSH1 0x0 DUP3 DUP3 SLOAD PUSH2 0x2A63 SWAP2 SWAP1 PUSH2 0x3A5C JUMP JUMPDEST SWAP1 SWAP2 SSTORE POP PUSH2 0x2A9E SWAP1 POP PUSH1 0x1 PUSH1 0x1 PUSH1 0xA0 SHL SUB PUSH32 0x0 AND CALLER ADDRESS DUP6 PUSH2 0x303C JUMP JUMPDEST PUSH1 0x40 MLOAD DUP3 DUP2 MSTORE CALLER SWAP1 PUSH32 0xE2D5D60502594D615DD5827340647C7A7A88A014E9896FDEF12F6458B60C0432 SWAP1 PUSH1 0x20 ADD JUMPDEST PUSH1 0x40 MLOAD DUP1 SWAP2 SUB SWAP1 LOG2 POP POP POP PUSH2 0x9EA PUSH1 0x1 PUSH1 0x0 DUP1 MLOAD PUSH1 0x20 PUSH2 0x3C78 DUP4 CODECOPY DUP2 MLOAD SWAP2 MSTORE SSTORE JUMP JUMPDEST PUSH2 0x2AF6 PUSH2 0x3020 JUMP JUMPDEST PUSH2 0x2AFE PUSH2 0x325B JUMP JUMPDEST PUSH1 0x0 DUP2 GT PUSH2 0x2B1E JUMPI PUSH1 0x40 MLOAD PUSH3 0x461BCD PUSH1 0xE5 SHL DUP2 MSTORE PUSH1 0x4 ADD PUSH2 0x867 SWAP1 PUSH2 0x39BE JUMP JUMPDEST PUSH1 0x6 SLOAD CALLER PUSH1 0x0 SWAP1 DUP2 MSTORE PUSH1 0x4 PUSH1 0x20 MSTORE PUSH1 0x40 DUP2 KECCAK256 SLOAD SWAP1 SWAP2 PUSH8 0xDE0B6B3A7640000 SWAP2 PUSH2 0x2B47 SWAP2 SWAP1 PUSH2 0x3A19 JUMP JUMPDEST PUSH2 0x2B51 SWAP2 SWAP1 PUSH2 0x3A85 JUMP JUMPDEST SWAP1 POP PUSH1 0x0 DUP2 DUP4 GT PUSH2 0x2B62 JUMPI DUP3 PUSH2 0x2B64 JUMP JUMPDEST DUP2 JUMPDEST SWAP1 POP PUSH1 0x0 PUSH1 0x6 SLOAD DUP3 PUSH8 0xDE0B6B3A7640000 PUSH2 0x2B7F SWAP2 SWAP1 PUSH2 0x3A19 JUMP JUMPDEST PUSH2 0x2B89 SWAP2 SWAP1 PUSH2 0x3A85 JUMP JUMPDEST CALLER PUSH1 0x0 SWAP1 DUP2 MSTORE PUSH1 0x4 PUSH1 0x20 MSTORE PUSH1 0x40 DUP2 KECCAK256 DUP1 SLOAD SWAP3 SWAP4 POP DUP4 SWAP3 SWAP1 SWAP2 SWAP1 PUSH2 0x2BAD SWAP1 DUP5 SWAP1 PUSH2 0x3A5C JUMP JUMPDEST SWAP3 POP POP DUP2 SWAP1 SSTORE POP DUP1 PUSH1 0xA PUSH1 0x0 DUP3 DUP3 SLOAD PUSH2 0x2BC6 SWAP2 SWAP1 PUSH2 0x3A5C JUMP JUMPDEST SWAP1 SWAP2 SSTORE POP PUSH2 0x2C01 SWAP1 POP PUSH1 0x1 PUSH1 0x1 PUSH1 0xA0 SHL SUB PUSH32 0x0 AND CALLER ADDRESS DUP6 PUSH2 0x303C JUMP JUMPDEST PUSH1 0x40 MLOAD DUP3 DUP2 MSTORE CALLER SWAP1 PUSH32 0xD79A2BC9877030756CD908ACBB64634D527091BE3EDEED80CDEA7ED4CF40BE05 SWAP1 PUSH1 0x20 ADD PUSH2 0x2ACC JUMP JUMPDEST PUSH1 0x0 PUSH8 0xDE0B6B3A7640000 PUSH2 0x2601 DUP4 PUSH2 0xC13 JUMP JUMPDEST PUSH1 0x0 PUSH1 0x7 SLOAD NUMBER GT PUSH2 0x2C59 JUMPI POP PUSH1 0x5 SLOAD SWAP1 JUMP JUMPDEST PUSH1 0x0 PUSH1 0x7 SLOAD NUMBER PUSH2 0x2C69 SWAP2 SWAP1 PUSH2 0x3A5C JUMP JUMPDEST SWAP1 POP PUSH1 0x0 PUSH2 0x2C78 PUSH1 0x5 SLOAD PUSH2 0x358C JUMP JUMPDEST SWAP1 POP PUSH1 0x0 PUSH2 0x2C8E DUP3 PUSH8 0xDE0B6B3A7640000 PUSH2 0x3A49 JUMP JUMPDEST SWAP1 POP PUSH8 0xDE0B6B3A7640000 DUP4 DUP3 JUMPDEST DUP2 ISZERO PUSH2 0x2D05 JUMPI PUSH2 0x2CAD PUSH1 0x2 DUP4 PUSH2 0x3B41 JUMP JUMPDEST PUSH1 0x1 SUB PUSH2 0x2CD4 JUMPI PUSH8 0xDE0B6B3A7640000 PUSH2 0x2CC7 DUP3 DUP6 PUSH2 0x3A19 JUMP JUMPDEST PUSH2 0x2CD1 SWAP2 SWAP1 PUSH2 0x3A85 JUMP JUMPDEST SWAP3 POP JUMPDEST PUSH8 0xDE0B6B3A7640000 PUSH2 0x2CE7 DUP3 DUP1 PUSH2 0x3A19 JUMP JUMPDEST PUSH2 0x2CF1 SWAP2 SWAP1 PUSH2 0x3A85 JUMP JUMPDEST SWAP1 POP PUSH2 0x2CFE PUSH1 0x2 DUP4 PUSH2 0x3A85 JUMP JUMPDEST SWAP2 POP PUSH2 0x2C9C JUMP JUMPDEST PUSH8 0xDE0B6B3A7640000 DUP4 PUSH1 0x5 SLOAD PUSH2 0x223A SWAP2 SWAP1 PUSH2 0x3A19 JUMP JUMPDEST PUSH2 0x2D24 PUSH2 0x3020 JUMP JUMPDEST PUSH2 0x2D2C PUSH2 0x337C JUMP JUMPDEST PUSH8 0xDE0B6B3A7640000 PUSH2 0x2D3E DUP3 PUSH2 0xCFC JUMP JUMPDEST LT PUSH2 0x2D8B JUMPI PUSH1 0x40 MLOAD PUSH3 0x461BCD PUSH1 0xE5 SHL DUP2 MSTORE PUSH1 0x20 PUSH1 0x4 DUP3 ADD MSTORE PUSH1 0x1E PUSH1 0x24 DUP3 ADD MSTORE PUSH32 0x50434F4C42555344506F6F6C3A206E6F74206C6971756964617461626C650000 PUSH1 0x44 DUP3 ADD MSTORE PUSH1 0x64 ADD PUSH2 0x867 JUMP JUMPDEST PUSH1 0x5 SLOAD PUSH1 0x1 PUSH1 0x1 PUSH1 0xA0 SHL SUB DUP3 AND PUSH1 0x0 SWAP1 DUP2 MSTORE PUSH1 0x3 PUSH1 0x20 MSTORE PUSH1 0x40 DUP2 KECCAK256 SLOAD SWAP1 SWAP2 PUSH8 0xDE0B6B3A7640000 SWAP2 PUSH2 0x2DBD SWAP2 SWAP1 PUSH2 0x3A19 JUMP JUMPDEST PUSH2 0x2DC7 SWAP2 SWAP1 PUSH2 0x3A85 JUMP JUMPDEST SWAP1 POP PUSH1 0x0 DUP2 GT DUP1 ISZERO PUSH2 0x2DF0 JUMPI POP PUSH1 0x1 PUSH1 0x1 PUSH1 0xA0 SHL SUB DUP3 AND PUSH1 0x0 SWAP1 DUP2 MSTORE PUSH1 0x1 PUSH1 0x20 MSTORE PUSH1 0x40 SWAP1 KECCAK256 SLOAD ISZERO ISZERO JUMPDEST PUSH2 0x2E33 JUMPI PUSH1 0x40 MLOAD PUSH3 0x461BCD PUSH1 0xE5 SHL DUP2 MSTORE PUSH1 0x20 PUSH1 0x4 DUP3 ADD MSTORE PUSH1 0x14 PUSH1 0x24 DUP3 ADD MSTORE PUSH20 0x50434F4C42555344506F6F6C3A206E6F20706F73 PUSH1 0x60 SHL PUSH1 0x44 DUP3 ADD MSTORE PUSH1 0x64 ADD PUSH2 0x867 JUMP JUMPDEST PUSH1 0x5 SLOAD PUSH1 0x0 SWAP1 PUSH2 0x2E4B DUP4 PUSH8 0xDE0B6B3A7640000 PUSH2 0x3A19 JUMP JUMPDEST PUSH2 0x2E55 SWAP2 SWAP1 PUSH2 0x3A85 JUMP JUMPDEST PUSH1 0x1 PUSH1 0x1 PUSH1 0xA0 SHL SUB DUP5 AND PUSH1 0x0 SWAP1 DUP2 MSTORE PUSH1 0x3 PUSH1 0x20 MSTORE PUSH1 0x40 DUP2 KECCAK256 DUP2 SWAP1 SSTORE PUSH1 0x9 DUP1 SLOAD SWAP3 SWAP4 POP DUP4 SWAP3 SWAP1 SWAP2 SWAP1 PUSH2 0x2E87 SWAP1 DUP5 SWAP1 PUSH2 0x3A5C JUMP JUMPDEST SWAP1 SWAP2 SSTORE POP POP PUSH1 0x1 PUSH1 0x1 PUSH1 0xA0 SHL SUB DUP4 AND PUSH1 0x0 SWAP1 DUP2 MSTORE PUSH1 0x1 PUSH1 0x20 MSTORE PUSH1 0x40 DUP2 KECCAK256 DUP1 SLOAD SWAP1 DUP3 SWAP1 SSTORE PUSH1 0x12 SLOAD SWAP1 SWAP2 SWAP1 PUSH2 0x2710 SWAP1 PUSH2 0x2EBE SWAP1 DUP3 PUSH2 0x3A49 JUMP JUMPDEST PUSH2 0x2EC8 SWAP1 DUP5 PUSH2 0x3A19 JUMP JUMPDEST PUSH2 0x2ED2 SWAP2 SWAP1 PUSH2 0x3A85 JUMP JUMPDEST SWAP1 POP DUP2 DUP2 GT ISZERO PUSH2 0x2EDF JUMPI POP DUP1 JUMPDEST PUSH1 0x0 PUSH2 0x2EEB DUP3 DUP5 PUSH2 0x3A5C JUMP JUMPDEST SWAP1 POP PUSH2 0x2F22 PUSH1 0x1 PUSH1 0x1 PUSH1 0xA0 SHL SUB PUSH32 0x0 AND CALLER ADDRESS DUP9 PUSH2 0x303C JUMP JUMPDEST DUP1 ISZERO PUSH2 0x2FA9 JUMPI PUSH1 0x40 MLOAD PUSH4 0x2770A7EB PUSH1 0xE2 SHL DUP2 MSTORE PUSH1 0x1 PUSH1 0x1 PUSH1 0xA0 SHL SUB PUSH32 0x0 AND SWAP1 PUSH4 0x9DC29FAC SWAP1 PUSH2 0x2F76 SWAP1 ADDRESS SWAP1 DUP6 SWAP1 PUSH1 0x4 ADD PUSH2 0x39EA JUMP JUMPDEST PUSH1 0x0 PUSH1 0x40 MLOAD DUP1 DUP4 SUB DUP2 PUSH1 0x0 DUP8 DUP1 EXTCODESIZE ISZERO DUP1 ISZERO PUSH2 0x2F90 JUMPI PUSH1 0x0 DUP1 REVERT JUMPDEST POP GAS CALL ISZERO DUP1 ISZERO PUSH2 0x2FA4 JUMPI RETURNDATASIZE PUSH1 0x0 DUP1 RETURNDATACOPY RETURNDATASIZE PUSH1 0x0 REVERT JUMPDEST POP POP POP POP JUMPDEST PUSH2 0x2FDD PUSH1 0x1 PUSH1 0x1 PUSH1 0xA0 SHL SUB PUSH32 0x0 AND CALLER DUP5 PUSH2 0x3342 JUMP JUMPDEST PUSH1 0x40 DUP1 MLOAD DUP7 DUP2 MSTORE PUSH1 0x20 DUP2 ADD DUP5 SWAP1 MSTORE PUSH1 0x1 PUSH1 0x1 PUSH1 0xA0 SHL SUB DUP9 AND SWAP2 CALLER SWAP2 PUSH32 0x1DF8781BABB2CE0B72D80A0D4EB75715B3F84D14598B945EFFA23C678F239A53 SWAP2 ADD PUSH2 0x1CFA JUMP JUMPDEST PUSH2 0x3028 PUSH2 0x36AB JUMP JUMPDEST PUSH1 0x2 PUSH1 0x0 DUP1 MLOAD PUSH1 0x20 PUSH2 0x3C78 DUP4 CODECOPY DUP2 MLOAD SWAP2 MSTORE SSTORE JUMP JUMPDEST PUSH2 0x304A DUP5 DUP5 DUP5 DUP5 PUSH1 0x1 PUSH2 0x36DD JUMP JUMPDEST PUSH2 0x3072 JUMPI PUSH1 0x40 MLOAD PUSH4 0x5274AFE7 PUSH1 0xE0 SHL DUP2 MSTORE PUSH1 0x1 PUSH1 0x1 PUSH1 0xA0 SHL SUB DUP6 AND PUSH1 0x4 DUP3 ADD MSTORE PUSH1 0x24 ADD PUSH2 0x867 JUMP JUMPDEST POP POP POP POP JUMP JUMPDEST PUSH1 0x0 DUP1 PUSH1 0x0 PUSH2 0x3085 PUSH2 0x374F JUMP JUMPDEST SWAP2 POP SWAP2 POP DUP2 PUSH1 0x0 SUB PUSH2 0x309A JUMPI PUSH1 0x0 SWAP3 POP POP POP SWAP1 JUMP JUMPDEST PUSH1 0x0 PUSH32 0x0 PUSH1 0x1 PUSH1 0x1 PUSH1 0xA0 SHL SUB AND PUSH4 0x313CE567 PUSH1 0x40 MLOAD DUP2 PUSH4 0xFFFFFFFF AND PUSH1 0xE0 SHL DUP2 MSTORE PUSH1 0x4 ADD PUSH1 0x20 PUSH1 0x40 MLOAD DUP1 DUP4 SUB DUP2 DUP7 GAS STATICCALL ISZERO DUP1 ISZERO PUSH2 0x30FA JUMPI RETURNDATASIZE PUSH1 0x0 DUP1 RETURNDATACOPY RETURNDATASIZE PUSH1 0x0 REVERT JUMPDEST POP POP POP POP PUSH1 0x40 MLOAD RETURNDATASIZE PUSH1 0x1F NOT PUSH1 0x1F DUP3 ADD AND DUP3 ADD DUP1 PUSH1 0x40 MSTORE POP DUP2 ADD SWAP1 PUSH2 0x311E SWAP2 SWAP1 PUSH2 0x3B55 JUMP JUMPDEST SWAP1 POP PUSH1 0x0 PUSH32 0x0 PUSH1 0x1 PUSH1 0x1 PUSH1 0xA0 SHL SUB AND PUSH4 0x313CE567 PUSH1 0x40 MLOAD DUP2 PUSH4 0xFFFFFFFF AND PUSH1 0xE0 SHL DUP2 MSTORE PUSH1 0x4 ADD PUSH1 0x20 PUSH1 0x40 MLOAD DUP1 DUP4 SUB DUP2 DUP7 GAS STATICCALL ISZERO DUP1 ISZERO PUSH2 0x3180 JUMPI RETURNDATASIZE PUSH1 0x0 DUP1 RETURNDATACOPY RETURNDATASIZE PUSH1 0x0 REVERT JUMPDEST POP POP POP POP PUSH1 0x40 MLOAD RETURNDATASIZE PUSH1 0x1F NOT PUSH1 0x1F DUP3 ADD AND DUP3 ADD DUP1 PUSH1 0x40 MSTORE POP DUP2 ADD SWAP1 PUSH2 0x31A4 SWAP2 SWAP1 PUSH2 0x3B55 JUMP JUMPDEST SWAP1 POP PUSH2 0x31B1 DUP2 PUSH1 0xA PUSH2 0x3C5C JUMP JUMPDEST PUSH2 0x31BB SWAP1 DUP6 PUSH2 0x3A19 JUMP JUMPDEST PUSH2 0x31C9 PUSH1 0xFF DUP5 AND PUSH1 0x8 PUSH2 0x3A49 JUMP JUMPDEST PUSH2 0x31D4 SWAP1 PUSH1 0xA PUSH2 0x3C6B JUMP JUMPDEST PUSH2 0x31DE SWAP1 DUP6 PUSH2 0x3A19 JUMP JUMPDEST PUSH2 0x31E8 SWAP2 SWAP1 PUSH2 0x3A85 JUMP JUMPDEST SWAP5 POP POP POP POP POP SWAP1 JUMP JUMPDEST PUSH1 0x1 PUSH1 0x1 PUSH1 0xA0 SHL SUB DUP2 AND PUSH1 0x0 SWAP1 DUP2 MSTORE PUSH1 0x2 PUSH1 0x20 MSTORE PUSH1 0x40 DUP2 KECCAK256 SLOAD PUSH2 0xCE8 SWAP1 PUSH4 0x5F5E100 SWAP1 PUSH2 0x3A19 JUMP JUMPDEST PUSH1 0x1 PUSH1 0x1 PUSH1 0xA0 SHL SUB DUP2 AND PUSH1 0x0 SWAP1 DUP2 MSTORE PUSH1 0x1 PUSH1 0x20 MSTORE PUSH1 0x40 DUP2 KECCAK256 SLOAD DUP1 DUP3 SUB PUSH2 0x3242 JUMPI POP PUSH1 0x0 SWAP3 SWAP2 POP POP JUMP JUMPDEST PUSH2 0x324A PUSH2 0x3078 JUMP JUMPDEST PUSH2 0x3254 SWAP1 DUP3 PUSH2 0x3A19 JUMP JUMPDEST SWAP4 SWAP3 POP POP POP JUMP JUMPDEST PUSH1 0x8 SLOAD NUMBER GT PUSH2 0x3266 JUMPI JUMP JUMPDEST PUSH1 0x0 PUSH1 0x8 SLOAD NUMBER PUSH2 0x3276 SWAP2 SWAP1 PUSH2 0x3A5C JUMP JUMPDEST SWAP1 POP PUSH1 0x0 PUSH2 0x3285 PUSH1 0x6 SLOAD PUSH2 0x3463 JUMP JUMPDEST SWAP1 POP PUSH1 0x0 PUSH2 0x329B DUP3 PUSH8 0xDE0B6B3A7640000 PUSH2 0x3A49 JUMP JUMPDEST SWAP1 POP PUSH8 0xDE0B6B3A7640000 DUP4 DUP3 JUMPDEST DUP2 ISZERO PUSH2 0x3312 JUMPI PUSH2 0x32BA PUSH1 0x2 DUP4 PUSH2 0x3B41 JUMP JUMPDEST PUSH1 0x1 SUB PUSH2 0x32E1 JUMPI PUSH8 0xDE0B6B3A7640000 PUSH2 0x32D4 DUP3 DUP6 PUSH2 0x3A19 JUMP JUMPDEST PUSH2 0x32DE SWAP2 SWAP1 PUSH2 0x3A85 JUMP JUMPDEST SWAP3 POP JUMPDEST PUSH8 0xDE0B6B3A7640000 PUSH2 0x32F4 DUP3 DUP1 PUSH2 0x3A19 JUMP JUMPDEST PUSH2 0x32FE SWAP2 SWAP1 PUSH2 0x3A85 JUMP JUMPDEST SWAP1 POP PUSH2 0x330B PUSH1 0x2 DUP4 PUSH2 0x3A85 JUMP JUMPDEST SWAP2 POP PUSH2 0x32A9 JUMP JUMPDEST PUSH8 0xDE0B6B3A7640000 DUP4 PUSH1 0x6 SLOAD PUSH2 0x3329 SWAP2 SWAP1 PUSH2 0x3A19 JUMP JUMPDEST PUSH2 0x3333 SWAP2 SWAP1 PUSH2 0x3A85 JUMP JUMPDEST PUSH1 0x6 SSTORE POP POP NUMBER PUSH1 0x8 SSTORE POP POP POP POP JUMP JUMPDEST PUSH2 0x334F DUP4 DUP4 DUP4 PUSH1 0x1 PUSH2 0x386D JUMP JUMPDEST PUSH2 0x3377 JUMPI PUSH1 0x40 MLOAD PUSH4 0x5274AFE7 PUSH1 0xE0 SHL DUP2 MSTORE PUSH1 0x1 PUSH1 0x1 PUSH1 0xA0 SHL SUB DUP5 AND PUSH1 0x4 DUP3 ADD MSTORE PUSH1 0x24 ADD PUSH2 0x867 JUMP JUMPDEST POP POP POP JUMP JUMPDEST PUSH1 0x7 SLOAD NUMBER GT PUSH2 0x3387 JUMPI JUMP JUMPDEST PUSH1 0x0 PUSH1 0x7 SLOAD NUMBER PUSH2 0x3397 SWAP2 SWAP1 PUSH2 0x3A5C JUMP JUMPDEST SWAP1 POP PUSH1 0x0 PUSH2 0x33A6 PUSH1 0x5 SLOAD PUSH2 0x358C JUMP JUMPDEST SWAP1 POP PUSH1 0x0 PUSH2 0x33BC DUP3 PUSH8 0xDE0B6B3A7640000 PUSH2 0x3A49 JUMP JUMPDEST SWAP1 POP PUSH8 0xDE0B6B3A7640000 DUP4 DUP3 JUMPDEST DUP2 ISZERO PUSH2 0x3433 JUMPI PUSH2 0x33DB PUSH1 0x2 DUP4 PUSH2 0x3B41 JUMP JUMPDEST PUSH1 0x1 SUB PUSH2 0x3402 JUMPI PUSH8 0xDE0B6B3A7640000 PUSH2 0x33F5 DUP3 DUP6 PUSH2 0x3A19 JUMP JUMPDEST PUSH2 0x33FF SWAP2 SWAP1 PUSH2 0x3A85 JUMP JUMPDEST SWAP3 POP JUMPDEST PUSH8 0xDE0B6B3A7640000 PUSH2 0x3415 DUP3 DUP1 PUSH2 0x3A19 JUMP JUMPDEST PUSH2 0x341F SWAP2 SWAP1 PUSH2 0x3A85 JUMP JUMPDEST SWAP1 POP PUSH2 0x342C PUSH1 0x2 DUP4 PUSH2 0x3A85 JUMP JUMPDEST SWAP2 POP PUSH2 0x33CA JUMP JUMPDEST PUSH8 0xDE0B6B3A7640000 DUP4 PUSH1 0x5 SLOAD PUSH2 0x344A SWAP2 SWAP1 PUSH2 0x3A19 JUMP JUMPDEST PUSH2 0x3454 SWAP2 SWAP1 PUSH2 0x3A85 JUMP JUMPDEST PUSH1 0x5 SSTORE POP POP NUMBER PUSH1 0x7 SSTORE POP POP POP POP JUMP JUMPDEST PUSH1 0x40 MLOAD PUSH4 0x70A08231 PUSH1 0xE0 SHL DUP2 MSTORE ADDRESS PUSH1 0x4 DUP3 ADD MSTORE PUSH1 0x0 SWAP1 DUP2 SWAP1 PUSH1 0x1 PUSH1 0x1 PUSH1 0xA0 SHL SUB PUSH32 0x0 AND SWAP1 PUSH4 0x70A08231 SWAP1 PUSH1 0x24 ADD PUSH1 0x20 PUSH1 0x40 MLOAD DUP1 DUP4 SUB DUP2 DUP7 GAS STATICCALL ISZERO DUP1 ISZERO PUSH2 0x34CC JUMPI RETURNDATASIZE PUSH1 0x0 DUP1 RETURNDATACOPY RETURNDATASIZE PUSH1 0x0 REVERT JUMPDEST POP POP POP POP PUSH1 0x40 MLOAD RETURNDATASIZE PUSH1 0x1F NOT PUSH1 0x1F DUP3 ADD AND DUP3 ADD DUP1 PUSH1 0x40 MSTORE POP DUP2 ADD SWAP1 PUSH2 0x34F0 SWAP2 SWAP1 PUSH2 0x3A30 JUMP JUMPDEST SWAP1 POP PUSH1 0x0 PUSH8 0xDE0B6B3A7640000 DUP5 PUSH1 0xA SLOAD PUSH2 0x350B SWAP2 SWAP1 PUSH2 0x3A19 JUMP JUMPDEST PUSH2 0x3515 SWAP2 SWAP1 PUSH2 0x3A85 JUMP JUMPDEST SWAP1 POP PUSH1 0x0 PUSH2 0x3523 DUP3 DUP5 PUSH2 0x3A49 JUMP JUMPDEST SWAP1 POP PUSH1 0x0 DUP2 ISZERO PUSH2 0x354F JUMPI DUP2 PUSH2 0x3540 DUP5 PUSH8 0xDE0B6B3A7640000 PUSH2 0x3A19 JUMP JUMPDEST PUSH2 0x354A SWAP2 SWAP1 PUSH2 0x3A85 JUMP JUMPDEST PUSH2 0x3552 JUMP JUMPDEST PUSH1 0x0 JUMPDEST SWAP1 POP PUSH8 0xDE0B6B3A7640000 DUP2 PUSH1 0xF SLOAD PUSH2 0x356B SWAP2 SWAP1 PUSH2 0x3A19 JUMP JUMPDEST PUSH2 0x3575 SWAP2 SWAP1 PUSH2 0x3A85 JUMP JUMPDEST PUSH1 0xE SLOAD PUSH2 0x3582 SWAP2 SWAP1 PUSH2 0x3A49 JUMP JUMPDEST SWAP7 SWAP6 POP POP POP POP POP POP JUMP JUMPDEST PUSH1 0x40 MLOAD PUSH4 0x70A08231 PUSH1 0xE0 SHL DUP2 MSTORE ADDRESS PUSH1 0x4 DUP3 ADD MSTORE PUSH1 0x0 SWAP1 DUP2 SWAP1 PUSH1 0x1 PUSH1 0x1 PUSH1 0xA0 SHL SUB PUSH32 0x0 AND SWAP1 PUSH4 0x70A08231 SWAP1 PUSH1 0x24 ADD PUSH1 0x20 PUSH1 0x40 MLOAD DUP1 DUP4 SUB DUP2 DUP7 GAS STATICCALL ISZERO DUP1 ISZERO PUSH2 0x35F5 JUMPI RETURNDATASIZE PUSH1 0x0 DUP1 RETURNDATACOPY RETURNDATASIZE PUSH1 0x0 REVERT JUMPDEST POP POP POP POP PUSH1 0x40 MLOAD RETURNDATASIZE PUSH1 0x1F NOT PUSH1 0x1F DUP3 ADD AND DUP3 ADD DUP1 PUSH1 0x40 MSTORE POP DUP2 ADD SWAP1 PUSH2 0x3619 SWAP2 SWAP1 PUSH2 0x3A30 JUMP JUMPDEST SWAP1 POP PUSH1 0x0 PUSH8 0xDE0B6B3A7640000 DUP5 PUSH1 0x9 SLOAD PUSH2 0x3634 SWAP2 SWAP1 PUSH2 0x3A19 JUMP JUMPDEST PUSH2 0x363E SWAP2 SWAP1 PUSH2 0x3A85 JUMP JUMPDEST SWAP1 POP PUSH1 0x0 PUSH2 0x364C DUP3 DUP5 PUSH2 0x3A49 JUMP JUMPDEST SWAP1 POP PUSH1 0x0 DUP2 ISZERO PUSH2 0x3678 JUMPI DUP2 PUSH2 0x3669 DUP5 PUSH8 0xDE0B6B3A7640000 PUSH2 0x3A19 JUMP JUMPDEST PUSH2 0x3673 SWAP2 SWAP1 PUSH2 0x3A85 JUMP JUMPDEST PUSH2 0x367B JUMP JUMPDEST PUSH1 0x0 JUMPDEST SWAP1 POP PUSH8 0xDE0B6B3A7640000 DUP2 PUSH1 0xC SLOAD PUSH2 0x3694 SWAP2 SWAP1 PUSH2 0x3A19 JUMP JUMPDEST PUSH2 0x369E SWAP2 SWAP1 PUSH2 0x3A85 JUMP JUMPDEST PUSH1 0xB SLOAD PUSH2 0x3582 SWAP2 SWAP1 PUSH2 0x3A49 JUMP JUMPDEST PUSH1 0x0 DUP1 MLOAD PUSH1 0x20 PUSH2 0x3C78 DUP4 CODECOPY DUP2 MLOAD SWAP2 MSTORE SLOAD PUSH1 0x2 SUB PUSH2 0x36DB JUMPI PUSH1 0x40 MLOAD PUSH4 0x3EE5AEB5 PUSH1 0xE0 SHL DUP2 MSTORE PUSH1 0x4 ADD PUSH1 0x40 MLOAD DUP1 SWAP2 SUB SWAP1 REVERT JUMPDEST JUMP JUMPDEST PUSH1 0x40 MLOAD PUSH4 0x23B872DD PUSH1 0xE0 SHL PUSH1 0x0 DUP2 DUP2 MSTORE PUSH1 0x1 PUSH1 0x1 PUSH1 0xA0 SHL SUB DUP8 DUP2 AND PUSH1 0x4 MSTORE DUP7 AND PUSH1 0x24 MSTORE PUSH1 0x44 DUP6 SWAP1 MSTORE SWAP2 PUSH1 0x20 DUP4 PUSH1 0x64 DUP2 DUP1 DUP13 GAS CALL SWAP3 POP PUSH1 0x1 PUSH1 0x0 MLOAD EQ DUP4 AND PUSH2 0x373D JUMPI DUP4 DUP4 ISZERO AND ISZERO PUSH2 0x3730 JUMPI RETURNDATASIZE PUSH1 0x0 DUP3 RETURNDATACOPY RETURNDATASIZE DUP2 REVERT JUMPDEST PUSH1 0x0 DUP9 EXTCODESIZE GT RETURNDATASIZE ISZERO AND DUP4 AND SWAP3 POP JUMPDEST PUSH1 0x40 MSTORE POP PUSH1 0x0 PUSH1 0x60 MSTORE SWAP6 SWAP5 POP POP POP POP POP JUMP JUMPDEST PUSH1 0x40 MLOAD PUSH4 0x70A08231 PUSH1 0xE0 SHL DUP2 MSTORE ADDRESS PUSH1 0x4 DUP3 ADD MSTORE PUSH1 0x0 SWAP1 DUP2 SWAP1 PUSH1 0x1 PUSH1 0x1 PUSH1 0xA0 SHL SUB PUSH32 0x0 AND SWAP1 PUSH4 0x70A08231 SWAP1 PUSH1 0x24 ADD PUSH1 0x20 PUSH1 0x40 MLOAD DUP1 DUP4 SUB DUP2 DUP7 GAS STATICCALL ISZERO DUP1 ISZERO PUSH2 0x37B8 JUMPI RETURNDATASIZE PUSH1 0x0 DUP1 RETURNDATACOPY RETURNDATASIZE PUSH1 0x0 REVERT JUMPDEST POP POP POP POP PUSH1 0x40 MLOAD RETURNDATASIZE PUSH1 0x1F NOT PUSH1 0x1F DUP3 ADD AND DUP3 ADD DUP1 PUSH1 0x40 MSTORE POP DUP2 ADD SWAP1 PUSH2 0x37DC SWAP2 SWAP1 PUSH2 0x3A30 JUMP JUMPDEST PUSH1 0x40 MLOAD PUSH4 0x70A08231 PUSH1 0xE0 SHL DUP2 MSTORE ADDRESS PUSH1 0x4 DUP3 ADD MSTORE SWAP1 SWAP3 POP PUSH32 0x0 PUSH1 0x1 PUSH1 0x1 PUSH1 0xA0 SHL SUB AND SWAP1 PUSH4 0x70A08231 SWAP1 PUSH1 0x24 ADD PUSH1 0x20 PUSH1 0x40 MLOAD DUP1 DUP4 SUB DUP2 DUP7 GAS STATICCALL ISZERO DUP1 ISZERO PUSH2 0x3843 JUMPI RETURNDATASIZE PUSH1 0x0 DUP1 RETURNDATACOPY RETURNDATASIZE PUSH1 0x0 REVERT JUMPDEST POP POP POP POP PUSH1 0x40 MLOAD RETURNDATASIZE PUSH1 0x1F NOT PUSH1 0x1F DUP3 ADD AND DUP3 ADD DUP1 PUSH1 0x40 MSTORE POP DUP2 ADD SWAP1 PUSH2 0x3867 SWAP2 SWAP1 PUSH2 0x3A30 JUMP JUMPDEST SWAP1 POP SWAP1 SWAP2 JUMP JUMPDEST PUSH1 0x40 MLOAD PUSH4 0xA9059CBB PUSH1 0xE0 SHL PUSH1 0x0 DUP2 DUP2 MSTORE PUSH1 0x1 PUSH1 0x1 PUSH1 0xA0 SHL SUB DUP7 AND PUSH1 0x4 MSTORE PUSH1 0x24 DUP6 SWAP1 MSTORE SWAP2 PUSH1 0x20 DUP4 PUSH1 0x44 DUP2 DUP1 DUP12 GAS CALL SWAP3 POP PUSH1 0x1 PUSH1 0x0 MLOAD EQ DUP4 AND PUSH2 0x38C7 JUMPI DUP4 DUP4 ISZERO AND ISZERO PUSH2 0x38BA JUMPI RETURNDATASIZE PUSH1 0x0 DUP3 RETURNDATACOPY RETURNDATASIZE DUP2 REVERT JUMPDEST PUSH1 0x0 DUP8 EXTCODESIZE GT RETURNDATASIZE ISZERO AND DUP4 AND SWAP3 POP JUMPDEST PUSH1 0x40 MSTORE POP SWAP5 SWAP4 POP POP POP POP JUMP JUMPDEST DUP1 CALLDATALOAD PUSH1 0x1 PUSH1 0x1 PUSH1 0xA0 SHL SUB DUP2 AND DUP2 EQ PUSH2 0x38EA JUMPI PUSH1 0x0 DUP1 REVERT JUMPDEST SWAP2 SWAP1 POP JUMP JUMPDEST PUSH1 0x0 PUSH1 0x20 DUP3 DUP5 SUB SLT ISZERO PUSH2 0x3901 JUMPI PUSH1 0x0 DUP1 REVERT JUMPDEST PUSH2 0x3254 DUP3 PUSH2 0x38D3 JUMP JUMPDEST PUSH1 0x0 PUSH1 0x20 DUP3 DUP5 SUB SLT ISZERO PUSH2 0x391C JUMPI PUSH1 0x0 DUP1 REVERT JUMPDEST POP CALLDATALOAD SWAP2 SWAP1 POP JUMP JUMPDEST PUSH1 0x0 DUP1 PUSH1 0x0 DUP1 PUSH1 0x0 PUSH1 0x80 DUP7 DUP9 SUB SLT ISZERO PUSH2 0x393B JUMPI PUSH1 0x0 DUP1 REVERT JUMPDEST PUSH2 0x3944 DUP7 PUSH2 0x38D3 JUMP JUMPDEST SWAP5 POP PUSH2 0x3952 PUSH1 0x20 DUP8 ADD PUSH2 0x38D3 JUMP JUMPDEST SWAP4 POP PUSH1 0x40 DUP7 ADD CALLDATALOAD SWAP3 POP PUSH1 0x60 DUP7 ADD CALLDATALOAD PUSH8 0xFFFFFFFFFFFFFFFF DUP1 DUP3 GT ISZERO PUSH2 0x3976 JUMPI PUSH1 0x0 DUP1 REVERT JUMPDEST DUP2 DUP9 ADD SWAP2 POP DUP9 PUSH1 0x1F DUP4 ADD SLT PUSH2 0x398A JUMPI PUSH1 0x0 DUP1 REVERT JUMPDEST DUP2 CALLDATALOAD DUP2 DUP2 GT ISZERO PUSH2 0x3999 JUMPI PUSH1 0x0 DUP1 REVERT JUMPDEST DUP10 PUSH1 0x20 DUP3 DUP6 ADD ADD GT ISZERO PUSH2 0x39AB JUMPI PUSH1 0x0 DUP1 REVERT JUMPDEST SWAP7 SWAP10 SWAP6 SWAP9 POP SWAP4 SWAP7 POP PUSH1 0x20 ADD SWAP5 SWAP4 SWAP3 POP POP POP JUMP JUMPDEST PUSH1 0x20 DUP1 DUP3 MSTORE PUSH1 0x12 SWAP1 DUP3 ADD MSTORE PUSH18 0x50434F4C42555344506F6F6C3A207A65726F PUSH1 0x70 SHL PUSH1 0x40 DUP3 ADD MSTORE PUSH1 0x60 ADD SWAP1 JUMP JUMPDEST PUSH1 0x1 PUSH1 0x1 PUSH1 0xA0 SHL SUB SWAP3 SWAP1 SWAP3 AND DUP3 MSTORE PUSH1 0x20 DUP3 ADD MSTORE PUSH1 0x40 ADD SWAP1 JUMP JUMPDEST PUSH4 0x4E487B71 PUSH1 0xE0 SHL PUSH1 0x0 MSTORE PUSH1 0x11 PUSH1 0x4 MSTORE PUSH1 0x24 PUSH1 0x0 REVERT JUMPDEST DUP1 DUP3 MUL DUP2 ISZERO DUP3 DUP3 DIV DUP5 EQ OR PUSH2 0xCE8 JUMPI PUSH2 0xCE8 PUSH2 0x3A03 JUMP JUMPDEST PUSH1 0x0 PUSH1 0x20 DUP3 DUP5 SUB SLT ISZERO PUSH2 0x3A42 JUMPI PUSH1 0x0 DUP1 REVERT JUMPDEST POP MLOAD SWAP2 SWAP1 POP JUMP JUMPDEST DUP1 DUP3 ADD DUP1 DUP3 GT ISZERO PUSH2 0xCE8 JUMPI PUSH2 0xCE8 PUSH2 0x3A03 JUMP JUMPDEST DUP2 DUP2 SUB DUP2 DUP2 GT ISZERO PUSH2 0xCE8 JUMPI PUSH2 0xCE8 PUSH2 0x3A03 JUMP JUMPDEST PUSH4 0x4E487B71 PUSH1 0xE0 SHL PUSH1 0x0 MSTORE PUSH1 0x12 PUSH1 0x4 MSTORE PUSH1 0x24 PUSH1 0x0 REVERT JUMPDEST PUSH1 0x0 DUP3 PUSH2 0x3A94 JUMPI PUSH2 0x3A94 PUSH2 0x3A6F JUMP JUMPDEST POP DIV SWAP1 JUMP JUMPDEST PUSH1 0x20 DUP1 DUP3 MSTORE PUSH1 0x10 SWAP1 DUP3 ADD MSTORE PUSH16 0x2821A7A6212AA9A22837B7B61D102423 PUSH1 0x81 SHL PUSH1 0x40 DUP3 ADD MSTORE PUSH1 0x60 ADD SWAP1 JUMP JUMPDEST PUSH1 0x1 PUSH1 0x1 PUSH1 0xA0 SHL SUB DUP8 DUP2 AND DUP3 MSTORE PUSH1 0x20 DUP3 ADD DUP8 SWAP1 MSTORE PUSH1 0x40 DUP3 ADD DUP7 SWAP1 MSTORE DUP5 AND PUSH1 0x60 DUP3 ADD MSTORE PUSH1 0xA0 PUSH1 0x80 DUP3 ADD DUP2 SWAP1 MSTORE DUP2 ADD DUP3 SWAP1 MSTORE PUSH1 0x0 DUP3 DUP5 PUSH1 0xC0 DUP5 ADD CALLDATACOPY PUSH1 0x0 PUSH1 0xC0 DUP5 DUP5 ADD ADD MSTORE PUSH1 0xC0 PUSH1 0x1F NOT PUSH1 0x1F DUP6 ADD AND DUP4 ADD ADD SWAP1 POP SWAP8 SWAP7 POP POP POP POP POP POP POP JUMP JUMPDEST PUSH1 0x0 PUSH1 0x20 DUP3 DUP5 SUB SLT ISZERO PUSH2 0x3B31 JUMPI PUSH1 0x0 DUP1 REVERT JUMPDEST DUP2 MLOAD DUP1 ISZERO ISZERO DUP2 EQ PUSH2 0x3254 JUMPI PUSH1 0x0 DUP1 REVERT JUMPDEST PUSH1 0x0 DUP3 PUSH2 0x3B50 JUMPI PUSH2 0x3B50 PUSH2 0x3A6F JUMP JUMPDEST POP MOD SWAP1 JUMP JUMPDEST PUSH1 0x0 PUSH1 0x20 DUP3 DUP5 SUB SLT ISZERO PUSH2 0x3B67 JUMPI PUSH1 0x0 DUP1 REVERT JUMPDEST DUP2 MLOAD PUSH1 0xFF DUP2 AND DUP2 EQ PUSH2 0x3254 JUMPI PUSH1 0x0 DUP1 REVERT JUMPDEST PUSH1 0x1 DUP2 DUP2 JUMPDEST DUP1 DUP6 GT ISZERO PUSH2 0x3BB3 JUMPI DUP2 PUSH1 0x0 NOT DIV DUP3 GT ISZERO PUSH2 0x3B99 JUMPI PUSH2 0x3B99 PUSH2 0x3A03 JUMP JUMPDEST DUP1 DUP6 AND ISZERO PUSH2 0x3BA6 JUMPI SWAP2 DUP2 MUL SWAP2 JUMPDEST SWAP4 DUP5 SHR SWAP4 SWAP1 DUP1 MUL SWAP1 PUSH2 0x3B7D JUMP JUMPDEST POP SWAP3 POP SWAP3 SWAP1 POP JUMP JUMPDEST PUSH1 0x0 DUP3 PUSH2 0x3BCA JUMPI POP PUSH1 0x1 PUSH2 0xCE8 JUMP JUMPDEST DUP2 PUSH2 0x3BD7 JUMPI POP PUSH1 0x0 PUSH2 0xCE8 JUMP JUMPDEST DUP2 PUSH1 0x1 DUP2 EQ PUSH2 0x3BED JUMPI PUSH1 0x2 DUP2 EQ PUSH2 0x3BF7 JUMPI PUSH2 0x3C13 JUMP JUMPDEST PUSH1 0x1 SWAP2 POP POP PUSH2 0xCE8 JUMP JUMPDEST PUSH1 0xFF DUP5 GT ISZERO PUSH2 0x3C08 JUMPI PUSH2 0x3C08 PUSH2 0x3A03 JUMP JUMPDEST POP POP PUSH1 0x1 DUP3 SHL PUSH2 0xCE8 JUMP JUMPDEST POP PUSH1 0x20 DUP4 LT PUSH2 0x133 DUP4 LT AND PUSH1 0x4E DUP5 LT PUSH1 0xB DUP5 LT AND OR ISZERO PUSH2 0x3C36 JUMPI POP DUP2 DUP2 EXP PUSH2 0xCE8 JUMP JUMPDEST PUSH2 0x3C40 DUP4 DUP4 PUSH2 0x3B78 JUMP JUMPDEST DUP1 PUSH1 0x0 NOT DIV DUP3 GT ISZERO PUSH2 0x3C54 JUMPI PUSH2 0x3C54 PUSH2 0x3A03 JUMP JUMPDEST MUL SWAP4 SWAP3 POP POP POP JUMP JUMPDEST PUSH1 0x0 PUSH2 0x3254 PUSH1 0xFF DUP5 AND DUP4 PUSH2 0x3BBB JUMP JUMPDEST PUSH1 0x0 PUSH2 0x3254 DUP4 DUP4 PUSH2 0x3BBB JUMP INVALID SWAP12 PUSH24 0x9B17422D0DF92223018B32B4D1FA46E071723D6817E2486D STOP EXTCODESIZE 0xEC 0xC5 PUSH0 STOP LOG2 PUSH5 0x6970667358 0x22 SLT KECCAK256 ADDRESS 0xEB 0xE1 0x29 SWAP6 0xC2 0xBF PUSH25 0x742C2A70C203A1A3298EF64F6136B04A7418901DB32C6CBB64 PUSH20 0x6F6C6343000814003360A0604052348015620000 GT JUMPI PUSH1 0x0 DUP1 REVERT JUMPDEST POP PUSH1 0x40 MLOAD PUSH3 0xCAD CODESIZE SUB DUP1 PUSH3 0xCAD DUP4 CODECOPY DUP2 ADD PUSH1 0x40 DUP2 SWAP1 MSTORE PUSH3 0x34 SWAP2 PUSH3 0x18B JUMP JUMPDEST DUP3 DUP3 PUSH1 0x3 PUSH3 0x44 DUP4 DUP3 PUSH3 0x2A7 JUMP JUMPDEST POP PUSH1 0x4 PUSH3 0x53 DUP3 DUP3 PUSH3 0x2A7 JUMP JUMPDEST POP POP POP PUSH1 0x1 PUSH1 0x1 PUSH1 0xA0 SHL SUB DUP2 AND PUSH3 0xB1 JUMPI PUSH1 0x40 MLOAD PUSH3 0x461BCD PUSH1 0xE5 SHL DUP2 MSTORE PUSH1 0x20 PUSH1 0x4 DUP3 ADD MSTORE PUSH1 0x17 PUSH1 0x24 DUP3 ADD MSTORE PUSH32 0x52656365697074546F6B656E3A207A65726F20706F6F6C000000000000000000 PUSH1 0x44 DUP3 ADD MSTORE PUSH1 0x64 ADD PUSH1 0x40 MLOAD DUP1 SWAP2 SUB SWAP1 REVERT JUMPDEST PUSH1 0x1 PUSH1 0x1 PUSH1 0xA0 SHL SUB AND PUSH1 0x80 MSTORE POP PUSH3 0x373 SWAP1 POP JUMP JUMPDEST PUSH4 0x4E487B71 PUSH1 0xE0 SHL PUSH1 0x0 MSTORE PUSH1 0x41 PUSH1 0x4 MSTORE PUSH1 0x24 PUSH1 0x0 REVERT JUMPDEST PUSH1 0x0 DUP3 PUSH1 0x1F DUP4 ADD SLT PUSH3 0xEE JUMPI PUSH1 0x0 DUP1 REVERT JUMPDEST DUP2 MLOAD PUSH1 0x1 PUSH1 0x1 PUSH1 0x40 SHL SUB DUP1 DUP3 GT ISZERO PUSH3 0x10B JUMPI PUSH3 0x10B PUSH3 0xC6 JUMP JUMPDEST PUSH1 0x40 MLOAD PUSH1 0x1F DUP4 ADD PUSH1 0x1F NOT SWAP1 DUP2 AND PUSH1 0x3F ADD AND DUP2 ADD SWAP1 DUP3 DUP3 GT DUP2 DUP4 LT OR ISZERO PUSH3 0x136 JUMPI PUSH3 0x136 PUSH3 0xC6 JUMP JUMPDEST DUP2 PUSH1 0x40 MSTORE DUP4 DUP2 MSTORE PUSH1 0x20 SWAP3 POP DUP7 DUP4 DUP6 DUP9 ADD ADD GT ISZERO PUSH3 0x153 JUMPI PUSH1 0x0 DUP1 REVERT JUMPDEST PUSH1 0x0 SWAP2 POP JUMPDEST DUP4 DUP3 LT ISZERO PUSH3 0x177 JUMPI DUP6 DUP3 ADD DUP4 ADD MLOAD DUP2 DUP4 ADD DUP5 ADD MSTORE SWAP1 DUP3 ADD SWAP1 PUSH3 0x158 JUMP JUMPDEST PUSH1 0x0 SWAP4 DUP2 ADD SWAP1 SWAP3 ADD SWAP3 SWAP1 SWAP3 MSTORE SWAP5 SWAP4 POP POP POP POP JUMP JUMPDEST PUSH1 0x0 DUP1 PUSH1 0x0 PUSH1 0x60 DUP5 DUP7 SUB SLT ISZERO PUSH3 0x1A1 JUMPI PUSH1 0x0 DUP1 REVERT JUMPDEST DUP4 MLOAD PUSH1 0x1 PUSH1 0x1 PUSH1 0x40 SHL SUB DUP1 DUP3 GT ISZERO PUSH3 0x1B9 JUMPI PUSH1 0x0 DUP1 REVERT JUMPDEST PUSH3 0x1C7 DUP8 DUP4 DUP9 ADD PUSH3 0xDC JUMP JUMPDEST SWAP5 POP PUSH1 0x20 DUP7 ADD MLOAD SWAP2 POP DUP1 DUP3 GT ISZERO PUSH3 0x1DE JUMPI PUSH1 0x0 DUP1 REVERT JUMPDEST POP PUSH3 0x1ED DUP7 DUP3 DUP8 ADD PUSH3 0xDC JUMP JUMPDEST PUSH1 0x40 DUP7 ADD MLOAD SWAP1 SWAP4 POP SWAP1 POP PUSH1 0x1 PUSH1 0x1 PUSH1 0xA0 SHL SUB DUP2 AND DUP2 EQ PUSH3 0x20D JUMPI PUSH1 0x0 DUP1 REVERT JUMPDEST DUP1 SWAP2 POP POP SWAP3 POP SWAP3 POP SWAP3 JUMP JUMPDEST PUSH1 0x1 DUP2 DUP2 SHR SWAP1 DUP3 AND DUP1 PUSH3 0x22D JUMPI PUSH1 0x7F DUP3 AND SWAP2 POP JUMPDEST PUSH1 0x20 DUP3 LT DUP2 SUB PUSH3 0x24E JUMPI PUSH4 0x4E487B71 PUSH1 0xE0 SHL PUSH1 0x0 MSTORE PUSH1 0x22 PUSH1 0x4 MSTORE PUSH1 0x24 PUSH1 0x0 REVERT JUMPDEST POP SWAP2 SWAP1 POP JUMP JUMPDEST PUSH1 0x1F DUP3 GT ISZERO PUSH3 0x2A2 JUMPI PUSH1 0x0 DUP2 DUP2 MSTORE PUSH1 0x20 DUP2 KECCAK256 PUSH1 0x1F DUP6 ADD PUSH1 0x5 SHR DUP2 ADD PUSH1 0x20 DUP7 LT ISZERO PUSH3 0x27D JUMPI POP DUP1 JUMPDEST PUSH1 0x1F DUP6 ADD PUSH1 0x5 SHR DUP3 ADD SWAP2 POP JUMPDEST DUP2 DUP2 LT ISZERO PUSH3 0x29E JUMPI DUP3 DUP2 SSTORE PUSH1 0x1 ADD PUSH3 0x289 JUMP JUMPDEST POP POP POP JUMPDEST POP POP POP JUMP JUMPDEST DUP2 MLOAD PUSH1 0x1 PUSH1 0x1 PUSH1 0x40 SHL SUB DUP2 GT ISZERO PUSH3 0x2C3 JUMPI PUSH3 0x2C3 PUSH3 0xC6 JUMP JUMPDEST PUSH3 0x2DB DUP2 PUSH3 0x2D4 DUP5 SLOAD PUSH3 0x218 JUMP JUMPDEST DUP5 PUSH3 0x254 JUMP JUMPDEST PUSH1 0x20 DUP1 PUSH1 0x1F DUP4 GT PUSH1 0x1 DUP2 EQ PUSH3 0x313 JUMPI PUSH1 0x0 DUP5 ISZERO PUSH3 0x2FA JUMPI POP DUP6 DUP4 ADD MLOAD JUMPDEST PUSH1 0x0 NOT PUSH1 0x3 DUP7 SWAP1 SHL SHR NOT AND PUSH1 0x1 DUP6 SWAP1 SHL OR DUP6 SSTORE PUSH3 0x29E JUMP JUMPDEST PUSH1 0x0 DUP6 DUP2 MSTORE PUSH1 0x20 DUP2 KECCAK256 PUSH1 0x1F NOT DUP7 AND SWAP2 JUMPDEST DUP3 DUP2 LT ISZERO PUSH3 0x344 JUMPI DUP9 DUP7 ADD MLOAD DUP3 SSTORE SWAP5 DUP5 ADD SWAP5 PUSH1 0x1 SWAP1 SWAP2 ADD SWAP1 DUP5 ADD PUSH3 0x323 JUMP JUMPDEST POP DUP6 DUP3 LT ISZERO PUSH3 0x363 JUMPI DUP8 DUP6 ADD MLOAD PUSH1 0x0 NOT PUSH1 0x3 DUP9 SWAP1 SHL PUSH1 0xF8 AND SHR NOT AND DUP2 SSTORE JUMPDEST POP POP POP POP POP PUSH1 0x1 SWAP1 DUP2 SHL ADD SWAP1 SSTORE POP JUMP JUMPDEST PUSH1 0x80 MLOAD PUSH2 0x911 PUSH3 0x39C PUSH1 0x0 CODECOPY PUSH1 0x0 DUP2 DUP2 PUSH1 0xFF ADD MSTORE DUP2 DUP2 PUSH2 0x2ED ADD MSTORE PUSH2 0x381 ADD MSTORE PUSH2 0x911 PUSH1 0x0 RETURN INVALID PUSH1 0x80 PUSH1 0x40 MSTORE CALLVALUE DUP1 ISZERO PUSH2 0x10 JUMPI PUSH1 0x0 DUP1 REVERT JUMPDEST POP PUSH1 0x4 CALLDATASIZE LT PUSH2 0xB4 JUMPI PUSH1 0x0 CALLDATALOAD PUSH1 0xE0 SHR DUP1 PUSH4 0x40C10F19 GT PUSH2 0x71 JUMPI DUP1 PUSH4 0x40C10F19 EQ PUSH2 0x16D JUMPI DUP1 PUSH4 0x70A08231 EQ PUSH2 0x182 JUMPI DUP1 PUSH4 0x95D89B41 EQ PUSH2 0x1AB JUMPI DUP1 PUSH4 0x9DC29FAC EQ PUSH2 0x1B3 JUMPI DUP1 PUSH4 0xA9059CBB EQ PUSH2 0x1C6 JUMPI DUP1 PUSH4 0xDD62ED3E EQ PUSH2 0x1D9 JUMPI PUSH1 0x0 DUP1 REVERT JUMPDEST DUP1 PUSH4 0x6FDDE03 EQ PUSH2 0xB9 JUMPI DUP1 PUSH4 0x95EA7B3 EQ PUSH2 0xD7 JUMPI DUP1 PUSH4 0x16F0115B EQ PUSH2 0xFA JUMPI DUP1 PUSH4 0x18160DDD EQ PUSH2 0x139 JUMPI DUP1 PUSH4 0x23B872DD EQ PUSH2 0x14B JUMPI DUP1 PUSH4 0x313CE567 EQ PUSH2 0x15E JUMPI JUMPDEST PUSH1 0x0 DUP1 REVERT JUMPDEST PUSH2 0xC1 PUSH2 0x212 JUMP JUMPDEST PUSH1 0x40 MLOAD PUSH2 0xCE SWAP2 SWAP1 PUSH2 0x75B JUMP JUMPDEST PUSH1 0x40 MLOAD DUP1 SWAP2 SUB SWAP1 RETURN JUMPDEST PUSH2 0xEA PUSH2 0xE5 CALLDATASIZE PUSH1 0x4 PUSH2 0x7C5 JUMP JUMPDEST PUSH2 0x2A4 JUMP JUMPDEST PUSH1 0x40 MLOAD SWAP1 ISZERO ISZERO DUP2 MSTORE PUSH1 0x20 ADD PUSH2 0xCE JUMP JUMPDEST PUSH2 0x121 PUSH32 0x0 DUP2 JUMP JUMPDEST PUSH1 0x40 MLOAD PUSH1 0x1 PUSH1 0x1 PUSH1 0xA0 SHL SUB SWAP1 SWAP2 AND DUP2 MSTORE PUSH1 0x20 ADD PUSH2 0xCE JUMP JUMPDEST PUSH1 0x2 SLOAD JUMPDEST PUSH1 0x40 MLOAD SWAP1 DUP2 MSTORE PUSH1 0x20 ADD PUSH2 0xCE JUMP JUMPDEST PUSH2 0xEA PUSH2 0x159 CALLDATASIZE PUSH1 0x4 PUSH2 0x7EF JUMP JUMPDEST PUSH2 0x2BE JUMP JUMPDEST PUSH1 0x40 MLOAD PUSH1 0x12 DUP2 MSTORE PUSH1 0x20 ADD PUSH2 0xCE JUMP JUMPDEST PUSH2 0x180 PUSH2 0x17B CALLDATASIZE PUSH1 0x4 PUSH2 0x7C5 JUMP JUMPDEST PUSH2 0x2E2 JUMP JUMPDEST STOP JUMPDEST PUSH2 0x13D PUSH2 0x190 CALLDATASIZE PUSH1 0x4 PUSH2 0x82B JUMP JUMPDEST PUSH1 0x1 PUSH1 0x1 PUSH1 0xA0 SHL SUB AND PUSH1 0x0 SWAP1 DUP2 MSTORE PUSH1 0x20 DUP2 SWAP1 MSTORE PUSH1 0x40 SWAP1 KECCAK256 SLOAD SWAP1 JUMP JUMPDEST PUSH2 0xC1 PUSH2 0x367 JUMP JUMPDEST PUSH2 0x180 PUSH2 0x1C1 CALLDATASIZE PUSH1 0x4 PUSH2 0x7C5 JUMP JUMPDEST PUSH2 0x376 JUMP JUMPDEST PUSH2 0xEA PUSH2 0x1D4 CALLDATASIZE PUSH1 0x4 PUSH2 0x7C5 JUMP JUMPDEST PUSH2 0x3F2 JUMP JUMPDEST PUSH2 0x13D PUSH2 0x1E7 CALLDATASIZE PUSH1 0x4 PUSH2 0x84D JUMP JUMPDEST PUSH1 0x1 PUSH1 0x1 PUSH1 0xA0 SHL SUB SWAP2 DUP3 AND PUSH1 0x0 SWAP1 DUP2 MSTORE PUSH1 0x1 PUSH1 0x20 SWAP1 DUP2 MSTORE PUSH1 0x40 DUP1 DUP4 KECCAK256 SWAP4 SWAP1 SWAP5 AND DUP3 MSTORE SWAP2 SWAP1 SWAP2 MSTORE KECCAK256 SLOAD SWAP1 JUMP JUMPDEST PUSH1 0x60 PUSH1 0x3 DUP1 SLOAD PUSH2 0x221 SWAP1 PUSH2 0x880 JUMP JUMPDEST DUP1 PUSH1 0x1F ADD PUSH1 0x20 DUP1 SWAP2 DIV MUL PUSH1 0x20 ADD PUSH1 0x40 MLOAD SWAP1 DUP2 ADD PUSH1 0x40 MSTORE DUP1 SWAP3 SWAP2 SWAP1 DUP2 DUP2 MSTORE PUSH1 0x20 ADD DUP3 DUP1 SLOAD PUSH2 0x24D SWAP1 PUSH2 0x880 JUMP JUMPDEST DUP1 ISZERO PUSH2 0x29A JUMPI DUP1 PUSH1 0x1F LT PUSH2 0x26F JUMPI PUSH2 0x100 DUP1 DUP4 SLOAD DIV MUL DUP4 MSTORE SWAP2 PUSH1 0x20 ADD SWAP2 PUSH2 0x29A JUMP JUMPDEST DUP3 ADD SWAP2 SWAP1 PUSH1 0x0 MSTORE PUSH1 0x20 PUSH1 0x0 KECCAK256 SWAP1 JUMPDEST DUP2 SLOAD DUP2 MSTORE SWAP1 PUSH1 0x1 ADD SWAP1 PUSH1 0x20 ADD DUP1 DUP4 GT PUSH2 0x27D JUMPI DUP3 SWAP1 SUB PUSH1 0x1F AND DUP3 ADD SWAP2 JUMPDEST POP POP POP POP POP SWAP1 POP SWAP1 JUMP JUMPDEST PUSH1 0x0 CALLER PUSH2 0x2B2 DUP2 DUP6 DUP6 PUSH2 0x400 JUMP JUMPDEST PUSH1 0x1 SWAP2 POP POP JUMPDEST SWAP3 SWAP2 POP POP JUMP JUMPDEST PUSH1 0x0 CALLER PUSH2 0x2CC DUP6 DUP3 DUP6 PUSH2 0x412 JUMP JUMPDEST PUSH2 0x2D7 DUP6 DUP6 DUP6 PUSH2 0x491 JUMP JUMPDEST POP PUSH1 0x1 SWAP5 SWAP4 POP POP POP POP JUMP JUMPDEST CALLER PUSH1 0x1 PUSH1 0x1 PUSH1 0xA0 SHL SUB PUSH32 0x0 AND EQ PUSH2 0x359 JUMPI PUSH1 0x40 MLOAD PUSH3 0x461BCD PUSH1 0xE5 SHL DUP2 MSTORE PUSH1 0x20 PUSH1 0x4 DUP3 ADD MSTORE PUSH1 0x17 PUSH1 0x24 DUP3 ADD MSTORE PUSH23 0x149958D95A5C1D151BDAD95B8E881BDB9B1E481C1BDBDB PUSH1 0x4A SHL PUSH1 0x44 DUP3 ADD MSTORE PUSH1 0x64 ADD JUMPDEST PUSH1 0x40 MLOAD DUP1 SWAP2 SUB SWAP1 REVERT JUMPDEST PUSH2 0x363 DUP3 DUP3 PUSH2 0x4F0 JUMP JUMPDEST POP POP JUMP JUMPDEST PUSH1 0x60 PUSH1 0x4 DUP1 SLOAD PUSH2 0x221 SWAP1 PUSH2 0x880 JUMP JUMPDEST CALLER PUSH1 0x1 PUSH1 0x1 PUSH1 0xA0 SHL SUB PUSH32 0x0 AND EQ PUSH2 0x3E8 JUMPI PUSH1 0x40 MLOAD PUSH3 0x461BCD PUSH1 0xE5 SHL DUP2 MSTORE PUSH1 0x20 PUSH1 0x4 DUP3 ADD MSTORE PUSH1 0x17 PUSH1 0x24 DUP3 ADD MSTORE PUSH23 0x149958D95A5C1D151BDAD95B8E881BDB9B1E481C1BDBDB PUSH1 0x4A SHL PUSH1 0x44 DUP3 ADD MSTORE PUSH1 0x64 ADD PUSH2 0x350 JUMP JUMPDEST PUSH2 0x363 DUP3 DUP3 PUSH2 0x526 JUMP JUMPDEST PUSH1 0x0 CALLER PUSH2 0x2B2 DUP2 DUP6 DUP6 PUSH2 0x491 JUMP JUMPDEST PUSH2 0x40D DUP4 DUP4 DUP4 PUSH1 0x1 PUSH2 0x55C JUMP JUMPDEST POP POP POP JUMP JUMPDEST PUSH1 0x1 PUSH1 0x1 PUSH1 0xA0 SHL SUB DUP4 DUP2 AND PUSH1 0x0 SWAP1 DUP2 MSTORE PUSH1 0x1 PUSH1 0x20 SWAP1 DUP2 MSTORE PUSH1 0x40 DUP1 DUP4 KECCAK256 SWAP4 DUP7 AND DUP4 MSTORE SWAP3 SWAP1 MSTORE KECCAK256 SLOAD PUSH1 0x0 NOT DUP2 LT ISZERO PUSH2 0x48B JUMPI DUP2 DUP2 LT ISZERO PUSH2 0x47C JUMPI PUSH1 0x40 MLOAD PUSH4 0x7DC7A0D9 PUSH1 0xE1 SHL DUP2 MSTORE PUSH1 0x1 PUSH1 0x1 PUSH1 0xA0 SHL SUB DUP5 AND PUSH1 0x4 DUP3 ADD MSTORE PUSH1 0x24 DUP2 ADD DUP3 SWAP1 MSTORE PUSH1 0x44 DUP2 ADD DUP4 SWAP1 MSTORE PUSH1 0x64 ADD PUSH2 0x350 JUMP JUMPDEST PUSH2 0x48B DUP5 DUP5 DUP5 DUP5 SUB PUSH1 0x0 PUSH2 0x55C JUMP JUMPDEST POP POP POP POP JUMP JUMPDEST PUSH1 0x1 PUSH1 0x1 PUSH1 0xA0 SHL SUB DUP4 AND PUSH2 0x4BB JUMPI PUSH1 0x40 MLOAD PUSH4 0x4B637E8F PUSH1 0xE1 SHL DUP2 MSTORE PUSH1 0x0 PUSH1 0x4 DUP3 ADD MSTORE PUSH1 0x24 ADD PUSH2 0x350 JUMP JUMPDEST PUSH1 0x1 PUSH1 0x1 PUSH1 0xA0 SHL SUB DUP3 AND PUSH2 0x4E5 JUMPI PUSH1 0x40 MLOAD PUSH4 0xEC442F05 PUSH1 0xE0 SHL DUP2 MSTORE PUSH1 0x0 PUSH1 0x4 DUP3 ADD MSTORE PUSH1 0x24 ADD PUSH2 0x350 JUMP JUMPDEST PUSH2 0x40D DUP4 DUP4 DUP4 PUSH2 0x631 JUMP JUMPDEST PUSH1 0x1 PUSH1 0x1 PUSH1 0xA0 SHL SUB DUP3 AND PUSH2 0x51A JUMPI PUSH1 0x40 MLOAD PUSH4 0xEC442F05 PUSH1 0xE0 SHL DUP2 MSTORE PUSH1 0x0 PUSH1 0x4 DUP3 ADD MSTORE PUSH1 0x24 ADD PUSH2 0x350 JUMP JUMPDEST PUSH2 0x363 PUSH1 0x0 DUP4 DUP4 PUSH2 0x631 JUMP JUMPDEST PUSH1 0x1 PUSH1 0x1 PUSH1 0xA0 SHL SUB DUP3 AND PUSH2 0x550 JUMPI PUSH1 0x40 MLOAD PUSH4 0x4B637E8F PUSH1 0xE1 SHL DUP2 MSTORE PUSH1 0x0 PUSH1 0x4 DUP3 ADD MSTORE PUSH1 0x24 ADD PUSH2 0x350 JUMP JUMPDEST PUSH2 0x363 DUP3 PUSH1 0x0 DUP4 PUSH2 0x631 JUMP JUMPDEST PUSH1 0x1 PUSH1 0x1 PUSH1 0xA0 SHL SUB DUP5 AND PUSH2 0x586 JUMPI PUSH1 0x40 MLOAD PUSH4 0xE602DF05 PUSH1 0xE0 SHL DUP2 MSTORE PUSH1 0x0 PUSH1 0x4 DUP3 ADD MSTORE PUSH1 0x24 ADD PUSH2 0x350 JUMP JUMPDEST PUSH1 0x1 PUSH1 0x1 PUSH1 0xA0 SHL SUB DUP4 AND PUSH2 0x5B0 JUMPI PUSH1 0x40 MLOAD PUSH4 0x4A1406B1 PUSH1 0xE1 SHL DUP2 MSTORE PUSH1 0x0 PUSH1 0x4 DUP3 ADD MSTORE PUSH1 0x24 ADD PUSH2 0x350 JUMP JUMPDEST PUSH1 0x1 PUSH1 0x1 PUSH1 0xA0 SHL SUB DUP1 DUP6 AND PUSH1 0x0 SWAP1 DUP2 MSTORE PUSH1 0x1 PUSH1 0x20 SWAP1 DUP2 MSTORE PUSH1 0x40 DUP1 DUP4 KECCAK256 SWAP4 DUP8 AND DUP4 MSTORE SWAP3 SWAP1 MSTORE KECCAK256 DUP3 SWAP1 SSTORE DUP1 ISZERO PUSH2 0x48B JUMPI DUP3 PUSH1 0x1 PUSH1 0x1 PUSH1 0xA0 SHL SUB AND DUP5 PUSH1 0x1 PUSH1 0x1 PUSH1 0xA0 SHL SUB AND PUSH32 0x8C5BE1E5EBEC7D5BD14F71427D1E84F3DD0314C0F7B2291E5B200AC8C7C3B925 DUP5 PUSH1 0x40 MLOAD PUSH2 0x623 SWAP2 DUP2 MSTORE PUSH1 0x20 ADD SWAP1 JUMP JUMPDEST PUSH1 0x40 MLOAD DUP1 SWAP2 SUB SWAP1 LOG3 POP POP POP POP JUMP JUMPDEST PUSH1 0x1 PUSH1 0x1 PUSH1 0xA0 SHL SUB DUP4 AND PUSH2 0x65C JUMPI DUP1 PUSH1 0x2 PUSH1 0x0 DUP3 DUP3 SLOAD PUSH2 0x651 SWAP2 SWAP1 PUSH2 0x8BA JUMP JUMPDEST SWAP1 SWAP2 SSTORE POP PUSH2 0x6CE SWAP1 POP JUMP JUMPDEST PUSH1 0x1 PUSH1 0x1 PUSH1 0xA0 SHL SUB DUP4 AND PUSH1 0x0 SWAP1 DUP2 MSTORE PUSH1 0x20 DUP2 SWAP1 MSTORE PUSH1 0x40 SWAP1 KECCAK256 SLOAD DUP2 DUP2 LT ISZERO PUSH2 0x6AF JUMPI PUSH1 0x40 MLOAD PUSH4 0x391434E3 PUSH1 0xE2 SHL DUP2 MSTORE PUSH1 0x1 PUSH1 0x1 PUSH1 0xA0 SHL SUB DUP6 AND PUSH1 0x4 DUP3 ADD MSTORE PUSH1 0x24 DUP2 ADD DUP3 SWAP1 MSTORE PUSH1 0x44 DUP2 ADD DUP4 SWAP1 MSTORE PUSH1 0x64 ADD PUSH2 0x350 JUMP JUMPDEST PUSH1 0x1 PUSH1 0x1 PUSH1 0xA0 SHL SUB DUP5 AND PUSH1 0x0 SWAP1 DUP2 MSTORE PUSH1 0x20 DUP2 SWAP1 MSTORE PUSH1 0x40 SWAP1 KECCAK256 SWAP1 DUP3 SWAP1 SUB SWAP1 SSTORE JUMPDEST PUSH1 0x1 PUSH1 0x1 PUSH1 0xA0 SHL SUB DUP3 AND PUSH2 0x6EA JUMPI PUSH1 0x2 DUP1 SLOAD DUP3 SWAP1 SUB SWAP1 SSTORE PUSH2 0x709 JUMP JUMPDEST PUSH1 0x1 PUSH1 0x1 PUSH1 0xA0 SHL SUB DUP3 AND PUSH1 0x0 SWAP1 DUP2 MSTORE PUSH1 0x20 DUP2 SWAP1 MSTORE PUSH1 0x40 SWAP1 KECCAK256 DUP1 SLOAD DUP3 ADD SWAP1 SSTORE JUMPDEST DUP2 PUSH1 0x1 PUSH1 0x1 PUSH1 0xA0 SHL SUB AND DUP4 PUSH1 0x1 PUSH1 0x1 PUSH1 0xA0 SHL SUB AND PUSH32 0xDDF252AD1BE2C89B69C2B068FC378DAA952BA7F163C4A11628F55A4DF523B3EF DUP4 PUSH1 0x40 MLOAD PUSH2 0x74E SWAP2 DUP2 MSTORE PUSH1 0x20 ADD SWAP1 JUMP JUMPDEST PUSH1 0x40 MLOAD DUP1 SWAP2 SUB SWAP1 LOG3 POP POP POP JUMP JUMPDEST PUSH1 0x0 PUSH1 0x20 DUP1 DUP4 MSTORE DUP4 MLOAD DUP1 DUP3 DUP6 ADD MSTORE PUSH1 0x0 JUMPDEST DUP2 DUP2 LT ISZERO PUSH2 0x788 JUMPI DUP6 DUP2 ADD DUP4 ADD MLOAD DUP6 DUP3 ADD PUSH1 0x40 ADD MSTORE DUP3 ADD PUSH2 0x76C JUMP JUMPDEST POP PUSH1 0x0 PUSH1 0x40 DUP3 DUP7 ADD ADD MSTORE PUSH1 0x40 PUSH1 0x1F NOT PUSH1 0x1F DUP4 ADD AND DUP6 ADD ADD SWAP3 POP POP POP SWAP3 SWAP2 POP POP JUMP JUMPDEST DUP1 CALLDATALOAD PUSH1 0x1 PUSH1 0x1 PUSH1 0xA0 SHL SUB DUP2 AND DUP2 EQ PUSH2 0x7C0 JUMPI PUSH1 0x0 DUP1 REVERT JUMPDEST SWAP2 SWAP1 POP JUMP JUMPDEST PUSH1 0x0 DUP1 PUSH1 0x40 DUP4 DUP6 SUB SLT ISZERO PUSH2 0x7D8 JUMPI PUSH1 0x0 DUP1 REVERT JUMPDEST PUSH2 0x7E1 DUP4 PUSH2 0x7A9 JUMP JUMPDEST SWAP5 PUSH1 0x20 SWAP4 SWAP1 SWAP4 ADD CALLDATALOAD SWAP4 POP POP POP JUMP JUMPDEST PUSH1 0x0 DUP1 PUSH1 0x0 PUSH1 0x60 DUP5 DUP7 SUB SLT ISZERO PUSH2 0x804 JUMPI PUSH1 0x0 DUP1 REVERT JUMPDEST PUSH2 0x80D DUP5 PUSH2 0x7A9 JUMP JUMPDEST SWAP3 POP PUSH2 0x81B PUSH1 0x20 DUP6 ADD PUSH2 0x7A9 JUMP JUMPDEST SWAP2 POP PUSH1 0x40 DUP5 ADD CALLDATALOAD SWAP1 POP SWAP3 POP SWAP3 POP SWAP3 JUMP JUMPDEST PUSH1 0x0 PUSH1 0x20 DUP3 DUP5 SUB SLT ISZERO PUSH2 0x83D JUMPI PUSH1 0x0 DUP1 REVERT JUMPDEST PUSH2 0x846 DUP3 PUSH2 0x7A9 JUMP JUMPDEST SWAP4 SWAP3 POP POP POP JUMP JUMPDEST PUSH1 0x0 DUP1 PUSH1 0x40 DUP4 DUP6 SUB SLT ISZERO PUSH2 0x860 JUMPI PUSH1 0x0 DUP1 REVERT JUMPDEST PUSH2 0x869 DUP4 PUSH2 0x7A9 JUMP JUMPDEST SWAP2 POP PUSH2 0x877 PUSH1 0x20 DUP5 ADD PUSH2 0x7A9 JUMP JUMPDEST SWAP1 POP SWAP3 POP SWAP3 SWAP1 POP JUMP JUMPDEST PUSH1 0x1 DUP2 DUP2 SHR SWAP1 DUP3 AND DUP1 PUSH2 0x894 JUMPI PUSH1 0x7F DUP3 AND SWAP2 POP JUMPDEST PUSH1 0x20 DUP3 LT DUP2 SUB PUSH2 0x8B4 JUMPI PUSH4 0x4E487B71 PUSH1 0xE0 SHL PUSH1 0x0 MSTORE PUSH1 0x22 PUSH1 0x4 MSTORE PUSH1 0x24 PUSH1 0x0 REVERT JUMPDEST POP SWAP2 SWAP1 POP JUMP JUMPDEST DUP1 DUP3 ADD DUP1 DUP3 GT ISZERO PUSH2 0x2B8 JUMPI PUSH4 0x4E487B71 PUSH1 0xE0 SHL PUSH1 0x0 MSTORE PUSH1 0x11 PUSH1 0x4 MSTORE PUSH1 0x24 PUSH1 0x0 REVERT INVALID LOG2 PUSH5 0x6970667358 0x22 SLT KECCAK256 0xBD SWAP4 PUSH13 0x1763FCC336C7D1C45F774D88AB PUSH17 0x33A66070011519DBD3906D16D2CCB16473 PUSH16 0x6C634300081400330000000000000000 "},"methodIdentifiers":{"baseRatePerBlockBUSD()":"2f5b0aba","baseRatePerBlockCOL()":"fd47fbf2","borrowBUSD(uint256)":"4577848e","borrowCOL(uint256)":"4564987a","borrowIndexBUSD()":"bf83df13","borrowIndexCOL()":"ba08ff9b","depositBUSD(uint256)":"46bfe1df","depositCOL(uint256)":"056fd0f7","depositCollateralPBUSD(uint256)":"a178f59d","depositCollateralPCOL(uint256)":"a3e3d86e","flashLoan(address,address,uint256,bytes)":"5cffe9de","flashLoanFeeBps()":"c0c7347e","getBorrowAPYBUSD()":"19b87fe8","getBorrowAPYCOL()":"30e0c05e","getBorrowIndexBUSDView()":"fdd73f41","getBorrowIndexCOLView()":"82463417","getBorrowRatePerBlockBUSD()":"38124fa4","getBorrowRatePerBlockCOL()":"3c6ce203","getCurrentDebtBUSD(address)":"4454a10e","getCurrentDebtCOL(address)":"2beabef3","getFlashLoanFee(uint256)":"8dd2a7cf","getHealthFactorPBUSD(address)":"226f4b4e","getHealthFactorPCOL(address)":"326770f2","getMaxBorrowBUSD(address)":"1c1318eb","getMaxBorrowCOL(address)":"752e6088","getPriceBUSDIn8()":"ac72d9ac","getPriceCOLIn8()":"f205743f","getSupplyAPYBUSD()":"a1957856","getSupplyAPYCOL()":"6e2e4659","getUserPositionPBUSD(address)":"b7be98ab","getUserPositionPCOL(address)":"e68a5c04","getUtilizationBUSD()":"a74f0bfa","getUtilizationCOL()":"3d60db5a","governanceToken()":"f96dae0a","isLiquidatablePBUSD(address)":"f9efd058","isLiquidatablePCOL(address)":"adcd54a7","lastBlockBUSD()":"8edb376c","lastBlockCOL()":"f4216de1","liquidateBUSD(address)":"ffdee98d","liquidateCOL(address)":"68532c95","liquidationBonus()":"7b7c1f4c","liquidationThreshold()":"4031234c","lockedPBUSD(address)":"21c61671","lockedPCOL(address)":"28a88d23","multiplierPerBlockBUSD()":"a7a24830","multiplierPerBlockCOL()":"643e3fd3","pbusdToken()":"128078a7","pcolToken()":"1f59d2b8","repayBUSD(uint256)":"f5908219","repayCOL(uint256)":"f678e9d7","reserveFactorBpsBUSD()":"8617d017","reserveFactorBpsCOL()":"3c5607a5","rewardPerBorrow()":"26bbb608","rewardPerDeposit()":"ea4e2fd2","scaledDebtBUSD(address)":"01fbcfde","scaledDebtCOL(address)":"dceba451","tokenBUSD()":"213ef7f7","tokenCOL()":"cbe98e3b","totalScaledDebtBUSD()":"c0656bd0","totalScaledDebtCOL()":"737808f4","withdrawBUSD(uint256)":"cc3bcaf3","withdrawCOL(uint256)":"7502237b","withdrawCollateralPBUSD(uint256)":"a32447bc","withdrawCollateralPCOL(uint256)":"edc38cb4"}}}}}