{
  "_format": "hh-sol-artifact-1",
  "contractName": "FlashLoanReceiverExample",
  "sourceName": "contracts/FlashLoanReceiverExample.sol",
  "abi": [
    {
      "inputs": [
        {
          "internalType": "address",
          "name": "_lendingPool",
          "type": "address"
        }
      ],
      "stateMutability": "nonpayable",
      "type": "constructor"
    },
    {
      "inputs": [
        {
          "internalType": "address",
          "name": "token",
          "type": "address"
        }
      ],
      "name": "SafeERC20FailedOperation",
      "type": "error"
    },
    {
      "inputs": [
        {
          "internalType": "address",
          "name": "asset",
          "type": "address"
        },
        {
          "internalType": "uint256",
          "name": "amount",
          "type": "uint256"
        },
        {
          "internalType": "uint256",
          "name": "fee",
          "type": "uint256"
        },
        {
          "internalType": "address",
          "name": "initiator",
          "type": "address"
        },
        {
          "internalType": "bytes",
          "name": "",
          "type": "bytes"
        }
      ],
      "name": "executeOperation",
      "outputs": [
        {
          "internalType": "bool",
          "name": "",
          "type": "bool"
        }
      ],
      "stateMutability": "nonpayable",
      "type": "function"
    },
    {
      "inputs": [],
      "name": "lendingPool",
      "outputs": [
        {
          "internalType": "address",
          "name": "",
          "type": "address"
        }
      ],
      "stateMutability": "view",
      "type": "function"
    },
    {
      "inputs": [
        {
          "internalType": "address",
          "name": "asset",
          "type": "address"
        },
        {
          "internalType": "uint256",
          "name": "amount",
          "type": "uint256"
        }
      ],
      "name": "requestFlashLoan",
      "outputs": [],
      "stateMutability": "nonpayable",
      "type": "function"
    }
  ],
  "bytecode": "0x60a060405234801561001057600080fd5b506040516106af3803806106af83398101604081905261002f91610040565b6001600160a01b0316608052610070565b60006020828403121561005257600080fd5b81516001600160a01b038116811461006957600080fd5b9392505050565b60805161060a6100a56000396000818160730152818160cf015281816101e90152818161023501526102f9015261060a6000f3fe608060405234801561001057600080fd5b50600436106100415760003560e01c80631b11d0ff14610046578063a59a99731461006e578063d54ba954146100ad575b600080fd5b6100596100543660046104c4565b6100c2565b60405190151581526020015b60405180910390f35b6100957f000000000000000000000000000000000000000000000000000000000000000081565b6040516001600160a01b039091168152602001610065565b6100c06100bb36600461056a565b61021c565b005b6000336001600160a01b037f0000000000000000000000000000000000000000000000000000000000000000161461014d5760405162461bcd60e51b815260206004820152602360248201527f466c6173684c6f616e52656365697665724578616d706c653a206f6e6c7920706044820152621bdbdb60ea1b60648201526084015b60405180910390fd5b6001600160a01b03841630148061016c57506001600160a01b03841632145b6101cc5760405162461bcd60e51b815260206004820152602b60248201527f466c6173684c6f616e52656365697665724578616d706c653a20696e76616c6960448201526a321034b734ba34b0ba37b960a91b6064820152608401610144565b60006101d88688610594565b905061020e6001600160a01b0389167f00000000000000000000000000000000000000000000000000000000000000008361035a565b506001979650505050505050565b604051638dd2a7cf60e01b8152600481018290526000907f00000000000000000000000000000000000000000000000000000000000000006001600160a01b031690638dd2a7cf90602401602060405180830381865afa158015610284573d6000803e3d6000fd5b505050506040513d601f19601f820116820180604052508101906102a891906105bb565b90506102bf6001600160a01b038416333084610394565b604051632e7ff4ef60e11b81523060048201526001600160a01b0384811660248301526044820184905260806064830152600060848301527f00000000000000000000000000000000000000000000000000000000000000001690635cffe9de9060a401600060405180830381600087803b15801561033d57600080fd5b505af1158015610351573d6000803e3d6000fd5b50505050505050565b61036783838360016103d0565b61038f57604051635274afe760e01b81526001600160a01b0384166004820152602401610144565b505050565b6103a2848484846001610436565b6103ca57604051635274afe760e01b81526001600160a01b0385166004820152602401610144565b50505050565b60405163a9059cbb60e01b60008181526001600160a01b038616600452602485905291602083604481808b5af19250600160005114831661042a57838315161561041d573d6000823e3d81fd5b6000873b113d1516831692505b60405250949350505050565b6040516323b872dd60e01b60008181526001600160a01b038781166004528616602452604485905291602083606481808c5af192506001600051148316610496578383151615610489573d6000823e3d81fd5b6000883b113d1516831692505b60405250600060605295945050505050565b80356001600160a01b03811681146104bf57600080fd5b919050565b60008060008060008060a087890312156104dd57600080fd5b6104e6876104a8565b95506020870135945060408701359350610502606088016104a8565b9250608087013567ffffffffffffffff8082111561051f57600080fd5b818901915089601f83011261053357600080fd5b81358181111561054257600080fd5b8a602082850101111561055457600080fd5b6020830194508093505050509295509295509295565b6000806040838503121561057d57600080fd5b610586836104a8565b946020939093013593505050565b808201808211156105b557634e487b7160e01b600052601160045260246000fd5b92915050565b6000602082840312156105cd57600080fd5b505191905056fea26469706673582212204d7ff8def1d86532e518cc0d39f193f6e1636c82e26afa50de7873382f1cd9e864736f6c63430008140033",
  "linkReferences": {},
  "deployedLinkReferences": {}
}