{
  "_format": "hh-sol-artifact-1",
  "contractName": "GovernanceToken",
  "sourceName": "contracts/GovernanceToken.sol",
  "abi": [
    {
      "inputs": [
        {
          "internalType": "string",
          "name": "name_",
          "type": "string"
        },
        {
          "internalType": "string",
          "name": "symbol_",
          "type": "string"
        }
      ],
      "stateMutability": "nonpayable",
      "type": "constructor"
    },
    {
      "inputs": [
        {
          "internalType": "address",
          "name": "spender",
          "type": "address"
        },
        {
          "internalType": "uint256",
          "name": "allowance",
          "type": "uint256"
        },
        {
          "internalType": "uint256",
          "name": "needed",
          "type": "uint256"
        }
      ],
      "name": "ERC20InsufficientAllowance",
      "type": "error"
    },
    {
      "inputs": [
        {
          "internalType": "address",
          "name": "sender",
          "type": "address"
        },
        {
          "internalType": "uint256",
          "name": "balance",
          "type": "uint256"
        },
        {
          "internalType": "uint256",
          "name": "needed",
          "type": "uint256"
        }
      ],
      "name": "ERC20InsufficientBalance",
      "type": "error"
    },
    {
      "inputs": [
        {
          "internalType": "address",
          "name": "approver",
          "type": "address"
        }
      ],
      "name": "ERC20InvalidApprover",
      "type": "error"
    },
    {
      "inputs": [
        {
          "internalType": "address",
          "name": "receiver",
          "type": "address"
        }
      ],
      "name": "ERC20InvalidReceiver",
      "type": "error"
    },
    {
      "inputs": [
        {
          "internalType": "address",
          "name": "sender",
          "type": "address"
        }
      ],
      "name": "ERC20InvalidSender",
      "type": "error"
    },
    {
      "inputs": [
        {
          "internalType": "address",
          "name": "spender",
          "type": "address"
        }
      ],
      "name": "ERC20InvalidSpender",
      "type": "error"
    },
    {
      "inputs": [
        {
          "internalType": "address",
          "name": "owner",
          "type": "address"
        }
      ],
      "name": "OwnableInvalidOwner",
      "type": "error"
    },
    {
      "inputs": [
        {
          "internalType": "address",
          "name": "account",
          "type": "address"
        }
      ],
      "name": "OwnableUnauthorizedAccount",
      "type": "error"
    },
    {
      "anonymous": false,
      "inputs": [
        {
          "indexed": true,
          "internalType": "address",
          "name": "owner",
          "type": "address"
        },
        {
          "indexed": true,
          "internalType": "address",
          "name": "spender",
          "type": "address"
        },
        {
          "indexed": false,
          "internalType": "uint256",
          "name": "value",
          "type": "uint256"
        }
      ],
      "name": "Approval",
      "type": "event"
    },
    {
      "anonymous": false,
      "inputs": [
        {
          "indexed": true,
          "internalType": "address",
          "name": "pool",
          "type": "address"
        }
      ],
      "name": "LendingPoolSet",
      "type": "event"
    },
    {
      "anonymous": false,
      "inputs": [
        {
          "indexed": true,
          "internalType": "address",
          "name": "previousOwner",
          "type": "address"
        },
        {
          "indexed": true,
          "internalType": "address",
          "name": "newOwner",
          "type": "address"
        }
      ],
      "name": "OwnershipTransferred",
      "type": "event"
    },
    {
      "anonymous": false,
      "inputs": [
        {
          "indexed": true,
          "internalType": "address",
          "name": "user",
          "type": "address"
        },
        {
          "indexed": false,
          "internalType": "uint256",
          "name": "reward",
          "type": "uint256"
        }
      ],
      "name": "RewardPaid",
      "type": "event"
    },
    {
      "anonymous": false,
      "inputs": [
        {
          "indexed": false,
          "internalType": "uint256",
          "name": "rate",
          "type": "uint256"
        }
      ],
      "name": "RewardRateSet",
      "type": "event"
    },
    {
      "anonymous": false,
      "inputs": [
        {
          "indexed": true,
          "internalType": "address",
          "name": "to",
          "type": "address"
        },
        {
          "indexed": false,
          "internalType": "uint256",
          "name": "amount",
          "type": "uint256"
        }
      ],
      "name": "RewardsMintedTo",
      "type": "event"
    },
    {
      "anonymous": false,
      "inputs": [
        {
          "indexed": true,
          "internalType": "address",
          "name": "from",
          "type": "address"
        },
        {
          "indexed": true,
          "internalType": "address",
          "name": "to",
          "type": "address"
        },
        {
          "indexed": false,
          "internalType": "uint256",
          "name": "value",
          "type": "uint256"
        }
      ],
      "name": "Transfer",
      "type": "event"
    },
    {
      "inputs": [
        {
          "internalType": "address",
          "name": "owner",
          "type": "address"
        },
        {
          "internalType": "address",
          "name": "spender",
          "type": "address"
        }
      ],
      "name": "allowance",
      "outputs": [
        {
          "internalType": "uint256",
          "name": "",
          "type": "uint256"
        }
      ],
      "stateMutability": "view",
      "type": "function"
    },
    {
      "inputs": [
        {
          "internalType": "address",
          "name": "spender",
          "type": "address"
        },
        {
          "internalType": "uint256",
          "name": "value",
          "type": "uint256"
        }
      ],
      "name": "approve",
      "outputs": [
        {
          "internalType": "bool",
          "name": "",
          "type": "bool"
        }
      ],
      "stateMutability": "nonpayable",
      "type": "function"
    },
    {
      "inputs": [
        {
          "internalType": "address",
          "name": "account",
          "type": "address"
        }
      ],
      "name": "balanceOf",
      "outputs": [
        {
          "internalType": "uint256",
          "name": "",
          "type": "uint256"
        }
      ],
      "stateMutability": "view",
      "type": "function"
    },
    {
      "inputs": [],
      "name": "decimals",
      "outputs": [
        {
          "internalType": "uint8",
          "name": "",
          "type": "uint8"
        }
      ],
      "stateMutability": "view",
      "type": "function"
    },
    {
      "inputs": [
        {
          "internalType": "address",
          "name": "account",
          "type": "address"
        }
      ],
      "name": "earned",
      "outputs": [
        {
          "internalType": "uint256",
          "name": "",
          "type": "uint256"
        }
      ],
      "stateMutability": "view",
      "type": "function"
    },
    {
      "inputs": [],
      "name": "lastUpdateTime",
      "outputs": [
        {
          "internalType": "uint256",
          "name": "",
          "type": "uint256"
        }
      ],
      "stateMutability": "view",
      "type": "function"
    },
    {
      "inputs": [],
      "name": "lendingPool",
      "outputs": [
        {
          "internalType": "address",
          "name": "",
          "type": "address"
        }
      ],
      "stateMutability": "view",
      "type": "function"
    },
    {
      "inputs": [
        {
          "internalType": "address",
          "name": "to",
          "type": "address"
        },
        {
          "internalType": "uint256",
          "name": "amount",
          "type": "uint256"
        }
      ],
      "name": "mint",
      "outputs": [],
      "stateMutability": "nonpayable",
      "type": "function"
    },
    {
      "inputs": [
        {
          "internalType": "address",
          "name": "to",
          "type": "address"
        },
        {
          "internalType": "uint256",
          "name": "amount",
          "type": "uint256"
        }
      ],
      "name": "mintReward",
      "outputs": [],
      "stateMutability": "nonpayable",
      "type": "function"
    },
    {
      "inputs": [],
      "name": "name",
      "outputs": [
        {
          "internalType": "string",
          "name": "",
          "type": "string"
        }
      ],
      "stateMutability": "view",
      "type": "function"
    },
    {
      "inputs": [],
      "name": "owner",
      "outputs": [
        {
          "internalType": "address",
          "name": "",
          "type": "address"
        }
      ],
      "stateMutability": "view",
      "type": "function"
    },
    {
      "inputs": [],
      "name": "renounceOwnership",
      "outputs": [],
      "stateMutability": "nonpayable",
      "type": "function"
    },
    {
      "inputs": [],
      "name": "rewardPerToken",
      "outputs": [
        {
          "internalType": "uint256",
          "name": "",
          "type": "uint256"
        }
      ],
      "stateMutability": "view",
      "type": "function"
    },
    {
      "inputs": [],
      "name": "rewardPerTokenStored",
      "outputs": [
        {
          "internalType": "uint256",
          "name": "",
          "type": "uint256"
        }
      ],
      "stateMutability": "view",
      "type": "function"
    },
    {
      "inputs": [],
      "name": "rewardRatePerSecond",
      "outputs": [
        {
          "internalType": "uint256",
          "name": "",
          "type": "uint256"
        }
      ],
      "stateMutability": "view",
      "type": "function"
    },
    {
      "inputs": [
        {
          "internalType": "address",
          "name": "",
          "type": "address"
        }
      ],
      "name": "rewards",
      "outputs": [
        {
          "internalType": "uint256",
          "name": "",
          "type": "uint256"
        }
      ],
      "stateMutability": "view",
      "type": "function"
    },
    {
      "inputs": [
        {
          "internalType": "address",
          "name": "_lendingPool",
          "type": "address"
        }
      ],
      "name": "setLendingPool",
      "outputs": [],
      "stateMutability": "nonpayable",
      "type": "function"
    },
    {
      "inputs": [
        {
          "internalType": "uint256",
          "name": "_rate",
          "type": "uint256"
        }
      ],
      "name": "setRewardRatePerSecond",
      "outputs": [],
      "stateMutability": "nonpayable",
      "type": "function"
    },
    {
      "inputs": [],
      "name": "symbol",
      "outputs": [
        {
          "internalType": "string",
          "name": "",
          "type": "string"
        }
      ],
      "stateMutability": "view",
      "type": "function"
    },
    {
      "inputs": [],
      "name": "totalSupply",
      "outputs": [
        {
          "internalType": "uint256",
          "name": "",
          "type": "uint256"
        }
      ],
      "stateMutability": "view",
      "type": "function"
    },
    {
      "inputs": [
        {
          "internalType": "address",
          "name": "to",
          "type": "address"
        },
        {
          "internalType": "uint256",
          "name": "value",
          "type": "uint256"
        }
      ],
      "name": "transfer",
      "outputs": [
        {
          "internalType": "bool",
          "name": "",
          "type": "bool"
        }
      ],
      "stateMutability": "nonpayable",
      "type": "function"
    },
    {
      "inputs": [
        {
          "internalType": "address",
          "name": "from",
          "type": "address"
        },
        {
          "internalType": "address",
          "name": "to",
          "type": "address"
        },
        {
          "internalType": "uint256",
          "name": "value",
          "type": "uint256"
        }
      ],
      "name": "transferFrom",
      "outputs": [
        {
          "internalType": "bool",
          "name": "",
          "type": "bool"
        }
      ],
      "stateMutability": "nonpayable",
      "type": "function"
    },
    {
      "inputs": [
        {
          "internalType": "address",
          "name": "newOwner",
          "type": "address"
        }
      ],
      "name": "transferOwnership",
      "outputs": [],
      "stateMutability": "nonpayable",
      "type": "function"
    },
    {
      "inputs": [
        {
          "internalType": "address",
          "name": "account",
          "type": "address"
        }
      ],
      "name": "updateReward",
      "outputs": [],
      "stateMutability": "nonpayable",
      "type": "function"
    },
    {
      "inputs": [
        {
          "internalType": "address",
          "name": "",
          "type": "address"
        }
      ],
      "name": "userRewardPerTokenPaid",
      "outputs": [
        {
          "internalType": "uint256",
          "name": "",
          "type": "uint256"
        }
      ],
      "stateMutability": "view",
      "type": "function"
    }
  ],
  "bytecode": "0x60806040523480156200001157600080fd5b5060405162001035380380620010358339810160408190526200003491620001bd565b3382826003620000458382620002b6565b506004620000548282620002b6565b5050506001600160a01b0381166200008657604051631e4fbdf760e01b81526000600482015260240160405180910390fd5b6200009181620000a6565b5050670de0b6b3a76400006006555062000382565b600580546001600160a01b038381166001600160a01b0319831681179093556040519116919082907f8be0079c531659141344cd1fd0a4f28419497f9722a3daafe3b4186f6b6457e090600090a35050565b634e487b7160e01b600052604160045260246000fd5b600082601f8301126200012057600080fd5b81516001600160401b03808211156200013d576200013d620000f8565b604051601f8301601f19908116603f01168101908282118183101715620001685762000168620000f8565b816040528381526020925086838588010111156200018557600080fd5b600091505b83821015620001a957858201830151818301840152908201906200018a565b600093810190920192909252949350505050565b60008060408385031215620001d157600080fd5b82516001600160401b0380821115620001e957600080fd5b620001f7868387016200010e565b935060208501519150808211156200020e57600080fd5b506200021d858286016200010e565b9150509250929050565b600181811c908216806200023c57607f821691505b6020821081036200025d57634e487b7160e01b600052602260045260246000fd5b50919050565b601f821115620002b157600081815260208120601f850160051c810160208610156200028c5750805b601f850160051c820191505b81811015620002ad5782815560010162000298565b5050505b505050565b81516001600160401b03811115620002d257620002d2620000f8565b620002ea81620002e3845462000227565b8462000263565b602080601f831160018114620003225760008415620003095750858301515b600019600386901b1c1916600185901b178555620002ad565b600085815260208120601f198616915b82811015620003535788860151825594840194600190910190840162000332565b5085821015620003725787850151600019600388901b60f8161c191681555b5050505050600190811b01905550565b610ca380620003926000396000f3fe608060405234801561001057600080fd5b50600436106101725760003560e01c8063715018a6116100de578063a9059cbb11610097578063dd62ed3e11610071578063dd62ed3e14610341578063df136d651461037a578063f2fde38b14610383578063fdea76b41461039657600080fd5b8063a9059cbb1461031d578063c8f33c9114610330578063cd3daf9d1461033957600080fd5b8063715018a6146102a25780638b876347146102aa5780638da5cb5b146102ca57806395d89b41146102ef5780639a49090e146102f7578063a59a99731461030a57600080fd5b806323b872dd1161013057806323b872dd14610228578063313ce5671461023b57806340c10f191461024a5780635d773b2c1461025d578063632447c91461026657806370a082311461027957600080fd5b80628cc2621461017757806306fdde03146101b35780630700037d146101c8578063095ea7b3146101e8578063113aa8b11461020b57806318160ddd14610220575b600080fd5b6101a0610185366004610a7c565b6001600160a01b03166000908152600b602052604090205490565b6040519081526020015b60405180910390f35b6101bb6103a9565b6040516101aa9190610a9e565b6101a06101d6366004610a7c565b600b6020526000908152604090205481565b6101fb6101f6366004610aec565b61043b565b60405190151581526020016101aa565b61021e610219366004610a7c565b610455565b005b6002546101a0565b6101fb610236366004610b16565b6104a7565b604051601281526020016101aa565b61021e610258366004610aec565b6104cb565b6101a060065481565b61021e610274366004610a7c565b6104e1565b6101a0610287366004610a7c565b6001600160a01b031660009081526020819052604090205490565b61021e610553565b6101a06102b8366004610a7c565b600a6020526000908152604090205481565b6005546001600160a01b03165b6040516001600160a01b0390911681526020016101aa565b6101bb610567565b61021e610305366004610aec565b610576565b6009546102d7906001600160a01b031681565b6101fb61032b366004610aec565b6105f1565b6101a060075481565b6101a06105ff565b6101a061034f366004610b52565b6001600160a01b03918216600090815260016020908152604080832093909416825291909152205490565b6101a060085481565b61021e610391366004610a7c565b61063e565b61021e6103a4366004610b85565b610679565b6060600380546103b890610b9e565b80601f01602080910402602001604051908101604052809291908181526020018280546103e490610b9e565b80156104315780601f1061040657610100808354040283529160200191610431565b820191906000526020600020905b81548152906001019060200180831161041457829003601f168201915b5050505050905090565b6000336104498185856106bc565b60019150505b92915050565b61045d6106ce565b600980546001600160a01b0319166001600160a01b0383169081179091556040517f1222804283c650162c0f858b42dcc4564e940f0cc2b3f001bcd6af8aa00a2f3090600090a250565b6000336104b58582856106fb565b6104c085858561077a565b506001949350505050565b6104d36106ce565b6104dd82826107d9565b5050565b6009546001600160a01b031633146105145760405162461bcd60e51b815260040161050b90610bd8565b60405180910390fd5b61051c6105ff565b600855426007556001600160a01b03811615610550576001600160a01b0381166000908152600854600a6020526040909120555b50565b61055b6106ce565b610565600061080f565b565b6060600480546103b890610b9e565b6009546001600160a01b031633146105a05760405162461bcd60e51b815260040161050b90610bd8565b6105aa82826107d9565b816001600160a01b03167fdcbc7fbf85436734f0c6e5f5c707ae3e1b8e423349faaf8eec2f3bf4bec9cf20826040516105e591815260200190565b60405180910390a25050565b60003361044981858561077a565b6000600754421015610612575060085490565b6006546007546106229042610c30565b61062c9190610c43565b6008546106399190610c5a565b905090565b6106466106ce565b6001600160a01b03811661067057604051631e4fbdf760e01b81526000600482015260240161050b565b6105508161080f565b6106816106ce565b60068190556040518181527f8cbfafc8e0d9c5c81401c4b9c6e7d201198adc7eb8f8f1556c195ecd4c0a0e7b9060200160405180910390a150565b6106c98383836001610861565b505050565b6005546001600160a01b031633146105655760405163118cdaa760e01b815233600482015260240161050b565b6001600160a01b03838116600090815260016020908152604080832093861683529290522054600019811015610774578181101561076557604051637dc7a0d960e11b81526001600160a01b0384166004820152602481018290526044810183905260640161050b565b61077484848484036000610861565b50505050565b6001600160a01b0383166107a457604051634b637e8f60e11b81526000600482015260240161050b565b6001600160a01b0382166107ce5760405163ec442f0560e01b81526000600482015260240161050b565b6106c9838383610936565b6001600160a01b0382166108035760405163ec442f0560e01b81526000600482015260240161050b565b6104dd60008383610936565b600580546001600160a01b038381166001600160a01b0319831681179093556040519116919082907f8be0079c531659141344cd1fd0a4f28419497f9722a3daafe3b4186f6b6457e090600090a35050565b6001600160a01b03841661088b5760405163e602df0560e01b81526000600482015260240161050b565b6001600160a01b0383166108b557604051634a1406b160e11b81526000600482015260240161050b565b6001600160a01b038085166000908152600160209081526040808320938716835292905220829055801561077457826001600160a01b0316846001600160a01b03167f8c5be1e5ebec7d5bd14f71427d1e84f3dd0314c0f7b2291e5b200ac8c7c3b9258460405161092891815260200190565b60405180910390a350505050565b6001600160a01b0383166109615780600260008282546109569190610c5a565b909155506109d39050565b6001600160a01b038316600090815260208190526040902054818110156109b45760405163391434e360e21b81526001600160a01b0385166004820152602481018290526044810183905260640161050b565b6001600160a01b03841660009081526020819052604090209082900390555b6001600160a01b0382166109ef57600280548290039055610a0e565b6001600160a01b03821660009081526020819052604090208054820190555b816001600160a01b0316836001600160a01b03167fddf252ad1be2c89b69c2b068fc378daa952ba7f163c4a11628f55a4df523b3ef83604051610a5391815260200190565b60405180910390a3505050565b80356001600160a01b0381168114610a7757600080fd5b919050565b600060208284031215610a8e57600080fd5b610a9782610a60565b9392505050565b600060208083528351808285015260005b81811015610acb57858101830151858201604001528201610aaf565b506000604082860101526040601f19601f8301168501019250505092915050565b60008060408385031215610aff57600080fd5b610b0883610a60565b946020939093013593505050565b600080600060608486031215610b2b57600080fd5b610b3484610a60565b9250610b4260208501610a60565b9150604084013590509250925092565b60008060408385031215610b6557600080fd5b610b6e83610a60565b9150610b7c60208401610a60565b90509250929050565b600060208284031215610b9757600080fd5b5035919050565b600181811c90821680610bb257607f821691505b602082108103610bd257634e487b7160e01b600052602260045260246000fd5b50919050565b60208082526022908201527f476f7665726e616e6365546f6b656e3a206f6e6c79206c656e64696e6720706f6040820152611bdb60f21b606082015260800190565b634e487b7160e01b600052601160045260246000fd5b8181038181111561044f5761044f610c1a565b808202811582820484141761044f5761044f610c1a565b8082018082111561044f5761044f610c1a56fea26469706673582212201a52d7db7339d635c280ed8b4c15fd9fe92a9e20a0e7f91a9ee94381de2f47a164736f6c63430008140033",
  "linkReferences": {},
  "deployedLinkReferences": {}
}