{
  "_format": "hh-sol-artifact-1",
  "contractName": "PCOLBUSDPool",
  "sourceName": "contracts/PCOLBUSDPool.sol",
  "abi": [
    {
      "inputs": [
        {
          "internalType": "address",
          "name": "_tokenCOL",
          "type": "address"
        },
        {
          "internalType": "address",
          "name": "_tokenBUSD",
          "type": "address"
        },
        {
          "internalType": "address",
          "name": "_governanceToken",
          "type": "address"
        }
      ],
      "stateMutability": "nonpayable",
      "type": "constructor"
    },
    {
      "inputs": [],
      "name": "ReentrancyGuardReentrantCall",
      "type": "error"
    },
    {
      "inputs": [
        {
          "internalType": "address",
          "name": "token",
          "type": "address"
        }
      ],
      "name": "SafeERC20FailedOperation",
      "type": "error"
    },
    {
      "anonymous": false,
      "inputs": [
        {
          "indexed": true,
          "internalType": "address",
          "name": "user",
          "type": "address"
        },
        {
          "indexed": false,
          "internalType": "uint256",
          "name": "amount",
          "type": "uint256"
        }
      ],
      "name": "BorrowBUSD",
      "type": "event"
    },
    {
      "anonymous": false,
      "inputs": [
        {
          "indexed": true,
          "internalType": "address",
          "name": "user",
          "type": "address"
        },
        {
          "indexed": false,
          "internalType": "uint256",
          "name": "amount",
          "type": "uint256"
        }
      ],
      "name": "BorrowCOL",
      "type": "event"
    },
    {
      "anonymous": false,
      "inputs": [
        {
          "indexed": true,
          "internalType": "address",
          "name": "user",
          "type": "address"
        },
        {
          "indexed": false,
          "internalType": "uint256",
          "name": "amount",
          "type": "uint256"
        },
        {
          "indexed": false,
          "internalType": "uint256",
          "name": "pbusdMinted",
          "type": "uint256"
        }
      ],
      "name": "DepositBUSD",
      "type": "event"
    },
    {
      "anonymous": false,
      "inputs": [
        {
          "indexed": true,
          "internalType": "address",
          "name": "user",
          "type": "address"
        },
        {
          "indexed": false,
          "internalType": "uint256",
          "name": "amount",
          "type": "uint256"
        },
        {
          "indexed": false,
          "internalType": "uint256",
          "name": "pcolMinted",
          "type": "uint256"
        }
      ],
      "name": "DepositCOL",
      "type": "event"
    },
    {
      "anonymous": false,
      "inputs": [
        {
          "indexed": true,
          "internalType": "address",
          "name": "user",
          "type": "address"
        },
        {
          "indexed": false,
          "internalType": "uint256",
          "name": "amount",
          "type": "uint256"
        }
      ],
      "name": "DepositCollateralPBUSD",
      "type": "event"
    },
    {
      "anonymous": false,
      "inputs": [
        {
          "indexed": true,
          "internalType": "address",
          "name": "user",
          "type": "address"
        },
        {
          "indexed": false,
          "internalType": "uint256",
          "name": "amount",
          "type": "uint256"
        }
      ],
      "name": "DepositCollateralPCOL",
      "type": "event"
    },
    {
      "anonymous": false,
      "inputs": [
        {
          "indexed": true,
          "internalType": "address",
          "name": "receiver",
          "type": "address"
        },
        {
          "indexed": true,
          "internalType": "address",
          "name": "asset",
          "type": "address"
        },
        {
          "indexed": false,
          "internalType": "uint256",
          "name": "amount",
          "type": "uint256"
        },
        {
          "indexed": false,
          "internalType": "uint256",
          "name": "fee",
          "type": "uint256"
        }
      ],
      "name": "FlashLoan",
      "type": "event"
    },
    {
      "anonymous": false,
      "inputs": [
        {
          "indexed": true,
          "internalType": "address",
          "name": "liquidator",
          "type": "address"
        },
        {
          "indexed": true,
          "internalType": "address",
          "name": "user",
          "type": "address"
        },
        {
          "indexed": false,
          "internalType": "uint256",
          "name": "debtRepaid",
          "type": "uint256"
        },
        {
          "indexed": false,
          "internalType": "uint256",
          "name": "pcolReceived",
          "type": "uint256"
        }
      ],
      "name": "LiquidateBUSD",
      "type": "event"
    },
    {
      "anonymous": false,
      "inputs": [
        {
          "indexed": true,
          "internalType": "address",
          "name": "liquidator",
          "type": "address"
        },
        {
          "indexed": true,
          "internalType": "address",
          "name": "user",
          "type": "address"
        },
        {
          "indexed": false,
          "internalType": "uint256",
          "name": "debtRepaid",
          "type": "uint256"
        },
        {
          "indexed": false,
          "internalType": "uint256",
          "name": "pbusdReceived",
          "type": "uint256"
        }
      ],
      "name": "LiquidateCOL",
      "type": "event"
    },
    {
      "anonymous": false,
      "inputs": [
        {
          "indexed": true,
          "internalType": "address",
          "name": "user",
          "type": "address"
        },
        {
          "indexed": false,
          "internalType": "uint256",
          "name": "amount",
          "type": "uint256"
        }
      ],
      "name": "RepayBUSD",
      "type": "event"
    },
    {
      "anonymous": false,
      "inputs": [
        {
          "indexed": true,
          "internalType": "address",
          "name": "user",
          "type": "address"
        },
        {
          "indexed": false,
          "internalType": "uint256",
          "name": "amount",
          "type": "uint256"
        }
      ],
      "name": "RepayCOL",
      "type": "event"
    },
    {
      "anonymous": false,
      "inputs": [
        {
          "indexed": true,
          "internalType": "address",
          "name": "user",
          "type": "address"
        },
        {
          "indexed": false,
          "internalType": "uint256",
          "name": "amount",
          "type": "uint256"
        },
        {
          "indexed": false,
          "internalType": "uint256",
          "name": "pbusdBurned",
          "type": "uint256"
        }
      ],
      "name": "WithdrawBUSD",
      "type": "event"
    },
    {
      "anonymous": false,
      "inputs": [
        {
          "indexed": true,
          "internalType": "address",
          "name": "user",
          "type": "address"
        },
        {
          "indexed": false,
          "internalType": "uint256",
          "name": "amount",
          "type": "uint256"
        },
        {
          "indexed": false,
          "internalType": "uint256",
          "name": "pcolBurned",
          "type": "uint256"
        }
      ],
      "name": "WithdrawCOL",
      "type": "event"
    },
    {
      "anonymous": false,
      "inputs": [
        {
          "indexed": true,
          "internalType": "address",
          "name": "user",
          "type": "address"
        },
        {
          "indexed": false,
          "internalType": "uint256",
          "name": "amount",
          "type": "uint256"
        }
      ],
      "name": "WithdrawCollateralPBUSD",
      "type": "event"
    },
    {
      "anonymous": false,
      "inputs": [
        {
          "indexed": true,
          "internalType": "address",
          "name": "user",
          "type": "address"
        },
        {
          "indexed": false,
          "internalType": "uint256",
          "name": "amount",
          "type": "uint256"
        }
      ],
      "name": "WithdrawCollateralPCOL",
      "type": "event"
    },
    {
      "inputs": [],
      "name": "baseRatePerBlockBUSD",
      "outputs": [
        {
          "internalType": "uint256",
          "name": "",
          "type": "uint256"
        }
      ],
      "stateMutability": "view",
      "type": "function"
    },
    {
      "inputs": [],
      "name": "baseRatePerBlockCOL",
      "outputs": [
        {
          "internalType": "uint256",
          "name": "",
          "type": "uint256"
        }
      ],
      "stateMutability": "view",
      "type": "function"
    },
    {
      "inputs": [
        {
          "internalType": "uint256",
          "name": "amount",
          "type": "uint256"
        }
      ],
      "name": "borrowBUSD",
      "outputs": [],
      "stateMutability": "nonpayable",
      "type": "function"
    },
    {
      "inputs": [
        {
          "internalType": "uint256",
          "name": "amount",
          "type": "uint256"
        }
      ],
      "name": "borrowCOL",
      "outputs": [],
      "stateMutability": "nonpayable",
      "type": "function"
    },
    {
      "inputs": [],
      "name": "borrowIndexBUSD",
      "outputs": [
        {
          "internalType": "uint256",
          "name": "",
          "type": "uint256"
        }
      ],
      "stateMutability": "view",
      "type": "function"
    },
    {
      "inputs": [],
      "name": "borrowIndexCOL",
      "outputs": [
        {
          "internalType": "uint256",
          "name": "",
          "type": "uint256"
        }
      ],
      "stateMutability": "view",
      "type": "function"
    },
    {
      "inputs": [
        {
          "internalType": "uint256",
          "name": "amount",
          "type": "uint256"
        }
      ],
      "name": "depositBUSD",
      "outputs": [],
      "stateMutability": "nonpayable",
      "type": "function"
    },
    {
      "inputs": [
        {
          "internalType": "uint256",
          "name": "amount",
          "type": "uint256"
        }
      ],
      "name": "depositCOL",
      "outputs": [],
      "stateMutability": "nonpayable",
      "type": "function"
    },
    {
      "inputs": [
        {
          "internalType": "uint256",
          "name": "amount",
          "type": "uint256"
        }
      ],
      "name": "depositCollateralPBUSD",
      "outputs": [],
      "stateMutability": "nonpayable",
      "type": "function"
    },
    {
      "inputs": [
        {
          "internalType": "uint256",
          "name": "amount",
          "type": "uint256"
        }
      ],
      "name": "depositCollateralPCOL",
      "outputs": [],
      "stateMutability": "nonpayable",
      "type": "function"
    },
    {
      "inputs": [
        {
          "internalType": "address",
          "name": "receiverAddress",
          "type": "address"
        },
        {
          "internalType": "address",
          "name": "asset",
          "type": "address"
        },
        {
          "internalType": "uint256",
          "name": "amount",
          "type": "uint256"
        },
        {
          "internalType": "bytes",
          "name": "params",
          "type": "bytes"
        }
      ],
      "name": "flashLoan",
      "outputs": [],
      "stateMutability": "nonpayable",
      "type": "function"
    },
    {
      "inputs": [],
      "name": "flashLoanFeeBps",
      "outputs": [
        {
          "internalType": "uint256",
          "name": "",
          "type": "uint256"
        }
      ],
      "stateMutability": "view",
      "type": "function"
    },
    {
      "inputs": [],
      "name": "getBorrowAPYBUSD",
      "outputs": [
        {
          "internalType": "uint256",
          "name": "",
          "type": "uint256"
        }
      ],
      "stateMutability": "view",
      "type": "function"
    },
    {
      "inputs": [],
      "name": "getBorrowAPYCOL",
      "outputs": [
        {
          "internalType": "uint256",
          "name": "",
          "type": "uint256"
        }
      ],
      "stateMutability": "view",
      "type": "function"
    },
    {
      "inputs": [],
      "name": "getBorrowIndexBUSDView",
      "outputs": [
        {
          "internalType": "uint256",
          "name": "",
          "type": "uint256"
        }
      ],
      "stateMutability": "view",
      "type": "function"
    },
    {
      "inputs": [],
      "name": "getBorrowIndexCOLView",
      "outputs": [
        {
          "internalType": "uint256",
          "name": "",
          "type": "uint256"
        }
      ],
      "stateMutability": "view",
      "type": "function"
    },
    {
      "inputs": [],
      "name": "getBorrowRatePerBlockBUSD",
      "outputs": [
        {
          "internalType": "uint256",
          "name": "",
          "type": "uint256"
        }
      ],
      "stateMutability": "view",
      "type": "function"
    },
    {
      "inputs": [],
      "name": "getBorrowRatePerBlockCOL",
      "outputs": [
        {
          "internalType": "uint256",
          "name": "",
          "type": "uint256"
        }
      ],
      "stateMutability": "view",
      "type": "function"
    },
    {
      "inputs": [
        {
          "internalType": "address",
          "name": "user",
          "type": "address"
        }
      ],
      "name": "getCurrentDebtBUSD",
      "outputs": [
        {
          "internalType": "uint256",
          "name": "",
          "type": "uint256"
        }
      ],
      "stateMutability": "view",
      "type": "function"
    },
    {
      "inputs": [
        {
          "internalType": "address",
          "name": "user",
          "type": "address"
        }
      ],
      "name": "getCurrentDebtCOL",
      "outputs": [
        {
          "internalType": "uint256",
          "name": "",
          "type": "uint256"
        }
      ],
      "stateMutability": "view",
      "type": "function"
    },
    {
      "inputs": [
        {
          "internalType": "uint256",
          "name": "amount",
          "type": "uint256"
        }
      ],
      "name": "getFlashLoanFee",
      "outputs": [
        {
          "internalType": "uint256",
          "name": "",
          "type": "uint256"
        }
      ],
      "stateMutability": "view",
      "type": "function"
    },
    {
      "inputs": [
        {
          "internalType": "address",
          "name": "user",
          "type": "address"
        }
      ],
      "name": "getHealthFactorPBUSD",
      "outputs": [
        {
          "internalType": "uint256",
          "name": "",
          "type": "uint256"
        }
      ],
      "stateMutability": "view",
      "type": "function"
    },
    {
      "inputs": [
        {
          "internalType": "address",
          "name": "user",
          "type": "address"
        }
      ],
      "name": "getHealthFactorPCOL",
      "outputs": [
        {
          "internalType": "uint256",
          "name": "",
          "type": "uint256"
        }
      ],
      "stateMutability": "view",
      "type": "function"
    },
    {
      "inputs": [
        {
          "internalType": "address",
          "name": "user",
          "type": "address"
        }
      ],
      "name": "getMaxBorrowBUSD",
      "outputs": [
        {
          "internalType": "uint256",
          "name": "",
          "type": "uint256"
        }
      ],
      "stateMutability": "view",
      "type": "function"
    },
    {
      "inputs": [
        {
          "internalType": "address",
          "name": "user",
          "type": "address"
        }
      ],
      "name": "getMaxBorrowCOL",
      "outputs": [
        {
          "internalType": "uint256",
          "name": "",
          "type": "uint256"
        }
      ],
      "stateMutability": "view",
      "type": "function"
    },
    {
      "inputs": [],
      "name": "getPriceBUSDIn8",
      "outputs": [
        {
          "internalType": "uint256",
          "name": "",
          "type": "uint256"
        }
      ],
      "stateMutability": "view",
      "type": "function"
    },
    {
      "inputs": [],
      "name": "getPriceCOLIn8",
      "outputs": [
        {
          "internalType": "uint256",
          "name": "",
          "type": "uint256"
        }
      ],
      "stateMutability": "view",
      "type": "function"
    },
    {
      "inputs": [],
      "name": "getSupplyAPYBUSD",
      "outputs": [
        {
          "internalType": "uint256",
          "name": "",
          "type": "uint256"
        }
      ],
      "stateMutability": "view",
      "type": "function"
    },
    {
      "inputs": [],
      "name": "getSupplyAPYCOL",
      "outputs": [
        {
          "internalType": "uint256",
          "name": "",
          "type": "uint256"
        }
      ],
      "stateMutability": "view",
      "type": "function"
    },
    {
      "inputs": [
        {
          "internalType": "address",
          "name": "user",
          "type": "address"
        }
      ],
      "name": "getUserPositionPBUSD",
      "outputs": [
        {
          "internalType": "uint256",
          "name": "collateralPBUSD",
          "type": "uint256"
        },
        {
          "internalType": "uint256",
          "name": "debtCOL_",
          "type": "uint256"
        }
      ],
      "stateMutability": "view",
      "type": "function"
    },
    {
      "inputs": [
        {
          "internalType": "address",
          "name": "user",
          "type": "address"
        }
      ],
      "name": "getUserPositionPCOL",
      "outputs": [
        {
          "internalType": "uint256",
          "name": "collateralPCOL",
          "type": "uint256"
        },
        {
          "internalType": "uint256",
          "name": "debtBUSD_",
          "type": "uint256"
        }
      ],
      "stateMutability": "view",
      "type": "function"
    },
    {
      "inputs": [],
      "name": "getUtilizationBUSD",
      "outputs": [
        {
          "internalType": "uint256",
          "name": "",
          "type": "uint256"
        }
      ],
      "stateMutability": "view",
      "type": "function"
    },
    {
      "inputs": [],
      "name": "getUtilizationCOL",
      "outputs": [
        {
          "internalType": "uint256",
          "name": "",
          "type": "uint256"
        }
      ],
      "stateMutability": "view",
      "type": "function"
    },
    {
      "inputs": [],
      "name": "governanceToken",
      "outputs": [
        {
          "internalType": "contract GovernanceToken",
          "name": "",
          "type": "address"
        }
      ],
      "stateMutability": "view",
      "type": "function"
    },
    {
      "inputs": [
        {
          "internalType": "address",
          "name": "user",
          "type": "address"
        }
      ],
      "name": "isLiquidatablePBUSD",
      "outputs": [
        {
          "internalType": "bool",
          "name": "",
          "type": "bool"
        }
      ],
      "stateMutability": "view",
      "type": "function"
    },
    {
      "inputs": [
        {
          "internalType": "address",
          "name": "user",
          "type": "address"
        }
      ],
      "name": "isLiquidatablePCOL",
      "outputs": [
        {
          "internalType": "bool",
          "name": "",
          "type": "bool"
        }
      ],
      "stateMutability": "view",
      "type": "function"
    },
    {
      "inputs": [],
      "name": "lastBlockBUSD",
      "outputs": [
        {
          "internalType": "uint256",
          "name": "",
          "type": "uint256"
        }
      ],
      "stateMutability": "view",
      "type": "function"
    },
    {
      "inputs": [],
      "name": "lastBlockCOL",
      "outputs": [
        {
          "internalType": "uint256",
          "name": "",
          "type": "uint256"
        }
      ],
      "stateMutability": "view",
      "type": "function"
    },
    {
      "inputs": [
        {
          "internalType": "address",
          "name": "user",
          "type": "address"
        }
      ],
      "name": "liquidateBUSD",
      "outputs": [],
      "stateMutability": "nonpayable",
      "type": "function"
    },
    {
      "inputs": [
        {
          "internalType": "address",
          "name": "user",
          "type": "address"
        }
      ],
      "name": "liquidateCOL",
      "outputs": [],
      "stateMutability": "nonpayable",
      "type": "function"
    },
    {
      "inputs": [],
      "name": "liquidationBonus",
      "outputs": [
        {
          "internalType": "uint256",
          "name": "",
          "type": "uint256"
        }
      ],
      "stateMutability": "view",
      "type": "function"
    },
    {
      "inputs": [],
      "name": "liquidationThreshold",
      "outputs": [
        {
          "internalType": "uint256",
          "name": "",
          "type": "uint256"
        }
      ],
      "stateMutability": "view",
      "type": "function"
    },
    {
      "inputs": [
        {
          "internalType": "address",
          "name": "",
          "type": "address"
        }
      ],
      "name": "lockedPBUSD",
      "outputs": [
        {
          "internalType": "uint256",
          "name": "",
          "type": "uint256"
        }
      ],
      "stateMutability": "view",
      "type": "function"
    },
    {
      "inputs": [
        {
          "internalType": "address",
          "name": "",
          "type": "address"
        }
      ],
      "name": "lockedPCOL",
      "outputs": [
        {
          "internalType": "uint256",
          "name": "",
          "type": "uint256"
        }
      ],
      "stateMutability": "view",
      "type": "function"
    },
    {
      "inputs": [],
      "name": "multiplierPerBlockBUSD",
      "outputs": [
        {
          "internalType": "uint256",
          "name": "",
          "type": "uint256"
        }
      ],
      "stateMutability": "view",
      "type": "function"
    },
    {
      "inputs": [],
      "name": "multiplierPerBlockCOL",
      "outputs": [
        {
          "internalType": "uint256",
          "name": "",
          "type": "uint256"
        }
      ],
      "stateMutability": "view",
      "type": "function"
    },
    {
      "inputs": [],
      "name": "pbusdToken",
      "outputs": [
        {
          "internalType": "contract ReceiptToken",
          "name": "",
          "type": "address"
        }
      ],
      "stateMutability": "view",
      "type": "function"
    },
    {
      "inputs": [],
      "name": "pcolToken",
      "outputs": [
        {
          "internalType": "contract ReceiptToken",
          "name": "",
          "type": "address"
        }
      ],
      "stateMutability": "view",
      "type": "function"
    },
    {
      "inputs": [
        {
          "internalType": "uint256",
          "name": "amount",
          "type": "uint256"
        }
      ],
      "name": "repayBUSD",
      "outputs": [],
      "stateMutability": "nonpayable",
      "type": "function"
    },
    {
      "inputs": [
        {
          "internalType": "uint256",
          "name": "amount",
          "type": "uint256"
        }
      ],
      "name": "repayCOL",
      "outputs": [],
      "stateMutability": "nonpayable",
      "type": "function"
    },
    {
      "inputs": [],
      "name": "reserveFactorBpsBUSD",
      "outputs": [
        {
          "internalType": "uint256",
          "name": "",
          "type": "uint256"
        }
      ],
      "stateMutability": "view",
      "type": "function"
    },
    {
      "inputs": [],
      "name": "reserveFactorBpsCOL",
      "outputs": [
        {
          "internalType": "uint256",
          "name": "",
          "type": "uint256"
        }
      ],
      "stateMutability": "view",
      "type": "function"
    },
    {
      "inputs": [],
      "name": "rewardPerBorrow",
      "outputs": [
        {
          "internalType": "uint256",
          "name": "",
          "type": "uint256"
        }
      ],
      "stateMutability": "view",
      "type": "function"
    },
    {
      "inputs": [],
      "name": "rewardPerDeposit",
      "outputs": [
        {
          "internalType": "uint256",
          "name": "",
          "type": "uint256"
        }
      ],
      "stateMutability": "view",
      "type": "function"
    },
    {
      "inputs": [
        {
          "internalType": "address",
          "name": "",
          "type": "address"
        }
      ],
      "name": "scaledDebtBUSD",
      "outputs": [
        {
          "internalType": "uint256",
          "name": "",
          "type": "uint256"
        }
      ],
      "stateMutability": "view",
      "type": "function"
    },
    {
      "inputs": [
        {
          "internalType": "address",
          "name": "",
          "type": "address"
        }
      ],
      "name": "scaledDebtCOL",
      "outputs": [
        {
          "internalType": "uint256",
          "name": "",
          "type": "uint256"
        }
      ],
      "stateMutability": "view",
      "type": "function"
    },
    {
      "inputs": [],
      "name": "tokenBUSD",
      "outputs": [
        {
          "internalType": "address",
          "name": "",
          "type": "address"
        }
      ],
      "stateMutability": "view",
      "type": "function"
    },
    {
      "inputs": [],
      "name": "tokenCOL",
      "outputs": [
        {
          "internalType": "address",
          "name": "",
          "type": "address"
        }
      ],
      "stateMutability": "view",
      "type": "function"
    },
    {
      "inputs": [],
      "name": "totalScaledDebtBUSD",
      "outputs": [
        {
          "internalType": "uint256",
          "name": "",
          "type": "uint256"
        }
      ],
      "stateMutability": "view",
      "type": "function"
    },
    {
      "inputs": [],
      "name": "totalScaledDebtCOL",
      "outputs": [
        {
          "internalType": "uint256",
          "name": "",
          "type": "uint256"
        }
      ],
      "stateMutability": "view",
      "type": "function"
    },
    {
      "inputs": [
        {
          "internalType": "uint256",
          "name": "amount",
          "type": "uint256"
        }
      ],
      "name": "withdrawBUSD",
      "outputs": [],
      "stateMutability": "nonpayable",
      "type": "function"
    },
    {
      "inputs": [
        {
          "internalType": "uint256",
          "name": "amount",
          "type": "uint256"
        }
      ],
      "name": "withdrawCOL",
      "outputs": [],
      "stateMutability": "nonpayable",
      "type": "function"
    },
    {
      "inputs": [
        {
          "internalType": "uint256",
          "name": "amount",
          "type": "uint256"
        }
      ],
      "name": "withdrawCollateralPBUSD",
      "outputs": [],
      "stateMutability": "nonpayable",
      "type": "function"
    },
    {
      "inputs": [
        {
          "internalType": "uint256",
          "name": "amount",
          "type": "uint256"
        }
      ],
      "name": "withdrawCollateralPCOL",
      "outputs": [],
      "stateMutability": "nonpayable",
      "type": "function"
    }
  ],
  "bytecode": "0x610100604052670de0b6b3a7640000600555670de0b6b3a764000060065566038d7ea4c68000600b5566b1a2bc2ec50000600c556103e8600d5566038d7ea4c68000600e5566b1a2bc2ec50000600f556103e8601055611f406011556103e86012556009601355670de0b6b3a764000060145567016345785d8a00006015553480156200008b57600080fd5b5060405162004c6938038062004c69833981016040819052620000ae9162000327565b60017f9b779b17422d0df92223018b32b4d1fa46e071723d6817e2486d003becc55f00556001600160a01b03831615801590620000f357506001600160a01b03821615155b80156200010857506001600160a01b03811615155b6200014f5760405162461bcd60e51b815260206004820152601260248201527150434f4c42555344506f6f6c3a207a65726f60701b60448201526064015b60405180910390fd5b816001600160a01b0316836001600160a01b031603620001b25760405162461bcd60e51b815260206004820152601860248201527f50434f4c42555344506f6f6c3a2073616d6520746f6b656e0000000000000000604482015260640162000146565b6001600160a01b03808416608052821660a0526040513090620001d590620002fc565b606080825260089082015267141bdbdb0810d3d360c21b608082015260a060208201819052600490820152631410d3d360e21b60c08201526001600160a01b03909116604082015260e001604051809103906000f0801580156200023d573d6000803e3d6000fd5b506001600160a01b031660c05260405130906200025a90620002fc565b606080825260099082015268141bdbdb08109554d160ba1b608082015260a0602082018190526005908201526414109554d160da1b60c08201526001600160a01b03909116604082015260e001604051809103906000f080158015620002c4573d6000803e3d6000fd5b506001600160a01b0390811660e052600080546001600160a01b03191692909116919091179055505043600781905560085562000371565b610cad8062003fbc83390190565b80516001600160a01b03811681146200032257600080fd5b919050565b6000806000606084860312156200033d57600080fd5b62000348846200030a565b925062000358602085016200030a565b915062000368604085016200030a565b90509250925092565b60805160a05160c05160e051613b07620004b5600039600081816104220152818161145b01528181611b5b01528181611bd2015281816120d10152818161226c015261258601526000818161047c015281816108bc01528181611dd4015281816122fa0152818161276201528181612d790152612df00152600081816104a301528181610ac9015281816111bc0152818161131f0152818161141c015281816115b30152818161239a015281816124ae015281816125fc015281816128b001528181612d3401528181612fa0015281816133e8015261362e01526000818161073a0152818161087d01528181610d1501528181610ed2015281816110350152818161157801528181611b1601528181611cfc01528181611e4a01528181611f7001528181612a1301528181612f1a015281816132bf01526135ab0152613b076000f3fe608060405234801561001057600080fd5b50600436106103d05760003560e01c806382463417116101ff578063c0c7347e1161011a578063f4216de1116100ad578063f9efd0581161007c578063f9efd05814610808578063fd47fbf21461081b578063fdd73f4114610824578063ffdee98d1461082c57600080fd5b8063f4216de1146107c6578063f5908219146107cf578063f678e9d7146107e2578063f96dae0a146107f557600080fd5b8063e68a5c04116100e9578063e68a5c041461078f578063ea4e2fd2146107a2578063edc38cb4146107ab578063f205743f146107be57600080fd5b8063c0c7347e1461072c578063cbe98e3b14610735578063cc3bcaf31461075c578063dceba4511461076f57600080fd5b8063a74f0bfa11610192578063b7be98ab11610161578063b7be98ab146106e9578063ba08ff9b14610711578063bf83df131461071a578063c0656bd01461072357600080fd5b8063a74f0bfa146106ab578063a7a24830146106b3578063ac72d9ac146106bc578063adcd54a7146106c657600080fd5b8063a178f59d116101ce578063a178f59d1461066a578063a19578561461067d578063a32447bc14610685578063a3e3d86e1461069857600080fd5b8063824634171461063d5780638617d017146106455780638dd2a7cf1461064e5780638edb376c1461066157600080fd5b80633c5607a5116102ef5780635cffe9de11610282578063737808f411610251578063737808f4146106055780637502237b1461060e578063752e6088146106215780637b7c1f4c1461063457600080fd5b80635cffe9de146105ce578063643e3fd3146105e157806368532c95146105ea5780636e2e4659146105fd57600080fd5b80634454a10e116102be5780634454a10e146105825780634564987a146105955780634577848e146105a857806346bfe1df146105bb57600080fd5b80633c5607a5146105605780633c6ce203146105695780633d60db5a146105715780634031234c1461057957600080fd5b8063226f4b4e116103675780632f5b0aba116103365780632f5b0aba1461053457806330e0c05e1461053d578063326770f21461054557806338124fa41461055857600080fd5b8063226f4b4e146104e557806326bbb608146104f857806328a88d23146105015780632beabef31461052157600080fd5b80631c1318eb116103a35780631c1318eb146104645780631f59d2b814610477578063213ef7f71461049e57806321c61671146104c557600080fd5b806301fbcfde146103d5578063056fd0f714610408578063128078a71461041d57806319b87fe81461045c575b600080fd5b6103f56103e3366004613729565b60036020526000908152604090205481565b6040519081526020015b60405180910390f35b61041b610416366004613744565b61083f565b005b6104447f000000000000000000000000000000000000000000000000000000000000000081565b6040516001600160a01b0390911681526020016103ff565b6103f56109ed565b6103f5610472366004613729565b610a0a565b6104447f000000000000000000000000000000000000000000000000000000000000000081565b6104447f000000000000000000000000000000000000000000000000000000000000000081565b6103f56104d3366004613729565b60026020526000908152604090205481565b6103f56104f3366004613729565b610b51565b6103f560155481565b6103f561050f366004613729565b60016020526000908152604090205481565b6103f561052f366004613729565b610be6565b6103f5600b5481565b6103f5610c2c565b6103f5610553366004613729565b610c3a565b6103f5610c77565b6103f560105481565b6103f5610cb8565b6103f5610cf3565b6103f560115481565b6103f5610590366004613729565b610def565b61041b6105a3366004613744565b610e25565b61041b6105b6366004613744565b611119565b61041b6105c9366004613744565b6113e7565b61041b6105dc36600461375d565b61156e565b6103f5600f5481565b61041b6105f8366004613729565b611938565b6103f5611c5c565b6103f5600a5481565b61041b61061c366004613744565b611cbd565b6103f561062f366004613729565b611eab565b6103f560125481565b6103f5611f9f565b6103f5600d5481565b6103f561065c366004613744565b612089565b6103f560075481565b61041b610678366004613744565b61209c565b6103f561214f565b61041b610693366004613744565b61218b565b61041b6106a6366004613744565b6122c5565b6103f5612378565b6103f5600c5481565b6305f5e1006103f5565b6106d96106d4366004613729565b612427565b60405190151581526020016103ff565b6106fc6106f7366004613729565b612442565b604080519283526020830191909152016103ff565b6103f560065481565b6103f560055481565b6103f560095481565b6103f560135481565b6104447f000000000000000000000000000000000000000000000000000000000000000081565b61041b61076a366004613744565b61246f565b6103f561077d366004613729565b60046020526000908152604090205481565b6106fc61079d366004613729565b61265d565b6103f560145481565b61041b6107b9366004613744565b612681565b6103f56127bb565b6103f560085481565b61041b6107dd366004613744565b6127c5565b61041b6107f0366004613744565b612928565b600054610444906001600160a01b031681565b6106d9610816366004613729565b612a6d565b6103f5600e5481565b6103f5612a81565b61041b61083a366004613729565b612b56565b610847612e5a565b600081116108705760405162461bcd60e51b8152600401610867906137f8565b60405180910390fd5b6108a56001600160a01b037f000000000000000000000000000000000000000000000000000000000000000016333084612e76565b6040516340c10f1960e01b81526001600160a01b037f000000000000000000000000000000000000000000000000000000000000000016906340c10f19906108f39033908590600401613824565b600060405180830381600087803b15801561090d57600080fd5b505af1158015610921573d6000803e3d6000fd5b505050506000601454111561099757600054601454604051634d24848760e11b81526001600160a01b0390921691639a49090e9161096491339190600401613824565b600060405180830381600087803b15801561097e57600080fd5b505af1158015610992573d6000803e3d6000fd5b505050505b604080518281526020810183905233917f69cf9c0357203eb60830c3c768cc9adf5436120832d38c926997c4523adc816791015b60405180910390a26109ea6001600080516020613ab283398151915255565b50565b6000622014806109fb610c77565b610a059190613853565b905090565b6001600160a01b0381166000908152600160205260408120548103610a3157506000919050565b6000610a3c83612eb2565b905060006305f5e100610a4e85610def565b610a589190613853565b9050600061271060115484610a6d9190613853565b610a779190613880565b9050818111610a8b57506000949350505050565b60006305f5e100610a9c8484613894565b610aa69190613880565b6040516370a0823160e01b81523060048201529091506000906001600160a01b037f000000000000000000000000000000000000000000000000000000000000000016906370a08231906024015b602060405180830381865afa158015610b11573d6000803e3d6000fd5b505050506040513d601f19601f82011682018060405250810190610b3591906138a7565b9050808211610b445781610b46565b805b979650505050505050565b600080610b5d83610be6565b905080600003610b71575060001992915050565b6000610b7b612ef4565b610b859083613853565b90506000610b928561306d565b905081600003610ba85750600019949350505050565b610bb461271083613853565b601154610bc19083613853565b610bd390670de0b6b3a7640000613853565b610bdd9190613880565b95945050505050565b6000670de0b6b3a7640000610bf9611f9f565b6001600160a01b038416600090815260046020526040902054610c1c9190613853565b610c269190613880565b92915050565b6000622014806109fb610cb8565b600080610c4683610def565b905080600003610c5a575060001992915050565b6000610c6a6305f5e10083613853565b90506000610b9285612eb2565b600080610c82612378565b9050670de0b6b3a764000081600c54610c9b9190613853565b610ca59190613880565b600b54610cb291906138c0565b91505090565b600080610cc3610cf3565b9050670de0b6b3a764000081600f54610cdc9190613853565b610ce69190613880565b600e54610cb291906138c0565b6040516370a0823160e01b815230600482015260009081906001600160a01b037f000000000000000000000000000000000000000000000000000000000000000016906370a0823190602401602060405180830381865afa158015610d5c573d6000803e3d6000fd5b505050506040513d601f19601f82011682018060405250810190610d8091906138a7565b90506000670de0b6b3a7640000610d95611f9f565b600a54610da29190613853565b610dac9190613880565b90506000610dba82846138c0565b90508015610de45780610dd583670de0b6b3a7640000613853565b610ddf9190613880565b610de7565b60005b935050505090565b6000670de0b6b3a7640000610e02612a81565b6001600160a01b038416600090815260036020526040902054610c1c9190613853565b610e2d612e5a565b610e35613095565b60008111610e555760405162461bcd60e51b8152600401610867906137f8565b33600090815260026020526040902054610ebb5760405162461bcd60e51b815260206004820152602160248201527f50434f4c42555344506f6f6c3a206e6f20504255534420636f6c6c61746572616044820152601b60fa1b6064820152608401610867565b6040516370a0823160e01b815230600482015281907f00000000000000000000000000000000000000000000000000000000000000006001600160a01b0316906370a0823190602401602060405180830381865afa158015610f21573d6000803e3d6000fd5b505050506040513d601f19601f82011682018060405250810190610f4591906138a7565b1015610f935760405162461bcd60e51b815260206004820152601e60248201527f50434f4c42555344506f6f6c3a20696e73756666696369656e7420434f4c00006044820152606401610867565b600654600090610fab83670de0b6b3a7640000613853565b610fb59190613880565b33600090815260046020526040812080549293508392909190610fd99084906138c0565b9250508190555080600a6000828254610ff291906138c0565b90915550670de0b6b3a7640000905061100a33610b51565b10156110285760405162461bcd60e51b8152600401610867906138d3565b61105c6001600160a01b037f000000000000000000000000000000000000000000000000000000000000000016338461317c565b601554156110cb57600054601554604051634d24848760e11b81526001600160a01b0390921691639a49090e9161109891339190600401613824565b600060405180830381600087803b1580156110b257600080fd5b505af11580156110c6573d6000803e3d6000fd5b505050505b60405182815233907f64058ef3fd742704269a61c4d8e869ac215d70d1dfbd716d4746da00fa89a839906020015b60405180910390a2506109ea6001600080516020613ab283398151915255565b611121612e5a565b6111296131b6565b600081116111495760405162461bcd60e51b8152600401610867906137f8565b336000908152600160205260409020546111a55760405162461bcd60e51b815260206004820181905260248201527f50434f4c42555344506f6f6c3a206e6f2050434f4c20636f6c6c61746572616c6044820152606401610867565b6040516370a0823160e01b815230600482015281907f00000000000000000000000000000000000000000000000000000000000000006001600160a01b0316906370a0823190602401602060405180830381865afa15801561120b573d6000803e3d6000fd5b505050506040513d601f19601f8201168201806040525081019061122f91906138a7565b101561127d5760405162461bcd60e51b815260206004820152601f60248201527f50434f4c42555344506f6f6c3a20696e73756666696369656e742042555344006044820152606401610867565b60055460009061129583670de0b6b3a7640000613853565b61129f9190613880565b336000908152600360205260408120805492935083929091906112c39084906138c0565b9250508190555080600960008282546112dc91906138c0565b90915550670de0b6b3a764000090506112f433610c3a565b10156113125760405162461bcd60e51b8152600401610867906138d3565b6113466001600160a01b037f000000000000000000000000000000000000000000000000000000000000000016338461317c565b601554156113b557600054601554604051634d24848760e11b81526001600160a01b0390921691639a49090e9161138291339190600401613824565b600060405180830381600087803b15801561139c57600080fd5b505af11580156113b0573d6000803e3d6000fd5b505050505b60405182815233907ff6fc424a68d90f3f5323be41db315721f4b8843b3799ae1089007f88e2190551906020016110f9565b6113ef612e5a565b6000811161140f5760405162461bcd60e51b8152600401610867906137f8565b6114446001600160a01b037f000000000000000000000000000000000000000000000000000000000000000016333084612e76565b6040516340c10f1960e01b81526001600160a01b037f000000000000000000000000000000000000000000000000000000000000000016906340c10f19906114929033908590600401613824565b600060405180830381600087803b1580156114ac57600080fd5b505af11580156114c0573d6000803e3d6000fd5b505050506000601454111561153657600054601454604051634d24848760e11b81526001600160a01b0390921691639a49090e9161150391339190600401613824565b600060405180830381600087803b15801561151d57600080fd5b505af1158015611531573d6000803e3d6000fd5b505050505b604080518281526020810183905233917f8a2298614b2ccbbc8111d5698f4353b52ed97c61821ce6bb845f369a687cf4d391016109cb565b611576612e5a565b7f00000000000000000000000000000000000000000000000000000000000000006001600160a01b0316846001600160a01b031614806115e757507f00000000000000000000000000000000000000000000000000000000000000006001600160a01b0316846001600160a01b0316145b6116335760405162461bcd60e51b815260206004820152601960248201527f50434f4c42555344506f6f6c3a20756e737570706f72746564000000000000006044820152606401610867565b600083118015611646575060165460ff16155b6116925760405162461bcd60e51b815260206004820152601b60248201527f50434f4c42555344506f6f6c3a20696e76616c696420666c61736800000000006044820152606401610867565b6000612710601354856116a59190613853565b6116af9190613880565b6016805460ff191660011790556040516370a0823160e01b81523060048201529091506000906001600160a01b038716906370a0823190602401602060405180830381865afa158015611706573d6000803e3d6000fd5b505050506040513d601f19601f8201168201806040525081019061172a91906138a7565b90506117406001600160a01b038716888761317c565b604051631b11d0ff60e01b81526001600160a01b03881690631b11d0ff906117769089908990879033908b908b906004016138fd565b6020604051808303816000875af1158015611795573d6000803e3d6000fd5b505050506040513d601f19601f820116820180604052508101906117b99190613959565b6118055760405162461bcd60e51b815260206004820152601a60248201527f50434f4c42555344506f6f6c3a20666c617368206661696c65640000000000006044820152606401610867565b61180f82826138c0565b6040516370a0823160e01b81523060048201526001600160a01b038816906370a0823190602401602060405180830381865afa158015611853573d6000803e3d6000fd5b505050506040513d601f19601f8201168201806040525081019061187791906138a7565b10156118c55760405162461bcd60e51b815260206004820152601860248201527f50434f4c42555344506f6f6c3a206e6f742072657061696400000000000000006044820152606401610867565b6016805460ff1916905560408051868152602081018490526001600160a01b0388811692908a16917f0d7d75e01ab95780d3cd1c8ec0dd6c2ce19e3a20427eec8bf53283b6fb8e95f0910160405180910390a350506119316001600080516020613ab283398151915255565b5050505050565b611940612e5a565b611948613095565b670de0b6b3a764000061195a82610b51565b106119a75760405162461bcd60e51b815260206004820152601e60248201527f50434f4c42555344506f6f6c3a206e6f74206c6971756964617461626c6500006044820152606401610867565b6006546001600160a01b0382166000908152600460205260408120549091670de0b6b3a7640000916119d99190613853565b6119e39190613880565b9050600081118015611a0c57506001600160a01b03821660009081526002602052604090205415155b611a4f5760405162461bcd60e51b815260206004820152601460248201527350434f4c42555344506f6f6c3a206e6f20706f7360601b6044820152606401610867565b600654600090611a6783670de0b6b3a7640000613853565b611a719190613880565b6001600160a01b0384166000908152600460205260408120819055600a80549293508392909190611aa3908490613894565b90915550506001600160a01b038316600090815260026020526040812080549082905560125490919061271090611ada90826138c0565b611ae49084613853565b611aee9190613880565b905081811115611afb5750805b6000611b078284613894565b9050611b3e6001600160a01b037f000000000000000000000000000000000000000000000000000000000000000016333088612e76565b8015611bc557604051632770a7eb60e21b81526001600160a01b037f00000000000000000000000000000000000000000000000000000000000000001690639dc29fac90611b929030908590600401613824565b600060405180830381600087803b158015611bac57600080fd5b505af1158015611bc0573d6000803e3d6000fd5b505050505b611bf96001600160a01b037f000000000000000000000000000000000000000000000000000000000000000016338461317c565b60408051868152602081018490526001600160a01b0388169133917fe912f4ccb4a26a55bf54b23b7e96fcac60ebc03b3e76ccdb6752b5d8abc7e8f991015b60405180910390a350505050506109ea6001600080516020613ab283398151915255565b600080611c67610cf3565b90506000611c73610c2c565b9050611c89612710670de0b6b3a7640000613853565b601054611c9890612710613894565b611ca28484613853565b611cac9190613853565b611cb69190613880565b9250505090565b611cc5612e5a565b60008111611ce55760405162461bcd60e51b8152600401610867906137f8565b6040516370a0823160e01b815230600482015281907f00000000000000000000000000000000000000000000000000000000000000006001600160a01b0316906370a0823190602401602060405180830381865afa158015611d4b573d6000803e3d6000fd5b505050506040513d601f19601f82011682018060405250810190611d6f91906138a7565b1015611dbd5760405162461bcd60e51b815260206004820152601e60248201527f50434f4c42555344506f6f6c3a20696e73756666696369656e7420434f4c00006044820152606401610867565b604051632770a7eb60e21b81526001600160a01b037f00000000000000000000000000000000000000000000000000000000000000001690639dc29fac90611e0b9033908590600401613824565b600060405180830381600087803b158015611e2557600080fd5b505af1158015611e39573d6000803e3d6000fd5b50611e739250506001600160a01b037f0000000000000000000000000000000000000000000000000000000000000000169050338361317c565b604080518281526020810183905233917fd36c28d8252079f996f11d24e2776fcdc1e0f4ceadff156993aff84cbfd37a7591016109cb565b6001600160a01b0381166000908152600260205260408120548103611ed257506000919050565b6000611edd8361306d565b90506000611ee9612ef4565b611ef285610be6565b611efc9190613853565b9050600061271060115484611f119190613853565b611f1b9190613880565b9050818111611f2f57506000949350505050565b6000611f39612ef4565b611f438484613894565b611f4d9190613880565b6040516370a0823160e01b81523060048201529091506000906001600160a01b037f000000000000000000000000000000000000000000000000000000000000000016906370a0823190602401610af4565b60006008544311611fb1575060065490565b600060085443611fc19190613894565b90506000611fd060065461329d565b90506000611fe682670de0b6b3a76400006138c0565b9050670de0b6b3a764000083825b811561205d5761200560028361397b565b60010361202c57670de0b6b3a764000061201f8285613853565b6120299190613880565b92505b670de0b6b3a764000061203f8280613853565b6120499190613880565b9050612056600283613880565b9150611ff4565b670de0b6b3a7640000836006546120749190613853565b61207e9190613880565b965050505050505090565b600061271060135483610c1c9190613853565b6120a4612e5a565b600081116120c45760405162461bcd60e51b8152600401610867906137f8565b6120f96001600160a01b037f000000000000000000000000000000000000000000000000000000000000000016333084612e76565b33600090815260026020526040812080548392906121189084906138c0565b909155505060405181815233907f880138561f4bdf4c4463046399b16f8186186ad3f21982105d09e65905fafb9b906020016109cb565b60008061215a612378565b905060006121666109ed565b905061217c612710670de0b6b3a7640000613853565b600d54611c9890612710613894565b612193612e5a565b6000811180156121b25750336000908152600260205260409020548111155b6121f65760405162461bcd60e51b81526020600482015260156024820152741410d3d3109554d1141bdbdb0e881a5b9d985b1a59605a1b6044820152606401610867565b3360009081526002602052604081208054839290612215908490613894565b9091555050336000908152600460205260409020541561225f57670de0b6b3a764000061224133610b51565b101561225f5760405162461bcd60e51b8152600401610867906138d3565b6122936001600160a01b037f000000000000000000000000000000000000000000000000000000000000000016338361317c565b60405181815233907fb1f9afa3fb91753d83c90b2584137de0980aedcb24565bb6be5a4a044394da51906020016109cb565b6122cd612e5a565b600081116122ed5760405162461bcd60e51b8152600401610867906137f8565b6123226001600160a01b037f000000000000000000000000000000000000000000000000000000000000000016333084612e76565b33600090815260016020526040812080548392906123419084906138c0565b909155505060405181815233907f92c5aa6131247b5349ebe4c0b884354154558790641067d72925ac93b11a7de5906020016109cb565b6040516370a0823160e01b815230600482015260009081906001600160a01b037f000000000000000000000000000000000000000000000000000000000000000016906370a0823190602401602060405180830381865afa1580156123e1573d6000803e3d6000fd5b505050506040513d601f19601f8201168201806040525081019061240591906138a7565b90506000670de0b6b3a764000061241a612a81565b600954610da29190613853565b6000670de0b6b3a764000061243b83610c3a565b1092915050565b6001600160a01b038116600090815260026020526040812054819061246684610be6565b91509150915091565b612477612e5a565b600081116124975760405162461bcd60e51b8152600401610867906137f8565b6040516370a0823160e01b815230600482015281907f00000000000000000000000000000000000000000000000000000000000000006001600160a01b0316906370a0823190602401602060405180830381865afa1580156124fd573d6000803e3d6000fd5b505050506040513d601f19601f8201168201806040525081019061252191906138a7565b101561256f5760405162461bcd60e51b815260206004820152601f60248201527f50434f4c42555344506f6f6c3a20696e73756666696369656e742042555344006044820152606401610867565b604051632770a7eb60e21b81526001600160a01b037f00000000000000000000000000000000000000000000000000000000000000001690639dc29fac906125bd9033908590600401613824565b600060405180830381600087803b1580156125d757600080fd5b505af11580156125eb573d6000803e3d6000fd5b506126259250506001600160a01b037f0000000000000000000000000000000000000000000000000000000000000000169050338361317c565b604080518281526020810183905233917f8041f45367f7ccefd38c06ae22c296ca3ad95cf10be3c54c81c11f849f105f2b91016109cb565b6001600160a01b038116600090815260016020526040812054819061246684610def565b612689612e5a565b6000811180156126a85750336000908152600160205260409020548111155b6126ec5760405162461bcd60e51b81526020600482015260156024820152741410d3d3109554d1141bdbdb0e881a5b9d985b1a59605a1b6044820152606401610867565b336000908152600160205260408120805483929061270b908490613894565b9091555050336000908152600360205260409020541561275557670de0b6b3a764000061273733610c3a565b10156127555760405162461bcd60e51b8152600401610867906138d3565b6127896001600160a01b037f000000000000000000000000000000000000000000000000000000000000000016338361317c565b60405181815233907f5f2ac0b7ca7309144e88ededc8fa236c0a7019bdc8c02ab6f6db5095752e7cdc906020016109cb565b6000610a05612ef4565b6127cd612e5a565b6127d56131b6565b600081116127f55760405162461bcd60e51b8152600401610867906137f8565b600554336000908152600360205260408120549091670de0b6b3a76400009161281e9190613853565b6128289190613880565b90506000818311612839578261283b565b815b9050600060055482670de0b6b3a76400006128569190613853565b6128609190613880565b33600090815260036020526040812080549293508392909190612884908490613894565b92505081905550806009600082825461289d9190613894565b909155506128d890506001600160a01b037f000000000000000000000000000000000000000000000000000000000000000016333085612e76565b60405182815233907fe2d5d60502594d615dd5827340647c7a7a88a014e9896fdef12f6458b60c0432906020015b60405180910390a25050506109ea6001600080516020613ab283398151915255565b612930612e5a565b612938613095565b600081116129585760405162461bcd60e51b8152600401610867906137f8565b600654336000908152600460205260408120549091670de0b6b3a7640000916129819190613853565b61298b9190613880565b9050600081831161299c578261299e565b815b9050600060065482670de0b6b3a76400006129b99190613853565b6129c39190613880565b336000908152600460205260408120805492935083929091906129e7908490613894565b9250508190555080600a6000828254612a009190613894565b90915550612a3b90506001600160a01b037f000000000000000000000000000000000000000000000000000000000000000016333085612e76565b60405182815233907fd79a2bc9877030756cd908acbb64634d527091be3edeed80cdea7ed4cf40be0590602001612906565b6000670de0b6b3a764000061243b83610b51565b60006007544311612a93575060055490565b600060075443612aa39190613894565b90506000612ab26005546133c6565b90506000612ac882670de0b6b3a76400006138c0565b9050670de0b6b3a764000083825b8115612b3f57612ae760028361397b565b600103612b0e57670de0b6b3a7640000612b018285613853565b612b0b9190613880565b92505b670de0b6b3a7640000612b218280613853565b612b2b9190613880565b9050612b38600283613880565b9150612ad6565b670de0b6b3a7640000836005546120749190613853565b612b5e612e5a565b612b666131b6565b670de0b6b3a7640000612b7882610c3a565b10612bc55760405162461bcd60e51b815260206004820152601e60248201527f50434f4c42555344506f6f6c3a206e6f74206c6971756964617461626c6500006044820152606401610867565b6005546001600160a01b0382166000908152600360205260408120549091670de0b6b3a764000091612bf79190613853565b612c019190613880565b9050600081118015612c2a57506001600160a01b03821660009081526001602052604090205415155b612c6d5760405162461bcd60e51b815260206004820152601460248201527350434f4c42555344506f6f6c3a206e6f20706f7360601b6044820152606401610867565b600554600090612c8583670de0b6b3a7640000613853565b612c8f9190613880565b6001600160a01b0384166000908152600360205260408120819055600980549293508392909190612cc1908490613894565b90915550506001600160a01b038316600090815260016020526040812080549082905560125490919061271090612cf890826138c0565b612d029084613853565b612d0c9190613880565b905081811115612d195750805b6000612d258284613894565b9050612d5c6001600160a01b037f000000000000000000000000000000000000000000000000000000000000000016333088612e76565b8015612de357604051632770a7eb60e21b81526001600160a01b037f00000000000000000000000000000000000000000000000000000000000000001690639dc29fac90612db09030908590600401613824565b600060405180830381600087803b158015612dca57600080fd5b505af1158015612dde573d6000803e3d6000fd5b505050505b612e176001600160a01b037f000000000000000000000000000000000000000000000000000000000000000016338461317c565b60408051868152602081018490526001600160a01b0388169133917f1df8781babb2ce0b72d80a0d4eb75715b3f84d14598b945effa23c678f239a539101611c38565b612e626134e5565b6002600080516020613ab283398151915255565b612e84848484846001613517565b612eac57604051635274afe760e01b81526001600160a01b0385166004820152602401610867565b50505050565b6001600160a01b038116600090815260016020526040812054808203612edb5750600092915050565b612ee3612ef4565b612eed9082613853565b9392505050565b6000806000612f01613589565b9150915081600003612f165760009250505090565b60007f00000000000000000000000000000000000000000000000000000000000000006001600160a01b031663313ce5676040518163ffffffff1660e01b8152600401602060405180830381865afa158015612f76573d6000803e3d6000fd5b505050506040513d601f19601f82011682018060405250810190612f9a919061398f565b905060007f00000000000000000000000000000000000000000000000000000000000000006001600160a01b031663313ce5676040518163ffffffff1660e01b8152600401602060405180830381865afa158015612ffc573d6000803e3d6000fd5b505050506040513d601f19601f82011682018060405250810190613020919061398f565b905061302d81600a613a96565b6130379085613853565b61304560ff841660086138c0565b61305090600a613aa5565b61305a9085613853565b6130649190613880565b94505050505090565b6001600160a01b038116600090815260026020526040812054610c26906305f5e10090613853565b60085443116130a057565b6000600854436130b09190613894565b905060006130bf60065461329d565b905060006130d582670de0b6b3a76400006138c0565b9050670de0b6b3a764000083825b811561314c576130f460028361397b565b60010361311b57670de0b6b3a764000061310e8285613853565b6131189190613880565b92505b670de0b6b3a764000061312e8280613853565b6131389190613880565b9050613145600283613880565b91506130e3565b670de0b6b3a7640000836006546131639190613853565b61316d9190613880565b60065550504360085550505050565b61318983838360016136a7565b6131b157604051635274afe760e01b81526001600160a01b0384166004820152602401610867565b505050565b60075443116131c157565b6000600754436131d19190613894565b905060006131e06005546133c6565b905060006131f682670de0b6b3a76400006138c0565b9050670de0b6b3a764000083825b811561326d5761321560028361397b565b60010361323c57670de0b6b3a764000061322f8285613853565b6132399190613880565b92505b670de0b6b3a764000061324f8280613853565b6132599190613880565b9050613266600283613880565b9150613204565b670de0b6b3a7640000836005546132849190613853565b61328e9190613880565b60055550504360075550505050565b6040516370a0823160e01b815230600482015260009081906001600160a01b037f000000000000000000000000000000000000000000000000000000000000000016906370a0823190602401602060405180830381865afa158015613306573d6000803e3d6000fd5b505050506040513d601f19601f8201168201806040525081019061332a91906138a7565b90506000670de0b6b3a764000084600a546133459190613853565b61334f9190613880565b9050600061335d82846138c0565b905060008115613389578161337a84670de0b6b3a7640000613853565b6133849190613880565b61338c565b60005b9050670de0b6b3a764000081600f546133a59190613853565b6133af9190613880565b600e546133bc91906138c0565b9695505050505050565b6040516370a0823160e01b815230600482015260009081906001600160a01b037f000000000000000000000000000000000000000000000000000000000000000016906370a0823190602401602060405180830381865afa15801561342f573d6000803e3d6000fd5b505050506040513d601f19601f8201168201806040525081019061345391906138a7565b90506000670de0b6b3a76400008460095461346e9190613853565b6134789190613880565b9050600061348682846138c0565b9050600081156134b257816134a384670de0b6b3a7640000613853565b6134ad9190613880565b6134b5565b60005b9050670de0b6b3a764000081600c546134ce9190613853565b6134d89190613880565b600b546133bc91906138c0565b600080516020613ab28339815191525460020361351557604051633ee5aeb560e01b815260040160405180910390fd5b565b6040516323b872dd60e01b60008181526001600160a01b038781166004528616602452604485905291602083606481808c5af19250600160005114831661357757838315161561356a573d6000823e3d81fd5b6000883b113d1516831692505b60405250600060605295945050505050565b6040516370a0823160e01b815230600482015260009081906001600160a01b037f000000000000000000000000000000000000000000000000000000000000000016906370a0823190602401602060405180830381865afa1580156135f2573d6000803e3d6000fd5b505050506040513d601f19601f8201168201806040525081019061361691906138a7565b6040516370a0823160e01b81523060048201529092507f00000000000000000000000000000000000000000000000000000000000000006001600160a01b0316906370a0823190602401602060405180830381865afa15801561367d573d6000803e3d6000fd5b505050506040513d601f19601f820116820180604052508101906136a191906138a7565b90509091565b60405163a9059cbb60e01b60008181526001600160a01b038616600452602485905291602083604481808b5af1925060016000511483166137015783831516156136f4573d6000823e3d81fd5b6000873b113d1516831692505b60405250949350505050565b80356001600160a01b038116811461372457600080fd5b919050565b60006020828403121561373b57600080fd5b612eed8261370d565b60006020828403121561375657600080fd5b5035919050565b60008060008060006080868803121561377557600080fd5b61377e8661370d565b945061378c6020870161370d565b935060408601359250606086013567ffffffffffffffff808211156137b057600080fd5b818801915088601f8301126137c457600080fd5b8135818111156137d357600080fd5b8960208285010111156137e557600080fd5b9699959850939650602001949392505050565b60208082526012908201527150434f4c42555344506f6f6c3a207a65726f60701b604082015260600190565b6001600160a01b03929092168252602082015260400190565b634e487b7160e01b600052601160045260246000fd5b8082028115828204841417610c2657610c2661383d565b634e487b7160e01b600052601260045260246000fd5b60008261388f5761388f61386a565b500490565b81810381811115610c2657610c2661383d565b6000602082840312156138b957600080fd5b5051919050565b80820180821115610c2657610c2661383d565b60208082526010908201526f2821a7a6212aa9a22837b7b61d10242360811b604082015260600190565b6001600160a01b03878116825260208201879052604082018690528416606082015260a06080820181905281018290526000828460c0840137600060c0848401015260c0601f19601f8501168301019050979650505050505050565b60006020828403121561396b57600080fd5b81518015158114612eed57600080fd5b60008261398a5761398a61386a565b500690565b6000602082840312156139a157600080fd5b815160ff81168114612eed57600080fd5b600181815b808511156139ed5781600019048211156139d3576139d361383d565b808516156139e057918102915b93841c93908002906139b7565b509250929050565b600082613a0457506001610c26565b81613a1157506000610c26565b8160018114613a275760028114613a3157613a4d565b6001915050610c26565b60ff841115613a4257613a4261383d565b50506001821b610c26565b5060208310610133831016604e8410600b8410161715613a70575081810a610c26565b613a7a83836139b2565b8060001904821115613a8e57613a8e61383d565b029392505050565b6000612eed60ff8416836139f5565b6000612eed83836139f556fe9b779b17422d0df92223018b32b4d1fa46e071723d6817e2486d003becc55f00a264697066735822122061406f9571c21791d3d3abb5631997fd6c18bd6e5c79eb53e7bcc1047a553fbd64736f6c6343000814003360a06040523480156200001157600080fd5b5060405162000cad38038062000cad83398101604081905262000034916200018b565b82826003620000448382620002a7565b506004620000538282620002a7565b5050506001600160a01b038116620000b15760405162461bcd60e51b815260206004820152601760248201527f52656365697074546f6b656e3a207a65726f20706f6f6c000000000000000000604482015260640160405180910390fd5b6001600160a01b031660805250620003739050565b634e487b7160e01b600052604160045260246000fd5b600082601f830112620000ee57600080fd5b81516001600160401b03808211156200010b576200010b620000c6565b604051601f8301601f19908116603f01168101908282118183101715620001365762000136620000c6565b816040528381526020925086838588010111156200015357600080fd5b600091505b8382101562000177578582018301518183018401529082019062000158565b600093810190920192909252949350505050565b600080600060608486031215620001a157600080fd5b83516001600160401b0380821115620001b957600080fd5b620001c787838801620000dc565b94506020860151915080821115620001de57600080fd5b50620001ed86828701620000dc565b604086015190935090506001600160a01b03811681146200020d57600080fd5b809150509250925092565b600181811c908216806200022d57607f821691505b6020821081036200024e57634e487b7160e01b600052602260045260246000fd5b50919050565b601f821115620002a257600081815260208120601f850160051c810160208610156200027d5750805b601f850160051c820191505b818110156200029e5782815560010162000289565b5050505b505050565b81516001600160401b03811115620002c357620002c3620000c6565b620002db81620002d4845462000218565b8462000254565b602080601f831160018114620003135760008415620002fa5750858301515b600019600386901b1c1916600185901b1785556200029e565b600085815260208120601f198616915b82811015620003445788860151825594840194600190910190840162000323565b5085821015620003635787850151600019600388901b60f8161c191681555b5050505050600190811b01905550565b6080516109116200039c6000396000818160ff015281816102ed015261038101526109116000f3fe608060405234801561001057600080fd5b50600436106100b45760003560e01c806340c10f191161007157806340c10f191461016d57806370a082311461018257806395d89b41146101ab5780639dc29fac146101b3578063a9059cbb146101c6578063dd62ed3e146101d957600080fd5b806306fdde03146100b9578063095ea7b3146100d757806316f0115b146100fa57806318160ddd1461013957806323b872dd1461014b578063313ce5671461015e575b600080fd5b6100c1610212565b6040516100ce919061075b565b60405180910390f35b6100ea6100e53660046107c5565b6102a4565b60405190151581526020016100ce565b6101217f000000000000000000000000000000000000000000000000000000000000000081565b6040516001600160a01b0390911681526020016100ce565b6002545b6040519081526020016100ce565b6100ea6101593660046107ef565b6102be565b604051601281526020016100ce565b61018061017b3660046107c5565b6102e2565b005b61013d61019036600461082b565b6001600160a01b031660009081526020819052604090205490565b6100c1610367565b6101806101c13660046107c5565b610376565b6100ea6101d43660046107c5565b6103f2565b61013d6101e736600461084d565b6001600160a01b03918216600090815260016020908152604080832093909416825291909152205490565b60606003805461022190610880565b80601f016020809104026020016040519081016040528092919081815260200182805461024d90610880565b801561029a5780601f1061026f5761010080835404028352916020019161029a565b820191906000526020600020905b81548152906001019060200180831161027d57829003601f168201915b5050505050905090565b6000336102b2818585610400565b60019150505b92915050565b6000336102cc858285610412565b6102d7858585610491565b506001949350505050565b336001600160a01b037f000000000000000000000000000000000000000000000000000000000000000016146103595760405162461bcd60e51b8152602060048201526017602482015276149958d95a5c1d151bdad95b8e881bdb9b1e481c1bdbdb604a1b60448201526064015b60405180910390fd5b61036382826104f0565b5050565b60606004805461022190610880565b336001600160a01b037f000000000000000000000000000000000000000000000000000000000000000016146103e85760405162461bcd60e51b8152602060048201526017602482015276149958d95a5c1d151bdad95b8e881bdb9b1e481c1bdbdb604a1b6044820152606401610350565b6103638282610526565b6000336102b2818585610491565b61040d838383600161055c565b505050565b6001600160a01b0383811660009081526001602090815260408083209386168352929052205460001981101561048b578181101561047c57604051637dc7a0d960e11b81526001600160a01b03841660048201526024810182905260448101839052606401610350565b61048b8484848403600061055c565b50505050565b6001600160a01b0383166104bb57604051634b637e8f60e11b815260006004820152602401610350565b6001600160a01b0382166104e55760405163ec442f0560e01b815260006004820152602401610350565b61040d838383610631565b6001600160a01b03821661051a5760405163ec442f0560e01b815260006004820152602401610350565b61036360008383610631565b6001600160a01b03821661055057604051634b637e8f60e11b815260006004820152602401610350565b61036382600083610631565b6001600160a01b0384166105865760405163e602df0560e01b815260006004820152602401610350565b6001600160a01b0383166105b057604051634a1406b160e11b815260006004820152602401610350565b6001600160a01b038085166000908152600160209081526040808320938716835292905220829055801561048b57826001600160a01b0316846001600160a01b03167f8c5be1e5ebec7d5bd14f71427d1e84f3dd0314c0f7b2291e5b200ac8c7c3b9258460405161062391815260200190565b60405180910390a350505050565b6001600160a01b03831661065c57806002600082825461065191906108ba565b909155506106ce9050565b6001600160a01b038316600090815260208190526040902054818110156106af5760405163391434e360e21b81526001600160a01b03851660048201526024810182905260448101839052606401610350565b6001600160a01b03841660009081526020819052604090209082900390555b6001600160a01b0382166106ea57600280548290039055610709565b6001600160a01b03821660009081526020819052604090208054820190555b816001600160a01b0316836001600160a01b03167fddf252ad1be2c89b69c2b068fc378daa952ba7f163c4a11628f55a4df523b3ef8360405161074e91815260200190565b60405180910390a3505050565b600060208083528351808285015260005b818110156107885785810183015185820160400152820161076c565b506000604082860101526040601f19601f8301168501019250505092915050565b80356001600160a01b03811681146107c057600080fd5b919050565b600080604083850312156107d857600080fd5b6107e1836107a9565b946020939093013593505050565b60008060006060848603121561080457600080fd5b61080d846107a9565b925061081b602085016107a9565b9150604084013590509250925092565b60006020828403121561083d57600080fd5b610846826107a9565b9392505050565b6000806040838503121561086057600080fd5b610869836107a9565b9150610877602084016107a9565b90509250929050565b600181811c9082168061089457607f821691505b6020821081036108b457634e487b7160e01b600052602260045260246000fd5b50919050565b808201808211156102b857634e487b7160e01b600052601160045260246000fdfea2646970667358221220bd936c1763fcc336c7d1c45f774d88ab7033a66070011519dbd3906d16d2ccb164736f6c63430008140033",
  "linkReferences": {},
  "deployedLinkReferences": {}
}