{
  "_format": "hh-sol-artifact-1",
  "contractName": "PCOLBUSDPool",
  "sourceName": "contracts/PCOLBUSDPool.sol",
  "abi": [
    {
      "inputs": [
        {
          "internalType": "address",
          "name": "_tokenCOL",
          "type": "address"
        },
        {
          "internalType": "address",
          "name": "_tokenBUSD",
          "type": "address"
        },
        {
          "internalType": "address",
          "name": "_governanceToken",
          "type": "address"
        }
      ],
      "stateMutability": "nonpayable",
      "type": "constructor"
    },
    {
      "inputs": [],
      "name": "ReentrancyGuardReentrantCall",
      "type": "error"
    },
    {
      "inputs": [
        {
          "internalType": "address",
          "name": "token",
          "type": "address"
        }
      ],
      "name": "SafeERC20FailedOperation",
      "type": "error"
    },
    {
      "anonymous": false,
      "inputs": [
        {
          "indexed": true,
          "internalType": "address",
          "name": "user",
          "type": "address"
        },
        {
          "indexed": false,
          "internalType": "uint256",
          "name": "amount",
          "type": "uint256"
        }
      ],
      "name": "BorrowBUSD",
      "type": "event"
    },
    {
      "anonymous": false,
      "inputs": [
        {
          "indexed": true,
          "internalType": "address",
          "name": "user",
          "type": "address"
        },
        {
          "indexed": false,
          "internalType": "uint256",
          "name": "amount",
          "type": "uint256"
        }
      ],
      "name": "BorrowCOL",
      "type": "event"
    },
    {
      "anonymous": false,
      "inputs": [
        {
          "indexed": true,
          "internalType": "address",
          "name": "user",
          "type": "address"
        },
        {
          "indexed": false,
          "internalType": "uint256",
          "name": "amount",
          "type": "uint256"
        },
        {
          "indexed": false,
          "internalType": "uint256",
          "name": "pbusdMinted",
          "type": "uint256"
        }
      ],
      "name": "DepositBUSD",
      "type": "event"
    },
    {
      "anonymous": false,
      "inputs": [
        {
          "indexed": true,
          "internalType": "address",
          "name": "user",
          "type": "address"
        },
        {
          "indexed": false,
          "internalType": "uint256",
          "name": "amount",
          "type": "uint256"
        },
        {
          "indexed": false,
          "internalType": "uint256",
          "name": "pcolMinted",
          "type": "uint256"
        }
      ],
      "name": "DepositCOL",
      "type": "event"
    },
    {
      "anonymous": false,
      "inputs": [
        {
          "indexed": true,
          "internalType": "address",
          "name": "user",
          "type": "address"
        },
        {
          "indexed": false,
          "internalType": "uint256",
          "name": "amount",
          "type": "uint256"
        }
      ],
      "name": "DepositCollateralPBUSD",
      "type": "event"
    },
    {
      "anonymous": false,
      "inputs": [
        {
          "indexed": true,
          "internalType": "address",
          "name": "user",
          "type": "address"
        },
        {
          "indexed": false,
          "internalType": "uint256",
          "name": "amount",
          "type": "uint256"
        }
      ],
      "name": "DepositCollateralPCOL",
      "type": "event"
    },
    {
      "anonymous": false,
      "inputs": [
        {
          "indexed": true,
          "internalType": "address",
          "name": "receiver",
          "type": "address"
        },
        {
          "indexed": true,
          "internalType": "address",
          "name": "asset",
          "type": "address"
        },
        {
          "indexed": false,
          "internalType": "uint256",
          "name": "amount",
          "type": "uint256"
        },
        {
          "indexed": false,
          "internalType": "uint256",
          "name": "fee",
          "type": "uint256"
        }
      ],
      "name": "FlashLoan",
      "type": "event"
    },
    {
      "anonymous": false,
      "inputs": [
        {
          "indexed": true,
          "internalType": "address",
          "name": "from_",
          "type": "address"
        },
        {
          "indexed": false,
          "internalType": "uint256",
          "name": "amount",
          "type": "uint256"
        }
      ],
      "name": "InjectBUSD",
      "type": "event"
    },
    {
      "anonymous": false,
      "inputs": [
        {
          "indexed": true,
          "internalType": "address",
          "name": "from_",
          "type": "address"
        },
        {
          "indexed": false,
          "internalType": "uint256",
          "name": "amount",
          "type": "uint256"
        }
      ],
      "name": "InjectCOL",
      "type": "event"
    },
    {
      "anonymous": false,
      "inputs": [
        {
          "indexed": true,
          "internalType": "address",
          "name": "liquidator",
          "type": "address"
        },
        {
          "indexed": true,
          "internalType": "address",
          "name": "user",
          "type": "address"
        },
        {
          "indexed": false,
          "internalType": "uint256",
          "name": "debtRepaid",
          "type": "uint256"
        },
        {
          "indexed": false,
          "internalType": "uint256",
          "name": "pcolReceived",
          "type": "uint256"
        }
      ],
      "name": "LiquidateBUSD",
      "type": "event"
    },
    {
      "anonymous": false,
      "inputs": [
        {
          "indexed": true,
          "internalType": "address",
          "name": "liquidator",
          "type": "address"
        },
        {
          "indexed": true,
          "internalType": "address",
          "name": "user",
          "type": "address"
        },
        {
          "indexed": false,
          "internalType": "uint256",
          "name": "debtRepaid",
          "type": "uint256"
        },
        {
          "indexed": false,
          "internalType": "uint256",
          "name": "pbusdReceived",
          "type": "uint256"
        }
      ],
      "name": "LiquidateCOL",
      "type": "event"
    },
    {
      "anonymous": false,
      "inputs": [
        {
          "indexed": true,
          "internalType": "address",
          "name": "user",
          "type": "address"
        },
        {
          "indexed": false,
          "internalType": "uint256",
          "name": "amount",
          "type": "uint256"
        }
      ],
      "name": "RepayBUSD",
      "type": "event"
    },
    {
      "anonymous": false,
      "inputs": [
        {
          "indexed": true,
          "internalType": "address",
          "name": "user",
          "type": "address"
        },
        {
          "indexed": false,
          "internalType": "uint256",
          "name": "amount",
          "type": "uint256"
        }
      ],
      "name": "RepayCOL",
      "type": "event"
    },
    {
      "anonymous": false,
      "inputs": [
        {
          "indexed": true,
          "internalType": "address",
          "name": "user",
          "type": "address"
        },
        {
          "indexed": false,
          "internalType": "uint256",
          "name": "amount",
          "type": "uint256"
        },
        {
          "indexed": false,
          "internalType": "uint256",
          "name": "pbusdBurned",
          "type": "uint256"
        }
      ],
      "name": "WithdrawBUSD",
      "type": "event"
    },
    {
      "anonymous": false,
      "inputs": [
        {
          "indexed": true,
          "internalType": "address",
          "name": "user",
          "type": "address"
        },
        {
          "indexed": false,
          "internalType": "uint256",
          "name": "amount",
          "type": "uint256"
        },
        {
          "indexed": false,
          "internalType": "uint256",
          "name": "pcolBurned",
          "type": "uint256"
        }
      ],
      "name": "WithdrawCOL",
      "type": "event"
    },
    {
      "anonymous": false,
      "inputs": [
        {
          "indexed": true,
          "internalType": "address",
          "name": "user",
          "type": "address"
        },
        {
          "indexed": false,
          "internalType": "uint256",
          "name": "amount",
          "type": "uint256"
        }
      ],
      "name": "WithdrawCollateralPBUSD",
      "type": "event"
    },
    {
      "anonymous": false,
      "inputs": [
        {
          "indexed": true,
          "internalType": "address",
          "name": "user",
          "type": "address"
        },
        {
          "indexed": false,
          "internalType": "uint256",
          "name": "amount",
          "type": "uint256"
        }
      ],
      "name": "WithdrawCollateralPCOL",
      "type": "event"
    },
    {
      "inputs": [],
      "name": "baseRatePerBlockBUSD",
      "outputs": [
        {
          "internalType": "uint256",
          "name": "",
          "type": "uint256"
        }
      ],
      "stateMutability": "view",
      "type": "function"
    },
    {
      "inputs": [],
      "name": "baseRatePerBlockCOL",
      "outputs": [
        {
          "internalType": "uint256",
          "name": "",
          "type": "uint256"
        }
      ],
      "stateMutability": "view",
      "type": "function"
    },
    {
      "inputs": [
        {
          "internalType": "uint256",
          "name": "amount",
          "type": "uint256"
        }
      ],
      "name": "borrowBUSD",
      "outputs": [],
      "stateMutability": "nonpayable",
      "type": "function"
    },
    {
      "inputs": [
        {
          "internalType": "uint256",
          "name": "amount",
          "type": "uint256"
        }
      ],
      "name": "borrowCOL",
      "outputs": [],
      "stateMutability": "nonpayable",
      "type": "function"
    },
    {
      "inputs": [],
      "name": "borrowIndexBUSD",
      "outputs": [
        {
          "internalType": "uint256",
          "name": "",
          "type": "uint256"
        }
      ],
      "stateMutability": "view",
      "type": "function"
    },
    {
      "inputs": [],
      "name": "borrowIndexCOL",
      "outputs": [
        {
          "internalType": "uint256",
          "name": "",
          "type": "uint256"
        }
      ],
      "stateMutability": "view",
      "type": "function"
    },
    {
      "inputs": [
        {
          "internalType": "uint256",
          "name": "amount",
          "type": "uint256"
        }
      ],
      "name": "depositBUSD",
      "outputs": [],
      "stateMutability": "nonpayable",
      "type": "function"
    },
    {
      "inputs": [
        {
          "internalType": "uint256",
          "name": "amount",
          "type": "uint256"
        }
      ],
      "name": "depositCOL",
      "outputs": [],
      "stateMutability": "nonpayable",
      "type": "function"
    },
    {
      "inputs": [
        {
          "internalType": "uint256",
          "name": "amount",
          "type": "uint256"
        }
      ],
      "name": "depositCollateralPBUSD",
      "outputs": [],
      "stateMutability": "nonpayable",
      "type": "function"
    },
    {
      "inputs": [
        {
          "internalType": "uint256",
          "name": "amount",
          "type": "uint256"
        }
      ],
      "name": "depositCollateralPCOL",
      "outputs": [],
      "stateMutability": "nonpayable",
      "type": "function"
    },
    {
      "inputs": [],
      "name": "depositFeeBps",
      "outputs": [
        {
          "internalType": "uint256",
          "name": "",
          "type": "uint256"
        }
      ],
      "stateMutability": "view",
      "type": "function"
    },
    {
      "inputs": [
        {
          "internalType": "address",
          "name": "receiverAddress",
          "type": "address"
        },
        {
          "internalType": "address",
          "name": "asset",
          "type": "address"
        },
        {
          "internalType": "uint256",
          "name": "amount",
          "type": "uint256"
        },
        {
          "internalType": "bytes",
          "name": "params",
          "type": "bytes"
        }
      ],
      "name": "flashLoan",
      "outputs": [],
      "stateMutability": "nonpayable",
      "type": "function"
    },
    {
      "inputs": [],
      "name": "flashLoanFeeBps",
      "outputs": [
        {
          "internalType": "uint256",
          "name": "",
          "type": "uint256"
        }
      ],
      "stateMutability": "view",
      "type": "function"
    },
    {
      "inputs": [],
      "name": "getBorrowAPYBUSD",
      "outputs": [
        {
          "internalType": "uint256",
          "name": "",
          "type": "uint256"
        }
      ],
      "stateMutability": "view",
      "type": "function"
    },
    {
      "inputs": [],
      "name": "getBorrowAPYCOL",
      "outputs": [
        {
          "internalType": "uint256",
          "name": "",
          "type": "uint256"
        }
      ],
      "stateMutability": "view",
      "type": "function"
    },
    {
      "inputs": [],
      "name": "getBorrowIndexBUSDView",
      "outputs": [
        {
          "internalType": "uint256",
          "name": "",
          "type": "uint256"
        }
      ],
      "stateMutability": "view",
      "type": "function"
    },
    {
      "inputs": [],
      "name": "getBorrowIndexCOLView",
      "outputs": [
        {
          "internalType": "uint256",
          "name": "",
          "type": "uint256"
        }
      ],
      "stateMutability": "view",
      "type": "function"
    },
    {
      "inputs": [],
      "name": "getBorrowRatePerBlockBUSD",
      "outputs": [
        {
          "internalType": "uint256",
          "name": "",
          "type": "uint256"
        }
      ],
      "stateMutability": "view",
      "type": "function"
    },
    {
      "inputs": [],
      "name": "getBorrowRatePerBlockCOL",
      "outputs": [
        {
          "internalType": "uint256",
          "name": "",
          "type": "uint256"
        }
      ],
      "stateMutability": "view",
      "type": "function"
    },
    {
      "inputs": [
        {
          "internalType": "address",
          "name": "user",
          "type": "address"
        }
      ],
      "name": "getCurrentDebtBUSD",
      "outputs": [
        {
          "internalType": "uint256",
          "name": "",
          "type": "uint256"
        }
      ],
      "stateMutability": "view",
      "type": "function"
    },
    {
      "inputs": [
        {
          "internalType": "address",
          "name": "user",
          "type": "address"
        }
      ],
      "name": "getCurrentDebtCOL",
      "outputs": [
        {
          "internalType": "uint256",
          "name": "",
          "type": "uint256"
        }
      ],
      "stateMutability": "view",
      "type": "function"
    },
    {
      "inputs": [
        {
          "internalType": "uint256",
          "name": "amount",
          "type": "uint256"
        }
      ],
      "name": "getDepositFeeBUSD",
      "outputs": [
        {
          "internalType": "uint256",
          "name": "",
          "type": "uint256"
        }
      ],
      "stateMutability": "view",
      "type": "function"
    },
    {
      "inputs": [
        {
          "internalType": "uint256",
          "name": "amount",
          "type": "uint256"
        }
      ],
      "name": "getDepositFeeCOL",
      "outputs": [
        {
          "internalType": "uint256",
          "name": "",
          "type": "uint256"
        }
      ],
      "stateMutability": "view",
      "type": "function"
    },
    {
      "inputs": [
        {
          "internalType": "uint256",
          "name": "amount",
          "type": "uint256"
        }
      ],
      "name": "getFlashLoanFee",
      "outputs": [
        {
          "internalType": "uint256",
          "name": "",
          "type": "uint256"
        }
      ],
      "stateMutability": "view",
      "type": "function"
    },
    {
      "inputs": [
        {
          "internalType": "address",
          "name": "user",
          "type": "address"
        }
      ],
      "name": "getHealthFactorPBUSD",
      "outputs": [
        {
          "internalType": "uint256",
          "name": "",
          "type": "uint256"
        }
      ],
      "stateMutability": "view",
      "type": "function"
    },
    {
      "inputs": [
        {
          "internalType": "address",
          "name": "user",
          "type": "address"
        }
      ],
      "name": "getHealthFactorPCOL",
      "outputs": [
        {
          "internalType": "uint256",
          "name": "",
          "type": "uint256"
        }
      ],
      "stateMutability": "view",
      "type": "function"
    },
    {
      "inputs": [
        {
          "internalType": "address",
          "name": "user",
          "type": "address"
        }
      ],
      "name": "getMaxBorrowBUSD",
      "outputs": [
        {
          "internalType": "uint256",
          "name": "",
          "type": "uint256"
        }
      ],
      "stateMutability": "view",
      "type": "function"
    },
    {
      "inputs": [
        {
          "internalType": "address",
          "name": "user",
          "type": "address"
        }
      ],
      "name": "getMaxBorrowCOL",
      "outputs": [
        {
          "internalType": "uint256",
          "name": "",
          "type": "uint256"
        }
      ],
      "stateMutability": "view",
      "type": "function"
    },
    {
      "inputs": [],
      "name": "getPriceBUSDIn8",
      "outputs": [
        {
          "internalType": "uint256",
          "name": "",
          "type": "uint256"
        }
      ],
      "stateMutability": "pure",
      "type": "function"
    },
    {
      "inputs": [],
      "name": "getPriceCOLIn8",
      "outputs": [
        {
          "internalType": "uint256",
          "name": "",
          "type": "uint256"
        }
      ],
      "stateMutability": "view",
      "type": "function"
    },
    {
      "inputs": [],
      "name": "getSupplyAPYBUSD",
      "outputs": [
        {
          "internalType": "uint256",
          "name": "",
          "type": "uint256"
        }
      ],
      "stateMutability": "view",
      "type": "function"
    },
    {
      "inputs": [],
      "name": "getSupplyAPYCOL",
      "outputs": [
        {
          "internalType": "uint256",
          "name": "",
          "type": "uint256"
        }
      ],
      "stateMutability": "view",
      "type": "function"
    },
    {
      "inputs": [
        {
          "internalType": "address",
          "name": "user",
          "type": "address"
        }
      ],
      "name": "getUserPositionPBUSD",
      "outputs": [
        {
          "internalType": "uint256",
          "name": "collateralPBUSD",
          "type": "uint256"
        },
        {
          "internalType": "uint256",
          "name": "debtCOL_",
          "type": "uint256"
        }
      ],
      "stateMutability": "view",
      "type": "function"
    },
    {
      "inputs": [
        {
          "internalType": "address",
          "name": "user",
          "type": "address"
        }
      ],
      "name": "getUserPositionPCOL",
      "outputs": [
        {
          "internalType": "uint256",
          "name": "collateralPCOL",
          "type": "uint256"
        },
        {
          "internalType": "uint256",
          "name": "debtBUSD_",
          "type": "uint256"
        }
      ],
      "stateMutability": "view",
      "type": "function"
    },
    {
      "inputs": [],
      "name": "getUtilizationBUSD",
      "outputs": [
        {
          "internalType": "uint256",
          "name": "",
          "type": "uint256"
        }
      ],
      "stateMutability": "view",
      "type": "function"
    },
    {
      "inputs": [],
      "name": "getUtilizationCOL",
      "outputs": [
        {
          "internalType": "uint256",
          "name": "",
          "type": "uint256"
        }
      ],
      "stateMutability": "view",
      "type": "function"
    },
    {
      "inputs": [],
      "name": "governanceToken",
      "outputs": [
        {
          "internalType": "contract GovernanceToken",
          "name": "",
          "type": "address"
        }
      ],
      "stateMutability": "view",
      "type": "function"
    },
    {
      "inputs": [],
      "name": "impactFeeMultiplierBps",
      "outputs": [
        {
          "internalType": "uint256",
          "name": "",
          "type": "uint256"
        }
      ],
      "stateMutability": "view",
      "type": "function"
    },
    {
      "inputs": [
        {
          "internalType": "uint256",
          "name": "amount",
          "type": "uint256"
        }
      ],
      "name": "injectBUSD",
      "outputs": [],
      "stateMutability": "nonpayable",
      "type": "function"
    },
    {
      "inputs": [
        {
          "internalType": "uint256",
          "name": "amount",
          "type": "uint256"
        }
      ],
      "name": "injectCOL",
      "outputs": [],
      "stateMutability": "nonpayable",
      "type": "function"
    },
    {
      "inputs": [
        {
          "internalType": "address",
          "name": "user",
          "type": "address"
        }
      ],
      "name": "isLiquidatablePBUSD",
      "outputs": [
        {
          "internalType": "bool",
          "name": "",
          "type": "bool"
        }
      ],
      "stateMutability": "view",
      "type": "function"
    },
    {
      "inputs": [
        {
          "internalType": "address",
          "name": "user",
          "type": "address"
        }
      ],
      "name": "isLiquidatablePCOL",
      "outputs": [
        {
          "internalType": "bool",
          "name": "",
          "type": "bool"
        }
      ],
      "stateMutability": "view",
      "type": "function"
    },
    {
      "inputs": [],
      "name": "lastBlockBUSD",
      "outputs": [
        {
          "internalType": "uint256",
          "name": "",
          "type": "uint256"
        }
      ],
      "stateMutability": "view",
      "type": "function"
    },
    {
      "inputs": [],
      "name": "lastBlockCOL",
      "outputs": [
        {
          "internalType": "uint256",
          "name": "",
          "type": "uint256"
        }
      ],
      "stateMutability": "view",
      "type": "function"
    },
    {
      "inputs": [
        {
          "internalType": "address",
          "name": "user",
          "type": "address"
        }
      ],
      "name": "liquidateBUSD",
      "outputs": [],
      "stateMutability": "nonpayable",
      "type": "function"
    },
    {
      "inputs": [
        {
          "internalType": "address",
          "name": "user",
          "type": "address"
        }
      ],
      "name": "liquidateCOL",
      "outputs": [],
      "stateMutability": "nonpayable",
      "type": "function"
    },
    {
      "inputs": [],
      "name": "liquidationBonus",
      "outputs": [
        {
          "internalType": "uint256",
          "name": "",
          "type": "uint256"
        }
      ],
      "stateMutability": "view",
      "type": "function"
    },
    {
      "inputs": [],
      "name": "liquidationThresholdPBUSD",
      "outputs": [
        {
          "internalType": "uint256",
          "name": "",
          "type": "uint256"
        }
      ],
      "stateMutability": "view",
      "type": "function"
    },
    {
      "inputs": [],
      "name": "liquidationThresholdPCOL",
      "outputs": [
        {
          "internalType": "uint256",
          "name": "",
          "type": "uint256"
        }
      ],
      "stateMutability": "view",
      "type": "function"
    },
    {
      "inputs": [
        {
          "internalType": "address",
          "name": "",
          "type": "address"
        }
      ],
      "name": "lockedPBUSD",
      "outputs": [
        {
          "internalType": "uint256",
          "name": "",
          "type": "uint256"
        }
      ],
      "stateMutability": "view",
      "type": "function"
    },
    {
      "inputs": [
        {
          "internalType": "address",
          "name": "",
          "type": "address"
        }
      ],
      "name": "lockedPCOL",
      "outputs": [
        {
          "internalType": "uint256",
          "name": "",
          "type": "uint256"
        }
      ],
      "stateMutability": "view",
      "type": "function"
    },
    {
      "inputs": [],
      "name": "optimalUtilizationBUSD",
      "outputs": [
        {
          "internalType": "uint256",
          "name": "",
          "type": "uint256"
        }
      ],
      "stateMutability": "view",
      "type": "function"
    },
    {
      "inputs": [],
      "name": "optimalUtilizationCOL",
      "outputs": [
        {
          "internalType": "uint256",
          "name": "",
          "type": "uint256"
        }
      ],
      "stateMutability": "view",
      "type": "function"
    },
    {
      "inputs": [],
      "name": "pbusdToken",
      "outputs": [
        {
          "internalType": "contract ReceiptToken",
          "name": "",
          "type": "address"
        }
      ],
      "stateMutability": "view",
      "type": "function"
    },
    {
      "inputs": [],
      "name": "pcolToken",
      "outputs": [
        {
          "internalType": "contract ReceiptToken",
          "name": "",
          "type": "address"
        }
      ],
      "stateMutability": "view",
      "type": "function"
    },
    {
      "inputs": [
        {
          "internalType": "uint256",
          "name": "amount",
          "type": "uint256"
        }
      ],
      "name": "repayBUSD",
      "outputs": [],
      "stateMutability": "nonpayable",
      "type": "function"
    },
    {
      "inputs": [
        {
          "internalType": "uint256",
          "name": "amount",
          "type": "uint256"
        }
      ],
      "name": "repayCOL",
      "outputs": [],
      "stateMutability": "nonpayable",
      "type": "function"
    },
    {
      "inputs": [],
      "name": "reserveFactorBpsBUSD",
      "outputs": [
        {
          "internalType": "uint256",
          "name": "",
          "type": "uint256"
        }
      ],
      "stateMutability": "view",
      "type": "function"
    },
    {
      "inputs": [],
      "name": "reserveFactorBpsCOL",
      "outputs": [
        {
          "internalType": "uint256",
          "name": "",
          "type": "uint256"
        }
      ],
      "stateMutability": "view",
      "type": "function"
    },
    {
      "inputs": [],
      "name": "rewardPerBorrow",
      "outputs": [
        {
          "internalType": "uint256",
          "name": "",
          "type": "uint256"
        }
      ],
      "stateMutability": "view",
      "type": "function"
    },
    {
      "inputs": [],
      "name": "rewardPerDeposit",
      "outputs": [
        {
          "internalType": "uint256",
          "name": "",
          "type": "uint256"
        }
      ],
      "stateMutability": "view",
      "type": "function"
    },
    {
      "inputs": [
        {
          "internalType": "address",
          "name": "",
          "type": "address"
        }
      ],
      "name": "scaledDebtBUSD",
      "outputs": [
        {
          "internalType": "uint256",
          "name": "",
          "type": "uint256"
        }
      ],
      "stateMutability": "view",
      "type": "function"
    },
    {
      "inputs": [
        {
          "internalType": "address",
          "name": "",
          "type": "address"
        }
      ],
      "name": "scaledDebtCOL",
      "outputs": [
        {
          "internalType": "uint256",
          "name": "",
          "type": "uint256"
        }
      ],
      "stateMutability": "view",
      "type": "function"
    },
    {
      "inputs": [],
      "name": "slope1PerBlockBUSD",
      "outputs": [
        {
          "internalType": "uint256",
          "name": "",
          "type": "uint256"
        }
      ],
      "stateMutability": "view",
      "type": "function"
    },
    {
      "inputs": [],
      "name": "slope1PerBlockCOL",
      "outputs": [
        {
          "internalType": "uint256",
          "name": "",
          "type": "uint256"
        }
      ],
      "stateMutability": "view",
      "type": "function"
    },
    {
      "inputs": [],
      "name": "slope2PerBlockBUSD",
      "outputs": [
        {
          "internalType": "uint256",
          "name": "",
          "type": "uint256"
        }
      ],
      "stateMutability": "view",
      "type": "function"
    },
    {
      "inputs": [],
      "name": "slope2PerBlockCOL",
      "outputs": [
        {
          "internalType": "uint256",
          "name": "",
          "type": "uint256"
        }
      ],
      "stateMutability": "view",
      "type": "function"
    },
    {
      "inputs": [],
      "name": "tokenBUSD",
      "outputs": [
        {
          "internalType": "address",
          "name": "",
          "type": "address"
        }
      ],
      "stateMutability": "view",
      "type": "function"
    },
    {
      "inputs": [],
      "name": "tokenCOL",
      "outputs": [
        {
          "internalType": "address",
          "name": "",
          "type": "address"
        }
      ],
      "stateMutability": "view",
      "type": "function"
    },
    {
      "inputs": [],
      "name": "totalScaledDebtBUSD",
      "outputs": [
        {
          "internalType": "uint256",
          "name": "",
          "type": "uint256"
        }
      ],
      "stateMutability": "view",
      "type": "function"
    },
    {
      "inputs": [],
      "name": "totalScaledDebtCOL",
      "outputs": [
        {
          "internalType": "uint256",
          "name": "",
          "type": "uint256"
        }
      ],
      "stateMutability": "view",
      "type": "function"
    },
    {
      "inputs": [
        {
          "internalType": "uint256",
          "name": "amount",
          "type": "uint256"
        }
      ],
      "name": "withdrawBUSD",
      "outputs": [],
      "stateMutability": "nonpayable",
      "type": "function"
    },
    {
      "inputs": [
        {
          "internalType": "uint256",
          "name": "amount",
          "type": "uint256"
        }
      ],
      "name": "withdrawCOL",
      "outputs": [],
      "stateMutability": "nonpayable",
      "type": "function"
    },
    {
      "inputs": [
        {
          "internalType": "uint256",
          "name": "amount",
          "type": "uint256"
        }
      ],
      "name": "withdrawCollateralPBUSD",
      "outputs": [],
      "stateMutability": "nonpayable",
      "type": "function"
    },
    {
      "inputs": [
        {
          "internalType": "uint256",
          "name": "amount",
          "type": "uint256"
        }
      ],
      "name": "withdrawCollateralPCOL",
      "outputs": [],
      "stateMutability": "nonpayable",
      "type": "function"
    }
  ],
  "bytecode": "0x610100604052670de0b6b3a7640000600555670de0b6b3a76400006006556402540be400600b5564174876e800600c556501d1a94a2000600d55670bcbce7f1b150000600e556402540be400600f55642e90edd0006010556502ba7def30006011556707a1fe16027700006012556103e86013556103e86014556119646015556121346016556103e8601755600960185560056019556002601a55670de0b6b3a7640000601b5567016345785d8a0000601c55348015620000bf57600080fd5b5060405162005cdf38038062005cdf833981016040819052620000e2916200035b565b60017f9b779b17422d0df92223018b32b4d1fa46e071723d6817e2486d003becc55f00556001600160a01b038316158015906200012757506001600160a01b03821615155b80156200013c57506001600160a01b03811615155b620001835760405162461bcd60e51b815260206004820152601260248201527150434f4c42555344506f6f6c3a207a65726f60701b60448201526064015b60405180910390fd5b816001600160a01b0316836001600160a01b031603620001e65760405162461bcd60e51b815260206004820152601860248201527f50434f4c42555344506f6f6c3a2073616d6520746f6b656e000000000000000060448201526064016200017a565b6001600160a01b03808416608052821660a0526040513090620002099062000330565b606080825260089082015267141bdbdb0810d3d360c21b608082015260a060208201819052600490820152631410d3d360e21b60c08201526001600160a01b03909116604082015260e001604051809103906000f08015801562000271573d6000803e3d6000fd5b506001600160a01b031660c05260405130906200028e9062000330565b606080825260099082015268141bdbdb08109554d160ba1b608082015260a0602082018190526005908201526414109554d160da1b60c08201526001600160a01b03909116604082015260e001604051809103906000f080158015620002f8573d6000803e3d6000fd5b506001600160a01b0390811660e052600080546001600160a01b031916929091169190911790555050436007819055600855620003a5565b610cad806200503283390190565b80516001600160a01b03811681146200035657600080fd5b919050565b6000806000606084860312156200037157600080fd5b6200037c846200033e565b92506200038c602085016200033e565b91506200039c604085016200033e565b90509250925092565b60805160a05160c05160e051614ae76200054b6000396000818161049b01528181611986015281816120fb01528181612172015281816127e8015281816129830152612d4a0152600081816104f501528181610a6a0152818161236d01528181612a1101528181612f790152818161357201526135e901526000818161051c01528181610bfc0152818161163d015281816117a00152818161189d015281816118dd01528181611ab401528181611b530152818161248501528181612b5e01528181612c7201528181612dc001528181612e69015281816130c70152818161352d015281816137a301528181613a3101528181613dab0152818161415c0152818161444501526145a401526000818161081001528181610981015281816109c101528181610c9201528181611106015281816111fa01528181611353015281816114b601528181611b18015281816120b601528181612295015281816123e30152818161251b01528181612ab30152818161320c01528181613839015281816139ab01528181613e4101528181613fb5015281816143bf01526145210152614ae76000f3fe608060405234801561001057600080fd5b50600436106104495760003560e01c80638617d01711610241578063cbe98e3b1161013b578063edc38cb4116100c3578063f96dae0a11610087578063f96dae0a146108f9578063f9efd0581461090c578063fd47fbf21461091f578063fdd73f4114610928578063ffdee98d1461093057600080fd5b8063edc38cb4146108af578063f205743f146108c2578063f4216de1146108ca578063f5908219146108d3578063f678e9d7146108e657600080fd5b8063e3709b461161010a578063e3709b461461086e578063e68a5c0414610877578063e9e582b91461088a578063ea4e2fd214610893578063ec81c8bb1461089c57600080fd5b8063cbe98e3b1461080b578063cc3bcaf314610832578063dceba45114610845578063e229ae9e1461086557600080fd5b8063a64bacc9116101c9578063b7be98ab1161018d578063b7be98ab146107bf578063ba08ff9b146107e7578063bf83df13146107f0578063c0656bd0146107f9578063c0c7347e1461080257600080fd5b8063a64bacc91461076e578063a74f0bfa14610781578063ab87982714610789578063ac72d9ac14610792578063adcd54a71461079c57600080fd5b80639f168ed8116102105780639f168ed814610724578063a178f59d1461072d578063a195785614610740578063a32447bc14610748578063a3e3d86e1461075b57600080fd5b80638617d017146106f65780638dd2a7cf146106ff5780638edb376c1461071257806399cea1ba1461071b57600080fd5b80633c5607a51161035257806357c9df26116102da578063737808f41161029e578063737808f4146106b65780637502237b146106bf578063752e6088146106d25780637b7c1f4c146106e557806382463417146106ee57600080fd5b806357c9df26146106765780635cffe9de1461067f57806368532c95146106925780636e2e4659146106a557806370f5407d146106ad57600080fd5b80634454a10e116103215780634454a10e146106175780634564987a1461062a5780634577848e1461063d57806346bfe1df146106505780634a1a3e9c1461066357600080fd5b80633c5607a5146105eb5780633c6ce203146105f45780633d60db5a146105fc57806343aff6451461060457600080fd5b806326bbb608116103d55780632beabef3116103a45780632beabef3146105ac5780632f5b0aba146105bf57806330e0c05e146105c8578063326770f2146105d057806338124fa4146105e357600080fd5b806326bbb6081461057157806328a88d231461057a5780632aa842b11461059a5780632b536beb146105a357600080fd5b80631c1318eb1161041c5780631c1318eb146104dd5780631f59d2b8146104f0578063213ef7f71461051757806321c616711461053e578063226f4b4e1461055e57600080fd5b806301fbcfde1461044e578063056fd0f714610481578063128078a71461049657806319b87fe8146104d5575b600080fd5b61046e61045c366004614709565b60036020526000908152604090205481565b6040519081526020015b60405180910390f35b61049461048f366004614724565b610943565b005b6104bd7f000000000000000000000000000000000000000000000000000000000000000081565b6040516001600160a01b039091168152602001610478565b61046e610b9e565b61046e6104eb366004614709565b610bbb565b6104bd7f000000000000000000000000000000000000000000000000000000000000000081565b6104bd7f000000000000000000000000000000000000000000000000000000000000000081565b61046e61054c366004614709565b60026020526000908152604090205481565b61046e61056c366004614709565b610e3c565b61046e601c5481565b61046e610588366004614709565b60016020526000908152604090205481565b61046e60125481565b61046e600e5481565b61046e6105ba366004614709565b610ed1565b61046e600b5481565b61046e610f17565b61046e6105de366004614709565b610f25565b61046e610f91565b61046e60145481565b61046e61104c565b61046e6110e4565b610494610612366004614724565b6111df565b61046e610625366004614709565b611270565b610494610638366004614724565b6112a6565b61049461064b366004614724565b61159a565b61049461065e366004614724565b611868565b610494610671366004614724565b611a99565b61046e601a5481565b61049461068d36600461473d565b611b0e565b6104946106a0366004614709565b611ed8565b61046e6121fc565b61046e60165481565b61046e600a5481565b6104946106cd366004614724565b612256565b61046e6106e0366004614709565b612444565b61046e60175481565b61046e6126b6565b61046e60135481565b61046e61070d366004614724565b6127a0565b61046e60075481565b61046e60115481565b61046e600d5481565b61049461073b366004614724565b6127b3565b61046e612866565b610494610756366004614724565b6128a2565b610494610769366004614724565b6129dc565b61046e61077c366004614724565b612a8f565b61046e612b3c565b61046e60195481565b6305f5e10061046e565b6107af6107aa366004614709565b612beb565b6040519015158152602001610478565b6107d26107cd366004614709565b612c06565b60408051928352602083019190915201610478565b61046e60065481565b61046e60055481565b61046e60095481565b61046e60185481565b6104bd7f000000000000000000000000000000000000000000000000000000000000000081565b610494610840366004614724565b612c33565b61046e610853366004614709565b60046020526000908152604090205481565b61046e60105481565b61046e60155481565b6107d2610885366004614709565b612e21565b61046e600c5481565b61046e601b5481565b61046e6108aa366004614724565b612e45565b6104946108bd366004614724565b612e98565b61046e612fd2565b61046e60085481565b6104946108e1366004614724565b612fdc565b6104946108f4366004614724565b613121565b6000546104bd906001600160a01b031681565b6107af61091a366004614709565b613266565b61046e600f5481565b61046e61327a565b61049461093e366004614709565b61334f565b61094b613653565b600081116109745760405162461bcd60e51b815260040161096b906147d8565b60405180910390fd5b6109a96001600160a01b037f00000000000000000000000000000000000000000000000000000000000000001633308461366f565b6040516370a0823160e01b81523060048201526000907f00000000000000000000000000000000000000000000000000000000000000006001600160a01b0316906370a0823190602401602060405180830381865afa158015610a10573d6000803e3d6000fd5b505050506040513d601f19601f82011682018060405250810190610a349190614804565b90506000610a4283836136ab565b90506000610a508285614833565b6040516340c10f1960e01b81529091506001600160a01b037f000000000000000000000000000000000000000000000000000000000000000016906340c10f1990610aa19033908590600401614846565b600060405180830381600087803b158015610abb57600080fd5b505af1158015610acf573d6000803e3d6000fd5b505050506000601b541115610b4557600054601b54604051634d24848760e11b81526001600160a01b0390921691639a49090e91610b1291339190600401614846565b600060405180830381600087803b158015610b2c57600080fd5b505af1158015610b40573d6000803e3d6000fd5b505050505b604080518581526020810183905233917f69cf9c0357203eb60830c3c768cc9adf5436120832d38c926997c4523adc816791015b60405180910390a2505050610b9b6001600080516020614a9283398151915255565b50565b600062201480610bac610f91565b610bb6919061485f565b905090565b6001600160a01b038116600090815260016020526040812054808203610be45750600092915050565b6040516370a0823160e01b81523060048201526000907f00000000000000000000000000000000000000000000000000000000000000006001600160a01b0316906370a0823190602401602060405180830381865afa158015610c4b573d6000803e3d6000fd5b505050506040513d601f19601f82011682018060405250810190610c6f9190614804565b6040516370a0823160e01b81523060048201529091506000906001600160a01b037f000000000000000000000000000000000000000000000000000000000000000016906370a0823190602401602060405180830381865afa158015610cd9573d6000803e3d6000fd5b505050506040513d601f19601f82011682018060405250810190610cfd9190614804565b905080600003610d1257506000949350505050565b6000610d1d86611270565b601554909150600081610d30868861485f565b610d3a919061485f565b90506000612710610d4b868661485f565b610d55919061485f565b9050808211610d6d5750600098975050505050505050565b6000610d7b6127108761485f565b610d85858a61485f565b610d8f9190614876565b610d998385614833565b610da3919061489f565b905086811115610db05750855b80600003610dc8575060009998505050505050505050565b6000815b80821015610e2d5760006002610de28385614876565b610ded906001614876565b610df7919061489f565b9050670de0b6b3a7640000610e0c8e83613761565b10610e1957809250610e27565b610e24600182614833565b91505b50610dcc565b509a9950505050505050505050565b600080610e4883610ed1565b905080600003610e5c575060001992915050565b6000610e66613985565b610e70908361485f565b90506000610e7d85613afe565b905081600003610e935750600019949350505050565b610e9f6127108361485f565b601654610eac908361485f565b610ebe90670de0b6b3a764000061485f565b610ec8919061489f565b95945050505050565b6000670de0b6b3a7640000610ee46126b6565b6001600160a01b038416600090815260046020526040902054610f07919061485f565b610f11919061489f565b92915050565b600062201480610bac61104c565b600080610f3183611270565b905080600003610f45575060001992915050565b6000610f556305f5e1008361485f565b90506000610f6285613b26565b905081600003610f785750600019949350505050565b610f846127108361485f565b601554610eac908361485f565b600080610f9c612b3c565b600e54909150808211610fde57670de0b6b3a764000082600c54610fc0919061485f565b610fca919061489f565b600b54610fd79190614876565b9250505090565b6000670de0b6b3a764000082600c54610ff7919061485f565b611001919061489f565b600b5461100e9190614876565b9050670de0b6b3a76400006110238385614833565b600d54611030919061485f565b61103a919061489f565b6110449082614876565b935050505090565b6000806110576110e4565b60125490915080821161109257670de0b6b3a76400008260105461107b919061485f565b611085919061489f565b600f54610fd79190614876565b6000670de0b6b3a7640000826010546110ab919061485f565b6110b5919061489f565b600f546110c29190614876565b9050670de0b6b3a76400006110d78385614833565b601154611030919061485f565b6040516370a0823160e01b815230600482015260009081906001600160a01b037f000000000000000000000000000000000000000000000000000000000000000016906370a0823190602401602060405180830381865afa15801561114d573d6000803e3d6000fd5b505050506040513d601f19601f820116820180604052508101906111719190614804565b90506000670de0b6b3a76400006111866126b6565b600a54611193919061485f565b61119d919061489f565b905060006111ab8284614876565b905080156111d557806111c683670de0b6b3a764000061485f565b6111d0919061489f565b611044565b6000935050505090565b6111e7613653565b8015611259576112226001600160a01b037f00000000000000000000000000000000000000000000000000000000000000001633308461366f565b60405181815233907ff5bea3313df51c464365b9b367fe48abc43cfc90f471ce003c4deca7d6c75710906020015b60405180910390a25b610b9b6001600080516020614a9283398151915255565b6000670de0b6b3a764000061128361327a565b6001600160a01b038416600090815260036020526040902054610f07919061485f565b6112ae613653565b6112b6613b61565b600081116112d65760405162461bcd60e51b815260040161096b906147d8565b3360009081526002602052604090205461133c5760405162461bcd60e51b815260206004820152602160248201527f50434f4c42555344506f6f6c3a206e6f20504255534420636f6c6c61746572616044820152601b60fa1b606482015260840161096b565b6040516370a0823160e01b815230600482015281907f00000000000000000000000000000000000000000000000000000000000000006001600160a01b0316906370a0823190602401602060405180830381865afa1580156113a2573d6000803e3d6000fd5b505050506040513d601f19601f820116820180604052508101906113c69190614804565b10156114145760405162461bcd60e51b815260206004820152601e60248201527f50434f4c42555344506f6f6c3a20696e73756666696369656e7420434f4c0000604482015260640161096b565b60065460009061142c83670de0b6b3a764000061485f565b611436919061489f565b3360009081526004602052604081208054929350839290919061145a908490614876565b9250508190555080600a60008282546114739190614876565b90915550670de0b6b3a7640000905061148b33610e3c565b10156114a95760405162461bcd60e51b815260040161096b906148b3565b6114dd6001600160a01b037f0000000000000000000000000000000000000000000000000000000000000000163384613c48565b601c541561154c57600054601c54604051634d24848760e11b81526001600160a01b0390921691639a49090e9161151991339190600401614846565b600060405180830381600087803b15801561153357600080fd5b505af1158015611547573d6000803e3d6000fd5b505050505b60405182815233907f64058ef3fd742704269a61c4d8e869ac215d70d1dfbd716d4746da00fa89a839906020015b60405180910390a250610b9b6001600080516020614a9283398151915255565b6115a2613653565b6115aa613c82565b600081116115ca5760405162461bcd60e51b815260040161096b906147d8565b336000908152600160205260409020546116265760405162461bcd60e51b815260206004820181905260248201527f50434f4c42555344506f6f6c3a206e6f2050434f4c20636f6c6c61746572616c604482015260640161096b565b6040516370a0823160e01b815230600482015281907f00000000000000000000000000000000000000000000000000000000000000006001600160a01b0316906370a0823190602401602060405180830381865afa15801561168c573d6000803e3d6000fd5b505050506040513d601f19601f820116820180604052508101906116b09190614804565b10156116fe5760405162461bcd60e51b815260206004820152601f60248201527f50434f4c42555344506f6f6c3a20696e73756666696369656e74204255534400604482015260640161096b565b60055460009061171683670de0b6b3a764000061485f565b611720919061489f565b33600090815260036020526040812080549293508392909190611744908490614876565b92505081905550806009600082825461175d9190614876565b90915550670de0b6b3a7640000905061177533610f25565b10156117935760405162461bcd60e51b815260040161096b906148b3565b6117c76001600160a01b037f0000000000000000000000000000000000000000000000000000000000000000163384613c48565b601c541561183657600054601c54604051634d24848760e11b81526001600160a01b0390921691639a49090e9161180391339190600401614846565b600060405180830381600087803b15801561181d57600080fd5b505af1158015611831573d6000803e3d6000fd5b505050505b60405182815233907ff6fc424a68d90f3f5323be41db315721f4b8843b3799ae1089007f88e21905519060200161157a565b611870613653565b600081116118905760405162461bcd60e51b815260040161096b906147d8565b6118c56001600160a01b037f00000000000000000000000000000000000000000000000000000000000000001633308461366f565b6040516370a0823160e01b81523060048201526000907f00000000000000000000000000000000000000000000000000000000000000006001600160a01b0316906370a0823190602401602060405180830381865afa15801561192c573d6000803e3d6000fd5b505050506040513d601f19601f820116820180604052508101906119509190614804565b9050600061195e83836136ab565b9050600061196c8285614833565b6040516340c10f1960e01b81529091506001600160a01b037f000000000000000000000000000000000000000000000000000000000000000016906340c10f19906119bd9033908590600401614846565b600060405180830381600087803b1580156119d757600080fd5b505af11580156119eb573d6000803e3d6000fd5b505050506000601b541115611a6157600054601b54604051634d24848760e11b81526001600160a01b0390921691639a49090e91611a2e91339190600401614846565b600060405180830381600087803b158015611a4857600080fd5b505af1158015611a5c573d6000803e3d6000fd5b505050505b604080518581526020810183905233917f8a2298614b2ccbbc8111d5698f4353b52ed97c61821ce6bb845f369a687cf4d39101610b79565b611aa1613653565b801561125957611adc6001600160a01b037f00000000000000000000000000000000000000000000000000000000000000001633308461366f565b60405181815233907f8d0bc5f167288abbd197c625a480d13be237511304ce7b9d244bd8ed6d039a9390602001611250565b611b16613653565b7f00000000000000000000000000000000000000000000000000000000000000006001600160a01b0316846001600160a01b03161480611b8757507f00000000000000000000000000000000000000000000000000000000000000006001600160a01b0316846001600160a01b0316145b611bd35760405162461bcd60e51b815260206004820152601960248201527f50434f4c42555344506f6f6c3a20756e737570706f7274656400000000000000604482015260640161096b565b600083118015611be65750601d5460ff16155b611c325760405162461bcd60e51b815260206004820152601b60248201527f50434f4c42555344506f6f6c3a20696e76616c696420666c6173680000000000604482015260640161096b565b600061271060185485611c45919061485f565b611c4f919061489f565b601d805460ff191660011790556040516370a0823160e01b81523060048201529091506000906001600160a01b038716906370a0823190602401602060405180830381865afa158015611ca6573d6000803e3d6000fd5b505050506040513d601f19601f82011682018060405250810190611cca9190614804565b9050611ce06001600160a01b0387168887613c48565b604051631b11d0ff60e01b81526001600160a01b03881690631b11d0ff90611d169089908990879033908b908b906004016148dd565b6020604051808303816000875af1158015611d35573d6000803e3d6000fd5b505050506040513d601f19601f82011682018060405250810190611d599190614939565b611da55760405162461bcd60e51b815260206004820152601a60248201527f50434f4c42555344506f6f6c3a20666c617368206661696c6564000000000000604482015260640161096b565b611daf8282614876565b6040516370a0823160e01b81523060048201526001600160a01b038816906370a0823190602401602060405180830381865afa158015611df3573d6000803e3d6000fd5b505050506040513d601f19601f82011682018060405250810190611e179190614804565b1015611e655760405162461bcd60e51b815260206004820152601860248201527f50434f4c42555344506f6f6c3a206e6f74207265706169640000000000000000604482015260640161096b565b601d805460ff1916905560408051868152602081018490526001600160a01b0388811692908a16917f0d7d75e01ab95780d3cd1c8ec0dd6c2ce19e3a20427eec8bf53283b6fb8e95f0910160405180910390a35050611ed16001600080516020614a9283398151915255565b5050505050565b611ee0613653565b611ee8613b61565b670de0b6b3a7640000611efa82610e3c565b10611f475760405162461bcd60e51b815260206004820152601e60248201527f50434f4c42555344506f6f6c3a206e6f74206c6971756964617461626c650000604482015260640161096b565b6006546001600160a01b0382166000908152600460205260408120549091670de0b6b3a764000091611f79919061485f565b611f83919061489f565b9050600081118015611fac57506001600160a01b03821660009081526002602052604090205415155b611fef5760405162461bcd60e51b815260206004820152601460248201527350434f4c42555344506f6f6c3a206e6f20706f7360601b604482015260640161096b565b60065460009061200783670de0b6b3a764000061485f565b612011919061489f565b6001600160a01b0384166000908152600460205260408120819055600a80549293508392909190612043908490614833565b90915550506001600160a01b03831660009081526002602052604081208054908290556017549091906127109061207a9082614876565b612084908461485f565b61208e919061489f565b90508181111561209b5750805b60006120a78284614833565b90506120de6001600160a01b037f00000000000000000000000000000000000000000000000000000000000000001633308861366f565b801561216557604051632770a7eb60e21b81526001600160a01b037f00000000000000000000000000000000000000000000000000000000000000001690639dc29fac906121329030908590600401614846565b600060405180830381600087803b15801561214c57600080fd5b505af1158015612160573d6000803e3d6000fd5b505050505b6121996001600160a01b037f0000000000000000000000000000000000000000000000000000000000000000163384613c48565b60408051868152602081018490526001600160a01b0388169133917fe912f4ccb4a26a55bf54b23b7e96fcac60ebc03b3e76ccdb6752b5d8abc7e8f991015b60405180910390a35050505050610b9b6001600080516020614a9283398151915255565b6000806122076110e4565b90506000612213610f17565b9050612229612710670de0b6b3a764000061485f565b60145461223890612710614833565b612242848461485f565b61224c919061485f565b610fd7919061489f565b61225e613653565b6000811161227e5760405162461bcd60e51b815260040161096b906147d8565b6040516370a0823160e01b815230600482015281907f00000000000000000000000000000000000000000000000000000000000000006001600160a01b0316906370a0823190602401602060405180830381865afa1580156122e4573d6000803e3d6000fd5b505050506040513d601f19601f820116820180604052508101906123089190614804565b10156123565760405162461bcd60e51b815260206004820152601e60248201527f50434f4c42555344506f6f6c3a20696e73756666696369656e7420434f4c0000604482015260640161096b565b604051632770a7eb60e21b81526001600160a01b037f00000000000000000000000000000000000000000000000000000000000000001690639dc29fac906123a49033908590600401614846565b600060405180830381600087803b1580156123be57600080fd5b505af11580156123d2573d6000803e3d6000fd5b5061240c9250506001600160a01b037f00000000000000000000000000000000000000000000000000000000000000001690503383613c48565b604080518281526020810183905233917fd36c28d8252079f996f11d24e2776fcdc1e0f4ceadff156993aff84cbfd37a759101611250565b6001600160a01b03811660009081526002602052604081205480820361246d5750600092915050565b6040516370a0823160e01b81523060048201526000907f00000000000000000000000000000000000000000000000000000000000000006001600160a01b0316906370a0823190602401602060405180830381865afa1580156124d4573d6000803e3d6000fd5b505050506040513d601f19601f820116820180604052508101906124f89190614804565b6040516370a0823160e01b81523060048201529091506000906001600160a01b037f000000000000000000000000000000000000000000000000000000000000000016906370a0823190602401602060405180830381865afa158015612562573d6000803e3d6000fd5b505050506040513d601f19601f820116820180604052508101906125869190614804565b90508160000361259b57506000949350505050565b60006125a686610ed1565b6016549091506000836125b9838861485f565b6125c3919061485f565b905060006127106125d4878661485f565b6125de919061485f565b90508082116125f65750600098975050505050505050565b60006126046127108861485f565b61260e858a61485f565b6126189190614876565b6126228385614833565b61262c919061489f565b9050858111156126395750845b80600003612651575060009998505050505050505050565b6000815b80821015610e2d576000600261266b8385614876565b612676906001614876565b612680919061489f565b9050670de0b6b3a76400006126958e83613d69565b106126a2578092506126b0565b6126ad600182614833565b91505b50612655565b600060085443116126c8575060065490565b6000600854436126d89190614833565b905060006126e7600654613f93565b905060006126fd82670de0b6b3a7640000614876565b9050670de0b6b3a764000083825b81156127745761271c60028361495b565b60010361274357670de0b6b3a7640000612736828561485f565b612740919061489f565b92505b670de0b6b3a7640000612756828061485f565b612760919061489f565b905061276d60028361489f565b915061270b565b670de0b6b3a76400008360065461278b919061485f565b612795919061489f565b965050505050505090565b600061271060185483610f07919061485f565b6127bb613653565b600081116127db5760405162461bcd60e51b815260040161096b906147d8565b6128106001600160a01b037f00000000000000000000000000000000000000000000000000000000000000001633308461366f565b336000908152600260205260408120805483929061282f908490614876565b909155505060405181815233907f880138561f4bdf4c4463046399b16f8186186ad3f21982105d09e65905fafb9b90602001611250565b600080612871612b3c565b9050600061287d610b9e565b9050612893612710670de0b6b3a764000061485f565b60135461223890612710614833565b6128aa613653565b6000811180156128c95750336000908152600260205260409020548111155b61290d5760405162461bcd60e51b81526020600482015260156024820152741410d3d3109554d1141bdbdb0e881a5b9d985b1a59605a1b604482015260640161096b565b336000908152600260205260408120805483929061292c908490614833565b9091555050336000908152600460205260409020541561297657670de0b6b3a764000061295833610e3c565b10156129765760405162461bcd60e51b815260040161096b906148b3565b6129aa6001600160a01b037f0000000000000000000000000000000000000000000000000000000000000000163383613c48565b60405181815233907fb1f9afa3fb91753d83c90b2584137de0980aedcb24565bb6be5a4a044394da5190602001611250565b6129e4613653565b60008111612a045760405162461bcd60e51b815260040161096b906147d8565b612a396001600160a01b037f00000000000000000000000000000000000000000000000000000000000000001633308461366f565b3360009081526001602052604081208054839290612a58908490614876565b909155505060405181815233907f92c5aa6131247b5349ebe4c0b884354154558790641067d72925ac93b11a7de590602001611250565b6040516370a0823160e01b8152306004820152600090819083906001600160a01b037f000000000000000000000000000000000000000000000000000000000000000016906370a08231906024015b602060405180830381865afa158015612afb573d6000803e3d6000fd5b505050506040513d601f19601f82011682018060405250810190612b1f9190614804565b612b299190614876565b9050612b3583826136ab565b9392505050565b6040516370a0823160e01b815230600482015260009081906001600160a01b037f000000000000000000000000000000000000000000000000000000000000000016906370a0823190602401602060405180830381865afa158015612ba5573d6000803e3d6000fd5b505050506040513d601f19601f82011682018060405250810190612bc99190614804565b90506000670de0b6b3a7640000612bde61327a565b600954611193919061485f565b6000670de0b6b3a7640000612bff83610f25565b1092915050565b6001600160a01b0381166000908152600260205260408120548190612c2a84610ed1565b91509150915091565b612c3b613653565b60008111612c5b5760405162461bcd60e51b815260040161096b906147d8565b6040516370a0823160e01b815230600482015281907f00000000000000000000000000000000000000000000000000000000000000006001600160a01b0316906370a0823190602401602060405180830381865afa158015612cc1573d6000803e3d6000fd5b505050506040513d601f19601f82011682018060405250810190612ce59190614804565b1015612d335760405162461bcd60e51b815260206004820152601f60248201527f50434f4c42555344506f6f6c3a20696e73756666696369656e74204255534400604482015260640161096b565b604051632770a7eb60e21b81526001600160a01b037f00000000000000000000000000000000000000000000000000000000000000001690639dc29fac90612d819033908590600401614846565b600060405180830381600087803b158015612d9b57600080fd5b505af1158015612daf573d6000803e3d6000fd5b50612de99250506001600160a01b037f00000000000000000000000000000000000000000000000000000000000000001690503383613c48565b604080518281526020810183905233917f8041f45367f7ccefd38c06ae22c296ca3ad95cf10be3c54c81c11f849f105f2b9101611250565b6001600160a01b0381166000908152600160205260408120548190612c2a84611270565b6040516370a0823160e01b8152306004820152600090819083906001600160a01b037f000000000000000000000000000000000000000000000000000000000000000016906370a0823190602401612ade565b612ea0613653565b600081118015612ebf5750336000908152600160205260409020548111155b612f035760405162461bcd60e51b81526020600482015260156024820152741410d3d3109554d1141bdbdb0e881a5b9d985b1a59605a1b604482015260640161096b565b3360009081526001602052604081208054839290612f22908490614833565b90915550503360009081526003602052604090205415612f6c57670de0b6b3a7640000612f4e33610f25565b1015612f6c5760405162461bcd60e51b815260040161096b906148b3565b612fa06001600160a01b037f0000000000000000000000000000000000000000000000000000000000000000163383613c48565b60405181815233907f5f2ac0b7ca7309144e88ededc8fa236c0a7019bdc8c02ab6f6db5095752e7cdc90602001611250565b6000610bb6613985565b612fe4613653565b612fec613c82565b6000811161300c5760405162461bcd60e51b815260040161096b906147d8565b600554336000908152600360205260408120549091670de0b6b3a764000091613035919061485f565b61303f919061489f565b905060008183116130505782613052565b815b9050600060055482670de0b6b3a764000061306d919061485f565b613077919061489f565b3360009081526003602052604081208054929350839290919061309b908490614833565b9250508190555080600960008282546130b49190614833565b909155506130ef90506001600160a01b037f00000000000000000000000000000000000000000000000000000000000000001633308561366f565b60405182815233907fe2d5d60502594d615dd5827340647c7a7a88a014e9896fdef12f6458b60c043290602001610b79565b613129613653565b613131613b61565b600081116131515760405162461bcd60e51b815260040161096b906147d8565b600654336000908152600460205260408120549091670de0b6b3a76400009161317a919061485f565b613184919061489f565b905060008183116131955782613197565b815b9050600060065482670de0b6b3a76400006131b2919061485f565b6131bc919061489f565b336000908152600460205260408120805492935083929091906131e0908490614833565b9250508190555080600a60008282546131f99190614833565b9091555061323490506001600160a01b037f00000000000000000000000000000000000000000000000000000000000000001633308561366f565b60405182815233907fd79a2bc9877030756cd908acbb64634d527091be3edeed80cdea7ed4cf40be0590602001610b79565b6000670de0b6b3a7640000612bff83610e3c565b6000600754431161328c575060055490565b60006007544361329c9190614833565b905060006132ab60055461413a565b905060006132c182670de0b6b3a7640000614876565b9050670de0b6b3a764000083825b8115613338576132e060028361495b565b60010361330757670de0b6b3a76400006132fa828561485f565b613304919061489f565b92505b670de0b6b3a764000061331a828061485f565b613324919061489f565b905061333160028361489f565b91506132cf565b670de0b6b3a76400008360055461278b919061485f565b613357613653565b61335f613c82565b670de0b6b3a764000061337182610f25565b106133be5760405162461bcd60e51b815260206004820152601e60248201527f50434f4c42555344506f6f6c3a206e6f74206c6971756964617461626c650000604482015260640161096b565b6005546001600160a01b0382166000908152600360205260408120549091670de0b6b3a7640000916133f0919061485f565b6133fa919061489f565b905060008111801561342357506001600160a01b03821660009081526001602052604090205415155b6134665760405162461bcd60e51b815260206004820152601460248201527350434f4c42555344506f6f6c3a206e6f20706f7360601b604482015260640161096b565b60055460009061347e83670de0b6b3a764000061485f565b613488919061489f565b6001600160a01b03841660009081526003602052604081208190556009805492935083929091906134ba908490614833565b90915550506001600160a01b0383166000908152600160205260408120805490829055601754909190612710906134f19082614876565b6134fb908461485f565b613505919061489f565b9050818111156135125750805b600061351e8284614833565b90506135556001600160a01b037f00000000000000000000000000000000000000000000000000000000000000001633308861366f565b80156135dc57604051632770a7eb60e21b81526001600160a01b037f00000000000000000000000000000000000000000000000000000000000000001690639dc29fac906135a99030908590600401614846565b600060405180830381600087803b1580156135c357600080fd5b505af11580156135d7573d6000803e3d6000fd5b505050505b6136106001600160a01b037f0000000000000000000000000000000000000000000000000000000000000000163384613c48565b60408051868152602081018490526001600160a01b0388169133917f1df8781babb2ce0b72d80a0d4eb75715b3f84d14598b945effa23c678f239a5391016121d8565b61365b6142b6565b6002600080516020614a9283398151915255565b61367d8484848460016142e8565b6136a557604051635274afe760e01b81526001600160a01b038516600482015260240161096b565b50505050565b6000806136b88484614833565b9050806000036136e557612710601954856136d3919061485f565b6136dd919061489f565b915050610f11565b826000816136fb87670de0b6b3a764000061485f565b613705919061489f565b905060006137128261435a565b9050613728612710670de0b6b3a764000061485f565b601a54613735838a61485f565b61373f919061485f565b613749919061489f565b945086851115613757578694505b5050505092915050565b6001600160a01b03821660009081526001602052604081205480820361378b576000915050610f11565b6040516370a0823160e01b81523060048201526000907f00000000000000000000000000000000000000000000000000000000000000006001600160a01b0316906370a0823190602401602060405180830381865afa1580156137f2573d6000803e3d6000fd5b505050506040513d601f19601f820116820180604052508101906138169190614804565b6040516370a0823160e01b81523060048201529091506000906001600160a01b037f000000000000000000000000000000000000000000000000000000000000000016906370a0823190602401602060405180830381865afa158015613880573d6000803e3d6000fd5b505050506040513d601f19601f820116820180604052508101906138a49190614804565b90508015806138b257508185115b156138c35760009350505050610f11565b6000856138cf88611270565b6138d99190614876565b9050806000036138f157600019945050505050610f11565b60006138fd8785614833565b9050600061390b82856143a9565b613915908761485f565b905060006139276305f5e1008561485f565b90508060000361394257600019975050505050505050610f11565b61394e6127108261485f565b60155461395b908461485f565b61396d90670de0b6b3a764000061485f565b613977919061489f565b9a9950505050505050505050565b60008060006139926144ff565b91509150816000036139a75760009250505090565b60007f00000000000000000000000000000000000000000000000000000000000000006001600160a01b031663313ce5676040518163ffffffff1660e01b8152600401602060405180830381865afa158015613a07573d6000803e3d6000fd5b505050506040513d601f19601f82011682018060405250810190613a2b919061496f565b905060007f00000000000000000000000000000000000000000000000000000000000000006001600160a01b031663313ce5676040518163ffffffff1660e01b8152600401602060405180830381865afa158015613a8d573d6000803e3d6000fd5b505050506040513d601f19601f82011682018060405250810190613ab1919061496f565b9050613abe81600a614a76565b613ac8908561485f565b613ad660ff84166008614876565b613ae190600a614a85565b613aeb908561485f565b613af5919061489f565b94505050505090565b6001600160a01b038116600090815260026020526040812054610f11906305f5e1009061485f565b6001600160a01b038116600090815260016020526040812054808203613b4f5750600092915050565b613b57613985565b612b35908261485f565b6008544311613b6c57565b600060085443613b7c9190614833565b90506000613b8b600654613f93565b90506000613ba182670de0b6b3a7640000614876565b9050670de0b6b3a764000083825b8115613c1857613bc060028361495b565b600103613be757670de0b6b3a7640000613bda828561485f565b613be4919061489f565b92505b670de0b6b3a7640000613bfa828061485f565b613c04919061489f565b9050613c1160028361489f565b9150613baf565b670de0b6b3a764000083600654613c2f919061485f565b613c39919061489f565b60065550504360085550505050565b613c55838383600161461d565b613c7d57604051635274afe760e01b81526001600160a01b038416600482015260240161096b565b505050565b6007544311613c8d57565b600060075443613c9d9190614833565b90506000613cac60055461413a565b90506000613cc282670de0b6b3a7640000614876565b9050670de0b6b3a764000083825b8115613d3957613ce160028361495b565b600103613d0857670de0b6b3a7640000613cfb828561485f565b613d05919061489f565b92505b670de0b6b3a7640000613d1b828061485f565b613d25919061489f565b9050613d3260028361489f565b9150613cd0565b670de0b6b3a764000083600554613d50919061485f565b613d5a919061489f565b60055550504360075550505050565b6001600160a01b038216600090815260026020526040812054808203613d93576000915050610f11565b6040516370a0823160e01b81523060048201526000907f00000000000000000000000000000000000000000000000000000000000000006001600160a01b0316906370a0823190602401602060405180830381865afa158015613dfa573d6000803e3d6000fd5b505050506040513d601f19601f82011682018060405250810190613e1e9190614804565b6040516370a0823160e01b81523060048201529091506000906001600160a01b037f000000000000000000000000000000000000000000000000000000000000000016906370a0823190602401602060405180830381865afa158015613e88573d6000803e3d6000fd5b505050506040513d601f19601f82011682018060405250810190613eac9190614804565b9050811580613eba57508085115b15613ecb5760009350505050610f11565b600085613ed788610ed1565b613ee19190614876565b905080600003613ef957600019945050505050610f11565b6000613f058784614833565b90506000613f1385836143a9565b90506000613f256305f5e1008861485f565b90506000613f33838661485f565b905080600003613f4f5760001998505050505050505050610f11565b613f5b6127108261485f565b601654613f68908461485f565b613f7a90670de0b6b3a764000061485f565b613f84919061489f565b9b9a5050505050505050505050565b6040516370a0823160e01b815230600482015260009081906001600160a01b037f000000000000000000000000000000000000000000000000000000000000000016906370a0823190602401602060405180830381865afa158015613ffc573d6000803e3d6000fd5b505050506040513d601f19601f820116820180604052508101906140209190614804565b90506000670de0b6b3a764000084600a5461403b919061485f565b614045919061489f565b905060006140538284614876565b90506000811561407f578161407084670de0b6b3a764000061485f565b61407a919061489f565b614082565b60005b6012549091508082116140c857670de0b6b3a7640000826010546140a6919061485f565b6140b0919061489f565b600f546140bd9190614876565b979650505050505050565b6000670de0b6b3a7640000826010546140e1919061485f565b6140eb919061489f565b600f546140f89190614876565b9050670de0b6b3a764000061410d8385614833565b60115461411a919061485f565b614124919061489f565b61412e9082614876565b98975050505050505050565b6040516370a0823160e01b815230600482015260009081906001600160a01b037f000000000000000000000000000000000000000000000000000000000000000016906370a0823190602401602060405180830381865afa1580156141a3573d6000803e3d6000fd5b505050506040513d601f19601f820116820180604052508101906141c79190614804565b90506000670de0b6b3a7640000846009546141e2919061485f565b6141ec919061489f565b905060006141fa8284614876565b905060008115614226578161421784670de0b6b3a764000061485f565b614221919061489f565b614229565b60005b600e5490915080821161426457670de0b6b3a764000082600c5461424d919061485f565b614257919061489f565b600b546140bd9190614876565b6000670de0b6b3a764000082600c5461427d919061485f565b614287919061489f565b600b546142949190614876565b9050670de0b6b3a76400006142a98385614833565b600d5461411a919061485f565b600080516020614a92833981519152546002036142e657604051633ee5aeb560e01b815260040160405180910390fd5b565b6040516323b872dd60e01b60008181526001600160a01b038781166004528616602452604485905291602083606481808c5af19250600160005114831661434857838315161561433b573d6000823e3d81fd5b6000883b113d1516831692505b60405250600060605295945050505050565b60008160000361436c57506000919050565b600061437783614683565b9050600061439161438c83633b9aca0061485f565b614683565b90506143a181633b9aca0061485f565b949350505050565b6000816000036143bb57506000610f11565b60007f00000000000000000000000000000000000000000000000000000000000000006001600160a01b031663313ce5676040518163ffffffff1660e01b8152600401602060405180830381865afa15801561441b573d6000803e3d6000fd5b505050506040513d601f19601f8201168201806040525081019061443f919061496f565b905060007f00000000000000000000000000000000000000000000000000000000000000006001600160a01b031663313ce5676040518163ffffffff1660e01b8152600401602060405180830381865afa1580156144a1573d6000803e3d6000fd5b505050506040513d601f19601f820116820180604052508101906144c5919061496f565b90506144d281600a614a76565b6144dc908561485f565b6144ea60ff84166008614876565b6144f590600a614a85565b610ebe908761485f565b6040516370a0823160e01b815230600482015260009081906001600160a01b037f000000000000000000000000000000000000000000000000000000000000000016906370a0823190602401602060405180830381865afa158015614568573d6000803e3d6000fd5b505050506040513d601f19601f8201168201806040525081019061458c9190614804565b6040516370a0823160e01b81523060048201529092507f00000000000000000000000000000000000000000000000000000000000000006001600160a01b0316906370a0823190602401602060405180830381865afa1580156145f3573d6000803e3d6000fd5b505050506040513d601f19601f820116820180604052508101906146179190614804565b90509091565b60405163a9059cbb60e01b60008181526001600160a01b038616600452602485905291602083604481808b5af19250600160005114831661467757838315161561466a573d6000823e3d81fd5b6000873b113d1516831692505b60405250949350505050565b60008160000361469557506000919050565b600060026146a4846001614876565b6146ae919061489f565b90508291505b818110156146e7579050806002816146cc818661489f565b6146d69190614876565b6146e0919061489f565b90506146b4565b50919050565b80356001600160a01b038116811461470457600080fd5b919050565b60006020828403121561471b57600080fd5b612b35826146ed565b60006020828403121561473657600080fd5b5035919050565b60008060008060006080868803121561475557600080fd5b61475e866146ed565b945061476c602087016146ed565b935060408601359250606086013567ffffffffffffffff8082111561479057600080fd5b818801915088601f8301126147a457600080fd5b8135818111156147b357600080fd5b8960208285010111156147c557600080fd5b9699959850939650602001949392505050565b60208082526012908201527150434f4c42555344506f6f6c3a207a65726f60701b604082015260600190565b60006020828403121561481657600080fd5b5051919050565b634e487b7160e01b600052601160045260246000fd5b81810381811115610f1157610f1161481d565b6001600160a01b03929092168252602082015260400190565b8082028115828204841417610f1157610f1161481d565b80820180821115610f1157610f1161481d565b634e487b7160e01b600052601260045260246000fd5b6000826148ae576148ae614889565b500490565b60208082526010908201526f2821a7a6212aa9a22837b7b61d10242360811b604082015260600190565b6001600160a01b03878116825260208201879052604082018690528416606082015260a06080820181905281018290526000828460c0840137600060c0848401015260c0601f19601f8501168301019050979650505050505050565b60006020828403121561494b57600080fd5b81518015158114612b3557600080fd5b60008261496a5761496a614889565b500690565b60006020828403121561498157600080fd5b815160ff81168114612b3557600080fd5b600181815b808511156149cd5781600019048211156149b3576149b361481d565b808516156149c057918102915b93841c9390800290614997565b509250929050565b6000826149e457506001610f11565b816149f157506000610f11565b8160018114614a075760028114614a1157614a2d565b6001915050610f11565b60ff841115614a2257614a2261481d565b50506001821b610f11565b5060208310610133831016604e8410600b8410161715614a50575081810a610f11565b614a5a8383614992565b8060001904821115614a6e57614a6e61481d565b029392505050565b6000612b3560ff8416836149d5565b6000612b3583836149d556fe9b779b17422d0df92223018b32b4d1fa46e071723d6817e2486d003becc55f00a264697066735822122086985a3c0eadbb48e83e988a5b972be2c818bc20e1078ccf21d93bf5545bd79664736f6c6343000814003360a06040523480156200001157600080fd5b5060405162000cad38038062000cad83398101604081905262000034916200018b565b82826003620000448382620002a7565b506004620000538282620002a7565b5050506001600160a01b038116620000b15760405162461bcd60e51b815260206004820152601760248201527f52656365697074546f6b656e3a207a65726f20706f6f6c000000000000000000604482015260640160405180910390fd5b6001600160a01b031660805250620003739050565b634e487b7160e01b600052604160045260246000fd5b600082601f830112620000ee57600080fd5b81516001600160401b03808211156200010b576200010b620000c6565b604051601f8301601f19908116603f01168101908282118183101715620001365762000136620000c6565b816040528381526020925086838588010111156200015357600080fd5b600091505b8382101562000177578582018301518183018401529082019062000158565b600093810190920192909252949350505050565b600080600060608486031215620001a157600080fd5b83516001600160401b0380821115620001b957600080fd5b620001c787838801620000dc565b94506020860151915080821115620001de57600080fd5b50620001ed86828701620000dc565b604086015190935090506001600160a01b03811681146200020d57600080fd5b809150509250925092565b600181811c908216806200022d57607f821691505b6020821081036200024e57634e487b7160e01b600052602260045260246000fd5b50919050565b601f821115620002a257600081815260208120601f850160051c810160208610156200027d5750805b601f850160051c820191505b818110156200029e5782815560010162000289565b5050505b505050565b81516001600160401b03811115620002c357620002c3620000c6565b620002db81620002d4845462000218565b8462000254565b602080601f831160018114620003135760008415620002fa5750858301515b600019600386901b1c1916600185901b1785556200029e565b600085815260208120601f198616915b82811015620003445788860151825594840194600190910190840162000323565b5085821015620003635787850151600019600388901b60f8161c191681555b5050505050600190811b01905550565b6080516109116200039c6000396000818160ff015281816102ed015261038101526109116000f3fe608060405234801561001057600080fd5b50600436106100b45760003560e01c806340c10f191161007157806340c10f191461016d57806370a082311461018257806395d89b41146101ab5780639dc29fac146101b3578063a9059cbb146101c6578063dd62ed3e146101d957600080fd5b806306fdde03146100b9578063095ea7b3146100d757806316f0115b146100fa57806318160ddd1461013957806323b872dd1461014b578063313ce5671461015e575b600080fd5b6100c1610212565b6040516100ce919061075b565b60405180910390f35b6100ea6100e53660046107c5565b6102a4565b60405190151581526020016100ce565b6101217f000000000000000000000000000000000000000000000000000000000000000081565b6040516001600160a01b0390911681526020016100ce565b6002545b6040519081526020016100ce565b6100ea6101593660046107ef565b6102be565b604051601281526020016100ce565b61018061017b3660046107c5565b6102e2565b005b61013d61019036600461082b565b6001600160a01b031660009081526020819052604090205490565b6100c1610367565b6101806101c13660046107c5565b610376565b6100ea6101d43660046107c5565b6103f2565b61013d6101e736600461084d565b6001600160a01b03918216600090815260016020908152604080832093909416825291909152205490565b60606003805461022190610880565b80601f016020809104026020016040519081016040528092919081815260200182805461024d90610880565b801561029a5780601f1061026f5761010080835404028352916020019161029a565b820191906000526020600020905b81548152906001019060200180831161027d57829003601f168201915b5050505050905090565b6000336102b2818585610400565b60019150505b92915050565b6000336102cc858285610412565b6102d7858585610491565b506001949350505050565b336001600160a01b037f000000000000000000000000000000000000000000000000000000000000000016146103595760405162461bcd60e51b8152602060048201526017602482015276149958d95a5c1d151bdad95b8e881bdb9b1e481c1bdbdb604a1b60448201526064015b60405180910390fd5b61036382826104f0565b5050565b60606004805461022190610880565b336001600160a01b037f000000000000000000000000000000000000000000000000000000000000000016146103e85760405162461bcd60e51b8152602060048201526017602482015276149958d95a5c1d151bdad95b8e881bdb9b1e481c1bdbdb604a1b6044820152606401610350565b6103638282610526565b6000336102b2818585610491565b61040d838383600161055c565b505050565b6001600160a01b0383811660009081526001602090815260408083209386168352929052205460001981101561048b578181101561047c57604051637dc7a0d960e11b81526001600160a01b03841660048201526024810182905260448101839052606401610350565b61048b8484848403600061055c565b50505050565b6001600160a01b0383166104bb57604051634b637e8f60e11b815260006004820152602401610350565b6001600160a01b0382166104e55760405163ec442f0560e01b815260006004820152602401610350565b61040d838383610631565b6001600160a01b03821661051a5760405163ec442f0560e01b815260006004820152602401610350565b61036360008383610631565b6001600160a01b03821661055057604051634b637e8f60e11b815260006004820152602401610350565b61036382600083610631565b6001600160a01b0384166105865760405163e602df0560e01b815260006004820152602401610350565b6001600160a01b0383166105b057604051634a1406b160e11b815260006004820152602401610350565b6001600160a01b038085166000908152600160209081526040808320938716835292905220829055801561048b57826001600160a01b0316846001600160a01b03167f8c5be1e5ebec7d5bd14f71427d1e84f3dd0314c0f7b2291e5b200ac8c7c3b9258460405161062391815260200190565b60405180910390a350505050565b6001600160a01b03831661065c57806002600082825461065191906108ba565b909155506106ce9050565b6001600160a01b038316600090815260208190526040902054818110156106af5760405163391434e360e21b81526001600160a01b03851660048201526024810182905260448101839052606401610350565b6001600160a01b03841660009081526020819052604090209082900390555b6001600160a01b0382166106ea57600280548290039055610709565b6001600160a01b03821660009081526020819052604090208054820190555b816001600160a01b0316836001600160a01b03167fddf252ad1be2c89b69c2b068fc378daa952ba7f163c4a11628f55a4df523b3ef8360405161074e91815260200190565b60405180910390a3505050565b600060208083528351808285015260005b818110156107885785810183015185820160400152820161076c565b506000604082860101526040601f19601f8301168501019250505092915050565b80356001600160a01b03811681146107c057600080fd5b919050565b600080604083850312156107d857600080fd5b6107e1836107a9565b946020939093013593505050565b60008060006060848603121561080457600080fd5b61080d846107a9565b925061081b602085016107a9565b9150604084013590509250925092565b60006020828403121561083d57600080fd5b610846826107a9565b9392505050565b6000806040838503121561086057600080fd5b610869836107a9565b9150610877602084016107a9565b90509250929050565b600181811c9082168061089457607f821691505b6020821081036108b457634e487b7160e01b600052602260045260246000fd5b50919050565b808201808211156102b857634e487b7160e01b600052601160045260246000fdfea2646970667358221220bd936c1763fcc336c7d1c45f774d88ab7033a66070011519dbd3906d16d2ccb164736f6c63430008140033",
  "linkReferences": {},
  "deployedLinkReferences": {}
}