{
  "_format": "hh-sol-artifact-1",
  "contractName": "PCOLBUSDPool",
  "sourceName": "contracts/PCOLBUSDPool.sol",
  "abi": [
    {
      "inputs": [
        {
          "internalType": "address",
          "name": "_tokenCOL",
          "type": "address"
        },
        {
          "internalType": "address",
          "name": "_tokenBUSD",
          "type": "address"
        },
        {
          "internalType": "address",
          "name": "_governanceToken",
          "type": "address"
        }
      ],
      "stateMutability": "nonpayable",
      "type": "constructor"
    },
    {
      "inputs": [],
      "name": "ReentrancyGuardReentrantCall",
      "type": "error"
    },
    {
      "inputs": [
        {
          "internalType": "address",
          "name": "token",
          "type": "address"
        }
      ],
      "name": "SafeERC20FailedOperation",
      "type": "error"
    },
    {
      "anonymous": false,
      "inputs": [
        {
          "indexed": true,
          "internalType": "address",
          "name": "user",
          "type": "address"
        },
        {
          "indexed": false,
          "internalType": "uint256",
          "name": "amount",
          "type": "uint256"
        }
      ],
      "name": "BorrowBUSD",
      "type": "event"
    },
    {
      "anonymous": false,
      "inputs": [
        {
          "indexed": true,
          "internalType": "address",
          "name": "user",
          "type": "address"
        },
        {
          "indexed": false,
          "internalType": "uint256",
          "name": "amount",
          "type": "uint256"
        }
      ],
      "name": "BorrowCOL",
      "type": "event"
    },
    {
      "anonymous": false,
      "inputs": [
        {
          "indexed": true,
          "internalType": "address",
          "name": "user",
          "type": "address"
        },
        {
          "indexed": false,
          "internalType": "uint256",
          "name": "amount",
          "type": "uint256"
        },
        {
          "indexed": false,
          "internalType": "uint256",
          "name": "pbusdMinted",
          "type": "uint256"
        }
      ],
      "name": "DepositBUSD",
      "type": "event"
    },
    {
      "anonymous": false,
      "inputs": [
        {
          "indexed": true,
          "internalType": "address",
          "name": "user",
          "type": "address"
        },
        {
          "indexed": false,
          "internalType": "uint256",
          "name": "amount",
          "type": "uint256"
        },
        {
          "indexed": false,
          "internalType": "uint256",
          "name": "pcolMinted",
          "type": "uint256"
        }
      ],
      "name": "DepositCOL",
      "type": "event"
    },
    {
      "anonymous": false,
      "inputs": [
        {
          "indexed": true,
          "internalType": "address",
          "name": "user",
          "type": "address"
        },
        {
          "indexed": false,
          "internalType": "uint256",
          "name": "amount",
          "type": "uint256"
        }
      ],
      "name": "DepositCollateralPBUSD",
      "type": "event"
    },
    {
      "anonymous": false,
      "inputs": [
        {
          "indexed": true,
          "internalType": "address",
          "name": "user",
          "type": "address"
        },
        {
          "indexed": false,
          "internalType": "uint256",
          "name": "amount",
          "type": "uint256"
        }
      ],
      "name": "DepositCollateralPCOL",
      "type": "event"
    },
    {
      "anonymous": false,
      "inputs": [
        {
          "indexed": true,
          "internalType": "address",
          "name": "receiver",
          "type": "address"
        },
        {
          "indexed": true,
          "internalType": "address",
          "name": "asset",
          "type": "address"
        },
        {
          "indexed": false,
          "internalType": "uint256",
          "name": "amount",
          "type": "uint256"
        },
        {
          "indexed": false,
          "internalType": "uint256",
          "name": "fee",
          "type": "uint256"
        }
      ],
      "name": "FlashLoan",
      "type": "event"
    },
    {
      "anonymous": false,
      "inputs": [
        {
          "indexed": true,
          "internalType": "address",
          "name": "liquidator",
          "type": "address"
        },
        {
          "indexed": true,
          "internalType": "address",
          "name": "user",
          "type": "address"
        },
        {
          "indexed": false,
          "internalType": "uint256",
          "name": "debtRepaid",
          "type": "uint256"
        },
        {
          "indexed": false,
          "internalType": "uint256",
          "name": "pcolReceived",
          "type": "uint256"
        }
      ],
      "name": "LiquidateBUSD",
      "type": "event"
    },
    {
      "anonymous": false,
      "inputs": [
        {
          "indexed": true,
          "internalType": "address",
          "name": "liquidator",
          "type": "address"
        },
        {
          "indexed": true,
          "internalType": "address",
          "name": "user",
          "type": "address"
        },
        {
          "indexed": false,
          "internalType": "uint256",
          "name": "debtRepaid",
          "type": "uint256"
        },
        {
          "indexed": false,
          "internalType": "uint256",
          "name": "pbusdReceived",
          "type": "uint256"
        }
      ],
      "name": "LiquidateCOL",
      "type": "event"
    },
    {
      "anonymous": false,
      "inputs": [
        {
          "indexed": true,
          "internalType": "address",
          "name": "user",
          "type": "address"
        },
        {
          "indexed": false,
          "internalType": "uint256",
          "name": "amount",
          "type": "uint256"
        }
      ],
      "name": "RepayBUSD",
      "type": "event"
    },
    {
      "anonymous": false,
      "inputs": [
        {
          "indexed": true,
          "internalType": "address",
          "name": "user",
          "type": "address"
        },
        {
          "indexed": false,
          "internalType": "uint256",
          "name": "amount",
          "type": "uint256"
        }
      ],
      "name": "RepayCOL",
      "type": "event"
    },
    {
      "anonymous": false,
      "inputs": [
        {
          "indexed": true,
          "internalType": "address",
          "name": "user",
          "type": "address"
        },
        {
          "indexed": false,
          "internalType": "uint256",
          "name": "amount",
          "type": "uint256"
        },
        {
          "indexed": false,
          "internalType": "uint256",
          "name": "pbusdBurned",
          "type": "uint256"
        }
      ],
      "name": "WithdrawBUSD",
      "type": "event"
    },
    {
      "anonymous": false,
      "inputs": [
        {
          "indexed": true,
          "internalType": "address",
          "name": "user",
          "type": "address"
        },
        {
          "indexed": false,
          "internalType": "uint256",
          "name": "amount",
          "type": "uint256"
        },
        {
          "indexed": false,
          "internalType": "uint256",
          "name": "pcolBurned",
          "type": "uint256"
        }
      ],
      "name": "WithdrawCOL",
      "type": "event"
    },
    {
      "anonymous": false,
      "inputs": [
        {
          "indexed": true,
          "internalType": "address",
          "name": "user",
          "type": "address"
        },
        {
          "indexed": false,
          "internalType": "uint256",
          "name": "amount",
          "type": "uint256"
        }
      ],
      "name": "WithdrawCollateralPBUSD",
      "type": "event"
    },
    {
      "anonymous": false,
      "inputs": [
        {
          "indexed": true,
          "internalType": "address",
          "name": "user",
          "type": "address"
        },
        {
          "indexed": false,
          "internalType": "uint256",
          "name": "amount",
          "type": "uint256"
        }
      ],
      "name": "WithdrawCollateralPCOL",
      "type": "event"
    },
    {
      "inputs": [],
      "name": "baseRatePerBlockBUSD",
      "outputs": [
        {
          "internalType": "uint256",
          "name": "",
          "type": "uint256"
        }
      ],
      "stateMutability": "view",
      "type": "function"
    },
    {
      "inputs": [],
      "name": "baseRatePerBlockCOL",
      "outputs": [
        {
          "internalType": "uint256",
          "name": "",
          "type": "uint256"
        }
      ],
      "stateMutability": "view",
      "type": "function"
    },
    {
      "inputs": [
        {
          "internalType": "uint256",
          "name": "amount",
          "type": "uint256"
        }
      ],
      "name": "borrowBUSD",
      "outputs": [],
      "stateMutability": "nonpayable",
      "type": "function"
    },
    {
      "inputs": [
        {
          "internalType": "uint256",
          "name": "amount",
          "type": "uint256"
        }
      ],
      "name": "borrowCOL",
      "outputs": [],
      "stateMutability": "nonpayable",
      "type": "function"
    },
    {
      "inputs": [],
      "name": "borrowIndexBUSD",
      "outputs": [
        {
          "internalType": "uint256",
          "name": "",
          "type": "uint256"
        }
      ],
      "stateMutability": "view",
      "type": "function"
    },
    {
      "inputs": [],
      "name": "borrowIndexCOL",
      "outputs": [
        {
          "internalType": "uint256",
          "name": "",
          "type": "uint256"
        }
      ],
      "stateMutability": "view",
      "type": "function"
    },
    {
      "inputs": [
        {
          "internalType": "uint256",
          "name": "amount",
          "type": "uint256"
        }
      ],
      "name": "depositBUSD",
      "outputs": [],
      "stateMutability": "nonpayable",
      "type": "function"
    },
    {
      "inputs": [
        {
          "internalType": "uint256",
          "name": "amount",
          "type": "uint256"
        }
      ],
      "name": "depositCOL",
      "outputs": [],
      "stateMutability": "nonpayable",
      "type": "function"
    },
    {
      "inputs": [
        {
          "internalType": "uint256",
          "name": "amount",
          "type": "uint256"
        }
      ],
      "name": "depositCollateralPBUSD",
      "outputs": [],
      "stateMutability": "nonpayable",
      "type": "function"
    },
    {
      "inputs": [
        {
          "internalType": "uint256",
          "name": "amount",
          "type": "uint256"
        }
      ],
      "name": "depositCollateralPCOL",
      "outputs": [],
      "stateMutability": "nonpayable",
      "type": "function"
    },
    {
      "inputs": [
        {
          "internalType": "address",
          "name": "receiverAddress",
          "type": "address"
        },
        {
          "internalType": "address",
          "name": "asset",
          "type": "address"
        },
        {
          "internalType": "uint256",
          "name": "amount",
          "type": "uint256"
        },
        {
          "internalType": "bytes",
          "name": "params",
          "type": "bytes"
        }
      ],
      "name": "flashLoan",
      "outputs": [],
      "stateMutability": "nonpayable",
      "type": "function"
    },
    {
      "inputs": [],
      "name": "flashLoanFeeBps",
      "outputs": [
        {
          "internalType": "uint256",
          "name": "",
          "type": "uint256"
        }
      ],
      "stateMutability": "view",
      "type": "function"
    },
    {
      "inputs": [],
      "name": "getBorrowAPYBUSD",
      "outputs": [
        {
          "internalType": "uint256",
          "name": "",
          "type": "uint256"
        }
      ],
      "stateMutability": "view",
      "type": "function"
    },
    {
      "inputs": [],
      "name": "getBorrowAPYCOL",
      "outputs": [
        {
          "internalType": "uint256",
          "name": "",
          "type": "uint256"
        }
      ],
      "stateMutability": "view",
      "type": "function"
    },
    {
      "inputs": [],
      "name": "getBorrowIndexBUSDView",
      "outputs": [
        {
          "internalType": "uint256",
          "name": "",
          "type": "uint256"
        }
      ],
      "stateMutability": "view",
      "type": "function"
    },
    {
      "inputs": [],
      "name": "getBorrowIndexCOLView",
      "outputs": [
        {
          "internalType": "uint256",
          "name": "",
          "type": "uint256"
        }
      ],
      "stateMutability": "view",
      "type": "function"
    },
    {
      "inputs": [],
      "name": "getBorrowRatePerBlockBUSD",
      "outputs": [
        {
          "internalType": "uint256",
          "name": "",
          "type": "uint256"
        }
      ],
      "stateMutability": "view",
      "type": "function"
    },
    {
      "inputs": [],
      "name": "getBorrowRatePerBlockCOL",
      "outputs": [
        {
          "internalType": "uint256",
          "name": "",
          "type": "uint256"
        }
      ],
      "stateMutability": "view",
      "type": "function"
    },
    {
      "inputs": [
        {
          "internalType": "address",
          "name": "user",
          "type": "address"
        }
      ],
      "name": "getCurrentDebtBUSD",
      "outputs": [
        {
          "internalType": "uint256",
          "name": "",
          "type": "uint256"
        }
      ],
      "stateMutability": "view",
      "type": "function"
    },
    {
      "inputs": [
        {
          "internalType": "address",
          "name": "user",
          "type": "address"
        }
      ],
      "name": "getCurrentDebtCOL",
      "outputs": [
        {
          "internalType": "uint256",
          "name": "",
          "type": "uint256"
        }
      ],
      "stateMutability": "view",
      "type": "function"
    },
    {
      "inputs": [
        {
          "internalType": "uint256",
          "name": "amount",
          "type": "uint256"
        }
      ],
      "name": "getFlashLoanFee",
      "outputs": [
        {
          "internalType": "uint256",
          "name": "",
          "type": "uint256"
        }
      ],
      "stateMutability": "view",
      "type": "function"
    },
    {
      "inputs": [
        {
          "internalType": "address",
          "name": "user",
          "type": "address"
        }
      ],
      "name": "getHealthFactorPBUSD",
      "outputs": [
        {
          "internalType": "uint256",
          "name": "",
          "type": "uint256"
        }
      ],
      "stateMutability": "view",
      "type": "function"
    },
    {
      "inputs": [
        {
          "internalType": "address",
          "name": "user",
          "type": "address"
        }
      ],
      "name": "getHealthFactorPCOL",
      "outputs": [
        {
          "internalType": "uint256",
          "name": "",
          "type": "uint256"
        }
      ],
      "stateMutability": "view",
      "type": "function"
    },
    {
      "inputs": [
        {
          "internalType": "address",
          "name": "user",
          "type": "address"
        }
      ],
      "name": "getMaxBorrowBUSD",
      "outputs": [
        {
          "internalType": "uint256",
          "name": "",
          "type": "uint256"
        }
      ],
      "stateMutability": "view",
      "type": "function"
    },
    {
      "inputs": [
        {
          "internalType": "address",
          "name": "user",
          "type": "address"
        }
      ],
      "name": "getMaxBorrowCOL",
      "outputs": [
        {
          "internalType": "uint256",
          "name": "",
          "type": "uint256"
        }
      ],
      "stateMutability": "view",
      "type": "function"
    },
    {
      "inputs": [],
      "name": "getPriceBUSDIn8",
      "outputs": [
        {
          "internalType": "uint256",
          "name": "",
          "type": "uint256"
        }
      ],
      "stateMutability": "pure",
      "type": "function"
    },
    {
      "inputs": [],
      "name": "getPriceCOLIn8",
      "outputs": [
        {
          "internalType": "uint256",
          "name": "",
          "type": "uint256"
        }
      ],
      "stateMutability": "view",
      "type": "function"
    },
    {
      "inputs": [],
      "name": "getSupplyAPYBUSD",
      "outputs": [
        {
          "internalType": "uint256",
          "name": "",
          "type": "uint256"
        }
      ],
      "stateMutability": "view",
      "type": "function"
    },
    {
      "inputs": [],
      "name": "getSupplyAPYCOL",
      "outputs": [
        {
          "internalType": "uint256",
          "name": "",
          "type": "uint256"
        }
      ],
      "stateMutability": "view",
      "type": "function"
    },
    {
      "inputs": [
        {
          "internalType": "address",
          "name": "user",
          "type": "address"
        }
      ],
      "name": "getUserPositionPBUSD",
      "outputs": [
        {
          "internalType": "uint256",
          "name": "collateralPBUSD",
          "type": "uint256"
        },
        {
          "internalType": "uint256",
          "name": "debtCOL_",
          "type": "uint256"
        }
      ],
      "stateMutability": "view",
      "type": "function"
    },
    {
      "inputs": [
        {
          "internalType": "address",
          "name": "user",
          "type": "address"
        }
      ],
      "name": "getUserPositionPCOL",
      "outputs": [
        {
          "internalType": "uint256",
          "name": "collateralPCOL",
          "type": "uint256"
        },
        {
          "internalType": "uint256",
          "name": "debtBUSD_",
          "type": "uint256"
        }
      ],
      "stateMutability": "view",
      "type": "function"
    },
    {
      "inputs": [],
      "name": "getUtilizationBUSD",
      "outputs": [
        {
          "internalType": "uint256",
          "name": "",
          "type": "uint256"
        }
      ],
      "stateMutability": "view",
      "type": "function"
    },
    {
      "inputs": [],
      "name": "getUtilizationCOL",
      "outputs": [
        {
          "internalType": "uint256",
          "name": "",
          "type": "uint256"
        }
      ],
      "stateMutability": "view",
      "type": "function"
    },
    {
      "inputs": [],
      "name": "governanceToken",
      "outputs": [
        {
          "internalType": "contract GovernanceToken",
          "name": "",
          "type": "address"
        }
      ],
      "stateMutability": "view",
      "type": "function"
    },
    {
      "inputs": [
        {
          "internalType": "address",
          "name": "user",
          "type": "address"
        }
      ],
      "name": "isLiquidatablePBUSD",
      "outputs": [
        {
          "internalType": "bool",
          "name": "",
          "type": "bool"
        }
      ],
      "stateMutability": "view",
      "type": "function"
    },
    {
      "inputs": [
        {
          "internalType": "address",
          "name": "user",
          "type": "address"
        }
      ],
      "name": "isLiquidatablePCOL",
      "outputs": [
        {
          "internalType": "bool",
          "name": "",
          "type": "bool"
        }
      ],
      "stateMutability": "view",
      "type": "function"
    },
    {
      "inputs": [],
      "name": "lastBlockBUSD",
      "outputs": [
        {
          "internalType": "uint256",
          "name": "",
          "type": "uint256"
        }
      ],
      "stateMutability": "view",
      "type": "function"
    },
    {
      "inputs": [],
      "name": "lastBlockCOL",
      "outputs": [
        {
          "internalType": "uint256",
          "name": "",
          "type": "uint256"
        }
      ],
      "stateMutability": "view",
      "type": "function"
    },
    {
      "inputs": [
        {
          "internalType": "address",
          "name": "user",
          "type": "address"
        }
      ],
      "name": "liquidateBUSD",
      "outputs": [],
      "stateMutability": "nonpayable",
      "type": "function"
    },
    {
      "inputs": [
        {
          "internalType": "address",
          "name": "user",
          "type": "address"
        }
      ],
      "name": "liquidateCOL",
      "outputs": [],
      "stateMutability": "nonpayable",
      "type": "function"
    },
    {
      "inputs": [],
      "name": "liquidationBonus",
      "outputs": [
        {
          "internalType": "uint256",
          "name": "",
          "type": "uint256"
        }
      ],
      "stateMutability": "view",
      "type": "function"
    },
    {
      "inputs": [],
      "name": "liquidationThreshold",
      "outputs": [
        {
          "internalType": "uint256",
          "name": "",
          "type": "uint256"
        }
      ],
      "stateMutability": "view",
      "type": "function"
    },
    {
      "inputs": [
        {
          "internalType": "address",
          "name": "",
          "type": "address"
        }
      ],
      "name": "lockedPBUSD",
      "outputs": [
        {
          "internalType": "uint256",
          "name": "",
          "type": "uint256"
        }
      ],
      "stateMutability": "view",
      "type": "function"
    },
    {
      "inputs": [
        {
          "internalType": "address",
          "name": "",
          "type": "address"
        }
      ],
      "name": "lockedPCOL",
      "outputs": [
        {
          "internalType": "uint256",
          "name": "",
          "type": "uint256"
        }
      ],
      "stateMutability": "view",
      "type": "function"
    },
    {
      "inputs": [],
      "name": "multiplierPerBlockBUSD",
      "outputs": [
        {
          "internalType": "uint256",
          "name": "",
          "type": "uint256"
        }
      ],
      "stateMutability": "view",
      "type": "function"
    },
    {
      "inputs": [],
      "name": "multiplierPerBlockCOL",
      "outputs": [
        {
          "internalType": "uint256",
          "name": "",
          "type": "uint256"
        }
      ],
      "stateMutability": "view",
      "type": "function"
    },
    {
      "inputs": [],
      "name": "pbusdToken",
      "outputs": [
        {
          "internalType": "contract ReceiptToken",
          "name": "",
          "type": "address"
        }
      ],
      "stateMutability": "view",
      "type": "function"
    },
    {
      "inputs": [],
      "name": "pcolToken",
      "outputs": [
        {
          "internalType": "contract ReceiptToken",
          "name": "",
          "type": "address"
        }
      ],
      "stateMutability": "view",
      "type": "function"
    },
    {
      "inputs": [
        {
          "internalType": "uint256",
          "name": "amount",
          "type": "uint256"
        }
      ],
      "name": "repayBUSD",
      "outputs": [],
      "stateMutability": "nonpayable",
      "type": "function"
    },
    {
      "inputs": [
        {
          "internalType": "uint256",
          "name": "amount",
          "type": "uint256"
        }
      ],
      "name": "repayCOL",
      "outputs": [],
      "stateMutability": "nonpayable",
      "type": "function"
    },
    {
      "inputs": [],
      "name": "reserveFactorBpsBUSD",
      "outputs": [
        {
          "internalType": "uint256",
          "name": "",
          "type": "uint256"
        }
      ],
      "stateMutability": "view",
      "type": "function"
    },
    {
      "inputs": [],
      "name": "reserveFactorBpsCOL",
      "outputs": [
        {
          "internalType": "uint256",
          "name": "",
          "type": "uint256"
        }
      ],
      "stateMutability": "view",
      "type": "function"
    },
    {
      "inputs": [],
      "name": "rewardPerBorrow",
      "outputs": [
        {
          "internalType": "uint256",
          "name": "",
          "type": "uint256"
        }
      ],
      "stateMutability": "view",
      "type": "function"
    },
    {
      "inputs": [],
      "name": "rewardPerDeposit",
      "outputs": [
        {
          "internalType": "uint256",
          "name": "",
          "type": "uint256"
        }
      ],
      "stateMutability": "view",
      "type": "function"
    },
    {
      "inputs": [
        {
          "internalType": "address",
          "name": "",
          "type": "address"
        }
      ],
      "name": "scaledDebtBUSD",
      "outputs": [
        {
          "internalType": "uint256",
          "name": "",
          "type": "uint256"
        }
      ],
      "stateMutability": "view",
      "type": "function"
    },
    {
      "inputs": [
        {
          "internalType": "address",
          "name": "",
          "type": "address"
        }
      ],
      "name": "scaledDebtCOL",
      "outputs": [
        {
          "internalType": "uint256",
          "name": "",
          "type": "uint256"
        }
      ],
      "stateMutability": "view",
      "type": "function"
    },
    {
      "inputs": [],
      "name": "tokenBUSD",
      "outputs": [
        {
          "internalType": "address",
          "name": "",
          "type": "address"
        }
      ],
      "stateMutability": "view",
      "type": "function"
    },
    {
      "inputs": [],
      "name": "tokenCOL",
      "outputs": [
        {
          "internalType": "address",
          "name": "",
          "type": "address"
        }
      ],
      "stateMutability": "view",
      "type": "function"
    },
    {
      "inputs": [],
      "name": "totalScaledDebtBUSD",
      "outputs": [
        {
          "internalType": "uint256",
          "name": "",
          "type": "uint256"
        }
      ],
      "stateMutability": "view",
      "type": "function"
    },
    {
      "inputs": [],
      "name": "totalScaledDebtCOL",
      "outputs": [
        {
          "internalType": "uint256",
          "name": "",
          "type": "uint256"
        }
      ],
      "stateMutability": "view",
      "type": "function"
    },
    {
      "inputs": [
        {
          "internalType": "uint256",
          "name": "amount",
          "type": "uint256"
        }
      ],
      "name": "withdrawBUSD",
      "outputs": [],
      "stateMutability": "nonpayable",
      "type": "function"
    },
    {
      "inputs": [
        {
          "internalType": "uint256",
          "name": "amount",
          "type": "uint256"
        }
      ],
      "name": "withdrawCOL",
      "outputs": [],
      "stateMutability": "nonpayable",
      "type": "function"
    },
    {
      "inputs": [
        {
          "internalType": "uint256",
          "name": "amount",
          "type": "uint256"
        }
      ],
      "name": "withdrawCollateralPBUSD",
      "outputs": [],
      "stateMutability": "nonpayable",
      "type": "function"
    },
    {
      "inputs": [
        {
          "internalType": "uint256",
          "name": "amount",
          "type": "uint256"
        }
      ],
      "name": "withdrawCollateralPCOL",
      "outputs": [],
      "stateMutability": "nonpayable",
      "type": "function"
    }
  ],
  "bytecode": "0x610100604052670de0b6b3a7640000600555670de0b6b3a764000060065566038d7ea4c68000600b5566b1a2bc2ec50000600c556103e8600d5566038d7ea4c68000600e5566b1a2bc2ec50000600f556103e8601055611f406011556103e86012556009601355670de0b6b3a764000060145567016345785d8a00006015553480156200008b57600080fd5b5060405162004e3d38038062004e3d833981016040819052620000ae9162000327565b60017f9b779b17422d0df92223018b32b4d1fa46e071723d6817e2486d003becc55f00556001600160a01b03831615801590620000f357506001600160a01b03821615155b80156200010857506001600160a01b03811615155b6200014f5760405162461bcd60e51b815260206004820152601260248201527150434f4c42555344506f6f6c3a207a65726f60701b60448201526064015b60405180910390fd5b816001600160a01b0316836001600160a01b031603620001b25760405162461bcd60e51b815260206004820152601860248201527f50434f4c42555344506f6f6c3a2073616d6520746f6b656e0000000000000000604482015260640162000146565b6001600160a01b03808416608052821660a0526040513090620001d590620002fc565b606080825260089082015267141bdbdb0810d3d360c21b608082015260a060208201819052600490820152631410d3d360e21b60c08201526001600160a01b03909116604082015260e001604051809103906000f0801580156200023d573d6000803e3d6000fd5b506001600160a01b031660c05260405130906200025a90620002fc565b606080825260099082015268141bdbdb08109554d160ba1b608082015260a0602082018190526005908201526414109554d160da1b60c08201526001600160a01b03909116604082015260e001604051809103906000f080158015620002c4573d6000803e3d6000fd5b506001600160a01b0390811660e052600080546001600160a01b03191692909116919091179055505043600781905560085562000371565b610cad806200419083390190565b80516001600160a01b03811681146200032257600080fd5b919050565b6000806000606084860312156200033d57600080fd5b62000348846200030a565b925062000358602085016200030a565b915062000368604085016200030a565b90509250925092565b60805160a05160c05160e051613ccd620004c3600039600081816104220152818161151d01528181611c1d01528181611c940152818161229701528181612432015261274c01526000818161047c015281816108bc01528181611e96015281816124c00152818161292801528181612f3f0152612fb60152600081816104a301528181610a4b0152818161127e015281816113e1015281816114de0152818161167501528181611fae0152818161256001528181612674015281816127c201528181612a7601528181612efa01528181613124015281816135ae01526137f401526000818161073a0152818161087d01528181610ae101528181610dd701528181610f94015281816110f70152818161163a01528181611bd801528181611dbe01528181611f0c0152818161204401528181612bd90152818161309e0152818161348501526137710152613ccd6000f3fe608060405234801561001057600080fd5b50600436106103d05760003560e01c806382463417116101ff578063c0c7347e1161011a578063f4216de1116100ad578063f9efd0581161007c578063f9efd05814610808578063fd47fbf21461081b578063fdd73f4114610824578063ffdee98d1461082c57600080fd5b8063f4216de1146107c6578063f5908219146107cf578063f678e9d7146107e2578063f96dae0a146107f557600080fd5b8063e68a5c04116100e9578063e68a5c041461078f578063ea4e2fd2146107a2578063edc38cb4146107ab578063f205743f146107be57600080fd5b8063c0c7347e1461072c578063cbe98e3b14610735578063cc3bcaf31461075c578063dceba4511461076f57600080fd5b8063a74f0bfa11610192578063b7be98ab11610161578063b7be98ab146106e9578063ba08ff9b14610711578063bf83df131461071a578063c0656bd01461072357600080fd5b8063a74f0bfa146106ab578063a7a24830146106b3578063ac72d9ac146106bc578063adcd54a7146106c657600080fd5b8063a178f59d116101ce578063a178f59d1461066a578063a19578561461067d578063a32447bc14610685578063a3e3d86e1461069857600080fd5b8063824634171461063d5780638617d017146106455780638dd2a7cf1461064e5780638edb376c1461066157600080fd5b80633c5607a5116102ef5780635cffe9de11610282578063737808f411610251578063737808f4146106055780637502237b1461060e578063752e6088146106215780637b7c1f4c1461063457600080fd5b80635cffe9de146105ce578063643e3fd3146105e157806368532c95146105ea5780636e2e4659146105fd57600080fd5b80634454a10e116102be5780634454a10e146105825780634564987a146105955780634577848e146105a857806346bfe1df146105bb57600080fd5b80633c5607a5146105605780633c6ce203146105695780633d60db5a146105715780634031234c1461057957600080fd5b8063226f4b4e116103675780632f5b0aba116103365780632f5b0aba1461053457806330e0c05e1461053d578063326770f21461054557806338124fa41461055857600080fd5b8063226f4b4e146104e557806326bbb608146104f857806328a88d23146105015780632beabef31461052157600080fd5b80631c1318eb116103a35780631c1318eb146104645780631f59d2b814610477578063213ef7f71461049e57806321c61671146104c557600080fd5b806301fbcfde146103d5578063056fd0f714610408578063128078a71461041d57806319b87fe81461045c575b600080fd5b6103f56103e33660046138ef565b60036020526000908152604090205481565b6040519081526020015b60405180910390f35b61041b61041636600461390a565b61083f565b005b6104447f000000000000000000000000000000000000000000000000000000000000000081565b6040516001600160a01b0390911681526020016103ff565b6103f56109ed565b6103f56104723660046138ef565b610a0a565b6104447f000000000000000000000000000000000000000000000000000000000000000081565b6104447f000000000000000000000000000000000000000000000000000000000000000081565b6103f56104d33660046138ef565b60026020526000908152604090205481565b6103f56104f33660046138ef565b610c13565b6103f560155481565b6103f561050f3660046138ef565b60016020526000908152604090205481565b6103f561052f3660046138ef565b610ca8565b6103f5600b5481565b6103f5610cee565b6103f56105533660046138ef565b610cfc565b6103f5610d39565b6103f560105481565b6103f5610d7a565b6103f5610db5565b6103f560115481565b6103f56105903660046138ef565b610eb1565b61041b6105a336600461390a565b610ee7565b61041b6105b636600461390a565b6111db565b61041b6105c936600461390a565b6114a9565b61041b6105dc366004613923565b611630565b6103f5600f5481565b61041b6105f83660046138ef565b6119fa565b6103f5611d1e565b6103f5600a5481565b61041b61061c36600461390a565b611d7f565b6103f561062f3660046138ef565b611f6d565b6103f560125481565b6103f5612165565b6103f5600d5481565b6103f561065c36600461390a565b61224f565b6103f560075481565b61041b61067836600461390a565b612262565b6103f5612315565b61041b61069336600461390a565b612351565b61041b6106a636600461390a565b61248b565b6103f561253e565b6103f5600c5481565b6305f5e1006103f5565b6106d96106d43660046138ef565b6125ed565b60405190151581526020016103ff565b6106fc6106f73660046138ef565b612608565b604080519283526020830191909152016103ff565b6103f560065481565b6103f560055481565b6103f560095481565b6103f560135481565b6104447f000000000000000000000000000000000000000000000000000000000000000081565b61041b61076a36600461390a565b612635565b6103f561077d3660046138ef565b60046020526000908152604090205481565b6106fc61079d3660046138ef565b612823565b6103f560145481565b61041b6107b936600461390a565b612847565b6103f5612981565b6103f560085481565b61041b6107dd36600461390a565b61298b565b61041b6107f036600461390a565b612aee565b600054610444906001600160a01b031681565b6106d96108163660046138ef565b612c33565b6103f5600e5481565b6103f5612c47565b61041b61083a3660046138ef565b612d1c565b610847613020565b600081116108705760405162461bcd60e51b8152600401610867906139be565b60405180910390fd5b6108a56001600160a01b037f00000000000000000000000000000000000000000000000000000000000000001633308461303c565b6040516340c10f1960e01b81526001600160a01b037f000000000000000000000000000000000000000000000000000000000000000016906340c10f19906108f390339085906004016139ea565b600060405180830381600087803b15801561090d57600080fd5b505af1158015610921573d6000803e3d6000fd5b505050506000601454111561099757600054601454604051634d24848760e11b81526001600160a01b0390921691639a49090e91610964913391906004016139ea565b600060405180830381600087803b15801561097e57600080fd5b505af1158015610992573d6000803e3d6000fd5b505050505b604080518281526020810183905233917f69cf9c0357203eb60830c3c768cc9adf5436120832d38c926997c4523adc816791015b60405180910390a26109ea6001600080516020613c7883398151915255565b50565b6000622014806109fb610d39565b610a059190613a19565b905090565b6001600160a01b038116600090815260016020526040812054808203610a335750600092915050565b6040516370a0823160e01b81523060048201526000907f00000000000000000000000000000000000000000000000000000000000000006001600160a01b0316906370a0823190602401602060405180830381865afa158015610a9a573d6000803e3d6000fd5b505050506040513d601f19601f82011682018060405250810190610abe9190613a30565b6040516370a0823160e01b81523060048201529091506000906001600160a01b037f000000000000000000000000000000000000000000000000000000000000000016906370a0823190602401602060405180830381865afa158015610b28573d6000803e3d6000fd5b505050506040513d601f19601f82011682018060405250810190610b4c9190613a30565b905080600003610b6157506000949350505050565b6000610b6c86610eb1565b601154909150600081610b7f8688613a19565b610b899190613a19565b90506000612710610b9a8686613a19565b610ba49190613a19565b9050808211610bbc5750600098975050505050505050565b6000610bca61271087613a19565b610bd4858a613a19565b610bde9190613a49565b610be88385613a5c565b610bf29190613a85565b905086808211610c025781610c04565b805b9b9a5050505050505050505050565b600080610c1f83610ca8565b905080600003610c33575060001992915050565b6000610c3d613078565b610c479083613a19565b90506000610c54856131f1565b905081600003610c6a5750600019949350505050565b610c7661271083613a19565b601154610c839083613a19565b610c9590670de0b6b3a7640000613a19565b610c9f9190613a85565b95945050505050565b6000670de0b6b3a7640000610cbb612165565b6001600160a01b038416600090815260046020526040902054610cde9190613a19565b610ce89190613a85565b92915050565b6000622014806109fb610d7a565b600080610d0883610eb1565b905080600003610d1c575060001992915050565b6000610d2c6305f5e10083613a19565b90506000610c5485613219565b600080610d4461253e565b9050670de0b6b3a764000081600c54610d5d9190613a19565b610d679190613a85565b600b54610d749190613a49565b91505090565b600080610d85610db5565b9050670de0b6b3a764000081600f54610d9e9190613a19565b610da89190613a85565b600e54610d749190613a49565b6040516370a0823160e01b815230600482015260009081906001600160a01b037f000000000000000000000000000000000000000000000000000000000000000016906370a0823190602401602060405180830381865afa158015610e1e573d6000803e3d6000fd5b505050506040513d601f19601f82011682018060405250810190610e429190613a30565b90506000670de0b6b3a7640000610e57612165565b600a54610e649190613a19565b610e6e9190613a85565b90506000610e7c8284613a49565b90508015610ea65780610e9783670de0b6b3a7640000613a19565b610ea19190613a85565b610ea9565b60005b935050505090565b6000670de0b6b3a7640000610ec4612c47565b6001600160a01b038416600090815260036020526040902054610cde9190613a19565b610eef613020565b610ef761325b565b60008111610f175760405162461bcd60e51b8152600401610867906139be565b33600090815260026020526040902054610f7d5760405162461bcd60e51b815260206004820152602160248201527f50434f4c42555344506f6f6c3a206e6f20504255534420636f6c6c61746572616044820152601b60fa1b6064820152608401610867565b6040516370a0823160e01b815230600482015281907f00000000000000000000000000000000000000000000000000000000000000006001600160a01b0316906370a0823190602401602060405180830381865afa158015610fe3573d6000803e3d6000fd5b505050506040513d601f19601f820116820180604052508101906110079190613a30565b10156110555760405162461bcd60e51b815260206004820152601e60248201527f50434f4c42555344506f6f6c3a20696e73756666696369656e7420434f4c00006044820152606401610867565b60065460009061106d83670de0b6b3a7640000613a19565b6110779190613a85565b3360009081526004602052604081208054929350839290919061109b908490613a49565b9250508190555080600a60008282546110b49190613a49565b90915550670de0b6b3a764000090506110cc33610c13565b10156110ea5760405162461bcd60e51b815260040161086790613a99565b61111e6001600160a01b037f0000000000000000000000000000000000000000000000000000000000000000163384613342565b6015541561118d57600054601554604051634d24848760e11b81526001600160a01b0390921691639a49090e9161115a913391906004016139ea565b600060405180830381600087803b15801561117457600080fd5b505af1158015611188573d6000803e3d6000fd5b505050505b60405182815233907f64058ef3fd742704269a61c4d8e869ac215d70d1dfbd716d4746da00fa89a839906020015b60405180910390a2506109ea6001600080516020613c7883398151915255565b6111e3613020565b6111eb61337c565b6000811161120b5760405162461bcd60e51b8152600401610867906139be565b336000908152600160205260409020546112675760405162461bcd60e51b815260206004820181905260248201527f50434f4c42555344506f6f6c3a206e6f2050434f4c20636f6c6c61746572616c6044820152606401610867565b6040516370a0823160e01b815230600482015281907f00000000000000000000000000000000000000000000000000000000000000006001600160a01b0316906370a0823190602401602060405180830381865afa1580156112cd573d6000803e3d6000fd5b505050506040513d601f19601f820116820180604052508101906112f19190613a30565b101561133f5760405162461bcd60e51b815260206004820152601f60248201527f50434f4c42555344506f6f6c3a20696e73756666696369656e742042555344006044820152606401610867565b60055460009061135783670de0b6b3a7640000613a19565b6113619190613a85565b33600090815260036020526040812080549293508392909190611385908490613a49565b92505081905550806009600082825461139e9190613a49565b90915550670de0b6b3a764000090506113b633610cfc565b10156113d45760405162461bcd60e51b815260040161086790613a99565b6114086001600160a01b037f0000000000000000000000000000000000000000000000000000000000000000163384613342565b6015541561147757600054601554604051634d24848760e11b81526001600160a01b0390921691639a49090e91611444913391906004016139ea565b600060405180830381600087803b15801561145e57600080fd5b505af1158015611472573d6000803e3d6000fd5b505050505b60405182815233907ff6fc424a68d90f3f5323be41db315721f4b8843b3799ae1089007f88e2190551906020016111bb565b6114b1613020565b600081116114d15760405162461bcd60e51b8152600401610867906139be565b6115066001600160a01b037f00000000000000000000000000000000000000000000000000000000000000001633308461303c565b6040516340c10f1960e01b81526001600160a01b037f000000000000000000000000000000000000000000000000000000000000000016906340c10f199061155490339085906004016139ea565b600060405180830381600087803b15801561156e57600080fd5b505af1158015611582573d6000803e3d6000fd5b50505050600060145411156115f857600054601454604051634d24848760e11b81526001600160a01b0390921691639a49090e916115c5913391906004016139ea565b600060405180830381600087803b1580156115df57600080fd5b505af11580156115f3573d6000803e3d6000fd5b505050505b604080518281526020810183905233917f8a2298614b2ccbbc8111d5698f4353b52ed97c61821ce6bb845f369a687cf4d391016109cb565b611638613020565b7f00000000000000000000000000000000000000000000000000000000000000006001600160a01b0316846001600160a01b031614806116a957507f00000000000000000000000000000000000000000000000000000000000000006001600160a01b0316846001600160a01b0316145b6116f55760405162461bcd60e51b815260206004820152601960248201527f50434f4c42555344506f6f6c3a20756e737570706f72746564000000000000006044820152606401610867565b600083118015611708575060165460ff16155b6117545760405162461bcd60e51b815260206004820152601b60248201527f50434f4c42555344506f6f6c3a20696e76616c696420666c61736800000000006044820152606401610867565b6000612710601354856117679190613a19565b6117719190613a85565b6016805460ff191660011790556040516370a0823160e01b81523060048201529091506000906001600160a01b038716906370a0823190602401602060405180830381865afa1580156117c8573d6000803e3d6000fd5b505050506040513d601f19601f820116820180604052508101906117ec9190613a30565b90506118026001600160a01b0387168887613342565b604051631b11d0ff60e01b81526001600160a01b03881690631b11d0ff906118389089908990879033908b908b90600401613ac3565b6020604051808303816000875af1158015611857573d6000803e3d6000fd5b505050506040513d601f19601f8201168201806040525081019061187b9190613b1f565b6118c75760405162461bcd60e51b815260206004820152601a60248201527f50434f4c42555344506f6f6c3a20666c617368206661696c65640000000000006044820152606401610867565b6118d18282613a49565b6040516370a0823160e01b81523060048201526001600160a01b038816906370a0823190602401602060405180830381865afa158015611915573d6000803e3d6000fd5b505050506040513d601f19601f820116820180604052508101906119399190613a30565b10156119875760405162461bcd60e51b815260206004820152601860248201527f50434f4c42555344506f6f6c3a206e6f742072657061696400000000000000006044820152606401610867565b6016805460ff1916905560408051868152602081018490526001600160a01b0388811692908a16917f0d7d75e01ab95780d3cd1c8ec0dd6c2ce19e3a20427eec8bf53283b6fb8e95f0910160405180910390a350506119f36001600080516020613c7883398151915255565b5050505050565b611a02613020565b611a0a61325b565b670de0b6b3a7640000611a1c82610c13565b10611a695760405162461bcd60e51b815260206004820152601e60248201527f50434f4c42555344506f6f6c3a206e6f74206c6971756964617461626c6500006044820152606401610867565b6006546001600160a01b0382166000908152600460205260408120549091670de0b6b3a764000091611a9b9190613a19565b611aa59190613a85565b9050600081118015611ace57506001600160a01b03821660009081526002602052604090205415155b611b115760405162461bcd60e51b815260206004820152601460248201527350434f4c42555344506f6f6c3a206e6f20706f7360601b6044820152606401610867565b600654600090611b2983670de0b6b3a7640000613a19565b611b339190613a85565b6001600160a01b0384166000908152600460205260408120819055600a80549293508392909190611b65908490613a5c565b90915550506001600160a01b038316600090815260026020526040812080549082905560125490919061271090611b9c9082613a49565b611ba69084613a19565b611bb09190613a85565b905081811115611bbd5750805b6000611bc98284613a5c565b9050611c006001600160a01b037f00000000000000000000000000000000000000000000000000000000000000001633308861303c565b8015611c8757604051632770a7eb60e21b81526001600160a01b037f00000000000000000000000000000000000000000000000000000000000000001690639dc29fac90611c5490309085906004016139ea565b600060405180830381600087803b158015611c6e57600080fd5b505af1158015611c82573d6000803e3d6000fd5b505050505b611cbb6001600160a01b037f0000000000000000000000000000000000000000000000000000000000000000163384613342565b60408051868152602081018490526001600160a01b0388169133917fe912f4ccb4a26a55bf54b23b7e96fcac60ebc03b3e76ccdb6752b5d8abc7e8f991015b60405180910390a350505050506109ea6001600080516020613c7883398151915255565b600080611d29610db5565b90506000611d35610cee565b9050611d4b612710670de0b6b3a7640000613a19565b601054611d5a90612710613a5c565b611d648484613a19565b611d6e9190613a19565b611d789190613a85565b9250505090565b611d87613020565b60008111611da75760405162461bcd60e51b8152600401610867906139be565b6040516370a0823160e01b815230600482015281907f00000000000000000000000000000000000000000000000000000000000000006001600160a01b0316906370a0823190602401602060405180830381865afa158015611e0d573d6000803e3d6000fd5b505050506040513d601f19601f82011682018060405250810190611e319190613a30565b1015611e7f5760405162461bcd60e51b815260206004820152601e60248201527f50434f4c42555344506f6f6c3a20696e73756666696369656e7420434f4c00006044820152606401610867565b604051632770a7eb60e21b81526001600160a01b037f00000000000000000000000000000000000000000000000000000000000000001690639dc29fac90611ecd90339085906004016139ea565b600060405180830381600087803b158015611ee757600080fd5b505af1158015611efb573d6000803e3d6000fd5b50611f359250506001600160a01b037f00000000000000000000000000000000000000000000000000000000000000001690503383613342565b604080518281526020810183905233917fd36c28d8252079f996f11d24e2776fcdc1e0f4ceadff156993aff84cbfd37a7591016109cb565b6001600160a01b038116600090815260026020526040812054808203611f965750600092915050565b6040516370a0823160e01b81523060048201526000907f00000000000000000000000000000000000000000000000000000000000000006001600160a01b0316906370a0823190602401602060405180830381865afa158015611ffd573d6000803e3d6000fd5b505050506040513d601f19601f820116820180604052508101906120219190613a30565b6040516370a0823160e01b81523060048201529091506000906001600160a01b037f000000000000000000000000000000000000000000000000000000000000000016906370a0823190602401602060405180830381865afa15801561208b573d6000803e3d6000fd5b505050506040513d601f19601f820116820180604052508101906120af9190613a30565b9050806000036120c457506000949350505050565b60006120cf86610ca8565b6011549091506000836120e28388613a19565b6120ec9190613a19565b905060006127106120fd8786613a19565b6121079190613a19565b905080821161211f5750600098975050505050505050565b600061212d61271088613a19565b612137858a613a19565b6121419190613a49565b61214b8385613a5c565b6121559190613a85565b905085808211610c025781610c04565b60006008544311612177575060065490565b6000600854436121879190613a5c565b90506000612196600654613463565b905060006121ac82670de0b6b3a7640000613a49565b9050670de0b6b3a764000083825b8115612223576121cb600283613b41565b6001036121f257670de0b6b3a76400006121e58285613a19565b6121ef9190613a85565b92505b670de0b6b3a76400006122058280613a19565b61220f9190613a85565b905061221c600283613a85565b91506121ba565b670de0b6b3a76400008360065461223a9190613a19565b6122449190613a85565b965050505050505090565b600061271060135483610cde9190613a19565b61226a613020565b6000811161228a5760405162461bcd60e51b8152600401610867906139be565b6122bf6001600160a01b037f00000000000000000000000000000000000000000000000000000000000000001633308461303c565b33600090815260026020526040812080548392906122de908490613a49565b909155505060405181815233907f880138561f4bdf4c4463046399b16f8186186ad3f21982105d09e65905fafb9b906020016109cb565b60008061232061253e565b9050600061232c6109ed565b9050612342612710670de0b6b3a7640000613a19565b600d54611d5a90612710613a5c565b612359613020565b6000811180156123785750336000908152600260205260409020548111155b6123bc5760405162461bcd60e51b81526020600482015260156024820152741410d3d3109554d1141bdbdb0e881a5b9d985b1a59605a1b6044820152606401610867565b33600090815260026020526040812080548392906123db908490613a5c565b9091555050336000908152600460205260409020541561242557670de0b6b3a764000061240733610c13565b10156124255760405162461bcd60e51b815260040161086790613a99565b6124596001600160a01b037f0000000000000000000000000000000000000000000000000000000000000000163383613342565b60405181815233907fb1f9afa3fb91753d83c90b2584137de0980aedcb24565bb6be5a4a044394da51906020016109cb565b612493613020565b600081116124b35760405162461bcd60e51b8152600401610867906139be565b6124e86001600160a01b037f00000000000000000000000000000000000000000000000000000000000000001633308461303c565b3360009081526001602052604081208054839290612507908490613a49565b909155505060405181815233907f92c5aa6131247b5349ebe4c0b884354154558790641067d72925ac93b11a7de5906020016109cb565b6040516370a0823160e01b815230600482015260009081906001600160a01b037f000000000000000000000000000000000000000000000000000000000000000016906370a0823190602401602060405180830381865afa1580156125a7573d6000803e3d6000fd5b505050506040513d601f19601f820116820180604052508101906125cb9190613a30565b90506000670de0b6b3a76400006125e0612c47565b600954610e649190613a19565b6000670de0b6b3a764000061260183610cfc565b1092915050565b6001600160a01b038116600090815260026020526040812054819061262c84610ca8565b91509150915091565b61263d613020565b6000811161265d5760405162461bcd60e51b8152600401610867906139be565b6040516370a0823160e01b815230600482015281907f00000000000000000000000000000000000000000000000000000000000000006001600160a01b0316906370a0823190602401602060405180830381865afa1580156126c3573d6000803e3d6000fd5b505050506040513d601f19601f820116820180604052508101906126e79190613a30565b10156127355760405162461bcd60e51b815260206004820152601f60248201527f50434f4c42555344506f6f6c3a20696e73756666696369656e742042555344006044820152606401610867565b604051632770a7eb60e21b81526001600160a01b037f00000000000000000000000000000000000000000000000000000000000000001690639dc29fac9061278390339085906004016139ea565b600060405180830381600087803b15801561279d57600080fd5b505af11580156127b1573d6000803e3d6000fd5b506127eb9250506001600160a01b037f00000000000000000000000000000000000000000000000000000000000000001690503383613342565b604080518281526020810183905233917f8041f45367f7ccefd38c06ae22c296ca3ad95cf10be3c54c81c11f849f105f2b91016109cb565b6001600160a01b038116600090815260016020526040812054819061262c84610eb1565b61284f613020565b60008111801561286e5750336000908152600160205260409020548111155b6128b25760405162461bcd60e51b81526020600482015260156024820152741410d3d3109554d1141bdbdb0e881a5b9d985b1a59605a1b6044820152606401610867565b33600090815260016020526040812080548392906128d1908490613a5c565b9091555050336000908152600360205260409020541561291b57670de0b6b3a76400006128fd33610cfc565b101561291b5760405162461bcd60e51b815260040161086790613a99565b61294f6001600160a01b037f0000000000000000000000000000000000000000000000000000000000000000163383613342565b60405181815233907f5f2ac0b7ca7309144e88ededc8fa236c0a7019bdc8c02ab6f6db5095752e7cdc906020016109cb565b6000610a05613078565b612993613020565b61299b61337c565b600081116129bb5760405162461bcd60e51b8152600401610867906139be565b600554336000908152600360205260408120549091670de0b6b3a7640000916129e49190613a19565b6129ee9190613a85565b905060008183116129ff5782612a01565b815b9050600060055482670de0b6b3a7640000612a1c9190613a19565b612a269190613a85565b33600090815260036020526040812080549293508392909190612a4a908490613a5c565b925050819055508060096000828254612a639190613a5c565b90915550612a9e90506001600160a01b037f00000000000000000000000000000000000000000000000000000000000000001633308561303c565b60405182815233907fe2d5d60502594d615dd5827340647c7a7a88a014e9896fdef12f6458b60c0432906020015b60405180910390a25050506109ea6001600080516020613c7883398151915255565b612af6613020565b612afe61325b565b60008111612b1e5760405162461bcd60e51b8152600401610867906139be565b600654336000908152600460205260408120549091670de0b6b3a764000091612b479190613a19565b612b519190613a85565b90506000818311612b625782612b64565b815b9050600060065482670de0b6b3a7640000612b7f9190613a19565b612b899190613a85565b33600090815260046020526040812080549293508392909190612bad908490613a5c565b9250508190555080600a6000828254612bc69190613a5c565b90915550612c0190506001600160a01b037f00000000000000000000000000000000000000000000000000000000000000001633308561303c565b60405182815233907fd79a2bc9877030756cd908acbb64634d527091be3edeed80cdea7ed4cf40be0590602001612acc565b6000670de0b6b3a764000061260183610c13565b60006007544311612c59575060055490565b600060075443612c699190613a5c565b90506000612c7860055461358c565b90506000612c8e82670de0b6b3a7640000613a49565b9050670de0b6b3a764000083825b8115612d0557612cad600283613b41565b600103612cd457670de0b6b3a7640000612cc78285613a19565b612cd19190613a85565b92505b670de0b6b3a7640000612ce78280613a19565b612cf19190613a85565b9050612cfe600283613a85565b9150612c9c565b670de0b6b3a76400008360055461223a9190613a19565b612d24613020565b612d2c61337c565b670de0b6b3a7640000612d3e82610cfc565b10612d8b5760405162461bcd60e51b815260206004820152601e60248201527f50434f4c42555344506f6f6c3a206e6f74206c6971756964617461626c6500006044820152606401610867565b6005546001600160a01b0382166000908152600360205260408120549091670de0b6b3a764000091612dbd9190613a19565b612dc79190613a85565b9050600081118015612df057506001600160a01b03821660009081526001602052604090205415155b612e335760405162461bcd60e51b815260206004820152601460248201527350434f4c42555344506f6f6c3a206e6f20706f7360601b6044820152606401610867565b600554600090612e4b83670de0b6b3a7640000613a19565b612e559190613a85565b6001600160a01b0384166000908152600360205260408120819055600980549293508392909190612e87908490613a5c565b90915550506001600160a01b038316600090815260016020526040812080549082905560125490919061271090612ebe9082613a49565b612ec89084613a19565b612ed29190613a85565b905081811115612edf5750805b6000612eeb8284613a5c565b9050612f226001600160a01b037f00000000000000000000000000000000000000000000000000000000000000001633308861303c565b8015612fa957604051632770a7eb60e21b81526001600160a01b037f00000000000000000000000000000000000000000000000000000000000000001690639dc29fac90612f7690309085906004016139ea565b600060405180830381600087803b158015612f9057600080fd5b505af1158015612fa4573d6000803e3d6000fd5b505050505b612fdd6001600160a01b037f0000000000000000000000000000000000000000000000000000000000000000163384613342565b60408051868152602081018490526001600160a01b0388169133917f1df8781babb2ce0b72d80a0d4eb75715b3f84d14598b945effa23c678f239a539101611cfa565b6130286136ab565b6002600080516020613c7883398151915255565b61304a8484848460016136dd565b61307257604051635274afe760e01b81526001600160a01b0385166004820152602401610867565b50505050565b600080600061308561374f565b915091508160000361309a5760009250505090565b60007f00000000000000000000000000000000000000000000000000000000000000006001600160a01b031663313ce5676040518163ffffffff1660e01b8152600401602060405180830381865afa1580156130fa573d6000803e3d6000fd5b505050506040513d601f19601f8201168201806040525081019061311e9190613b55565b905060007f00000000000000000000000000000000000000000000000000000000000000006001600160a01b031663313ce5676040518163ffffffff1660e01b8152600401602060405180830381865afa158015613180573d6000803e3d6000fd5b505050506040513d601f19601f820116820180604052508101906131a49190613b55565b90506131b181600a613c5c565b6131bb9085613a19565b6131c960ff84166008613a49565b6131d490600a613c6b565b6131de9085613a19565b6131e89190613a85565b94505050505090565b6001600160a01b038116600090815260026020526040812054610ce8906305f5e10090613a19565b6001600160a01b0381166000908152600160205260408120548082036132425750600092915050565b61324a613078565b6132549082613a19565b9392505050565b600854431161326657565b6000600854436132769190613a5c565b90506000613285600654613463565b9050600061329b82670de0b6b3a7640000613a49565b9050670de0b6b3a764000083825b8115613312576132ba600283613b41565b6001036132e157670de0b6b3a76400006132d48285613a19565b6132de9190613a85565b92505b670de0b6b3a76400006132f48280613a19565b6132fe9190613a85565b905061330b600283613a85565b91506132a9565b670de0b6b3a7640000836006546133299190613a19565b6133339190613a85565b60065550504360085550505050565b61334f838383600161386d565b61337757604051635274afe760e01b81526001600160a01b0384166004820152602401610867565b505050565b600754431161338757565b6000600754436133979190613a5c565b905060006133a660055461358c565b905060006133bc82670de0b6b3a7640000613a49565b9050670de0b6b3a764000083825b8115613433576133db600283613b41565b60010361340257670de0b6b3a76400006133f58285613a19565b6133ff9190613a85565b92505b670de0b6b3a76400006134158280613a19565b61341f9190613a85565b905061342c600283613a85565b91506133ca565b670de0b6b3a76400008360055461344a9190613a19565b6134549190613a85565b60055550504360075550505050565b6040516370a0823160e01b815230600482015260009081906001600160a01b037f000000000000000000000000000000000000000000000000000000000000000016906370a0823190602401602060405180830381865afa1580156134cc573d6000803e3d6000fd5b505050506040513d601f19601f820116820180604052508101906134f09190613a30565b90506000670de0b6b3a764000084600a5461350b9190613a19565b6135159190613a85565b905060006135238284613a49565b90506000811561354f578161354084670de0b6b3a7640000613a19565b61354a9190613a85565b613552565b60005b9050670de0b6b3a764000081600f5461356b9190613a19565b6135759190613a85565b600e546135829190613a49565b9695505050505050565b6040516370a0823160e01b815230600482015260009081906001600160a01b037f000000000000000000000000000000000000000000000000000000000000000016906370a0823190602401602060405180830381865afa1580156135f5573d6000803e3d6000fd5b505050506040513d601f19601f820116820180604052508101906136199190613a30565b90506000670de0b6b3a7640000846009546136349190613a19565b61363e9190613a85565b9050600061364c8284613a49565b905060008115613678578161366984670de0b6b3a7640000613a19565b6136739190613a85565b61367b565b60005b9050670de0b6b3a764000081600c546136949190613a19565b61369e9190613a85565b600b546135829190613a49565b600080516020613c78833981519152546002036136db57604051633ee5aeb560e01b815260040160405180910390fd5b565b6040516323b872dd60e01b60008181526001600160a01b038781166004528616602452604485905291602083606481808c5af19250600160005114831661373d578383151615613730573d6000823e3d81fd5b6000883b113d1516831692505b60405250600060605295945050505050565b6040516370a0823160e01b815230600482015260009081906001600160a01b037f000000000000000000000000000000000000000000000000000000000000000016906370a0823190602401602060405180830381865afa1580156137b8573d6000803e3d6000fd5b505050506040513d601f19601f820116820180604052508101906137dc9190613a30565b6040516370a0823160e01b81523060048201529092507f00000000000000000000000000000000000000000000000000000000000000006001600160a01b0316906370a0823190602401602060405180830381865afa158015613843573d6000803e3d6000fd5b505050506040513d601f19601f820116820180604052508101906138679190613a30565b90509091565b60405163a9059cbb60e01b60008181526001600160a01b038616600452602485905291602083604481808b5af1925060016000511483166138c75783831516156138ba573d6000823e3d81fd5b6000873b113d1516831692505b60405250949350505050565b80356001600160a01b03811681146138ea57600080fd5b919050565b60006020828403121561390157600080fd5b613254826138d3565b60006020828403121561391c57600080fd5b5035919050565b60008060008060006080868803121561393b57600080fd5b613944866138d3565b9450613952602087016138d3565b935060408601359250606086013567ffffffffffffffff8082111561397657600080fd5b818801915088601f83011261398a57600080fd5b81358181111561399957600080fd5b8960208285010111156139ab57600080fd5b9699959850939650602001949392505050565b60208082526012908201527150434f4c42555344506f6f6c3a207a65726f60701b604082015260600190565b6001600160a01b03929092168252602082015260400190565b634e487b7160e01b600052601160045260246000fd5b8082028115828204841417610ce857610ce8613a03565b600060208284031215613a4257600080fd5b5051919050565b80820180821115610ce857610ce8613a03565b81810381811115610ce857610ce8613a03565b634e487b7160e01b600052601260045260246000fd5b600082613a9457613a94613a6f565b500490565b60208082526010908201526f2821a7a6212aa9a22837b7b61d10242360811b604082015260600190565b6001600160a01b03878116825260208201879052604082018690528416606082015260a06080820181905281018290526000828460c0840137600060c0848401015260c0601f19601f8501168301019050979650505050505050565b600060208284031215613b3157600080fd5b8151801515811461325457600080fd5b600082613b5057613b50613a6f565b500690565b600060208284031215613b6757600080fd5b815160ff8116811461325457600080fd5b600181815b80851115613bb3578160001904821115613b9957613b99613a03565b80851615613ba657918102915b93841c9390800290613b7d565b509250929050565b600082613bca57506001610ce8565b81613bd757506000610ce8565b8160018114613bed5760028114613bf757613c13565b6001915050610ce8565b60ff841115613c0857613c08613a03565b50506001821b610ce8565b5060208310610133831016604e8410600b8410161715613c36575081810a610ce8565b613c408383613b78565b8060001904821115613c5457613c54613a03565b029392505050565b600061325460ff841683613bbb565b60006132548383613bbb56fe9b779b17422d0df92223018b32b4d1fa46e071723d6817e2486d003becc55f00a2646970667358221220dceb26138de60c2f9a7fa248d5dbb5cb06cbe37a069c30907fbaa7d0a910e32464736f6c6343000814003360a06040523480156200001157600080fd5b5060405162000cad38038062000cad83398101604081905262000034916200018b565b82826003620000448382620002a7565b506004620000538282620002a7565b5050506001600160a01b038116620000b15760405162461bcd60e51b815260206004820152601760248201527f52656365697074546f6b656e3a207a65726f20706f6f6c000000000000000000604482015260640160405180910390fd5b6001600160a01b031660805250620003739050565b634e487b7160e01b600052604160045260246000fd5b600082601f830112620000ee57600080fd5b81516001600160401b03808211156200010b576200010b620000c6565b604051601f8301601f19908116603f01168101908282118183101715620001365762000136620000c6565b816040528381526020925086838588010111156200015357600080fd5b600091505b8382101562000177578582018301518183018401529082019062000158565b600093810190920192909252949350505050565b600080600060608486031215620001a157600080fd5b83516001600160401b0380821115620001b957600080fd5b620001c787838801620000dc565b94506020860151915080821115620001de57600080fd5b50620001ed86828701620000dc565b604086015190935090506001600160a01b03811681146200020d57600080fd5b809150509250925092565b600181811c908216806200022d57607f821691505b6020821081036200024e57634e487b7160e01b600052602260045260246000fd5b50919050565b601f821115620002a257600081815260208120601f850160051c810160208610156200027d5750805b601f850160051c820191505b818110156200029e5782815560010162000289565b5050505b505050565b81516001600160401b03811115620002c357620002c3620000c6565b620002db81620002d4845462000218565b8462000254565b602080601f831160018114620003135760008415620002fa5750858301515b600019600386901b1c1916600185901b1785556200029e565b600085815260208120601f198616915b82811015620003445788860151825594840194600190910190840162000323565b5085821015620003635787850151600019600388901b60f8161c191681555b5050505050600190811b01905550565b6080516109116200039c6000396000818160ff015281816102ed015261038101526109116000f3fe608060405234801561001057600080fd5b50600436106100b45760003560e01c806340c10f191161007157806340c10f191461016d57806370a082311461018257806395d89b41146101ab5780639dc29fac146101b3578063a9059cbb146101c6578063dd62ed3e146101d957600080fd5b806306fdde03146100b9578063095ea7b3146100d757806316f0115b146100fa57806318160ddd1461013957806323b872dd1461014b578063313ce5671461015e575b600080fd5b6100c1610212565b6040516100ce919061075b565b60405180910390f35b6100ea6100e53660046107c5565b6102a4565b60405190151581526020016100ce565b6101217f000000000000000000000000000000000000000000000000000000000000000081565b6040516001600160a01b0390911681526020016100ce565b6002545b6040519081526020016100ce565b6100ea6101593660046107ef565b6102be565b604051601281526020016100ce565b61018061017b3660046107c5565b6102e2565b005b61013d61019036600461082b565b6001600160a01b031660009081526020819052604090205490565b6100c1610367565b6101806101c13660046107c5565b610376565b6100ea6101d43660046107c5565b6103f2565b61013d6101e736600461084d565b6001600160a01b03918216600090815260016020908152604080832093909416825291909152205490565b60606003805461022190610880565b80601f016020809104026020016040519081016040528092919081815260200182805461024d90610880565b801561029a5780601f1061026f5761010080835404028352916020019161029a565b820191906000526020600020905b81548152906001019060200180831161027d57829003601f168201915b5050505050905090565b6000336102b2818585610400565b60019150505b92915050565b6000336102cc858285610412565b6102d7858585610491565b506001949350505050565b336001600160a01b037f000000000000000000000000000000000000000000000000000000000000000016146103595760405162461bcd60e51b8152602060048201526017602482015276149958d95a5c1d151bdad95b8e881bdb9b1e481c1bdbdb604a1b60448201526064015b60405180910390fd5b61036382826104f0565b5050565b60606004805461022190610880565b336001600160a01b037f000000000000000000000000000000000000000000000000000000000000000016146103e85760405162461bcd60e51b8152602060048201526017602482015276149958d95a5c1d151bdad95b8e881bdb9b1e481c1bdbdb604a1b6044820152606401610350565b6103638282610526565b6000336102b2818585610491565b61040d838383600161055c565b505050565b6001600160a01b0383811660009081526001602090815260408083209386168352929052205460001981101561048b578181101561047c57604051637dc7a0d960e11b81526001600160a01b03841660048201526024810182905260448101839052606401610350565b61048b8484848403600061055c565b50505050565b6001600160a01b0383166104bb57604051634b637e8f60e11b815260006004820152602401610350565b6001600160a01b0382166104e55760405163ec442f0560e01b815260006004820152602401610350565b61040d838383610631565b6001600160a01b03821661051a5760405163ec442f0560e01b815260006004820152602401610350565b61036360008383610631565b6001600160a01b03821661055057604051634b637e8f60e11b815260006004820152602401610350565b61036382600083610631565b6001600160a01b0384166105865760405163e602df0560e01b815260006004820152602401610350565b6001600160a01b0383166105b057604051634a1406b160e11b815260006004820152602401610350565b6001600160a01b038085166000908152600160209081526040808320938716835292905220829055801561048b57826001600160a01b0316846001600160a01b03167f8c5be1e5ebec7d5bd14f71427d1e84f3dd0314c0f7b2291e5b200ac8c7c3b9258460405161062391815260200190565b60405180910390a350505050565b6001600160a01b03831661065c57806002600082825461065191906108ba565b909155506106ce9050565b6001600160a01b038316600090815260208190526040902054818110156106af5760405163391434e360e21b81526001600160a01b03851660048201526024810182905260448101839052606401610350565b6001600160a01b03841660009081526020819052604090209082900390555b6001600160a01b0382166106ea57600280548290039055610709565b6001600160a01b03821660009081526020819052604090208054820190555b816001600160a01b0316836001600160a01b03167fddf252ad1be2c89b69c2b068fc378daa952ba7f163c4a11628f55a4df523b3ef8360405161074e91815260200190565b60405180910390a3505050565b600060208083528351808285015260005b818110156107885785810183015185820160400152820161076c565b506000604082860101526040601f19601f8301168501019250505092915050565b80356001600160a01b03811681146107c057600080fd5b919050565b600080604083850312156107d857600080fd5b6107e1836107a9565b946020939093013593505050565b60008060006060848603121561080457600080fd5b61080d846107a9565b925061081b602085016107a9565b9150604084013590509250925092565b60006020828403121561083d57600080fd5b610846826107a9565b9392505050565b6000806040838503121561086057600080fd5b610869836107a9565b9150610877602084016107a9565b90509250929050565b600181811c9082168061089457607f821691505b6020821081036108b457634e487b7160e01b600052602260045260246000fd5b50919050565b808201808211156102b857634e487b7160e01b600052601160045260246000fdfea2646970667358221220bd936c1763fcc336c7d1c45f774d88ab7033a66070011519dbd3906d16d2ccb164736f6c63430008140033",
  "linkReferences": {},
  "deployedLinkReferences": {}
}