{
  "_format": "hh-sol-artifact-1",
  "contractName": "MockERC20",
  "sourceName": "contracts/MockERC20.sol",
  "abi": [
    {
      "inputs": [
        {
          "internalType": "string",
          "name": "name_",
          "type": "string"
        },
        {
          "internalType": "string",
          "name": "symbol_",
          "type": "string"
        },
        {
          "internalType": "uint8",
          "name": "decimals_",
          "type": "uint8"
        }
      ],
      "stateMutability": "nonpayable",
      "type": "constructor"
    },
    {
      "inputs": [
        {
          "internalType": "address",
          "name": "spender",
          "type": "address"
        },
        {
          "internalType": "uint256",
          "name": "allowance",
          "type": "uint256"
        },
        {
          "internalType": "uint256",
          "name": "needed",
          "type": "uint256"
        }
      ],
      "name": "ERC20InsufficientAllowance",
      "type": "error"
    },
    {
      "inputs": [
        {
          "internalType": "address",
          "name": "sender",
          "type": "address"
        },
        {
          "internalType": "uint256",
          "name": "balance",
          "type": "uint256"
        },
        {
          "internalType": "uint256",
          "name": "needed",
          "type": "uint256"
        }
      ],
      "name": "ERC20InsufficientBalance",
      "type": "error"
    },
    {
      "inputs": [
        {
          "internalType": "address",
          "name": "approver",
          "type": "address"
        }
      ],
      "name": "ERC20InvalidApprover",
      "type": "error"
    },
    {
      "inputs": [
        {
          "internalType": "address",
          "name": "receiver",
          "type": "address"
        }
      ],
      "name": "ERC20InvalidReceiver",
      "type": "error"
    },
    {
      "inputs": [
        {
          "internalType": "address",
          "name": "sender",
          "type": "address"
        }
      ],
      "name": "ERC20InvalidSender",
      "type": "error"
    },
    {
      "inputs": [
        {
          "internalType": "address",
          "name": "spender",
          "type": "address"
        }
      ],
      "name": "ERC20InvalidSpender",
      "type": "error"
    },
    {
      "anonymous": false,
      "inputs": [
        {
          "indexed": true,
          "internalType": "address",
          "name": "owner",
          "type": "address"
        },
        {
          "indexed": true,
          "internalType": "address",
          "name": "spender",
          "type": "address"
        },
        {
          "indexed": false,
          "internalType": "uint256",
          "name": "value",
          "type": "uint256"
        }
      ],
      "name": "Approval",
      "type": "event"
    },
    {
      "anonymous": false,
      "inputs": [
        {
          "indexed": true,
          "internalType": "address",
          "name": "from",
          "type": "address"
        },
        {
          "indexed": true,
          "internalType": "address",
          "name": "to",
          "type": "address"
        },
        {
          "indexed": false,
          "internalType": "uint256",
          "name": "value",
          "type": "uint256"
        }
      ],
      "name": "Transfer",
      "type": "event"
    },
    {
      "inputs": [
        {
          "internalType": "address",
          "name": "owner",
          "type": "address"
        },
        {
          "internalType": "address",
          "name": "spender",
          "type": "address"
        }
      ],
      "name": "allowance",
      "outputs": [
        {
          "internalType": "uint256",
          "name": "",
          "type": "uint256"
        }
      ],
      "stateMutability": "view",
      "type": "function"
    },
    {
      "inputs": [
        {
          "internalType": "address",
          "name": "spender",
          "type": "address"
        },
        {
          "internalType": "uint256",
          "name": "value",
          "type": "uint256"
        }
      ],
      "name": "approve",
      "outputs": [
        {
          "internalType": "bool",
          "name": "",
          "type": "bool"
        }
      ],
      "stateMutability": "nonpayable",
      "type": "function"
    },
    {
      "inputs": [
        {
          "internalType": "address",
          "name": "account",
          "type": "address"
        }
      ],
      "name": "balanceOf",
      "outputs": [
        {
          "internalType": "uint256",
          "name": "",
          "type": "uint256"
        }
      ],
      "stateMutability": "view",
      "type": "function"
    },
    {
      "inputs": [],
      "name": "decimals",
      "outputs": [
        {
          "internalType": "uint8",
          "name": "",
          "type": "uint8"
        }
      ],
      "stateMutability": "view",
      "type": "function"
    },
    {
      "inputs": [
        {
          "internalType": "uint256",
          "name": "amount",
          "type": "uint256"
        }
      ],
      "name": "faucet",
      "outputs": [],
      "stateMutability": "nonpayable",
      "type": "function"
    },
    {
      "inputs": [
        {
          "internalType": "address",
          "name": "to",
          "type": "address"
        },
        {
          "internalType": "uint256",
          "name": "amount",
          "type": "uint256"
        }
      ],
      "name": "mint",
      "outputs": [],
      "stateMutability": "nonpayable",
      "type": "function"
    },
    {
      "inputs": [],
      "name": "name",
      "outputs": [
        {
          "internalType": "string",
          "name": "",
          "type": "string"
        }
      ],
      "stateMutability": "view",
      "type": "function"
    },
    {
      "inputs": [],
      "name": "symbol",
      "outputs": [
        {
          "internalType": "string",
          "name": "",
          "type": "string"
        }
      ],
      "stateMutability": "view",
      "type": "function"
    },
    {
      "inputs": [],
      "name": "totalSupply",
      "outputs": [
        {
          "internalType": "uint256",
          "name": "",
          "type": "uint256"
        }
      ],
      "stateMutability": "view",
      "type": "function"
    },
    {
      "inputs": [
        {
          "internalType": "address",
          "name": "to",
          "type": "address"
        },
        {
          "internalType": "uint256",
          "name": "value",
          "type": "uint256"
        }
      ],
      "name": "transfer",
      "outputs": [
        {
          "internalType": "bool",
          "name": "",
          "type": "bool"
        }
      ],
      "stateMutability": "nonpayable",
      "type": "function"
    },
    {
      "inputs": [
        {
          "internalType": "address",
          "name": "from",
          "type": "address"
        },
        {
          "internalType": "address",
          "name": "to",
          "type": "address"
        },
        {
          "internalType": "uint256",
          "name": "value",
          "type": "uint256"
        }
      ],
      "name": "transferFrom",
      "outputs": [
        {
          "internalType": "bool",
          "name": "",
          "type": "bool"
        }
      ],
      "stateMutability": "nonpayable",
      "type": "function"
    }
  ],
  "bytecode": "0x60806040523480156200001157600080fd5b5060405162000af838038062000af8833981016040819052620000349162000139565b828260036200004483826200024d565b5060046200005382826200024d565b50506005805460ff191660ff93909316929092179091555062000319915050565b634e487b7160e01b600052604160045260246000fd5b600082601f8301126200009c57600080fd5b81516001600160401b0380821115620000b957620000b962000074565b604051601f8301601f19908116603f01168101908282118183101715620000e457620000e462000074565b816040528381526020925086838588010111156200010157600080fd5b600091505b8382101562000125578582018301518183018401529082019062000106565b600093810190920192909252949350505050565b6000806000606084860312156200014f57600080fd5b83516001600160401b03808211156200016757600080fd5b62000175878388016200008a565b945060208601519150808211156200018c57600080fd5b506200019b868287016200008a565b925050604084015160ff81168114620001b357600080fd5b809150509250925092565b600181811c90821680620001d357607f821691505b602082108103620001f457634e487b7160e01b600052602260045260246000fd5b50919050565b601f8211156200024857600081815260208120601f850160051c81016020861015620002235750805b601f850160051c820191505b8181101562000244578281556001016200022f565b5050505b505050565b81516001600160401b0381111562000269576200026962000074565b62000281816200027a8454620001be565b84620001fa565b602080601f831160018114620002b95760008415620002a05750858301515b600019600386901b1c1916600185901b17855562000244565b600085815260208120601f198616915b82811015620002ea57888601518255948401946001909101908401620002c9565b5085821015620003095787850151600019600388901b60f8161c191681555b5050505050600190811b01905550565b6107cf80620003296000396000f3fe608060405234801561001057600080fd5b50600436106100a95760003560e01c806340c10f191161007157806340c10f1914610129578063579158971461013e57806370a082311461015157806395d89b411461017a578063a9059cbb14610182578063dd62ed3e1461019557600080fd5b806306fdde03146100ae578063095ea7b3146100cc57806318160ddd146100ef57806323b872dd14610101578063313ce56714610114575b600080fd5b6100b66101ce565b6040516100c39190610600565b60405180910390f35b6100df6100da36600461066a565b610260565b60405190151581526020016100c3565b6002545b6040519081526020016100c3565b6100df61010f366004610694565b61027a565b60055460405160ff90911681526020016100c3565b61013c61013736600461066a565b61029e565b005b61013c61014c3660046106d0565b6102ac565b6100f361015f3660046106e9565b6001600160a01b031660009081526020819052604090205490565b6100b66102b9565b6100df61019036600461066a565b6102c8565b6100f36101a336600461070b565b6001600160a01b03918216600090815260016020908152604080832093909416825291909152205490565b6060600380546101dd9061073e565b80601f01602080910402602001604051908101604052809291908181526020018280546102099061073e565b80156102565780601f1061022b57610100808354040283529160200191610256565b820191906000526020600020905b81548152906001019060200180831161023957829003601f168201915b5050505050905090565b60003361026e8185856102d6565b60019150505b92915050565b6000336102888582856102e8565b61029385858561036c565b506001949350505050565b6102a882826103cb565b5050565b6102b633826103cb565b50565b6060600480546101dd9061073e565b60003361026e81858561036c565b6102e38383836001610401565b505050565b6001600160a01b03838116600090815260016020908152604080832093861683529290522054600019811015610366578181101561035757604051637dc7a0d960e11b81526001600160a01b038416600482015260248101829052604481018390526064015b60405180910390fd5b61036684848484036000610401565b50505050565b6001600160a01b03831661039657604051634b637e8f60e11b81526000600482015260240161034e565b6001600160a01b0382166103c05760405163ec442f0560e01b81526000600482015260240161034e565b6102e38383836104d6565b6001600160a01b0382166103f55760405163ec442f0560e01b81526000600482015260240161034e565b6102a8600083836104d6565b6001600160a01b03841661042b5760405163e602df0560e01b81526000600482015260240161034e565b6001600160a01b03831661045557604051634a1406b160e11b81526000600482015260240161034e565b6001600160a01b038085166000908152600160209081526040808320938716835292905220829055801561036657826001600160a01b0316846001600160a01b03167f8c5be1e5ebec7d5bd14f71427d1e84f3dd0314c0f7b2291e5b200ac8c7c3b925846040516104c891815260200190565b60405180910390a350505050565b6001600160a01b0383166105015780600260008282546104f69190610778565b909155506105739050565b6001600160a01b038316600090815260208190526040902054818110156105545760405163391434e360e21b81526001600160a01b0385166004820152602481018290526044810183905260640161034e565b6001600160a01b03841660009081526020819052604090209082900390555b6001600160a01b03821661058f576002805482900390556105ae565b6001600160a01b03821660009081526020819052604090208054820190555b816001600160a01b0316836001600160a01b03167fddf252ad1be2c89b69c2b068fc378daa952ba7f163c4a11628f55a4df523b3ef836040516105f391815260200190565b60405180910390a3505050565b600060208083528351808285015260005b8181101561062d57858101830151858201604001528201610611565b506000604082860101526040601f19601f8301168501019250505092915050565b80356001600160a01b038116811461066557600080fd5b919050565b6000806040838503121561067d57600080fd5b6106868361064e565b946020939093013593505050565b6000806000606084860312156106a957600080fd5b6106b28461064e565b92506106c06020850161064e565b9150604084013590509250925092565b6000602082840312156106e257600080fd5b5035919050565b6000602082840312156106fb57600080fd5b6107048261064e565b9392505050565b6000806040838503121561071e57600080fd5b6107278361064e565b91506107356020840161064e565b90509250929050565b600181811c9082168061075257607f821691505b60208210810361077257634e487b7160e01b600052602260045260246000fd5b50919050565b8082018082111561027457634e487b7160e01b600052601160045260246000fdfea26469706673582212209b374cee051a20b014f02194cafae8d42b25b3a37ccadedabb52566c6f36c38364736f6c63430008140033",
  "linkReferences": {},
  "deployedLinkReferences": {}
}