{
  "_format": "hh-sol-artifact-1",
  "contractName": "LendingPool",
  "sourceName": "contracts/LendingPool.sol",
  "abi": [
    {
      "inputs": [
        {
          "internalType": "address",
          "name": "_collateralAsset",
          "type": "address"
        },
        {
          "internalType": "address",
          "name": "_borrowAsset",
          "type": "address"
        },
        {
          "internalType": "address",
          "name": "_oracle",
          "type": "address"
        },
        {
          "internalType": "address",
          "name": "_governanceToken",
          "type": "address"
        }
      ],
      "stateMutability": "nonpayable",
      "type": "constructor"
    },
    {
      "inputs": [],
      "name": "ReentrancyGuardReentrantCall",
      "type": "error"
    },
    {
      "inputs": [
        {
          "internalType": "address",
          "name": "token",
          "type": "address"
        }
      ],
      "name": "SafeERC20FailedOperation",
      "type": "error"
    },
    {
      "anonymous": false,
      "inputs": [
        {
          "indexed": true,
          "internalType": "address",
          "name": "user",
          "type": "address"
        },
        {
          "indexed": true,
          "internalType": "address",
          "name": "asset",
          "type": "address"
        },
        {
          "indexed": false,
          "internalType": "uint256",
          "name": "amount",
          "type": "uint256"
        }
      ],
      "name": "Borrow",
      "type": "event"
    },
    {
      "anonymous": false,
      "inputs": [
        {
          "indexed": true,
          "internalType": "address",
          "name": "user",
          "type": "address"
        },
        {
          "indexed": true,
          "internalType": "address",
          "name": "asset",
          "type": "address"
        },
        {
          "indexed": false,
          "internalType": "uint256",
          "name": "amount",
          "type": "uint256"
        }
      ],
      "name": "Deposit",
      "type": "event"
    },
    {
      "anonymous": false,
      "inputs": [
        {
          "indexed": true,
          "internalType": "address",
          "name": "receiver",
          "type": "address"
        },
        {
          "indexed": true,
          "internalType": "address",
          "name": "asset",
          "type": "address"
        },
        {
          "indexed": false,
          "internalType": "uint256",
          "name": "amount",
          "type": "uint256"
        },
        {
          "indexed": false,
          "internalType": "uint256",
          "name": "fee",
          "type": "uint256"
        }
      ],
      "name": "FlashLoan",
      "type": "event"
    },
    {
      "anonymous": false,
      "inputs": [
        {
          "indexed": true,
          "internalType": "address",
          "name": "liquidator",
          "type": "address"
        },
        {
          "indexed": true,
          "internalType": "address",
          "name": "user",
          "type": "address"
        },
        {
          "indexed": false,
          "internalType": "address",
          "name": "collateralAsset",
          "type": "address"
        },
        {
          "indexed": false,
          "internalType": "address",
          "name": "debtAsset",
          "type": "address"
        },
        {
          "indexed": false,
          "internalType": "uint256",
          "name": "debtRepaid",
          "type": "uint256"
        },
        {
          "indexed": false,
          "internalType": "uint256",
          "name": "collateralReceived",
          "type": "uint256"
        }
      ],
      "name": "Liquidate",
      "type": "event"
    },
    {
      "anonymous": false,
      "inputs": [
        {
          "indexed": true,
          "internalType": "address",
          "name": "user",
          "type": "address"
        },
        {
          "indexed": true,
          "internalType": "address",
          "name": "asset",
          "type": "address"
        },
        {
          "indexed": false,
          "internalType": "uint256",
          "name": "amount",
          "type": "uint256"
        }
      ],
      "name": "Repay",
      "type": "event"
    },
    {
      "anonymous": false,
      "inputs": [
        {
          "indexed": true,
          "internalType": "address",
          "name": "user",
          "type": "address"
        },
        {
          "indexed": true,
          "internalType": "address",
          "name": "asset",
          "type": "address"
        },
        {
          "indexed": false,
          "internalType": "uint256",
          "name": "amount",
          "type": "uint256"
        }
      ],
      "name": "Withdraw",
      "type": "event"
    },
    {
      "inputs": [
        {
          "internalType": "address",
          "name": "asset",
          "type": "address"
        },
        {
          "internalType": "uint256",
          "name": "amount",
          "type": "uint256"
        }
      ],
      "name": "borrow",
      "outputs": [],
      "stateMutability": "nonpayable",
      "type": "function"
    },
    {
      "inputs": [],
      "name": "borrowAsset",
      "outputs": [
        {
          "internalType": "address",
          "name": "",
          "type": "address"
        }
      ],
      "stateMutability": "view",
      "type": "function"
    },
    {
      "inputs": [],
      "name": "collateralAsset",
      "outputs": [
        {
          "internalType": "address",
          "name": "",
          "type": "address"
        }
      ],
      "stateMutability": "view",
      "type": "function"
    },
    {
      "inputs": [
        {
          "internalType": "address",
          "name": "asset",
          "type": "address"
        },
        {
          "internalType": "uint256",
          "name": "amount",
          "type": "uint256"
        }
      ],
      "name": "deposit",
      "outputs": [],
      "stateMutability": "nonpayable",
      "type": "function"
    },
    {
      "inputs": [
        {
          "internalType": "address",
          "name": "receiverAddress",
          "type": "address"
        },
        {
          "internalType": "address",
          "name": "asset",
          "type": "address"
        },
        {
          "internalType": "uint256",
          "name": "amount",
          "type": "uint256"
        },
        {
          "internalType": "bytes",
          "name": "params",
          "type": "bytes"
        }
      ],
      "name": "flashLoan",
      "outputs": [],
      "stateMutability": "nonpayable",
      "type": "function"
    },
    {
      "inputs": [],
      "name": "flashLoanFeeBps",
      "outputs": [
        {
          "internalType": "uint256",
          "name": "",
          "type": "uint256"
        }
      ],
      "stateMutability": "view",
      "type": "function"
    },
    {
      "inputs": [
        {
          "internalType": "uint256",
          "name": "amount",
          "type": "uint256"
        }
      ],
      "name": "getFlashLoanFee",
      "outputs": [
        {
          "internalType": "uint256",
          "name": "",
          "type": "uint256"
        }
      ],
      "stateMutability": "view",
      "type": "function"
    },
    {
      "inputs": [
        {
          "internalType": "address",
          "name": "user",
          "type": "address"
        }
      ],
      "name": "getHealthFactor",
      "outputs": [
        {
          "internalType": "uint256",
          "name": "",
          "type": "uint256"
        }
      ],
      "stateMutability": "view",
      "type": "function"
    },
    {
      "inputs": [
        {
          "internalType": "address",
          "name": "user",
          "type": "address"
        }
      ],
      "name": "getMaxBorrow",
      "outputs": [
        {
          "internalType": "uint256",
          "name": "",
          "type": "uint256"
        }
      ],
      "stateMutability": "view",
      "type": "function"
    },
    {
      "inputs": [
        {
          "internalType": "address",
          "name": "user",
          "type": "address"
        }
      ],
      "name": "getUserPosition",
      "outputs": [
        {
          "internalType": "uint256",
          "name": "collateral",
          "type": "uint256"
        },
        {
          "internalType": "uint256",
          "name": "debt",
          "type": "uint256"
        }
      ],
      "stateMutability": "view",
      "type": "function"
    },
    {
      "inputs": [],
      "name": "getUtilizationRate",
      "outputs": [
        {
          "internalType": "uint256",
          "name": "",
          "type": "uint256"
        }
      ],
      "stateMutability": "view",
      "type": "function"
    },
    {
      "inputs": [],
      "name": "governanceToken",
      "outputs": [
        {
          "internalType": "contract GovernanceToken",
          "name": "",
          "type": "address"
        }
      ],
      "stateMutability": "view",
      "type": "function"
    },
    {
      "inputs": [
        {
          "internalType": "address",
          "name": "user",
          "type": "address"
        }
      ],
      "name": "isLiquidatable",
      "outputs": [
        {
          "internalType": "bool",
          "name": "",
          "type": "bool"
        }
      ],
      "stateMutability": "view",
      "type": "function"
    },
    {
      "inputs": [
        {
          "internalType": "address",
          "name": "collateralAsset_",
          "type": "address"
        },
        {
          "internalType": "address",
          "name": "debtAsset_",
          "type": "address"
        },
        {
          "internalType": "address",
          "name": "user",
          "type": "address"
        }
      ],
      "name": "liquidate",
      "outputs": [],
      "stateMutability": "nonpayable",
      "type": "function"
    },
    {
      "inputs": [],
      "name": "liquidationBonus",
      "outputs": [
        {
          "internalType": "uint256",
          "name": "",
          "type": "uint256"
        }
      ],
      "stateMutability": "view",
      "type": "function"
    },
    {
      "inputs": [],
      "name": "liquidationThreshold",
      "outputs": [
        {
          "internalType": "uint256",
          "name": "",
          "type": "uint256"
        }
      ],
      "stateMutability": "view",
      "type": "function"
    },
    {
      "inputs": [],
      "name": "oracle",
      "outputs": [
        {
          "internalType": "contract IPriceOracle",
          "name": "",
          "type": "address"
        }
      ],
      "stateMutability": "view",
      "type": "function"
    },
    {
      "inputs": [
        {
          "internalType": "address",
          "name": "",
          "type": "address"
        }
      ],
      "name": "positions",
      "outputs": [
        {
          "internalType": "uint256",
          "name": "collateral",
          "type": "uint256"
        },
        {
          "internalType": "uint256",
          "name": "debt",
          "type": "uint256"
        }
      ],
      "stateMutability": "view",
      "type": "function"
    },
    {
      "inputs": [
        {
          "internalType": "address",
          "name": "asset",
          "type": "address"
        },
        {
          "internalType": "uint256",
          "name": "amount",
          "type": "uint256"
        }
      ],
      "name": "repay",
      "outputs": [],
      "stateMutability": "nonpayable",
      "type": "function"
    },
    {
      "inputs": [],
      "name": "rewardPerBorrow",
      "outputs": [
        {
          "internalType": "uint256",
          "name": "",
          "type": "uint256"
        }
      ],
      "stateMutability": "view",
      "type": "function"
    },
    {
      "inputs": [],
      "name": "rewardPerDeposit",
      "outputs": [
        {
          "internalType": "uint256",
          "name": "",
          "type": "uint256"
        }
      ],
      "stateMutability": "view",
      "type": "function"
    },
    {
      "inputs": [],
      "name": "totalBorrowed",
      "outputs": [
        {
          "internalType": "uint256",
          "name": "",
          "type": "uint256"
        }
      ],
      "stateMutability": "view",
      "type": "function"
    },
    {
      "inputs": [],
      "name": "totalCollateral",
      "outputs": [
        {
          "internalType": "uint256",
          "name": "",
          "type": "uint256"
        }
      ],
      "stateMutability": "view",
      "type": "function"
    },
    {
      "inputs": [
        {
          "internalType": "address",
          "name": "asset",
          "type": "address"
        },
        {
          "internalType": "uint256",
          "name": "amount",
          "type": "uint256"
        }
      ],
      "name": "withdraw",
      "outputs": [],
      "stateMutability": "nonpayable",
      "type": "function"
    }
  ],
  "bytecode": "0x60c0604052611f406005556103e86006556009600755670de0b6b3a764000060085567016345785d8a00006009553480156200003a57600080fd5b50604051620021c8380380620021c88339810160408190526200005d91620001bd565b60017f9b779b17422d0df92223018b32b4d1fa46e071723d6817e2486d003becc55f00556001600160a01b03841615801590620000a257506001600160a01b03831615155b620000f45760405162461bcd60e51b815260206004820152601960248201527f4c656e64696e67506f6f6c3a207a65726f20616464726573730000000000000060448201526064015b60405180910390fd5b6001600160a01b038216158015906200011557506001600160a01b03811615155b620001635760405162461bcd60e51b815260206004820152601960248201527f4c656e64696e67506f6f6c3a207a65726f2061646472657373000000000000006044820152606401620000eb565b6001600160a01b0393841660805291831660a052600080549184166001600160a01b0319928316179055600180549290931691161790556200021a565b80516001600160a01b0381168114620001b857600080fd5b919050565b60008060008060808587031215620001d457600080fd5b620001df85620001a0565b9350620001ef60208601620001a0565b9250620001ff60408601620001a0565b91506200020f60608601620001a0565b905092959194509250565b60805160a051611f26620002a2600039600081816101bf015281816103a5015281816106d70152818161078901528181610c1a01528181611048015281816116ff0152818161182201526119900152600081816102ed0152818161052401528181610bdf0152818161100c015281816114330152818161167001526118f50152611f266000f3fe608060405234801561001057600080fd5b50600436106101585760003560e01c80635cffe9de116100c3578063ca5ce2ec1161007c578063ca5ce2ec14610318578063ea4e2fd21461032b578063f3fef3a314610334578063f96dae0a14610347578063fd1c317a1461035a578063fe6bcd7c1461036d57600080fd5b80635cffe9de146102a65780637b7c1f4c146102b95780637dc0d1d0146102c25780638dd2a7cf146102d5578063aabaecd6146102e8578063c0c7347e1461030f57600080fd5b80634a417a53116101155780634a417a531461020c5780634ac8eb5f146102145780634b8a35291461021d5780634c19386c1461023057806355f57510146102395780635b7c2dad1461027557600080fd5b8063042e02cf1461015d57806322867d781461018557806326bbb6081461019a5780634031234c146101b1578063446456e5146101ba57806347e7ef24146101f9575b600080fd5b61017061016b366004611c09565b610380565b60405190151581526020015b60405180910390f35b610198610193366004611c2b565b61039b565b005b6101a360095481565b60405190815260200161017c565b6101a360055481565b6101e17f000000000000000000000000000000000000000000000000000000000000000081565b6040516001600160a01b03909116815260200161017c565b610198610207366004611c2b565b61051a565b6101a36106ae565b6101a360035481565b61019861022b366004611c2b565b61077f565b6101a360045481565b610260610247366004611c09565b6002602052600090815260409020805460019091015482565b6040805192835260208301919091520161017c565b610260610283366004611c09565b6001600160a01b0316600090815260026020526040902080546001909101549091565b6101986102b4366004611c55565b610bd5565b6101a360065481565b6000546101e1906001600160a01b031681565b6101a36102e3366004611cf0565b610fdf565b6101e17f000000000000000000000000000000000000000000000000000000000000000081565b6101a360075481565b610198610326366004611d09565b611002565b6101a360085481565b610198610342366004611c2b565b611429565b6001546101e1906001600160a01b031681565b6101a3610368366004611c09565b61162c565b6101a361037b366004611c09565b6118ad565b6000670de0b6b3a7640000610394836118ad565b1092915050565b6103a3611a56565b7f00000000000000000000000000000000000000000000000000000000000000006001600160a01b0316826001600160a01b0316146104295760405162461bcd60e51b815260206004820152601d60248201527f4c656e64696e67506f6f6c3a206e6f7420626f72726f7720617373657400000060448201526064015b60405180910390fd5b600081116104495760405162461bcd60e51b815260040161042090611d4c565b3360009081526002602052604081206001810154909190831161046c5782610472565b81600101545b9050808260010160008282546104889190611d99565b9250508190555080600460008282546104a19190611d99565b909155506104bc90506001600160a01b038516333084611a72565b6040518181526001600160a01b0385169033907f05f2eeda0e08e4b437f487c8d7d29b14537d15e3488170dc3de5dbdf8dac4684906020015b60405180910390a350506105166001600080516020611ed183398151915255565b5050565b610522611a56565b7f00000000000000000000000000000000000000000000000000000000000000006001600160a01b0316826001600160a01b0316146105735760405162461bcd60e51b815260040161042090611dac565b600081116105935760405162461bcd60e51b815260040161042090611d4c565b33600090815260026020526040812080548392906105b2908490611ded565b9250508190555080600360008282546105cb9190611ded565b909155506105e690506001600160a01b038316333084611a72565b6008541561065757600154600854604051634d24848760e11b815233600482015260248101919091526001600160a01b0390911690639a49090e90604401600060405180830381600087803b15801561063e57600080fd5b505af1158015610652573d6000803e3d6000fd5b505050505b6040518181526001600160a01b0383169033907f5548c837ab068cf56a2c2479df0882a4922fd203edb7517321831d95078c5f629060200160405180910390a36105166001600080516020611ed183398151915255565b600480546040516370a0823160e01b815230928101929092526000918291906001600160a01b037f000000000000000000000000000000000000000000000000000000000000000016906370a0823190602401602060405180830381865afa15801561071e573d6000803e3d6000fd5b505050506040513d601f19601f820116820180604052508101906107429190611e00565b61074c9190611ded565b90508060000361075e57600091505090565b8061271060045461076f9190611e19565b6107799190611e30565b91505090565b610787611a56565b7f00000000000000000000000000000000000000000000000000000000000000006001600160a01b0316826001600160a01b0316146108085760405162461bcd60e51b815260206004820152601d60248201527f4c656e64696e67506f6f6c3a206e6f7420626f72726f772061737365740000006044820152606401610420565b600081116108285760405162461bcd60e51b815260040161042090611d4c565b33600090815260026020526040902080546108855760405162461bcd60e51b815260206004820152601a60248201527f4c656e64696e67506f6f6c3a206e6f20636f6c6c61746572616c0000000000006044820152606401610420565b6040516370a0823160e01b815230600482015282906001600160a01b038516906370a0823190602401602060405180830381865afa1580156108cb573d6000803e3d6000fd5b505050506040513d601f19601f820116820180604052508101906108ef9190611e00565b10156109495760405162461bcd60e51b815260206004820152602360248201527f4c656e64696e67506f6f6c3a20696e73756666696369656e74206c697175696460448201526269747960e81b6064820152608401610420565b8181600101600082825461095d9190611ded565b9250508190555081600460008282546109769190611ded565b90915550670de0b6b3a7640000905061098e336118ad565b10156109e75760405162461bcd60e51b815260206004820152602260248201527f4c656e64696e67506f6f6c3a206865616c746820666163746f722062656c6f77604482015261203160f01b6064820152608401610420565b6040516370a0823160e01b81523060048201526000906001600160a01b038516906370a0823190602401602060405180830381865afa158015610a2e573d6000803e3d6000fd5b505050506040513d601f19601f82011682018060405250810190610a529190611e00565b9050610a686001600160a01b0385163385611aae565b610a728382611d99565b6040516370a0823160e01b81523060048201526001600160a01b038616906370a0823190602401602060405180830381865afa158015610ab6573d6000803e3d6000fd5b505050506040513d601f19601f82011682018060405250810190610ada9190611e00565b14610b275760405162461bcd60e51b815260206004820152601c60248201527f4c656e64696e67506f6f6c3a207472616e73666572206661696c6564000000006044820152606401610420565b60095415610b9857600154600954604051634d24848760e11b815233600482015260248101919091526001600160a01b0390911690639a49090e90604401600060405180830381600087803b158015610b7f57600080fd5b505af1158015610b93573d6000803e3d6000fd5b505050505b6040518381526001600160a01b0385169033907f312a5e5e1079f5dda4e95dbbd0b908b291fd5b992ef22073643ab691572c5b52906020016104f5565b610bdd611a56565b7f00000000000000000000000000000000000000000000000000000000000000006001600160a01b0316846001600160a01b03161480610c4e57507f00000000000000000000000000000000000000000000000000000000000000006001600160a01b0316846001600160a01b0316145b610c9a5760405162461bcd60e51b815260206004820152601e60248201527f4c656e64696e67506f6f6c3a20756e737570706f7274656420617373657400006044820152606401610420565b60008311610cba5760405162461bcd60e51b815260040161042090611d4c565b600a5460ff1615610d175760405162461bcd60e51b815260206004820152602160248201527f4c656e64696e67506f6f6c3a207265656e7472616e7420666c617368206c6f616044820152603760f91b6064820152608401610420565b600061271060075485610d2a9190611e19565b610d349190611e30565b600a805460ff191660011790556040516370a0823160e01b81523060048201529091506000906001600160a01b038716906370a0823190602401602060405180830381865afa158015610d8b573d6000803e3d6000fd5b505050506040513d601f19601f82011682018060405250810190610daf9190611e00565b9050610dc56001600160a01b0387168887611aae565b604051631b11d0ff60e01b81526001600160a01b03881690631b11d0ff90610dfb9089908990879033908b908b90600401611e52565b6020604051808303816000875af1158015610e1a573d6000803e3d6000fd5b505050506040513d601f19601f82011682018060405250810190610e3e9190611eae565b610e9a5760405162461bcd60e51b815260206004820152602760248201527f4c656e64696e67506f6f6c3a20666c617368206c6f616e2063616c6c6261636b6044820152660819985a5b195960ca1b6064820152608401610420565b6040516370a0823160e01b81523060048201526000906001600160a01b038816906370a0823190602401602060405180830381865afa158015610ee1573d6000803e3d6000fd5b505050506040513d601f19601f82011682018060405250810190610f059190611e00565b9050610f118383611ded565b811015610f6b5760405162461bcd60e51b815260206004820152602260248201527f4c656e64696e67506f6f6c3a20666c617368206c6f616e206e6f7420726570616044820152611a5960f21b6064820152608401610420565b600a805460ff1916905560408051878152602081018590526001600160a01b0389811692908b16917f0d7d75e01ab95780d3cd1c8ec0dd6c2ce19e3a20427eec8bf53283b6fb8e95f0910160405180910390a3505050610fd86001600080516020611ed183398151915255565b5050505050565b600061271060075483610ff29190611e19565b610ffc9190611e30565b92915050565b61100a611a56565b7f00000000000000000000000000000000000000000000000000000000000000006001600160a01b0316836001600160a01b031614801561107c57507f00000000000000000000000000000000000000000000000000000000000000006001600160a01b0316826001600160a01b0316145b6110c85760405162461bcd60e51b815260206004820152601960248201527f4c656e64696e67506f6f6c3a2077726f6e6720617373657473000000000000006044820152606401610420565b670de0b6b3a76400006110da826118ad565b106111365760405162461bcd60e51b815260206004820152602660248201527f4c656e64696e67506f6f6c3a20706f736974696f6e206e6f74206c6971756964604482015265617461626c6560d01b6064820152608401610420565b6001600160a01b03811660009081526002602052604090206001810154806111975760405162461bcd60e51b815260206004820152601460248201527313195b991a5b99d41bdbdb0e881b9bc81919589d60621b6044820152606401610420565b600080546040516341976e0960e01b81526001600160a01b038881166004830152909116906341976e0990602401602060405180830381865afa1580156111e2573d6000803e3d6000fd5b505050506040513d601f19601f820116820180604052508101906112069190611e00565b600080546040516341976e0960e01b81526001600160a01b038981166004830152939450919216906341976e0990602401602060405180830381865afa158015611254573d6000803e3d6000fd5b505050506040513d601f19601f820116820180604052508101906112789190611e00565b905060008211801561128a5750600081115b6112d65760405162461bcd60e51b815260206004820152601a60248201527f4c656e64696e67506f6f6c3a20696e76616c69642070726963650000000000006044820152606401610420565b60006112e461271084611e19565b6006546112f390612710611ded565b6112fd8487611e19565b6113079190611e19565b6113119190611e30565b8554909150811115611321575083545b838560010160008282546113359190611d99565b909155505084548190869060009061134e908490611d99565b9250508190555083600460008282546113679190611d99565b9250508190555080600360008282546113809190611d99565b9091555061139b90506001600160a01b038816333087611a72565b6113af6001600160a01b0389163383611aae565b604080516001600160a01b038a811682528981166020830152918101869052606081018390529087169033907fac8bbd8fb7420b3123cf9e24d34551e40514ea69c5a1e97c10e513aaf06e7e429060800160405180910390a350505050506114246001600080516020611ed183398151915255565b505050565b611431611a56565b7f00000000000000000000000000000000000000000000000000000000000000006001600160a01b0316826001600160a01b0316146114825760405162461bcd60e51b815260040161042090611dac565b600081116114a25760405162461bcd60e51b815260040161042090611d4c565b336000908152600260205260409020805482111561150e5760405162461bcd60e51b8152602060048201526024808201527f4c656e64696e67506f6f6c3a20696e73756666696369656e7420636f6c6c6174604482015263195c985b60e21b6064820152608401610420565b818160000160008282546115229190611d99565b92505081905550816003600082825461153b9190611d99565b90915550506001810154156115c057670de0b6b3a764000061155c336118ad565b10156115c05760405162461bcd60e51b815260206004820152602d60248201527f4c656e64696e67506f6f6c3a206865616c746820666163746f7220776f756c6460448201526c2064726f702062656c6f77203160981b6064820152608401610420565b6115d46001600160a01b0384163384611aae565b6040518281526001600160a01b0384169033907f9b1bfa7fa9ee420a16e124f794c35ac9f90472acc99140eb2f6447c714cad8eb9060200160405180910390a3506105166001600080516020611ed183398151915255565b6001600160a01b0381166000908152600260205260408120805482036116555750600092915050565b600080546040516341976e0960e01b81526001600160a01b037f000000000000000000000000000000000000000000000000000000000000000081166004830152909116906341976e0990602401602060405180830381865afa1580156116c0573d6000803e3d6000fd5b505050506040513d601f19601f820116820180604052508101906116e49190611e00565b600080546040516341976e0960e01b81526001600160a01b037f000000000000000000000000000000000000000000000000000000000000000081166004830152939450919216906341976e0990602401602060405180830381865afa158015611752573d6000803e3d6000fd5b505050506040513d601f19601f820116820180604052508101906117769190611e00565b90508060000361178b57506000949350505050565b825460009061179b908490611e19565b905060008285600101546117af9190611e19565b90506000612710600554846117c49190611e19565b6117ce9190611e30565b90508181116117e557506000979650505050505050565b60006117f18383611d99565b905060006117ff8683611e30565b6040516370a0823160e01b81523060048201529091506000906001600160a01b037f000000000000000000000000000000000000000000000000000000000000000016906370a0823190602401602060405180830381865afa158015611869573d6000803e3d6000fd5b505050506040513d601f19601f8201168201806040525081019061188d9190611e00565b905080821161189c578161189e565b805b9b9a5050505050505050505050565b6001600160a01b0381166000908152600260205260408120600181015482036118da575060001992915050565b600080546040516341976e0960e01b81526001600160a01b037f000000000000000000000000000000000000000000000000000000000000000081166004830152909116906341976e0990602401602060405180830381865afa158015611945573d6000803e3d6000fd5b505050506040513d601f19601f820116820180604052508101906119699190611e00565b82546119759190611e19565b600080546040516341976e0960e01b81526001600160a01b037f000000000000000000000000000000000000000000000000000000000000000081166004830152939450919216906341976e0990602401602060405180830381865afa1580156119e3573d6000803e3d6000fd5b505050506040513d601f19601f82011682018060405250810190611a079190611e00565b8360010154611a169190611e19565b9050611a2461271082611e19565b600554611a319084611e19565b611a4390670de0b6b3a7640000611e19565b611a4d9190611e30565b95945050505050565b611a5e611ae3565b6002600080516020611ed183398151915255565b611a80848484846001611b15565b611aa857604051635274afe760e01b81526001600160a01b0385166004820152602401610420565b50505050565b611abb8383836001611b87565b61142457604051635274afe760e01b81526001600160a01b0384166004820152602401610420565b600080516020611ed183398151915254600203611b1357604051633ee5aeb560e01b815260040160405180910390fd5b565b6040516323b872dd60e01b60008181526001600160a01b038781166004528616602452604485905291602083606481808c5af192506001600051148316611b75578383151615611b68573d6000823e3d81fd5b6000883b113d1516831692505b60405250600060605295945050505050565b60405163a9059cbb60e01b60008181526001600160a01b038616600452602485905291602083604481808b5af192506001600051148316611be1578383151615611bd4573d6000823e3d81fd5b6000873b113d1516831692505b60405250949350505050565b80356001600160a01b0381168114611c0457600080fd5b919050565b600060208284031215611c1b57600080fd5b611c2482611bed565b9392505050565b60008060408385031215611c3e57600080fd5b611c4783611bed565b946020939093013593505050565b600080600080600060808688031215611c6d57600080fd5b611c7686611bed565b9450611c8460208701611bed565b935060408601359250606086013567ffffffffffffffff80821115611ca857600080fd5b818801915088601f830112611cbc57600080fd5b813581811115611ccb57600080fd5b896020828501011115611cdd57600080fd5b9699959850939650602001949392505050565b600060208284031215611d0257600080fd5b5035919050565b600080600060608486031215611d1e57600080fd5b611d2784611bed565b9250611d3560208501611bed565b9150611d4360408501611bed565b90509250925092565b60208082526018908201527f4c656e64696e67506f6f6c3a207a65726f20616d6f756e740000000000000000604082015260600190565b634e487b7160e01b600052601160045260246000fd5b81810381811115610ffc57610ffc611d83565b60208082526021908201527f4c656e64696e67506f6f6c3a206e6f7420636f6c6c61746572616c20617373656040820152601d60fa1b606082015260800190565b80820180821115610ffc57610ffc611d83565b600060208284031215611e1257600080fd5b5051919050565b8082028115828204841417610ffc57610ffc611d83565b600082611e4d57634e487b7160e01b600052601260045260246000fd5b500490565b6001600160a01b03878116825260208201879052604082018690528416606082015260a06080820181905281018290526000828460c0840137600060c0848401015260c0601f19601f8501168301019050979650505050505050565b600060208284031215611ec057600080fd5b81518015158114611c2457600080fdfe9b779b17422d0df92223018b32b4d1fa46e071723d6817e2486d003becc55f00a2646970667358221220ba36d1a475c0b0d524181fdfe69eca34cb8b8ea9478b096ce16a84692446e29764736f6c63430008140033",
  "linkReferences": {},
  "deployedLinkReferences": {}
}