{
  "_format": "hh-sol-artifact-1",
  "contractName": "LendingPool",
  "sourceName": "contracts/LendingPool.sol",
  "abi": [
    {
      "inputs": [
        {
          "internalType": "address",
          "name": "_collateralAsset",
          "type": "address"
        },
        {
          "internalType": "address",
          "name": "_borrowAsset",
          "type": "address"
        },
        {
          "internalType": "address",
          "name": "_oracle",
          "type": "address"
        },
        {
          "internalType": "address",
          "name": "_governanceToken",
          "type": "address"
        }
      ],
      "stateMutability": "nonpayable",
      "type": "constructor"
    },
    {
      "inputs": [],
      "name": "ReentrancyGuardReentrantCall",
      "type": "error"
    },
    {
      "inputs": [
        {
          "internalType": "address",
          "name": "token",
          "type": "address"
        }
      ],
      "name": "SafeERC20FailedOperation",
      "type": "error"
    },
    {
      "anonymous": false,
      "inputs": [
        {
          "indexed": true,
          "internalType": "address",
          "name": "user",
          "type": "address"
        },
        {
          "indexed": true,
          "internalType": "address",
          "name": "asset",
          "type": "address"
        },
        {
          "indexed": false,
          "internalType": "uint256",
          "name": "amount",
          "type": "uint256"
        }
      ],
      "name": "Borrow",
      "type": "event"
    },
    {
      "anonymous": false,
      "inputs": [
        {
          "indexed": true,
          "internalType": "address",
          "name": "user",
          "type": "address"
        },
        {
          "indexed": true,
          "internalType": "address",
          "name": "asset",
          "type": "address"
        },
        {
          "indexed": false,
          "internalType": "uint256",
          "name": "amount",
          "type": "uint256"
        }
      ],
      "name": "Deposit",
      "type": "event"
    },
    {
      "anonymous": false,
      "inputs": [
        {
          "indexed": true,
          "internalType": "address",
          "name": "receiver",
          "type": "address"
        },
        {
          "indexed": true,
          "internalType": "address",
          "name": "asset",
          "type": "address"
        },
        {
          "indexed": false,
          "internalType": "uint256",
          "name": "amount",
          "type": "uint256"
        },
        {
          "indexed": false,
          "internalType": "uint256",
          "name": "fee",
          "type": "uint256"
        }
      ],
      "name": "FlashLoan",
      "type": "event"
    },
    {
      "anonymous": false,
      "inputs": [
        {
          "indexed": true,
          "internalType": "address",
          "name": "liquidator",
          "type": "address"
        },
        {
          "indexed": true,
          "internalType": "address",
          "name": "user",
          "type": "address"
        },
        {
          "indexed": false,
          "internalType": "address",
          "name": "collateralAsset",
          "type": "address"
        },
        {
          "indexed": false,
          "internalType": "address",
          "name": "debtAsset",
          "type": "address"
        },
        {
          "indexed": false,
          "internalType": "uint256",
          "name": "debtRepaid",
          "type": "uint256"
        },
        {
          "indexed": false,
          "internalType": "uint256",
          "name": "collateralReceived",
          "type": "uint256"
        }
      ],
      "name": "Liquidate",
      "type": "event"
    },
    {
      "anonymous": false,
      "inputs": [
        {
          "indexed": true,
          "internalType": "address",
          "name": "user",
          "type": "address"
        },
        {
          "indexed": true,
          "internalType": "address",
          "name": "asset",
          "type": "address"
        },
        {
          "indexed": false,
          "internalType": "uint256",
          "name": "amount",
          "type": "uint256"
        }
      ],
      "name": "Repay",
      "type": "event"
    },
    {
      "anonymous": false,
      "inputs": [
        {
          "indexed": true,
          "internalType": "address",
          "name": "user",
          "type": "address"
        },
        {
          "indexed": true,
          "internalType": "address",
          "name": "asset",
          "type": "address"
        },
        {
          "indexed": false,
          "internalType": "uint256",
          "name": "amount",
          "type": "uint256"
        }
      ],
      "name": "Withdraw",
      "type": "event"
    },
    {
      "inputs": [
        {
          "internalType": "address",
          "name": "asset",
          "type": "address"
        },
        {
          "internalType": "uint256",
          "name": "amount",
          "type": "uint256"
        }
      ],
      "name": "borrow",
      "outputs": [],
      "stateMutability": "nonpayable",
      "type": "function"
    },
    {
      "inputs": [],
      "name": "borrowAsset",
      "outputs": [
        {
          "internalType": "address",
          "name": "",
          "type": "address"
        }
      ],
      "stateMutability": "view",
      "type": "function"
    },
    {
      "inputs": [],
      "name": "collateralAsset",
      "outputs": [
        {
          "internalType": "address",
          "name": "",
          "type": "address"
        }
      ],
      "stateMutability": "view",
      "type": "function"
    },
    {
      "inputs": [
        {
          "internalType": "address",
          "name": "asset",
          "type": "address"
        },
        {
          "internalType": "uint256",
          "name": "amount",
          "type": "uint256"
        }
      ],
      "name": "deposit",
      "outputs": [],
      "stateMutability": "nonpayable",
      "type": "function"
    },
    {
      "inputs": [
        {
          "internalType": "address",
          "name": "receiverAddress",
          "type": "address"
        },
        {
          "internalType": "address",
          "name": "asset",
          "type": "address"
        },
        {
          "internalType": "uint256",
          "name": "amount",
          "type": "uint256"
        },
        {
          "internalType": "bytes",
          "name": "params",
          "type": "bytes"
        }
      ],
      "name": "flashLoan",
      "outputs": [],
      "stateMutability": "nonpayable",
      "type": "function"
    },
    {
      "inputs": [],
      "name": "flashLoanFeeBps",
      "outputs": [
        {
          "internalType": "uint256",
          "name": "",
          "type": "uint256"
        }
      ],
      "stateMutability": "view",
      "type": "function"
    },
    {
      "inputs": [
        {
          "internalType": "uint256",
          "name": "amount",
          "type": "uint256"
        }
      ],
      "name": "getFlashLoanFee",
      "outputs": [
        {
          "internalType": "uint256",
          "name": "",
          "type": "uint256"
        }
      ],
      "stateMutability": "view",
      "type": "function"
    },
    {
      "inputs": [
        {
          "internalType": "address",
          "name": "user",
          "type": "address"
        }
      ],
      "name": "getHealthFactor",
      "outputs": [
        {
          "internalType": "uint256",
          "name": "",
          "type": "uint256"
        }
      ],
      "stateMutability": "view",
      "type": "function"
    },
    {
      "inputs": [
        {
          "internalType": "address",
          "name": "user",
          "type": "address"
        }
      ],
      "name": "getUserPosition",
      "outputs": [
        {
          "internalType": "uint256",
          "name": "collateral",
          "type": "uint256"
        },
        {
          "internalType": "uint256",
          "name": "debt",
          "type": "uint256"
        }
      ],
      "stateMutability": "view",
      "type": "function"
    },
    {
      "inputs": [],
      "name": "getUtilizationRate",
      "outputs": [
        {
          "internalType": "uint256",
          "name": "",
          "type": "uint256"
        }
      ],
      "stateMutability": "view",
      "type": "function"
    },
    {
      "inputs": [],
      "name": "governanceToken",
      "outputs": [
        {
          "internalType": "contract GovernanceToken",
          "name": "",
          "type": "address"
        }
      ],
      "stateMutability": "view",
      "type": "function"
    },
    {
      "inputs": [
        {
          "internalType": "address",
          "name": "user",
          "type": "address"
        }
      ],
      "name": "isLiquidatable",
      "outputs": [
        {
          "internalType": "bool",
          "name": "",
          "type": "bool"
        }
      ],
      "stateMutability": "view",
      "type": "function"
    },
    {
      "inputs": [
        {
          "internalType": "address",
          "name": "collateralAsset_",
          "type": "address"
        },
        {
          "internalType": "address",
          "name": "debtAsset_",
          "type": "address"
        },
        {
          "internalType": "address",
          "name": "user",
          "type": "address"
        }
      ],
      "name": "liquidate",
      "outputs": [],
      "stateMutability": "nonpayable",
      "type": "function"
    },
    {
      "inputs": [],
      "name": "liquidationBonus",
      "outputs": [
        {
          "internalType": "uint256",
          "name": "",
          "type": "uint256"
        }
      ],
      "stateMutability": "view",
      "type": "function"
    },
    {
      "inputs": [],
      "name": "liquidationThreshold",
      "outputs": [
        {
          "internalType": "uint256",
          "name": "",
          "type": "uint256"
        }
      ],
      "stateMutability": "view",
      "type": "function"
    },
    {
      "inputs": [],
      "name": "oracle",
      "outputs": [
        {
          "internalType": "contract IPriceOracle",
          "name": "",
          "type": "address"
        }
      ],
      "stateMutability": "view",
      "type": "function"
    },
    {
      "inputs": [
        {
          "internalType": "address",
          "name": "",
          "type": "address"
        }
      ],
      "name": "positions",
      "outputs": [
        {
          "internalType": "uint256",
          "name": "collateral",
          "type": "uint256"
        },
        {
          "internalType": "uint256",
          "name": "debt",
          "type": "uint256"
        }
      ],
      "stateMutability": "view",
      "type": "function"
    },
    {
      "inputs": [
        {
          "internalType": "address",
          "name": "asset",
          "type": "address"
        },
        {
          "internalType": "uint256",
          "name": "amount",
          "type": "uint256"
        }
      ],
      "name": "repay",
      "outputs": [],
      "stateMutability": "nonpayable",
      "type": "function"
    },
    {
      "inputs": [],
      "name": "rewardPerBorrow",
      "outputs": [
        {
          "internalType": "uint256",
          "name": "",
          "type": "uint256"
        }
      ],
      "stateMutability": "view",
      "type": "function"
    },
    {
      "inputs": [],
      "name": "rewardPerDeposit",
      "outputs": [
        {
          "internalType": "uint256",
          "name": "",
          "type": "uint256"
        }
      ],
      "stateMutability": "view",
      "type": "function"
    },
    {
      "inputs": [],
      "name": "totalBorrowed",
      "outputs": [
        {
          "internalType": "uint256",
          "name": "",
          "type": "uint256"
        }
      ],
      "stateMutability": "view",
      "type": "function"
    },
    {
      "inputs": [],
      "name": "totalCollateral",
      "outputs": [
        {
          "internalType": "uint256",
          "name": "",
          "type": "uint256"
        }
      ],
      "stateMutability": "view",
      "type": "function"
    },
    {
      "inputs": [
        {
          "internalType": "address",
          "name": "asset",
          "type": "address"
        },
        {
          "internalType": "uint256",
          "name": "amount",
          "type": "uint256"
        }
      ],
      "name": "withdraw",
      "outputs": [],
      "stateMutability": "nonpayable",
      "type": "function"
    }
  ],
  "bytecode": "0x60c0604052611f406005556103e86006556009600755670de0b6b3a764000060085567016345785d8a00006009553480156200003a57600080fd5b5060405162001f2338038062001f238339810160408190526200005d91620001bd565b60017f9b779b17422d0df92223018b32b4d1fa46e071723d6817e2486d003becc55f00556001600160a01b03841615801590620000a257506001600160a01b03831615155b620000f45760405162461bcd60e51b815260206004820152601960248201527f4c656e64696e67506f6f6c3a207a65726f20616464726573730000000000000060448201526064015b60405180910390fd5b6001600160a01b038216158015906200011557506001600160a01b03811615155b620001635760405162461bcd60e51b815260206004820152601960248201527f4c656e64696e67506f6f6c3a207a65726f2061646472657373000000000000006044820152606401620000eb565b6001600160a01b0393841660805291831660a052600080549184166001600160a01b0319928316179055600180549290931691161790556200021a565b80516001600160a01b0381168114620001b857600080fd5b919050565b60008060008060808587031215620001d457600080fd5b620001df85620001a0565b9350620001ef60208601620001a0565b9250620001ff60408601620001a0565b91506200020f60608601620001a0565b905092959194509250565b60805160a051611c966200028d600039600081816101b401528181610387015281816106b90152818161076b01528181610bfc0152818161103901526117000152600081816102e20152818161050601528181610bc101528181610ffd0152818161142401526116650152611c966000f3fe608060405234801561001057600080fd5b506004361061014d5760003560e01c80635b7c2dad116100c3578063c0c7347e1161007c578063c0c7347e14610304578063ca5ce2ec1461030d578063ea4e2fd214610320578063f3fef3a314610329578063f96dae0a1461033c578063fe6bcd7c1461034f57600080fd5b80635b7c2dad1461026a5780635cffe9de1461029b5780637b7c1f4c146102ae5780637dc0d1d0146102b75780638dd2a7cf146102ca578063aabaecd6146102dd57600080fd5b806347e7ef241161011557806347e7ef24146101ee5780634a417a53146102015780634ac8eb5f146102095780634b8a3529146102125780634c19386c1461022557806355f575101461022e57600080fd5b8063042e02cf1461015257806322867d781461017a57806326bbb6081461018f5780634031234c146101a6578063446456e5146101af575b600080fd5b610165610160366004611979565b610362565b60405190151581526020015b60405180910390f35b61018d61018836600461199b565b61037d565b005b61019860095481565b604051908152602001610171565b61019860055481565b6101d67f000000000000000000000000000000000000000000000000000000000000000081565b6040516001600160a01b039091168152602001610171565b61018d6101fc36600461199b565b6104fc565b610198610690565b61019860035481565b61018d61022036600461199b565b610761565b61019860045481565b61025561023c366004611979565b6002602052600090815260409020805460019091015482565b60408051928352602083019190915201610171565b610255610278366004611979565b6001600160a01b0316600090815260026020526040902080546001909101549091565b61018d6102a93660046119c5565b610bb7565b61019860065481565b6000546101d6906001600160a01b031681565b6101986102d8366004611a60565b610fd0565b6101d67f000000000000000000000000000000000000000000000000000000000000000081565b61019860075481565b61018d61031b366004611a79565b610ff3565b61019860085481565b61018d61033736600461199b565b61141a565b6001546101d6906001600160a01b031681565b61019861035d366004611979565b61161d565b6000670de0b6b3a76400006103768361161d565b1092915050565b6103856117c6565b7f00000000000000000000000000000000000000000000000000000000000000006001600160a01b0316826001600160a01b03161461040b5760405162461bcd60e51b815260206004820152601d60248201527f4c656e64696e67506f6f6c3a206e6f7420626f72726f7720617373657400000060448201526064015b60405180910390fd5b6000811161042b5760405162461bcd60e51b815260040161040290611abc565b3360009081526002602052604081206001810154909190831161044e5782610454565b81600101545b90508082600101600082825461046a9190611b09565b9250508190555080600460008282546104839190611b09565b9091555061049e90506001600160a01b0385163330846117e2565b6040518181526001600160a01b0385169033907f05f2eeda0e08e4b437f487c8d7d29b14537d15e3488170dc3de5dbdf8dac4684906020015b60405180910390a350506104f86001600080516020611c4183398151915255565b5050565b6105046117c6565b7f00000000000000000000000000000000000000000000000000000000000000006001600160a01b0316826001600160a01b0316146105555760405162461bcd60e51b815260040161040290611b1c565b600081116105755760405162461bcd60e51b815260040161040290611abc565b3360009081526002602052604081208054839290610594908490611b5d565b9250508190555080600360008282546105ad9190611b5d565b909155506105c890506001600160a01b0383163330846117e2565b6008541561063957600154600854604051634d24848760e11b815233600482015260248101919091526001600160a01b0390911690639a49090e90604401600060405180830381600087803b15801561062057600080fd5b505af1158015610634573d6000803e3d6000fd5b505050505b6040518181526001600160a01b0383169033907f5548c837ab068cf56a2c2479df0882a4922fd203edb7517321831d95078c5f629060200160405180910390a36104f86001600080516020611c4183398151915255565b600480546040516370a0823160e01b815230928101929092526000918291906001600160a01b037f000000000000000000000000000000000000000000000000000000000000000016906370a0823190602401602060405180830381865afa158015610700573d6000803e3d6000fd5b505050506040513d601f19601f820116820180604052508101906107249190611b70565b61072e9190611b5d565b90508060000361074057600091505090565b806127106004546107519190611b89565b61075b9190611ba0565b91505090565b6107696117c6565b7f00000000000000000000000000000000000000000000000000000000000000006001600160a01b0316826001600160a01b0316146107ea5760405162461bcd60e51b815260206004820152601d60248201527f4c656e64696e67506f6f6c3a206e6f7420626f72726f772061737365740000006044820152606401610402565b6000811161080a5760405162461bcd60e51b815260040161040290611abc565b33600090815260026020526040902080546108675760405162461bcd60e51b815260206004820152601a60248201527f4c656e64696e67506f6f6c3a206e6f20636f6c6c61746572616c0000000000006044820152606401610402565b6040516370a0823160e01b815230600482015282906001600160a01b038516906370a0823190602401602060405180830381865afa1580156108ad573d6000803e3d6000fd5b505050506040513d601f19601f820116820180604052508101906108d19190611b70565b101561092b5760405162461bcd60e51b815260206004820152602360248201527f4c656e64696e67506f6f6c3a20696e73756666696369656e74206c697175696460448201526269747960e81b6064820152608401610402565b8181600101600082825461093f9190611b5d565b9250508190555081600460008282546109589190611b5d565b90915550670de0b6b3a764000090506109703361161d565b10156109c95760405162461bcd60e51b815260206004820152602260248201527f4c656e64696e67506f6f6c3a206865616c746820666163746f722062656c6f77604482015261203160f01b6064820152608401610402565b6040516370a0823160e01b81523060048201526000906001600160a01b038516906370a0823190602401602060405180830381865afa158015610a10573d6000803e3d6000fd5b505050506040513d601f19601f82011682018060405250810190610a349190611b70565b9050610a4a6001600160a01b038516338561181e565b610a548382611b09565b6040516370a0823160e01b81523060048201526001600160a01b038616906370a0823190602401602060405180830381865afa158015610a98573d6000803e3d6000fd5b505050506040513d601f19601f82011682018060405250810190610abc9190611b70565b14610b095760405162461bcd60e51b815260206004820152601c60248201527f4c656e64696e67506f6f6c3a207472616e73666572206661696c6564000000006044820152606401610402565b60095415610b7a57600154600954604051634d24848760e11b815233600482015260248101919091526001600160a01b0390911690639a49090e90604401600060405180830381600087803b158015610b6157600080fd5b505af1158015610b75573d6000803e3d6000fd5b505050505b6040518381526001600160a01b0385169033907f312a5e5e1079f5dda4e95dbbd0b908b291fd5b992ef22073643ab691572c5b52906020016104d7565b610bbf6117c6565b7f00000000000000000000000000000000000000000000000000000000000000006001600160a01b0316846001600160a01b03161480610c3057507f00000000000000000000000000000000000000000000000000000000000000006001600160a01b0316846001600160a01b0316145b610c7c5760405162461bcd60e51b815260206004820152601e60248201527f4c656e64696e67506f6f6c3a20756e737570706f7274656420617373657400006044820152606401610402565b60008311610c9c5760405162461bcd60e51b815260040161040290611abc565b600a5460ff1615610cf95760405162461bcd60e51b815260206004820152602160248201527f4c656e64696e67506f6f6c3a207265656e7472616e7420666c617368206c6f616044820152603760f91b6064820152608401610402565b600061271060075485610d0c9190611b89565b610d169190611ba0565b90506000610d248286611b5d565b600a805460ff191660011790556040516370a0823160e01b81523060048201529091506000906001600160a01b038816906370a0823190602401602060405180830381865afa158015610d7b573d6000803e3d6000fd5b505050506040513d601f19601f82011682018060405250810190610d9f9190611b70565b9050610db56001600160a01b038816898861181e565b604051631b11d0ff60e01b81526001600160a01b03891690631b11d0ff90610deb908a908a90889033908c908c90600401611bc2565b6020604051808303816000875af1158015610e0a573d6000803e3d6000fd5b505050506040513d601f19601f82011682018060405250810190610e2e9190611c1e565b610e8a5760405162461bcd60e51b815260206004820152602760248201527f4c656e64696e67506f6f6c3a20666c617368206c6f616e2063616c6c6261636b6044820152660819985a5b195960ca1b6064820152608401610402565b6040516370a0823160e01b81523060048201526000906001600160a01b038916906370a0823190602401602060405180830381865afa158015610ed1573d6000803e3d6000fd5b505050506040513d601f19601f82011682018060405250810190610ef59190611b70565b9050610f018483611b5d565b811015610f5b5760405162461bcd60e51b815260206004820152602260248201527f4c656e64696e67506f6f6c3a20666c617368206c6f616e206e6f7420726570616044820152611a5960f21b6064820152608401610402565b600a805460ff1916905560408051888152602081018690526001600160a01b038a811692908c16917f0d7d75e01ab95780d3cd1c8ec0dd6c2ce19e3a20427eec8bf53283b6fb8e95f0910160405180910390a350505050610fc96001600080516020611c4183398151915255565b5050505050565b600061271060075483610fe39190611b89565b610fed9190611ba0565b92915050565b610ffb6117c6565b7f00000000000000000000000000000000000000000000000000000000000000006001600160a01b0316836001600160a01b031614801561106d57507f00000000000000000000000000000000000000000000000000000000000000006001600160a01b0316826001600160a01b0316145b6110b95760405162461bcd60e51b815260206004820152601960248201527f4c656e64696e67506f6f6c3a2077726f6e6720617373657473000000000000006044820152606401610402565b670de0b6b3a76400006110cb8261161d565b106111275760405162461bcd60e51b815260206004820152602660248201527f4c656e64696e67506f6f6c3a20706f736974696f6e206e6f74206c6971756964604482015265617461626c6560d01b6064820152608401610402565b6001600160a01b03811660009081526002602052604090206001810154806111885760405162461bcd60e51b815260206004820152601460248201527313195b991a5b99d41bdbdb0e881b9bc81919589d60621b6044820152606401610402565b600080546040516341976e0960e01b81526001600160a01b038881166004830152909116906341976e0990602401602060405180830381865afa1580156111d3573d6000803e3d6000fd5b505050506040513d601f19601f820116820180604052508101906111f79190611b70565b600080546040516341976e0960e01b81526001600160a01b038981166004830152939450919216906341976e0990602401602060405180830381865afa158015611245573d6000803e3d6000fd5b505050506040513d601f19601f820116820180604052508101906112699190611b70565b905060008211801561127b5750600081115b6112c75760405162461bcd60e51b815260206004820152601a60248201527f4c656e64696e67506f6f6c3a20696e76616c69642070726963650000000000006044820152606401610402565b60006112d561271084611b89565b6006546112e490612710611b5d565b6112ee8487611b89565b6112f89190611b89565b6113029190611ba0565b8554909150811115611312575083545b838560010160008282546113269190611b09565b909155505084548190869060009061133f908490611b09565b9250508190555083600460008282546113589190611b09565b9250508190555080600360008282546113719190611b09565b9091555061138c90506001600160a01b0388163330876117e2565b6113a06001600160a01b038916338361181e565b604080516001600160a01b038a811682528981166020830152918101869052606081018390529087169033907fac8bbd8fb7420b3123cf9e24d34551e40514ea69c5a1e97c10e513aaf06e7e429060800160405180910390a350505050506114156001600080516020611c4183398151915255565b505050565b6114226117c6565b7f00000000000000000000000000000000000000000000000000000000000000006001600160a01b0316826001600160a01b0316146114735760405162461bcd60e51b815260040161040290611b1c565b600081116114935760405162461bcd60e51b815260040161040290611abc565b33600090815260026020526040902080548211156114ff5760405162461bcd60e51b8152602060048201526024808201527f4c656e64696e67506f6f6c3a20696e73756666696369656e7420636f6c6c6174604482015263195c985b60e21b6064820152608401610402565b818160000160008282546115139190611b09565b92505081905550816003600082825461152c9190611b09565b90915550506001810154156115b157670de0b6b3a764000061154d3361161d565b10156115b15760405162461bcd60e51b815260206004820152602d60248201527f4c656e64696e67506f6f6c3a206865616c746820666163746f7220776f756c6460448201526c2064726f702062656c6f77203160981b6064820152608401610402565b6115c56001600160a01b038416338461181e565b6040518281526001600160a01b0384169033907f9b1bfa7fa9ee420a16e124f794c35ac9f90472acc99140eb2f6447c714cad8eb9060200160405180910390a3506104f86001600080516020611c4183398151915255565b6001600160a01b03811660009081526002602052604081206001810154820361164a575060001992915050565b600080546040516341976e0960e01b81526001600160a01b037f000000000000000000000000000000000000000000000000000000000000000081166004830152909116906341976e0990602401602060405180830381865afa1580156116b5573d6000803e3d6000fd5b505050506040513d601f19601f820116820180604052508101906116d99190611b70565b82546116e59190611b89565b600080546040516341976e0960e01b81526001600160a01b037f000000000000000000000000000000000000000000000000000000000000000081166004830152939450919216906341976e0990602401602060405180830381865afa158015611753573d6000803e3d6000fd5b505050506040513d601f19601f820116820180604052508101906117779190611b70565b83600101546117869190611b89565b905061179461271082611b89565b6005546117a19084611b89565b6117b390670de0b6b3a7640000611b89565b6117bd9190611ba0565b95945050505050565b6117ce611853565b6002600080516020611c4183398151915255565b6117f0848484846001611885565b61181857604051635274afe760e01b81526001600160a01b0385166004820152602401610402565b50505050565b61182b83838360016118f7565b61141557604051635274afe760e01b81526001600160a01b0384166004820152602401610402565b600080516020611c418339815191525460020361188357604051633ee5aeb560e01b815260040160405180910390fd5b565b6040516323b872dd60e01b60008181526001600160a01b038781166004528616602452604485905291602083606481808c5af1925060016000511483166118e55783831516156118d8573d6000823e3d81fd5b6000883b113d1516831692505b60405250600060605295945050505050565b60405163a9059cbb60e01b60008181526001600160a01b038616600452602485905291602083604481808b5af192506001600051148316611951578383151615611944573d6000823e3d81fd5b6000873b113d1516831692505b60405250949350505050565b80356001600160a01b038116811461197457600080fd5b919050565b60006020828403121561198b57600080fd5b6119948261195d565b9392505050565b600080604083850312156119ae57600080fd5b6119b78361195d565b946020939093013593505050565b6000806000806000608086880312156119dd57600080fd5b6119e68661195d565b94506119f46020870161195d565b935060408601359250606086013567ffffffffffffffff80821115611a1857600080fd5b818801915088601f830112611a2c57600080fd5b813581811115611a3b57600080fd5b896020828501011115611a4d57600080fd5b9699959850939650602001949392505050565b600060208284031215611a7257600080fd5b5035919050565b600080600060608486031215611a8e57600080fd5b611a978461195d565b9250611aa56020850161195d565b9150611ab36040850161195d565b90509250925092565b60208082526018908201527f4c656e64696e67506f6f6c3a207a65726f20616d6f756e740000000000000000604082015260600190565b634e487b7160e01b600052601160045260246000fd5b81810381811115610fed57610fed611af3565b60208082526021908201527f4c656e64696e67506f6f6c3a206e6f7420636f6c6c61746572616c20617373656040820152601d60fa1b606082015260800190565b80820180821115610fed57610fed611af3565b600060208284031215611b8257600080fd5b5051919050565b8082028115828204841417610fed57610fed611af3565b600082611bbd57634e487b7160e01b600052601260045260246000fd5b500490565b6001600160a01b03878116825260208201879052604082018690528416606082015260a06080820181905281018290526000828460c0840137600060c0848401015260c0601f19601f8501168301019050979650505050505050565b600060208284031215611c3057600080fd5b8151801515811461199457600080fdfe9b779b17422d0df92223018b32b4d1fa46e071723d6817e2486d003becc55f00a26469706673582212201d94e1100442e8a265720fc57bcf9d7a8f50576a4999daec69e4605e42ff067764736f6c63430008140033",
  "linkReferences": {},
  "deployedLinkReferences": {}
}