{
  "_format": "hh-sol-artifact-1",
  "contractName": "LendingPool",
  "sourceName": "contracts/LendingPool.sol",
  "abi": [
    {
      "inputs": [
        {
          "internalType": "address",
          "name": "_collateralAsset",
          "type": "address"
        },
        {
          "internalType": "address",
          "name": "_borrowAsset",
          "type": "address"
        },
        {
          "internalType": "address",
          "name": "_oracle",
          "type": "address"
        },
        {
          "internalType": "address",
          "name": "_governanceToken",
          "type": "address"
        }
      ],
      "stateMutability": "nonpayable",
      "type": "constructor"
    },
    {
      "inputs": [],
      "name": "ReentrancyGuardReentrantCall",
      "type": "error"
    },
    {
      "inputs": [
        {
          "internalType": "address",
          "name": "token",
          "type": "address"
        }
      ],
      "name": "SafeERC20FailedOperation",
      "type": "error"
    },
    {
      "anonymous": false,
      "inputs": [
        {
          "indexed": true,
          "internalType": "address",
          "name": "user",
          "type": "address"
        },
        {
          "indexed": true,
          "internalType": "address",
          "name": "asset",
          "type": "address"
        },
        {
          "indexed": false,
          "internalType": "uint256",
          "name": "amount",
          "type": "uint256"
        }
      ],
      "name": "Borrow",
      "type": "event"
    },
    {
      "anonymous": false,
      "inputs": [
        {
          "indexed": true,
          "internalType": "address",
          "name": "user",
          "type": "address"
        },
        {
          "indexed": true,
          "internalType": "address",
          "name": "asset",
          "type": "address"
        },
        {
          "indexed": false,
          "internalType": "uint256",
          "name": "amount",
          "type": "uint256"
        }
      ],
      "name": "Deposit",
      "type": "event"
    },
    {
      "anonymous": false,
      "inputs": [
        {
          "indexed": true,
          "internalType": "address",
          "name": "receiver",
          "type": "address"
        },
        {
          "indexed": true,
          "internalType": "address",
          "name": "asset",
          "type": "address"
        },
        {
          "indexed": false,
          "internalType": "uint256",
          "name": "amount",
          "type": "uint256"
        },
        {
          "indexed": false,
          "internalType": "uint256",
          "name": "fee",
          "type": "uint256"
        }
      ],
      "name": "FlashLoan",
      "type": "event"
    },
    {
      "anonymous": false,
      "inputs": [
        {
          "indexed": true,
          "internalType": "address",
          "name": "liquidator",
          "type": "address"
        },
        {
          "indexed": true,
          "internalType": "address",
          "name": "user",
          "type": "address"
        },
        {
          "indexed": false,
          "internalType": "address",
          "name": "collateralAsset",
          "type": "address"
        },
        {
          "indexed": false,
          "internalType": "address",
          "name": "debtAsset",
          "type": "address"
        },
        {
          "indexed": false,
          "internalType": "uint256",
          "name": "debtRepaid",
          "type": "uint256"
        },
        {
          "indexed": false,
          "internalType": "uint256",
          "name": "collateralReceived",
          "type": "uint256"
        }
      ],
      "name": "Liquidate",
      "type": "event"
    },
    {
      "anonymous": false,
      "inputs": [
        {
          "indexed": true,
          "internalType": "address",
          "name": "user",
          "type": "address"
        },
        {
          "indexed": true,
          "internalType": "address",
          "name": "asset",
          "type": "address"
        },
        {
          "indexed": false,
          "internalType": "uint256",
          "name": "amount",
          "type": "uint256"
        }
      ],
      "name": "Repay",
      "type": "event"
    },
    {
      "anonymous": false,
      "inputs": [
        {
          "indexed": true,
          "internalType": "address",
          "name": "user",
          "type": "address"
        },
        {
          "indexed": true,
          "internalType": "address",
          "name": "asset",
          "type": "address"
        },
        {
          "indexed": false,
          "internalType": "uint256",
          "name": "amount",
          "type": "uint256"
        }
      ],
      "name": "Withdraw",
      "type": "event"
    },
    {
      "inputs": [
        {
          "internalType": "address",
          "name": "asset",
          "type": "address"
        },
        {
          "internalType": "uint256",
          "name": "amount",
          "type": "uint256"
        }
      ],
      "name": "borrow",
      "outputs": [],
      "stateMutability": "nonpayable",
      "type": "function"
    },
    {
      "inputs": [],
      "name": "borrowAsset",
      "outputs": [
        {
          "internalType": "address",
          "name": "",
          "type": "address"
        }
      ],
      "stateMutability": "view",
      "type": "function"
    },
    {
      "inputs": [],
      "name": "collateralAsset",
      "outputs": [
        {
          "internalType": "address",
          "name": "",
          "type": "address"
        }
      ],
      "stateMutability": "view",
      "type": "function"
    },
    {
      "inputs": [
        {
          "internalType": "address",
          "name": "asset",
          "type": "address"
        },
        {
          "internalType": "uint256",
          "name": "amount",
          "type": "uint256"
        }
      ],
      "name": "deposit",
      "outputs": [],
      "stateMutability": "nonpayable",
      "type": "function"
    },
    {
      "inputs": [
        {
          "internalType": "address",
          "name": "receiverAddress",
          "type": "address"
        },
        {
          "internalType": "address",
          "name": "asset",
          "type": "address"
        },
        {
          "internalType": "uint256",
          "name": "amount",
          "type": "uint256"
        },
        {
          "internalType": "bytes",
          "name": "params",
          "type": "bytes"
        }
      ],
      "name": "flashLoan",
      "outputs": [],
      "stateMutability": "nonpayable",
      "type": "function"
    },
    {
      "inputs": [],
      "name": "flashLoanFeeBps",
      "outputs": [
        {
          "internalType": "uint256",
          "name": "",
          "type": "uint256"
        }
      ],
      "stateMutability": "view",
      "type": "function"
    },
    {
      "inputs": [
        {
          "internalType": "uint256",
          "name": "amount",
          "type": "uint256"
        }
      ],
      "name": "getFlashLoanFee",
      "outputs": [
        {
          "internalType": "uint256",
          "name": "",
          "type": "uint256"
        }
      ],
      "stateMutability": "view",
      "type": "function"
    },
    {
      "inputs": [
        {
          "internalType": "address",
          "name": "user",
          "type": "address"
        }
      ],
      "name": "getHealthFactor",
      "outputs": [
        {
          "internalType": "uint256",
          "name": "",
          "type": "uint256"
        }
      ],
      "stateMutability": "view",
      "type": "function"
    },
    {
      "inputs": [
        {
          "internalType": "address",
          "name": "user",
          "type": "address"
        }
      ],
      "name": "getUserPosition",
      "outputs": [
        {
          "internalType": "uint256",
          "name": "collateral",
          "type": "uint256"
        },
        {
          "internalType": "uint256",
          "name": "debt",
          "type": "uint256"
        }
      ],
      "stateMutability": "view",
      "type": "function"
    },
    {
      "inputs": [],
      "name": "getUtilizationRate",
      "outputs": [
        {
          "internalType": "uint256",
          "name": "",
          "type": "uint256"
        }
      ],
      "stateMutability": "view",
      "type": "function"
    },
    {
      "inputs": [],
      "name": "governanceToken",
      "outputs": [
        {
          "internalType": "contract GovernanceToken",
          "name": "",
          "type": "address"
        }
      ],
      "stateMutability": "view",
      "type": "function"
    },
    {
      "inputs": [
        {
          "internalType": "address",
          "name": "user",
          "type": "address"
        }
      ],
      "name": "isLiquidatable",
      "outputs": [
        {
          "internalType": "bool",
          "name": "",
          "type": "bool"
        }
      ],
      "stateMutability": "view",
      "type": "function"
    },
    {
      "inputs": [
        {
          "internalType": "address",
          "name": "collateralAsset_",
          "type": "address"
        },
        {
          "internalType": "address",
          "name": "debtAsset_",
          "type": "address"
        },
        {
          "internalType": "address",
          "name": "user",
          "type": "address"
        }
      ],
      "name": "liquidate",
      "outputs": [],
      "stateMutability": "nonpayable",
      "type": "function"
    },
    {
      "inputs": [],
      "name": "liquidationBonus",
      "outputs": [
        {
          "internalType": "uint256",
          "name": "",
          "type": "uint256"
        }
      ],
      "stateMutability": "view",
      "type": "function"
    },
    {
      "inputs": [],
      "name": "liquidationThreshold",
      "outputs": [
        {
          "internalType": "uint256",
          "name": "",
          "type": "uint256"
        }
      ],
      "stateMutability": "view",
      "type": "function"
    },
    {
      "inputs": [],
      "name": "oracle",
      "outputs": [
        {
          "internalType": "contract IPriceOracle",
          "name": "",
          "type": "address"
        }
      ],
      "stateMutability": "view",
      "type": "function"
    },
    {
      "inputs": [
        {
          "internalType": "address",
          "name": "",
          "type": "address"
        }
      ],
      "name": "positions",
      "outputs": [
        {
          "internalType": "uint256",
          "name": "collateral",
          "type": "uint256"
        },
        {
          "internalType": "uint256",
          "name": "debt",
          "type": "uint256"
        }
      ],
      "stateMutability": "view",
      "type": "function"
    },
    {
      "inputs": [
        {
          "internalType": "address",
          "name": "asset",
          "type": "address"
        },
        {
          "internalType": "uint256",
          "name": "amount",
          "type": "uint256"
        }
      ],
      "name": "repay",
      "outputs": [],
      "stateMutability": "nonpayable",
      "type": "function"
    },
    {
      "inputs": [],
      "name": "rewardPerBorrow",
      "outputs": [
        {
          "internalType": "uint256",
          "name": "",
          "type": "uint256"
        }
      ],
      "stateMutability": "view",
      "type": "function"
    },
    {
      "inputs": [],
      "name": "rewardPerDeposit",
      "outputs": [
        {
          "internalType": "uint256",
          "name": "",
          "type": "uint256"
        }
      ],
      "stateMutability": "view",
      "type": "function"
    },
    {
      "inputs": [],
      "name": "totalBorrowed",
      "outputs": [
        {
          "internalType": "uint256",
          "name": "",
          "type": "uint256"
        }
      ],
      "stateMutability": "view",
      "type": "function"
    },
    {
      "inputs": [],
      "name": "totalCollateral",
      "outputs": [
        {
          "internalType": "uint256",
          "name": "",
          "type": "uint256"
        }
      ],
      "stateMutability": "view",
      "type": "function"
    },
    {
      "inputs": [
        {
          "internalType": "address",
          "name": "asset",
          "type": "address"
        },
        {
          "internalType": "uint256",
          "name": "amount",
          "type": "uint256"
        }
      ],
      "name": "withdraw",
      "outputs": [],
      "stateMutability": "nonpayable",
      "type": "function"
    }
  ],
  "bytecode": "0x60c0604052611f406005556103e86006556009600755670de0b6b3a764000060085567016345785d8a00006009553480156200003a57600080fd5b5060405162001f1438038062001f148339810160408190526200005d91620001bd565b60017f9b779b17422d0df92223018b32b4d1fa46e071723d6817e2486d003becc55f00556001600160a01b03841615801590620000a257506001600160a01b03831615155b620000f45760405162461bcd60e51b815260206004820152601960248201527f4c656e64696e67506f6f6c3a207a65726f20616464726573730000000000000060448201526064015b60405180910390fd5b6001600160a01b038216158015906200011557506001600160a01b03811615155b620001635760405162461bcd60e51b815260206004820152601960248201527f4c656e64696e67506f6f6c3a207a65726f2061646472657373000000000000006044820152606401620000eb565b6001600160a01b0393841660805291831660a052600080549184166001600160a01b0319928316179055600180549290931691161790556200021a565b80516001600160a01b0381168114620001b857600080fd5b919050565b60008060008060808587031215620001d457600080fd5b620001df85620001a0565b9350620001ef60208601620001a0565b9250620001ff60408601620001a0565b91506200020f60608601620001a0565b905092959194509250565b60805160a051611c876200028d600039600081816101b401528181610387015281816106b90152818161076b01528181610bfc0152818161102a01526116f10152600081816102e20152818161050601528181610bc101528181610fee0152818161141501526116560152611c876000f3fe608060405234801561001057600080fd5b506004361061014d5760003560e01c80635b7c2dad116100c3578063c0c7347e1161007c578063c0c7347e14610304578063ca5ce2ec1461030d578063ea4e2fd214610320578063f3fef3a314610329578063f96dae0a1461033c578063fe6bcd7c1461034f57600080fd5b80635b7c2dad1461026a5780635cffe9de1461029b5780637b7c1f4c146102ae5780637dc0d1d0146102b75780638dd2a7cf146102ca578063aabaecd6146102dd57600080fd5b806347e7ef241161011557806347e7ef24146101ee5780634a417a53146102015780634ac8eb5f146102095780634b8a3529146102125780634c19386c1461022557806355f575101461022e57600080fd5b8063042e02cf1461015257806322867d781461017a57806326bbb6081461018f5780634031234c146101a6578063446456e5146101af575b600080fd5b61016561016036600461196a565b610362565b60405190151581526020015b60405180910390f35b61018d61018836600461198c565b61037d565b005b61019860095481565b604051908152602001610171565b61019860055481565b6101d67f000000000000000000000000000000000000000000000000000000000000000081565b6040516001600160a01b039091168152602001610171565b61018d6101fc36600461198c565b6104fc565b610198610690565b61019860035481565b61018d61022036600461198c565b610761565b61019860045481565b61025561023c36600461196a565b6002602052600090815260409020805460019091015482565b60408051928352602083019190915201610171565b61025561027836600461196a565b6001600160a01b0316600090815260026020526040902080546001909101549091565b61018d6102a93660046119b6565b610bb7565b61019860065481565b6000546101d6906001600160a01b031681565b6101986102d8366004611a51565b610fc1565b6101d67f000000000000000000000000000000000000000000000000000000000000000081565b61019860075481565b61018d61031b366004611a6a565b610fe4565b61019860085481565b61018d61033736600461198c565b61140b565b6001546101d6906001600160a01b031681565b61019861035d36600461196a565b61160e565b6000670de0b6b3a76400006103768361160e565b1092915050565b6103856117b7565b7f00000000000000000000000000000000000000000000000000000000000000006001600160a01b0316826001600160a01b03161461040b5760405162461bcd60e51b815260206004820152601d60248201527f4c656e64696e67506f6f6c3a206e6f7420626f72726f7720617373657400000060448201526064015b60405180910390fd5b6000811161042b5760405162461bcd60e51b815260040161040290611aad565b3360009081526002602052604081206001810154909190831161044e5782610454565b81600101545b90508082600101600082825461046a9190611afa565b9250508190555080600460008282546104839190611afa565b9091555061049e90506001600160a01b0385163330846117d3565b6040518181526001600160a01b0385169033907f05f2eeda0e08e4b437f487c8d7d29b14537d15e3488170dc3de5dbdf8dac4684906020015b60405180910390a350506104f86001600080516020611c3283398151915255565b5050565b6105046117b7565b7f00000000000000000000000000000000000000000000000000000000000000006001600160a01b0316826001600160a01b0316146105555760405162461bcd60e51b815260040161040290611b0d565b600081116105755760405162461bcd60e51b815260040161040290611aad565b3360009081526002602052604081208054839290610594908490611b4e565b9250508190555080600360008282546105ad9190611b4e565b909155506105c890506001600160a01b0383163330846117d3565b6008541561063957600154600854604051634d24848760e11b815233600482015260248101919091526001600160a01b0390911690639a49090e90604401600060405180830381600087803b15801561062057600080fd5b505af1158015610634573d6000803e3d6000fd5b505050505b6040518181526001600160a01b0383169033907f5548c837ab068cf56a2c2479df0882a4922fd203edb7517321831d95078c5f629060200160405180910390a36104f86001600080516020611c3283398151915255565b600480546040516370a0823160e01b815230928101929092526000918291906001600160a01b037f000000000000000000000000000000000000000000000000000000000000000016906370a0823190602401602060405180830381865afa158015610700573d6000803e3d6000fd5b505050506040513d601f19601f820116820180604052508101906107249190611b61565b61072e9190611b4e565b90508060000361074057600091505090565b806127106004546107519190611b7a565b61075b9190611b91565b91505090565b6107696117b7565b7f00000000000000000000000000000000000000000000000000000000000000006001600160a01b0316826001600160a01b0316146107ea5760405162461bcd60e51b815260206004820152601d60248201527f4c656e64696e67506f6f6c3a206e6f7420626f72726f772061737365740000006044820152606401610402565b6000811161080a5760405162461bcd60e51b815260040161040290611aad565b33600090815260026020526040902080546108675760405162461bcd60e51b815260206004820152601a60248201527f4c656e64696e67506f6f6c3a206e6f20636f6c6c61746572616c0000000000006044820152606401610402565b6040516370a0823160e01b815230600482015282906001600160a01b038516906370a0823190602401602060405180830381865afa1580156108ad573d6000803e3d6000fd5b505050506040513d601f19601f820116820180604052508101906108d19190611b61565b101561092b5760405162461bcd60e51b815260206004820152602360248201527f4c656e64696e67506f6f6c3a20696e73756666696369656e74206c697175696460448201526269747960e81b6064820152608401610402565b8181600101600082825461093f9190611b4e565b9250508190555081600460008282546109589190611b4e565b90915550670de0b6b3a764000090506109703361160e565b10156109c95760405162461bcd60e51b815260206004820152602260248201527f4c656e64696e67506f6f6c3a206865616c746820666163746f722062656c6f77604482015261203160f01b6064820152608401610402565b6040516370a0823160e01b81523060048201526000906001600160a01b038516906370a0823190602401602060405180830381865afa158015610a10573d6000803e3d6000fd5b505050506040513d601f19601f82011682018060405250810190610a349190611b61565b9050610a4a6001600160a01b038516338561180f565b610a548382611afa565b6040516370a0823160e01b81523060048201526001600160a01b038616906370a0823190602401602060405180830381865afa158015610a98573d6000803e3d6000fd5b505050506040513d601f19601f82011682018060405250810190610abc9190611b61565b14610b095760405162461bcd60e51b815260206004820152601c60248201527f4c656e64696e67506f6f6c3a207472616e73666572206661696c6564000000006044820152606401610402565b60095415610b7a57600154600954604051634d24848760e11b815233600482015260248101919091526001600160a01b0390911690639a49090e90604401600060405180830381600087803b158015610b6157600080fd5b505af1158015610b75573d6000803e3d6000fd5b505050505b6040518381526001600160a01b0385169033907f312a5e5e1079f5dda4e95dbbd0b908b291fd5b992ef22073643ab691572c5b52906020016104d7565b610bbf6117b7565b7f00000000000000000000000000000000000000000000000000000000000000006001600160a01b0316846001600160a01b03161480610c3057507f00000000000000000000000000000000000000000000000000000000000000006001600160a01b0316846001600160a01b0316145b610c7c5760405162461bcd60e51b815260206004820152601e60248201527f4c656e64696e67506f6f6c3a20756e737570706f7274656420617373657400006044820152606401610402565b60008311610c9c5760405162461bcd60e51b815260040161040290611aad565b600a5460ff1615610cf95760405162461bcd60e51b815260206004820152602160248201527f4c656e64696e67506f6f6c3a207265656e7472616e7420666c617368206c6f616044820152603760f91b6064820152608401610402565b600061271060075485610d0c9190611b7a565b610d169190611b91565b600a805460ff191660011790556040516370a0823160e01b81523060048201529091506000906001600160a01b038716906370a0823190602401602060405180830381865afa158015610d6d573d6000803e3d6000fd5b505050506040513d601f19601f82011682018060405250810190610d919190611b61565b9050610da76001600160a01b038716888761180f565b604051631b11d0ff60e01b81526001600160a01b03881690631b11d0ff90610ddd9089908990879033908b908b90600401611bb3565b6020604051808303816000875af1158015610dfc573d6000803e3d6000fd5b505050506040513d601f19601f82011682018060405250810190610e209190611c0f565b610e7c5760405162461bcd60e51b815260206004820152602760248201527f4c656e64696e67506f6f6c3a20666c617368206c6f616e2063616c6c6261636b6044820152660819985a5b195960ca1b6064820152608401610402565b6040516370a0823160e01b81523060048201526000906001600160a01b038816906370a0823190602401602060405180830381865afa158015610ec3573d6000803e3d6000fd5b505050506040513d601f19601f82011682018060405250810190610ee79190611b61565b9050610ef38383611b4e565b811015610f4d5760405162461bcd60e51b815260206004820152602260248201527f4c656e64696e67506f6f6c3a20666c617368206c6f616e206e6f7420726570616044820152611a5960f21b6064820152608401610402565b600a805460ff1916905560408051878152602081018590526001600160a01b0389811692908b16917f0d7d75e01ab95780d3cd1c8ec0dd6c2ce19e3a20427eec8bf53283b6fb8e95f0910160405180910390a3505050610fba6001600080516020611c3283398151915255565b5050505050565b600061271060075483610fd49190611b7a565b610fde9190611b91565b92915050565b610fec6117b7565b7f00000000000000000000000000000000000000000000000000000000000000006001600160a01b0316836001600160a01b031614801561105e57507f00000000000000000000000000000000000000000000000000000000000000006001600160a01b0316826001600160a01b0316145b6110aa5760405162461bcd60e51b815260206004820152601960248201527f4c656e64696e67506f6f6c3a2077726f6e6720617373657473000000000000006044820152606401610402565b670de0b6b3a76400006110bc8261160e565b106111185760405162461bcd60e51b815260206004820152602660248201527f4c656e64696e67506f6f6c3a20706f736974696f6e206e6f74206c6971756964604482015265617461626c6560d01b6064820152608401610402565b6001600160a01b03811660009081526002602052604090206001810154806111795760405162461bcd60e51b815260206004820152601460248201527313195b991a5b99d41bdbdb0e881b9bc81919589d60621b6044820152606401610402565b600080546040516341976e0960e01b81526001600160a01b038881166004830152909116906341976e0990602401602060405180830381865afa1580156111c4573d6000803e3d6000fd5b505050506040513d601f19601f820116820180604052508101906111e89190611b61565b600080546040516341976e0960e01b81526001600160a01b038981166004830152939450919216906341976e0990602401602060405180830381865afa158015611236573d6000803e3d6000fd5b505050506040513d601f19601f8201168201806040525081019061125a9190611b61565b905060008211801561126c5750600081115b6112b85760405162461bcd60e51b815260206004820152601a60248201527f4c656e64696e67506f6f6c3a20696e76616c69642070726963650000000000006044820152606401610402565b60006112c661271084611b7a565b6006546112d590612710611b4e565b6112df8487611b7a565b6112e99190611b7a565b6112f39190611b91565b8554909150811115611303575083545b838560010160008282546113179190611afa565b9091555050845481908690600090611330908490611afa565b9250508190555083600460008282546113499190611afa565b9250508190555080600360008282546113629190611afa565b9091555061137d90506001600160a01b0388163330876117d3565b6113916001600160a01b038916338361180f565b604080516001600160a01b038a811682528981166020830152918101869052606081018390529087169033907fac8bbd8fb7420b3123cf9e24d34551e40514ea69c5a1e97c10e513aaf06e7e429060800160405180910390a350505050506114066001600080516020611c3283398151915255565b505050565b6114136117b7565b7f00000000000000000000000000000000000000000000000000000000000000006001600160a01b0316826001600160a01b0316146114645760405162461bcd60e51b815260040161040290611b0d565b600081116114845760405162461bcd60e51b815260040161040290611aad565b33600090815260026020526040902080548211156114f05760405162461bcd60e51b8152602060048201526024808201527f4c656e64696e67506f6f6c3a20696e73756666696369656e7420636f6c6c6174604482015263195c985b60e21b6064820152608401610402565b818160000160008282546115049190611afa565b92505081905550816003600082825461151d9190611afa565b90915550506001810154156115a257670de0b6b3a764000061153e3361160e565b10156115a25760405162461bcd60e51b815260206004820152602d60248201527f4c656e64696e67506f6f6c3a206865616c746820666163746f7220776f756c6460448201526c2064726f702062656c6f77203160981b6064820152608401610402565b6115b66001600160a01b038416338461180f565b6040518281526001600160a01b0384169033907f9b1bfa7fa9ee420a16e124f794c35ac9f90472acc99140eb2f6447c714cad8eb9060200160405180910390a3506104f86001600080516020611c3283398151915255565b6001600160a01b03811660009081526002602052604081206001810154820361163b575060001992915050565b600080546040516341976e0960e01b81526001600160a01b037f000000000000000000000000000000000000000000000000000000000000000081166004830152909116906341976e0990602401602060405180830381865afa1580156116a6573d6000803e3d6000fd5b505050506040513d601f19601f820116820180604052508101906116ca9190611b61565b82546116d69190611b7a565b600080546040516341976e0960e01b81526001600160a01b037f000000000000000000000000000000000000000000000000000000000000000081166004830152939450919216906341976e0990602401602060405180830381865afa158015611744573d6000803e3d6000fd5b505050506040513d601f19601f820116820180604052508101906117689190611b61565b83600101546117779190611b7a565b905061178561271082611b7a565b6005546117929084611b7a565b6117a490670de0b6b3a7640000611b7a565b6117ae9190611b91565b95945050505050565b6117bf611844565b6002600080516020611c3283398151915255565b6117e1848484846001611876565b61180957604051635274afe760e01b81526001600160a01b0385166004820152602401610402565b50505050565b61181c83838360016118e8565b61140657604051635274afe760e01b81526001600160a01b0384166004820152602401610402565b600080516020611c328339815191525460020361187457604051633ee5aeb560e01b815260040160405180910390fd5b565b6040516323b872dd60e01b60008181526001600160a01b038781166004528616602452604485905291602083606481808c5af1925060016000511483166118d65783831516156118c9573d6000823e3d81fd5b6000883b113d1516831692505b60405250600060605295945050505050565b60405163a9059cbb60e01b60008181526001600160a01b038616600452602485905291602083604481808b5af192506001600051148316611942578383151615611935573d6000823e3d81fd5b6000873b113d1516831692505b60405250949350505050565b80356001600160a01b038116811461196557600080fd5b919050565b60006020828403121561197c57600080fd5b6119858261194e565b9392505050565b6000806040838503121561199f57600080fd5b6119a88361194e565b946020939093013593505050565b6000806000806000608086880312156119ce57600080fd5b6119d78661194e565b94506119e56020870161194e565b935060408601359250606086013567ffffffffffffffff80821115611a0957600080fd5b818801915088601f830112611a1d57600080fd5b813581811115611a2c57600080fd5b896020828501011115611a3e57600080fd5b9699959850939650602001949392505050565b600060208284031215611a6357600080fd5b5035919050565b600080600060608486031215611a7f57600080fd5b611a888461194e565b9250611a966020850161194e565b9150611aa46040850161194e565b90509250925092565b60208082526018908201527f4c656e64696e67506f6f6c3a207a65726f20616d6f756e740000000000000000604082015260600190565b634e487b7160e01b600052601160045260246000fd5b81810381811115610fde57610fde611ae4565b60208082526021908201527f4c656e64696e67506f6f6c3a206e6f7420636f6c6c61746572616c20617373656040820152601d60fa1b606082015260800190565b80820180821115610fde57610fde611ae4565b600060208284031215611b7357600080fd5b5051919050565b8082028115828204841417610fde57610fde611ae4565b600082611bae57634e487b7160e01b600052601260045260246000fd5b500490565b6001600160a01b03878116825260208201879052604082018690528416606082015260a06080820181905281018290526000828460c0840137600060c0848401015260c0601f19601f8501168301019050979650505050505050565b600060208284031215611c2157600080fd5b8151801515811461198557600080fdfe9b779b17422d0df92223018b32b4d1fa46e071723d6817e2486d003becc55f00a26469706673582212200fc4b672bf7af8fe4e32accf9bf777d27b18b53dff8d13fe78c3e54b7a3ec9bd64736f6c63430008140033",
  "linkReferences": {},
  "deployedLinkReferences": {}
}