{
  "_format": "hh-sol-artifact-1",
  "contractName": "PriceOracle",
  "sourceName": "contracts/PriceOracle.sol",
  "abi": [
    {
      "anonymous": false,
      "inputs": [
        {
          "indexed": true,
          "internalType": "address",
          "name": "asset",
          "type": "address"
        },
        {
          "indexed": false,
          "internalType": "uint256",
          "name": "price",
          "type": "uint256"
        }
      ],
      "name": "FallbackPriceSet",
      "type": "event"
    },
    {
      "anonymous": false,
      "inputs": [
        {
          "indexed": true,
          "internalType": "address",
          "name": "asset",
          "type": "address"
        },
        {
          "indexed": true,
          "internalType": "address",
          "name": "feed",
          "type": "address"
        }
      ],
      "name": "PriceFeedSet",
      "type": "event"
    },
    {
      "inputs": [
        {
          "internalType": "address",
          "name": "asset",
          "type": "address"
        }
      ],
      "name": "getPrice",
      "outputs": [
        {
          "internalType": "uint256",
          "name": "price",
          "type": "uint256"
        }
      ],
      "stateMutability": "view",
      "type": "function"
    },
    {
      "inputs": [
        {
          "internalType": "address",
          "name": "asset",
          "type": "address"
        }
      ],
      "name": "getPriceFeed",
      "outputs": [
        {
          "internalType": "address",
          "name": "",
          "type": "address"
        }
      ],
      "stateMutability": "view",
      "type": "function"
    },
    {
      "inputs": [
        {
          "internalType": "address",
          "name": "asset",
          "type": "address"
        },
        {
          "internalType": "uint256",
          "name": "price",
          "type": "uint256"
        }
      ],
      "name": "setFallbackPrice",
      "outputs": [],
      "stateMutability": "nonpayable",
      "type": "function"
    },
    {
      "inputs": [
        {
          "internalType": "address",
          "name": "asset",
          "type": "address"
        },
        {
          "internalType": "address",
          "name": "feedAddress",
          "type": "address"
        }
      ],
      "name": "setPriceFeed",
      "outputs": [],
      "stateMutability": "nonpayable",
      "type": "function"
    }
  ],
  "bytecode": "0x608060405234801561001057600080fd5b50610426806100206000396000f3fe608060405234801561001057600080fd5b506004361061004c5760003560e01c806341976e09146100515780635b6cca801461007757806376e11286146100bb578063d9113d71146100d0575b600080fd5b61006461005f36600461030e565b6100e3565b6040519081526020015b60405180910390f35b6100a361008536600461030e565b6001600160a01b039081166000908152602081905260409020541690565b6040516001600160a01b03909116815260200161006e565b6100ce6100c9366004610329565b610242565b005b6100ce6100de36600461035c565b610299565b6001600160a01b0380821660009081526020819052604081205490911680156101d25760008190506000816001600160a01b031663feaf968c6040518163ffffffff1660e01b815260040160a060405180830381865afa15801561014b573d6000803e3d6000fd5b505050506040513d601f19601f8201168201806040525081019061016f91906103a0565b505050915050600081136101ca5760405162461bcd60e51b815260206004820152601b60248201527f50726963654f7261636c653a20696e76616c696420616e73776572000000000060448201526064015b60405180910390fd5b949350505050565b6001600160a01b0383166000908152600160205260408120549081900361023b5760405162461bcd60e51b815260206004820181905260248201527f50726963654f7261636c653a206e6f2066656564206f722066616c6c6261636b60448201526064016101c1565b9392505050565b6001600160a01b0382811660008181526020819052604080822080546001600160a01b0319169486169485179055517fd2d8394cf7549a5ddbc2ba3dd7b2de8d53c891472d1f2907008ed6a10045fdae9190a35050565b6001600160a01b03821660008181526001602052604090819020839055517f11560119f5dadb2845fc7f17575b7573978dcad306c3ec2586b702b90268dbae906102e69084815260200190565b60405180910390a25050565b80356001600160a01b038116811461030957600080fd5b919050565b60006020828403121561032057600080fd5b61023b826102f2565b6000806040838503121561033c57600080fd5b610345836102f2565b9150610353602084016102f2565b90509250929050565b6000806040838503121561036f57600080fd5b610378836102f2565b946020939093013593505050565b805169ffffffffffffffffffff8116811461030957600080fd5b600080600080600060a086880312156103b857600080fd5b6103c186610386565b94506020860151935060408601519250606086015191506103e460808701610386565b9050929550929590935056fea2646970667358221220f70daee674bd89c5f3a0203af773150fd7ff8e30830814b340fc1a67f9ebc80e64736f6c63430008140033",
  "linkReferences": {},
  "deployedLinkReferences": {}
}